:02000000A02836
:0A000600AA08031D07280800F930BE
:1000100000000000000000000000000000000000E0
:1000200000000000000000000000000000000000D0
:10003000FF3E031D08280000000000000000000033
:1000400000000000000000000000000000000000B0
:10005000000000000000AA0B072808008312031309
:10006000A90106170130AA00032006130130AA00D7
:100070000320A80108302802031852280310A90DF4
:10008000861F44282910452829140130AA0003207E
:1000900086160130AA00032086120130AA00032030
:1000A000A80A3A282908A000080083120313860131
:1000B0008630831686008130990018151812831235
:1000C0009817831698168312A2010030A1010130FF
:1000D000A6002E202008A100220821060319692865
:1000E0002108A3002208A400A50108302502031856
:1000F0009D2826082305A80026082405280603199C
:10010000972826082305031990287F302505A90084
:1001100080302904A70099000130AA000320972805
:100120007F302505A70099000130AA0003200310A5
:10013000A30C0310A40CA50A75282108A2006928A5
:060140008A110A12552885
:00000001FF