:020000040000FA
:0600000014EF01F01200F4
:02002A000000D4
:04002C00948E949C7E
:100030000F0EAF6EAC94AC98AB8EAC8AAB989D9A19
:10004000F29CF29E1200D9CFE6FFE1CFD9FFE65233
:100050008150DF6E816ADF1CDF6EDF5000D0E55219
:10006000E552E7CFD9FF1200D9CFE6FFE1CFD9FFA4
:10007000070EE126010EF36E050EF3CFDBFF816A5A
:100080009368D4DF010EDB6A000EDF6EDCDFDF6E0B
:10009000010EDB50DF5C5EE0020EDFCFDBFF010E06
:1000A000DB50E76E030EE7CFDBFF040EDB6A080EC2
:1000B000F36E040EDBCFF4FFF350F45C48E2050E60
:1000C000DBCFE6FF020EDB50E552E714036E050EB0
:1000D000DBCFE6FF030EDB50E552E714035C26E0BE
:1000E000050EDBCFE6FF020EDB50E552E71410E011
:1000F000040EDB507F0B8009E76E060EE7CFDBFFB7
:10010000DB50AD6E640EE66E04EC01F0E5520ED0ED
:10011000040EDB507F0BE76E060EE7CFDBFFDB50F4
:10012000AD6E640EE66E04EC01F0E552020EDBCF1C
:10013000F3FFF390F342F3CFDBFF030EDBCFF3FFCC
:10014000F390F342F3CFDBFF040EDB2AB0D7010EAE
:10015000DFCFDBFF9BD7070EE15C02E2E16AE552ED
:0A016000E16EE552E7CFD9FF12006F
:06016A002A0EF66E000EE5
:10017000F76E000EF86E00010900F550856F09005A
:10018000F550866F03E1856701D03DD00900F55039
:10019000806F0900F550816F0900F550826F0900EA
:1001A0000900F550E96E0900F550EA6E09000900F2
:1001B0000900F550836F0900F550846F09000900AC
:1001C000F6CF87F0F7CF88F0F8CF89F080C0F6FF40
:1001D00081C0F7FF82C0F8FF0001835302E184531E
:1001E00007E00900F550EE6E8307F8E28407F9D7BF
:1001F00087C0F6FF88C0F7FF89C0F8FF00018507B8
:08020000000E865BBFD712005F
:08020800FF0EE350026E480EE8
:1002100001D04C0EE76EE72EFED7E76AE72EFED739
:08022000022EF7D700001200C6
:0802280015EE00F025EE00F0D8
:10023000F86A019CB5EC00F034EC00F0FDD7120038
:00000001FF
