:1000000087EF00F00452D8A407EF00F01200310E81
:100010000000FF0FD8A408EF00F00000042E07EF47
:1000200000F01200FA0E046E02EC00F0FA0E046EFC
:1000300002EC00F0FA0E046E02EC00F0FA0E046E10
:1000400002EC00F0032EEED71200070EC16E92688C
:1000500093689468956A806A816A826A83681200EC
:100060008368006A016A026A25EC00F0020E036EE2
:1000700012EC00F08390140E046E02EC00F083800A
:10008000060E036E12EC00F08392640E046E02EC16
:1000900000F0838282AEFED70F0E8214036E0F0E25
:1000A0000362F8D78150016E01280BE18392640E40
:1000B000046E02EC00F08382320E046E02EC00F05B
:1000C000E9D70250016202621BD0015002600CD0DD
:1000D000022A8396320E046E02EC00F08386320E02
:1000E000046E02EC00F0EDD702068394320E046E2B
:1000F00002EC00F08384320E046E02EC00F0E1D7D3
:100100008390140E046E02EC00F08380C3D730EFAE
:0201100000F0FD
:00000001FF