:020000040000fa
:08000000c00104000000000033
:020000040000fa
:1002000000000000000000000000000000000000ee
:1002100000000000000000000000000000000000de
:1002200000000000000000000000000000000000ce
:1002300000000000000000000000000000000000be
:1002400000000000000000000000000000000000ae
:10025000000000000000000000000000000000009e
:10026000000000000000000000000000000000008e
:10027000000000000000000000000000000000007e
:10028000000000000000000000000000000000006e
:10029000000000000000000000000000000000005e
:1002a000000000000000000000000000000000004e
:1002b000000000000000000000000000000000003e
:1002c000000000000000000000000000000000002e
:1002d000000000000000000000000000000000001e
:1002e000000000000000000000000000000000000e
:1002f00000000000000000000000000000000000fe
:1003000000000000000000000000000000000000ed
:1003100000000000000000000000000000000000dd
:1003200000000000000000000000000000000000cd
:1003300000000000000000000000000000000000bd
:1003400000000000000000000000000000000000ad
:10035000000000000000000000000000000000009d
:10036000000000000000000000000000000000008d
:10037000000000000000000000000000000000007d
:100380002ff4200080ff2000000188000000000002
:10039000050007000c0007005812020000000000d2
:1003a0000040da000000fe004440a90000002000e8
:1003b0000000e0000300320000002000a0018800df
:1003c0004440a80000000600600e27000100200045
:1003d0001600370062004000e0804800910188006c
:1003e0009001ba0062004000e0804800910188005e
:1003f0009002ba0062004000e08048000002eb007a
:100400006028e10005003a008301e900070033009d
:10041000038009000059eb00040037006128e10067
:10042000010032000082eb00050007009101880006
:100430001001ba000200e000e6ff3a0000000500eb
:10044000910188008002780062004000e08048004e
:100450003559ba008301e900080032002559ba0075
:100460008301e900050032000400e000f4ff3200df
:1004700015d9ba008301e900f1ff3a000000060037
:10048000889fbe008a9fbe00010578000100e00041
:100490000400350008003c000000e00020003200ad
:1004a0000500370060001000e080180002003b00eb
:1004b00001f02c001a0037000004be006011b800e3
:1004c0006b0920000982cf00020039000882cf00aa
:1004d0000441b000694252000e00320008003b00a7
:1004e00082817100610164008904d1000884d30015
:1004f0008b05e8000442e800f9ff3a0005003700e8
:100500000804440089844c008b05e9000442e9009a
:10051000fbff3a00d10107000af0a70001f0a0009c
:100520004f05be004f04be000000060003f0a2000d
:10053000889fbe008a9fbe008c1f7800ed010700d7
:10054000f40133006450e1004f0032006420e10008
:100550005200320003826c0007003b000905d00006
:100560000306d000820f54000c065d000200390023
:100570000200320089017800030678008582550068
:1005800004003d000003fd008103fd008502ea0038
:100590008b854200840f720002003b006000100057
:1005a000e08018006011b8000005eb007a28e10037
:1005b0000a00390006007800c75ddd00f707b200c9
:1005c000878075002d003700828171000a01780054
:1005d000610560008180d1000080d3008502e900c0
:1005e000f9ff3b00060440008784480002003b00fe
:1005f00060041400e0841c000988a3000700320096
:100600008a81710082817100610164008904d100d6
:100610000884d3008b05e800170037000978a30091
:1006200013003a000b00e000130034008b05e900d2
:100630000804440089844c000a4474000978a3002b
:100640000d003a000b00e000070034008b05e900c4
:100650000804440089844c0001003a000b0020008b
:100660000978a300f7ff32000001eb000200370019
:10067000828171000a017800780107000cf0a70060
:1006800001f0a000ac0137006420e10002003a0054
:10069000838f6c00ac0133000801be000200be0075
:1006a000a5013700889fbe008a9fbe008c1f78007e
:1006b000900107009701330003866c006450e1004d
:1006c0002e0032006420e100330032006150e1006e
:1006d0002f0032006120e100310032008585550095
:1006e000eb07b000090020000804200005003700d7
:1006f0000804440089844c000a00310006034300ca
:1007000087834b000001530081815b00f8ff3300b9
:100710000203be000800a0000804440089844c00c5
:10072000f6ff3900c639dd00830173000100320095
:10073000130020008904d1000884d3000998a30085
:10074000050032000800a7000300a0008904d100c2
:100750000884d3008b05e8008904d1000884d30005
:100760000001eb000281d2003c01070001f0a10072
:100770000cf0a70001f0a0006f0137006420e10039
:10078000710132000801be000200be00f7ff370011
:100790006120e1006c0132006000b800f3ff370017
:1007a0000000200001f82700f0ff37000001be0024
:1007b000680107000470a70003f0a10003f8a3007c
:1007c00013003a006509b10010003200090035003d
:1007d0006928e10002003500010028000000050042
:1007e00000004000818048008502e900fcff3a00db
:1007f00000000600f88f4200050035008100d1009e
:100800000080d3008502e800fcff3a0000000600eb
:100810008000eb0000000500881f780000047800cd
:100820005001be004000be000000420081804a002e
:1008300002014b0083814b00009cbe000294be006d
:10084000dc00070003003100480090000000e800d1
:10085000400498004f04780000000600889fbe0006
:10086000000478008004eb005001be004000be0090
:10087000d0000700010031001900200004005000e2
:10088000858058000601590087815900009cbe00f0
:100890000294be00480090000900500040049800f7
:1008a0004f04be00000006001200fa00889fbe0040
:1008b0008a9fbe008c1f78000205be000004be00a7
:1008c000f4b79f0085bf9f0096bf9f00a7bf9f0002
:1008d0000000eb00e0b79f00d0b79f00c0b79f00bb
:1008e000b0b79f00a0b79f000006eb005fb1970074
:1008f0006fb097008000d0000000e00015003d00c0
:10090000e1b79f00010078000200e00001003d0017
:100910000000a000ac00070001003d000000a000a6
:10092000af00070001003d000000a000b20007007a
:1009300001003d000000a0008100070001003d0013
:100940000000a000b20007007c805700b2ff070043
:1009500014003700e1b79f00010078000200e000ba
:1009600001003d000000a0009700070001003d00cd
:100970000000a0009a00070001003d000000a00058
:100980009d00070001003d000000a0006c00070072
:1009900001003d000000a0009d0007007c80570082
:1009a000aeff07006fb097000000e00007003500c1
:1009b00010002000010020006011b8000804700041
:1009c000898470000a0571008b8571000c06e800af
:1009d000f0032000800f5600c4ff34006fb0970072
:1009e0000000e00006003d007fb297008fba97003c
:1009f0001fbb9700afbb97007c80570086ff0700a6
:100a00000802be000a03be006fa897000000e000c5
:100a100004003a002fb29700bfb297004fb397007f
:100a2000dfb397000400be000601be004f06780049
:100a30004f05be004f04be000080fa000000060013
:100a4000881f780018002000881f780096ff070094
:100a50008f87e9004f04780000000600801feb003c
:100a600091ff07008f87e900000006000800fa00e8
:100a7000889fbe008a9fbe008c1f78006e00070012
:100a800005003d0043000700300007000c003d005a
:100a9000330007000b003700e00f5200e08f5a00d0
:100aa000e00f5b00e08f5b0006003d000400be002d
:100ab0000601be00bc0007000205be000004be0027
:100ac0001c0020002c000700ddff07000c00e000e8
:100ad00001003200b40007004f0678004f05be0049
:100ae0004f04be000080fa00000006000800fa0073
:100af000889fbe008a9fbe008c1f78004e000700b2
:100b000002003d001c002000220007000f0007002b
:100b100001003d001200070017000700cfff07008b
:100b20000c00e000010032009f0007004f06780033
:100b30004f05be004f04be000080fa000000060012
:100b400090b79f000100d00080b79f00e00f5400d5
:100b5000e08f5c00e00f5d00e08f5d0000000600ac
:100b60000800be000a01be008f0007000205be009b
:100b70000004be00000006000802be000a03be001a
:100b80005fb09700efb097007fb197008fb99700e3
:100b900000000600840007000100070000000600b6
:100ba000b0b79f00c1b79f00d2b79f00e3b79f00c7
:100bb000000006000400e1000588e1000690e10065
:100bc0000798e10000000600c0b79f000200d000b7
:100bd000b0b79f00afb097000100e0000000060032
:100be000b0b79f000100d000a0b79f009fb0970052
:100bf0000100e00000000600a0b79f000100d00047
:100c000090b79f008fb097000100e0000000060041
:100c100080b79f000804d0008984d2000a85d200e2
:100c20008b85d2005fb29700efb297007fb3970039
:100c30008fbb970000000600d9ff07000605be0025
:100c40000404be000006eb00e00f5000e08f5800e7
:100c5000e00f5900e08f59000000060081002000dd
:100c6000618055000b003d000b00200061fe2f004d
:100c70000100e1001d003400828171006101640007
:100c80008904d1000884d3000000e800faff3a008c
:100c90007100200061006400030070000200600029
:100ca0000900320061044400e0844c000988a5007a
:100cb000050032008b05e8006808e10002003a00f8
:100cc0008904d1000884d300f20f20000258e1000b
:100cd00005003d00c75ddd00f907b20089807500a1
:100ce00008007800000006000bf827008b00780051
:100cf000000005000004be00160007000003be004f
:100d00000405be000200be0012000700844f7500fb
:100d1000000006000200be006450e100050036003d
:100d20006420e100020036000968a30001003a00d7
:100d30000800be000160a0004f0678004f05be000d
:100d40004f04be0000000600f0ff2f00f1ff270057
:100d5000f9ff3700c70ade00f107b200f50fb20055
:100d600008003200e1cf4200020032000170a00012
:100d700024000500810f7000010032000408050006
:100d800044000500810f700002003a0014000500c5
:100d90008502e9000000400081c04800fcff3b00e4
:100da0000170a0002400050060001000e080180021
:100db00060011900e0811900000006000800fa0037
:100dc000000f78001e0078006101b800220798002b
:100dd0003307980080042000010020002e019000bd
:100de000be019000800f5100818f59004c003e00e1
:100df0002e009000be009000006001004800370007
:100e00004d00370052003700570037005c003700b4
:100e100061003700660037006b0037007000370054
:100e2000750037007a0037007f00370084003700f4
:100e3000890037008e003700930037009800370094
:100e40009d003700a2003700a7003700ac00370034
:100e5000b1003700b6003700bb003700c0003700d4
:100e6000c5003700ca003700cf003700d400370074
:100e7000d9003700de003700e3003700e800370014
:100e8000ed003700f2003700f7003700fc003700b4
:100e900001013700060137000b0137001001370050
:100ea000150137001a0137001f01370024013700f0
:100eb000290137002e013700330137003801370090
:100ec0003d01370042013700470137004c01370030
:100ed00051013700560137005b01370060013700d0
:100ee000650137006a0137006f0137007401370070
:100ef000790137007e013700830137008801370010
:100f00008d01370092013700970137009c013700af
:100f1000a1013700a6013700ab013700b00137004f
:100f200080be25000000d10081be250001004000e8
:100f300010079800af01370080be25000000d100e7
:100f400082be25000200400010079800a90137006a
:100f500060d721000000d10063d7210003004000ca
:100f600010079800a3013700c0c021000000d10085
:100f7000c1c0210001004000100798009d0137000a
:100f8000e04122000000d100e241220002004000c6
:100f90001007980097013700e04122000000d100bf
:100fa000e341220003004000100798009101370040
:100fb000008022000000d1000180220001004000da
:100fc000100798008b013700606022000000d100fc
:100fd000626022000200400010079800850137007f
:100fe000e04122000000d100e34122000300400064
:100ff000100798007f013700e04122000000d10077
:10100000e1412200010040001007980079013700fb
:10101000209f22000000d100229f220002004000f9
:10102000100798007301370060bd22000000d10056
:1010300063bd220003004000100798006d013700d7
:1010400000f421000000d10001f421000100400063
:10105000100798006701370000f421000000d1005c
:1010600002f42100020040001007980061013700df
:10107000c00e22000000d100c30e22000300400079
:10108000100798005b013700c00e22000000d1005d
:10109000c10e2200010040001007980055013700e2
:1010a00060d822000000d10062d822000200400077
:1010b000100798004f013700602822000000d1007f
:1010c0006328220003004000100798004901370000
:1010d00060f122000000d10061f122000100400017
:1010e000100798004301370060f122000000d10092
:1010f00062f1220002004000100798003d01370015
:10110000800223000000d10083022300030040007e
:101110001007980037013700800223000000d1003b
:1011200081022300010040001007980031013700c0
:10113000c01323000000d100c213230002004000ae
:10114000100798002b013700602b23000000d1000e
:10115000632b23000300400010079800250137008f
:10116000604323000000d1006143230001004000e0
:10117000100798001f013700805b23000000d1009a
:10118000825b23000200400010079800190137001d
:10119000e0a123000000d100e3a1230003004000f0
:1011a0001007980013013700c07423000000d1001d
:1011b000c174230001004000100798000d013700a2
:1011c000008923000000d1000289230002004000b2
:1011d0001007980007013700008923000000d100a4
:1011e0000389230003004000100798000101370025
:1011f000a0b923000000d100a1b9230001004000e4
:1012000010079800fb003700a0d223000000d10097
:10121000a2d223000200400010079800f50037001a
:10122000e00a24000000d100e30a2400030040008b
:1012300010079800ef003700e00a24000000d100fa
:10124000e10a24000100400010079800e90037007f
:10125000a02424000000d100a224240002004000a9
:1012600010079800e3003700a02424000000d100fc
:10127000a32424000300400010079800dd0037007d
:10128000a03c24000000d100a13c2400010040004b
:1012900010079800d7003700a03c24000000d100c0
:1012a000a23c24000200400010079800d100370043
:1012b000e0fe24000000d100e3fe24000300400013
:1012c00010079800cb003700e0fe24000000d1009a
:1012d000e1fe24000100400010079800c50037001f
:1012e000401a25000000d100421a250002004000eb
:1012f00010079800bf003700401a25000000d100f9
:10130000431a25000300400010079800b900370079
:10131000407925000000d1004179250001004000fe
:1013200010079800b3003700606825000000d10066
:10133000626825000200400010079800ad003700e9
:10134000808825000000d10083882500030040002c
:1013500010079800a7003700808825000000d10002
:10136000818825000100400010079800a100370087
:10137000401a25000000d100421a2500020040005a
:10138000100798009b003700401a25000000d1008c
:10139000431a25000300400010079800950037000d
:1013a000804e25000000d100814e25000100400044
:1013b000100798008f003700603325000000d1002f
:1013c00062332500020040001007980089003700b2
:1013d00080a125000000d10083a12500030040006a
:1013e000100798008300370080a125000000d1007d
:1013f00081a1250001004000100798007d00370002
:10140000205924000000d10022592400020040008d
:101410001007980077003700a0e923000000d100f2
:10142000a3e9230003004000100798007100370073
:10143000207c24000000d100217c24000100400019
:10144000100798006b003700209e24000000d10098
:10145000229e24000200400010079800650037001b
:1014600060c024000000d10063c0240003004000dd
:10147000100798005f00370040e124000000d10011
:1014800041e1240001004000100798005900370096
:1014900000cf25000000d10002cf2500020040004f
:1014a0001007980053003700e0d025000000d1005d
:1014b000e3d0250003004000100798004d003700de
:1014c000e00826000000d100e108260001004000ed
:1014d000100798004700370020de25000000d100eb
:1014e00022de25000200400010079800410037006e
:1014f00020de25000000d10023de2500030040008f
:10150000100798003b003700a0ee25000000d10036
:10151000a1ee2500010040001007980035003700bb
:10152000a0ee25000000d100a2ee25000200400040
:10153000100798002f00370020de25000000d100a2
:1015400023de250003004000100798002900370023
:1015500020de25000000d10021de25000100400032
:101560001007980023003700001726000000d10064
:101570000217260002004000100798001d003700e7
:10158000001726000000d1000317260003004000ca
:101590001007980017003700803126000000d100a6
:1015a000813126000100400010079800110037002b
:1015b000803126000000d100823126000200400068
:1015c000100798000b003700001726000000d1001c
:1015d000031726000300400010079800050037009d
:1015e000c04b26000000d100c14b26000100400086
:1015f000100798001e0090000080fa00000006000e
:101600000a00fa00881f7800000f78001107980080
:101610001e0090000000e0002c0032001e00780048
:101620009e009000210898009e0078000000eb00ca
:10163000b00098001e007800200798001e0090005f
:10164000cf80de008efb070030079800410798002e
:101650001e0090000000e00007003d000200200096
:10166000037824003e009000ce009000b0fb0700fd
:1016700030079800410798003e019000ce0190008d
:10168000105d22005169240006fc070047fc07009a
:101690004700de00ae009000900098001e04780025
:1016a0001e00900001002000020020000300200026
:1016b0000203be000002be00105d2200510920009e
:1016c0006011b800e9fc0700200498004f0478007e
:1016d0000080fa00000006000400fa00000f780005
:1016e000110798001e0090000000e00003003d007c
:1016f0000000eb0010079800060037009e009000e5
:1017000000042000808f50000200340000042000fc
:10171000100798001e0078009e00900001089800b5
:101720001e0078009008900000082000808f500074
:1017300017003e001e0178001e00780001082000fe
:101740001008900080805000907980000008b80058
:10175000c700de001e0090000008b8004500de0053
:10176000400198001e0178001e007800900890004b
:10177000907980000008b800c700de001e009000cd
:101780000008b8004500de00500198001c0037003a
:101790001e00780090089000400a2000808f5000c2
:1017a00017003a001e0178009179800000042000a3
:1017b0000008b800c700de001e0090000008b80056
:1017c0004500de00400198001e01780091798000fc
:1017d000000420000008b800c700de001e009000d2
:1017e0000008b8004500de00500198009e00780017
:1017f0001e007800500090000000ea00d000980021
:101800000080fa00000006000200fa00000f7800d5
:1018100000dc25001e017800110009000280d800bc
:101820008000fd00500020000008b8000000d1003a
:10183000007a8800007a8000f07988000080fa0041
:10184000000006000200fa00000f78001e00780079
:10185000a079880080042000340fe30002003600e5
:101860000000eb00a0798800a079800053fd0700fc
:10187000805e88000000eb00b0798800c0798000ad
:10188000f72f07000000eb00533007000000eb00cb
:10189000c079880080e22000d079880050798000eb
:1018a000407988000080fa00000006000c00fa0071
:1018b000889fbe000000eb00000f7800b079800028
:1018c0000000e800b079880001bd20001100780018
:1018d000000178000000e80080087800020078002d
:1018e000b62c0700404798004e4090000004e000ee
:1018f00032003d004e4090008080fb00000f200031
:1019000080806000000b2000808f50001b003a0098
:1019100010002000000f7800c0798000d02f070051
:10192000200020002c3007004e4090000080fb007b
:1019300063006000c0798800c1798000e002200067
:101940000008b80082e2200000004100d079880041
:101950004e4090000080fb004200de000080fb0053
:10196000e3006000507980000008b80052798000e0
:101970000000410040798800be013700c079800036
:10198000b72f07002000200013300700c079800027
:101990000000e800c0798800c1798000e0022000e2
:1019a0000008b80083e2200000804100d079880060
:1019b0004e4090000074a100404798004e409000b7
:1019c0000080fb004400de000080fb005007980010
:1019d0005e009000e20f5000790032005e0190003e
:1019e000e20f510004003c00de019000e18f510045
:1019f000080032009f0137005e009000e30f5000a6
:101a0000290032005e019000e40f510035003200e1
:101a1000980137004e4090000080fb006f0060008e
:101a20004804dd0001bd20001100780000017800ad
:101a30000000e80080087800020078005f2c0700b2
:101a4000000074001007980001bd2000110078000c
:101a5000000178000000e8008008780002007800ab
:101a6000562c070080007800d079800033030700ef
:101a70009e009000d0798000e1fe070001bd2000ab
:101a800011007800000178000000e800800878006c
:101a900002007800492c070080007800d07980008f
:101aa0000dff070073013700c07980006c2f07001d
:101ab00020002000c82f07004e4090000080fb004f
:101ac0006f006000c0798800c1798000e0022000ca
:101ad0000008b80083e2200000804100d07988002f
:101ae00064013700d97980004e4090000080fb00ef
:101af0006f0060004804dd0001bd20001100780087
:101b0000000178000000e8008008780002007800fa
:101b10002a2c070000007400b00c980001bd2000c2
:101b200011007800000178000000e80080087800cb
:101b300002007800212c0700504798005e4090007a
:101b40000004e0000b003200d27980005e4090007b
:101b50008080fb0000302000008070006001980051
:101b6000d17980005e4090000080fb00c0089800a2
:101b700008003700d2798000d0798000e000900022
:101b8000f00f200080806000003020000080700096
:101b90006001980001bd200011007800000178006c
:101ba0000000e8008008780002007800032c07009d
:101bb00080007800d0798000e00207002d01370016
:101bc0004e4090000080fb006f00600040079800ce
:101bd0004e009000ec0f50006b0032004e01900060
:101be000ec0f51000e003c00ce019000e98f510037
:101bf000260032004e009000e90f500004003c0027
:101c00004e019000e80f51000f003200f90037003c
:101c1000ce019000eb8f510045003200f5003700f7
:101c20004e009000ee0f5000680032004e01900010
:101c3000ed0f51005f003400ce019000ef8f510096
:101c4000cf003200eb00370001bd2000110078000a
:101c5000000178000000e8008008780002007800a9
:101c6000d62b070050479800d17980005e40900045
:101c70000080fb0090089800d079800080089000d8
:101c8000d079800094fe0700fa003700d0798000f8
:101c900090007800d0798000a8020700d8798000f1
:101ca000d979800001bd2000110078000001780082
:101cb0000000e8008008780002007800bf2b0700d1
:101cc0004800dd006101b90059089000e908900062
:101cd0000000410081804900500c9800610c980080
:101ce000d0798000d179800050099000e0099000ff
:101cf00011109000a1109000800f5100818f5900a9
:101d0000dc003600d1798000d0798000101190007d
:101d1000a0119000d2089800e3089800d1798000c3
:101d2000710090000000a100f0009800d100370081
:101d300001bd200011007800000178000000e800db
:101d400080087800020078009c2b0700504798001c
:101d50005e4090008080fb00000f200080806000cb
:101d6000000120000089b9005e4090000080fb0067
:101d70006f00600002004000b2fe0700100020006b
:101d8000000f7800bb00370001bd20001100780073
:101d9000000178000000e800800878000200780068
:101da000862b070080007800d07980004afe07006b
:101db000b0003700a07980000000e800a1fe070015
:101dc00010002000000f7800aa00370001bd20009d
:101dd00011007800000178000000e8008008780019
:101de00002007800752b0700504798005e40900075
:101df0000080fb004400de000080fb0030079800fc
:101e0000be019000e88f5100230032003e00900098
:101e1000e80f500007003c003e019000e10f510028
:101e20000b003200be019000e28f51001100320021
:101e3000360037003e009000ea0f500021003200cb
:101e40003e019000eb0f5100270032002f003700b9
:101e5000d27980005e4090000080fb00ef006000bf
:101e60002208900081005000d0798000e4fd070036
:101e700080003700d27980005e4090000080fb0037
:101e8000ef0060002208900080804000d079800040
:101e9000dbfd070077003700d17980005e409000bd
:101ea0000080fb006f0060004300dd009008980098
:101eb000d079800080089000d079800006fe07006d
:101ec0006c003700d27980005e4090000080fb00fb
:101ed000ef0060000208900080804000d079800010
:101ee000fdfd070063003700d27980005e4090005e
:101ef0000080fb00ef0060000208900081005000ad
:101f0000d0798000f4fd07005a0037005e40900051
:101f10000004e0000a003200d27980004e409000b8
:101f20000080fb006f006000c800dd005e40900094
:101f30000080fb0000807000600198004d003700b9
:101f4000d37980004e4090000080fb006f0060005d
:101f50004801dd005e4090008080fb00000f200003
:101f60000080600080007100d079800060009000e7
:101f70006f00600000807000e00198003d003700b5
:101f800001bd200011007800000178000000e80089
:101f90008008780002007800082b0700504798005e
:101fa0005e4090000080fb004400de008080fb006b
:101fb000000120000089b9005e4090000080fb0015
:101fc0006f00600000004100100798009e00900024
:101fd00000022000808f5000030036001e00900099
:101fe00009fe0700230037009e0190005379880006
:101ff0002000370001bd20001100780000017800aa
:102000000000e8008008780002007800eb2a070052
:10201000504798005e4090000004e0000a00320043
:10202000d27980004e4090000080fb006f0060007d
:10203000c800dd005e4090000080fb000080700062
:10204000600198000b003700d37980004e4090006b
:102050000080fb006f0060004801dd00d079800047
:10206000e0009000f00f2000008060000000710090
:10207000e00198001e00e00013fe32000000eb00bb
:10208000807988004f04be000080fa00000006003e
:102090000800fa00807980000000e800807988005c
:1020a0000000eb00000f7800300020009e0f1000b1
:1020b000fd003c009e007800e00220000008b8000f
:1020c00082e2200000004100100798001e009000ee
:1020d00070009000610060000000e000f00032003d
:1020e0001e009000600090004800de00300798005d
:1020f0003e009000e30f50003f0032003e01900090
:10210000e30f510007003e003e009000e10f500039
:10211000150032003e019000e10f510028003e0002
:10212000df0037003e009000e60f500099003200bb
:102130003e019000e60f510004003e003e0090007a
:10214000e50f500060003200d50037003e019000de
:10215000ea0f51008f0032003e009000ee0f500059
:10216000a9003200ce0037009e0190001e019000b1
:102170001e009000e0009000f00f200080806000c2
:102180002208900001005000a00998001e00900055
:10219000a008900080032000808f500003003e00c4
:1021a0009e00900080032000a00898001e00900070
:1021b000a00890001e00900011fd0700b800370035
:1021c0009e0190001e0190001e009000e000900013
:1021d000f00f200080806000220890000100400085
:1021e000a00998001e009000a00890001e0090001a
:1021f00003fd0700aa0037001e0090009e0090001b
:102200002009900031089000800f5100a400320096
:102210001e0090009e009000200990003108900060
:10222000800f5100120036009e0190001e009000a9
:102230009e0090002009900041089000000051008d
:10224000a00998001e0090009e00900020099000b8
:1022500031089000800f5100160031009e00900060
:102260001e00900030089000a00898001100370070
:102270009e0190001e0090009e009000200990009a
:102280004108900000004100a00998001e00900045
:102290009e0090002009900031089000800f5100ae
:1022a000040036009e0090001e0090003008900050
:1022b000a00898001e009000a00890001e0090004a
:1022c000cffc0700760037001e0090009e009000b3
:1022d0002009900031089000800f510070003200fa
:1022e0001e0090009e009000200990003108900090
:1022f000800f5100120036009e0190001e009000d9
:102300009e009000200990004108900000005100bc
:10231000a00998001e0090009e00900020099000e7
:1023200031089000800f5100160031009e0090008f
:102330001e00900030089000a0089800110037009f
:102340009e0190001e0090009e00900020099000c9
:102350004108900000004100a00998001e00900074
:102360009e0090002009900031089000800f5100dd
:10237000040036009e0090001e009000300890007f
:10238000a00898001e009000a00890001e00900079
:102390009bfc07001e009000600090006f00600032
:1023a0000000e000080032001e0190001e009000b6
:1023b00060009000ef006000020890008100500073
:1023c0001e009000c4fc07001e009000e00090007a
:1023d000000f2000008060000000e00030003200ac
:1023e0001e0190001e009000600090004400de007e
:1023f000ef00600002089000808040001e00900006
:10240000b5fc0700260037001e0090006000900019
:102410004400de006f006000200798002e0190004d
:10242000e90f5100040032002e009000ec0f500024
:102430000f0032001a0037001e009000600090006c
:102440006f01600080798000110009000280d800cf
:102450008000fd000000e00011003a001e00900026
:10246000900078001e009000b40007000c003700b8
:102470001e009000600090006f006000300fe300cd
:1024800007003a009e009000710090000000a1003b
:10249000f00098009e0090000000eb00800898007b
:1024a0001e0fe80000ff37000080fa000000060061
:1024b0000800fa00c602a900c802a8000a2a0700fc
:1024c0000080eb0040158800612a0700032b0700fd
:1024d000004f78001e04e000fcff3a0042040700b1
:1024e0000000eb0035fa0700805e8800d00720006e
:1024f000c5fc0700710007000000eb00362d070047
:1025000060002000800c880060002000b00c880073
:10251000400028002008880000002a008008880069
:102520008c60a8000000eb0030088800f01f20003d
:10253000600888000000eb0000088800204e2000a2
:10254000100888000000eb0020079800ae00900003
:10255000f03f2000808f500025003e0083030700dd
:10256000100798001e0090000000e00001003200fb
:10257000520007000000eb00200798002e0090009a
:10258000e30f50000f003e00ae009000e00220007c
:102590000008b80062e3200002004000100078004c
:1025a000610060000000e000020032002e00900098
:1025b000ab2c07002e0090000000e80020079800d8
:1025c000eeff37000000eb00032d0700180fe200bc
:1025d00002003a00c802a90001003700c802a800a2
:1025e0002e0090000000e80020079800d7ff370079
:1025f0000000eb00300798003e009000ee0f500006
:10260000d0ff3e000000eb00200798002e00900055
:10261000e10f400025003200540307001007980026
:102620001e0090000000e0000100320023000700bf
:102630000000eb00200798002e009000e30f5000f0
:102640000f003e00ae009000e00220000008b8003d
:1026500062e320000200400010007800610060008a
:102660000000e000020032002e0090007c2c0700e9
:102670002e0090000000e80020079800eeff3700d1
:102680000000eb00d42c0700180fe20002003a0013
:10269000c802a90001003700c802a8002e0090005f
:1026a0000000e80020079800d8ff37003e009000a7
:1026b0000000e80030079800cfff37000400fa0060
:1026c000407980000000e90040798800280fe2008e
:1026d00017003a0050798000407988000000eb0034
:1026e000000f7800320020009e0f11000e003c0009
:1026f0009e007800e00220000008b80082e220007e
:1027000000004100100798001e0190001e0090007c
:10271000e0009000f00f2000008060006001980051
:102720001e0fe800efff370060fc070001003700d4
:1027300057fe07000080fa00000006000800fa00bb
:10274000000f7800110798001e0090006101b8008a
:102750002207980033079800f001200001002000b4
:102760002e019000be019000800f5100818f590012
:1027700023003e002e009000be009000006001008b
:10278000920137002300370038003700530037002c
:10279000690037007f00370095003700ab00370035
:1027a000c600370016003700db003700f1003700a5
:1027b0000701370022013700380137004e0137008a
:1027c000640137000e0037000d0037000c003700a1
:1027d0000b0037000a0037000900370008003700f7
:1027e00007003700060037000500370004003700f7
:1027f00003003700020037000100370000003700f7
:102800009e007800710090000000a100f000980088
:102810006b0137009e007800710090000000a0005e
:10282000f00098009e007800710090000050a00019
:10283000f00098001e0178006000b8005009980070
:10284000610998001e017800001521000100200098
:1028500010119800211198009e00780071009000de
:102860000010a100f0009800550137009e0078008c
:10287000710090000000a000f00098009e00780019
:10288000710090000050a000f00098001e01780038
:1028900000182100010020005009980061099800eb
:1028a0001e01780000f42500010020007009980046
:1028b000011198001e017800c004260001002000cc
:1028c00010119800211198009e007800710090006e
:1028d0000010a000f0009800390137009e00780039
:1028e000710090000000a000f00098009e007800a9
:1028f000710090000050a000f00098001e017800c8
:102900000008260001002000500998006109980085
:102910001e017800201827000100200010119800e7
:10292000211198009e007800710090000010a10015
:10293000f0009800220137009e007800710090009e
:102940000000a000f00098009e0078007100900048
:102950000050a000f00098001e017800001c270025
:102960000100200050099800610998001e017800bc
:1029700040e8270001002000101198002111980064
:102980009e007800710090000010a100f0009800f7
:102990000b0137009e007800710090000000a0003d
:1029a000f00098009e007800710090000050a00098
:1029b000f00098001e01780000ec270001002000c4
:1029c00050099800610998001e01780020932900a1
:1029d0000100200010119800211198009e0078003d
:1029e000710090000010a100f0009800f400370082
:1029f0009e007800710090000000a000f000980098
:102a00009e007800710090000050a000f000980037
:102a10001e01780000942900010020005009980050
:102a2000610998001e01780000062b0001002000bb
:102a300010119800211198009e00780071009000fc
:102a40000010a100f0009800dd0037009e00780023
:102a5000710090000000a000f00098009e00780037
:102a6000710090000050a000f00098001e01780056
:102a700000082b000100200050099800610998000f
:102a80001e01780000282d00010020007009980028
:102a9000011198001e017800c03a2d0001002000ad
:102aa00010119800211198009e007800710090008c
:102ab0000010a000f0009800c10037009e007800d0
:102ac000710090000000a000f00098009e007800c7
:102ad000710090000050a000f00098001e017800e6
:102ae000003c2d0001002000500998006109980069
:102af0001e01780080082e000100200010119800af
:102b0000211198009e007800710090000010a10033
:102b1000f0009800aa0037009e0078007100900035
:102b20000000a000f00098009e0078007100900066
:102b30000050a000f00098001e017800000c2e004c
:102b40000100200050099800610998001e017800da
:102b5000a0fc2f0001002000101198002111980006
:102b60009e007800710090000010a100f000980015
:102b7000930037009e007800710090000000a000d4
:102b8000f00098009e007800710090000050a000b6
:102b9000f00098001e0178000000200011002000c5
:102ba00050099800610998001e017800a09f22003a
:102bb0001100200010119800211198009e0078004b
:102bc000710090000010a100f00098007c00370018
:102bd0009e007800710090000000a000f0009800b6
:102be0009e007800710090000050a000f000980056
:102bf0001e01780000a0220011002000500998005a
:102c0000610998001e0178000010240011002000c6
:102c100070099800011198001e0178000018240026
:102c20001100200010119800211198009e007800da
:102c3000710090000010a000f000980060003700c4
:102c40009e007800710090000000a000f000980045
:102c50009e007800710090000050a000f0009800e5
:102c60001e0178000018240011002000500998006f
:102c7000610998001e017800c05c25001100200049
:102c800010119800211198009e00780071009000aa
:102c90000010a100f0009800490037009e00780065
:102ca000710090000000a000f00098009e007800e5
:102cb000710090000050a000f00098001e01780004
:102cc000006025001100200050099800610998005b
:102cd0001e017800c0ca27001100200010119800c2
:102ce000211198009e007800710090000010a10052
:102cf000f0009800320037009e00780071009000cc
:102d00000000a000f00098009e0078007100900084
:102d10000050a000f00098001e01780000cc2700b1
:102d20001100200050099800610998001e017800e8
:102d3000a0ef2a0011002000101198002111980026
:102d40009e007800710090000010a100f000980033
:102d50001b0037009e007800710090000000a0006a
:102d6000f00098009e007800710090000050a000d4
:102d7000f00098001e01780000f02a0011002000e9
:102d800050099800610998001e01780000fc2a0093
:102d90001100200070099800011198001e017800b0
:102da000e0fd2a0011002000101198002111980068
:102db0009e007800710090000010a000f0009800c4
:102dc0001e0078009e009000010878000080fa0044
:102dd000000006002a00fa00889fbe00000f78005d
:102de0001107980022079800330798002e009000e2
:102df0000000d000018520000080400040179800ae
:102e00001e00780040009000500798001e007800d7
:102e100050009000600798001e0078005009900054
:102e2000e0099000420f9800530f98001e007800b0
:102e300010009000000f98001e00780030009000f5
:102e4000200f98001e00780020009000300f98009e
:102e50001e007800700090000000d100610060004a
:102e6000700798001e007800700990008011900093
:102e7000620f9800730f98001e00780010119000e8
:102e8000a01190000217980013179800de0490001c
:102e90006e0490004e089000de0890000b2a070098
:102ea00000c9b9008381d3000281d3008381d3009c
:102eb0000280d30000c1b9008381d3000281d30016
:102ec0008381d3008280d30020179800010078000e
:102ed000301798000000eb0040079800ce009000eb
:102ee0003e009000808f5000420031004e12900052
:102ef000ae0a90002e139000be1190003e09900083
:102f00008e0890000000eb00141a43008502410077
:102f100001004800149a410044179800250f9800ba
:102f2000100f98001e0890000000e0002d003200f5
:102f30001e0890006101b8004e089000de08900065
:102f40000000410081804900400f9800510f980017
:102f50004e099000de0990000e1090009e10900027
:102f6000800f5100818f59000c0039007e009000c5
:102f70000000e00005003a009e007800710090001b
:102f80000000a100f00098001a0037006e089000c1
:102f9000fe089000400f9800510f9800de0490004a
:102fa0006e0490004e089000de089000c7290700cc
:102fb00000c9b9008381d3000281d3008381d3008b
:102fc0000280d30000c1b9008381d3000281d30005
:102fd0008381d3008280d3002017980001007800fd
:102fe000301798004e0090000000e800400798005d
:102ff000baff37001e0078004e099000de099000ed
:1030000052089800630898001e007800ae099000ee
:10301000330098004f04be000080fa000000060054
:103020002a00fa00889fbe00000f78001107980060
:1030300022079800330798002e0090000000d0006f
:103040000185200000804000401798001e00780095
:1030500040009000500798001e007800500090003b
:10306000600798001e00780050099000e009900069
:10307000420f9800530f98001e0078001000900037
:10308000000f98001e00780030009000200f98007c
:103090001e00780020009000300f98001e0078007d
:1030a000700090000000d10061006000700798007f
:1030b0001e0078007009900080119000620f980047
:1030c000730f98001e00780010119000a01190005e
:1030d0000217980013179800de0490006e04900009
:1030e0004e089000de0890007829070000c9b9005a
:1030f0008381d3000281d3008381d3000280d30077
:1031000000c1b9008381d3000281d3008381d30041
:103110008280d300201798000100780030179800b3
:103120000000eb0040079800ce0090003e009000a9
:10313000808f5000420031004e129000ae0a900085
:103140002e139000be1190003e0990008e08900052
:103150000000eb00141a4300850241000100480002
:10316000149a410044179800250f9800100f9800fa
:103170001e0890000000e0002d0032001e089000a4
:103180006101b8004e089000de0890000000410088
:1031900081804900400f9800510f98004e0990001f
:1031a000de0990000e1090009e109000800f5100dc
:1031b000818f59000c0039007e0090000000e00073
:1031c00005003a009e007800710090000000a10008
:1031d000f00098001a0037006e089000fe0890007a
:1031e000400f9800510f9800de0490006e0490008c
:1031f0004e089000de0890003429070000c9b9008d
:103200008381d3000281d3008381d3000280d30065
:1032100000c1b9008381d3000281d3008381d30030
:103220008280d300201798000100780030179800a2
:103230004e0090000000e80040079800baff3700f9
:103240001e0078004e099000de0990005208980098
:10325000630898001e007800ae09900033009800c3
:103260004f04be000080fa00000006000a00fa00c9
:10327000000f7800110798001e0078000000d000b1
:103280000185200000804000200798000000eb002e
:10329000300798001e0090008000d0003e00900093
:1032a000810f50002f0031002e0090001000780098
:1032b000400798004e0090000000e000110035002b
:1032c0004e00900001002600010060000000e000b8
:1032d00004003200ae009000f01f2000800878004b
:1032e00019003700ae0090004e0090004200dd0053
:1032f00002002800020040004700de00800878003d
:1033000011003700ce009000000026008080600091
:1033100000002600808f500008003a00ae009000a8
:103320004e0090004200dd00020028000200400034
:103330004700de008008780003003700ae009000f0
:103340000000eb00800878002e0090000080e8006c
:10335000200798003e0090000000e8003007980029
:10336000ccff37000080fa00000006000c00fa00d5
:1033700010002000200798000000eb0030079800a4
:1033800030798000000f78001e0078003c0fe300c9
:1033900003003a000001eb00520798008f0037004d
:1033a0001e0078003c0fe30006003600e079800044
:1033b0001e001000001cb0000000d1001007980093
:1033c00004003700e07980001e0010000000d100ea
:1033d000100798001e0090008000d000e079800067
:1033e00080804000001c2000808f500006003600c6
:1033f000011c2000e0798000008050000000d10016
:10340000100798000e0037009e009000f006200084
:10341000808f50000a003e00d2788000e378800060
:103420000080eb008080eb00800f5100818f5900fd
:10343000030032000001eb005207980067003700dc
:103440001e009000f80f500002003600800120009e
:10345000100798001e0090003e0fe30007003e009a
:103460001000200030079800f479800014079800bd
:10347000007a8000f079880004003700f07980003d
:103480009e00900001005000f07988000000eb00e1
:10349000000f7800320020009e0f11001d003e003a
:1034a0009e007800e00220000008b80084e22000be
:1034b00000004200400798004e009000700090000d
:1034c000610060000000e000100032002e0090005b
:1034d0000000e000080032009e019000e2798000c8
:1034e0009e0078004e009000cdfe07000000eb002b
:1034f00020079800050037009e019000e2798000c7
:103500009e0078004e00900032fe07001e0fe8007b
:10351000e0ff37009e009000e079800053ff070035
:103520002e0090000000e000200032000000eb00c0
:10353000000f78001e0090009e0f10002500310043
:10354000c3f3200093007800010078000000d00051
:1035500004852000040140000000eb000009780011
:103560008100e80081097800c3f32000930078000f
:10357000010078000000d000048520000401400014
:103580000000eb00000978008100e8008109780064
:10359000f01b20003c0fe300020036000000eb00af
:1035a000e07988001e0fe800e2ff37001e0090005f
:1035b0008000d000e079800001004000e0798800c0
:1035c000001c20003c0fe30002003a000000eb006a
:1035d000e07988003e009000500798005e0090005f
:1035e0000080fa00000006000200fa000000eb0074
:1035f000000f7800f01b20009e0f100008003e0016
:103600001e0078000000d0000285200082004000eb
:1036100000082000800878001e0fe800f5ff370042
:103620000000eb00000f7800330020009e8f110097
:1036300077003e009e007800e00220000008b800fd
:10364000e2e22000820040000000eb0080087800e9
:103650009e007800e00220000008b800a3e22000ed
:10366000830040000000eb00800878009e00780096
:10367000e00220000008b800c2e220008200400002
:103680000000eb00800878009e007800e002200037
:103690000008b80043e32000830040000000eb0076
:1036a000800878009e007800e00220000008b80042
:1036b00062e3200082004000110078000000a100b9
:1036c000800878009e007800e00220000008b80022
:1036d00063e3200083004000110078000010a10087
:1036e000800878009e007800e00220000008b80002
:1036f00062e3200082004000110078000020a10059
:10370000800878009e007800e00220000008b800e1
:1037100063e3200083004000110078000030a10026
:10372000800878009e007800e00220000008b800c1
:1037300062e3200082004000110078000040a100f8
:10374000800878009e007800e00220000008b800a1
:10375000e3e42000830040000080eb008008780054
:103760009e007800e00220000008b80002e520007a
:10377000820040000080eb00800878009e00780006
:10378000e00220000008b80023e52000030140000b
:103790000080eb008080eb000089be001e00e0008e
:1037a00003003200300020009e0f100008003a0095
:1037b0009e007800e00220000008b800a2e320008c
:1037c00082004000000120008008780007003700d8
:1037d0009e007800e00220000008b800a3e320006b
:1037e0008300400000072000800878009e007800d9
:1037f000e00220000008b80082e220000000410042
:1038000001042000b4f707001e0fe80086ff370010
:103810000080fa000000060010bf07003e91400043
:10382000023821000290000002209000b401400004
:10383000b0c11d0003029100400000002102b00051
:103840002482a30003c11d0003009000b4042500de
:10385000b0240000a482a30003b0240000a4000050
:10386000a4829000b4014000b0240000a400a40091
:1038700000b024000090f0000238a4000090b400d2
:103880000425b0002400a4000090f0000000b00067
:1038900026019100400238002103a4000090b400ea
:1038a0000140b0002601c1001d0a02009140000045
:1038b00000210300b02601009140020038c11d0024
:1038c0000a009000b4042500b0260100a400910075
:1038d00040000000b010d700073e91006802380099
:1038e000a4009000b4014000b0a400009168000062
:1038f00000b04000f0300700923a02003821050085
:10390000a4009000b4053000b0c21a000702920073
:103910003a0000002105b0002400a30007c21a00ed
:1039200007009000b4014000b0240000a400a300f0
:1039300007b0240000a40000a4009000b4042500f7
:10394000b0240000a400a40000b0260001a40000e0
:10395000a4009000b4014000b0260100a400a4001f
:1039600000b0260001a40000a4009000b4042500cb
:10397000b0260100a601a40000b0260001a60100a7
:10398000a6019000b4014000b0260100a601a600e7
:1039900001b01000f1073e0091ac020038a6010012
:1039a00090b4040025b0a4000091ac000220b00047
:1039b00010a107003e9168000238a4000090b400f6
:1039c0000140b000a400910068000000b0408f00ea
:1039d0003007a20007a4000090b4050030b0a20098
:1039e00019a20900b0111e00073e910040023800e4
:1039f00092a10c003190be000b40b4002a0faa0027
:103a00000faa0f00b4111e000720910040022000f1
:103a100092a10c0020b42a000faa0f00aa0fb40034
:103a2000111e07001091400002109200a10c10001e
:103a3000b42a0f00aa0faa000fb411001e07080035
:103a4000914002000892a1000c08b4002a0faa00bd
:103a50000faa0f00b4111e000704910040020400d9
:103a600092a10c0004b42a000faa0f00aa0fb40000
:103a7000111e07000291400002029200a10c0200f8
:103a8000b42a0f00aa0faa000f90ca000a08b000bb
:103a90002a0faa000faa0f0090ca0a0010b0110046
:103aa0001e070100914002000192a1000c0190004c
:103ab000ca0a4000b4111e000708aa000faa0f008e
:103ac00090ca0a0010b31000fe0a4000b0111e0098
:103ad0000710330010fe0a0040b411001e0720003a
:103ae00033112e000a402e00e12d000010bf070008
:103af0003e2e010091400200382102009000020099
:103b00002090b40001402f0006b0c1001d03020048
:103b10009140000000210200b0248200a303c100f4
:103b20001d03000090b4040025b0240000a482000e
:103b3000a303b0002400a40000a4820090b40100fc
:103b400040b0240000a40000a400b00024009000b5
:103b5000f0023800a4009000b4042500b024000056
:103b6000a4009000f0000000b02601009140020087
:103b700038210300a4009000b4014000b0260100e9
:103b8000c11d0a00029140000000210003b0260080
:103b9000019140000238c1001d0a000090b40400e9
:103ba00025b0260001a400009140000000b01000e4
:103bb000d7073e009168020038a4000090b40100cd
:103bc00040b0a400009168000000b00040f0300058
:103bd00007923a000238210005a4000090b40500c5
:103be00030b0c2001a070200923a0000002105001e
:103bf000b0240000a307c2001a07000090b401001f
:103c000040b0240000a40000a307b0002400a400da
:103c100000a4000090b4040025b0240000a400001b
:103c2000a400b0002601a40000a4000090b401008c
:103c300040b0260001a40000a400b0002601a400aa
:103c400000a4000090b4040025b0260001a60100e5
:103c5000a400b0002601a60001a6010090b4010056
:103c600040b0260001a60100a601b00010f1070037
:103c70003e91ac000238a6000190b4000425b000cb
:103c8000a4009100ac022000b010a100073e9100fa
:103c900068023800a4009000b4014000b0a4000005
:103ca0009168000000b040008f300700a207a40018
:103cb0000090b4000530b000a219a20007b01100b6
:103cc0001e073e00911d020038a2190090b40100a9
:103cd00040b0a40000911d000000b0002400c1000d
:103ce00040300200a4009000b4042500b02400007d
:103cf000a400c10040300000b02400009168020020
:103d000038a4000090b4010040b0260001a40000d7
:103d10009168000000b0260001916800023821007f
:103d200003a4000090b4040025b0260001c14000a7
:103d300005029100680000002103b0002601a300e5
:103d400000c1400005009000b4014000b026010011
:103d5000a400a30000b02600019168000238a4006e
:103d60000090b4000425b000260132001168000064
:103d700000b01000d7073e0091680200382104000f
:103d80003310b4000140b000c14009000291680046
:103d90000000210004b04000be300700c1acf000bc
:103da00002c1400009009000b4053000b0a400003a
:103db000c1acf00000b0240000a40000a4009000fa
:103dc000b4014000b0240000a400a40000b024000e
:103dd00000a40000a4009000b4042500b02400005a
:103de000a400a40000b0240000a40000a4009000df
:103df000b4014000b0260100a400a40000b02600d9
:103e000001a40000a4009000b4014000b02601000d
:103e1000a601a40000b0a60001a6010090b4050010
:103e200030b0a60001a60100b010ff00073e24003c
:103e300000a60100a6019000b4014000b0260100d8
:103e4000a601a60001b01000d7073e002601a6007b
:103e500001a6010090b4010040b0260001a60100b7
:103e6000a601b0002601a60001a6010090b404003e
:103e700025b0260001a60100a6012d0000000000cb
:103e800010bf07003e91c5000d3091004002380080
:103e900021029000b40b4000b2411d000302b000ab
:103ea00010ff07003e91c5000d30a30003b22400af
:103eb00082b01000d7073e0091c10c0031a4000071
:103ec00090b4060040b2240000b01000bf073e00ce
:103ed00091c50d003090f00002389000b40340000e
:103ee000b091c5000d30a40000b01000bf073e0027
:103ef00091c10c0031914000023821000390b400c0
:103f00000340b200411d0a0002b01000ff073e004e
:103f100091f80c003191400002389000b404250063
:103f2000b2240000b010d700073e32001168020032
:103f30003890b4000640b2002400b00010f1070031
:103f40003e9236000c3192003a0238002105900072
:103f5000b4034000b2421a000702b20023079000e7
:103f6000b4042500b2240000b010f0000840920014
:103f70003a0d3000a4009000b4034000b2240000c9
:103f8000b010f000084092003a0d3000a4009000fc
:103f9000b4064000b2240000b010f00008409200c7
:103fa0003a0d3000a4009000b4042500b2260100b0
:103fb000b010f000084092003a0d3000a6019000c9
:103fc000b4034000b2260100b010ff00073e92008b
:103fd0003a0d300091ac02003890b4000530b200c8
:103fe0002400b00010f107003e92f4000c31910063
:103ff0006802380090b4060040b2240000b01000ff
:10400000ff073e0092a10c0031a2070090b405000a
:1040100030b2220019b011001e073e0092a60d001a
:1040200030911d0002389000b4034000b22400001b
:10403000b0117f00073e9200a60d3000c140300055
:104040000290b4000425b2002400b0001142070021
:104050003e92a1000c3191006802380090b4060035
:1040600040b2240000b011007f073e0092a60d0070
:1040700030916800023821000390b4000425b0009c
:1040800092a60d0030c140000502b000111e0700cd
:104090003e92a1000c31a3000090b4000340b20096
:1040a0002400b000114207003e92a1000c319100a3
:1040b0006802380090b4040025b411001e073e00c9
:1040c00032116800023821000490b4000640b200aa
:1040d0004140090002b01000ff073e0092570c005b
:1040e00031c11d00f0029000b4034000b224000072
:1040f000b210f000023824000090b4000425b20091
:10410000411df00002b01000fe084000925c0d005e
:1041100030a4000090b4030040b21000f002380058
:104120002400b00010fe080040925c000d30c10079
:104130001df0020090b4060040b2240000b0100050
:10414000fe084000925c0d003090f0000238240020
:104150000090b4000425b200411df00002b0100030
:10416000fe084000925c0d0030a4000090b40300f3
:1041700040b24000f0f10200b010fe000840920092
:10418000570c3100c11df1000290b4000425b200ab
:104190004140f10002b01000d7073e0091f80c003a
:1041a00031c16800f1029000b4064000b241400005
:1041b000f102b00010bf07003e91c1000c31c100f8
:1041c0007df1020090b4060040b24100acf1020063
:1041d00090b40600402d000010f107003e923a0016
:1041e0000d309100ac02380090b40b0040b2410099
:1041f00068f00200b0107800073e92003a0d3000df
:10420000c140f00002b241002ef00200b010f100f7
:10421000073e9200360c3100c11df0000290b40040
:104220000640b20040f0f00002b01000ff073e0070
:10423000923a0d003090d60002389000b404250068
:10424000b0923a000d30a40000b01000f1073e001b
:1042500091f80c003190be00023821000290b400a9
:104260000340b20040b4060002b01000f1073e0067
:1042700091c10c003190d60002389000b4042500a2
:10428000b2240000b010ff00073e320010b402005c
:104290003890b4000640b2002400b000111e0700a0
:1042a0003e9150000c319000b40238002103900080
:1042b000b40b4000b240a0000402b2002300b200e0
:1042c0002400b000111d0800409153000d309000f3
:1042d000b402380021039000b4034000b240a000b3
:1042e0000402b000111d0800409153000d30a300de
:1042f0000090b4000640b20010b402003821030060
:10430000b010ff00073e9100500c3100c0a0040027
:104310000290b4000425b2002300b00010f10700a1
:104320003e9153000d309000a00238002103900010
:10433000b4034000b2408f000402b00010fe080039
:10434000409150000c31a3000090b4000425b2004d
:1043500010a0020038210300b0111d000840910098
:10436000530d3000c08f08000290b4000640b20028
:1043700010a0020038b011004008400091f80c0075
:104380003190b40002389000b4034000b4117d00b5
:1043900008409100c10c310090f00200382101006a
:1043a00090b40b0040b24000d6020200b0117d0074
:1043b00008409100c50d3000a300b2002300b000fa
:1043c000117d08004091c5000d30a4000090b4009c
:1043d0000640b2002400b000117d08004091c500e5
:1043e0000d30a4000090b4000425b00091c50d006c
:1043f00030a40000b0117d0008409100c10c3100d4
:10440000a4009000b4034000b2260100b0117d006a
:104410000840320026019000b4042500b2260100b5
:10442000b011ac0008409100f80c3100a6019000da
:10443000b4064000b2260100b0117f00073e910093
:10444000c10c3100a6019000b4042500b226010081
:10445000b226010090b4030040b2260001b0110062
:104460007d08400091c50d0030a6010090b4040005
:1044700025b2260001b011007d08400091c50d0055
:1044800030a6010090b4060040b2260001b0110031
:104490007d08400091c50d0030331000b40340008a
:1044a000b4117d0008409100fc0d30003310b400c1
:1044b0000425b40010a107003e91fc000d309000cf
:1044c000d60a400090b4040025b21000d60a40007d
:1044d000b010ab00073e9100fc0d30003310b4006b
:1044e0000640b200110d0a0040b01000bf073e00a8
:1044f00091fc0d00309140000a409000b40640004d
:10450000b310b40006402d000000000010bf0700eb
:104510003e91c5000d309000d602380090b40b00db
:1045200040b21000b40238002ed2b00010ff0700d5
:104530003e91c5000d309000a00238002ed4b4008a
:1045400010d707003e91c1000c319000d602380010
:1045500090b4060040b21000b40238002ed2b00071
:1045600010bf07003e91c5000d3090008f0238004b
:104570002ed49000b4034000b091c5000d30b000bf
:1045800010bf07003e91c1000c319000d6023800e8
:1045900090b4030040b21000b40238002ed2b00034
:1045a00010ff07003e91f8000c319000a002380087
:1045b0002ed49000b4042500b410d700073e32007a
:1045c00010d602003890b4000640b20010b40200c9
:1045d000382ed200b010f100073e9200360c3100a8
:1045e000908f0200382ed40090b4030040b6100023
:1045f000a002380021029000b4042500b2408f00d0
:104600000402b00010f0080040923a000d30a30000
:104610000090b4000340b2002400b00010f0080085
:1046200040923a000d30a4000090b4000640b20061
:104630002400b00010f0080040923a000d30a400b1
:104640000090b4000425b2002400b00010f008006f
:1046500040923a000d3090007802380090b4030088
:1046600040b240008ff00200b010ff00073e920001
:104670003a0d3000c0a0f0000290b4000530b20046
:10468000408ff00002b01000f1073e0092f40c00e1
:1046900031c0a000f0029000b4064000b240b40067
:1046a000f002b00010ff07003e92a1000c31c000e4
:1046b000d6f0020090b4050030b2240000b0110022
:1046c0001e073e0092a60d003090b4000238210073
:1046d0000290b4000340b20040a0050002b01100f7
:1046e0007f073e0092a60d0030a3000090b40400a6
:1046f00025b2230000b0110042073e0092a10c0039
:1047000031a4000090b4060040b2240000b01100b3
:104710007f073e0092a60d0030a6010090b4040071
:1047200025b2260001b011001e073e0092a60d0022
:1047300030a6010090b4030040b2260001b0110081
:1047400042073e0092a10c0031a6010090b4040083
:1047500025b2260001b011001e073e003210b40041
:1047600002389000b4064000b2240000b010ff00f0
:10477000073e9200570c310090be02003890b40002
:104780000340b20040b4f00002b24000bef00200ac
:1047900090b4040025b24000b4f00200b010fe0056
:1047a000084092005c0d3000c0bef0000290b400e2
:1047b0000340b20040b4f00002b01000fe08400018
:1047c000925c0d0030c0be00f0029000b4064000c4
:1047d000b240b400f002b00010fe080040925c004d
:1047e0000d30c000bef0020090b4040025b24000bd
:1047f000b4f00200b011ff00073e9200570c3100e8
:10480000c0bef0000290be000b40b2002601b20014
:104810002601b2002601b00011af07003e91f8005a
:104820000c31a6000190aa000b40b2002601b20094
:104830002601b20026012d000000000010be080075
:1048400040a210003310b4000b40b000a210b00022
:1048500010be08004090d6000f409000a002380023
:104860002103b200408f030002b02c0000ac000016
:10487000a4009000b4064000b010be0008409000b4
:10488000d60f4000a4009000b4053000b02c00000a
:10489000ac00a40000b01000fe0840002a0f9100f8
:1048a000ac0f40002a08a4000090b4000320b00020
:1048b00010be08004090d6000f4024008490a00055
:1048c000023821000390b4000340b000a400c000ef
:1048d0008f030200b010ff00073ea4000090a0006c
:1048e00002389000b4042500b0a40000a400b00079
:1048f00010d707003e90f0000e409000d60238001e
:1049000090b4060040b0a40000a4000090b40400dd
:1049100025b01000f1073e00a4009000be02380050
:1049200021029000b4042500b0a40000c0b403002c
:104930000290b4000425b000a210a4000090b400be
:104940000340b000a210a40000b01000f008400026
:10495000910d0e0040a4000090b4040025b2240084
:1049600000b02c0000ac0000a4009000b406400091
:10497000b010f000084091000d0e4000a60190001c
:10498000b4053000b02c0000ac00a60001b011004e
:10499000400840002a0f92001a0e40002a08a60084
:1049a0000190b4000320b00010f0080040910d0009
:1049b0000e40240000a6010090b4030040b0a40003
:1049c0000090d6000238b00010ff07003ea400009f
:1049d000c0b4f0000290b4000425b000a400c000f0
:1049e000a0f00200b010f100073e9100680e4000f8
:1049f000c08ff0000290b4000640b20040a0f0006a
:104a00000290b4000425b00010ff07003ea400008f
:104a1000c0b4f0000290b4000425b000a400c000af
:104a2000d6f0020090b4040025b011001d0840002b
:104a3000a210c000b4f0020090b4030040b0a20085
:104a400010a40000b0111d0008409100400f40006c
:104a500090a002003821030090b4040025b2400069
:104a60008f030200b02c0000ac00a4000090b40042
:104a70000640b000111d0800409140000f40a40006
:104a80000090b4000530b0002c00ac0000a4000081
:104a9000b0117d0008402a000f9280000f402a00cc
:104aa00008a4000090b4030020b011001d084000cd
:104ab00091400f004024000090a002003821030024
:104ac00090b4030040b0a40000c08f000302b00007
:104ad000114207003ea40000a4009000b404250089
:104ae000b0a40000a400b000111e07003e912e00eb
:104af0000f409000d602380090b4060040b0a400e9
:104b000000a4000090b4040025b01000ff073e0090
:104b1000a4009000be02380090b4040025b0a400a8
:104b200000a4000090b4040025b0a20010a400006e
:104b300090b4030040b0a20010a40000b010fe002a
:104b4000084091001d0f4000a4009000b40425000f
:104b5000b2240000b02c0000ac00a4000090b4000f
:104b60000640b00010fe080040911d000f40a40058
:104b70000090b4000530b0002c00ac0000a4000090
:104b8000b011530008402a000f923a000f402a004b
:104b900008a6010090b4030020b01000fe084000f9
:104ba000911d0f0040240000a6019000b4034000b6
:104bb000b0a40000a601b00010ff07003ea4000052
:104bc000a6019000b4042500b0a40000a601b00026
:104bd00010d707003e90f0000e40a6000190b400f0
:104be0000640b000a400a60001b01000bf073e00c0
:104bf000a400a6000190b4000640b000a400a600e6
:104c00000190b40006402d0000000000111d0800b6
:104c100040a208003310b4000b40b000a208b0005e
:104c2000111d0800409140000f409000d60238004e
:104c3000b210f0000238b0002c00ac0000911d0052
:104c400002389000b4064000b0111d0008409100e9
:104c5000400f4000c12e13000290b4000530b00098
:104c60002c00ac00009140000238b000117d08001b
:104c7000402a0f0092800f00402a0800a2109000e6
:104c8000b4032000b0111d0008409100400f400007
:104c9000240091006802380090b4030040b0a400e2
:104ca00000a40000b0111d000840a40000a40000f2
:104cb00090b4040025b0a4000091680002382100df
:104cc00003b011004008400091680e0040c1400050
:104cd00008029000b4064000b0a40000a400b00098
:104ce0001140080040a4000091ac02003890b400cc
:104cf0000425b000a400a4000090b4000425b00076
:104d0000117d080040a21000916802003890b400a4
:104d10000340b000a2109100ac023800b0117d0039
:104d200008409100ac0f4000a4009000b40425009e
:104d3000b211ac000238b0002c00ac0000a400009e
:104d400090b4060040b011007d08400091ac0f0007
:104d500040a4000090b4050030b02c0000ac00006e
:104d600091e0020038b01100fc0840002a0f9300c7
:104d7000580f40002a08c100ac30020090b4030074
:104d800020b011007d08400091ac0f0040240000cd
:104d90003310b4000340b000a400a40000b0110020
:104da0007d084000a400a4000090b4000425b000d9
:104db000a400a40000b011004008400091680e005b
:104dc00040a4000090b4060040b0a40000a601007a
:104dd000b01140000840a40000a6010090b40400f7
:104de00025b0a40000a60100b0111d000840a200db
:104df00010916800023821000390b4000340b00015
:104e0000a210c10040060200b0111d000840910030
:104e1000400f4000a3009000b4042500b2114000f0
:104e20000238b0002c00ac0000c168008002900085
:104e3000b4064000b0111d0008409100400f400032
:104e4000c1ac80000290b4000530b0002c00ac0072
:104e500000c168008002b000117d0800402a0f00e8
:104e600092800f00402a0800c14080000290b400e8
:104e70000320b000111d0800409140000f402400a5
:104e800000c1680080029000b4034000b0a400009c
:104e9000c140800002b0100090073e00a400c10095
:104ea0001d80020090b4040025b0a40000c14000a1
:104eb0008002b000110e07003e912e000f40c1008d
:104ec0001d80020090b4060040b0a40000c0f000b5
:104ed0008002b000108707003ea40000c11d8000c2
:104ee0000290b4000425b000a400c000f0800200cd
:104ef000b010aa000840a20010c0d60080029000a6
:104f0000b4034000b0a21000c0f0800002b0100056
:104f1000aa084000911d0f0040c0d60080029000fa
:104f2000b4042500b240b4008002b0002c00ac00f4
:104f300000c0d60080029000b4064000b010aa0065
:104f4000084091001d0f4000c0b480000290b400e2
:104f50000530b0002c00ac0000c0a0008002b00002
:104f600010d60800402a0f00923a0f00402a08008d
:104f7000c0b480000290b4000320b00010ff07000e
:104f80003e911d000f40240000c0a0008002900050
:104f9000b4034000b0a40000c08f80000290b400b1
:104fa0000640b000a400c000a080020090b404003d
:104fb00025b0a40000c08f008002b000107f070061
:104fc0003e90f0000e409000a002380021029000b8
:104fd000fe0a4000b0220800a400c0008f030200b7
:104fe000b0220800a400a300009140000a40b000d5
:104ff0002208a40000a3000090b40600402d000089
:10500000111d080040a2080090d602003890b4009c
:105010000340b000a208a4000090b4000640b00015
:10502000111d0800409140000f40a4000090b40002
:105030000340b20010be020038210200b02c000074
:10504000ac00c000b403020090b4060040b01100f0
:105050001d08400091400f0040a4000090b40500de
:1050600030b02c0000ac000090d6020038b0110027
:105070007d0840002a0f9200800f40002a0833006c
:1050800010b4030020b011001d08400091400f0033
:105090004024000090be02003821020090b40300ba
:1050a00040b0a40000c0b4000302b000111d08000d
:1050b00040a4000090b402003890b4000425b00071
:1050c000a4009000be023800b011400008409100da
:1050d000680e4000a4009000b4064000b0a4000098
:1050e00090be020038b0110040084000a4009000bb
:1050f000b402380090b4040025b0a40000c0be0083
:1051000008029000b4042500b0117d000840a20000
:105110001090d60002389000b4034000b0a21000f6
:10512000ac00b000117d08004091ac000f40900031
:10513000d602380090f00a0040b21000f0023800a9
:10514000b02c0000ac00ac000090b4000640b000f1
:10515000117d08004091ac000f4091001d02380005
:1051600090b4050030b02c0000ac0000ac00b000e2
:1051700011fc0800402a0f0093580f00402a080035
:10518000914002003821040090b4030020b01100c7
:105190007d08400091ac0f0040240000ac0090005e
:1051a000b4034000b0a40000912e020038b01100fa
:1051b0007d084000a400c10040d0020090b404006b
:1051c00025b0a40000c16800d002b0001140080062
:1051d000409168000e4091001d02380090b4060016
:1051e00040b0a40000c14000d002b000114008004f
:1051f00040a40000c168d0000290b4000425b000b3
:10520000a400c100acd00200b0111d000840a200f3
:105210001091e000023821000390b4000340b00078
:10522000a210c100ac030200b0111d0008409100a3
:10523000400f4000a3009000f00a4000b22300009d
:10524000b02c0000ac00330010b4060040b01100d8
:105250001d08400091400f0040331000b40530009d
:10526000b02c0000ac00b000117d0800402a0f00f7
:1052700092800f00402a08003310b4000320b000d1
:10528000111d0800409140000f4024000033100021
:10529000b4034000b0a40000b0109000073ea4008a
:1052a00000331000b4042500b0a4000091ac02004b
:1052b00038b011000e073e00912e0f0040917d0086
:1052c00002389000b4064000b0a40000ac00b0006a
:1052d000108707003ea40000916802003890b400d7
:1052e0000425b000a400ac0000b01000aa084000e3
:1052f000a21091007d02380090b4030040b0a200db
:1053000010ac0000b010aa00084091001d0f400032
:10531000919402003890f0000a40b200117d020022
:1053200038b02c0000ac0000ac009000b406400087
:10533000b010aa00084091001d0f40009194020097
:105340003890b4000530b0002c00ac0000917d0016
:105350000238b00010d60800402a0f00923a0f0021
:10536000402a080091e002003890b4000320b00009
:1053700010ff07003e911d000f40240000928000a6
:10538000023821000390b4000340b000a400c20022
:105390003a040200b0a40000a3009000b404250069
:1053a000b0a40000a300b000107f07003e90f00002
:1053b0000e40a4000090b4000640b0002208a400f3
:1053c00000a40000b0220800a400a4000090b400d3
:1053d0000640b0002208a40000a4000090b406001b
:1053e000402d000010f0080040a2100091ac020017
:1053f0003890b4000b40b000a210c10068f0020069
:10540000b010f000084091000d0e4000c140f000c7
:1054100002b241002ef00200b02c0000ac00c1002e
:105420001df0020090b4060040b01000f0084000eb
:10543000910d0e0040c0f000f0029000b405300065
:10544000b02c0000ac009000d6023800b011400033
:1054500008402a000f921a000e402a0008a40000fb
:1054600090b4030020b01000f0084000910d0e0031
:105470004024000090be02003821020090b40300d6
:1054800040b0a40000c0b4000602b00010f1070054
:105490003ea4000090d602003890b4000425b0006d
:1054a000a400a40000b01000ff073e00911d0f00f3
:1054b0004090b40002389000b4064000b0a4000050
:1054c000a400b000111e07003ea4000090b402002a
:1054d0003821030090b4040025b0a40000c0a0004f
:1054e00004029000b4042500b0a21000a3009000b4
:1054f000b4034000b0a21000a400b000111d0800c9
:10550000409140000f409000b40238002103900009
:10551000b4042500b240a0000402b0002c00ac008e
:1055200000a3000090b4060040b011001d08400028
:1055300091400f004090b400023821000390b40065
:105540000530b0002c00ac0000c0a0000402b00088
:10555000117d0800402a0f0092800f00402a0800a9
:10556000a3009000b4032000b0111d00084091007a
:10557000400f400024009000a0023800210390005a
:10558000b4034000b0a40000c08f040002b01000bb
:10559000d6084000a400a3000090b4000425b00089
:1055a000a4009000a00238002103b00010bf070043
:1055b0003e9168000e40c0008f08020090b40600c3
:1055c00040b0a4000090a0000238b00010a1070075
:1055d0003ea4000090b402003890b4000425b0004e
:1055e000a400b00010be080040a2100090f002001d
:1055f0003821010090b4030040b0a20010c0d600d2
:105600000202b00010be08004091ac000f40a300a1
:105610000090b4000425b2002300b0002c00ac00c0
:1056200000a4000090b4060040b01000be08400086
:1056300091ac0f0040a4000090b4050030b02c00e5
:1056400000ac0000a400b00010fe0800402a0f00cb
:1056500093580f00402a0800a4009000b4032000d3
:10566000b010be0008409100ac0f40002400a40020
:105670000090b4000340b000a400a60001b01000e8
:10568000bf073e00a400a6000190b4000425b000ae
:10569000a400a60001b01000d7073e0091e00e0064
:1056a00040a6010090b4060040b0a40000a601008e
:1056b000b010bf00073ea40000a6010090b4040093
:1056c00025b0a40000a60100b0a21000a601900021
:1056d000b4034000b0a21000a601b00010be080044
:1056e0004091ac000f40a6000190b4000425b20028
:1056f0002601b0002c00ac0000a6010090b406000a
:1057000040b01000be08400091ac0f0040a6010060
:1057100090b4050030b02c0000ac0000b010fe00ca
:1057200008402a000f9358000f402a000833100049
:10573000b4032000b010be0008409100ac0f400040
:105740002400330010b4030040b0a4000033100064
:10575000b4064000b010a100073ea40000331000c2
:10576000b4042500b0a40000b010ab00073e9100c7
:10577000e00e4000914002003821030090fe0a0034
:1057800040b0a40000c11d000302b00010bf07001c
:105790003ea40000a3009100400a4000b0a4000015
:1057a000a3009000b40640002d00000010f0080097
:1057b00040a2100090f002003821030090b40b00ca
:1057c00040b0a20010c0d6000302b00010f00800e4
:1057d00040910d000e40a30000b2240000b02c0048
:1057e00000ac0000a4009000b4064000b010f0002f
:1057f000084091000d0e4000a4009000b405300058
:10580000b02c0000ac00a40000b011004008400023
:105810002a0f92001a0e40002a08a4000090b4003b
:105820000340b00010f0080040910d000e4024002d
:1058300000a4000090b4030040b0a40000a4000045
:10584000b010f0000840a4000090f0000238900072
:10585000b4042500b0a40000a400b00010ff0700ad
:105860003e911d000f4091001d02380090b40600cb
:1058700040b0a40000a40000b0111e00073ea40028
:1058800000915300023821000390b4000425b000b9
:10589000a400c1004006020090b4040025b0a2009c
:1058a00010a4000090b4030040b0a20010a40000b7
:1058b000b0111d0008409100400f400091400200cf
:1058c0003890b4000425b2002400b0002c00ac00d5
:1058d0000091680002389000b4064000b0111d002d
:1058e00008409100400f4000a4009000b405300033
:1058f000b02c0000ac00a40000b011007d084000f6
:105900002a0f9200800f40002a08a4000090b400e3
:105910000340b000111d0800409140000f402400da
:1059200000914000023821000490b4000340b00010
:10593000a400c1001d090200b010d700073ea4005a
:105940000091400002389000b4042500b0a400008b
:10595000b010bf00073e9100680e40009168020041
:105960003890b4000640b400117f07003e91ac00af
:105970000f409100ac02380090b40b0040b0a4007e
:1059800083a40000b0240000a483a40000b024007d
:1059900000a48400a400b0002400a40084a400009b
:1059a000b0240000a485a40000b0240000a4850059
:1059b000a4009000b4042500b0240000a486a40034
:1059c00000b0240000a48600a4009000b4041000dd
:1059d000b0240000a496a40000b0240000a4960007
:1059e000a4009000b4042500b0240000a497a400f3
:1059f00000b0240000a49700a4009000b40410009c
:105a0000b0240000a498a40000b0260001a49800cf
:105a1000a6019000b4042500b0260100a4a8a600a9
:105a200001b0260001a4a800a6019000b404100053
:105a3000b0260100a4a8a60001b02600013226006d
:105a40000190b4000425b00026019000be0a1000a9
:105a5000a601b00026019000be0a4000a6019000f9
:105a6000b4041000b026010032260100b026010067
:105a70003226010090b4040025b026000190e20017
:105a80000a40a60001b02600013226000190b400b1
:105a90000410b000260132002601b000260190005b
:105aa000e20a400091c10c000990b4000425b00046
:105ab000260191001d0a1800a610b00026019100d1
:105ac0001d0a4000a6109000b4041000b02601008a
:105ad00032261000b0260100917d0a0040a6100079
:105ae00090b4040025b026000132260010b0260034
:105af00001917d000a40a6001090b4000410b0008f
:105b00002601320026102d000000000010bf070003
:105b10003e91c5000d309000f00238002103900046
:105b2000b40b4000b240d6000302b00010ff0700e3
:105b30003e91c5000d30a30000b2230000b010005c
:105b4000d7073e0091c10c0031a4000090b40600bc
:105b500040b2240000b01000bf073e0091c50d0008
:105b600030a4000090b4030040b09100c50d300097
:105b7000a400b00010bf07003e91c1000c31a4008a
:105b80000090b4000340b2002400b00010ff0700f2
:105b90003e91f8000c319000d602380090b4060017
:105ba00040b2240000b02c0010ac1000ac00b400d7
:105bb00010f107003e9236000c319000be02380012
:105bc00021029000b40b4000b240b4000302b200c6
:105bd0002300b2002400b00010f0080040923a0008
:105be0000d309000d602380090b4030040b410008d
:105bf000f0084000923a0d003090f000023890001a
:105c0000b4064000b410f000084092003a0d300095
:105c1000c0d610000290b4000425b2002484b00065
:105c200010f0080040923a000d30a4000090b4003b
:105c30000340b2002483b00010ff07003e923a00f8
:105c40000d30a4000090b4000530b2002482b000f2
:105c500010f107003e92f4000c31a4000090b40053
:105c60000640b2002400b00010ff07003e92a100e1
:105c70000c319000d602380090b4050030b4110009
:105c80001e073e0092a60d003090a00002382100b1
:105c90000390b4000340b200408f080002b011002e
:105ca0007f073e0092a60d003090970002389000ca
:105cb000b4042500b2240000b0114200073e920057
:105cc000a10c310090a002003890b4000640b20050
