:020000040000FA
:060000005BEF5CF0120052
:0600080097EF3FF012002B
:06002A00100005BA000001
:100030000F0300000100000000BA000005030000EB
:1000400005000000FDB900007D0F00000300000066
:10005000F8B900000003000005000000F7B9000037
:100060000E03000001000000F6B900000D030000BF
:1000700001000000F5B900000C03000001000000C1
:10008000818D0000FF0D00000100000016B9000086
:1000900000020000DF00000014B900000A030000A5
:1000A00002000000A5B20000FF02000001000000F5
:1000B0000FB90000780F00000500000008B900002B
:1000C000F8000000070000004DB80000FF0000002D
:1000D0000100000006B90000FE010000020000005F
:0C00E00004B90000FC0100000200000058
:0400EC00D5EC0CF053
:1000F000140EE126180EA0EC0DF0A00E20EC0FF06F
:100100000A0EDB6AFBEC0DF00D0EDB6A0F0E91ECB4
:100110000EF00E0EF3CFDBFFFE0EDB5004E144ECDD
:100120000DF06F0E16D0FE0EDB0404E144EC0DF072
:100130007E0E0FD0FE0EDB50020804E144EC0DF001
:100140008D0E07D0FE0EDB5003080AE144EC0DF0E3
:100150009C0EC3EC0CF00B0EA8EC0CF0040EDB6A4A
:10016000DF6A0A0EDF5C0DE2D950010F7EEC0FF062
:100170000C0F54EC0EF0180EEE26000EED22DF2AC6
:10018000F0D7140EE15C02E2E16AE552E16E08EF9D
:100190000FF0D5EC0CF0E652DF6A040EDF5C05E2EE
:1001A000DFCFE6FF49EC0EF0F8D7C1EC0EF0DF6AC6
:1001B000040EDF5C03E2B2EC0FF0FAD7E55208EF71
:1001C0000FF0D5EC0CF0610E3EEC0FF0580EADECDC
:1001D0000EF00B0E15EC0FF03F0EADEC0CF027EC13
:1001E0000FF01B0EF36EDB6E1C0EDB6A1F0EA7EC0E
:1001F0000DF00E0EAEEC0DF0870E6EEC0DF0230E32
:1002000091EC0EF0220EF3CFDBFF280EDB6AC20E5C
:10021000F36E290EDAEC0CF02A0EF3CFDBFF2B0E77
:10022000DB6A1B0E75EC0DF01F0EB5EC0DF00E0E1B
:10023000BCEC0DF0870EC3EC0DF0360E91EC0EF019
:10024000350EF3CFDBFF400EF36E3B0EF3CFDBFF3B
:100250009A0EF36E3C0EF3CFDBFF020ECAEC0DF0EC
:10026000060ED1EC0DF02D0ED8EC0DF0330EDFECB8
:100270000DF0860EE6EC0DF0490E91EC0EF0480EF6
:10028000F3CFDBFF4E0EDB6A9E0E32EC0CF01A0E43
:1002900052EC0DF04F0EE4EC0CF0490E59EC0DF061
:1002A0004C0E60EC0DF05C0E91EC0EF05B0EF3CF9B
:1002B000DBFF0101940E006FAE0E016F020E026FA4
:1002C000036B0F0E066F076B2F0E046F056B0A0E84
:1002D000096F0A6B510E0B6F0C6B0E6B010E0D6FDD
:1002E000800E67EC0DF02E0E196F1A6B2B0E176F28
:1002F000186B1B0E1C6F1D6B820E1E6F1F6B010E89
:10030000216F206FF6EC0EF001E097D1010EE66E42
:10031000DAEC5AF0E552F40E18EC0CF001E08DD155
:1003200084EC0FF0FA0E18EC0CF001E086D1E00E30
:10033000C3EC0CF05E0EB8EC0FF0FA0E18EC0CF0FB
:1003400001E07BD1C00EC3EC0CF0650EB8EC0FF0F1
:1003500056EC0FF001E071D176EC0CF056EC0FF09A
:1003600001E06BD1DF6A050EDF5C0BE258EC0EF0AA
:100370003BEC0DF0640E18EC0CF001E05ED1DF2ACE
:10038000F2D7DE521E0EDD6EDF6A050EDF5C11E273
:1003900059EC0FF001E051D159EC0FF001E04DD1D3
:1003A00088EC0FF001E049D10F0EB9EC0CF0DF2A18
:1003B000ECD7DE52140EDD6EDF6A050EDF5C1CE248
:1003C000A0EC0FF05C0E69EC0EF017EC0EF0DFEC19
:1003D0000CF001E032D117EC0EF0DFEC0CF001E094
:1003E0002CD117EC0EF050EC0EF001E026D10F0EE0
:1003F000B9EC0CF0DF2AE1D7DE52960EDD6EDF6A33
:10040000030EDF5C18E259EC0FF001E016D159EC55
:100410000FF001E012D188EC0FF001E00ED13C0E9C
:10042000146E010EDBCFE7FF1450E75E010EE7CF3D
:10043000DBFFDF2AE5D75EEC0EF0DE520A0EDD6E42
:10044000DF6A020EDF5C11E259EC0FF001E0F5D03B
:1004500059EC0FF001E0F1D088EC0FF001E0EDD0A5
:10046000280EB9EC0CF0DF2AECD7500EF2EC0CF0B1
:100470009E0E32EC0CF04B0EE4EC0CF0600EF7EC40
:100480000CF0350E046F056B5EEC0EF059EC0FF0BE
:1004900001E0D3D059EC0FF001E0CFD088EC0FF0A1
:1004A00001E0CBD0280EB9EC0CF0400EF2EC0CF0D1
:1004B000AE0E32EC0CF0530EE4EC0CF0600EF7ECE8
:1004C0000CF05EEC0EF059EC0FF001E0B6D059ECF8
:1004D0000FF001E0B2D088EC0FF001E0AED017ECE5
:1004E0000EF0800EF2EC0CF0BE0E32EC0CF0610E51
:1004F000F7EC0CF0360E046F056B5EEC0EF0CCECF6
:100500000FF001E09AD0C6EC0EF0200E52EC0DF088
:10051000540EE4EC0CF0480E59EC0DF04B0E60EC70
:100520000DF0600EF7EC0CF081EC0FF0320E18ECD1
:100530000CF001E082D005EC0DF0150E066F076B94
:100540003E0E046F056B040E096F0A6B500E0B6FA5
:100550000C6B81EC0FF0DF6A0A0EDF5C10E275ECC9
:100560000FF037EC0CF0A4EC0FF067E194EC0FF017
:1005700037EC0CF0A4EC0FF060E1DF2AEDD7A0EC33
:100580000CF0DF6A1E0EDF5C0CE275EC0FF0D8ECAD
:100590000EF053E194EC0FF0D8EC0EF04EE1DF2AB0
:1005A000F1D7200E93EC0DF06D0EC8EC0CF0DF6A65
:1005B000050EDF5C11E258EC0EF0A0EC0CF0D95007
:1005C000150F54EC0EF0200EB7EC0EF0320E18ECB6
:1005D0000CF033E1DF2AECD727EC0FF0DF6A050ED1
:1005E000DF5C0CE258EC0EF0A0EC0CF03BEC0DF0F4
:1005F000320E18EC0CF021E1DF2AF1D7FA0E18ECDC
:100600000CF01BE1D950280F09EC0CF0180E010179
:100610001C6F1D6BAB0E67EC0DF02E0EBCEC0FF0DB
:10062000CCEC0FF00AE10101D90E67EC0DF03C0EA5
:10063000BCEC0FF056EC0FF002E0010E01D0000E02
:10064000146E610EE15C02E2E16AE552A5EF0CF086
:10065000D5EC0CF0610E12EC0DF0800EEAEC0EF011
:10066000AA0EEBEC0CF04D0E0BEC0DF0140EEDECB5
:100670000DF0270EF36E0D0EF3CFDBFF0E0E91EC97
:100680000EF0100EDAEC0CF00F0EF3CFDBFFAD0E18
:1006900093EC0DF0860E0CEC0FF00A0E2CEC0FF024
:1006A000450EF36E1B0EF3CFDBFF1C0EDB6A280E2C
:1006B000A7EC0DF0480EAEEC0DF0470E6EEC0DF011
:1006C000010EF36E230EDAEC0CF0220EF3CFDBFFFB
:1006D0000D0EF36E280EF3CFDBFF4F0EF36E290ED7
:1006E000F3CFDBFF0A0EF36E2A0EF3CFDBFF2B0EE8
:1006F000DB6A590E75EC0DF03B0EB5EC0DF0480EB3
:10070000BCEC0DF03B0EC3EC0DF0010EF36E360E9B
:10071000DAEC0CF0350EF3CFDBFFC00EF36E3B0EC0
:10072000F3CFDBFFE50EF36E3C0EF3CFDBFF090EDC
:10073000CAEC0DF09C0ED1EC0DF0390ED8EC0DF09A
:10074000310EDFEC0DF0190EE6EC0DF0010EF36E3C
:10075000490EDAEC0CF0480EF3CFDBFFF90EF2ECA9
:100760000CF0E50E47EC0FF0090EF36EB1EC0EF055
:100770009C0E52EC0DF0260EE4EC0CF06A0E59ECD7
:100780000DF0190E60EC0DF0010EF36E5C0EDAEC5C
:100790000CF05B0EF3CFDBFF0101600E266FA00EA5
:1007A000276F090E286F296B6F0E2C6F2D6B280E8B
:1007B0002A6F2B6B0D0E2F6F306B030E316F326B68
:1007C000010E346F336F950E396FA00E3A6F090E1C
:1007D0003B6F3C6B6F0E3F6F406B150E3D6F3E6B7A
:1007E000430E426F436B030E446F456B010E476F20
:1007F000466FEB0E4C6F9E0E4D6F090E4E6F4F6B9A
:10080000110E526F536B506F516B780E556F566BC4
:10081000020E576F586B010E5A6F596F750E5F6F4E
:10082000A50E606F0A0E616F626B140E656F666BCA
:10083000100E636F646B8F0E686F696BBC0E6A6F0E
:100840006B6B010E6D6F6C6F8D0E726F470E736F59
:100850000A0E746F756B0C0E786F796B3B0E766FAA
:10086000776B060E7B6F7C6B0F0E7D6F7E6B010EC0
:10087000806F7F6FBF0E856F0E0E866F0A0E876FBB
:10088000886B090E8B6F8C6B410E896F8A6B060E1D
:100890008E6F8F6B1D0E906F916B010E936F926F29
:1008A0005F0E986F140E996F0A0E9A6F9B6B090E6C
:1008B0009E6F9F6B410E9C6F9D6B060EA16FA26B8E
:1008C0002C0EA36FA46B010EA66FA56FAB69190E5A
:1008D000AC6F0A0EAD6FAE6B090EB16FB26B1A0E34
:1008E000AF6FB06B060EB46FB56B3A0EB66FB76BE9
:1008F000010EB96FB86FC00EBE6F9A0EBF6F090EB2
:10090000C06FC16BC46FC56B3C0EC26FC36B060E6C
:10091000C76FC86B490EC96FCA6B010ECC6FCB6F26
:10092000FC0ED16F9A0ED26F090ED36FD46BD76FB6
:10093000D86B3C0ED56FD66B420EDA6FDB6B490E6F
:10094000DC6FDD6B010EDF6FDE6FF6EC0EF001E0A9
:10095000AAD084EC0FF0CCEC0FF001E0A4D0D95079
:10096000150F09EC0CF0DF6A0A0EDF5C0EE26FEC8B
:100970000EF042EC0EF001E096D0D950150F42EC8B
:100980000EF001E090D0DF2AEFD7D950280F09EC04
:100990000CF0DF6A0A0EDF5C11E26FEC0EF07EEC09
:1009A0000FF0150F42EC0EF001E07DD0D950280F6A
:1009B00042EC0EF001E077D0DF2AECD717EC0EF016
:1009C000D8EC0FF0DF6A0A0EDF5C12E2D2EC0FF017
:1009D00042EC0EF068E117EC0EF0A4EC0FF063E1CE
:1009E000030EDF5C03E1CD0EEAEC0EF0DF2AEBD75D
:1009F0009BEC0CF058E184EC0CF0DF6A0A0EDF5C33
:100A00001DE2D2EC0FF009EC0CF017EC0EF0A4ECA8
:100A10000FF049E184EC0CF0190E18EC0CF043E1F6
:100A2000070EDF5C09E1400EC3EC0CF0470EA8ECAA
:100A30000CF00A0E7BEC0CF0DF2AE0D7010E95ECEF
:100A40000CF031E1720EE66E010EC1EC0FF02BE1FD
:100A50009BEC0CF028E1850EE66E010EC1EC0FF068
:100A600022E19BEC0CF01FE19BEC0CF01CE1980EDA
:100A7000E66E010E1BEC0EF056EC0FF014E1AB0E1F
:100A8000E66E010EC1EC0FF00EE1BE0EE66E010E39
:100A90001BEC0EF0D10EE66E010E1BEC0EF0030EF9
:100AA00095EC0CF002E0010E01D0000E146E610E08
:100AB000E15C02E2E16AE552A5EF0CF0D5EC0CF046
:100AC000200E3EEC0FF0030EDB6A130E4CEC0FF021
:100AD000040EF3CFDBFF050E2DEC0CF0060EF3CF6A
:100AE000DBFF070E2DEC0CF0080EF3CFDBFF090E39
:100AF0002DEC0CF00A0EF3CFDBFF0B0E2DEC0CF0FF
:100B00000C0EF3CFDBFF0D0E2DEC0CF00E0EF3CF21
:100B1000DBFF0F0E2DEC0CF0100EF3CFDBFF110EF0
:100B20002DEC0CF0120EF3CFDBFF130EF4CFDBFF36
:100B30004CEC0FF0140EF3CFDBFF150E2DEC0CF088
:100B4000160EF3CFDBFF170E2DEC0CF005EC0EF0BC
:100B50002DEC0CF01A0EF3CFDBFF1B0E2DEC0CF07E
:100B60001C0EF3CFDBFF1D0E2DEC0CF01E0EF3CF91
:100B7000DBFF1F0EF4CFDBFFA8EC0FF0DBCFEAFFAB
:100B80008A0EEE6E300E00EC0EF0A8EC0FF048EC82
:100B90000CF0BA0E61EC0EF04DEC0CF02C0E61EC8A
:100BA0000EF013EC0CF00A0E61EC0EF046EC0EF0B9
:100BB000280E61EC0EF0FFEC0CF0A8EC0FF021EC2D
:100BC0000CF0ADEC0FF0DBCFEAFFCA0EEE6EA40E18
:100BD00000EC0EF0ADEC0FF048EC0CF0BA0E65EC4A
:100BE0000EF04DEC0CF02C0E65EC0EF013EC0CF04E
:100BF0000A0E65EC0EF046EC0EF0280E65EC0EF0D9
:100C0000FFEC0CF0ADEC0FF021EC0CF0A2EC0EF0D0
:100C1000DBCFEAFF800E7CEC0DF0A2EC0EF048EC8E
:100C20000CF0BA0EC4EC0FF04DEC0CF02C0E41ECB5
:100C30000DF00A0E41EC0DF09DEC0CF0280EC4EC0A
:100C40000FF0FFEC0CF0A2EC0EF021EC0CF073ECCA
:100C50000EF0DBCFEAFFC00EEE6E1B0E31EC0DF096
:100C600073EC0EF0A7EC0EF073EC0EF0AAEC0EF0A5
:100C700073EC0EF013EC0CF0410EEE6EED6A73ECBB
:100C80000EF046EC0EF0500EEE6EED6A73EC0EF0C8
:100C90003CEC0CF073EC0EF021EC0CF078EC0EF068
:100CA000DBCFEAFFFC0EEE6E1B0E31EC0DF078ECA4
:100CB0000EF0A7EC0EF078EC0EF0AAEC0EF078EC4B
:100CC0000EF013EC0CF0410EEE6EED6A78EC0EF0C7
:100CD00046EC0EF08C0EEE6EED6A78EC0EF03CEC0D
:100CE0000CF078EC0EF0C8EC0FF0010EEF6E7DEC1E
:100CF0000EF0DBCFEAFFE00EEE6E370E31EC0DF0BA
:100D00007DEC0EF0A7EC0EF07DEC0EF0AAEC0EF0F0
:100D10007DEC0EF013EC0CF00A0EEE6EED6A7DEC3D
:100D20000EF046EC0EF0780EEE6EED6A7DEC0EF0F5
:100D30003CEC0CF07DEC0EF021EC0CF082EC0EF0B3
:100D4000DBCFEAFF1C0EEE6E380E31EC0DF082ECBC
:100D50000EF0A7EC0EF082EC0EF0AAEC0EF082EC96
:100D60000EF013EC0CF00A0EEE6EED6A82EC0EF053
:100D700046EC0EF0B40EEE6EED6A82EC0EF03CEC3A
:100D80000CF082EC0EF021EC0CF087EC0EF0DBCFD7
:100D9000EAFFEE6A540E31EC0DF087EC0EF0A7EC92
:100DA0000EF087EC0EF0AAEC0EF087EC0EF0FAECE9
:100DB0000EF087EC0EF046EC0EF0780EEE6EED6A5B
:100DC00087EC0EF03CEC0CF087EC0EF021EC0CF014
:100DD0008CEC0EF0DBCFEAFF3C0EEE6E540E31ECE5
:100DE0000DF08CEC0EF0A7EC0EF08CEC0EF0AAECF3
:100DF0000EF08CEC0EF0FAEC0EF08CEC0EF046ECF3
:100E00000EF0B40EEE6EED6A8CEC0EF03CEC0CF0D5
:100E10008CEC0EF021EC0CF066EC0FF0DBCFEAFF6F
:100E2000800EEE6E2F0E00EC0EF066EC0FF0D1ECA3
:100E30000EF066EC0FF04DEC0CF0690EEE6EFFEC70
:100E40000EF013EC0CF0280EEE6EFFEC0EF0CFEC73
:100E50000FF0FFEC0EF0FFEC0CF066EC0FF021EC65
:100E60000CF06BEC0FF0DBCFEAFF210E7CEC0DF009
:100E70006BEC0FF0D1EC0EF06BEC0FF04DEC0CF0D6
:100E8000310EEE6E02EC0FF013EC0CF0320EEE6E43
:100E900002EC0FF0CFEC0FF002EC0FF03CEC0CF09A
:100EA0006BEC0FF021EC0CF05CEC0FF0DBCFEAFF09
:100EB000520E7CEC0DF05CEC0FF0D1EC0EF05CEC23
:100EC0000FF04DEC0CF02E0EEE6EED6A5CEC0FF0B8
:100ED000FAEC0EF05CEC0FF0CFEC0FF0ED6A5CEC8E
:100EE0000FF03CEC0CF05CEC0FF021EC0CF061EC42
:100EF0000FF0DBCFEAFFE10EEE6E170EEE6E070E7F
:100F0000EE6EEE6A61EC0FF0D1EC0EF061EC0FF0DA
:100F10004DEC0CF0310EEE6EED6A61EC0FF013EC5F
:100F20000CF098EC0DF061EC0FF0CFEC0FF0ED6AE7
:100F300061EC0FF03CEC0CF061EC0FF021EC0CF0EC
:100F400070EC0FF0DBCFEAFF120EEE6E180EEE6EB5
:100F5000070EEE6EEE6A70EC0FF0D1EC0EF070EC56
:100F60000FF04DEC0CF02E0EEE6E05EC0FF013ECC6
:100F70000CF05E0EEE6E05EC0FF0CFEC0FF005EC12
:100F80000FF03CEC0CF070EC0FF021EC0CF076EC78
:100F90000CF0DCEC0EF001E0B4D00A0EDBCFE6FF83
:100FA0000B0E1AEC0CF00C0EDBCFE6FF0D0E1AEC5C
:100FB0000CF0DF6A190EDF5C0EE2CBEC0EF01AECDF
:100FC0000FF001E09ED033EC0FF01AEC0FF001E0CF
:100FD00098D0DF2AEFD7DF6A190EDF5C14E2CBEC82
:100FE0000EF013EC0EF0190F18EC0CF001E089D0A4
:100FF00033EC0FF013EC0EF0190F18EC0CF001E0CD
:1010000080D0DF2AE9D77D0E18EC0CF001E079D012
:10101000CBEC0EF0CCEC0FF074E1DCEC0EF071E1F7
:1010200076EC0CF09BEC0CF06CE18AEC0DF0460ECB
:10103000DF5C10E232EC0EF00E0EDBCFE6FF0F0E9F
:10104000F9DB100EDBCFE6FF110E21EC0EF059E1BB
:10105000DF2AEDD79BEC0CF054E136EC0DF0F8EC08
:101060002AF066EC0FF0DFDBEECF14F0EFCF15F0D7
:10107000153421E214500008000E15541CE266ECF1
:101080000FF0D4EC0EF061EC0FF0D4EC0EF070EC3D
:101090000FF0D4EC0EF06BEC0FF0D4EC0EF05CEC37
:1010A0000FF0D4EC0EF076EC0CF032EC0EF0140EE7
:1010B000BFDBD7E026D08AEC0DF0460EDF5C1AE2EB
:1010C00032EC0EF01C0EDBCFE6FF1D0EB3DB1E0E66
:1010D000DBCFE6FF1F0EAEDB120EDBCFE6FF130EFB
:1010E000A9DB140EDBCFE6FF150E21EC0EF009E1B3
:1010F000DF2AE3D736EC0DF0F8EC2AF0F6EC0EF030
:1011000003E0010EC3EC0CF0040EDBCFE6FF050E8E
:10111000C9DB060EDBCFE6FF070EC4DB080EDBCF14
:10112000E6FF090EBFDB0A0EDBCFE6FF0B0EBADBD4
:101130000C0EDBCFE6FF0D0EB5DB0E0EDBCFE6FFB0
:101140000F0EB0DB100EDBCFE6FF110EABDB120E85
:10115000DBCFE6FF130EA6DB140EDBCFE6FF150E8A
:10116000A1DB160EDBCFE6FF170E9CDB180EDBCFE4
:10117000E6FF190E97DB1A0EDBCFE6FF1B0E92DBA4
:101180001C0EDBCFE6FF1D0E8DDB1E0EDBCFE6FF58
:101190001F0E88DB020EDB50146E200EE15C02E2B3
:1011A000E16AE552D2D3D5EC0CF0620E3EEC0FF0C2
:1011B000100ECEDB050E51EC0FF0090E1CEC0DF0FD
:1011C000070EDB6A080EDB6A500EF36E0C0EF3CFCF
:1011D000DBFF25EC0DF0140E0CEC0FF0AD0EF36EF2
:1011E000170E17EC0DF005EC0EF0DB6A120EF4ECA6
:1011F0000DF0F36E1A0EF3CFDBFF1B0EDB6A420E0F
:10120000F36E1F0EF3CFDBFF200EDB6A960EF36E3C
:10121000210EF3CFDBFF220E91EC0EF0240ECADB81
:10122000230EF3CFDBFFE00EF36E290EF3CFDBFFCF
:10123000B70EF36E2A0E17EC0DF02B0EF3CFDBFF7B
:101240002C0E11EC0FF02F0EF3CFDBFF300E11EC54
:101250000FF02D0EF3CFDBFF2E0EDB6A320EDB6AB2
:10126000330EDB6AC80EF36E340EF3CFDBFF350EA0
:1012700091EC0EF0370E9EDB360ED9DB3C0EF3CF31
:10128000DBFFB80EF36E3D0ED2DB3E0EF3CFDBFF7D
:101290003F0E11EC0FF0420EF3CFDBFF430E11ECCB
:1012A0000FF0400EF3CFDBFF410E11EC0FF0450EB7
:1012B000F3CFDBFF460EDB6AC80EF36E470EF3CFAB
:1012C000DBFF480E91EC0EF04A0E74DB490EF3CFB3
:1012D000DBFF300E47EC0FF0B80EF36E500EA7DBBD
:1012E000510EF3CFDBFF520E11EC0FF0550EF3CF82
:1012F000DBFF560E11EC0FF0530EF3CFDBFF540E55
:10130000DB6A500EF36E580EF3CFDBFF590EDB6A2B
:10131000C80EF36E5A0EF3CFDBFF5B0E91EC0EF0AE
:101320005D0E48DB5C0EF3CFDBFF0101580EE46F6E
:10133000B80EE56F080EE66FE76B280EEA6FEB6BF1
:10134000E86FE96B780EED6FEE6BC80EEF6FF06B28
:10135000010EF26FF16FCADA010EE66E48EC29F069
:10136000E5526FEC0EF018DBDF6A510EDF5C4BE2EA
:10137000BDDAD950030F7EEC0FF0290F4ADAF0ECFA
:101380000EF0E40EE66E010E1BEC0EF0D950020FCB
:1013900003DBD950070F54EC0EF0020EEE26000EC0
:1013A000ED22D950030F76DBEE5AEE5AEE5A0C0EB0
:1013B000DB060D0E01E2DB06D950340F6BDBED5A74
:1013C000D950470F67DBED5AD9505A0F63DBED5AFE
:1013D0000101EF07F05B2F0EDB2A300E01E3DB2A61
:1013E000420EDB2A430E01E3DB2A550EDB2A560EA2
:1013F00001E3DB2AEA2B000EEB23140EDF2418DABC
:1014000031E1DF2AB2D732DB56EC0FF02BE1470E89
:10141000DB2A480E01E3DB2A5A0EDB2A5B0E01E3CE
:10142000DB2ADF6A050EDF5C1BE2F0EC0EF0D95020
:10143000160FEFD9100EDF02F350146E156AFF0E6F
:10144000D8801456000E15561450F2D90BE1D9501D
:10145000160F54EC0EF01D0EB7EC0EF0DF2AE2D79B
:101460006ADA02E0010E01D0000E146E620EE15C39
:1014700002E2E16AE55269D298DA3D0ED3DA200E33
:1014800082DAE70EADEC0EF0C00EF36E060EF3CF6F
:10149000DBFF320EF36E070EF3CFDBFF030E9BDA9A
:1014A000600EF36E0A0EF3CFDBFF7E0EF36E0B0EB3
:1014B000F3CFDBFF030EF36E0C0EF3CFDBFF0D0E4D
:1014C000DB6A0E0EDB6ACA0EF36E0F0EF3CFDBFF84
:1014D000030EF36E100EF3CFDBFF110EDB6AA00ECE
:1014E000F36E120EF3CFDBFF0B0EF36E130EF3CF82
:1014F000DBFF040EF36E140EF3CFDBFF150EDB6A79
:10150000400E0CEC0FF04D0EF36E170EF3CFDBFF19
:10151000040EF36E7ADBDB6A400EF36E1A0EF3CF25
:10152000DBFF980EF36E1B0EF3CFDBFF040E5CDBCC
:10153000E00EF36E1E0EF3CFDBFFE30EF36E1F0E15
:10154000F3CFDBFF040ECADA790EF36E220E62DBF4
:10155000230E60DB240EF3CFDBFF690EF36E250E46
:10156000F3CFDBFF690EF36E260EF3CFDBFF780EB1
:10157000F36E270EF3CFDBFF780EF36E280E4ADBF7
:10158000290EF3CFDBFF8ADAD0DB220EDB508BECA7
:101590000FF0A00EAADA330EDB6A340EDB6A310ECE
:1015A000F36E350EF3CFDBFF360EDB6A380EB9DB98
:1015B000370EF3CFDBFF9AD9DF6A050EDF5C11E24D
:1015C000010EDB6A080E9FDA0AE239EC0FF03C0EDE
:1015D000146E29DB145C93D9010EDB2AF3D7DF2AC2
:1015E000ECD7DF6A050EDF5C11E2010EDB6A080E44
:1015F0008ADA0AE239EC0FF0280E1AD902E0010E5D
:1016000007D0010EDB2AF3D7DF2AECD76FD9000E03
:10161000146E3D0EE15C02E2E16AE55296D1C5D955
:10162000150E00DAD0DB5A0E15EC0FF0500E95D9DE
:101630005DD9DF6A050EDF5C1AE2010EDB6A0A0E75
:1016400062DA12E284EC0FF029DA400EEE26380E50
:10165000EE22000EEE22EE22500EEAD802E0010E3B
:1016600008D0010EDB2AEBD7AEDBDF2AE3D73ED969
:10167000000E146E150EE15C02E2E16AE55265D1DE
:1016800094D9150ECFD9F2D9C00E7DD9670E60D985
:10169000370E31D9A00E9FD94F0EBDD9280E9DDA35
:1016A000280E5BD923D9C80E2AD9DF6A150EDF5C54
:1016B00022E284EC0FF0DF5001E163DBDF5012081F
:1016C00002E2640E01D03C0E1AD9E8D9500E01DBBB
:1016D00084EC0FF0DF50120802E2640E01D03C0EE1
:1016E0000ED9DCD9B00EEE26630EEE22000EEE22ED
:1016F000EE22DF2ADBD7C9EC00F0150EE15C02E236
:10170000E16AE552E16E84D350D9160EE126AED9D6
:10171000E00E1ED9430EC5DB2C0E8ED9A00E10DABA
:101720000C0EDB6A92D9E66A54EC29F0E552DF6AC6
:10173000040EDF5C04E2DFCFE6FFABDAF9D721DB92
:10174000DF6A040EDF5C03E2B2EC0FF0FAD7DF6A67
:10175000130EDF5C0FE2D950030FD0DB030FA4DAC6
:10176000EE52960EEE26000EEE22EE22640EC7D842
:10177000DF2AEED7DF6ADF50146E156AD890155055
:1017800004E6FF0E145C000E15581EE253EC40F008
:10179000DE52F3CFDEFFF4CFDDFFDD52010EDBCFF3
:1017A000E9FF020EF5DBEF500BE0DFCFE6FFE66A64
:1017B0009FEC5BF0E552E552C80EA1D8000E05D0B3
:1017C000640E9DD8DF2AD7D7010E146E160EE15C89
:1017D00002E2E16AE552B9D049D9020EE66E57EC51
:1017E00052F0E552EDEC5AF0E1EC00F0000910E1A6
:1017F00028EC03F000090CE15EEC05F0000908E1BB
:10180000D2DC000905E138DE000902E108DF000949
:101810001200E66E000EDA201BEF0EF091DB2E0EAA
:1018200058DA50EF0EF0DBCFEAFF090EBDEF0EF0F5
:10183000E66E81D3DBCFE6FF27EC5AF0E552E552A6
:101840001200DBCFEAFF0D0E98DA010EEF6E1200E8
:1018500077DB5C0E8CDA50EF0EF0F4CFDBFF130E6B
:101860004CEF0FF014DB020EF36EB1EF0EF0000E32
:10187000E66E010E1BEF0EF0DBCFEAFF0E0E7DDAF7
:10188000010EEF6E1200DBCFEAFFA00E69EF0EF043
:10189000DBCFEAFF060EBDEF0EF0DBCFEAFF040E52
:1018A000BDEF0EF0DBCFE6FF2AEC5BF0E552E55230
:1018B0001200D950020F146EDACF15F0010EDB5072
:1018C000040D1450F324E96EDA50F420EA6E2DDA98
:1018D000D950220F146E010EDB500F011424E96E53
:1018E000000EDA20EA6EEF508BEF0FF0E66A76EC2E
:1018F00000F0E5521200D5DA050EDB6A1200E66E42
:101900004BEC52F0E5521200260EE66E010E93D912
:10191000390EE66E010E8FD94C0EE66E010E8BD994
:101920005F0EE66E010E1BEF0EF0E66E8DEC52F0D0
:10193000E55200091200E668FED2020EBDEF0EF07D
:10194000130EE66E010E1BEF0EF0E16E145060D226
:10195000F36E030EF3CFDBFF1200F36E0D0EF3CF29
:10196000DBFF0E0EDB6A100EDCD90F0EF3CFDBFFB0
:101970001200146E010EDBCFE7FF1450E726010EB4
:10198000E7CFDBFF1200F36E020EF3CFDBFF120096
:1019900043DA020E2CEF0FF0E66E000EDA20E66E50
:1019A00057EC29F0E552E5521200D9CFE6FFE1CF1E
:1019B000D9FF1200F3CFDBFF010EF36E1200C0DA85
:1019C0002E0ED5D950EF0EF0F36E520EF3CFDBFF93
:1019D000530EDB6A1200F36E080EF3CFDBFF090E25
:1019E000DB6A1200F36E4E0EF3CFDBFF1200010133
:1019F0000027090E0123000E022303231200DBCF70
:101A0000EAFF0E0EBAD9EF6A12000101E00E006F74
:101A1000130E42EF0FF0F36E060EF3CFDBFF070E4F
:101A2000DB6A1200E126DF6A010EDB6A1200F3CFE7
:101A3000DBFF080EF36E120003DAF00EF36E090EF0
:101A4000F3CFDBFF0A0EDB6A12000D0EDB6A0E0E0F
:101A5000DB6A0F0EDB6A110E64D9100EF3CFDBFFC9
:101A60001200EE6E0B0EEE6EEE6A1200E66A48ECA5
:101A700029F0E5521200D950150F16D9200E69EF42
:101A80000EF082DAC8EF0FF0800EF36E010EF3CF86
:101A9000DBFF120009D9EE06000E1200D950020F2A
:101AA00054EF0EF0F36E540EF3CFDBFF550EDB6AEE
:101AB0001200F36E570EF3CFDBFF580EDB6A1200F5
:101AC000F36E590EF3CFDBFF5A0EDB6A1200136F71
:101AD0007D0E146F020E156F166B1200F36E200E42
:101AE000F3CFDBFF210EDB6A1200F36E2E0EF3CF75
:101AF000DBFF2F0EDB6A1200EE6E420EEE6E060E5C
:101B0000EE6EEE6A1200F36E010EDBCFF4FFF350BF
:101B1000F45C1200010EE66E48EC29F0E552F8EC98
:101B20002AF0DF6A1200F36E150EF3CFDBFF12000E
:101B30002D0EEE6EED6A12003C0EEE6EED6A120096
:101B4000F36E070EF3CFDBFF080EDB6A1200F36EB5
:101B5000190EF3CFDBFF1A0EDB6A1200F36E1E0EB6
:101B6000F3CFDBFF1F0EDB6A1200F36E2C0EF3CFF8
:101B7000DBFF2D0EDB6A1200F36E310EF3CFDBFFBD
:101B8000320EDB6A1200F36E330EF3CFDBFF340E3E
:101B9000DB6A1200F36E3D0EF3CFDBFF3E0EDB6A15
:101BA0001200F36E410EF3CFDBFF420EDB6A120030
:101BB000F36E3F0EF3CFDBFF400EDB6A1200F36ED5
:101BC000440EF3CFDBFF450EDB6A1200F36E460EC8
:101BD000F3CFDBFF470EDB6A1200F36E0B0EF3CF81
:101BE000DBFF0C0EDB6A1200F36E1C0EF3CFDBFF83
:101BF0001D0EDB6A12000B0EDB6A0C0EDB6A120094
:101C0000EE6E050EEE6EEE6A1200180EF3CFDBFFDD
:101C1000190E1200F3CFDBFF790EF36E1200960E51
:101C2000EE6EED6A1200040EDF02F3501200D9507E
:101C30003B0F09EF0CF0E66E27EC5AF0E552E55247
:101C40001200F8DD43D91FDE46D91DDE35D91BDE73
:101C500038D919DE45D917DED950030F9DDE820E23
:101C600018EF0CF0160EDBCFE6FF170EE3DD180EB3
:101C7000DBCFE6FF190EDEDD1A0EDBCFE6FF1B0E13
:101C80001AEF0CF0C6DD190E18EF0CF0CCDD9DEF4D
:101C90000CF076EC00F0E552320E31DEDF2A120055
:101CA000010EDBCFE6FF47D1E96EDACFEAFF120083
:101CB000D950280F23D9150F09EF0CF079D937EF38
:101CC0000CF0EE6EED6AA8EF0FF0EE6EED6AADEF80
:101CD0000FF0EE26000EEE22EE22EE22120006DEBD
:101CE000D950020F12000A0EDBCFE9FF0B0E1200D3
:101CF0000C0EDBCFE9FF0D0E12000E0EDBCFE9FF5D
:101D00000F0E1200100EDBCFE9FF110E1200120EA3
:101D1000DBCFE9FF130E1200140EDBCFE9FF150E27
:101D20001200DB6A010EF36E12002A0EEECFDBFF0B
:101D30002B0EEECFDBFF2C0EEECFDBFF2D0EEECF0A
:101D4000DBFF1200080EDBCFE9FF090E1200A0DD59
:101D500098EF0DF0A2DD9CEF0DF0FADD020E7BEFA7
:101D60000CF0500EF3CFDBFF510EDB6A1200EE5E7B
:101D7000000EEE5AEE5AEE5A1200E926000EEA2242
:101D80001200FA0EBCDDFA0E7FEF0CF0C00E2ADE58
:101D9000CE0E32EF0CF0060EDBCFE6FF070E1AEF89
:101DA0000CF076DD0FEF0EF03EDDEE06ED5A120080
:101DB000A8D8050E18EF0CF0040EDBCFE6FF050ED9
:101DC00039DDCCEF0FF0400EDEDD110EC1DD0E0E61
:101DD0007BEF0CF0D8DDB10EBBDD0A0E7BEF0CF013
:101DE000D9503C0F8BD84F0F09EF0CF07FDD010E5F
:101DF00095EF0CF018DD630EEE6EED6A1200ED6AE1
:101E000066EF0FF0ED6A6BEF0FF0ED6A70EF0FF019
:101E1000E552E7CFD9FF1200F36E160EF3CFDBFFCA
:101E20001200DB6A280EF36E1200D5DDA00EF3DD82
:101E3000FBEF0DF07D0E146EF6DE145C18EF0CF067
:101E4000F36E050EF3CFDBFF060EDB6A1200A00E69
:101E50006ADE6C0EC8EF0CF0F36E170EF3CFDBFFEB
:101E6000180EDB6A1200080EDBCFE6FF090E1AEF30
:101E70000CF0D9502A0FCDDC59EF0CF0D3DD020E57
:101E8000DB6A1200016F070E026F036B1200F36E24
:101E90004F0EF3CFDBFF1200E66E1CEC5BF0E55259
:101EA0001200F36E040EF3CFDBFF1200020E95EF6B
:101EB0000CF0BDDE0EEF0CF01A0EDBCFE9FF1B0EAF
:101EC00012001C0EDBCFE9FF1D0E1200160EDBCF39
:101ED000E9FF170E1200180EDBCFE9FF190E1200F2
:101EE0001E0EDBCFE9FF1F0E12008FDDE00E7ADD44
:101EF000210EF36E4F0E9BDDB1EF0EF08ADCD95050
:101F00001200B5DCD8EF0FF0D950020F09EF0CF03A
:101F10008EDE28EF0CF0E66ED950300FC5DEE552AC
:101F2000E750EE6EED6A12000101C00E006F060E62
:101F3000A9DFC6EF0EF06AEC52F0E552000912007C
:101F4000D9503B0F54EF0EF0D9504E0F42EF0EF028
:101F5000040EDBCFE9FF050E1200060EDBCFE9FF12
:101F6000070E1200030ED880DF54E66E49EF0EF024
:101F7000F4DEB5DE09EF0CF0176F186BE1DC17EF3C
:101F80000EF059DE9BEF0CF0EE6EED6AA2EF0EF054
:101F9000DBCFEAFFBDEF0EF0C80E18EF0CF076DED7
:101FA000EE6A12009CDEAADF150FA8DF280F1200D0
:081FB000D9504E0F09EF0CF0AF
:081FB800020100510AE10001E1
:101FC000020E846F920E826F8B0E836F0201010EE0
:101FD000006F800E146E000E35EF17F002010151F4
:101FE0000AE10001030E896FA40E876F8B0E886FC4
:101FF0000201010E016F850E146E000E35EF17F011
:10200000020102510AE10001010E8E6FBF0E8C6FBA
:102010008B0E8D6F0201010E026F8A0E146E000E80
:1020200035EF17F0020103510AE10001030E936F2F
:10203000C80E916F8B0E926F0201010E036F8F0E0F
:10204000146E000E35EF17F0020104510AE1000191
:10205000030E986FE30E966F8B0E976F0201010EC1
:10206000046F940E146E000E35EF17F00201055147
:102070000AE10001020E9D6FFE0E9B6F8B0E9C6F9E
:102080000201010E056F990E146E000E35EF17F068
:10209000020106510AE10001010EA26F100EA06FAD
:1020A0008C0EA16F0201010E066F9E0E146E000EC3
:1020B00035EF17F0020107510AE10001010EA76F89
:1020C000190EA56F8C0EA66F0201010E076FA30EED
:1020D000146E000E35EF17F0020108510AE10001FD
:1020E000020EAC6F220EAA6F8C0EAB6F0201010EB6
:1020F000086FA80E146E000E35EF17F0020109519B
:102100000AE10001100EB16F340EAF6F8C0EB06F8C
:102110000201010E096FAD0E146E000E35EF17F0BF
:1021200002010A510AE10001060EB66FC40EB46F37
:102130008C0EB56F0201010E0A6FB20E146E000E06
:1021400035EF17F002010B510AE10001060EBB6FDB
:10215000FA0EB96F8C0EBA6F0201010E0B6FB70E3B
:10216000146E000E35EF17F002010C510AE1000168
:10217000060EC06F300EBE6F8D0EBF6F0201010ED6
:102180000C6FBC0E146E000E35EF17F002010D51EE
:102190000AE10001030EC56F660EC36F8D0EC46F9A
:1021A0000201010E0D6FC10E146E000E35EF17F017
:1021B0002DEC18F0030EA5EC17F09BEC17F0F70EC2
:1021C000F3CFDBFFF80EF4CFDBFFA8EC17F09BECAE
:1021D00017F0F50EF3CFDBFFF60EF4CFDBFFDF6A6F
:1021E000F40EDB50DF5C37E2040EE66E010E09EC04
:1021F00019F0DE526AEC19F0DD5278EC19F0AFEC10
:1022000017F087EC2DF0146E060EE15E14500AEC08
:1022100017F0F350EE261550ED220AEC17F0020EDF
:1022200051EC19F0F350EE261550ED22E66AA8ECB9
:1022300017F05AEC17F0F350E66EAFEC17F013EC12
:1022400047F035EC18F032EC18F0ACEC16F0EFEC8F
:1022500019F0DF2AC5D7030EE15C02E2E16AE5521C
:10226000D9EF16F057EC17F0D9EC17F0440EE66EE4
:10227000B30EDBEC16F054DFFAEC17F002E2E16A81
:10228000E552D9EF16F055EC19F0620EE66EB30E7A
:10229000DBEC16F057DFFAEC17F002E2E16AE552E8
:1022A000D9EF16F055EC19F0740EE66EB30EDBECB8
:1022B00016F05ADFFAEC17F002E2E16AE552D9EFC4
:1022C00016F02DEC18F0060EE126050EE66E010E56
:1022D00009EC19F0040EF3CFDBFF050EF4CFDBFFA2
:1022E00060EC19F0B6EC17F0C7EC19F05FEC17F0E2
:1022F00065EC19F0E66A1E0E87EC19F0E66EE66AE8
:10230000E66EE66ADDEC19F0020EB7EC16F0AEDE12
:102310006CEC18F0CFEC4FF01C6E090E8AEC18F044
:1023200060EC19F0020E35EC19F0C7EC19F0B6ECC0
:1023300017F0C2EC16F07FEC17F035EC19F0C2EC98
:1023400016F0BDEC17F0060EE15C02E2E16AE55220
:10235000D9EF16F0FEEC18F0030ED3EC17F091EC69
:1023600018F07FEC17F0E15C02E2E16AE552D9EF88
:1023700016F05AEC19F0640EC1EC18F0D890F45035
:1023800004E60A0E145C000E15580FE2010EC1ECB3
:1023900018F0F350F41004E1CBEC19F063DF03D034
:1023A000CBEC19F07FDF39EC17F0020EE15C02E2B2
:1023B000E16AE552D9EF16F05AEC19F0CBEC19F0BE
:1023C00062DF39EC17F0020EE15C02E2E16AE552ED
:1023D000D9EF16F031EC17F0060EE66E020ED3ECD4
:1023E00017F0030EE66ECFEC17F00F0EF2EC17F0BD
:1023F00094EC18F0DDDEA0EC17F091EC18F07FEC17
:1024000017F0E15C02E2E16AE552D9EF16F02DEC3B
:1024100018F046EC17F000EF17F02DEC18F0050E51
:102420009DEC18F000EF17F02DEC18F0080ED4EC2E
:1024300018F006C0DEFF07C0DEFF08C0DEFF09C0DF
:10244000DDFFDD52DD524AEC17F072EC17F0020EA0
:10245000DBCF14F0030EDBCF15F0060EDBCF16F04A
:10246000070EDBCF17F015501718E8AE02D017345F
:1024700004D01650145C175015581FE258EC18F091
:10248000040EE1EC18F0D9CFE9FF25EC17F000ECD1
:1024900032F01C6E090EE15E1C5043EC17F0F8DDC3
:1024A000F3CF1DF0F4CF1EF0E7EC18F01F6E0D0E09
:1024B000E15E1F5086EC18F002D094EC17F0080E85
:1024C000E15C02E2E16AE552D9EF16F02DEC18F07A
:1024D0000A0ED4EC18F0020E06C0DBFF030E07C094
:1024E000DBFF040E08C0DBFF050E09C0DBFF4AEC72
:1024F00017F0060E06C0DBFF070E07C0DBFF080E55
:1025000008C0DBFF090E09C0DBFF5FEC17F0040E0B
:10251000E66ED950060FE96E25EC17F0D950020F80
:10252000E96E25EC17F000EC32F0166E090EE15E54
:10253000165072EC18F047EC19F0E66A040E87ECBE
:1025400019F0040EDBCF18F0050EDBCF19F0080EE2
:10255000DB50185C166E090EDB501958176E16C04A
:10256000E6FFE66E9BEC17F032EC18F0020EDBCFC4
:102570001EF0030EDBCF1FF0060EDB501E5C1C6E40
:10258000070EDB501F581D6E1CC0E6FFE66E9BEC6D
:1025900017F0E552E7CF15F0E552E7CF14F0F3CF8F
:1025A0001AF0F4CF1BF0F4501518E8AE02D0153431
:1025B00004D014501A5C15501B580BE258EC18F05C
:1025C000020E78EC18F043EC17F086DDEFEC16F015
:1025D00002D094EC17F00A0EE15C02E2E16AE552E7
:1025E000D9EF16F02DEC18F058EC18F0E66E050E49
:1025F000E66EF1EC51F0E552E55243EC17F07EDD6A
:10260000EFEC16F099EF18F031EC17F05FEC17F0E3
:10261000010EE66E040EE66EB5EC3DF026EC18F009
:1026200074EC19F0A1EC54F029EC18F0E66A1A0EDB
:10263000E66E240E9FEC19F0030EE66E020E78ECA7
:1026400018F043EC17F0A2DDCADB020EE15C02E2F7
:10265000E16AE552AED3A9DBFA0EE66EE66AA1ECBA
:1026600018F079EC50F0E552E55226EC18F0E66AE5
:10267000010E87EC19F02C0EA4EC19F0CC0EE66ECE
:10268000240EEEEC17F0040E90EC19F0CBDC0AEC03
:102690001AF002E2E16AE5528CD387DB65EC19F0AF
:1026A00082EC17F056EC53F029EC18F0900EF3EC96
:1026B00019F08CEC19F0540EE66E230EA7EC19F00D
:1026C000C6EC18F0F7DCD4EC19F002E2E16AE5524E
:1026D00070D3E8EC19F060EC18F03EEC19F002E26F
:1026E000E16AE55266D3E8EC19F08CEC19F0B80E0B
:1026F000E66E230EE66E3EEC19F002E2E16AE55268
:1027000058D3CEEC18F0B5EC3DF011EC19F002E224
:10271000E16AE5524ED3CEEC18F0F1EC51F011EC39
:1027200019F002E2E16AE55244D3EAEC18F0010E36
:10273000E66E030EE66E1DEC19F0D40EE66E230E67
:10274000E66E080EE66E260EEEEC17F0050EE66E4F
:10275000020E0DDB55DC0AEC1AF002E2E16AE552EA
:1027600028D323DB65EC19F0900EF3EC19F029EC7B
:1027700018F02AEC49F072EC18F0040E00DBC20EDF
:10278000E66E220EA7EC19F0040E90EC19F05CDC5A
:10279000D4EC19F002E2E16AE5520BD32DEC18F00B
:1027A000080ED3DBF60EDB5003E0A00E146E01D052
:1027B000146A156A14C0E6FF15C0E6FFF1EC5AF082
:1027C00035EC18F08FDB060E8EEC18F0E3EC19F008
:1027D000F40EA4EC19F0F9EC19F0E1EC18F0FFECB0
:1027E00019F0A6DBCFDAD5DA00EC32F01A6E090E5A
:1027F000E15E1A5072EC18F047EC19F0020E35EC5D
:1028000019F0AADACAEC25F035EC18F0080EE15CF4
:1028100002E2E16AE552CDD2EAEC18F05DDBB5ECFC
:102820003DF026EC18F0E3EC19F06FDBEA0EE66EF3
:10283000AA0ED4DB010EE66E020E99DAEEEC0FF072
:1028400080EC19F0020E24EC19F00E0E51EC19F088
:10285000E40EEE6EAA0EED6EDADBC8DB02E2E16A90
:10286000E552A7D2FEDAF80EDB5003E0DE68DD6841
:1028700003D0010EDE6EDD6AEFDA08DB83DA6CDA94
:102880008DDF146E090EE15E1450E6DA43DBDECF15
:1028900016F0DDCF17F0190E42EC18F0DDDA12DB7E
:1028A000DECF16F0DDCF17F0320E42EC18F0020E3C
:1028B000E15C02E2E16AE5527CD2D3DAFA0EDB5047
:1028C00004E0010EDE6EDD6A02D0DE68DD68020E15
:1028D000E15C02E2E16AE5526CD2C3DAFA0EDB5047
:1028E00004E0010EDE6EDD6A02D0DE68DD68020EF5
:1028F000E15C02E2E16AE5525CD22AEC19F03DDBD0
:1029000099EF18F02AEC19F0D3EC25F0AEDB99EF33
:1029100018F0A3DBFB0EDBCF08F0FC0EDBCF09F0D9
:10292000E10E081802E1080E091801E1D7D1D00E16
:10293000081802E1070E091801E1C1D19E0E08181E
:1029400002E1070E091801E1ABD1850E081802E17A
:10295000070E091801E19DD16C0E081802E1070E5F
:10296000091801E193D1530E081802E1070E091866
:1029700001E184D13A0E081802E1070E091801E1BD
:1029800074D1080E081802E1070E091801E169D197
:10299000D60E081802E1060E091801E155D1A40E61
:1029A000081802E1060E091801E138D16B0E08186B
:1029B00002E1060E091801E126D1400E081802E1D5
:1029C000060E091801E115D1CB0E081802E1050E1B
:1029D000091801E107D1960E081802E1050E091841
:1029E00001E1F1D0140E081802E1050E091801E109
:1029F000D5D0B00E081802E1040E091801E1BFD0CD
:102A00007E0E081802E1040E091801E1B4D0FC0E94
:102A1000081802E1030E091801E19DD0F90E08180B
:102A200002E1030E091801E193D0B60E081802E185
:102A3000030E091801E189D0840E081802E1030E83
:102A400009186BE0200E081802E1030E091861E076
:102A5000BC0E081802E1020E091855E08A0E08188B
:102A600002E1020E09184BE0580E081802E1020EAE
:102A7000091839E0260E081802E1020E091830E0A4
:102A8000F40E081802E1010E091823E0900E081850
:102A900002E1010E09181AE02C0E081802E1010EDD
:102AA00009180CE0FA0E081801E023D1095001E0E2
:102AB00020D1030E42DBEAD9640E5AD074EC19F02F
:102AC000F60EE66EE66848D9E8DD90D0D3DA2D0E32
:102AD000E5D0020E9CEC19F06E0ECDDB870EDED039
:102AE00011DA0A0EFED0030EE66EECD93C0E7ADA4D
:102AF00050DBCCD94B0EADEC19F05A0ECFD0020EF4
:102B000067D9500EE6D0E66A780EE66EE66A8C0E5D
:102B1000BBD0010EE66EB40EB4D0010EE66EF00E20
:102B2000E66EE66AF7D918D99DDE19DB010EE66E6E
:102B30009CEC19F0FB0EE66EE6680ED9EFD9E2D9EF
:102B4000280EE66EE66A6E0E13D094DA230EA6D037
:102B5000CBDB160E49D0E66A780EE66EE66A8C0E7E
:102B6000CEEC19F0FCDAE66A010EE66E18DA820E97
:102B700039DAC8DEBAD0020EDFDBD6DB0BD0020EAC
:102B8000E66EC8D93FDBBDDD0CDB500ED1EC19F091
:102B9000E6DA020EE66EBED9820E8FD0030ECDDAD3
:102BA00075D9780E1FDABAD9010EE66EF00EE66E10
:102BB000E66A000EF3DB0DEC1AF0A00EB5DBE66E54
:102BC000EED98C0E7AD090DB280E0CDACADD146EAA
:102BD000060EE15E145019DB500EC3DB690E4BDBB1
:102BE000820E5CD081DB760EFDD9BBDD146E060E45
:102BF0007ED0030EEDD806DBB7DAEAD8190E94DBE7
:102C0000E7D8280E5AD001DBCAD9A6D862DDC9DAC6
:102C1000460EE8D95EDDDFD81E0E12D04B0EE66EF2
:102C2000E66A50D9EFDAB4D94B0EE66EE66A2ED9D1
:102C3000820ED8D9ADD998DB4CDD0BD9E66E280EC3
:102C4000E66EE66A5A0E17D0040EE66E010EC0D884
:102C5000C9D964D9020EBCD8500EC4D9BEDA640EEC
:102C60000AD082DBBFDA780E06D0020EB1D85A0E37
:102C7000B9D9B8DA410EB6D92CDD2DD0010EE66EE9
:102C80004B0EE66EE66A140E89DB25D0F3D9280ECA
:102C900005D0030E51DB500E60DB640EA7DB1BD0AA
:102CA000030E96D83C0E9ED998DA8C0E3DDB44DBA1
:102CB000780E77DB90D82ED9640E73DB0CD0A5DAB2
:102CC0003C0E4FDB4B0ED7DA5A0E90DB84D867D917
:102CD000490E88D908DD146E070E09D0040E2DDACE
:102CE000000EE66EE66A7ED908DE146E080EE15E1E
:102CF00014501FD2B2D92CDA1BD9AAEC58F0E552E5
:102D0000E55226DA060EEB6A070EEB6A12D20201D2
:102D1000DE5106E1F40E0E6F2C0E0F6F010EDE6F0A
:102D2000E3DA81EC3EF0E552E552F3CF10F2F4CF56
:102D300011F20E0E146E020E156E97D0E1DA07EF47
:102D400018F0E552E55206C014F007C015F008C0AF
:102D500016F009C017F00CD2FD0EDBCFE6FFFE0E19
:102D6000DBCFE6FF1200E552E55272EF18F0C0D952
:102D7000F3CF18F0F4CF19F0B2DAE66A120091DA64
:102D800047EF19F0FB0EDBCFE6FFFC0EDBCFE6FFD3
:102D90001200F1EC5AF069D906C016F007C017F01E
:102DA00008C018F009C019F0E3D13ADB060E8EEF27
:102DB00018F0E16EBED1E66E9BDA020EE66E55DAD1
:102DC00051EC41F0E552E552E5524CD9E66A120069
:102DD000E66E74EF19F0C3D9020EE66E1200F3CF5F
:102DE0001CF0F4CF1DF0F3D91E6E0D0EE15E1E50E7
:102DF00086EF18F0CAEC25F038D9040EE15C120019
:102E0000A7D9020E4EDA5FD901EC4AF0FDDAEFD90C
:102E1000E6DA8FD196D9F70EDBCF16F0F80EDBCFBE
:102E200017F0166C171E000E172216C0E6FF17C00B
:102E3000E6FFC3EC57F019D92FDA010EDBCFE9FF1B
:102E4000020EDBCFEAFF51EF19F0DACFEAFF63EFB2
:102E500018F085D9030E1200F80EDBCFE6FFF7EF6E
:102E600018F0FBD8020EE126120014C0F3FFF46E36
:102E70001200186E060EE15E18501200E552E5527F
:102E80000BDA020E120028D9E66A12000A0EE66E6C
:102E9000E66A1200FB0EDBCFE9FFFC0EDBCFEAFF98
:102EA000110E89D908EC2DF0E552E5521200B8DA7E
:102EB00014EF1AF019DAC3EC57F035EF18F0040EDE
:102EC0008EEF18F01E0EE66EE66A1200D9EC25F0C1
:102ED000CCD8040EE15C1200010EE66EF80EDBCFDA
:102EE000E6FF1200040E06C0DBFF050E07C0DBFF85
:102EF000060E08C0DBFF070E09C0DBFF12006FDA09
:102F0000020E1200020E9DEF18F0720EE66E230EF6
:102F1000E66E1200140EE66EE66A1200EEDC146E27
:102F2000080EE15E1450120024DAEE6AED6A120017
:102F3000020EDBEF18F016EC58F0E552E5521200E5
:102F4000186E0B0EE15E18501200E126A1EF18F08A
:102F5000F50EDBCFE6FFF60EDBCFE6FF1200010E2B
:102F6000DBCFE6FF020EDBCFE6FF1200040EDBCF65
:102F7000E6FF050EDBCFE6FF1200D6EC25F035EFBD
:102F800018F0CEEC13F0186E090EE15E1850120026
:102F90002BEC13F0146E080EE15E14501200320E8A
:102FA000E66EE66A120035D995D98AD9C0D9C7EF3D
:102FB00019F0E6D9010EE66E020EE66EF1EC51F064
:102FC0005DDF42D964D9E66A070EE66EF3EC56F08F
:102FD00055DFE76E39D9E750BFEF16F0F9DED2DEE4
:102FE000DDEF19F0E66EE66AACEF16F03ED9B4DE1E
:102FF000FAEF16F0F3CF16F0F4CF17F070D9C8EC53
:1030000053F09EDF67D993D9A7DE66EF17F0020E63
:103010002CD9F0EC2CF0E552E552F3CF16F0F4CFBA
:1030200017F0166C171E000E1722F90EDB50165CF7
:10303000146EFA0EDB501758156EE1D9020E31D915
:1030400014C0EEFF15C0EDFF020E12008CDE47EF3C
:1030500019F089DE020EBFEF16F0D9CFE6FFE1CFFF
:10306000D9FF120019D96FEF19F0E552E552E55278
:10307000E5521200020E60D94DDF6EDE8BEC13F0CC
:103080000DEF1AF01702F3CF17F01602F3CF16F078
:10309000F4501726FB0EDB50F324146EFC0EDB50AD
:1030A0001720156E14C0E6FFE66E56DEC1EF17F06E
:1030B000E66A0E0EE66E240E42D9010EE66E12008E
:1030C0002BD985EF17F0EECFE6FFEECFE6FFEECF80
:1030D000E6FFEFCFE6FF1200F3CF1AF0F4CF1BF0BC
:1030E0006FEF19F0D9D8DECFE9FFDDCFEAFF12008C
:1030F000E66E1DD951EC41F0E552E552E552120061
:10310000010E0ED9EEEC0FF09EEF16F0C5D831D9B6
:1031100047EF19F0E15E1C50C0EF19F085D96AEF56
:1031200019F005D9C2EF16F008EC2DF00ADEC2EF57
:1031300016F0E552E7CFD9FF1200E66E010EE66EFB
:103140001200F70EDBCFE6FFF80EDBCFE6FF120032
:10315000FD0EDBCFE9FFFE0EDBCFEAFF1200146E9F
:10316000070EE15E1450120081EC13F029EF17F006
:1031700006C0E6FF07C0E6FF08C0E6FF09C0E6FF9D
:103180001200E66EE66A96DE4CEF19F0020E90EF42
:1031900019F08BEC13F05DDEE66E120006DE6CEFCC
:1031A00017F019DE46EF17F0E126D6DD22EC2DF000
:1031B000E552E552120075D8EECFE6FFEFCFE6FFFD
:1031C0001200E66ED950040FE96E25EF17F087D88C
:1031D000F8EF50F06CDE6AEF19F069EC13F0FBDDEC
:1031E0008AEF17F069EC13F034DEE8EF16F0F90E11
:1031F000DBCFE6FFFA0EDBCFE6FF120032DE040E75
:10320000E66E120043DEACEF16F0020EE66E62EFE1
:1032100017F0DEDDE66EE66AD0D801EC4AF039EF51
:1032200017F014DFD0D8200EE66E030EE66E62ECC7
:1032300048F046DFDED8F6EF17F0F1EC51F006DF8C
:103240002C0ED1D829EF18F0DBCFE9FF030EDBCF2E
:10325000EAFF120002DFF70EDBCFE6FFFDDD92DDB5
:103260002FEC43F0D1D8ACEF16F0DBCFE6FF030E26
:10327000DBCFE6FF1200BAD80DEF1AF0CC0EE66EE7
:10328000240EACDE83DFDCEC0FF00AEF1AF0F3CF94
:10329000EEFF15C0EDFF1200F3CF14F0F4CF15F0E0
:1032A0001200E926000EEA221200BAD8060EBCD897
:1032B000D9EF17F0A3DF010E76DE33DFEFEF19F061
:1032C0004BDD08EC2DF0A1EF16F01CDEF1EC51F017
:1032D00026EF18F0F3CFDEFFF4CFDDFF1200F3CFBF
:1032E000E6FFF4CFE6FF1200000EE66EE66A12007B
:1032F000D950F90FE96EFF0EDA20EA6E63EF18F08D
:10330000EBDE54EC44F01C6E0E0E8AEF18F0E66E05
:10331000F3EC56F029EF18F026DD040EBFEF16F09F
:10332000E66E030EB7EF16F05DDEB4EF18F0DECFF9
:10333000E6FFDDCFE6FF1200E66E46EF17F048DD50
:10334000E66EE66AC9EF16F04ED860EF18F0E66E4A
:10335000280EE66E240EEEEF17F044DE1ADF62EF61
:1033600017F044D8D1EF18F0020E32DD280EF2EF3C
:1033700017F0F90EDBCFE9FFFA0EDBCFEAFF120000
:10338000020EF3CFDBFF030EF4CFDBFF120087EC5E
:103390002DF039EF17F0E0DC94EF18F023DE32EF78
:1033A00014F020DE81EF13F0C9DC4EDF130E79DF5D
:1033B000010EEF6E020EF6EF17F0F1EC5AF0E55247
:1033C000E552A1EF16F0DEDCA1EC54F029EF18F085
:1033D000E5DE33DFE66A030EE66EF3EF56F0C7EC88
:1033E00025F035EF18F0A9DEDCEF55F0FBDD8BEFB3
:1033F00013F0E40EE66E250EF1DD80EF18F0020EFC
:1034000023DF020E51EF19F0166E060EE15E165024
:1034100032EF18F093DCF6EF17F0DDDC62EF17F017
:103420001CDE040EE1261200E66E1CEC5BF0E55299
:02343000120088
:0E3432000001F8510AE10001030ECA6FFA0E04
:10344000C86FB10EC96F0001010EF86FC60E146E81
:10345000000EB6EF1EF00001F9510AE10001010E65
:10346000CF6F150ECD6FB20ECE6F0001010EF96F4A
:10347000CB0E146E000EB6EF1EF00001FA510AE1F9
:103480000001010ED46F1E0ED26FB20ED36F000179
:10349000010EFA6FD00E146E000EB6EF1EF0000192
:1034A000FB510AE10001010ED96F270ED76FB20E52
:1034B000D86F0001010EFB6FD50E146E000EB6EF33
:1034C0001EF00001FC510AE10001010EDE6F300E1A
:1034D000DC6FB20EDD6F0001010EFC6FDA0E146EB0
:1034E000000EB6EF1EF00001FD510AE100010B0EC7
:1034F000E36F390EE16FB20EE26F0001010EFD6F56
:10350000DF0E146E000EB6EF1EF00001FE510AE150
:103510000001010EE86F9C0EE66FB20EE76F00012E
:10352000010EFE6FE40E146E000EB6EF1EF0D1EC2D
:103530001FF0090ED6DBCEEC1EF0AAEC58F0E552D7
:10354000E55247EC1FF0AAEC58F0E552E552E4D3FF
:103550008DEC1FF0070EE66E040EE66E39EC1FF0E0
:10356000E4DB01EC4AF008EC1FF0F3CFDEFFF4CF10
:10357000DDFFCBDB08EC2DF0D8DBBAEC1EF087ECDE
:103580002DF089EC1FF0ECEC1EF0020EE15C02E283
:10359000E16AE552E16EC0D3D9CFE6FFE1CFD9FFB2
:1035A000020EE126FD0EDBCFE9FFFE0EDBCFEAFFC8
:1035B000100EE926000EEA22EECF14F0EFCF15F040
:1035C000D9CFE6FFDACFE6FFFB0EDBCFE6FFFC0E3E
:1035D000DBCFE6FFFD0EDBCFE6FFFE0EDBCFE6FF27
:1035E00004D015C0FAFF1450F96EFBDF166E060EFC
:1035F000E15E1650D9CFE9FFDACFEAFFEE50ED10C9
:103600000DE083DB17EC2DF090DBB4DB91EC2DF0BB
:1036100089EC1FF0CDEC25F0AFEC1FF0020EE15C61
:1036200002E2E16AE552E16E77D37ADB0A0EE66EDA
:10363000E66A16EC1FF0EECFE6FFEECFE6FFAEDB5C
:1036400001EC4AF0166E060EE15E165050EC1FF0CB
:1036500091EC1FF0F90EDBCFE6FFFA0EDBCFE6FFB1
:10366000BBDB5AD3E6DB010EE66EEEDBF4DE25DBD8
:1036700053D3DFDB020ED4EC1FF0FFDE1EDB4CD396
:10368000D8DB030ED4EC1FF00ADF17DB45D3D1DB08
:10369000040ED4EC1FF015DF10DB3ED341DB040E2B
:1036A000E126FD0EDBCF08F0FE0EDBCF09F0020EA7
:1036B00008C0DBFF030E09C0DBFF61DB060EE66E10
:1036C000F3EC56F039DB67DB80EC57F0C8DB010E1A
:1036D000E66E74EC1FF007DFF0DA040EE15C02E244
:1036E000E16AE552E16E18D38DEC1FF048DBFA0E6B
:1036F000E66EF1EC51F020DBB4EC1FF097DBD8EC78
:103700001FF096EC1FF0030E0D6E0E6A16C008F047
:1037100017C009F036EC58F008C016F009C017F0D1
:1037200008C0E6FF09C0E6FFE5EC34F098DBE66A86
:10373000DBDBEBDEC2DA020EE15C02E2E16AE552BB
:10374000E16EEAD2EDDA0A0EE12662EC40F04FDBE0
:1037500053EC40F0040EF3CFDBFF050EF4CFDBFF9C
:103760003FDBEE52EF5015E08EDBEFCF14F0060E8C
:10377000145C1CE2DBEC1FF0C8DBEFCF14F083DB42
:103780001450EF2668DB95DBE668E668BEDA36DBC8
:103790000DD079DBEF50000809E27BDA200EA1DAC8
:1037A000EF0604E170DBEF0656DB83DB19DBEF503D
:1037B00027E06FDA1D0EE0DB000828E276DBEF5031
:1037C00025E161DBEF5022E13BDB080EEECFDBFFB2
:1037D000090EEDCFDBFF34DBE80EEE6E360EED6E3C
:1037E000EADB2EDB080EDBCFEEFF090EDBCFEDFFB1
:1037F00050DA1D0E76DAEF0658DB320EEF6E06D089
:1038000054DBEF50000802E250DBEF066EDA060EE2
:10381000B3DB1BE00BDBEE06ED5A04DBC4DA04E796
:10382000FB0E145CFF0E155856E2A3DBD880155032
:1038300004E7F60E145CFF0E155804E2F3DAF60EF8
:10384000EE6EED6862DA81D944D04FDA070E94DB70
:103850001AE0ECDAEE2AED22E5DAAEDA3CE21450B8
:103860000508000E155437E284DB153409E21450C4
:103870000A08000E155404E2D5DA0A0EEE6EED6A5F
:1038800044DA67D926D0CEDA5FDA0001800E15144B
:1038900004E0C8DAEE2AEF2208D06BDB153405E22B
:1038A000BCDA03E2BFDAEE06EF5A63DB153404E359
:1038B0001450FB08FF0E15540EE2B4DA37DBD89033
:1038C000175004E6050E165C000E175804E21DDAC8
:1038D00044D9E552E55209DA040E4EDB0DE02EDB49
:1038E00062DA04E7F30E145CFF0E155829E226DBBA
:1038F000F30EEE6EED6824D0F8D9050E3DDB0DE039
:103900001DDB5ADA1DE214500D08000E155418E2A2
:1039100015DB0D0EEE6EED6A13D084DA15DA0001B8
:10392000800E171404E00ADBEE2AEF2209D006DB32
:1039300018DA153405E271DA03E200DBEE06EF5A1D
:1039400018DB040EFEDA0850EE261550ED22F6DAEA
:1039500008DA030EF6DA2CDB0850EE261550ED22BD
:1039600065DAF2D90001800E151404E05FDAEE6A20
:10397000ED6A18D0CAD9EDEC2CF0E552E552060EEE
:10398000FEDA22DA0FE21450A008000E15540AE203
:10399000060EDB50146E156AA00EF8DA14C0EEFFA6
:1039A00015C0EDFF43DAD0D90001800E171405E0F1
:1039B0003DDAFEDAEE6AED6A1AD0A7D9F0EC2CF007
:1039C000E552E552070EDBDAF3DAFED910E21450C5
:1039D000F508000E15540BE2070EDB50146E156A45
:1039E000F50ED4DAE5DA14C0EEFF15C0EDFFB2D95A
:1039F0004EDA87EC4FF0B3DA000E146E0A0EE15C7B
:103A000002E2E16AE552E16E145086D189D9040ED2
:103A1000E126230EE66E1CEC5BF0E552E8D965D991
:103A20002E0EEE6E350EED6E60D9C2DAFB0EDBCFD8
:103A3000EEFFFC0EDBCFEEFFFD0EDBCFEEFFFE0E4A
:103A4000DBCFEEFF52D90C0E4CD9500EEE6E350E78
:103A5000ED6E4BD90E0E45D9980EEE6E350EED6E0D
:103A6000440EE66E370EE66EBFEC4FF095DA090EA7
:103A700038D97ADADEDC14DA38D9060E32D98BD9A5
:103A80007BEC2DF0E552E55228DA48EC36F084DA8A
:103A9000160E27D969DA29D90B0E23D9060EEF6E37
:103AA000E8D910DA22D9180E1CD906C0EEFF15C0CD
:103AB000EEFF16C0EEFF17C0EEFF17D91E0E11D98C
:103AC000EF6A13D9210E0DD9090E35DA1F0E09D967
:103AD000010E31DA210E50DAE66E07D9200E01D937
:103AE000E552E75028DA220EFCD8320E24DA1D0EF9
:103AF000F8D8030E20DA120EEB6A130EEB6AF5D833
:103B0000140EEB6A150EEB6AF0D81C0EEAD8EF6AB9
:103B1000ECD8100EE6D8640EEE6E360EED6E07D9B8
:103B200006D905D904D903D9020EDBCF14F0030E50
:103B3000DBCF15F014C0F3FF15C0F4FF040EE15CF9
:103B400002E2E16AE552E16EE7D0A6D9020EEF6E1D
:103B5000E3D0A2D9010EEF6EDFD09ED9EF6ADCD0A0
:103B600020DA1C0E09DA040833E093D81C0EB9D809
:103B7000EF2AEF50040A21E0070A14E0010A0AE0E4
:103B8000030A26E15DD9720EEE6E360EED6E63D934
:103B9000070E0FD055D9800EEE6E360EED6E5BD946
:103BA000060E07D04DD98E0EEE6E360EED6E53D941
:103BB000040EEF6EAAD9010E0AD042D99C0EEE6E09
:103BC000360EED6E48D9050EEF6E9FD9170EEF6ECB
:103BD000A3D0A3D9FB0EDBCFE9FFFC0EDBCFEAFFBE
:103BE000120ECAD90D0DF350DE6EDD6AFA0EDB50EF
:103BF0000DE0D9CFE9FFDACFEAFF010E0F0B06E0A7
:103C0000EC52D890ED32EF32E806FAE142D8120ECB
:103C100068D8EE2AEF22AED878D8F0D8020EE15C50
:103C200002E2E16AE552E16E77D07AD8EAD815343B
:103C300002E2F3D819E32DD8140E53D892D8FB0E14
:103C4000DBCF16F0FC0EDBCF17F0166C171E000E44
:103C500017221650145C1750155806E21AD8140E85
:103C6000EB6A150EEB6A08D0CCD813D8140E39D8ED
:103C70001450EE261550ED224FD052D846D884EC81
:103C80002CF0E552E55203D984EC2CF0E552E552D4
:103C900043D0FD0EDBCFE9FFFE0EDBCFEAFF1200C3
:103CA000E66EE7D8E552E55206C016F007C017F0F9
:103CB00008C018F009C019F01FD1F3CF1CF0F4CFE1
:103CC0001DF02FD9F8EC50F01E6E0D0EE15E1E5067
:103CD000E7D8F90EDBCFE9FFFA0EDBCFEAFFB4EF4E
:103CE0001FF0E926000EEA221200020EDBCFE9FFE8
:103CF000030EDBCFEAFF1200E552E552F3CF1AF0D4
:103D0000F4CF1BF00ED9E66A1200FD0EDBCFE6FF02
:103D1000FE0EDBCFE6FF1200E552E7CFD9FF12001F
:103D2000D9CFE6FFE1CFD9FF1200CCD8E5D0D5D866
:103D300017DFE552E5521200E552E552B1D8DECF69
:103D4000E9FFDDCFEAFF1200EECF14F0EECF15F061
:103D500096EF1FF0FB0EDBCFE6FFFC0EDBCFE6FF9E
:103D60001200EECF14F0EFCF15F0120014C0F3FFE5
:103D7000F46E1200DECFE6FFDDCFE6FF1200040E88
:103D8000E66E1CEC5BF0E552F3CFDEFFF4CFDDFF17
:103D9000010EE66E1200E8D86DEF1FF0EECFE6FFE1
:103DA000EFCFE6FF1200EE06ED5AEECF14F0EDCFA6
:103DB00015F0D88015501200EE2AED22EECF14F047
:103DC000EDCF15F0153412001650EE24146E175076
:103DD000EE20156EE8341200C7EC25F0AFEF1FF0AF
:103DE000040EDBCFE9FF050EDBCFEAFF1200020E67
:103DF000F3CFDBFF030EF4CFDBFF120016DFAFEFD4
:103E00001FF0FB0EDBCF14F0FC0EDBCF15F0120021
:103E1000186E060EE15E1850120014500008000ED5
:103E20001554120036DF180E71EF1EF032DFD8EF96
:103E30001FF076DFE66A2A0EE66E360E50EF1EF0B1
:103E400028DF100E71EF1EF0E66EF90EE66EF1EC53
:103E500051F07CEF1EF01DDF210E71EF1EF06CDFC4
:103E6000A7D882D8010EE66E060EE66EA30E50EFBE
:103E70001EF0000EE66EE66AE66EE66AF1EC5AF0B7
:103E8000E552E552120005DF1E0E71EF1EF001DF54
:103E9000160E27DFCEEF1EF084D8080E71EF1EF04D
:103EA000F3CF14F0F4CF15F01200F3DE220E71EF11
:103EB0001EF0EF50E66EEDDE200E13DFE552E75008
:103EC000EF6E1200E552E55206C014F007C015F07F
:103ED00008C016F009C017F01200020EDBCFE6FF93
:103EE000030EDBCFE6FF1200020EE66E43DF51EC5D
:103EF00041F0E5527CEF1EF006C0E6FF07C0E6FF8A
:103F000008C0E6FF09C0E6FF1200C3DE1F0E71EF16
:103F10001EF07EDF2FDFAAEF1EF002DF020EE12689
:103F20001200F3CFE6FFF4CFE6FF1200EECF16F05B
:103F3000EFCF17F01200EF6E75EF1EF073DFD8EFC2
:103F40001FF00D6E0E6A14C008F015C009F036ECB3
:103F500058F008C014F009C015F016EF1FF0E55234
:103F6000E552E552E5521200F3CFEEFF15C0EDFF2A
:103F7000120058DFB1EF1EF0B4DEEF501200F3CFA5
:103F8000DBFFDB50166E176A16EF1FF0D880145651
:103F9000000E155616EF1FF0E552E55281DF75EF62
:103FA0001EF0BEDE49EF1EF0E66E010E24EF1FF09C
:103FB000020E71EF1EF0CEDEA8DE46EC55F0AFEF3C
:023FC0001FF0F0
:0E3FC20003010C510AE10F01010E686FF20EAF
:103FD000666FB80E676F0301010E0C6F640E146EEE
:103FE0000F0E14C0F3FFF46E120001EC24F0020E69
:103FF000E1266BEC24F0D8EC24F01AEC24F00BE072
:1040000061EC24F066EC24F02AEC5BF0E552E5521A
:1040100061EC24F0F0D772EC24F0AAEC58F0E552F1
:10402000E552020EE15C02E2E16AE552E5D3E9DB2A
:10403000050EE126DF6A6BEC24F0020ED2DB010EE6
:10404000EECFDBFF020EEDCFDBFFD950010F4FECBF
:1040500024F022E079EC24F0030EEECFDBFF040E17
:10406000EDCFDBFFDFCFE6FFD3EC24F055EC24F0FF
:10407000C2EC24F0030EDF24E66EE66A020EE66E62
:10408000E66A030E55EC24F0ACDBC2EC24F0050E1E
:10409000DF2679EC24F0D2D7050EE15C02E2E16A7A
:1040A000E552AAD3AEDB060EE12650EC3AF080ECE6
:1040B00024F0DF6A010EDB6A0A0EDF5C3AE25BEC99
:1040C00024F0040EF3CFDBFF050EF4CFDBFF010E6F
:1040D000DBCFE6FFD3EC24F0C0DBC7EC24F0BDDB84
:1040E000E0EC24F0010EDB50030FE66EE66A020EF0
:1040F000E66EE66AB2DBE4EC24F0C7EC24F0040ED2
:10410000DBCFE6FF050EDBCFE6FF020EDBCFE6FFDF
:10411000030EDBCFE6FF87EC24F0DF2A050E146EDA
:10412000010EDBCFE7FF1450E726010EE7CFDBFFE0
:10413000C3D7020EDBCF14F0030EDBCF15F014C093
:10414000F3FF15C0F4FF060EE15C02E2E16AE552FE
:1041500053D357DB140EE12634DFD2DBD950040FE2
:10416000E96EDACFEAFF5F0EEE6EEE6A060EDB6AEC
:104170008DDBA80EE66E1A0EE66E81EC3EF0E5527F
:10418000E552100EF3CFDBFF110EF4CFDBFF120E62
:10419000DB6A130EDB6A010EE66E48EC29F0E5528D
:1041A000F8EC2AF022DBD8EC24F0EF5001E02FD11C
:1041B0006DDBD950FB0FE96EFF0EDA20EA6EEE5090
:1041C000ED105BE0A8DBEE50EFCFEAFFE96E166E74
:1041D000EACF17F0060EDB5000011624146E000E15
:1041E000EA20156E070E14C0DBFF080E15C0DBFFBA
:1041F000FCDAEE52EF500CE0060EDB5006E1020E48
:10420000F36E060EF3CFDBFF53D0060EDB0650D065
:10421000ECDAEF5008E0060EDB2ADB50020848E239
:10422000060EDB6A45D0E1DA060EDBDAEF500EE06F
:10423000B8DAEF50410813E0B4DAEF50200803E198
:10424000B0DA5A0E15D0ADDAEF0632D0CEDA070E5C
:10425000C8DAEF502DE0A5DAEF505A0803E1A1DAF1
:10426000200E06D09EDAEF50200804E19ADA410EC3
:10427000EF6E1ED096DAEF2A1BD00A0EE66E4BECDC
:1042800052F0E552D950120FE96EDACFEAFF0A0E6A
:10429000EE26000EED22120EDBCF14F0130EDBCF54
:1042A00015F0980E145C3A0E155802E3010EB5D0C5
:1042B000DBDAE9EC3EF0E552E552010EE66E000E67
:1042C000E66EE66AE66EE66A58DA2CDB71DBFEDA49
:1042D000F0EC44F0186E070EE15E1850000EE66E2A
:1042E000E66AC2DA87EC4FF048DB460EDF6EFD0E61
:1042F000DBCFE9FFFE0EDBCFEAFF5ADB0A0EEECF83
:10430000DBFF0B0EEDCFDBFFD9500A0FC8DA74E0EC
:10431000FB0EDBCF14F0FC0EDBCF15F00A0EDB50EA
:10432000141803E10B0EDB50151803E0090EDB6ACD
:1043300034D0010EF36E090EF3CFDBFF010EE66EF3
:10434000DF04E66EE66AF5DA88EC30F0E552E55215
:10435000F3CF1CF0F4CF1DF0060EDB501A6E1B6A73
:10436000086E1BC009F0F3CF0DF0F4CF0EF089EC0E
:1043700058F006C018F007C019F0550E1826000EA8
:10438000192218C0E6FF19C0E6FFF7D9D2DABEEC51
:104390002FF01E6E070EE15E1E500A0EDBCFE9FF06
:1043A0000B0EDBCFEAFF0C0EEECFDBFF0D0EEDCFD9
:1043B000DBFFC6DA550EFFDAE9CF18F0EACF19F0C5
:1043C000E9CFE6FFEACFE6FFBEEC2FF01A6E070E4C
:1043D000E15E1A50B5DA730EEEDAF6DA77DAEDEC62
:1043E0002FF0186E070EE15E1850100EDF260A0E31
:1043F000DBCFE9FF0B0E7FD7D950010FE66E000E21
:10440000DA20E66E57EC29F0E552E552CBD62CDAED
:10441000AAEC58F0E552E552000E146E140EE15C61
:1044200002E2E16AE5529AD2ECD9430EE126D9CFF5
:10443000E9FFDACFEAFFEE6E500EEE6E530E22DA8F
:104440004C0EEE6E480EEE6E200E1CDA5A0EEE6E1C
:10445000430EEE6E200E16DA4A0EEE6E500EEE6E23
:10446000430E10DA450EEE6E4D0EEE6E530E0ADA66
:10447000530EEE6E590EEE6E420E04DA450EEE6EDF
:10448000430EEE6E450EFED9410EEE6E420EEE6EFE
:10449000430EF8D9580EEE6E590EEE6E5A0EF2D942
:1044A000440EEE6E450EEE6E460EEE6EEE6A640E35
:1044B000F36E280EF3CFDBFF290EDB6A630EF36E7B
:1044C0002A0EF3CFDBFF2B0EDB6A620EF36E2C0E8F
:1044D000F3CFDBFF2D0EDB6A610EF36E2E0EF3CFF2
:1044E000DBFF2F0EDB6A600EF36E300EF3CFDBFFC7
:1044F000310EDB6A5F0EF36E320EF3CFDBFF330E4D
:10450000DB6A5E0EF36E340EF3CFDBFF350EDB6A33
:104510005D0EF36E360EF3CFDBFF370EDB6A5C0EFB
:10452000F36E380EF3CFDBFF390EDB6A5B0EF36EF2
:104530003A0EF3CFDBFF3B0EDB6A50EC3AF03F0E56
:10454000F3CFDBFF400EF4CFDBFF3C0EDB6A0A0E3D
:10455000F36E3C0EDBCFF4FFF350F45C43E2ABD9D7
:10456000410EF3CFDBFF420EF4CFDBFF56D9F35001
:104570000F0127D9E552E750EF6E4FD9F32821D923
:10458000010E2FD9E552E750EF6E47D9F350020FD5
:1045900018D90EDAE552E750EF6EFED911DAD9508C
:1045A000280F166EDACF17F03C0EDB50020D1650B6
:1045B000F324E96EDA50F420EA6EEECF14F0EFCF78
:1045C00015F0EAD901DA14C0EEFF15C0EDFF410E77
:1045D000DBCFE6FF420EDBCFE6FF4DD998D93C0E8C
:1045E000DB2AB5D748D931D9D9CFE6FFDACFE6FFF4
:1045F0009AEC4AF0146E060EE15E14503CD9B8D91C
:10460000430EE15C02E2E16AE552F6D0FAD8040E0C
:10461000E12681D9CDD90ED923E053D9020EEECFB0
:10462000DBFF030EEDCFDBFFFD0EDBCF14F0FE0E44
:10463000DBCF15F077D9C8D9EECF16F0EFCF17F052
:104640001450165C1550175809E2DECF14F0DDCF78
:1046500015F014C0F3FF15C0F4FF04D032D9DAD737
:10466000F36AF46A040EE15C02E2E16AE552C4D046
:10467000C8D8030EE12616DDF3CFDEFFF4CFDDFF51
:10468000000EE66EE66ADECFE6FFDDCFE6FF6CD910
:10469000E76E020EE7CFDBFFDECFE6FFDDCFE6FF02
:1046A00067D9020EDB50146E030EE15C02E2E16A90
:1046B000E55254D1A6D80B0EE126F4DC030EF3CF5D
:1046C000DBFF040EF4CFDBFF85D80CD99FDF55D973
:1046D000050EF3CFDBFF060EF4CFDBFFD950050F3D
:1046E000DED843E0E8D8090EF3CFDBFF0A0EF4CFA3
:1046F000DBFF8CD869D9FD0EDBCFEEFFFE0EDBCFE2
:10470000EDFF320EE66E4FD981D841D97FD858D906
:10471000090EDBCFE6FF0A0EDBCFE6FF050EDBCF8F
:10472000E6FF060EDBCFE6FF55D8C0EC3AF0146E7C
:10473000060EE15E1450070EF3CFDBFF080EF4CF38
:10474000DBFF030EB2D84DD8C1D844D883EC3AF081
:1047500014D9070EDBCFE6FF080EDBCFE6FF3AD811
:1047600003D938D872D852D80DD934D801D90B0E04
:10477000E15C02E2E16AE5523FD0F1EC5AF0FDD88B
:1047800006C014F007C015F008C016F009C017F0F5
:1047900006C0E6FF07C0E6FF08C0E6FF09C0E6FF67
:1047A0001200070EDBCFE9FF080EDBCFEAFF120095
:1047B000E9CF14F0EACF15F0E9CFE6FFEACFE6FF44
:1047C0001200D924E96E000EDA20EA6EEF50E66E90
:1047D000CCEF24F0030EDBCFE6FF040EDBCFE6FFC9
:1047E0001200E926000EEA2212000E0EDBCFE9FFCE
:1047F0000F0EDBCFEAFF1200E16EE552E7CFD9FFE3
:104800001200D9CFE6FFE1CFD9FF1200090EDBCFAE
:10481000E9FF0A0EDBCFEAFF1200D9CF14F0DACF9E
:1048200015F03C0EDB50040D1200166E060EE15E14
:1048300016501200EECFDEFFEDCFDDFFD9CFE9FF3E
:10484000DACFEAFFEE50ED10120017EC20F0E5523F
:10485000E552320EE66ED3EF24F0040EDBCFE9FF13
:10486000050EDBCFEAFF1200100EDBCFE6FF110EC4
:10487000DBCFE6FF12003F0EDBCFE6FF400EDBCFC3
:10488000E6FF1200EE6E5F0EEE6E120053EC40F08B
:104890000E0EF3CFDBFF0F0EF4CFDBFF1200E96E3D
:1048A000DACFEAFFEE50ED101200DBCFE9FF040E85
:1048B000DBCFEAFF1200060EE66E1CEC5BF0E55261
:1048C0001200DECFE9FFDDCFEAFF1200EECFE6FFF8
:1048D000EFCFE6FF1200FD0EDBCFE9FFFE0EDBCFD0
:1048E000EAFF1200FD0EDBCFE6FFFE0EDBCFE6FF98
:1048F0001200010EDBCFE9FF020EDBCFEAFF120050
:10490000020EF3CFDBFF030EF4CFDBFF12006AECE5
:104910003AF0BDEF24F0FB0EDBCFE9FFFC0EDBCF5E
:10492000EAFF1200020EDBCFE9FF030EDBCFEAFF46
:104930001200D950040FE66E000EDA20E66E120067
:10494000090EDBCFE6FFDFCFE6FFE66A12000C0EB2
:10495000DBCFE9FF0D0EDBCFEAFF1200E16E145052
:10496000E552E7CFD9FF1200A9EC20F0BDEF24F00B
:10497000F5EC1FF0E552E5521200E552E552E55222
:10498000E552120015DF9AEC4AF015EF24F010DF23
:104990007BEC4AF015EF24F0410EDBCFE9FF420E2D
:1049A000DBCFEAFF1200E66A030EE66EE66A12004B
:1049B000020EF1EF23F0E66EE66ADFDEA7EF24F0E9
:0E49C000030E0FDFEF6A1200040EF1EF23F07A
:0249CE00E4DA29
:1049D000020EE12695DB87DB02E05FDBFCD794DB90
:1049E00082DB02E05ADBFCD7A8DB7DDB02E055DB93
:1049F000FCD7A7DB78DB02E050DBFCD7A6DB73DB60
:104A000002E04BDBFCD7A5DB6EDB02E046DBFCD72C
:104A1000A4DB69DB02E041DBFCD77CDA030EC2DBFE
:104A2000050EC0DB070EBEDB090EBCDB0B0EBADBCE
:104A30000D0EB8DB0F0EB6DB150EB4DB170EB2DBB6
:104A4000190E6FDAA4DA17DBA2DA64DA130E69DA68
:104A5000D0EC58F0E552E552020EE15C02E2E16A68
:104A6000E552E16E9ED298DA060EE1261D0EE66E44
:104A70001CEC5BF0E552DBDA04DBCE0EEE6E490E89
:104A8000ED6EC6DB030E74DA73DA070E71DA090E07
:104A90006FDA0B0E6DDA0D0E6BDA0F0EA4DA130E51
:104AA00010DBFB0EDBCFEEFFFC0EDBCFEDFFE9DA18
:104AB000110E07DBFD0EDBCFEEFFFE0EDBCFEDFFB1
:104AC000B5EC2DF006C0DEFF07C0DEFF08C0DEFF3C
:104AD00009C0DDFFDD52DD52ADDB9ADA010E0F0BAE
:104AE00005E0D89015321432E806FBE197DA14504D
:104AF000EE261550ED22D9CFE9FFDACFEAFFEECF4F
:104B0000E6FFEECFE6FF67DB95DB91EC2DF040DBB7
:104B1000E60EE66EE66A820E49DB1EEC4EF045DAE2
:104B2000150E69DBE60EE66EE66A010E3FDB4EEC23
:104B30004DF03BDA170E5FDB030EE66EE66A9B0E66
:104B400035DBB9EC4EF031DA190E4DDA1B0E76DAA0
:104B5000DBCFE9FF050EDBCFEAFF1C0E65DA91DA49
:104B6000020E6CDADBCF14F0050EDBCF15F014C0AB
:104B7000F3FF15C0F4FF060EE15C02E2E16AE552C4
:104B8000E16E0FD209DAC6D940DBEF500AD277DAEC
:104B9000030E8DD274DA050E8AD271DA070E87D22F
:104BA0006EDA090E84D26BDA0B0E81D268DA0D0E42
:104BB0007ED265DA0F0E7BD254DA030E7DD251DA43
:104BC000050E7AD24EDA070E77D24BDA090E74D27E
:104BD00048DA0B0E71D245DA0D0E6ED242DA0F0EA4
:104BE0006BD2DAD9050EE12695D9130E9CD9020EA7
:104BF00098D9E9EC3EF0E552E552ABDAABD902E0E8
:104C00009CD9FCD7AADAA6D902E097D9FCD795DAC5
:104C1000A1D902E092D9FCD794DA9CD902E08DD9CF
:104C2000FCD772DA97D902E088D9FCD7E7DA05E138
:104C300022DA3DEC1EF0E552E55262DA8BD902E051
:104C40007CD9FCD782DA86D902E077D9FCD762D941
:104C5000170E65DA150E63DA190E63D907EC4FF0FB
:104C6000E552E552E66A020EE66EE66A36DA06C0FC
:104C700014F007C015F008C016F009C017F0A5D948
:104C800070DA140E4ED9EDEC2FF0186E070EE15EBF
:104C90001850050EE15C02E2E16AE552E16E81D155
:104CA0007BD9040EE12636D91B0E0BDAEF5034E027
:104CB0003DD957DA160E35D9A4DA2CD91C0E01DAF3
:104CC000EF2AEF5002082CE1D6D9A2D9D890143699
:104CD0001536F00ED8801456000E1556020E14C06C
:104CE000DBFF030E15C0DBFF3CDA8FDA8EDAEE064F
:104CF000ED5AEECF14F0EDCF15F0020EDB50141884
:104D000007E1030EDB50151803E104D91B0E8CD903
:104D100001D91C0E89D904D071DA02E161DA71DAA5
:104D200005D9F8D8170ED1D9150ECFD9130EFBD847
:104D3000020ECBD9130EF5D826EC56F006D9E0D9E1
:104D40001AD91FD908E0A4D904E1ABD935DFC2D9FB
:104D5000F8D738DAF5D7D8D90ED913D908E098D9C9
:104D600004E19FD92CDFB6D9F8D72CDAF5D7E5D9ED
:104D700002D907D908E08CD904E193D923DFAAD955
:104D8000F8D720DAF5D7DDD9F6D8FBD808E080D9F6
:104D900004E187D91ADF9ED9F8D714DAF5D7DDD91F
:104DA000EAD8EFD808E074D904E17BD917DF92D9AB
:104DB000F8D708DAF5D7C9D9DED8E3D808E068D93A
:104DC00004E16FD905DF86D9F8D7FCD9F5D7C1D969
:104DD000D2D8D7D808E05CD904E163D9FCDE7AD90F
:104DE000F8D7F0D9F5D70ADA08E08AD90EDAEE500A
:104DF000ED1003E18FD8020E17D9040EE15C02E238
:104E0000E16AE552E16ECDD0C7D8070EE1267CD924
:104E1000FCD9020EEECFDBFF030EEDCFDBFFFED899
:104E2000EE50ED1027E0060EDB6A74D8070E79D835
:104E3000ACD869EC42F04ED9A4D812E077D8A5D806
:104E400095D8BAD8A2D8DDD806E0010EF36E060ECA
:104E5000F3CFDBFF6BD9CAD803E123D9B3DE75D812
:104E6000060EDB5005E0E66AD8D940D9ECD8D7D792
:104E70004FD9CED7C3D947E14DD8090EA8D92AD9E1
:104E800080D80DE0ADD972D897D8F5D8BAD802E05D
:104E9000A7D9C7D9ABD803E104D997DE56D83AD8F9
:104EA0000F0E95D952D8C3D8D950040FE96E75D9D1
:104EB0000FE096D9E6D88FD91EEC54F069D9040ECC
:104EC000DBCFE6FF050EDBCFE6FF30D887DE3DD82F
:104ED00021D8050E7CD939D8B6D8A0D8EE50ED101F
:104EE00012E016D9A2D9130EECD8EF500CE1020E45
:104EF000E66EC1D886D802E073D993D9010EE66E6A
:104F00008CD914D9F3D8070EE15C02E2E16AE552CC
:104F1000E16E47D0FD0EDBCFE9FFFE0EDBCFEAFFEF
:104F20001200CFD822D1CDD815EF29F0FD0EDBCF5E
:104F3000E6FFFE0EDBCFE6FF120023D94CD984EC4E
:104F40002CF0E552E552C1EF28F0E552E552E5526A
:104F5000E55212005AD9030EEECFDBFF040EEDCF5F
:104F6000DBFFD950030FE96ECDEF28F02BD9FDD030
:104F700042D908EF29F049D9EECFDEFFEDCFDDFFB2
:104F80001200D9CFE9FFCDEF28F0C2D8EED0AAECBD
:104F900058F0E552E5521200D9CFE6FFE1CFD9FF34
:104FA0001200E552E7CFD9FF12001A6E060EE15E3D
:104FB0001A50DDD841EF28F051EC51F0E9D8BAD8B9
:104FC0000B0E7FD8EF50E66E120006C0E6FF07C05A
:104FD000E6FF08C0E6FF09C0E6FF1200F3CFDEFFE0
:104FE000F4CFDDFF120007D941EF28F0A3D80E0E51
:104FF00068D8EF5012003EEC55F0E552E55200093A
:1050000012002AEC55F0E552E552E5520009120073
:10501000F0EC2CF0E552E552B7EF28F0D950020F32
:10502000E96EDACFEAFF12004CD8EF6A1200040EE4
:10503000F3CFDBFF050EF4CFDBFF120042D8010EE9
:10504000EF6E040E1200020EF3CFDBFF030EF4CF5F
:10505000DBFF1200E9EC1DF0146E050EE15E14504A
:1050600012009ADFFB0EDBCFE9FFFC0EDBCFEAFF7D
:10507000B2D88DDFB8D04EDF110E91EF27F08CDF64
:10508000B2D0040EDBCFE9FF050EDBCFEAFF120042
:105090004DDF6CDFB6D80108120068DF78DFE2EF81
:1050A00028F0DECFE6FFDDCFE6FF96EF27F039DF11
:1050B0006AEC3AF04ADF75D734DF83EC3AF045DF2B
:1050C00070D7E926000EEA2212002BDF9AD82EDFD5
:1050D0008AEF27F03ADFEEEF27F0E66EE66AF1ECB2
:1050E0005AF0A5EF27F047DFC1EF27F0020EDBCF24
:1050F000E6FF030EDBCFE6FF19DF61DDA5EF27F04A
:1051000009DF030E93EF27F005DF050E93EF27F07D
:10511000020EDBCFE9FF030EDBCFEAFF120001DF57
:1051200084EC2CF0E552E5528AEF27F0FFDE2DDF0C
:1051300011EF29F047D815EF29F0ECDE070E93EFB9
:1051400027F0E8DE090E93EF27F0E4DE0B0E93EF75
:1051500027F0E0DE0D0E93EF27F0DCDE0F0E93EF6D
:1051600027F0D8DE110E93EF27F0EBEF28F0F3CF06
:1051700014F0F4CF15F01200F3CFEEFF15C0EDFFE1
:105180001200030EDBCFE9FF040EDBCFEAFF1200B3
:10519000146E060EE15E14501200DACFEAFFEE50F4
:1051A000ED101200BEDEF3DE8AEF27F096DF06C0B8
:1051B00016F007C017F008C018F009C019F005DF95
:1051C0001AEF29F0DECFE9FFDDCFEAFF1200A9DEFA
:1051D00052DF69EF42F0EECFE6FFEFCFE6FF1200BD
:1051E000A5DE3BEF28F0FB0EDBCFE6FFFC0EDBCFAE
:1051F000E6FF8AEF27F065DFBCEF28F03CDFFBEF2E
:1052000027F087EC4FF0A5EF27F0020E61EF28F0B2
:1052100050EC3AF0ACDF41EF28F0B7DE2CDF2AEF9C
:1052200028F0FEEC54F0A5EF27F0EE50EFCFEAFFA8
:0C523000E96E120026DF110E91EF27F04E
:04523C0089DA020EFB
:1052400023DB8BDAFEE12CDB88DAFEE1826A6DDAA1
:1052500017D37EDA050E18DB80DAFEE1040E20DBC0
:105260007CDAFEE1030E826E60DA0AD371DA060E92
:1052700069D26EDA070E66D26BDA080E826EFE0E07
:10528000DB5003E0010E816E01D0816A2DDBF8D284
:105290005FDA090E826EFE0EDB5003E0010E816EB6
:1052A00001D0816A21DBECD253DA0B0E4BD250DAFB
:1052B0000A0E826E91DAEF5005E08EDAEF6A010E87
:1052C000816E04D089DA010EEF6E816A806E806A89
:1052D000D7D2020E806E806A83AEFED7120038DA13
:1052E00070DADBCF17F0E1504BDA030EEBCFF3FFB0
:1052F0001750F318E8AE02D0F33408D0EE50145C27
:10530000EE501558EE501658EE5017580BE2FB0EA3
:10531000DBCF14F0FC0EDBCF15F0FD0EDBCF16F06B
:10532000FE0E01D04EDADBCF17F063DAA9D210DA25
:10533000A2DA59DAD95024DA1ADA89DAF00EE66EEE
:1053400095DFE552A00EE66E94DFE552E66A94DF43
:10535000E552BFDF95D2FCD9100EE126D95010DA04
:10536000040EEECFDBFF050EEECFDBFF060EEECF19
:10537000DBFF070EEECFDBFFF90EDBCF08F0FA0EF6
:10538000DBCF09F0080E08C0DBFF090E09C0DBFF08
:10539000F70EDBCF08F0F80EDBCF09F00A0E08C0DD
:1053A000DBFF0B0E09C0DBFFF90EDBCF16F0FA0EA8
:1053B000DBCF17F0F50EDB501624146EF60EDB5023
:1053C0001720156E0C0E14C0DBFF0D0E15C0DBFF91
:1053D00044DA153410E21450A008000E15540BE204
:1053E0003CDAA00E145E000E155A68DA01E3EFD025
:1053F00011DA01E3ECD0F50EDBCF14F0F60EDBCFC3
:1054000015F00001800E151411E05DDA166A176AB6
:1054100015AE02D016681768F5D9145008DA53DAB9
:105420004DDA01E3D4D0F6D901E3D1D0F70EDBCFCA
:1054300016F0F80EDBCF17F0F30EDB501624146EC7
:10544000F40EDB501720156E0E0E14C0DBFF0F0E8E
:1054500015C0DBFF09DA153410E21450F008000E15
:1054600015540BE201DAF00E145E000E155A31DA13
:1054700001E3ADD0CFD901E3AAD0F30EDBCF14F016
:10548000F40EDBCF15F0800E151421E027DA166A32
:10549000176A15AE02D016681768A00E0B6E0C6A5C
:1054A0000D6A0E6AA6D961EC5AF002C014F003C06E
:1054B00015F004C016F005C017F0A4D90250B7D9F2
:1054C0000DDA07DA01E383D0A5D901E380D0D3D97F
:1054D000F30EDBCF1CF0F40EDBCF1DF01E6A1F6A4B
:1054E0001DAE02D01E681F681CC0E6FF1DC0E6FF8F
:1054F0001EC0E6FF1FC0E6FFF2DE206E080EE15E72
:10550000205006C018F007C019F008C01AF009C0F2
:105510001BF0A00E0B6E0C6A0D6A0E6A61EC5AF05D
:1055200002C018F003C019F004C01AF005C01BF047
:1055300002C0E6FF03C0E6FF04C0E6FF05C0E6FFC9
:105540009AD9F50EDBCF21F0F60EDBCF22F0236ADD
:10555000246A22AE02D02368246821C0E6FF22C05C
:10556000E6FF23C0E6FF24C0E6FFB9DE256E080E85
:10557000E15E2550E552E7CF1BF0E552E7CF1AF088
:10558000E552E7CF19F0E552E7CF18F0185006249E
:10559000146E19500720156E1A500820166E1B50F5
:1055A0000920176E02D983D92DD9E1D850D90A0E16
:1055B000DBCFE6FF5BDEE552080EDBCFE6FF59DE10
:1055C000E552F20EDBCFE6FF57DEE55282DE100E2B
:1055D000E15C02E2E16AE5521BD1070EC16E926AFC
:1055E000936A946A9568806A816A826A836A120003
:1055F000AFD8040EE126030EDB6ADF6A030EDF5C20
:1056000043E2010EDB6A020EDB6A010EDBCF14F00F
:10561000020EDBCF15F0D890155004E6F00E145CA6
:10562000000E155826E2E66A010EDBCFE6FF020EF9
:10563000DBCFE6FF000EE66EE66A180EE66EE66A5F
:10564000A00EE66EE66A800EE66E6F0EE66E0B0E3C
:10565000E66EE66A80DE146E0D0EE15E1450D950DF
:10566000010FE96EDACFEAFF180EEE26000EED22EA
:10567000CCD7D950030FE66E000EDA20E66E17DEA7
:10568000E552E552DF2ABAD7040EE15C02E2E16A94
:10569000E552BED05DD80E0E55D00C0E826E010EB6
:1056A000816E806E806A12000C0E826E816A74EFC9
:1056B0002CF04ED8040EE126FB0EDBCF18F0FC0ECA
:1056C000DBCF19F0A00E1902F3CF19F01802F3CFB7
:1056D00018F0F4501926FD0EDB50F324146EFE0E64
:1056E000DB501920156E166A176A15AE02D01668BF
:1056F00017685BD8D2DFFA0EDBCFE6FFCBDFE552CF
:10570000010EE66EB9DDE552D2D8020EE66EAEDDD0
:10571000E552040EE66EADDDE552DBDDC5DF040EBD
:10572000E15C02E2E16AE55273D0FB0EDBCF14F0DC
:10573000FC0EFD0EFE0E156A166A176A1450816E75
:1057400074EF2CF0826EFE0EDB50816ECDD898D0B7
:10575000D9CFE6FFE1CFD9FF1200D890030EEB328C
:10576000020EEB32010EEB32EF32E7061200EECF03
:10577000E6FFEECFE6FFEECFE6FFEFCFE6FF12004B
:10578000FB0FE96EFF0EDA20EA6E1200E96EDACF47
:10579000EAFF1450EE5E1550ED5A1200DBCF15F003
:1057A000146C151E000E1522120014C0DFFF010E2E
:1057B00015C0DBFF020E16C0DBFF030E17C0DBFFB8
:1057C0001200F70EDBCF14F0F80EDBCF15F0F90E58
:1057D000DBCF16F0FA0E1200FD0EDBCFE9FFFE0E56
:1057E000DBCFEAFF120035DDE552E552E552E55226
:1057F000120014C006F015C007F016C008F017C05C
:1058000009F01200D950040FE96EDACFEAFF120056
:10581000E16E36D014500008000E15541200080E28
:10582000DBCF14F0090EDBCF15F015341200EE2695
:105830001550EE221650EE221750EE2212000A0EDC
:10584000DBCF14F00B0EDBCF15F015341200F6DCB5
:10585000E552E552E552E55212000C0EDBCF14F092
:105860000D0EDBCF15F012000E0EDBCF14F00F0E75
:10587000DBCF15F01200E66AE66AE66AE66A120015
:10588000E552E7CFD9FF1200826EFB0EDBCF14F09A
:105890001450816E29D8E15073DF080EE76E1200B4
:1058A000826E43DFD9506CDF080EE76E1200D9CF4D
:1058B000E9FFDACFEAFF5BDFF3EF2BF0D950080FF7
:1058C00065DF0FEF2CF0F50EDBCF14F0F60ECEEF08
:1058D0002BF0D9500A0F5ADF1FEF2CF0F30EDBCF5D
:1058E00014F0F40ECEEF2BF0010E806E806A1200E1
:1058F0006ED994D99CDAC2D98ED9EF50090DB8D996
:1059000014C0F3FFF46E68D162D9020EE12646D9C5
:10591000EFDF8ED9DECFF6FFDDCFF7FF080EF626DC
:10592000000EF7220800F550E66E35D9EECFE6FFFF
:10593000EECFE6FFEECFE6FFEFCFE6FFDECFE6FFEE
:10594000DDCFE6FFF0EC44F0146E070EE15E14507C
:10595000020EE15C02E2E16AE552E16E3DD137D927
:10596000020EE126090EE66E1CEC5BF0E552F3CF69
:10597000DEFFF4CFDDFF87D94E0EEE6EB10EED6E79
:1059800082D9060EE926000EEA22FD0EDBCFEEFFDD
:10599000FE0EDBCFEDFF77D9080EE926000EEA22D6
:1059A000FC0EDBCFEFFF6FD942DAF80EDBCFEEFF54
:1059B000F90EDBCFEEFFFA0EDBCFEEFFFB0EDBCFF7
:1059C000EEFFDECF14F0DDCF15F062D9020EE15C00
:1059D00002E2E16AE552E16EFFD0CDD9040EA9D111
:1059E000CAD9060EA6D10CDAEECF16F051D9F4D0F2
:1059F00007DA44D916C0F3FF17C0F4FFEDD089D9F8
:105A0000B7D9EBDFAED185D912DAB2D9E9DFA9D1A6
:105A1000E5D902E014D9FEE167D996D902E00FD9A1
:105A2000FEE1B0D902E2E16AE552E16ED5D0D6D905
:105A300002E005D9FEE158D9A8D902E2E16AE552AF
:105A4000E16ECAD0CBD902E0FAD8FEE14DD9A0D997
:105A500002E2E16AE552E16EBFD0C4D975D902E035
:105A6000EED8FEE18FD902E2E16AE552E16EB4D0F0
:105A7000BDD96AD902E0E3D8FEE184D902E2E16A45
:105A8000E552E16EA9D0AED983D902E2E16AE552CE
:105A9000E16EA2D0ABD97CD902E2E16AE552E16EB7
:105AA0009BD0A0D972D902E2E16AE552E16E94D0AE
:105AB0009DD96BD902E2E16AE552E16E8DD06BD9D6
:105AC000EF2AEFCF14F05BD9EF50145C06E366D8F1
