:020000040000FA
:06000000E7EF65F01200BD
:060008003FEF47F012007B
:06002A0013002FCD0000C1
:10003000800000007E0000002ECD0000C9030000FB
:100040000100000029CD0000BB03000005000000F6
:1000500026CD00007D0F00000300000021CD000030
:10006000B60300000500000020CD0000C80300001A
:10007000010000001FCD0000C703000001000000C8
:10008000C7AA0000C603000001000000D39A0000C8
:10009000C50300000100000040CC00000002000089
:1000A000DF0000008BB20000C4030000010000006C
:1000B0003ECC0000C20300000200000077A7000051
:1000C000FF0D00000100000039CC0000B10300006A
:1000D0000500000030CC0000F7010000090000001E
:1000E00065CB0000FF020000010000002ECC0000E4
:1000F000C00300000200000027CC000087030000BE
:100100000700000025CC0000FE00000002000000F7
:10011000E7EC0CF0140EE126180EB2EC0DF0A00E78
:1001200032EC0FF00A0EDB6A0DEC0EF00D0EDB6AFE
:100130000F0EA3EC0EF00E0EF3CFDBFFFE0EDB5026
:1001400004E156EC0DF06F0E16D0FE0EDB0404E158
:1001500056EC0DF07E0E0FD0FE0EDB50020804E1CF
:1001600056EC0DF08D0E07D0FE0EDB5003080AE1B1
:1001700056EC0DF09C0ED5EC0CF00B0EBAEC0CF01E
:10018000040EDB6ADF6A0A0EDF5C0DE2D950010F54
:1001900090EC0FF00C0F66EC0EF0180EEE26000E31
:1001A000ED22DF2AF0D7140EE15C02E2E16AE552AB
:1001B000E16E1AEF0FF0E7EC0CF0E652DF6A040E86
:1001C000DF5C05E2DFCFE6FF5BEC0EF0F8D7D3ECA7
:1001D0000EF0DF6A040EDF5C03E2C4EC0FF0FAD726
:1001E000E5521AEF0FF0E7EC0CF0610E50EC0FF057
:1001F000580EBFEC0EF00B0E27EC0FF03F0EBFECCD
:100200000CF039EC0FF01B0EF36EDB6E1C0EDB6A8C
:100210001F0EB9EC0DF00E0EC0EC0DF0870E80EC49
:100220000DF0230EA3EC0EF0220EF3CFDBFF280E11
:10023000DB6AC20EF36E290EECEC0CF02A0EF3CF43
:10024000DBFF2B0EDB6A1B0E87EC0DF01F0EC7ECDD
:100250000DF00E0ECEEC0DF0870ED5EC0DF0360E37
:10026000A3EC0EF0350EF3CFDBFF400EF36E3B0E2A
:10027000F3CFDBFF9A0EF36E3C0EF3CFDBFF020EE3
:10028000DCEC0DF0060EE3EC0DF02D0EEAEC0DF0BB
:10029000330EF1EC0DF0860EF8EC0DF0490EA3ECE8
:1002A0000EF0480EF3CFDBFF4E0EDB6A9E0E44ECE1
:1002B0000CF01A0E64EC0DF04F0EF6EC0CF0490E3B
:1002C0006BEC0DF04C0E72EC0DF05C0EA3EC0EF02E
:1002D0005B0EF3CFDBFF0101940E006FAE0E016FDA
:1002E000020E026F036B0F0E066F076B2F0E046F6B
:1002F000056B0A0E096F0A6B510E0B6F0C6B0E6BC0
:10030000010E0D6F800E79EC0DF02E0E196F1A6B29
:100310002B0E176F186B1B0E1C6F1D6B820E1E6F42
:100320001F6B010E216F206F08EC0FF001E097D1D9
:10033000010EE66E66EC64F0E552F40E2AEC0CF069
:1003400001E08DD196EC0FF0FA0E2AEC0CF001E0F2
:1003500086D1E00ED5EC0CF05E0ECAEC0FF0FA0E72
:100360002AEC0CF001E07BD1C00ED5EC0CF0650E50
:10037000CAEC0FF068EC0FF001E071D188EC0CF0E2
:1003800068EC0FF001E06BD1DF6A050EDF5C0BE279
:100390006AEC0EF04DEC0DF0640E2AEC0CF001E06E
:1003A0005ED1DF2AF2D7DE521E0EDD6EDF6A050E49
:1003B000DF5C11E26BEC0FF001E051D16BEC0FF060
:1003C00001E04DD19AEC0FF001E049D10F0ECBECDA
:1003D0000CF0DF2AECD7DE52140EDD6EDF6A050E5C
:1003E000DF5C1CE2B2EC0FF05C0E7BEC0EF029EC53
:1003F0000EF0F1EC0CF001E032D129EC0EF0F1EC52
:100400000CF001E02CD129EC0EF062EC0EF001E0D2
:1004100026D10F0ECBEC0CF0DF2AE1D7DE52960E80
:10042000DD6EDF6A030EDF5C18E26BEC0FF001E0BB
:1004300016D16BEC0FF001E012D19AEC0FF001E055
:100440000ED13C0E146E010EDBCFE7FF1450E75EB9
:10045000010EE7CFDBFFDF2AE5D770EC0EF0DE52AE
:100460000A0EDD6EDF6A020EDF5C11E26BEC0FF04C
:1004700001E0F5D06BEC0FF001E0F1D09AEC0FF059
:1004800001E0EDD0280ECBEC0CF0DF2AECD7500EBB
:1004900004EC0DF09E0E44EC0CF04B0EF6EC0CF060
:1004A000600E09EC0DF0350E046F056B70EC0EF06C
:1004B0006BEC0FF001E0D3D06BEC0FF001E0CFD08C
:1004C0009AEC0FF001E0CBD0280ECBEC0CF0400EF4
:1004D00004EC0DF0AE0E44EC0CF0530EF6EC0CF008
:1004E000600E09EC0DF070EC0EF06BEC0FF001E01B
:1004F000B6D06BEC0FF001E0B2D09AEC0FF001E057
:10050000AED029EC0EF0800E04EC0DF0BE0E44ECE3
:100510000CF0610E09EC0DF0360E046F056B70ECFB
:100520000EF0DEEC0FF001E09AD0D8EC0EF0200EC9
:1005300064EC0DF0540EF6EC0CF0480E6BEC0DF084
:100540004B0E72EC0DF0600E09EC0DF093EC0FF019
:10055000320E2AEC0CF001E082D017EC0DF0150EF3
:10056000066F076B3E0E046F056B040E096F0A6B76
:10057000500E0B6F0C6B93EC0FF0DF6A0A0EDF5C12
:1005800010E287EC0FF049EC0CF0B6EC0FF067E1ED
:10059000A6EC0FF049EC0CF0B6EC0FF060E1DF2AAE
:1005A000EDD7B2EC0CF0DF6A1E0EDF5C0CE287ECDC
:1005B0000FF0EAEC0EF053E1A6EC0FF0EAEC0EF0CF
:1005C0004EE1DF2AF1D7200EA5EC0DF06D0EDAEC2E
:1005D0000CF0DF6A050EDF5C11E26AEC0EF0B2ECA3
:1005E0000CF0D950150F66EC0EF0200EC9EC0EF091
:1005F000320E2AEC0CF033E1DF2AECD739EC0FF0A5
:10060000DF6A050EDF5C0CE26AEC0EF0B2EC0CF077
:100610004DEC0DF0320E2AEC0CF021E1DF2AF1D77F
:10062000FA0E2AEC0CF01BE1D950280F1BEC0CF051
:10063000180E01011C6F1D6BAB0E79EC0DF02E0E28
:10064000CEEC0FF0DEEC0FF00AE10101D90E79ECEF
:100650000DF03C0ECEEC0FF068EC0FF002E0010E56
:1006600001D0000E146E610EE15C02E2E16AE55217
:10067000B7EF0CF0E7EC0CF0610E24EC0DF0800EFF
:10068000FCEC0EF0AA0EFDEC0CF04D0E1DEC0DF086
:10069000140EFFEC0DF0270EF36E0D0EF3CFDBFF03
:1006A0000E0EA3EC0EF0100EECEC0CF00F0EF3CFD0
:1006B000DBFFAD0EA5EC0DF0860E1EEC0FF00A0E62
:1006C0003EEC0FF0450EF36E1B0EF3CFDBFF1C0E5E
:1006D000DB6A280EB9EC0DF0480EC0EC0DF0470EA9
:1006E00080EC0DF0010EF36E230EECEC0CF0220EFC
:1006F000F3CFDBFF0D0EF36E280EF3CFDBFF4F0EB3
:10070000F36E290EF3CFDBFF0A0EF36E2A0EF3CF42
:10071000DBFF2B0EDB6A590E87EC0DF03B0EC7ECAE
:100720000DF0480ECEEC0DF03B0ED5EC0DF0010EA9
:10073000F36E360EECEC0CF0350EF3CFDBFFC00E93
:10074000F36E3B0EF3CFDBFFE50EF36E3C0EF3CF03
:10075000DBFF090EDCEC0DF09C0EE3EC0DF0390E26
:10076000EAEC0DF0310EF1EC0DF0190EF8EC0DF095
:10077000010EF36E490EECEC0CF0480EF3CFDBFFEC
:10078000F90E04EC0DF0E50E59EC0FF0090EF36EC6
:10079000C3EC0EF09C0E64EC0DF0260EF6EC0CF0A3
:1007A0006A0E6BEC0DF0190E72EC0DF0010EF36E8B
:1007B0005C0EECEC0CF05B0EF3CFDBFF0101600E86
:1007C000266FA00E276F090E286F296B6F0E2C6FF6
:1007D0002D6B280E2A6F2B6B0D0E2F6F306B030EB7
:1007E000316F326B010E346F336F950E396FA00E7F
:1007F0003A6F090E3B6F3C6B6F0E3F6F406B150EEF
:100800003D6F3E6B430E426F436B030E446F456B6F
:10081000010E476F466FEB0E4C6F9E0E4D6F090E2B
:100820004E6F4F6B110E526F536B506F516B780EB2
:10083000556F566B020E576F586B010E5A6F596FFA
:10084000750E5F6FA50E606F0A0E616F626B140EFE
:10085000656F666B100E636F646B8F0E686F696BEC
:10086000BC0E6A6F6B6B010E6D6F6C6F8D0E726FCD
:10087000470E736F0A0E746F756B0C0E786F796B81
:100880003B0E766F776B060E7B6F7C6B0F0E7D6F6A
:100890007E6B010E806F7F6FBF0E856F0E0E866FB1
:1008A0000A0E876F886B090E8B6F8C6B410E896FF8
:1008B0008A6B060E8E6F8F6B1D0E906F916B010E03
:1008C000936F926F5F0E986F140E996F0A0E9A6F66
:1008D0009B6B090E9E6F9F6B410E9C6F9D6B060E6E
:1008E000A16FA26B2C0EA36FA46B010EA66FA56F58
:1008F000AB69190EAC6F0A0EAD6FAE6B090EB16F1E
:10090000B26B1A0EAF6FB06B060EB46FB56B3A0ECA
:10091000B66FB76B010EB96FB86FC00EBE6F9A0E8F
:10092000BF6F090EC06FC16BC46FC56B3C0EC26F49
:10093000C36B060EC76FC86B490EC96FCA6B010E39
:10094000CC6FCB6FFC0ED16F9A0ED26F090ED36FA6
:10095000D46BD76FD86B3C0ED56FD66B420EDA6F67
:10096000DB6B490EDC6FDD6B010EDF6FDE6F08ECB9
:100970000FF001E0AAD096EC0FF0DEEC0FF001E0F2
:10098000A4D0D950150F1BEC0CF0DF6A0A0EDF5C07
:100990000EE281EC0EF054EC0EF001E096D0D9504E
:1009A000150F54EC0EF001E090D0DF2AEFD7D950AC
:1009B000280F1BEC0CF0DF6A0A0EDF5C11E281EC01
:1009C0000EF090EC0FF0150F54EC0EF001E07DD01E
:1009D000D950280F54EC0EF001E077D0DF2AECD785
:1009E00029EC0EF0EAEC0FF0DF6A0A0EDF5C12E28F
:1009F000E4EC0FF054EC0EF068E129EC0EF0B6ECEC
:100A00000FF063E1030EDF5C03E1CD0EFCEC0EF0B2
:100A1000DF2AEBD7ADEC0CF058E196EC0CF0DF6A76
:100A20000A0EDF5C1DE2E4EC0FF01BEC0CF029EC8D
:100A30000EF0B6EC0FF049E196EC0CF0190E2AEC32
:100A40000CF043E1070EDF5C09E1400ED5EC0CF041
:100A5000470EBAEC0CF00A0E8DEC0CF0DF2AE0D752
:100A6000010EA7EC0CF031E1720EE66E010ED3EC34
:100A70000FF02BE1ADEC0CF028E1850EE66E010ED7
:100A8000D3EC0FF022E1ADEC0CF01FE1ADEC0CF07B
:100A90001CE1980EE66E010E2DEC0EF068EC0FF0E6
:100AA00014E1AB0EE66E010ED3EC0FF00EE1BE0EBC
:100AB000E66E010E2DEC0EF0D10EE66E010E2DEC61
:100AC0000EF0030EA7EC0CF002E0010E01D0000EB8
:100AD000146E610EE15C02E2E16AE552B7EF0CF0E0
:100AE000E7EC0CF0200E50EC0FF0030EDB6A130E57
:100AF0005EEC0FF0040EF3CFDBFF050E3FEC0CF0C5
:100B0000060EF3CFDBFF070E3FEC0CF0080EF3CF21
:100B1000DBFF090E3FEC0CF00A0EF3CFDBFF0B0EF0
:100B20003FEC0CF00C0EF3CFDBFF0D0E3FEC0CF0A6
:100B30000E0EF3CFDBFF0F0E3FEC0CF0100EF3CFD9
:100B4000DBFF110E3FEC0CF0120EF3CFDBFF130EA8
:100B5000F4CFDBFF5EEC0FF0140EF3CFDBFF150ECE
:100B60003FEC0CF0160EF3CFDBFF170E3FEC0CF052
:100B700017EC0EF03FEC0CF01A0EF3CFDBFF1B0E60
:100B80003FEC0CF01C0EF3CFDBFF1D0E3FEC0CF026
:100B90001E0EF3CFDBFF1F0EF4CFDBFFBAEC0FF01E
:100BA000DBCFEAFF8A0EEE6E300E12EC0EF0BAECDE
:100BB0000FF05AEC0CF0BA0E73EC0EF05FEC0CF088
:100BC0002C0E73EC0EF025EC0CF00A0E73EC0EF00C
:100BD00058EC0EF0280E73EC0EF011EC0DF0BAECA0
:100BE0000FF033EC0CF0BFEC0FF0DBCFEAFFCA0ED6
:100BF000EE6EA40E12EC0EF0BFEC0FF05AEC0CF0FF
:100C0000BA0E77EC0EF05FEC0CF02C0E77EC0EF0D9
:100C100025EC0CF00A0E77EC0EF058EC0EF0280ED6
:100C200077EC0EF011EC0DF0BFEC0FF033EC0CF0A4
:100C3000B4EC0EF0DBCFEAFF800E8EEC0DF0B4ECDE
:100C40000EF05AEC0CF0BA0ED6EC0FF05FEC0CF094
:100C50002C0E53EC0DF00A0E53EC0DF0AFEC0CF033
:100C6000280ED6EC0FF011EC0DF0B4EC0EF033ECD6
:100C70000CF085EC0EF0DBCFEAFFC00EEE6E1B0E23
:100C800043EC0DF085EC0EF0B9EC0EF085EC0EF0B7
:100C9000BCEC0EF085EC0EF025EC0CF0410EEE6E87
:100CA000ED6A85EC0EF058EC0EF0500EEE6EED6A2B
:100CB00085EC0EF04EEC0CF085EC0EF033EC0CF005
:100CC0008AEC0EF0DBCFEAFFFC0EEE6E1B0E43EC5F
:100CD0000DF08AEC0EF0B9EC0EF08AEC0EF0BCECE4
:100CE0000EF08AEC0EF025EC0CF0410EEE6EED6A83
:100CF0008AEC0EF058EC0EF08C0EEE6EED6A8AEC7B
:100D00000EF04EEC0CF08AEC0EF0DAEC0FF0010E67
:100D1000EF6E8FEC0EF0DBCFEAFFE00EEE6E370EDB
:100D200043EC0DF08FEC0EF0B9EC0EF08FEC0EF002
:100D3000BCEC0EF08FEC0EF025EC0CF00A0EEE6E13
:100D4000ED6A8FEC0EF058EC0EF0780EEE6EED6A58
:100D50008FEC0EF04EEC0CF08FEC0EF033EC0CF050
:100D600094EC0EF0DBCFEAFF1C0EEE6E380E43EC77
:100D70000DF094EC0EF0B9EC0EF094EC0EF0BCEC2F
:100D80000EF094EC0EF025EC0CF00A0EEE6EED6A0F
:100D900094EC0EF058EC0EF0B40EEE6EED6A94EC9E
:100DA0000EF04EEC0CF094EC0EF033EC0CF099ECF1
:100DB0000EF0DBCFEAFFEE6A540E43EC0DF099EC37
:100DC0000EF0B9EC0EF099EC0EF0BCEC0EF099ECD4
:100DD0000EF00CEC0FF099EC0EF058EC0EF0780ED3
:100DE000EE6EED6A99EC0EF04EEC0CF099EC0EF014
:100DF00033EC0CF09EEC0EF0DBCFEAFF3C0EEE6E17
:100E0000540E43EC0DF09EEC0EF0B9EC0EF09EEC9F
:100E10000EF0BCEC0EF09EEC0EF00CEC0FF09EEC25
:100E20000EF058EC0EF0B40EEE6EED6A9EEC0EF085
:100E30004EEC0CF09EEC0EF033EC0CF078EC0FF076
:100E4000DBCFEAFF800EEE6E2F0E12EC0EF078EC88
:100E50000FF0E3EC0EF078EC0FF05FEC0CF0690EA5
:100E6000EE6E11EC0FF025EC0CF0280EEE6E11EC8E
:100E70000FF0E1EC0FF011EC0FF011EC0DF078EC4D
:100E80000FF033EC0CF07DEC0FF0DBCFEAFF210E1E
:100E90008EEC0DF07DEC0FF0E3EC0EF07DEC0FF03E
:100EA0005FEC0CF0310EEE6E14EC0FF025EC0CF054
:100EB000320EEE6E14EC0FF0E1EC0FF014EC0FF0CC
:100EC0004EEC0CF07DEC0FF033EC0CF06EEC0FF010
:100ED000DBCFEAFF520E8EEC0DF06EEC0FF0E3EC80
:100EE0000EF06EEC0FF05FEC0CF02E0EEE6EED6A75
:100EF0006EEC0FF00CEC0FF06EEC0FF0E1EC0FF07D
:100F0000ED6A6EEC0FF04EEC0CF06EEC0FF033EC83
:100F10000CF073EC0FF0DBCFEAFFE10EEE6E170E74
:100F2000EE6E070EEE6EEE6A73EC0FF0E3EC0EF071
:100F300073EC0FF05FEC0CF0310EEE6EED6A73ECBB
:100F40000FF025EC0CF0AAEC0DF073EC0FF0E1ECD7
:100F50000FF0ED6A73EC0FF04EEC0CF073EC0FF049
:100F600033EC0CF082EC0FF0DBCFEAFF120EEE6EEA
:100F7000180EEE6E070EEE6EEE6A82EC0FF0E3ECEA
:100F80000EF082EC0FF05FEC0CF02E0EEE6E17EC14
:100F90000FF025EC0CF05E0EEE6E17EC0FF0E1ECAE
:100FA0000FF017EC0FF04EEC0CF082EC0FF033EC7E
:100FB0000CF088EC0CF0EEEC0EF001E0B4D00A0E70
:100FC000DBCFE6FF0B0E2CEC0CF00C0EDBCFE6FFBC
:100FD0000D0E2CEC0CF0DF6A190EDF5C0EE2DDEC7E
:100FE0000EF02CEC0FF001E09ED045EC0FF02CEC55
:100FF0000FF001E098D0DF2AEFD7DF6A190EDF5C2F
:1010000014E2DDEC0EF025EC0EF0190F2AEC0CF0DA
:1010100001E089D045EC0FF025EC0EF0190F2AEC19
:101020000CF001E080D0DF2AE9D77D0E2AEC0CF02D
:1010300001E079D0DDEC0EF0DEEC0FF074E1EEECC7
:101040000EF071E188EC0CF0ADEC0CF06CE19CEC76
:101050000DF0460EDF5C10E244EC0EF00E0EDBCF1E
:10106000E6FF0F0EF9DB100EDBCFE6FF110E33ECBF
:101070000EF059E1DF2AEDD7ADEC0CF054E148EC6D
:101080000DF076EC2DF078EC0FF0DFDBEECF14F006
:10109000EFCF15F0153421E214500008000E15545E
:1010A0001CE278EC0FF0E6EC0EF073EC0FF0E6ECDF
:1010B0000EF082EC0FF0E6EC0EF07DEC0FF0E6ECBB
:1010C0000EF06EEC0FF0E6EC0EF088EC0CF044EC59
:1010D0000EF0140EBFDBD7E026D09CEC0DF0460ED0
:1010E000DF5C1AE244EC0EF01C0EDBCFE6FF1D0EB7
:1010F000B3DB1E0EDBCFE6FF1F0EAEDB120EDBCF27
:10110000E6FF130EA9DB140EDBCFE6FF150E33EC62
:101110000EF009E1DF2AE3D748EC0DF076EC2DF074
:1011200008EC0FF003E0010ED5EC0CF0040EDBCF61
:10113000E6FF050EC9DB060EDBCFE6FF070EC4DBBC
:10114000080EDBCFE6FF090EBFDB0A0EDBCFE6FFA2
:101150000B0EBADB0C0EDBCFE6FF0D0EB5DB0E0E71
:10116000DBCFE6FF0F0EB0DB100EDBCFE6FF110E7C
:10117000ABDB120EDBCFE6FF130EA6DB140EDBCFCC
:10118000E6FF150EA1DB160EDBCFE6FF170E9CDB8C
:10119000180EDBCFE6FF190E97DB1A0EDBCFE6FF4A
:1011A0001B0E92DB1C0EDBCFE6FF1D0E8DDB1E0E31
:1011B000DBCFE6FF1F0E88DB020EDB50146E200E25
:1011C000E15C02E2E16AE552D2D3E7EC0CF0620E98
:1011D00050EC0FF0100ECEDB050E63EC0FF0090E95
:1011E0002EEC0DF0070EDB6A080EDB6A500EF36E74
:1011F0000C0EF3CFDBFF37EC0DF0140E1EEC0FF0EE
:10120000AD0EF36E170E29EC0DF017EC0EF0DB6A45
:10121000120E06EC0EF0F36E1A0EF3CFDBFF1B0E70
:10122000DB6A420EF36E1F0EF3CFDBFF200EDB6A8C
:10123000960EF36E210EF3CFDBFF220EA3EC0EF021
:10124000240ECADB230EF3CFDBFFE00EF36E290E74
:10125000F3CFDBFFB70EF36E2A0E29EC0DF02B0E49
:10126000F3CFDBFF2C0E23EC0FF02F0EF3CFDBFFC1
:10127000300E23EC0FF02D0EF3CFDBFF2E0EDB6ACA
:10128000320EDB6A330EDB6AC80EF36E340EF3CF18
:10129000DBFF350EA3EC0EF0370E9EDB360ED9DBEE
:1012A0003C0EF3CFDBFFB80EF36E3D0ED2DB3E0EED
:1012B000F3CFDBFF3F0E23EC0FF0420EF3CFDBFF4B
:1012C000430E23EC0FF0400EF3CFDBFF410E23EC77
:1012D0000FF0450EF3CFDBFF460EDB6AC80EF36E50
:1012E000470EF3CFDBFF480EA3EC0EF04A0E74DB83
:1012F000490EF3CFDBFF300E59EC0FF0B80EF36E52
:10130000500EA7DB510EF3CFDBFF520E23EC0FF094
:10131000550EF3CFDBFF560E23EC0FF0530EF3CF39
:10132000DBFF540EDB6A500EF36E580EF3CFDBFF7B
:10133000590EDB6AC80EF36E5A0EF3CFDBFF5B0E5D
:10134000A3EC0EF05D0E48DB5C0EF3CFDBFF01017A
:10135000580EE46FB80EE56F080EE66FE76B280EC7
:10136000EA6FEB6BE86FE96B780EED6FEE6BC80E12
:10137000EF6FF06B010EF26FF16FCADA010EE66EDD
:10138000C6EC2BF0E55281EC0EF018DBDF6A510E53
:10139000DF5C4BE2BDDAD950030F90EC0FF0290F60
:1013A0004ADA02EC0FF0E40EE66E010E2DEC0EF0C0
:1013B000D950020F03DBD950070F66EC0EF0020E76
:1013C000EE26000EED22D950030F76DBEE5AEE5AD0
:1013D000EE5A0C0EDB060D0E01E2DB06D950340F7F
:1013E0006BDBED5AD950470F67DBED5AD9505A0FD6
:1013F00063DBED5A0101EF07F05B2F0EDB2A300EA5
:1014000001E3DB2A420EDB2A430E01E3DB2A550E01
:10141000DB2A560E01E3DB2AEA2B000EEB23140E27
:10142000DF2418DA31E1DF2AB2D732DB68EC0FF0C3
:101430002BE1470EDB2A480E01E3DB2A5A0EDB2A9A
:101440005B0E01E3DB2ADF6A050EDF5C1BE202ECC8
:101450000FF0D950160FEFD9100EDF02F350146EB3
:10146000156AFF0ED8801456000E15561450F2D986
:101470000BE1D950160F66EC0EF01D0EC9EC0EF004
:10148000DF2AE2D76ADA02E0010E01D0000E146E04
:10149000620EE15C02E2E16AE55269D298DA3D0E41
:1014A000D3DA200E82DAE70EBFEC0EF0C00EF36E38
:1014B000060EF3CFDBFF320EF36E070EF3CFDBFF2A
:1014C000030E9BDA600EF36E0A0EF3CFDBFF7E0E87
:1014D000F36E0B0EF3CFDBFF030EF36E0C0EF3CFA8
:1014E000DBFF0D0EDB6A0E0EDB6ACA0EF36E0F0E0B
:1014F000F3CFDBFF030EF36E100EF3CFDBFF110E05
:10150000DB6AA00EF36E120EF3CFDBFF0B0EF36E51
:10151000130EF3CFDBFF040EF36E140EF3CFDBFFDD
:10152000150EDB6A400E1EEC0FF04D0EF36E170E1B
:10153000F3CFDBFF040EF36E7ADBDB6A400EF36E53
:101540001A0EF3CFDBFF980EF36E1B0EF3CFDBFF0B
:10155000040E5CDBE00EF36E1E0EF3CFDBFFE30E3A
:10156000F36E1F0EF3CFDBFF040ECADA790EF36EB3
:10157000220E62DB230E60DB240EF3CFDBFF690E4D
:10158000F36E250EF3CFDBFF690EF36E260EF3CF5D
:10159000DBFF780EF36E270EF3CFDBFF780EF36ED2
:1015A000280E4ADB290EF3CFDBFF8ADAD0DB220ECE
:1015B000DB509DEC0FF0A00EAADA330EDB6A340E7E
:1015C000DB6A310EF36E350EF3CFDBFF360EDB6ACE
:1015D000380EB9DB370EF3CFDBFF9AD9DF6A050E81
:1015E000DF5C11E2010EDB6A080E9FDA0AE24BECC7
:1015F0000FF03C0E146E29DB145C93D9010EDB2A2C
:10160000F3D7DF2AECD7DF6A050EDF5C11E2010EAB
:10161000DB6A080E8ADA0AE24BEC0FF0280E1AD9C0
:1016200002E0010E07D0010EDB2AF3D7DF2AECD748
:101630006FD9000E146E3D0EE15C02E2E16AE552E4
:1016400096D1C5D9150E00DAD0DB5A0E27EC0FF073
:10165000500E95D95DD9DF6A050EDF5C1AE2010EE6
:10166000DB6A0A0E62DA12E296EC0FF029DA400E1B
:10167000EE26380EEE22000EEE22EE22500EEAD8B2
:1016800002E0010E08D0010EDB2AEBD7AEDBDF2A29
:10169000E3D73ED9000E146E150EE15C02E2E16A5A
:1016A000E55265D194D9150ECFD9F2D9C00E7DD9A6
:1016B000670E60D9370E31D9A00E9FD94F0EBDD914
:1016C000280E9DDA280E5BD923D9C80E2AD9DF6AE5
:1016D000150EDF5C22E296EC0FF0DF5001E163DBD8
:1016E000DF50120802E2640E01D03C0E1AD9E8D98C
:1016F000500E01DB96EC0FF0DF50120802E2640E90
:1017000001D03C0E0ED9DCD9B00EEE26630EEE22CF
:10171000000EEE22EE22DF2ADBD7DBEC00F0150E06
:10172000E15C02E2E16AE552E16E84D350D9160E23
:10173000E126AED9E00E1ED9430EC5DB2C0E8ED9A4
:10174000A00E10DA0C0EDB6A92D9E66AD3EC2BF00D
:10175000E552DF6A040EDF5C04E2DFCFE6FFABDABE
:10176000F9D721DBDF6A040EDF5C03E2C4EC0FF083
:10177000FAD7DF6A130EDF5C0FE2D950030FD0DB1C
:10178000030FA4DAEE52960EEE26000EEE22EE22A3
:10179000640EC7D8DF2AEED7DF6ADF50146E156AF1
:1017A000D890155004E6FF0E145C000E15581EE28A
:1017B000FBEC47F0DE52F3CFDEFFF4CFDDFFDD526E
:1017C000010EDBCFE9FF020EF5DBEF500BE0DFCFC0
:1017D000E6FFE66A2BEC65F0E552E552C80EA1D8AB
:1017E000000E05D0640E9DD8DF2AD7D7010E146EE7
:1017F000160EE15C02E2E16AE552B9D049D9020E67
:10180000E66E6FEC5BF0E55279EC64F0F3EC00F01F
:10181000000910E13AEC03F000090CE170EC05F06E
:10182000000908E1D2DC000905E138DE000902E127
:1018300008DF00091200E66E000EDA202DEF0EF030
:1018400091DB2E0E58DA62EF0EF0DBCFEAFF090EC5
:10185000CFEF0EF0E66E81D3DBCFE6FFB3EC63F0A3
:10186000E552E5521200DBCFEAFF0D0E98DA010EC9
:10187000EF6E120077DB5C0E8CDA62EF0EF0F4CFC5
:10188000DBFF130E5EEF0FF014DB020EF36EC3EFFF
:101890000EF0000EE66E010E2DEF0EF0DBCFEAFF2C
:1018A0000E0E7DDA010EEF6E1200DBCFEAFFA00E06
:1018B0007BEF0EF0DBCFEAFF060ECFEF0EF0DBCFB3
:1018C000EAFF040ECFEF0EF0DBCFE6FFB6EC64F0DC
:1018D000E552E5521200D950020F146EDACF15F01E
:1018E000010EDB50040D1450F324E96EDA50F4209D
:1018F000EA6E2DDAD950220F146E010EDB500F0163
:101900001424E96E000EDA20EA6EEF509DEF0FF01E
:10191000E66A88EC00F0E5521200D5DA050EDB6AC3
:101920001200E66E63EC5BF0E5521200260EE66EE6
:10193000010E93D9390EE66E010E8FD94C0EE66E6C
:10194000010E8BD95F0EE66E010E2DEF0EF0E66EE6
:10195000A5EC5BF0E55200091200E668FED2020E2B
:10196000CFEF0EF0130EE66E010E2DEF0EF0E16ECE
:10197000145060D2F36E030EF3CFDBFF1200F36E50
:101980000D0EF3CFDBFF0E0EDB6A100EDCD90F0E4F
:10199000F3CFDBFF1200146E010EDBCFE7FF145014
:1019A000E726010EE7CFDBFF1200F36E020EF3CF46
:1019B000DBFF120043DA020E3EEF0FF0E66E000E80
:1019C000DA20E66ED8EC2BF0E552E5521200D9CFC2
:1019D000E6FFE1CFD9FF1200F3CFDBFF010EF36E7C
:1019E0001200C0DA2E0ED5D962EF0EF0F36E520E51
:1019F000F3CFDBFF530EDB6A1200F36E080EF3CF5A
:101A0000DBFF090EDB6A1200F36E4E0EF3CFDBFF35
:101A1000120001010027090E0123000E02230323F7
:101A20001200DBCFEAFF0E0EBAD9EF6A12000101F5
:101A3000E00E006F130E54EF0FF0F36E060EF3CFAF
:101A4000DBFF070EDB6A1200E126DF6A010EDB6AAC
:101A50001200F3CFDBFF080EF36E120003DAF00E74
:101A6000F36E090EF3CFDBFF0A0EDB6A12000D0ED8
:101A7000DB6A0E0EDB6A0F0EDB6A110E64D9100EE4
:101A8000F3CFDBFF1200EE6E0B0EEE6EEE6A12006D
:101A9000E66AC6EC2BF0E5521200D950150F16D9A4
:101AA000200E7BEF0EF082DADAEF0FF0800EF36E8D
:101AB000010EF3CFDBFF120009D9EE06000E120073
:101AC000D950020F66EF0EF0F36E540EF3CFDBFF2A
:101AD000550EDB6A1200F36E570EF3CFDBFF580E84
:101AE000DB6A1200F36E590EF3CFDBFF5A0EDB6A8E
:101AF0001200136F7D0E146F020E156F166B12001D
:101B0000F36E200EF3CFDBFF210EDB6A1200F36EC3
:101B10002E0EF3CFDBFF2F0EDB6A1200EE6E420EAD
:101B2000EE6E060EEE6EEE6A1200F36E010EDBCF65
:101B3000F4FFF350F45C1200010EE66EC6EC2BF0DD
:101B4000E55276EC2DF0DF6A1200F36E150EF3CF3E
:101B5000DBFF12002D0EEE6EED6A12003C0EEE6EF3
:101B6000ED6A1200F36E070EF3CFDBFF080EDB6A9F
:101B70001200F36E190EF3CFDBFF1A0EDB6A1200B0
:101B8000F36E1E0EF3CFDBFF1F0EDB6A1200F36E47
:101B90002C0EF3CFDBFF2D0EDB6A1200F36E310E3D
:101BA000F3CFDBFF320EDB6A1200F36E330EF3CF9E
:101BB000DBFF340EDB6A1200F36E3D0EF3CFDBFF6A
:101BC0003E0EDB6A1200F36E410EF3CFDBFF420ED6
:101BD000DB6A1200F36E3F0EF3CFDBFF400EDB6AD1
:101BE0001200F36E440EF3CFDBFF450EDB6A1200EA
:101BF000F36E460EF3CFDBFF470EDB6A1200F36E87
:101C00000B0EF3CFDBFF0C0EDB6A1200F36E1C0E23
:101C1000F3CFDBFF1D0EDB6A12000B0EDB6A0C0E2E
:101C2000DB6A1200EE6E050EEE6EEE6A1200180E02
:101C3000F3CFDBFF190E1200F3CFDBFF790EF36E4B
:101C40001200960EEE6EED6A1200040EDF02F350E3
:101C50001200D9503B0F1BEF0CF0E66EB3EC63F0B3
:101C6000E552E5521200F8DD43D91FDE46D91DDEEC
:101C700035D91BDE38D919DE45D917DED950030F07
:101C80009DDE820E2AEF0CF0160EDBCFE6FF170E5C
:101C9000E3DD180EDBCFE6FF190EDEDD1A0EDBCF1B
:101CA000E6FF1B0E2CEF0CF0C6DD190E2AEF0CF030
:101CB000CCDDAFEF0CF088EC00F0E552320E31DEF7
:101CC000DF2A1200010EDBCFE6FF47D1E96EDACF43
:101CD000EAFF1200D950280F23D9150F1BEF0CF083
:101CE00079D949EF0CF0EE6EED6ABAEF0FF0EE6EB7
:101CF000ED6ABFEF0FF0EE26000EEE22EE22EE228E
:101D0000120006DED950020F12000A0EDBCFE9FFE7
:101D10000B0E12000C0EDBCFE9FF0D0E12000E0EA3
:101D2000DBCFE9FF0F0E1200100EDBCFE9FF110E23
:101D30001200120EDBCFE9FF130E1200140EDBCFE0
:101D4000E9FF150E1200DB6A010EF36E12002A0E77
:101D5000EECFDBFF2B0EEECFDBFF2C0EEECFDBFF4B
:101D60002D0EEECFDBFF1200080EDBCFE9FF090ED0
:101D70001200A0DDAAEF0DF0A2DDAEEF0DF0FADD4E
:101D8000020E8DEF0CF0500EF3CFDBFF510EDB6A2D
:101D90001200EE5E000EEE5AEE5AEE5A1200E926DE
:101DA000000EEA221200FA0EBCDDFA0E91EF0CF0E2
:101DB000C00E2ADECE0E44EF0CF0060EDBCFE6FF9F
:101DC000070E2CEF0CF076DD21EF0EF03EDDEE0677
:101DD000ED5A1200A8D8050E2AEF0CF0040EDBCF46
:101DE000E6FF050E39DDDEEF0FF0400EDEDD110EF1
:101DF000C1DD0E0E8DEF0CF0D8DDB10EBBDD0A0E8D
:101E00008DEF0CF0D9503C0F8BD84F0F1BEF0CF01F
:101E10007FDD010EA7EF0CF018DD630EEE6EED6AAC
:101E20001200ED6A78EF0FF0ED6A7DEF0FF0ED6ACA
:101E300082EF0FF0E552E7CFD9FF1200F36E160ED6
:101E4000F3CFDBFF1200DB6A280EF36E1200D5DD44
:101E5000A00EF3DD0DEF0EF07D0E146EF6DE145CB9
:101E60002AEF0CF0F36E050EF3CFDBFF060EDB6AF4
:101E70001200A00E6ADE6C0EDAEF0CF0F36E170E95
:101E8000F3CFDBFF180EDB6A1200080EDBCFE6FF94
:101E9000090E2CEF0CF0D9502A0FCDDC6BEF0CF0B3
:101EA000D3DD020EDB6A1200016F070E026F036BB7
:101EB0001200F36E4F0EF3CFDBFF1200E66EA8ECBC
:101EC00064F0E5521200F36E040EF3CFDBFF120054
:101ED000020EA7EF0CF0BDDE20EF0CF01A0EDBCFE8
:101EE000E9FF1B0E12001C0EDBCFE9FF1D0E1200D6
:101EF000160EDBCFE9FF170E1200180EDBCFE9FF3D
:101F0000190E12001E0EDBCFE9FF1F0E12008FDD2F
:101F1000E00E7ADD210EF36E4F0E9BDDC3EF0EF067
:101F20008ADCD9501200B5DCEAEF0FF0D950020F6D
:101F30001BEF0CF08EDE3AEF0CF0E66ED950300F4E
:101F4000C5DEE552E750EE6EED6A12000101C00EEB
:101F5000006F060EA9DFD8EF0EF082EC5BF0E552C1
:101F600000091200D9503B0F66EF0EF0D9504E0F0A
:101F700054EF0EF0040EDBCFE9FF050E1200060E43
:101F8000DBCFE9FF070E1200030ED880DF54E66EA8
:101F90005BEF0EF0F4DEB5DE1BEF0CF0176F186B85
:101FA000E1DC29EF0EF059DEADEF0CF0EE6EED6ADC
:101FB000B4EF0EF0DBCFEAFFCFEF0EF0C80E2AEF42
:101FC0000CF076DEEE6A12009CDEAADF150FA8DFA9
:0C1FD000280F1200D9504E0F1BEF0CF030
:041FDC0002010051AD
:101FE0000AE10F01020E046FE40E026F980E036FF8
:101FF0000201010E006F000E146E0F0E4BEF17F072
:10200000020101510AE10F01030E096FF60E076F7D
:10201000980E086F0201010E016F050E146E0F0E6F
:102020004BEF17F0020102510AE10F01010E0E6F92
:10203000110E0C6F990E0D6F0201010E026F0A0E48
:10204000146E0F0E4BEF17F0020103510AE10F015E
:10205000030E136F1A0E116F990E126F0201010E0B
:10206000036F0F0E146E0F0E4BEF17F002010451A9
:102070000AE10F01030E186F350E166F990E176FD8
:102080000201010E046F140E146E0F0E4BEF17F0C9
:10209000020105510AE10F01020E1D6F500E1B6F68
:1020A000990E1C6F0201010E056F190E146E0F0EB2
:1020B0004BEF17F0020106510AE10F01010E226FEA
:1020C000620E206F990E216F0201010E066F1E0E27
:1020D000146E0F0E4BEF17F0020107510AE10F01CA
:1020E000010E276F6B0E256F990E266F0201010EF0
:1020F000076F230E146E0F0E4BEF17F002010851FD
:102100000AE10F01020E2C6F740E2A6F990E2B6FCD
:102110000201010E086F280E146E0F0E4BEF17F020
:10212000020109510AE10F01100E316F860E2F6F67
:10213000990E306F0201010E096F2D0E146E0F0EF5
:102140004BEF17F002010A510AE10F01060E366F3C
:10215000160E346F9A0E356F0201010E0A6F320EA1
:10216000146E0F0E4BEF17F002010B510AE10F0135
:10217000060E3B6F4C0E396F9A0E3A6F0201010E3C
:102180000B6F370E146E0F0E4BEF17F002010C5150
:102190000AE10F01060E406F820E3E6F9A0E3F6FEE
:1021A0000201010E0C6F3C0E146E0F0E4BEF17F078
:1021B00002010D510AE10F01030E456FB80E436F86
:1021C0009A0E446F0201010E0D6F410E146E0F0E38
:1021D0004BEF17F043EC18F0030EB2EC17F0A8EC3D
:1021E00017F0F70EF3CFDBFFF80EF4CFDBFFB5EC03
:1021F00017F0A8EC17F0F50EF3CFDBFFF60EF4CFD7
:10220000DBFFDF6AF40EDB50DF5C35E2040E1EEC10
:102210001AF0DE528EEC19F0DD52D950F90F5AEC5B
:1022200019F0BCEC17F0ECEC35F01FEC19F012ECE7
:1022300017F0F350EE261550ED2212EC17F0020EB7
:1022400077EC19F0F350EE261550ED22E66AB5EC66
:1022500017F075EC17F0F350E66EBCEC17F0BCEC21
:102260004DF06AEC18F003EC17F0CFEC16F043ECED
:1022700017F0DF2AC7D7030EE15C02E2E16AE552FC
:10228000FAEF16F093EC19F0F6EC17F0560EE66E36
:10229000C40E5AEC18F056DF11EC18F002E2E16AB5
:1022A000E552FAEF16F093EC19F0060EF6EC17F083
:1022B000740EE66EC40E5AEC18F056DF11EC18F0EE
:1022C00002E2E16AE552FAEF16F093EC19F0060E1D
:1022D000F6EC17F0860EE66EC40E5AEC18F056DFD8
:1022E00011EC18F002E2E16AE552FAEF16F043EC65
:1022F00018F0060EE126050E1EEC1AF0040EF3CFC0
:10230000DBFF050EF4CFDBFF84EC19F0C3EC17F014
:10231000E1EC19F0040E8FEC18F089EC19F0E66A84
:102320001E0EB5EC19F03FEC18F0E66EE66AE66EAC
:10233000E66A01EC1AF0020EDAEC16F0A9DE95EC72
:1023400018F02EEC58F01C6E090EE15E1C509FEC4C
:1023500018F084EC19F02EEC1AF0E1EC19F0C3EC53
:1023600017F0E3EC16F043EC17F0ECEC18F0CAECC5
:1023700017F0060EE15C02E2E16AE552FAEF16F0B0
:1023800024EC19F0030EE7EC17F09BEC18F0020EAA
:10239000E15C02E2E16AE552FAEF16F0B0EC19F006
:1023A000640EEFEC18F0D890F45004E60A0E145CBA
:1023B000000E15580FE2010EEFEC18F0F350F41078
:1023C00004E1E5EC19F05EDF03D0E5EC19F07DDF08
:1023D0004FEC17F0020EE15C02E2E16AE552FAEF1F
:1023E00016F0B0EC19F0E5EC19F05DDF4FEC17F0EA
:1023F000020EE15C02E2E16AE552FAEF16F047EC08
:1024000017F0060EE66E020EE7EC17F0030EE66E0E
:10241000E3EC17F00F0EF2EC17F0C3EC18F0DADE75
:10242000ADEC17F09BEC18F0020EE15C02E2E16A01
:10243000E552FAEF16F043EC18F062EC17F050EFAB
:1024400018F043EC18F0050ECDEC18F050EF18F032
:1024500043EC18F00A0E08EC19F0020E06C0DBFF80
:10246000030E07C0DBFF040E08C0DBFF050E66ECA1
:1024700017F0060E06C0DBFF070E07C0DBFF080ED5
:1024800008C0DBFF090E09C0DBFF040EDBCF14F030
:10249000050EDBCF15F0080EDBCF16F0090EDBCFF3
:1024A00017F015501718E8AE02D0173404D01650A4
:1024B000145C175015581FE248EC18F0040EE66E35
:1024C000D950060FC8EC18F0D950020FC8EC18F01C
:1024D000CEEC17F085EC18F0EDDDF3CF1BF0F4CF68
:1024E0001CF097EC19F010EC5AF01D6E0D0EE15E29
:1024F0001D5007EC18F00A0EE15C02E2E16AE552B9
:10250000FAEF16F043EC18F00C0E08EC19F0D1ECD1
:1025100018F066EC17F0080E06C0DBFF090E07C0C6
:10252000DBFF0A0E08C0DBFF0B0E09C0DBFF040E49
:102530005CEC17F0040EE66ED950080FC8EC18F0EA
:10254000D950040FC8EC18F01BEC38F0166E090EC9
:10255000E15E16500CEC17F0040EEEEC19F0060ECE
:10256000DBCF18F0070EDBCF19F00A0EDB50185C3A
:10257000166E0B0EDB501958176E16C0E6FFE66E8E
:10258000A8EC17F003EC17F0040EDBCF1EF0050EDD
:10259000DBCF1FF0080EDB501E5C1C6E090EDB50FB
:1025A0001F581D6E1CC0E6FFE66EA8EC17F0E55242
:1025B000E7CF15F0E552E7CF14F0F3CF1AF0F4CFE0
:1025C0001BF0F4501518E8AE02D0153404D01450A6
:1025D0001A5C15501B580BE248EC18F02DEC17F064
:1025E00085EC18F08BDD54EC17F007EC18F00C0EAE
:1025F000E15C02E2E16AE552FAEF16F047EC17F00F
:1026000048EC18F0E66E050EE66E09EC5BF0E5525C
:10261000E55285EC18F084DD54EC17F007EC18F067
:10262000020EE15C02E2E16AE552E4D339EC17F014
:10263000040EE66E5DEC45F03CEC18F09CEC19F0F5
:10264000B9EC5DF03FEC18F0E66A420EE66E240E3F
:1026500033EC19F0030E28EC19F0AADD54EC17F056
:102660009FEC18F0D950F70F5AEC19F02EEC1AF035
:102670008FEC17F0ECEC18F08BEC17F0040EE15C2B
:1026800002E2E16AE552B6D3B1DBFA0EE66EE66A23
:10269000DCEC18F091EC59F0E552E5523CEC18F006
:1026A000E66A010EB5EC19F03FEC18F02C0EBBEC0D
:1026B00019F0040EE66E250EEEEC17F0040EA4ECF5
:1026C00019F0C2DC28EC1AF002E2E16AE55292D37A
:1026D0008DDB89EC19F093EC17F06EEC5CF03FECBD
:1026E00018F0900E12EC1AF0A0EC19F0800EE66EC5
:1026F000230EBEEC19F0FDEC18F0EEDCF8EC19F04E
:1027000002E2E16AE55276D30CEC1AF08CEC18F098
:1027100065EC19F002E2E16AE5526CD30CEC1AF0B8
:10272000A0EC19F0E20EE66E230EE66E65EC19F0F1
:1027300002E2E16AE5525ED3B0EC18F05DEC45F0E0
:1027400038EC19F002E2E16AE55254D3B0EC18F02B
:1027500009EC5BF038EC19F002E2E16AE5524AD389
:1027600088DB030EE66E4AEC19F0FE0EE66E230ED1
:10277000E66E2C0EE66E260EEEEC17F0050E28EC3B
:1027800019F050DC28EC1AF002E2E16AE55232D38B
:102790002DDB89EC19F0900E12EC1AF03FEC18F0DA
:1027A000D3EC4FF0BDEC18F0040E14DBEE0EE66E29
:1027B000220EBEEC19F0040EA4EC19F057DCF8EC74
:1027C00019F002E2E16AE55215D343EC18F0080E65
:1027D000C9DBF60EDB5003E0A00E146E01D0146AC4
:1027E000156A14C0E6FF15C0E6FF7DEC64F06AECE4
:1027F00018F0D1EC18F009C0DBFF060E8FEC18F0D2
:1028000007EC1AF0F40EBBEC19F018EC1AF0E66EB7
:10281000D950040FC8EC18F023EC1AF096DBD3DA89
:102820007DEC64F06AEC18F006C016F007C017F0F3
:1028300008C018F009C019F0F4EC18F0AFDBBDECDB
:1028400018F0A8EC19F02EEC1AF0A9DA9CEC27F09D
:102850006AEC18F0080EE15C02E2E16AE552CAD2C5
:1028600008DBF80EDBCFE6FF5DEC45F03CEC18F042
:1028700007EC1AF05BDB1A0EE66EBD0EAFDB010E45
:1028800028EC19F000EC10F07BEC19F0020E44EC8F
:1028900019F00E0E77EC19F0140EEE6EBD0EED6E03
:1028A000CDDBB1DB02E2E16AE552A4D2F0DAF80E48
:1028B000DB5003E0DE68DD6803D0010EDE6EDD6A0A
:1028C000DDDA00DB80DA6BDA80DF146E090EE15EA0
:1028D0001450D4DA30DBDECF16F0DDCF17F0190E4E
:1028E0006FEC18F0CBDA06DBDECF16F0DDCF17F099
:1028F000320E6FEC18F0020EE15C02E2E16AE55282
:1029000079D2C5DAFA0EDB5004E0010EDE6EDD6A24
:1029100002D0DE68DD68020EE15C02E2E16AE552A7
:1029200069D2B5DAFA0EDB5004E0010EDE6EDD6A24
:1029300002D0DE68DD68020EE15C02E2E16AE55287
:1029400059D2A1DBA6EC18F025DB6EEF19F09BDB6A
:10295000A6EC18F0ABEC27F0BDDB6EEF19F093DBC3
:10296000FB0EDBCF08F0FC0EDBCF09F0E10E081800
:1029700002E1080E091801E1D3D1D00E081802E1D6
:10298000070E091801E1BDD19E0E081802E1070EDD
:10299000091801E1A7D1850E081802E1070E0918F0
:1029A00001E199D16C0E081802E1070E091801E146
:1029B0008FD1530E081802E1070E091801E180D1EA
:1029C0003A0E081802E1070E091801E170D1080E4D
:1029D000081802E1070E091801E165D1D60E0818A2
:1029E00002E1060E091801E151D1A40E081802E116
:1029F000060E091801E134D16B0E081802E1060E2B
:102A0000091801E122D1400E081802E1060E09184A
:102A100001E111D1CB0E081802E1050E091801E100
:102A200003D1960E081802E1050E091801E1F0D055
:102A3000140E081802E1050E091801E1D4D0B00EF9
:102A4000081802E1040E091801E1BED07E0E081834
:102A500002E1040E091801E1B3D0FC0E081802E1EE
:102A6000030E091801E19CD0F90E081802E1030ECB
:102A7000091801E192D0B60E081802E1030E0918F8
:102A800001E188D0840E081802E1030E09186BE0FA
:102A9000200E081802E1030E091861E0BC0E0818A8
:102AA00002E1020E091855E08A0E081802E1020E32
:102AB00009184BE0580E081802E1020E091839E017
:102AC000260E081802E1020E091830E0F40E08186C
:102AD00002E1010E091823E0900E081802E1010E30
:102AE00009181AE02C0E081802E1010E09180CE072
:102AF000FA0E081801E01FD1095001E01CD1030EA5
:102B00004CDBE0D9640E59D09CEC19F0F60EE66E61
:102B1000E66845D9DDDD8CD0D5DA2D0EE1D0020E88
:102B2000B8EC19F06E0EC3DB870EDAD0FCD90A0EB2
:102B3000FAD0030EE66EDED93C0E54DA61DBC2D960
:102B40004B0EC4EC19F05A0ECBD0020E55D9500ED4
:102B5000E2D0E66A780EE66EE66A8C0EB7D0010E19
:102B6000E66EB40EB0D0010EE66EF00EE66EE66ACA
:102B7000E2D915D99BDE27DB010EE66EF9DBFB0EF1
:102B8000E66EE6680CD9DBD9CED9280EE66EE66A89
:102B90006E0E13D097DA230EA3D0CEDB160E46D0DE
:102BA000E66A780EE66EE66A8C0EE8EC19F00BDB4E
:102BB000E66A010EE66E07DA820E14DAC8DEB7D0D6
:102BC000020ED6DBCADB0BD0020EE66EB4D944DBB4
:102BD000B3DD1BDB500EEBEC19F0F5DA020EE66EFE
:102BE000AAD9820E8CD0030ED8DA6CD9780EFAD915
:102BF000A6D9010EE66EF00EE66EE66A000EE8DB80
:102C00002BEC1AF0A00EA9DBE66EDDD98C0E77D086
:102C100093DB280EE7D9BCDD12DB21DB500EB8DBDD
:102C2000690E45DB820E5CD087DB760EDBD9B0DD2A
:102C3000146E060E7ED0030EDFD80EDBC9DADCD8A8
:102C4000190E8BDBD9D8280E5AD009DBBCD9A7D8EE
:102C50005BDDDBDA460EC6D957DDD1D81E0E12D0A9
:102C60004B0EE66EE66A46D9F7DAA6D94B0EE66E4B
:102C7000E66A28D9820EB6D99FD98DDB45DDF6D814
:102C8000E66E280EE66EE66A5A0E17D0040EE66E61
:102C9000010EB2D8A7D953D9020EAED8500EA2D980
:102CA000C4DA640E0AD077DBC5DA780E06D0020EDD
:102CB000A3D85A0E97D9BEDA410E94D925DD2DD06E
:102CC000010EE66E4B0EE66EE66A140E81DB25D031
:102CD000F9D9280E05D0030E4BDB500E55DB640EE0
:102CE000A4DB1BD0030E88D83C0E7CD99EDA8C0E58
:102CF00034DB3EDB780E6FDB82D81DD9640E6BDBD4
:102D00000CD0ADDA3C0E44DB4B0ED1DA5A0E8DDB23
:102D100076D859D9490E66D901DD146E070E09D04F
:102D2000040E3BDA000EE66EE66A5CD90ADE146E2B
:102D3000080EE15E1450D2D2A6D9E6D806D986ECA8
:102D400062F0E552E552E0D8060EEB6A070EEB6A38
:102D5000C5D20201DE5106E1380E0E6F2D0E0F6F47
:102D6000010EDE6FE9DA29EC46F0E552E552F3CFC9
:102D700010F2F4CF11F20E0E146E020E156E8BD0FF
:102D8000BADA1EEF18F0E552E55206C014F007C09B
:102D900015F008C016F009C017F0F4EF18F0FD0E9A
:102DA000DBCFE6FFFE0EDBCFE6FF1200E552E55279
:102DB000BDEF18F0E66E96DAF9EC48F0E552E55210
:102DC000E55285EF18F0FB0EDBCFE6FFFC0EDBCF04
:102DD000E6FF12008CDAA8EF19F0EECFE6FFEECF97
:102DE000E6FFEECFE6FFEFCFE6FF12009CDA060E1D
:102DF0008FEF18F0E16E72D2E66E9CEF19F0E3D916
:102E0000020EE66E12005CDA97EF19F09CEC27F0E8
:102E100061D9040EE15C120053DA020E35DA98DA59
:102E2000E66A1200C9D9F70EDBCF16F0F80EDBCF39
:102E300017F0166C171E000E172216C0E6FF17C0FB
:102E4000E6FFDBEC60F046D93BDA010EDBCFE9FFB1
:102E5000020EDBCFEAFF77EF19F0020EE66E21DA01
:102E6000F9EC48F0E552E552E5521200ACD9030EF8
:102E7000120059DA54D9010EE66E1200F80EDBCFBB
:102E8000E6FFD0EF19F099EC27F06AEF18F0FBD8C5
:102E9000020EE126120014C0F3FFF46E1200186E49
:102EA000060EE15E1850120040D910EC5AF01C6E6C
:102EB0000D0EE15E1C501200E66EA8EC64F0E552C7
:102EC0009FEF18F00A0EE66EE66A120009C0DBFFFB
:102ED000FB0EDBCFE9FFFC0EDBCFEAFF110E9FD923
:102EE0006DEC35F0E552E552120026DADBEC60F0CD
:102EF0006AEF18F01E0EE66EE66A1200B1EC27F0DB
:102F0000E9D8040EE15C1200FD0EDBCFE9FFFE0EF6
:102F1000DBCFEAFF1200A6EC27F06AEF18F0FCEC1A
:102F200035F01FEF19F0020ECDEF18F09C0EE66E93
:102F3000230EE66E1200140EE66EE66A120001DD44
:102F4000146E080EE15E14501200020E0FEF19F01D
:102F50002EEC61F0E552E5521200186E0B0EE15EA8
:102F600018501200E126DCEF18F0F50EDBCFE6FF7B
:102F7000F60EDBCFE6FF1200010EDBCFE6FF020EFE
:102F8000DBCFE6FF1200040EDBCFE6FF050EDBCF42
:102F9000E6FF1200AEEC27F06AEF18F01BEC38F0F9
:102FA0001A6E090EE15E1A501200E5EC13F0186E6D
:102FB000090EE15E1850120044EC13F0146E080E76
:102FC000E15E14501200320EE66EE66A12004BD932
:102FD000F4D9A4D999D986D9E1EF19F00DDFF3DE40
:102FE00001EF1AF0E66EE66ACFEF16F065DF010E2C
:102FF000E66E020EE66E09EC5BF0E552E5520CDF80
:10300000070EEEEF19F04DD9CADE06EF17F086D99C
:10301000D950F70F4FD966D982DF64D9D4DE8BEF50
:1030200017F0F3CF16F0F4CF17F081D9E0EC5CF095
:1030300094DF74D957D9B3DE7EEF17F00FDA55EC71
:1030400035F0E552E552F3CF16F0F4CF17F0166CD9
:10305000171E000E1722F90EDB50165C146EFA0EC6
:10306000DB501758156EEFD9020E41D914C0EEFF90
:1030700015C0EDFF020E120099DEA8EF19F096DEE2
:10308000020EEAEF16F0D9CFE6FFE1CFD9FF12002A
:10309000E66A360EE66E240EE6D8010EE66E1200E3
:1030A00033DF020E24D999DEAAEC50F080D978D90A
:1030B000EADE14D1E66ED950F90FFCD8CEDEA3DEDD
:1030C000E66A1200020E54D936DF69DEA6EC13F070
:1030D0002BEF1AF0E552E552E552E55212001702C5
:1030E000F3CF17F01602F3CF16F0F4501726FB0EAD
:1030F000DB50F324146EFC0EDB501720156E14C049
:10310000E6FFE66E4CDED5EF17F0F3CF18F0F4CF04
:1031100019F00DD9E66A120013D996EF17F0E66E92
:10312000A8EC64F0E5528EEF19F0F3CF1AF0F4CF6B
:103130001BF097EF19F0D6D846DE43EF17F0020EDA
:10314000F3CFDBFF030EF4CFDBFF1200F70EDBCF74
:10315000E6FF94DE38DED7EC4AF029D9CFEF16F03F
:1031600045DE010EE66EF80EDBCFE6FF1200010E23
:10317000EBD800EC10F0C0EF16F0A2D8DECFE9FFDC
:10318000DDCFEAFF12006DEC35F0FDDDE3EF16F068
:10319000E96EDACFEAFFEDEF16F0E66E010EE66EAD
:1031A0001200040E06C0DBFF050E07C0DBFF060E93
:1031B00008C0DBFF070E1200F70EDBCFE6FFF80EAC
:1031C000DBCFE6FF1200146E070EE15E1450120012
:1031D0009CEC13F036EF17F041D9E3EF16F0E66EF2
:1031E000E66A83DE60EF19F006C0E6FF07C0E6FF7F
:1031F00008C0E6FF09C0E6FF1200020EA4EF19F0B6
:10320000A6EC13F033DEE66E1200F9DD62EF17F084
:10321000E126C5DD87EC35F0E552E552120067D8AE
:10322000EECFE6FFEFCFE6FF120084EC13F0E7DD10
:103230009BEF17F084EC13F019DEFCEF16F0146E20
:10324000060EE15E1450120022DE040EE66E12003D
:10325000E66E020EDAEF16F035DECFEF16F0020E54
:10326000E66E7AEF17F0C8DDE66EE66A01EF1AF057
:1032700003DFCDD8200EE66E030EE66E0BEC4FF0AA
:103280004BDFD6D803EF18F0DBCFE9FF030EDBCF1F
:10329000EAFF120009EC5BF0EFDE2C0EC3D83FEF23
:1032A00018F0DBCFE6FF030EDBCFE6FF1200BDD840
:1032B0002BEF1AF0E96EFF0EDA20EA6EEDEF16F052
:1032C000F3CF14F0F4CF15F01200040EE66E250EC5
:1032D00085DE93DFEEEC0FF028EF1AF0E552E7CF32
:1032E000D9FF1200DECFE6FFDDCFE6FF1200E926B0
:1032F000000EEA22120019DF8CEC51F01C6E0E0E4B
:10330000E15E1C509FEF18F04ADD6DEC35F0C3EF25
:1033100016F009DE09EC5BF03CEF18F0F3CFDEFFAE
:10332000F4CFDDFF1200AFDE040EE1261200F3CF72
:10333000E6FFF4CFE6FF1200000EE66EE66A12002A
:1033400035DD040EEAEF16F0E66E030EDAEF16F046
:10335000F3CFEEFF15C0EDFF120044DEE8EF18F0EA
:1033600073DF010E34DE9BEF18F0E66E0BEF60F0BA
:10337000E66E62EF17F056D88CEF18F0E66E500E3E
:10338000E66E240EEEEF17F02DDE3ADF7AEF17F03F
:103390004CD805EF19F0020E2FDD280EF2EF17F0D2
:1033A000F90EDBCFE6FFFA0EDBCFE6FF1200166E5A
:1033B000060EE15E165003EF17F0AAEC50F04FEF47
:1033C00017F0ECEC35F04FEF17F0E9DCC3EF18F035
:1033D00009DE56EF14F006DE9CEF13F0C6DFE5526F
:1033E000E5526EDF020EE76E4FDFE750EAEF16F0B0
:1033F000C7DC4ADF130E7BDF010EEF6E020E03EF18
:1034000018F07DEC64F0E552E552C3EF16F0DBDC1A
:10341000B9EC5DF03FEF18F0A3DE3CDFE66A030E87
:10342000B5EF19F0BADEF4EF5EF0DCDDA6EF13F0D5
:10343000FC0EE66E250ED2DDB7EF18F0E66E010E3B
:1034400012DFDDEF19F0020E1FDF020E77EF19F029
:1034500097DC03EF18F0D3DC7AEF17F0020E51EF90
:0234600019F061
:0E3462000101F7510AE10F01030E4A6F1A0E25
:10347000486FB10E496F0101010EF76F460E146ED1
:103480000F0ED5EF1FF00101F8510AE10F01010EF7
:103490004F6F350E4D6FB10E4E6F0101010EF86F7B
:1034A0004B0E146E0F0ED5EF1FF00101F9510AE11A
:1034B0000F01010E546F3E0E526FB10E536F01019A
:1034C000010EF96F500E146E0F0ED5EF1FF00101B3
:1034D000FA510AE10F01010E596F470E576FB10EF5
:1034E000586F0101010EFA6F550E146E0F0ED5EFD5
:1034F0001FF00101FB510AE10F01010E5E6F500E3A
:103500005C6FB10E5D6F0101010EFB6F5A0E146E00
:103510000F0ED5EF1FF00101FC510AE10F010B0E58
:10352000636F590E616FB10E626F0101010EFC6F86
:103530005F0E146E0F0ED5EF1FF00101FD510AE171
:103540000F01060E686FBC0E666FB10E676F01014A
:10355000010EFD6F640E146E0F0ED5EF1FF001010A
:10356000FE510AE10F01010E6D6FF20E6B6FB10E8D
:103570006C6F0101010EFE6F690E146E0F0ED5EF18
:103580001FF00101FF510AE10F01100E726FFB0ED7
:10359000706FB10E716F0101010EFF6F6E0E146E30
:1035A0000F0ED5EF1FF0B3EC20F0090EE8EC20F081
:1035B000140EE8EC20F0120E88EC1FF0E7EC1FF080
:1035C000BCEF1FF069EC21F0070EE66E040E83ECF1
:1035D0001FF0AAEC50F03AEC20F0FFEC20F09FEC4A
:1035E0001FF06DEC35F0E552E5521DEC21F09EEC3C
:1035F00020F0B6EC20F0ECEC35F03AEC20F0B6EC34
:1036000020F0FB0EDBCFE6FFFC0E01EC20F075ECAA
:103610001FF01E0E31EC21F0000806E275EC1FF0E1
:103620001E0E88EC1FF0EF0658EC20F0140E88EC0C
:103630001FF0EE2AEF22020EE15C02E2E16AE5529F
:10364000E16EBCEF1FF0D9CFE6FFE1CFD9FFFD0E51
:10365000DBCFE9FFFE0EDBCFEAFF100EE926000EFE
:10366000EA22EECF14F0EFCF15F014C0E6FF15C03C
:10367000E6FFFD0EDBCFE6FFFE0EDBCFE6FF7CECC8
:1036800035F0E552E552E552E7CF15F0E552E7CFC8
:1036900014F006C016F007C017F008C018F009C0F3
:1036A00019F006C0E6FF07C0E6FF08C0E6FF09C044
:1036B000E6FFFB0EDBCFE6FFFC0EDBCFE6FFFD0EE9
:1036C000DBCFE6FFFE0EDBCFE6FF04D015C0FAFF2E
:1036D0001450F96EFBDF1A6E080EE15E1A50E552C7
:1036E000E7CFD9FF1200B7EC1FF00A0EE66EE66ACC
:1036F0004CEC20F026EC21F0AAEC50F0166E060EF1
:10370000E15E16506DEC21F044EC21F0F90EDBCFB8
:10371000E6FFFA0E01EC20F0BCEF1FF06BEC20F09E
:10372000010EE66E7CEC20F0AEDEA7EC20F002E2AB
:10373000E16AE552E16EBCEF1FF06BEC20F0020E87
:1037400072EC21F0B2DEA7EC20F002E2E16AE55271
:10375000E16EBCEF1FF06BEC20F0030E72EC21F079
:10376000B6DEA7EC20F002E2E16AE552E16EBCEFC2
:103770001FF06BEC20F0040E72EC21F0BADEA7EC27
:1037800020F002E2E16AE552E16EF6D3F0DB060ECC
:10379000E126FD0EDBCF08F0FE0EDBCF09F0020EB6
:1037A00008C0DBFF030E09C0DBFF040EF2EC1FF0C4
:1037B000060EE66E0BEC60F0E3DBDDEC1FF0E8DB01
:1037C00098EC60F094EC20F0010EE66E50EC21F0E5
:1037D000A2DEA9DB040EF3CFDBFF050EEADB29EC4A
:1037E00020F0C3EC20F029EC20F072EC20F0060E63
:1037F000E15C02E2E16AE552E16EBED3B8DB060E9F
:10380000E12655EC21F0020EEECFDBFF030EEECFEA
:10381000DBFF040EEECFDBFF050EEECFDBFF34EC5B
:1038200021F0010EE66EE66EF90EE66E09EC5BF035
:103830008DDB080EE66EA5DE76DB5EDBD950040F6D
:10384000E96EDACFEAFF0A0EEE5E000EED5ADDEC0D
:1038500020F0EE06000EED5AD5EC20F0070E84ECB9
:1038600020F0DDEC20F0020EEE26000EED22D5EC6D
:1038700020F0090E84EC20F0060EE15C02E2E16A21
:10388000E552E16E79D373DB040EE126ABDBFA0E71
:10389000E66E09EC5BF074DB90DB4CEC20F079EC2D
:1038A00021F004EC21F0030E0D6E0E6A16C008F034
:1038B00017C009F04EEC61F008C016F009C017F00F
:1038C00008C0E6FF09C0E6FF26EC3BF094EC20F0D0
:1038D000E66A50EC21F043DE26DB020EF3CFDBFF7D
:1038E000030E67DB55DBC3EC20F052DB72EC20F0FB
:1038F000DFDB79EC21F0EE2AEF22040EE15C02E23C
:10390000E16AE552E16E38D3B3EC20F009EC21F026
:10391000EF50020A40E0030A2EE0010A4CE1E5DA2A
:103920001B0E31EC21F0030A1BE0010A12E0030A2E
:1039300009E0010A15E1D2DB1C0EEE6E370ED7DB73
:10394000090E14D0CBDB3A0EEE6E370ED0DB070E2D
:103950000DD0C4DB560EEE6E370EC9DB060E06D058
:10396000BDDB720EEE6E370EC2DB040EEF6EBBECEB
:1039700020F0010E1FD0B9DA89EC21F0010E31ECF4
:1039800021F0ACDBFC0EEE6E370EB1DB060EEF6EF7
:10399000F2DB030E0FD0A9DA89EC21F0020E31EC34
:1039A00021F09CDB8C0EEE6E370EA1DB050EEF6E68
:1039B000E2DB1A0EEF6EE0D2DADA0A0EE1260AEC4A
:1039C00048F0F2EC20F0FBEC47F0040EF3CFDBFF05
:1039D000050EF4CFDBFF0EDB030E31EC21F00BE024
:1039E00076EC21F0EF2AEF50030803E176EC21F0AA
:1039F000EF6AA5DA44DBFEDAEE52EF5014E0AFDBFB
:103A0000EFCF14F0060E145C1AE27CEC21F0B3DB6D
:103A1000EFCF14F0A4DB1450EF264FDBE668E66826
:103A20008EDA1EDB0CD09BDBEF50000808E25DDA7B
:103A3000230E6EDAEF0603E192DBEF063EDBDADA05
:103A4000EF5026E052DA1F0E31EC21F0000826E29A
:103A500096DBEF5023E142DB080EEECFDBFF090ED1
:103A6000EDCFDBFF3BDB860EEE6E380EED6E7CECB1
:103A700021F034DB080EDBCFEEFF090EDBCFEDFFCC
:103A800034DA1F0E45DAEF067ADB320EEF6E06D01F
:103A900076DBEF50000802E272DBEF063DDA060E3D
:103AA000E0DB1BE0F9DAEE06ED5AF2DAB0DA04E711
:103AB000FB0E145CFF0E155856E2DCDBD880155067
:103AC00004E7F60E145CFF0E155804E2E1DAF60E78
:103AD000EE6EED6834DA81D944D01EDA070EC1DB10
:103AE0001AE0DADAEE2AED22D3DAA3DA3CE2145055
:103AF0000508000E155437E2BDDB153409E21450F9
:103B00000A08000E155404E2C3DA0A0EEE6EED6ADE
:103B100016DA67D926D0BCDA42DA0001800E151415
:103B200004E0B6DAEE2AEF2208D0A4DB153405E271
:103B3000AADA03E2ADDAEE06EF5A9CDB153404E3B1
:103B40001450FB08FF0E15540EE2A2DA5DDBD8908C
:103B5000175004E6050E165C000E175804E2EFD964
:103B600044D9E552E552D8D9040E7BDB0DE054DB95
:103B70004EDA04E7F30E145CFF0E155829E24CDB15
:103B8000F30EEE6EED6824D0C7D9050E6ADB0DE0AA
:103B900043DB4FDA1DE214500D08000E155418E2F5
:103BA0003BDB0D0EEE6EED6A13D072DAF8D9000130
:103BB000800E171404E030DBEE2AEF2209D02CDB54
:103BC00001DA153405E25FDA03E226DBEE06EF5A8E
:103BD00051DB040E24DB0850EE261550ED221CDBD1
:103BE000F1D9030E1CDB85DB0850EE261550ED22C3
:103BF00053DAD5D90001800E151404E04DDAEE6ACF
:103C0000ED6A18D09CD952EC35F0E552E552060E1B
:103C100040DB17DA0FE21450A008000E15540AE238
:103C2000060EDB50146E156AA00E46DB14C0EEFFC4
:103C300015C0EDFF31DAB3D90001800E171405E08D
:103C40002BDA57DBEE6AED6A1AD079D955EC35F0EC
:103C5000E552E552070E1DDB4CDBF3D910E21450A0
:103C6000F508000E15540BE2070EDB50146E156AB2
:103C7000F50E22DB3EDB14C0EEFF15C0EDFF22DBAC
:103C800089DAE6EC57F0E8DA000E146E0A0EE15C11
:103C900002E2E16AE552E16E14506ED164DA0B0E75
:103CA00037D9060EEF6E000EFAD9F2D9B9D957DA24
:103CB000EF6A03DA44D9E0EC35F0E552E5521AEC4C
:103CC00036F0BBDA3BDA3BD9F6EC35F0D3D954D138
:103CD0004ED9040EE126250EE66EA8EC64F0E552FE
:103CE00081DA1AD9A60EEE6E350EED6E15D901DB0E
:103CF000FB0EDBCFEEFFFC0EDBCFEEFFFD0EDBCFCE
:103D0000EEFFFE0EDBCFEEFF07D90C0E01D9C40E7D
:103D1000EE6E350EED6E00D90E0EFAD8460EEE6E32
:103D2000360EED6EB80EE66E390EE66E1EEC58F0ED
:103D3000E552E55211DA090EA0DA31EC1AF00CDA8C
:103D4000060E9BDA25D9E0EC35F0E552E55220D994
:103D500089EC3CF0E552E552FFD9140E8EDA9FD97A
:103D6000DBD8160ED5D85CD9D7D8210ED1D8EF6ABA
:103D7000D3D81E0ECDD8030EEF6ECED8200EC8D8E5
:103D8000320EEF6EC9D81F0EC3D8030EEF6E28ECAB
:103D900063F0E2D9120E71DABFD8BBDA020E08DA8C
:103DA000010E06DAEF6EB8D834DAEF6AF1D867D9C7
:103DB000EFD874DFE552E552020EDBCF14F0030EAC
:103DC000DBCF15F014C0F3FF15C0F4FF040EE15C67
:103DD00002E2E16AE552E16ECFD052DA020EEF6EF6
:103DE000CBD04EDA010EEF6EC7D04ADAEF6AC4D0FC
:103DF000BAD98FDAE9CF14F0EACF15F077DAEF50BD
:103E00000F011424E96E000E1520EA6EEF2A97D8F0
:103E100036D9B2D05EDAFB0EDBCFE9FFFC0EDBCF8A
:103E2000EAFF120E1EDA0D0DF350DE6EDD6AFA0E99
:103E3000DB500DE0D9CFE9FFDACFEAFF010E0F0B1F
:103E400006E0EC52D890ED32EF32E806FAE130D9D4
:103E5000100E5ED8EE2AEF2289D971D801D9020E50
:103E6000E15C02E2E16AE552E16E86D080D8FC0EA8
:103E7000DB50146E156A1CD9160EBBD9A4D942ECBE
:103E80005EF0E552E552E55277D071D8ECD81534A2
:103E900002E2F9D819E30CD9120E3AD893D8FB0EE6
:103EA000DBCF16F0FC0EDBCF17F0166C171E000EE2
:103EB00017221650145C1750155806E2F9D8120E46
:103EC00027D8EE6AED6A04D0CED8F2D8120E91D976
:103ED00053D04DD834D8E9EC34F0E552E5525AD9F4
:103EE000E9EC34F0E552E55247D0FD0EDBCFE9FFB7
:103EF000FE0EDBCFEAFF120082D9EAD837D943D9C8
:103F000035D972EF20F0E66E000EC9D89EEF20F092
:103F1000E926000EEA221200020EDBCFE9FF030EB3
:103F2000DBCFEAFF1200F3CF1AF0F4CF1BF0ACD9CD
:103F300010EC5AF01C6E0D0EE15E1C501200FD0ECE
:103F4000DBCFE6FFFE0EDBCFE6FF1200E552E552C7
:103F500026D1010EE66E070EE66E2FD977D9B8D8B6
:103F60001BEC38F01A6E090EE15E1A5018D1D9CF49
:103F7000E6FFE1CFD9FF1200E552E7CFD9FF1200EB
:103F8000E552E552AAD9DECFE9FFDDCFEAFF120004
:103F9000020EDBCFE6FF030EDBCFE6FF1200EECF13
:103FA00014F0EECF15F004EF21F014C0F3FFF46E1F
:103FB0001200F4CFDBFF68EF20F0F3CFEEFF15C067
:103FC000EDFF1200EECF14F0EFCF15F012009CD9E8
:103FD00086EC62F0E552E5521200EE50EFCFEAFFB8
:103FE000E96E1200E66EA8EC64F0E55208D9010E05
:103FF000E66E1200040EDBCFE9FF050EDBCFEAFF11
:104000001200DBCFE6FF99EC27F02CEF21F0EE0653
:10401000ED5AEECF14F0EDCF15F0D8801550120008
:1040200006C0EEFF15C0EEFF16C0EEFF17C0EEFF94
:104030001200EE2AED22EECF14F0EDCF15F015347C
:1040400012001650EE24146E1750EE20156EE83450
:104050001200040EDBCFE6FF050EDBCFE6FF1200F9
:1040600014DF2CEF21F0FB0EDBCF14F0FC0EDBCFC6
:1040700015F01200186E060EE15E1850120044DCB6
:10408000E552E552120014500008000E15541200BB
:104090002CDF160E88EF1FF028DF79EF21F0E66E97
:1040A000E66AE66EE66A7DEC64F0D6D81DEF21F094
:1040B0001CDF120E2DDFEDEF1FF017DF240ED1D81D
:1040C000E66E13DF230E24DFE552E750EF6E120099
:1040D000ECD826EF21F0FDD834EF21F006DF100EEA
:1040E00088EF1FF0EFD8A1EC27F02CEF21F0ED6E58
:1040F000FCDE240E88EF1FF0E66EF70EE66E09EC8C
:104100005BF024DFE66A1200E66EC1EC1AF0F3CF32
:104110001BF0F4CF1CF0B8D810EC5AF01D6E0D0E49
:10412000E15E1D507CEF1FF02BDF020EA6D8010EC2
:10413000E66E360EE66EB50E83EF1FF006C0E6FFA4
:1041400007C0E6FF08C0E6FF09C0E6FF1200EBDE8D
:10415000D3DE020EE15C1200C0D88CEF1FF0C5DE8A
:10416000210E88EF1FF003DF75EF1FF0DECFE6FFB3
:10417000DDCFE6FF1200B9DE220E88EF1FF0B5DEBC
:10418000200E88EF1FF0F6EC35F0146E060EE15E9F
:1041900014501200AADE140EBBDE84EF21F0F3CF20
:1041A00018F0F4CF19F044EF21F05ED8A9EF1FF01A
:1041B000AFDEEF6AB1DE89EF21F0D950020FE96E70
:1041C000DACFEAFF1200FC0EDBCFE6FF9FEF1FF015
:1041D0009FDEFDDE75EF1FF0F9EC48F0E552B6DE2C
:1041E000E66A1200020EF3CFDBFF030EF4CFDBFF13
:1041F00012008EDE1450EE261550ED221200F3CF81
:10420000DEFFF4CFDDFF1200EECF16F0EFCF17F098
:1042100012001A0E88EF1FF03BDF79EF21F00D6ED0
:104220000E6A14C008F015C009F04EEC61F008C029
:1042300014F009C015F04CEF20F006C014F007C0D0
:1042400015F008C016F009C017F01200EECFE6FF17
:10425000EECFE6FF84EF21F0E552E552E552E5525C
:10426000120056DEEF501200E66AE60EE66E360EDB
:1042700083EF1FF00DDFE2EF1FF04ADEDDEF1FF0EE
:1042800072DF080E88EF1FF0F3CFE6FFF4CFE6FFF2
:104290001200F3CFDBFFDB50166E176A4CEF20F0F5
:1042A000020EE66E63DFECEF20F0D950F70FE96EF7
:1042B000FF0EDA20EA6E1200D8801456000E155652
:1042C0004CEF20F0FB0EDBCFE6FFFC0EDBCFE6FF72
:1042D00012004DDE020EE1261200F3CF14F0F4CFEF
:1042E00015F01200E66E010E7CEF20F0FEDD09EF06
:1042F00021F0020E88EF1FF0FB0EDBCFE6FF63DF3D
:104300005EEC5EF02CEF21F0EECFE6FFEFCFE6FFA4
:0843100012001B0E88EF1FF0E4
:084318000301C6510AE1030193
:10432000010EA16F130E9F6FCC0EA06F0301010E43
:10433000C66F9D0E146E030E14C0F3FFF46E1200D0
:10434000ACEC25F0020EE12616EC26F083EC26F00C
:10435000C5EC25F00BE00CEC26F011EC26F0B6ECE9
:1043600064F0E552E5520CEC26F0F0D71DEC26F097
:1043700086EC62F0E552E552020EE15C02E2E16A8F
:10438000E552E5D3E9DB050EE126DF6A16EC26F0FF
:10439000020ED2DB010EEECFDBFF020EEDCFDBFF14
:1043A000D950010FFAEC25F022E024EC26F0030EA0
:1043B000EECFDBFF040EEDCFDBFFDFCFE6FF7EECC1
:1043C00026F000EC26F06DEC26F0030EDF24E66EFE
:1043D000E66A020EE66EE66A030E00EC26F0ACDB3F
:1043E0006DEC26F0050EDF2624EC26F0D2D7050E64
:1043F000E15C02E2E16AE552AAD3AEDB060EE126F9
:1044000098EC40F02BEC26F0DF6A010EDB6A0A0E16
:10441000DF5C3AE206EC26F0040EF3CFDBFF050E7C
:10442000F4CFDBFF010EDBCFE6FF7EEC26F0C0DB36
:1044300072EC26F0BDDB8BEC26F0010EDB50030F97
:10444000E66EE66A020EE66EE66AB2DB8FEC26F0F6
:1044500072EC26F0040EDBCFE6FF050EDBCFE6FFA5
:10446000020EDBCFE6FF030EDBCFE6FF32EC26F0D9
:10447000DF2A050E146E010EDBCFE7FF1450E7268E
:10448000010EE7CFDBFFC3D7020EDBCF14F0030E24
:10449000DBCF15F014C0F3FF15C0F4FF060EE15C8E
:1044A00002E2E16AE55253D357DB140EE12634DF12
:1044B000D2DBD950040FE96EDACFEAFF5F0EEE6E61
:1044C000EE6A060EDB6A8DDBA80EE66E1A0EE66E4D
:1044D00029EC46F0E552E552100EF3CFDBFF110E4A
:1044E000F4CFDBFF120EDB6A130EDB6A010EE66E01
:1044F000C6EC2BF0E55276EC2DF022DB83EC26F0B7
:10450000EF5001E02FD10A0EE66E63EC5BF0E5524E
:1045100068DBD950FB0FE96EFF0EDA20EA6EEE5031
:10452000ED105BE0A3DBEE50EFCFEAFFE96E166E15
:10453000EACF17F0060EDB5000011624146E000EB1
:10454000EA20156E070E14C0DBFF080E15C0DBFF56
:10455000F7DAEE52EF500CE0060EDB5006E1020EE9
:10456000F36E060EF3CFDBFF4ED0060EDB064BD00C
:10457000E7DAEF5008E0060EDB2ADB50020843E2E0
:10458000060EDB6A40D0DCDA060ED6DAEF500EE01B
:10459000B3DAEF50410813E0AFDAEF50200803E13F
:1045A000ABDA5A0E15D0A8DAEF062DD0C9DA070E0D
:1045B000C3DAEF5028E0A0DAEF505A0803E19CDAA2
:1045C000200E06D099DAEF50200804E195DA410E6A
:1045D000EF6E19D091DAEF2A16D0D950120FE96E8A
:1045E000DACFEAFF0A0EEE26000EED22120EDBCF26
:1045F00014F0130EDBCF15F0980E145C3A0E15581C
:1046000002E3010EB5D0DBDA91EC46F0E552E5525B
:10461000010EE66E000EE66EE66AE66EE66A58DAAF
:104620002CDB71DBFEDA99EC4BF0186E070EE15EC5
:104630001850000EE66EE66AC2DAE6EC57F048DB88
:10464000460EDF6EFD0EDBCFE9FFFE0EDBCFEAFF8D
:104650005ADB0A0EEECFDBFF0B0EEDCFDBFFD9509E
:104660000A0FC8DA74E0FB0EDBCF14F0FC0EDBCFD0
:1046700015F00A0EDB50141803E10B0EDB50151871
:1046800003E0090EDB6A34D0010EF36E090EF3CF9E
:10469000DBFF010EE66EDF04E66EE66AF5DA53EC48
:1046A00033F0E552E552F3CF1CF0F4CF1DF0060EC7
:1046B000DB501A6E1B6A086E1BC009F0F3CF0DF0B9
:1046C000F4CF0EF0A1EC61F006C018F007C019F0AD
:1046D000550E1826000E192218C0E6FF19C0E6FF75
:1046E000F7D9D2DADFEC32F01E6E070EE15E1E5013
:1046F0000A0EDBCFE9FF0B0EDBCFEAFF0C0EEECF8D
:10470000DBFF0D0EEDCFDBFFC6DA550EFFDAE9CF8A
:1047100018F0EACF19F0E9CFE6FFEACFE6FFDFECC9
:1047200032F01A6E070EE15E1A50B5DA730EEEDA49
:10473000F6DA77DA0EEC33F0186E070EE15E1850F9
:10474000100EDF260A0EDBCFE9FF0B0E7FD7D95004
:10475000010FE66E000EDA20E66ED8EC2BF0E55283
:10476000E552CBD62CDA86EC62F0E552E552000E2B
:10477000146E140EE15C02E2E16AE5529AD2ECD9C1
:10478000430EE126D9CFE9FFDACFEAFFEE6E500EF5
:10479000EE6E530E22DA4C0EEE6E480EEE6E200ECA
:1047A0001CDA5A0EEE6E430EEE6E200E16DA4A0E2C
:1047B000EE6E500EEE6E430E10DA450EEE6E4D0E9E
:1047C000EE6E530E0ADA530EEE6E590EEE6E420E78
:1047D00004DA450EEE6E430EEE6E450EFED9410E26
:1047E000EE6E420EEE6E430EF8D9580EEE6E590E76
:1047F000EE6E5A0EF2D9440EEE6E450EEE6E460E79
:10480000EE6EEE6A640EF36E280EF3CFDBFF290E18
:10481000DB6A630EF36E2A0EF3CFDBFF2B0EDB6A2F
:10482000620EF36E2C0EF3CFDBFF2D0EDB6A610EF2
:10483000F36E2E0EF3CFDBFF2F0EDB6A600EF36EEE
:10484000300EF3CFDBFF310EDB6A5F0EF36E320EFC
:10485000F3CFDBFF330EDB6A5E0EF36E340EF3CF65
:10486000DBFF350EDB6A5D0EF36E360EF3CFDBFF3A
:10487000370EDB6A5C0EF36E380EF3CFDBFF390EBA
:10488000DB6A5B0EF36E3A0EF3CFDBFF3B0EDB6AA7
:1048900098EC40F03F0EF3CFDBFF400EF4CFDBFF90
:1048A0003C0EDB6A0A0EF36E3C0EDBCFF4FFF350D6
:1048B000F45C43E2ABD9410EF3CFDBFF420EF4CF01
:1048C000DBFF56D9F3500F0127D9E552E750EF6EC1
:1048D0004FD9F32821D9010E2FD9E552E750EF6EB9
:1048E00047D9F350020F18D90EDAE552E750EF6EB0
:1048F000FED911DAD950280F166EDACF17F03C0E18
:10490000DB50020D1650F324E96EDA50F420EA6E03
:10491000EECF14F0EFCF15F0EAD901DA14C0EEFFB4
:1049200015C0EDFF410EDBCFE6FF420EDBCFE6FF09
:104930004DD998D93C0EDB2AB5D748D931D9D9CF32
:10494000E6FFDACFE6FF24EC52F0146E060EE15ECD
:1049500014503CD9B8D9430EE15C02E2E16AE55259
:10496000F6D0FAD8040EE12681D9CDD90ED923E0AC
:1049700053D9020EEECFDBFF030EEDCFDBFFFD0EB2
:10498000DBCF14F0FE0EDBCF15F077D9C8D9EECF10
:1049900016F0EFCF17F01450165C1550175809E2B7
:1049A000DECF14F0DDCF15F014C0F3FF15C0F4FF17
:1049B00004D032D9DAD7F36AF46A040EE15C02E279
:1049C000E16AE552C4D0C8D8030EE12616DDF3CF64
:1049D000DEFFF4CFDDFF000EE66EE66ADECFE6FF17
:1049E000DDCFE6FF6CD9E76E020EE7CFDBFFDECF4F
:1049F000E6FFDDCFE6FF67D9020EDB50146E030E33
:104A0000E15C02E2E16AE55254D1A6D80B0EE12640
:104A1000F4DC030EF3CFDBFF040EF4CFDBFF85D80D
:104A20000CD99FDF55D9050EF3CFDBFF060EF4CF6F
:104A3000DBFFD950050FDED843E0E8D8090EF3CFED
:104A4000DBFF0A0EF4CFDBFF8CD869D9FD0EDBCF7C
:104A5000EEFFFE0EDBCFEDFF320EE66E4FD981D8B2
:104A600041D97FD858D9090EDBCFE6FF0A0EDBCF3C
:104A7000E6FF050EDBCFE6FF060EDBCFE6FF55D8DF
:104A80000AEC41F0146E060EE15E1450070EF3CFEF
:104A9000DBFF080EF4CFDBFF030EB2D84DD8C1D830
:104AA00044D8CDEC40F014D9070EDBCFE6FF080E5A
:104AB000DBCFE6FF3AD803D938D872D852D80DD90F
:104AC00034D801D90B0EE15C02E2E16AE5523FD035
:104AD0007DEC64F0FDD806C014F007C015F008C0E6
:104AE00016F009C017F006C0E6FF07C0E6FF08C0D1
:104AF000E6FF09C0E6FF1200070EDBCFE9FF080E54
:104B0000DBCFEAFF1200E9CF14F0EACF15F0E9CFCE
:104B1000E6FFEACFE6FF1200D924E96E000EDA20A4
:104B2000EA6EEF50E66E77EF26F0030EDBCFE6FF7E
:104B3000040EDBCFE6FF1200E926000EEA22120087
:104B40000E0EDBCFE9FF0F0EDBCFEAFF1200E16EA6
:104B5000E552E7CFD9FF1200D9CFE6FFE1CFD9FF69
:104B60001200090EDBCFE9FF0A0EDBCFEAFF1200CD
:104B7000D9CF14F0DACF15F03C0EDB50040D120043
:104B8000166E060EE15E16501200EECFDEFFEDCF80
:104B9000DDFFD9CFE9FFDACFEAFFEE50ED101200CA
:104BA000C2EC21F0E552E552320EE66E7EEF26F0C1
:104BB000040EDBCFE9FF050EDBCFEAFF1200100E7B
:104BC000DBCFE6FF110EDBCFE6FF12003F0EDBCF9F
:104BD000E6FF400EDBCFE6FF1200EE6E5F0EEE6EDC
:104BE0001200FBEC47F00E0EF3CFDBFF0F0EF4CFFD
:104BF000DBFF1200E96EDACFEAFFEE50ED10120093
:104C0000DBCFE9FF040EDBCFEAFF1200060EE66EF3
:104C1000A8EC64F0E5521200DECFE9FFDDCFEAFF39
:104C20001200EECFE6FFEFCFE6FF1200FD0EDBCF66
:104C3000E9FFFE0EDBCFEAFF1200FD0EDBCFE6FF41
:104C4000FE0EDBCFE6FF1200010EDBCFE9FF020E06
:104C5000DBCFEAFF1200020EF3CFDBFF030EF4CF2F
:104C6000DBFF1200B4EC40F068EF26F0FB0EDBCF68
:104C7000E9FFFC0EDBCFEAFF1200020EDBCFE9FFFB
:104C8000030EDBCFEAFF1200D950040FE66E000ED0
:104C9000DA20E66E1200090EDBCFE6FFDFCFE6FF7B
:104CA000E66A12000C0EDBCFE9FF0D0EDBCFEAFF48
:104CB0001200E16E1450E552E7CFD9FF120054EC18
:104CC00022F068EF26F0A0EC21F0E552E552120048
:104CD000E552E552E552E552120015DF24EC52F0A0
:104CE000C0EF25F010DF05EC52F0C0EF25F0410ECB
:104CF000DBCFE9FF420EDBCFEAFF1200E66A030ECC
:104D0000E66EE66A1200020E9CEF25F0E66EE66A99
:104D1000DFDE52EF26F0030E0FDFEF6A1200040E03
:044D20009CEF25F0EF
:0C4D24009BDB020EE1260BEC2BF0D3EC25
:104D30002AF003E0AAEC2AF0FAD7E4EC2AF0D3EC4C
:104D40002AF003E0AAEC2AF0FAD70FEC2BF0D3EC10
:104D50002AF003E0AAEC2AF0FAD713EC2BF0D3ECFC
:104D60002AF002E0F7DBFBD717EC2BF0D3EC2AF0AC
:104D700002E0F0DBFBD724DB0D0E2BDBD3EC2AF0BB
:104D800002E0E8DBFBD71BEC2BF0D3EC2AF002E0CF
:104D9000E1DBFBD715DB030E4CEC2BF0050E4CECE6
:104DA0002BF0070E4CEC2BF0090E4CEC2BF00B0EFD
:104DB0004CEC2BF00D0E4CEC2BF00F0E4CEC2BF0C2
:104DC0001B0E4CEC2BF0150E4CEC2BF0170E4CEC94
:104DD0002BF0190E4CEC2BF01D0EF9DA38DB1FEC22
:104DE0002BF035DBAADB33DBEBDA130EF0DAACECBD
:104DF00062F0E552E552020EE15C02E2E16AE55240
:104E0000E16E31D32BDB060EE126280EE66EA8EC10
:104E100064F0E55258DBF4DA240EEE6E4D0EED6EC2
:104E200077EC2BF0030EA0DB9FDB070E9DDB090E5A
:104E30009BDB0B0E99DB0D0E97DB0F0EFBDAE0DA36
:104E4000130EADDBFB0EDBCFEEFFFC0EDBCFEDFF79
:104E5000D7DA110EA4DBFD0EDBCFEEFFFE0EDBCFAB
:104E6000EDFF1AEC36F0B8DBB7DAF6EC35F0186E79
:104E7000060EE15E1850E60EE66EE66A820E51DB23
:104E80007DEC56F080DB150ED5DAE60EE66EE66AAE
:104E9000010E47DBADEC55F076DB170ECBDA030ED7
:104EA000E66EE66A9B0E3DDB18EC57F06CDB190EE4
:104EB000C1DADC0EE66EE66A9A0E33DBD0EC53F014
:104EC00062DB1B0EB7DADC0EE66EE66A010E29DB4A
:104ED00034EC44F058DB1D0EADDA92DA270EBFDB5E
:104EE0001F0EEB6A200EEB6A8BDA210ED7DA88DA16
:104EF000220EB5DB230EB3DB250ED0DA81DA260EC7
:104F0000AEDB020ECBDA040EDBCF14F0050EDBCFE6
:104F100015F014C0F3FF15C0F4FF060EE15C02E2C9
:104F2000E16AE552E16E9FD299DA4ADA020EA8DA16
:104F30009AD230DB030E1BD3CFDB0E0E22DB050E25
:104F400016D3CADB040E1DDB070E11D3C5DB0C0E16
:104F500018DB090E0CD31EDB0B0E09D31BDB0D0E69
:104F600006D3BADB080E0DDB0F0E01D3D0DA030E29
:104F700003D3CDDA050E00D3CADA070EFDD2C7DAA5
:104F8000090EFAD2C4DA0B0EF7D2C1DA0D0EF4D242
:104F9000BEDA0F0EF1D262DA050EE12611DA62DB1B
:104FA00091EC46F00DDB0D0E14DA31DA02E01BDA7B
:104FB000FCD741DB2CDA02E016DAFCD730DB27DA4B
:104FC00002E011DAFCD72FDB22DA02E00CDAFCD7A0
:104FD000FBDA1DDA02E007DAFCD781DB09E1F0D960
:104FE000210E4EDA05E0A9DA69EC1FF0E552E55230
:104FF00012DB0DDA02E0F7D9FCD719DB08DA02E0A0
:10500000F2D9FCD7E5DA25E1DBD9170E75DB150EF1
:1050100073DB190EDCD966EC57F0D2DA1B0ED7D948
:105020001EEC54F0CDDA1D0ED2D9C7EC43F0E55298
:10503000E552E66A020EE66EE66A63DBCDDA86DAF0
:10504000120EC5D90EEC33F0186E070EE15E185043
:1050500005D0F5DA88EC30F0E552E552050EE15C5A
:1050600002E2E16AE552E16EFED1F8D9040EE126D2
:10507000A7D9250E05DA38E0AFD91FDB140EA7D962
:1050800024DB9ED9260E40DAEF50020831E155DAD2
:1050900055EC35F0E552E552F6D9F00ED8801456AD
:1050A000000E15560A0E145E000E155A020E14C09C
:1050B000DBFF030E15C0DBFF00DB31DB30DBEE0670
:1050C000ED5AEECF14F0EDCF15F0020EDB501418B0
:1050D00007E1030EDB50151803E172D9250ED8D96C
:1050E0006FD9260ED5D904D0FADA02E1F2DAEDDA78
:1050F000AADA1BE065D9230E07DAEF0416E160D9BE
:10510000210EBED902E0000E01D0010EE66E58D984
:10511000210E45DAE552E750EF6E73DAF5D9EF501C
:10512000640803E14DD9220EB3D952DA19E087DAC7
:1051300007EC30F0ADDA14E043D91F0E4AD90D0E5A
:1051400046D939EC2FF0E552E5529DD9FFD9120E20
:1051500026DAF350EE261550ED2232D9020E98D9F8
:10516000E1DA170E43DA150E41DA7CDAAEDA30DA1C
:1051700006E1D8DA130E2BD93EEC5FF03CD94BDABE
:1051800053D95ED908E0DDD904E1E8D9EFDE04DACD
:10519000F8D786DAF5D718DA47D952D908E0D1D945
:1051A00004E1DCD9E6DEF8D9F8D77ADAF5D737DAD0
:1051B0003BD946D908E0C5D904E1D0D9DDDEECD928
:1051C000F8D76EDAF5D72FDA2FD93AD908E0B9D95E
:1051D00004E1C4D9D4DEE0D9F8D762DAF5D72BDA06
:1051E00023D92ED908E0ADD904E1B8D9D1DED4D97C
:1051F000F8D756DAF5D71BDA17D922D908E0A1D9A2
:1052000004E1ACD9BFDEC8D9F8D74ADAF5D7D8D887
:105210000D0EDFD809D914D908E093D904E19ED93D
:10522000B4DEBAD9F8D73CDAF5D7D2D92CE157DABF
:105230002AE0C6D8030ECBD839EC41F029DA23E0B6
:105240003CDA1E0E1DD90EE1BBD8270E27D975D921
:10525000AEEC2FF0E552E552F4CF15F0B1D81F0EA9
:10526000E9D811D06AD94EEC1EF0AAD9220E16D96F
:10527000C8D90ED9A5D8210E11D9A2D8250E0ED97C
:105280009FD8260E05D9040EE15C02E2E16AE552E0
:10529000E16EE9D0E3D8070EE12696D940DA020E96
:1052A000EECFDBFF030EEDCFDBFF09D930E0060EBA
:1052B000DB6A86D8070E8BD8CFD811EC4AF06CD9B0
:1052C000BFD81BE043D9060EF2D886D8C5D8AAD8D5
:1052D00001D9CDD9C1D842EC5EF0E552D9D906E06A
:1052E000010EF36E060EF3CFDBFF91D9D4D80E0E6C
:1052F000C7D803E133D940DE7ED8060EDB5005E087
:10530000E66A05DA53D9EDD8D0D774D9C7D7E7D92B
:1053100050E156D8090ED5D93FD992D812E0D9D943
:1053200081D8D8D890D906E1A2D907D9E8D802E027
:10533000D0D9F1D9B0D80E0EA3D803E10FD91FDE12
:105340005AD83ED80F0EBDD956D8BDD8D950040F63
:105350007ED912E0BED954D8C5D936EC5DF0146EB2
:10536000060EE15E1450040EDBCFE6FF050EDBCF28
:10537000E6FF32D80DDE3FD823D8050EA2D93BD8A0
:10538000B0D89DD816E036D97ED9130E79D811E160
:105390005AD907E1020EE66ED0D8B1D802E099D909
:1053A000BAD9010EE66EB3D9D1D8180E80D82FD94C
:1053B000FDD8070EE15C02E2E16AE552E16E53D0EE
:1053C000FD0EDBCFE9FFFE0EDBCFEAFF1200E7D8D0
:1053D00044D1E5D843EF2BF0FD0EDBCFE6FFFE0E08
:1053E000DBCFE6FF120048D97DD9E9EC34F0E55275
:1053F000E5523CEF2BF0E552E552E552E552120042
:10540000040EDBCFE9FF050EDBCFEAFF120087D9E0
:10541000030EEECFDBFF040EEDCFDBFFD950030F01
:1054200027EF2BF03DD919D17AD9EECFDEFFEDCFA2
:10543000DDFF1200B4D8F3CFEEFF15C0EDFF120070
:10544000D9CFE9FFDACFEAFFEE50ED10120086EC7B
:1054500062F0E552E5521200CDD8FFD0D9CFE6FF79
:10546000E1CFD9FF1200E552E7CFD9FF120006C005
:10547000E6FF07C0E6FF08C0E6FF09C0E6FF12002E
:105480008ED8EF501200F3CF14F0F4CF15F01200C5
:1054900086D8EF6A120004D943EF2BF080D8010EB2
:1054A000EF6E1200F3CFDEFFF4CFDDFF120077D8EE
:1054B000EE2AEF22120056EC5EF048EF2BF0D950A6
:1054C000020F27EF2BF0040EF3CFDBFF050EF4CF16
:1054D000DBFF120069EC5AF0146E060EE15E145008
:1054E0001200020EF3CFDBFF030EF4CFDBFF12003E
:1054F0000AEC1FF0146E050EE15E1450120036EC3B
:105500001FF0E55248EF2BF04AD8EF2A1200A6DF31
:10551000FB0EDBCFE9FFFC0EDBCFEAFFE3D897DF22
:10552000C4D0EFD806C016F007C017F008C018F0B6
:1055300009C019F09CDFECEF29F042DF110EE7EF14
:1055400029F04ADF6FDFC1D801081200B6D8120E69
:10555000E9EF29F067DF7BDF50EF2BF0DECFE6FFCE
:10556000DDCFE6FFECEF29F065DF77EF2BF02FDFE3
:10557000B4EC40F040DF77D72ADFCDEC40F03BDFE2
:1055800072D795DF92D01A6E060EE15E1A507BDF5D
:1055900000EF2AF063DF89D02EDF52EF2AF0E926F0
:1055A000000EEA22120040DF20EF2AF0020EDBCFCD
:1055B000E6FF030EDBCFE6FF0FDFDBDCFBEF29F0BE
:1055C000E552E552E0EF29F0FBDE050EE9EF29F0A8
:1055D000F7DE270E40EF2AF006C014F007C015F0E2
:1055E00008C016F009C017F037EF2AF0F0DE6DD8CA
:1055F00092EF2BF0020EDBCFE9FF030EDBCFEAFFC9
:105600001200DEDE230E44DFDBDE240E1200E4DEB9
:1056100023DF8BEF2BF0D4DE030EE9EF29F0D0DE91
:10562000070EE9EF29F0CCDE090EE9EF29F0C8DE1C
:105630000B0EE9EF29F0C4DE0F0EE9EF29F0C0DE12
:105640001F0EE7EF29F0BCDE220E40EF2AF0E96ED4
:10565000DACFEAFFEE50ED10120072EF2BF018DFF8
:1056600000EF2AF0130EB5DE020EE7EF29F013DF8C
:105670000B0E06DFE66E1200030EDBCFE9FF040E11
:10568000DBCFEAFF1200EE50EFCFEAFFE96E120027
:10569000E552E552000912009ADED9DEE0EF29F06A
:1056A000DECFE9FFDDCFEAFF1200FB0EDBCFE6FF26
:1056B000FC0EDBCFE6FFE0EF29F082DE110EE9EF12
:1056C00029F085DE3ADF11EF4AF0E6EC57F0FBEF08
:1056D00029F082DE9DEF2AF0C1DEA6EF2AF02DDF51
:1056E0005BEF2AF0EECFE6FFEFCFE6FF120098EC7B
:1056F00040F0C9DE00EF2AF06ADEE9EC34F0E0EFBA
:105700002AF0E66EE66A7DEC64F0FBEF29F0A4DE99
:1057100014DF78EF2AF016EC5EF0FBEF29F0020EB2
:0A572000CFEF2AF059DEE0EF29F088
:06572A0083AEFED7120061
:1057300088DA020E25DB8EDAFEE130DB8BDAFEE161
:10574000826A73DA83D27DDA050E1ADB83DAFEE130
:10575000040E24DB7FDAFEE1030E826E66DA76D277
:1057600070DA060E90DA72D26CDA070E8CDA6ED22C
:1057700068DA080E826EFE0EDB5003E0010E816EC9
:1057800001D0816A010E806E806A60D25ADA090EF9
:10579000826EFE0EDB5003E0010E816E01D0816A45
:1057A000010E20DB53D24DDA0B0E6DDABEDF4ED286
:1057B00048DA0A0E826E92DAEF5005E08FDAEF6A6D
:1057C000010E816E04D08ADA010EEF6E816A0ADB67
:1057D0003DD2020EF2EF2EF034DA75DADBCF17F09D
:1057E000E1504BDA030EEBCFF3FF1750F318E8AE9E
:1057F00002D0F33408D0EE50145CEE501558EE5041
:105800001658EE5017580BE2FB0EDBCF14F0FC0ECF
:10581000DBCF15F0FD0EDBCF16F0FE0E01D053DA14
:10582000DBCF17F068DA12D20CDAA5DA5EDAD950DB
:1058300024DA1ADA8CDAF00EE66E92DFE552A00E68
:10584000E66E92DFE552E66A93DFE552C2DFFED1F3
:10585000F8D9100EE126D95010DA040EEECFDBFF96
:10586000050EEECFDBFF060EEECFDBFF070EEECF11
:10587000DBFFF90EDBCF08F0FA0EDBCF09F0080EE4
:1058800008C0DBFF090E09C0DBFFF70EDBCF08F015
:10589000F80EDBCF09F00A0E08C0DBFF0B0E09C0C3
:1058A000DBFFF90EDBCF16F0FA0EDBCF17F0F50EAB
:1058B000DB501624146EF60EDB501720156E0C0EFE
:1058C00014C0DBFF0D0E15C0DBFF47DA153410E204
:1058D0001450A008000E15540BE23FDAA00E145E1F
:1058E000000E155A69DA01E3EFD014DA01E3ECD0C7
:1058F000F50EDBCF14F0F60EDBCF15F00001800EB5
:10590000151411E05EDA166A176A15AE02D0166831
:105910001768FAD914500BDA54DA4EDA01E3D4D00E
:10592000F9D901E3D1D0F70EDBCF16F0F80EDBCFBB
:1059300017F0F30EDB501624146EF40EDB50172014
:10594000156E0E0E14C0DBFF0F0E15C0DBFF0CDA58
:10595000153410E21450F008000E15540BE204DA6E
:10596000F00E145E000E155A32DA01E3ADD0D2D932
:1059700001E3AAD0F30EDBCF14F0F40EDBCF15F069
:10598000800E151421E028DA166A176A15AE02D0C7
:1059900016681768A00E0B6E0C6A0D6A0E6AABD9FA
:1059A000EDEC63F002C014F003C015F004C016F073
:1059B00005C017F0A9D90250BAD90EDA08DA01E306
:1059C00083D0A8D901E380D0D6D9F30EDBCF1CF069
:1059D000F40EDBCF1DF01E6A1F6A1DAE02D01E68DA
:1059E0001F681CC0E6FF1DC0E6FF1EC0E6FF1FC00B
:1059F000E6FFF2DE206E080EE15E205006C018F0D1
:105A000007C019F008C01AF009C01BF0A00E0B6EF9
:105A10000C6A0D6A0E6AEDEC63F002C018F003C068
:105A200019F004C01AF005C01BF002C0E6FF03C065
:105A3000E6FF04C0E6FF05C0E6FF9DD9F50EDBCF0B
:105A400021F0F60EDBCF22F0236A246A22AE02D0C8
:105A50002368246821C0E6FF22C0E6FF23C0E6FFDA
:105A600024C0E6FFB9DE256E080EE15E2550E55242
:105A7000E7CF1BF0E552E7CF1AF0E552E7CF19F078
:105A8000E552E7CF18F018500624146E195007207D
:105A9000156E1A500820166E1B500920176E07D974
:105AA00084D932D9E1D853D90A0EDBCFE6FF58DECC
:105AB000E552080EDBCFE6FF57DEE552F20EDBCFF4
:105AC000E6FF56DEE55285DE100EE15C02E2E16A99
:105AD000E552E16EBBD0070EC16E926A936A946A7A
