:020000040000FA
:060000000FEF59F01200A1
:0600080093EF3EF0120030
:06002A0010005FB30000AE
:10003000710F0000010000005AB300005A0F0000C9
:100040000500000057B30000FD01000003000000A0
:1000500053B30000630F00000400000052B300001F
:10006000700F00000100000051B300006F0F00008E
:10007000010000004FB300006B0F00000200000001
:100080004EB300006E0F00000100000071B20000CE
:1000900000020000DD0000006FB20000690F0000E8
:1000A0000200000091B100006D0F0000010000008F
:1000B0006BB200005F0F00000400000065B200009A
:1000C000F70100000600000021720000FF0D000093
:1000D00001000000D99F0000FF00000001000000A7
:0C00E00063B20000670F00000200000087
:0400EC00D5EC0CF053
:1000F000140EE126180EA0EC0DF0A00E20EC0FF06F
:100100000A0EDB6AFBEC0DF00D0EDB6A0F0E91ECB4
:100110000EF00E0EF3CFDBFFFE0EDB5004E144ECDD
:100120000DF06F0E16D0FE0EDB0404E144EC0DF072
:100130007E0E0FD0FE0EDB50020804E144EC0DF001
:100140008D0E07D0FE0EDB5003080AE144EC0DF0E3
:100150009C0EC3EC0CF00B0EA8EC0CF0040EDB6A4A
:10016000DF6A0A0EDF5C0DE2D950010F7EEC0FF062
:100170000C0F54EC0EF0180EEE26000EED22DF2AC6
:10018000F0D7140EE15C02E2E16AE552E16E08EF9D
:100190000FF0D5EC0CF0E652DF6A040EDF5C05E2EE
:1001A000DFCFE6FF49EC0EF0F8D7C1EC0EF0DF6AC6
:1001B000040EDF5C03E2B2EC0FF0FAD7E55208EF71
:1001C0000FF0D5EC0CF0610E3EEC0FF0580EADECDC
:1001D0000EF00B0E15EC0FF03F0EADEC0CF027EC13
:1001E0000FF01B0EF36EDB6E1C0EDB6A1F0EA7EC0E
:1001F0000DF00E0EAEEC0DF0870E6EEC0DF0230E32
:1002000091EC0EF0220EF3CFDBFF280EDB6AC20E5C
:10021000F36E290EDAEC0CF02A0EF3CFDBFF2B0E77
:10022000DB6A1B0E75EC0DF01F0EB5EC0DF00E0E1B
:10023000BCEC0DF0870EC3EC0DF0360E91EC0EF019
:10024000350EF3CFDBFF400EF36E3B0EF3CFDBFF3B
:100250009A0EF36E3C0EF3CFDBFF020ECAEC0DF0EC
:10026000060ED1EC0DF02D0ED8EC0DF0330EDFECB8
:100270000DF0860EE6EC0DF0490E91EC0EF0480EF6
:10028000F3CFDBFF4E0EDB6A9E0E32EC0CF01A0E43
:1002900052EC0DF04F0EE4EC0CF0490E59EC0DF061
:1002A0004C0E60EC0DF05C0E91EC0EF05B0EF3CF9B
:1002B000DBFF0101940E006FAE0E016F020E026FA4
:1002C000036B0F0E066F076B2F0E046F056B0A0E84
:1002D000096F0A6B510E0B6F0C6B0E6B010E0D6FDD
:1002E000800E67EC0DF02E0E196F1A6B2B0E176F28
:1002F000186B1B0E1C6F1D6B820E1E6F1F6B010E89
:10030000216F206FF6EC0EF001E097D1010EE66E42
:1003100058EC57F0E552F40E18EC0CF001E08DD1DA
:1003200084EC0FF0FA0E18EC0CF001E086D1E00E30
:10033000C3EC0CF05E0EB8EC0FF0FA0E18EC0CF0FB
:1003400001E07BD1C00EC3EC0CF0650EB8EC0FF0F1
:1003500056EC0FF001E071D176EC0CF056EC0FF09A
:1003600001E06BD1DF6A050EDF5C0BE258EC0EF0AA
:100370003BEC0DF0640E18EC0CF001E05ED1DF2ACE
:10038000F2D7DE521E0EDD6EDF6A050EDF5C11E273
:1003900059EC0FF001E051D159EC0FF001E04DD1D3
:1003A00088EC0FF001E049D10F0EB9EC0CF0DF2A18
:1003B000ECD7DE52140EDD6EDF6A050EDF5C1CE248
:1003C000A0EC0FF05C0E69EC0EF017EC0EF0DFEC19
:1003D0000CF001E032D117EC0EF0DFEC0CF001E094
:1003E0002CD117EC0EF050EC0EF001E026D10F0EE0
:1003F000B9EC0CF0DF2AE1D7DE52960EDD6EDF6A33
:10040000030EDF5C18E259EC0FF001E016D159EC55
:100410000FF001E012D188EC0FF001E00ED13C0E9C
:10042000146E010EDBCFE7FF1450E75E010EE7CF3D
:10043000DBFFDF2AE5D75EEC0EF0DE520A0EDD6E42
:10044000DF6A020EDF5C11E259EC0FF001E0F5D03B
:1004500059EC0FF001E0F1D088EC0FF001E0EDD0A5
:10046000280EB9EC0CF0DF2AECD7500EF2EC0CF0B1
:100470009E0E32EC0CF04B0EE4EC0CF0600EF7EC40
:100480000CF0350E046F056B5EEC0EF059EC0FF0BE
:1004900001E0D3D059EC0FF001E0CFD088EC0FF0A1
:1004A00001E0CBD0280EB9EC0CF0400EF2EC0CF0D1
:1004B000AE0E32EC0CF0530EE4EC0CF0600EF7ECE8
:1004C0000CF05EEC0EF059EC0FF001E0B6D059ECF8
:1004D0000FF001E0B2D088EC0FF001E0AED017ECE5
:1004E0000EF0800EF2EC0CF0BE0E32EC0CF0610E51
:1004F000F7EC0CF0360E046F056B5EEC0EF0CCECF6
:100500000FF001E09AD0C6EC0EF0200E52EC0DF088
:10051000540EE4EC0CF0480E59EC0DF04B0E60EC70
:100520000DF0600EF7EC0CF081EC0FF0320E18ECD1
:100530000CF001E082D005EC0DF0150E066F076B94
:100540003E0E046F056B040E096F0A6B500E0B6FA5
:100550000C6B81EC0FF0DF6A0A0EDF5C10E275ECC9
:100560000FF037EC0CF0A4EC0FF067E194EC0FF017
:1005700037EC0CF0A4EC0FF060E1DF2AEDD7A0EC33
:100580000CF0DF6A1E0EDF5C0CE275EC0FF0D8ECAD
:100590000EF053E194EC0FF0D8EC0EF04EE1DF2AB0
:1005A000F1D7200E93EC0DF06D0EC8EC0CF0DF6A65
:1005B000050EDF5C11E258EC0EF0A0EC0CF0D95007
:1005C000150F54EC0EF0200EB7EC0EF0320E18ECB6
:1005D0000CF033E1DF2AECD727EC0FF0DF6A050ED1
:1005E000DF5C0CE258EC0EF0A0EC0CF03BEC0DF0F4
:1005F000320E18EC0CF021E1DF2AF1D7FA0E18ECDC
:100600000CF01BE1D950280F09EC0CF0180E010179
:100610001C6F1D6BAB0E67EC0DF02E0EBCEC0FF0DB
:10062000CCEC0FF00AE10101D90E67EC0DF03C0EA5
:10063000BCEC0FF056EC0FF002E0010E01D0000E02
:10064000146E610EE15C02E2E16AE552A5EF0CF086
:10065000D5EC0CF0610E12EC0DF0800EEAEC0EF011
:10066000AA0EEBEC0CF04D0E0BEC0DF0140EEDECB5
:100670000DF0270EF36E0D0EF3CFDBFF0E0E91EC97
:100680000EF0100EDAEC0CF00F0EF3CFDBFFAD0E18
:1006900093EC0DF0860E0CEC0FF00A0E2CEC0FF024
:1006A000450EF36E1B0EF3CFDBFF1C0EDB6A280E2C
:1006B000A7EC0DF0480EAEEC0DF0470E6EEC0DF011
:1006C000010EF36E230EDAEC0CF0220EF3CFDBFFFB
:1006D0000D0EF36E280EF3CFDBFF4F0EF36E290ED7
:1006E000F3CFDBFF0A0EF36E2A0EF3CFDBFF2B0EE8
:1006F000DB6A590E75EC0DF03B0EB5EC0DF0480EB3
:10070000BCEC0DF03B0EC3EC0DF0010EF36E360E9B
:10071000DAEC0CF0350EF3CFDBFFC00EF36E3B0EC0
:10072000F3CFDBFFE50EF36E3C0EF3CFDBFF090EDC
:10073000CAEC0DF09C0ED1EC0DF0390ED8EC0DF09A
:10074000310EDFEC0DF0190EE6EC0DF0010EF36E3C
:10075000490EDAEC0CF0480EF3CFDBFFF90EF2ECA9
:100760000CF0E50E47EC0FF0090EF36EB1EC0EF055
:100770009C0E52EC0DF0260EE4EC0CF06A0E59ECD7
:100780000DF0190E60EC0DF0010EF36E5C0EDAEC5C
:100790000CF05B0EF3CFDBFF0101600E266FA00EA5
:1007A000276F090E286F296B6F0E2C6F2D6B280E8B
:1007B0002A6F2B6B0D0E2F6F306B030E316F326B68
:1007C000010E346F336F950E396FA00E3A6F090E1C
:1007D0003B6F3C6B6F0E3F6F406B150E3D6F3E6B7A
:1007E000430E426F436B030E446F456B010E476F20
:1007F000466FEB0E4C6F9E0E4D6F090E4E6F4F6B9A
:10080000110E526F536B506F516B780E556F566BC4
:10081000020E576F586B010E5A6F596F750E5F6F4E
:10082000A50E606F0A0E616F626B140E656F666BCA
:10083000100E636F646B8F0E686F696BBC0E6A6F0E
:100840006B6B010E6D6F6C6F8D0E726F470E736F59
:100850000A0E746F756B0C0E786F796B3B0E766FAA
:10086000776B060E7B6F7C6B0F0E7D6F7E6B010EC0
:10087000806F7F6FBF0E856F0E0E866F0A0E876FBB
:10088000886B090E8B6F8C6B410E896F8A6B060E1D
:100890008E6F8F6B1D0E906F916B010E936F926F29
:1008A0005F0E986F140E996F0A0E9A6F9B6B090E6C
:1008B0009E6F9F6B410E9C6F9D6B060EA16FA26B8E
:1008C0002C0EA36FA46B010EA66FA56FAB69190E5A
:1008D000AC6F0A0EAD6FAE6B090EB16FB26B1A0E34
:1008E000AF6FB06B060EB46FB56B3A0EB66FB76BE9
:1008F000010EB96FB86FC00EBE6F9A0EBF6F090EB2
:10090000C06FC16BC46FC56B3C0EC26FC36B060E6C
:10091000C76FC86B490EC96FCA6B010ECC6FCB6F26
:10092000FC0ED16F9A0ED26F090ED36FD46BD76FB6
:10093000D86B3C0ED56FD66B420EDA6FDB6B490E6F
:10094000DC6FDD6B010EDF6FDE6FF6EC0EF001E0A9
:10095000AAD084EC0FF0CCEC0FF001E0A4D0D95079
:10096000150F09EC0CF0DF6A0A0EDF5C0EE26FEC8B
:100970000EF042EC0EF001E096D0D950150F42EC8B
:100980000EF001E090D0DF2AEFD7D950280F09EC04
:100990000CF0DF6A0A0EDF5C11E26FEC0EF07EEC09
:1009A0000FF0150F42EC0EF001E07DD0D950280F6A
:1009B00042EC0EF001E077D0DF2AECD717EC0EF016
:1009C000D8EC0FF0DF6A0A0EDF5C12E2D2EC0FF017
:1009D00042EC0EF068E117EC0EF0A4EC0FF063E1CE
:1009E000030EDF5C03E1CD0EEAEC0EF0DF2AEBD75D
:1009F0009BEC0CF058E184EC0CF0DF6A0A0EDF5C33
:100A00001DE2D2EC0FF009EC0CF017EC0EF0A4ECA8
:100A10000FF049E184EC0CF0190E18EC0CF043E1F6
:100A2000070EDF5C09E1400EC3EC0CF0470EA8ECAA
:100A30000CF00A0E7BEC0CF0DF2AE0D7010E95ECEF
:100A40000CF031E1720EE66E010EC1EC0FF02BE1FD
:100A50009BEC0CF028E1850EE66E010EC1EC0FF068
:100A600022E19BEC0CF01FE19BEC0CF01CE1980EDA
:100A7000E66E010E1BEC0EF056EC0FF014E1AB0E1F
:100A8000E66E010EC1EC0FF00EE1BE0EE66E010E39
:100A90001BEC0EF0D10EE66E010E1BEC0EF0030EF9
:100AA00095EC0CF002E0010E01D0000E146E610E08
:100AB000E15C02E2E16AE552A5EF0CF0D5EC0CF046
:100AC000200E3EEC0FF0030EDB6A130E4CEC0FF021
:100AD000040EF3CFDBFF050E2DEC0CF0060EF3CF6A
:100AE000DBFF070E2DEC0CF0080EF3CFDBFF090E39
:100AF0002DEC0CF00A0EF3CFDBFF0B0E2DEC0CF0FF
:100B00000C0EF3CFDBFF0D0E2DEC0CF00E0EF3CF21
:100B1000DBFF0F0E2DEC0CF0100EF3CFDBFF110EF0
:100B20002DEC0CF0120EF3CFDBFF130EF4CFDBFF36
:100B30004CEC0FF0140EF3CFDBFF150E2DEC0CF088
:100B4000160EF3CFDBFF170E2DEC0CF005EC0EF0BC
:100B50002DEC0CF01A0EF3CFDBFF1B0E2DEC0CF07E
:100B60001C0EF3CFDBFF1D0E2DEC0CF01E0EF3CF91
:100B7000DBFF1F0EF4CFDBFFA8EC0FF0DBCFEAFFAB
:100B80008A0EEE6E300E00EC0EF0A8EC0FF048EC82
:100B90000CF0BA0E61EC0EF04DEC0CF02C0E61EC8A
:100BA0000EF013EC0CF00A0E61EC0EF046EC0EF0B9
:100BB000280E61EC0EF0FFEC0CF0A8EC0FF021EC2D
:100BC0000CF0ADEC0FF0DBCFEAFFCA0EEE6EA40E18
:100BD00000EC0EF0ADEC0FF048EC0CF0BA0E65EC4A
:100BE0000EF04DEC0CF02C0E65EC0EF013EC0CF04E
:100BF0000A0E65EC0EF046EC0EF0280E65EC0EF0D9
:100C0000FFEC0CF0ADEC0FF021EC0CF0A2EC0EF0D0
:100C1000DBCFEAFF800E7CEC0DF0A2EC0EF048EC8E
:100C20000CF0BA0EC4EC0FF04DEC0CF02C0E41ECB5
:100C30000DF00A0E41EC0DF09DEC0CF0280EC4EC0A
:100C40000FF0FFEC0CF0A2EC0EF021EC0CF073ECCA
:100C50000EF0DBCFEAFFC00EEE6E1B0E31EC0DF096
:100C600073EC0EF0A7EC0EF073EC0EF0AAEC0EF0A5
:100C700073EC0EF013EC0CF0410EEE6EED6A73ECBB
:100C80000EF046EC0EF0500EEE6EED6A73EC0EF0C8
:100C90003CEC0CF073EC0EF021EC0CF078EC0EF068
:100CA000DBCFEAFFFC0EEE6E1B0E31EC0DF078ECA4
:100CB0000EF0A7EC0EF078EC0EF0AAEC0EF078EC4B
:100CC0000EF013EC0CF0410EEE6EED6A78EC0EF0C7
:100CD00046EC0EF08C0EEE6EED6A78EC0EF03CEC0D
:100CE0000CF078EC0EF0C8EC0FF0010EEF6E7DEC1E
:100CF0000EF0DBCFEAFFE00EEE6E370E31EC0DF0BA
:100D00007DEC0EF0A7EC0EF07DEC0EF0AAEC0EF0F0
:100D10007DEC0EF013EC0CF00A0EEE6EED6A7DEC3D
:100D20000EF046EC0EF0780EEE6EED6A7DEC0EF0F5
:100D30003CEC0CF07DEC0EF021EC0CF082EC0EF0B3
:100D4000DBCFEAFF1C0EEE6E380E31EC0DF082ECBC
:100D50000EF0A7EC0EF082EC0EF0AAEC0EF082EC96
:100D60000EF013EC0CF00A0EEE6EED6A82EC0EF053
:100D700046EC0EF0B40EEE6EED6A82EC0EF03CEC3A
:100D80000CF082EC0EF021EC0CF087EC0EF0DBCFD7
:100D9000EAFFEE6A540E31EC0DF087EC0EF0A7EC92
:100DA0000EF087EC0EF0AAEC0EF087EC0EF0FAECE9
:100DB0000EF087EC0EF046EC0EF0780EEE6EED6A5B
:100DC00087EC0EF03CEC0CF087EC0EF021EC0CF014
:100DD0008CEC0EF0DBCFEAFF3C0EEE6E540E31ECE5
:100DE0000DF08CEC0EF0A7EC0EF08CEC0EF0AAECF3
:100DF0000EF08CEC0EF0FAEC0EF08CEC0EF046ECF3
:100E00000EF0B40EEE6EED6A8CEC0EF03CEC0CF0D5
:100E10008CEC0EF021EC0CF066EC0FF0DBCFEAFF6F
:100E2000800EEE6E2F0E00EC0EF066EC0FF0D1ECA3
:100E30000EF066EC0FF04DEC0CF0690EEE6EFFEC70
:100E40000EF013EC0CF0280EEE6EFFEC0EF0CFEC73
:100E50000FF0FFEC0EF0FFEC0CF066EC0FF021EC65
:100E60000CF06BEC0FF0DBCFEAFF210E7CEC0DF009
:100E70006BEC0FF0D1EC0EF06BEC0FF04DEC0CF0D6
:100E8000310EEE6E02EC0FF013EC0CF0320EEE6E43
:100E900002EC0FF0CFEC0FF002EC0FF03CEC0CF09A
:100EA0006BEC0FF021EC0CF05CEC0FF0DBCFEAFF09
:100EB000520E7CEC0DF05CEC0FF0D1EC0EF05CEC23
:100EC0000FF04DEC0CF02E0EEE6EED6A5CEC0FF0B8
:100ED000FAEC0EF05CEC0FF0CFEC0FF0ED6A5CEC8E
:100EE0000FF03CEC0CF05CEC0FF021EC0CF061EC42
:100EF0000FF0DBCFEAFFE10EEE6E170EEE6E070E7F
:100F0000EE6EEE6A61EC0FF0D1EC0EF061EC0FF0DA
:100F10004DEC0CF0310EEE6EED6A61EC0FF013EC5F
:100F20000CF098EC0DF061EC0FF0CFEC0FF0ED6AE7
:100F300061EC0FF03CEC0CF061EC0FF021EC0CF0EC
:100F400070EC0FF0DBCFEAFF120EEE6E180EEE6EB5
:100F5000070EEE6EEE6A70EC0FF0D1EC0EF070EC56
:100F60000FF04DEC0CF02E0EEE6E05EC0FF013ECC6
:100F70000CF05E0EEE6E05EC0FF0CFEC0FF005EC12
:100F80000FF03CEC0CF070EC0FF021EC0CF076EC78
:100F90000CF0DCEC0EF001E0B4D00A0EDBCFE6FF83
:100FA0000B0E1AEC0CF00C0EDBCFE6FF0D0E1AEC5C
:100FB0000CF0DF6A190EDF5C0EE2CBEC0EF01AECDF
:100FC0000FF001E09ED033EC0FF01AEC0FF001E0CF
:100FD00098D0DF2AEFD7DF6A190EDF5C14E2CBEC82
:100FE0000EF013EC0EF0190F18EC0CF001E089D0A4
:100FF00033EC0FF013EC0EF0190F18EC0CF001E0CD
:1010000080D0DF2AE9D77D0E18EC0CF001E079D012
:10101000CBEC0EF0CCEC0FF074E1DCEC0EF071E1F7
:1010200076EC0CF09BEC0CF06CE18AEC0DF0460ECB
:10103000DF5C10E232EC0EF00E0EDBCFE6FF0F0E9F
:10104000F9DB100EDBCFE6FF110E21EC0EF059E1BB
:10105000DF2AEDD79BEC0CF054E136EC0DF015ECEB
:101060002AF066EC0FF0DFDBEECF14F0EFCF15F0D7
:10107000153421E214500008000E15541CE266ECF1
:101080000FF0D4EC0EF061EC0FF0D4EC0EF070EC3D
:101090000FF0D4EC0EF06BEC0FF0D4EC0EF05CEC37
:1010A0000FF0D4EC0EF076EC0CF032EC0EF0140EE7
:1010B000BFDBD7E026D08AEC0DF0460EDF5C1AE2EB
:1010C00032EC0EF01C0EDBCFE6FF1D0EB3DB1E0E66
:1010D000DBCFE6FF1F0EAEDB120EDBCFE6FF130EFB
:1010E000A9DB140EDBCFE6FF150E21EC0EF009E1B3
:1010F000DF2AE3D736EC0DF015EC2AF0F6EC0EF013
:1011000003E0010EC3EC0CF0040EDBCFE6FF050E8E
:10111000C9DB060EDBCFE6FF070EC4DB080EDBCF14
:10112000E6FF090EBFDB0A0EDBCFE6FF0B0EBADBD4
:101130000C0EDBCFE6FF0D0EB5DB0E0EDBCFE6FFB0
:101140000F0EB0DB100EDBCFE6FF110EABDB120E85
:10115000DBCFE6FF130EA6DB140EDBCFE6FF150E8A
:10116000A1DB160EDBCFE6FF170E9CDB180EDBCFE4
:10117000E6FF190E97DB1A0EDBCFE6FF1B0E92DBA4
:101180001C0EDBCFE6FF1D0E8DDB1E0EDBCFE6FF58
:101190001F0E88DB020EDB50146E200EE15C02E2B3
:1011A000E16AE552D2D3D5EC0CF0620E3EEC0FF0C2
:1011B000100ECEDB050E51EC0FF0090E1CEC0DF0FD
:1011C000070EDB6A080EDB6A500EF36E0C0EF3CFCF
:1011D000DBFF25EC0DF0140E0CEC0FF0AD0EF36EF2
:1011E000170E17EC0DF005EC0EF0DB6A120EF4ECA6
:1011F0000DF0F36E1A0EF3CFDBFF1B0EDB6A420E0F
:10120000F36E1F0EF3CFDBFF200EDB6A960EF36E3C
:10121000210EF3CFDBFF220E91EC0EF0240ECADB81
:10122000230EF3CFDBFFE00EF36E290EF3CFDBFFCF
:10123000B70EF36E2A0E17EC0DF02B0EF3CFDBFF7B
:101240002C0E11EC0FF02F0EF3CFDBFF300E11EC54
:101250000FF02D0EF3CFDBFF2E0EDB6A320EDB6AB2
:10126000330EDB6AC80EF36E340EF3CFDBFF350EA0
:1012700091EC0EF0370E9EDB360ED9DB3C0EF3CF31
:10128000DBFFB80EF36E3D0ED2DB3E0EF3CFDBFF7D
:101290003F0E11EC0FF0420EF3CFDBFF430E11ECCB
:1012A0000FF0400EF3CFDBFF410E11EC0FF0450EB7
:1012B000F3CFDBFF460EDB6AC80EF36E470EF3CFAB
:1012C000DBFF480E91EC0EF04A0E74DB490EF3CFB3
:1012D000DBFF300E47EC0FF0B80EF36E500EA7DBBD
:1012E000510EF3CFDBFF520E11EC0FF0550EF3CF82
:1012F000DBFF560E11EC0FF0530EF3CFDBFF540E55
:10130000DB6A500EF36E580EF3CFDBFF590EDB6A2B
:10131000C80EF36E5A0EF3CFDBFF5B0E91EC0EF0AE
:101320005D0E48DB5C0EF3CFDBFF0101580EE46F6E
:10133000B80EE56F080EE66FE76B280EEA6FEB6BF1
:10134000E86FE96B780EED6FEE6BC80EEF6FF06B28
:10135000010EF26FF16FCADA010EE66E65EC28F04D
:10136000E5526FEC0EF018DBDF6A510EDF5C4BE2EA
:10137000BDDAD950030F7EEC0FF0290F4ADAF0ECFA
:101380000EF0E40EE66E010E1BEC0EF0D950020FCB
:1013900003DBD950070F54EC0EF0020EEE26000EC0
:1013A000ED22D950030F76DBEE5AEE5AEE5A0C0EB0
:1013B000DB060D0E01E2DB06D950340F6BDBED5A74
:1013C000D950470F67DBED5AD9505A0F63DBED5AFE
:1013D0000101EF07F05B2F0EDB2A300E01E3DB2A61
:1013E000420EDB2A430E01E3DB2A550EDB2A560EA2
:1013F00001E3DB2AEA2B000EEB23140EDF2418DABC
:1014000031E1DF2AB2D732DB56EC0FF02BE1470E89
:10141000DB2A480E01E3DB2A5A0EDB2A5B0E01E3CE
:10142000DB2ADF6A050EDF5C1BE2F0EC0EF0D95020
:10143000160FEFD9100EDF02F350146E156AFF0E6F
:10144000D8801456000E15561450F2D90BE1D9501D
:10145000160F54EC0EF01D0EB7EC0EF0DF2AE2D79B
:101460006ADA02E0010E01D0000E146E620EE15C39
:1014700002E2E16AE55269D298DA3D0ED3DA200E33
:1014800082DAE70EADEC0EF0C00EF36E060EF3CF6F
:10149000DBFF320EF36E070EF3CFDBFF030E9BDA9A
:1014A000600EF36E0A0EF3CFDBFF7E0EF36E0B0EB3
:1014B000F3CFDBFF030EF36E0C0EF3CFDBFF0D0E4D
:1014C000DB6A0E0EDB6ACA0EF36E0F0EF3CFDBFF84
:1014D000030EF36E100EF3CFDBFF110EDB6AA00ECE
:1014E000F36E120EF3CFDBFF0B0EF36E130EF3CF82
:1014F000DBFF040EF36E140EF3CFDBFF150EDB6A79
:10150000400E0CEC0FF04D0EF36E170EF3CFDBFF19
:10151000040EF36E7ADBDB6A400EF36E1A0EF3CF25
:10152000DBFF980EF36E1B0EF3CFDBFF040E5CDBCC
:10153000E00EF36E1E0EF3CFDBFFE30EF36E1F0E15
:10154000F3CFDBFF040ECADA790EF36E220E62DBF4
:10155000230E60DB240EF3CFDBFF690EF36E250E46
:10156000F3CFDBFF690EF36E260EF3CFDBFF780EB1
:10157000F36E270EF3CFDBFF780EF36E280E4ADBF7
:10158000290EF3CFDBFF8ADAD0DB220EDB508BECA7
:101590000FF0A00EAADA330EDB6A340EDB6A310ECE
:1015A000F36E350EF3CFDBFF360EDB6A380EB9DB98
:1015B000370EF3CFDBFF9AD9DF6A050EDF5C11E24D
:1015C000010EDB6A080E9FDA0AE239EC0FF03C0EDE
:1015D000146E29DB145C93D9010EDB2AF3D7DF2AC2
:1015E000ECD7DF6A050EDF5C11E2010EDB6A080E44
:1015F0008ADA0AE239EC0FF0280E1AD902E0010E5D
:1016000007D0010EDB2AF3D7DF2AECD76FD9000E03
:10161000146E3D0EE15C02E2E16AE55296D1C5D955
:10162000150E00DAD0DB5A0E15EC0FF0500E95D9DE
:101630005DD9DF6A050EDF5C1AE2010EDB6A0A0E75
:1016400062DA12E284EC0FF029DA400EEE26380E50
:10165000EE22000EEE22EE22500EEAD802E0010E3B
:1016600008D0010EDB2AEBD7AEDBDF2AE3D73ED969
:10167000000E146E150EE15C02E2E16AE55265D1DE
:1016800094D9150ECFD9F2D9C00E7DD9670E60D985
:10169000370E31D9A00E9FD94F0EBDD9280E9DDA35
:1016A000280E5BD923D9C80E2AD9DF6A150EDF5C54
:1016B00022E284EC0FF0DF5001E163DBDF5012081F
:1016C00002E2640E01D03C0E1AD9E8D9500E01DBBB
:1016D00084EC0FF0DF50120802E2640E01D03C0EE1
:1016E0000ED9DCD9B00EEE26630EEE22000EEE22ED
:1016F000EE22DF2ADBD7C9EC00F0150EE15C02E236
:10170000E16AE552E16E84D350D9160EE126AED9D6
:10171000E00E1ED9430EC5DB2C0E8ED9A00E10DABA
:101720000C0EDB6A92D9E66A71EC28F0E552DF6AAA
:10173000040EDF5C04E2DFCFE6FFABDAF9D721DB92
:10174000DF6A040EDF5C03E2B2EC0FF0FAD7DF6A67
:10175000130EDF5C0FE2D950030FD0DB030FA4DAC6
:10176000EE52960EEE26000EEE22EE22640EC7D842
:10177000DF2AEED7DF6ADF50146E156AD890155055
:1017800004E6FF0E145C000E15581EE24FEC3FF00D
:10179000DE52F3CFDEFFF4CFDDFFDD52010EDBCFF3
:1017A000E9FF020EF5DBEF500BE0DFCFE6FFE66A64
:1017B00041EC58F0E552E552C80EA1D8000E05D014
:1017C000640E9DD8DF2AD7D7010E146E160EE15C89
:1017D00002E2E16AE552B9D049D9020EE66E96EC12
:1017E0004EF0E5526BEC57F0E1EC00F0000910E12F
:1017F00028EC03F000090CE15EEC05F0000908E1BB
:10180000D2DC000905E138DE000902E108DF000949
:101810001200E66E000EDA201BEF0EF091DB2E0EAA
:1018200058DA50EF0EF0DBCFEAFF090EBDEF0EF0F5
:10183000E66E81D3DBCFE6FFA5EC56F0E552E5522C
:101840001200DBCFEAFF0D0E98DA010EEF6E1200E8
:1018500077DB5C0E8CDA50EF0EF0F4CFDBFF130E6B
:101860004CEF0FF014DB020EF36EB1EF0EF0000E32
:10187000E66E010E1BEF0EF0DBCFEAFF0E0E7DDAF7
:10188000010EEF6E1200DBCFEAFFA00E69EF0EF043
:10189000DBCFEAFF060EBDEF0EF0DBCFEAFF040E52
:1018A000BDEF0EF0DBCFE6FFA8EC57F0E552E552B6
:1018B0001200D950020F146EDACF15F0010EDB5072
:1018C000040D1450F324E96EDA50F420EA6E2DDA98
:1018D000D950220F146E010EDB500F011424E96E53
:1018E000000EDA20EA6EEF508BEF0FF0E66A76EC2E
:1018F00000F0E5521200D5DA050EDB6A1200E66E42
:101900008AEC4EF0E5521200260EE66E010E93D9D7
:10191000390EE66E010E8FD94C0EE66E010E8BD994
:101920005F0EE66E010E1BEF0EF0E66ECCEC4EF095
:10193000E55200091200E668FED2020EBDEF0EF07D
:10194000130EE66E010E1BEF0EF0E16E145060D226
:10195000F36E030EF3CFDBFF1200F36E0D0EF3CF29
:10196000DBFF0E0EDB6A100EDCD90F0EF3CFDBFFB0
:101970001200146E010EDBCFE7FF1450E726010EB4
:10198000E7CFDBFF1200F36E020EF3CFDBFF120096
:1019900043DA020E2CEF0FF0E66E000EDA20E66E50
:1019A00074EC28F0E552E5521200D9CFE6FFE1CF02
:1019B000D9FF1200F3CFDBFF010EF36E1200C0DA85
:1019C0002E0ED5D950EF0EF0F36E520EF3CFDBFF93
:1019D000530EDB6A1200F36E080EF3CFDBFF090E25
:1019E000DB6A1200F36E4E0EF3CFDBFF1200010133
:1019F0000027090E0123000E022303231200DBCF70
:101A0000EAFF0E0EBAD9EF6A12000101E00E006F74
:101A1000130E42EF0FF0F36E060EF3CFDBFF070E4F
:101A2000DB6A1200E126DF6A010EDB6A1200F3CFE7
:101A3000DBFF080EF36E120003DAF00EF36E090EF0
:101A4000F3CFDBFF0A0EDB6A12000D0EDB6A0E0E0F
:101A5000DB6A0F0EDB6A110E64D9100EF3CFDBFFC9
:101A60001200EE6E0B0EEE6EEE6A1200E66A65EC88
:101A700028F0E5521200D950150F16D9200E69EF43
:101A80000EF082DAC8EF0FF0800EF36E010EF3CF86
:101A9000DBFF120009D9EE06000E1200D950020F2A
:101AA00054EF0EF0F36E540EF3CFDBFF550EDB6AEE
:101AB0001200F36E570EF3CFDBFF580EDB6A1200F5
:101AC000F36E590EF3CFDBFF5A0EDB6A1200136F71
:101AD0007D0E146F020E156F166B1200F36E200E42
:101AE000F3CFDBFF210EDB6A1200F36E2E0EF3CF75
:101AF000DBFF2F0EDB6A1200EE6E420EEE6E060E5C
:101B0000EE6EEE6A1200F36E010EDBCFF4FFF350BF
:101B1000F45C1200010EE66E65EC28F0E55215EC5F
:101B20002AF0DF6A1200F36E150EF3CFDBFF12000E
:101B30002D0EEE6EED6A12003C0EEE6EED6A120096
:101B4000F36E070EF3CFDBFF080EDB6A1200F36EB5
:101B5000190EF3CFDBFF1A0EDB6A1200F36E1E0EB6
:101B6000F3CFDBFF1F0EDB6A1200F36E2C0EF3CFF8
:101B7000DBFF2D0EDB6A1200F36E310EF3CFDBFFBD
:101B8000320EDB6A1200F36E330EF3CFDBFF340E3E
:101B9000DB6A1200F36E3D0EF3CFDBFF3E0EDB6A15
:101BA0001200F36E410EF3CFDBFF420EDB6A120030
:101BB000F36E3F0EF3CFDBFF400EDB6A1200F36ED5
:101BC000440EF3CFDBFF450EDB6A1200F36E460EC8
:101BD000F3CFDBFF470EDB6A1200F36E0B0EF3CF81
:101BE000DBFF0C0EDB6A1200F36E1C0EF3CFDBFF83
:101BF0001D0EDB6A12000B0EDB6A0C0EDB6A120094
:101C0000EE6E050EEE6EEE6A1200180EF3CFDBFFDD
:101C1000190E1200F3CFDBFF790EF36E1200960E51
:101C2000EE6EED6A1200040EDF02F3501200D9507E
:101C30003B0F09EF0CF0E66EA5EC56F0E552E552CD
:101C40001200F8DD43D91FDE46D91DDE35D91BDE73
:101C500038D919DE45D917DED950030F9DDE820E23
:101C600018EF0CF0160EDBCFE6FF170EE3DD180EB3
:101C7000DBCFE6FF190EDEDD1A0EDBCFE6FF1B0E13
:101C80001AEF0CF0C6DD190E18EF0CF0CCDD9DEF4D
:101C90000CF076EC00F0E552320E31DEDF2A120055
:101CA000010EDBCFE6FF47D1E96EDACFEAFF120083
:101CB000D950280F23D9150F09EF0CF079D937EF38
:101CC0000CF0EE6EED6AA8EF0FF0EE6EED6AADEF80
:101CD0000FF0EE26000EEE22EE22EE22120006DEBD
:101CE000D950020F12000A0EDBCFE9FF0B0E1200D3
:101CF0000C0EDBCFE9FF0D0E12000E0EDBCFE9FF5D
:101D00000F0E1200100EDBCFE9FF110E1200120EA3
:101D1000DBCFE9FF130E1200140EDBCFE9FF150E27
:101D20001200DB6A010EF36E12002A0EEECFDBFF0B
:101D30002B0EEECFDBFF2C0EEECFDBFF2D0EEECF0A
:101D4000DBFF1200080EDBCFE9FF090E1200A0DD59
:101D500098EF0DF0A2DD9CEF0DF0FADD020E7BEFA7
:101D60000CF0500EF3CFDBFF510EDB6A1200EE5E7B
:101D7000000EEE5AEE5AEE5A1200E926000EEA2242
:101D80001200FA0EBCDDFA0E7FEF0CF0C00E2ADE58
:101D9000CE0E32EF0CF0060EDBCFE6FF070E1AEF89
:101DA0000CF076DD0FEF0EF03EDDEE06ED5A120080
:101DB000A8D8050E18EF0CF0040EDBCFE6FF050ED9
:101DC00039DDCCEF0FF0400EDEDD110EC1DD0E0E61
:101DD0007BEF0CF0D8DDB10EBBDD0A0E7BEF0CF013
:101DE000D9503C0F8BD84F0F09EF0CF07FDD010E5F
:101DF00095EF0CF018DD630EEE6EED6A1200ED6AE1
:101E000066EF0FF0ED6A6BEF0FF0ED6A70EF0FF019
:101E1000E552E7CFD9FF1200F36E160EF3CFDBFFCA
:101E20001200DB6A280EF36E1200D5DDA00EF3DD82
:101E3000FBEF0DF07D0E146EF6DE145C18EF0CF067
:101E4000F36E050EF3CFDBFF060EDB6A1200A00E69
:101E50006ADE6C0EC8EF0CF0F36E170EF3CFDBFFEB
:101E6000180EDB6A1200080EDBCFE6FF090E1AEF30
:101E70000CF0D9502A0FCDDC59EF0CF0D3DD020E57
:101E8000DB6A1200016F070E026F036B1200F36E24
:101E90004F0EF3CFDBFF1200E66E9AEC57F0E552DF
:101EA0001200F36E040EF3CFDBFF1200020E95EF6B
:101EB0000CF0BDDE0EEF0CF01A0EDBCFE9FF1B0EAF
:101EC00012001C0EDBCFE9FF1D0E1200160EDBCF39
:101ED000E9FF170E1200180EDBCFE9FF190E1200F2
:101EE0001E0EDBCFE9FF1F0E12008FDDE00E7ADD44
:101EF000210EF36E4F0E9BDDB1EF0EF08ADCD95050
:101F00001200B5DCD8EF0FF0D950020F09EF0CF03A
:101F10008EDE28EF0CF0E66ED950300FC5DEE552AC
:101F2000E750EE6EED6A12000101C00E006F060E62
:101F3000A9DFC6EF0EF0A9EC4EF0E5520009120041
:101F4000D9503B0F54EF0EF0D9504E0F42EF0EF028
:101F5000040EDBCFE9FF050E1200060EDBCFE9FF12
:101F6000070E1200030ED880DF54E66E49EF0EF024
:101F7000F4DEB5DE09EF0CF0176F186BE1DC17EF3C
:101F80000EF059DE9BEF0CF0EE6EED6AA2EF0EF054
:101F9000DBCFEAFFBDEF0EF0C80E18EF0CF076DED7
:101FA000EE6A12009CDEAADF150FA8DF280F1200D0
:081FB000D9504E0F09EF0CF0AF
:081FB800020100510AE10001E1
:101FC000020E846F240E826F6F0E836F0201010E6A
:101FD000006F800E146E000EC8EF16F00201015162
:101FE0000AE10001030E896F360E876F6F0E886F4E
:101FF0000201010E016F850E146E000EC8EF16F07F
:10200000020102510AE10001010E8E6F510E8C6F28
:102010006F0E8D6F0201010E026F8A0E146E000E9C
:10202000C8EF16F0020103510AE10001030E936F9D
:102030005A0E916F6F0E926F0201010E036F8F0E99
:10204000146E000EC8EF16F0020104510AE10001FF
:10205000030E986F750E966F6F0E976F0201010E4B
:10206000046F940E146E000EC8EF16F002010551B5
:102070000AE10001020E9D6F900E9B6F6F0E9C6F28
:102080000201010E056F990E146E000EC8EF16F0D6
:10209000020106510AE10001010EA26FA20EA06F1B
:1020A0006F0EA16F0201010E066F9E0E146E000EE0
:1020B000C8EF16F0020107510AE10001020EA76FF6
:1020C000AB0EA56F6F0EA66F0201010E076FA30E78
:1020D000146E000EC8EF16F0020108510AE100016B
:1020E000100EAC6FBD0EAA6F6F0EAB6F0201010E2A
:1020F000086FA80E146E000EC8EF16F00201095109
:102100000AE100012D0EB16F4D0EAF6F700EB06F72
:102110000201010E096FAD0E146E000EC8EF16F02D
:1021200002010A510AE10001040EB66FE20EB46F1B
:10213000710EB56F0201010E0A6FB20E146E000E21
:10214000C8EF16F002010B510AE10001030EBB6F4C
:10215000060EB96F720EBA6F0201010E0B6FB70E49
:10216000146E000EC8EF16F07EEC16F0030E42EC73
:1021700017F03AEC17F0F70EF3CFDBFFF80EF4CFC1
:10218000DBFF45EC17F03AEC17F0F50EF3CFDBFF71
:10219000F60EF4CFDBFFDF6AF40EDB50DF5C36E2D5
:1021A000A0EC18F0A4EC18F0DE5209EC19F0DD52A6
:1021B000F5EC18F04CEC17F0A4EC2CF0146E060EB5
:1021C000E15E1450A1EC16F0F350EE261550ED220E
:1021D000A1EC16F0020EDFEC18F0F350EE261550CD
:1021E000ED22E66A45EC17F028EC17F0F350E66EA6
:1021F0004CEC17F017EC45F0FFEC17F098EC16F0EC
:1022000047EC16F0C4EC16F0DF2AC6D7030EE15CEB
:1022100002E2E16AE55275EF16F07CEC19F004EC8D
:1022200017F0D8EC16F0EDEC18F0520EE66EAC0E8E
:10223000C2EC17F063DFCFEC17F002E2E16AE5527F
:1022400075EF16F07CEC19F0060E04EC17F0020E98
:10225000D8EC16F00A0EEDEC18F07C0EE66EAC0E23
:10226000C2EC17F05DDFCFEC17F002E2E16AE55255
:1022700075EF16F07EEC16F0060EE126050EE66E02
:10228000010EA4EC18F0040EF3CFDBFF050EF4CF23
:10229000DBFFE3EC18F053EC17F05AEC19F0040EE6
:1022A00034EC18F0E66A1E0E23EC18F0E66EE66ACF
:1022B000E66EE66A76EC19F0020E52EC16F0D6DE07
:1022C00004EC18F00EEC4CF01C6E090E28EC18F023
:1022D000E3EC18F0020EC2EC18F05AEC19F053ECD3
:1022E00017F05CEC16F0C4EC16F0020EC2EC18F01D
:1022F0005CEC16F05AEC17F0060EE15C02E2E16AC3
:10230000E55275EF16F0FDEC18F0640EE66EE66A25
:1023100028EC17F0DCEC17F0D890F45004E60A0E25
:10232000145C000E155807E247EC16F04DEC18F05F
:1023300074DFCCEC16F0020EE15C02E2E16AE552D9
:1023400075EF16F0FDEC18F047EC16F04DEC18F0B8
:1023500079DFCCEC16F0020EE15C02E2E16AE552B4
:1023600075EF16F030EC18F0060EE66E020E7CECFF
:1023700017F0030EE66E70EC17F00F0E74EC17F00A
:102380004DEC18F0F1DE6BEC17F02CEC18F0020EAF
:10239000E15C02E2E16AE55275EF16F07EEC16F0C0
:1023A000D4EC16F0AEEF17F07EEC16F0050E16EC3E
:1023B00019F0AEEF17F07EEC16F0080E78EC18F07E
:1023C00006C0DEFF07C0DEFF08C0DEFF09C0DDFF7C
:1023D000DD52DD52E6EC16F00CEC17F0020EDBCF0E
:1023E00014F0030EDBCF15F0060EDBCF16F0070E50
:1023F000DBCF17F015501718E8AE02D0173404D011
:102400001650145C1750155826E2F7EC17F0040E1E
:10241000E66ED950040F40EC18F0D9CFE9FFDACFBF
:10242000EAFF83EC16F0D5EC2EF01C6E090EE15E8F
:102430001C50D1EC16F02CDEF3CF1DF0F4CF1EF0C3
:1024400085EC18F01F6E0D0EE15E1F50DCEC17F0EE
:102450004BEC18F002D033EC17F0080EE15C02E20E
:10246000E16AE55275EF16F07EEC16F00A0E78EC94
:1024700018F0020E06C0DBFF030E07C0DBFF040EE0
:1024800008C0DBFF050E09C0DBFFE6EC16F0060E08
:1024900006C0DBFF070E07C0DBFF080E08C0DBFF2E
:1024A000090E09C0DBFF040E6FEC16F0040EE66E99
:1024B000D950060F40EC18F0D950020F40EC18F03C
:1024C000D5EC2EF0166E090EE15E1650DCEC17F01E
:1024D0006BEC18F0E66A040E23EC18F0040EDBCF68
:1024E00018F0050EDBCF19F0080EDB50185C166EE5
:1024F000090EDB501958176E16C0E6FFE66E3AEC6F
:1025000017F098EC16F0020EDBCF1EF0030EDBCFB7
:102510001FF0060EDB501E5C1C6E070EDB501F58B2
:102520001D6E1CC0E6FFE66E3AEC17F0E552E7CFF1
:1025300015F0E552E7CF14F0F3CF1AF0F4CF1BF00B
:10254000F4501518E8AE02D0153404D014501A5CBB
:1025500015501B580AE2F7EC17F0020E15EC18F0B4
:10256000D1EC16F0A7DDD8DB02D033EC17F00A0E61
:10257000E15C02E2E16AE552B8D3C0DBF7EC17F0A8
:10258000E66E050EE66E30EC4EF0E552E552D1EC0B
:1025900016F0A2DDC1DBDBEF18F030EC18F0040E12
:1025A0009EDB010EE66E040EE66EB1EC3CF0B8EC7C
:1025B00018F01AEC19F0DEEC50F0BAEC18F0E66AFC
:1025C000A80EE66E230E22EC19F0030EE66E020E44
:1025D00015EC18F0D1EC16F0B5DD9EDB020EE15CD7
:1025E00002E2E16AE55281D3BEEC18F0FA0EE66E23
:1025F000E66A52EC18F0B8EC4CF0E552E552B8EC53
:1026000018F0E66A010E23EC18F02C0E3AEC18F0E4
:10261000680EE66E240E1EEC19F004DD97EC19F03E
:1026200002E2E16AE55261D3A5EC17F019EC17F06C
:10263000CEEC18F002E2E16AE55257D3A5EC17F0B0
:10264000440EE66E230EE66ECEEC18F002E2E16A6E
:10265000E5524BD39AEC19F0B1EC3CF0ACEC18F02D
:1026600002E2E16AE55241D39AEC19F030EC4EF007
:10267000ACEC18F002E2E16AE55237D388EC18F0CE
:10268000010EE66E030EE66E68EC19F0640EE66E5F
:10269000230EE66E9A0EE66E250E78EC17F0050E08
:1026A000E66E020EFFDAACDC97EC19F002E2E16AAA
:1026B000E5521BD37CEC19F0060E34EC18F0900EAA
:1026C00016EC19F0ADEC52F0BAEC18F02EEC47F025
:1026D00027EC19F0040EEEDA740EE66E220EE66EAA
:1026E000B60EE66E230E1EEC19F0AEDCC2DAC8ECB4
:1026F00018F0130EDFEC18F0010EEF6E020E82ECF4
:1027000017F002E2E16AE552F0D2F8DA080EBADB1D
:10271000F60EDB5003E0A00E146E01D0146A156AA9
:1027200014C0E6FF15C0E6FF6FEC57F0FFEC17F0A2
:1027300073DB060ED4DA92EC19F0F40E3AEC18F0D2
:1027400087EC19F0E66ED950040F40EC18F08DECD0
:1027500019F08DDBB1DAB7DAD5EC2EF01A6E090E6E
:10276000E15E1A50DCEC17F06BEC18F0020EC2ECD4
:1027700018F08DDAE8EC24F0FFEC17F0080EE15CBD
:1027800002E2E16AE552B1D288EC18F037DBB1EC35
:102790003CF0B8EC17F04DDB640EE66EA30EA8DB40
:1027A000010EE66E020E7EDA19DC02EC19F0020E62
:1027B000C8EC18F00E0EDFEC18F05E0EEE6EA30EF5
:1027C000ED6EA4DB9FDB02E2E16AE5528ED230ECD3
:1027D00018F0F80EDB5003E0DE68DD6803D0010E70
:1027E000DE6EDD6ACCDAE0DA67DA51DA8EDF146E9B
:1027F000090EE15E1450C3DA21DBDECF16F0DDCF27
:1028000017F0190EDEDBBBDAEEDADECF16F0DDCF25
:1028100017F0320ED6DB020EE15C02E2E16AE5520D
:1028200064D230EC18F0FA0EDB5004E0010EDE6EDC
:10283000DD6A02D0DE68DD68020EE15C02E2E16A78
:10284000E55253D230EC18F0FA0EDB5004E0010EE2
:10285000DE6EDD6A02D0DE68DD68020EE15C02E257
:10286000E16AE55242D2D6DB25DBDBEF18F0D2DBA2
:10287000F1EC24F0C4DBDBEF18F040DAFB0EDBCF29
:1028800008F0FC0EDBCF09F0E10E081802E1080E9B
:10289000091801E1BED1D00E081802E1070E09188F
:1028A00001E1A8D19E0E081802E1070E091801E106
:1028B00091D1850E081802E1070E091801E182D1B5
:1028C0006C0E081802E1070E091801E178D1530EC9
:1028D000081802E1070E091801E169D13A0E08183B
:1028E00002E1070E091801E159D1080E081802E1AA
:1028F000070E091801E14ED1D60E081802E1060EA6
:10290000091801E13CD1A40E081802E1060E0918CD
:1029100001E11FD16B0E081802E1060E091801E152
:102920000DD1400E081802E1060E091801E1FCD095
:10293000CB0E081802E1050E091801E1F1D0960E40
:10294000081802E1050E091801E1DED0140E08187E
:1029500002E1050E091801E1C4D0B00E081802E129
:10296000040E091801E1AED07E0E081802E1040E33
:10297000091801E1A3D0FC0E081802E1030E0918A2
:1029800001E18CD0F90E081802E1030E091801E1EB
:1029900082D0B60E081802E1030E091801E178D0C2
:1029A000840E081802E1030E09185AE0200E0818D8
:1029B00002E1030E091850E0BC0E081802E1020EF5
:1029C000091844E08A0E081802E1020E09183AE0DC
:1029D000580E081802E1020E091828E0260E081801
:1029E00002E1020E09181FE0F40E081802E1010EC0
:1029F000091813E0900E081802E1010E09180AE008
:102A0000FA0E081801E010D1095001E00DD183DB66
:102A1000640E04D1B0DA2D0EDBD05EEC19F06E0E30
:102A2000C7DB870ED5D02BDA0A0EF6D0030EE66E82
:102A3000DAD93C0E59DA54DBB7D94B0E2DEC19F02C
:102A40005A0EC6D0020E57D9500EDED0E66A780E66
:102A5000E66EE66A8C0EB1D0010EE66EB40EAAD018
:102A6000010EE66EF00EE66EE66AE8D910D9AFDE2A
:102A700020DB010EE66EE66E97D9FB0EE66EE66889
:102A800006D9E0D9FCD9280EE66EE66A6E0E13D0A0
:102A900072DA230E9DD0CEDB160E44D0E66A780E95
:102AA000E66EE66A8C0E62EC19F003DBE66A010E54
:102AB000E66E16DA820E18DADADEB2D05EEC19F0C3
:102AC000ADDB0BD0020EE66EB9D933DBC3DD0DDB17
:102AD000500E65EC19F0EDDA020EE66EAFD9820EFB
:102AE00087D019DB780E00DAADD9010EE66EF00E54
:102AF000E66EE66A000EE6DB9DEC19F0A00E8EDBBA
:102B0000E66EEED98C0E74D095DB280EAADBE15E62
:102B1000145012DB500EABDB690E4ADB820E58D02C
:102B200089DB760E9EDB7ED0030EE5D802DBC6DAAB
:102B3000E2D8190E73DBDFD8280E5AD0FDDAD0D9CF
:102B4000A6D872DDD2DA460ECFD96EDDD0D81E0EF1
:102B500012D04B0EE66EE66A46D9EBDAB5D94B0ECB
:102B6000E66EE66A21D9820EBFD9AED983DB5CDD81
:102B700003D9E66E280EE66EE66A5A0E15D0E0DA44
:102B8000BAD8B2D95FD9020EB6D8500EADD9C7DACD
:102B9000640E0AD06FDBC8DA780E06D0020EABD80E
:102BA0005A0EA2D9C1DA410E9FD93EDD2FD0010EB7
:102BB000E66E4B0EE66EE66A140E84DB27D0DBD998
:102BC000280E06D0030EE66EEFD8500E46DB640EDC
:102BD0009BDB1CD0030E8FD83C0E86D9A0DA8C0E5E
:102BE0001DDBE66EE1D8780E70DB81D827D9640E44
:102BF0006CDB0CD0A1DA3C0E3ADB4B0ED9DA5A0E64
:102C000083DB75D86DD9490E6FD918DD146E070EA8
:102C100009D096DAE66E000EE66EE66A65D923DE26
:102C2000146E080EE15E1450C6D268D8E0D81FD9E1
:102C300087EC55F0E552E552DAD8060EEB6A070E3E
:102C4000EB6AB9D20201DC5106E12A0E0C6F2C0EA0
:102C50000D6F010EDC6FEEDA7DEC3DF0E552E552D2
:102C6000F3CF0EF2F4CF0FF20C0E146E020E156EAF
:102C70008FD0C8DA86EF17F0E552E55206C014F09F
:102C800007C015F008C016F009C017F01BD2FD0EE2
:102C9000DBCFE6FFFE0EDBCFE6FF1200E552E5528A
:102CA00027EF19F0C2D9F3CF18F0F4CF19F090DA6A
:102CB000E66A120084DA15D3FB0EDBCFE6FFFC0ECA
:102CC000DBCFE6FF12006FEC57F099D906C016F083
:102CD00007C017F008C018F009C019F0F3D1E66E6C
:102CE0009AEC57F0E55209EF19F0E16E64D2E1D9A0
:102CF000020EE66E1200E66E1AEF19F0D9CFE6FF6B
:102D0000E1CFD9FF1200EECFE6FFEECFE6FFEECF28
:102D1000E6FFEFCFE6FF1200F3CF1CF0F4CF1DF07B
:102D2000F4D91E6E0D0EE15E1E5046D94BEF18F021
:102D300043D9E8EF18F0E8EC24F061D9040EE15C27
:102D40001200B0D9F70EDBCF16F0F80EDBCF17F07C
:102D5000166C171E000E172216C0E6FF17C0E6FFFE
:102D6000A0EC54F04CD928D9010EDBCFE9FF020EBC
:102D7000DBCFEAFFDFEF18F09CD9030E1200F80E4C
:102D8000DBCFE6FF3FEF19F0E5EC24F0FFEF17F0A3
:102D900014C0F3FFF46E1200186E060EE15E1850B8
:102DA000120032D9E66A12000A0EE66EE66A1200D6
:102DB000E66E30EC4EF0E552E552FED8020EE8D950
:102DC000F3CFEEFF15C0EDFFE66A1200FB0EDBCF7E
:102DD000E9FFFC0EDBCFEAFF110E91D925EC2CF0B8
:102DE000E552E55212001E0EE66EE66A1200FD0E76
:102DF000DBCFE9FFFE0EDBCFEAFF1200010EE66E2D
:102E0000F80EDBCFE6FF1200E66E9AEC57F0E552C3
:102E10003DDA010EE66E1200040E06C0DBFF050E61
:102E200007C0DBFF060E08C0DBFF070E09C0DBFF93
:102E30001200060EE66E230EE66E1200140EE66E0B
:102E4000E66A120010DD146E080EE15E14501200E6
:102E5000F1D9A0EC54F0FFEF17F0F7EC24F0CFD845
:102E6000040EE15C120019DAEE6AED6A1200020E3D
:102E70007FEF18F0F3EC54F0E552E5521200020E29
:102E800016EF19F0E12652EF18F0F50EDBCFE6FF52
:102E9000F60EDBCFE6FF1200010EDBCFE6FF020EDF
:102EA000DBCFE6FF1200040EDBCFE6FF050EDBCF23
:102EB000E6FF1200F4EC24F0FFEF17F026DC186EAA
:102EC000090EE15E18501200F4EC12F0146E080EB8
:102ED000E15E14501200186E0B0EE15E18501200E5
:102EE000320EE66EE66A1200E66EE66A47EF16F00C
:102EF00002DFE2DE76EF19F027D98BD964D991D9B8
:102F00005AEF19F03FD9C3DE9BEF16F0020E3AD903
:102F10000DEC2CF0E552E552F3CF16F0F4CF17F09C
:102F2000166C171E000E1722F90EDB50165C146E7D
:102F3000FA0EDB501758156EF0D9020E40D914C0A6
:102F4000EEFF15C0EDFF020E1200F4D9C1D9E66AFA
:102F5000030EE66E54EC54F080EF19F048DF020ED9
:102F60002ED9D1DED2EC48F09FD989D90DDF23D1FB
:102F7000FFD892EF19F0A2D961DF89DE34EC13F0AB
:102F80009DEF19F0E66E31D9020EE66EFBD84DECDE
:102F900040F0E552E552E552CBDEE66A1200F3CF8F
:102FA00016F0F4CF17F014D905EC50F094DF31D9B6
:102FB00038D96DDE2DEF17F0F3CF14F0F4CF15F004
:102FC00012001702F3CF17F01602F3CF16F0F450E9
:102FD0001726FB0EDB50F324146EFC0EDB5017207B
:102FE000156E14C0E6FFE66E52DE5EEF17F0E66A7D
:102FF0009C0EE66E230E26D9010EE66E1200E552F7
:10300000E552E552E5521200F3CF1AF0F4CF1BF06F
:10301000E8EF18F073DEF70EDBCFE6FFB0DE4CDE34
:103020002BEC42F041D947EF16F0E66EFAD84DECA2
:1030300040F0E552E552E5521200010E81D9EEEC66
:103040000FF039EF16F0E66E54EC54F0BAEF18F0CA
:10305000E15E1C5046EF19F0E4D82EDEC4EF16F006
:103060004DDE020EE12612003ADE09DF30EC4EF0B2
:10307000B8EF18F0DBD8ADEC52F042D919EF17F0E9
:10308000E96EDACFEAFF83EF16F0020EE76E80D822
:10309000E7505AEF16F001D924D125EC2CF0ECDDE5
:1030A0005CEF16F0F70EDBCFE6FFF80EDBCFE6FFA6
:1030B0001200146E070EE15E145012002AEC13F099
:1030C000BCEF16F006C0E6FF07C0E6FF08C0E6FF4B
:1030D00009C0E6FF1200DECFE9FFDDCFEAFF01D134
:1030E00034EC13F049DEE66E120001DED4EF16F088
:1030F000E126CDDD3FEC2CF0E552E55212005FD821
:10310000EECFE6FFEFCFE6FF120062D837EF4DF0CB
:10311000F3D86FEF16F0030E89D8D4EF16F014EC45
:1031200013F0E5DD1EEF17F014EC13F025DE7BEF56
:1031300016F03ADE47EF16F0020EE66EF3EF16F0E9
:10314000040EE66E010E1200D6DDE66EE66ACED8FB
:10315000D2EC48F0CCEF16F00BDF200EE66E030E3B
:10316000E66E66EC46F0CCD864DED1D882EF17F07C
:1031700095DDB7D093DD020E5AEF16F0BDD8060EDE
:103180006FEF16F0DBCFE6FF030EDBCFE6FF12009A
:10319000DBCFE9FF030EDBCFEAFF1200680EE66E1D
:1031A000240EA6DE020ECCD8DCEC0FF097EF19F05F
:1031B000ABD89DEF19F0E552E7CFD9FF1200E92611
:1031C000000EEA22120063DD25EC2CF03CEF16F035
:1031D000F3CFE6FFF4CFE6FF1200E66E54EC54F0B6
:1031E000E552E552E9DE45EF18F0D950F90FE96EE6
:1031F000FF0EDA20EA6E83EF16F032DFA1DF7CDE0D
:103200002CEF18F001DF50EC43F01C6E0E0E28EF8F
:1032100018F0F3CFDEFFF4CFDDFF120065DE5EEFC6
:1032200018F0DECFE6FFDDCFE6FF1200E66E010EFE
:10323000E66E1200000EE66EE66A120059DE040E1B
:10324000A0EF19F058DDE66EE66A63EF16F0B4DE23
:10325000DECFE9FFDDCFEAFF120046DE41DFF3EF0C
:1032600016F042DE5AEC13F0146E060E12004CD823
:1032700075EF18F0020E3FDD280E74EF17F0F90E0F
:10328000DBCFE6FFFA0EDBCFE6FF1200020EF3CF34
:10329000DBFF030EF4CFDBFF1200F90EDBCFE9FFFB
:1032A000FA0EDBCFEAFF1200166E060EE15E165034
:1032B00098EF16F0A4EC2CF0CCEF16F0020EE66EB0
:1032C000D4EF16F011DEE7EF13F00EDE2AEF13F065
:1032D00030EC4EF04DDF2C0EA9DFADEC52F0BAEF22
:1032E00018F0F3CFEEFF15C0EDFF12006FEC57F0B2
:1032F000E552E5523CEF16F001DD040EE126120026
:10330000CDDC040E5AEF16F0EFDD34EF13F07A0E39
:10331000E66E250EEDDD1DEF18F0020E39DF020E10
:10332000DFEF18F0C9DCDEEC50F0BAEF18F0A1DCEA
:1033300082EF17F023DFFEEF16F0D9DCF3EF16F083
:08334000E66E030E52EF16F0D9
:083348000101F7510AE1020145
:10335000030EE16F7E0EDF6FAF0EE06F0101010E15
:10336000F76FDD0E146E020EE3EF1DF00101F85150
:103370000AE10201010EE66F990EE46FAF0EE56FF0
:103380000101010EF86FE20E146E020EE3EF1DF064
:103390000101F9510AE10201010EEB6FA20EE96F82
:1033A000AF0EEA6F0101010EF96FE70E146E020E07
:1033B000E3EF1DF00101FA510AE10201010EF06F85
:1033C000AB0EEE6FAF0EEF6F0101010EFA6FEC0E58
:1033D000146E020EF8D30101FB510AE10201010E45
:1033E000F56FB40EF36FAF0EF46F0101010EFB6FBA
:1033F000F10E146E020EE7D30101FC510AE1020145
:10340000010EFA6FBD0EF86FAF0EF96F0101010EDC
:10341000FC6FF60E146E020ED6D3DBEC1EF0090E16
:1034200077DBDADB87EC55F0E552E5525DEC1EF018
:1034300087EC55F0E552E552A5D39FEC1EF0070E40
:10344000E66E030EE66E49EC1EF0A0DBD2EC48F00F
:103450002DEC1EF0F3CFDEFFF4CFDDFF85DB25EC96
:103460002CF094DBB4DBA4EC2CF095EC1EF0D2DB5A
:10347000020EE15C02E2E16AE552E16E83D3D9CF4C
:10348000E6FFE1CFD9FF020EE126FD0EDBCFE9FF1B
:10349000FE0EDBCFEAFF100EE926000EEA22EECF89
:1034A00014F0EFCF15F0D9CFE6FFDACFE6FFFB0E31
:1034B000DBCFE6FFFC0EDBCFE6FFFD0EDBCFE6FF4A
:1034C000FE0EDBCFE6FF04D015C0FAFF1450F96EF4
:1034D000FBDF166E060EE15E1650D9CFE9FFDACF9C
:1034E000EAFFEE50ED100DE03FDB34EC2CF04EDB4C
:1034F0006EDBAEEC2CF095EC1EF0EBEC24F0BDECAA
:103500001EF0020EE15C02E2E16AE552E16E3AD39E
:103510003FDB0A0EE66EE66AAEDBEECFE6FFEECFED
:10352000E6FF5ADBD2EC48F0166E060EE15E16504E
:10353000F7DBDEEC1EF0F90EDBCFE6FFFA0EDBCF99
:10354000E6FF68DB1FD39ADB010EE66E14DB0EDFAD
:10355000F0DA18D393DB020EF6DB1ADFEADA12D3C5
:103560008DDB030EF0DB26DFE4DA0CD387DB040E01
:10357000EADB31DFDEDA06D3E2DB040EE66E9AEC3C
:1035800057F0E552F3CFDEFFF4CFDDFF010EE66E1C
:10359000FA0EE66E30EC4EF0CCDBE3EC1EF06BDBAB
:1035A000E8EC1EF0D4DB030E0D6E0E6A16C008F0B8
:1035B00017C009F013EC55F008C016F009C017F059
:1035C00008C0E6FF09C0E6FFC1EC33F0B2DB020E33
:1035D00071DB010EE66E840EE66E9B0E9DDAE66AE6
:1035E000020EE66EF4DA4DEC40F0E5526FDB04DFDC
:1035F000A0DA020EE15C02E2E16AE552E16EC2D2BB
:10360000C7DA0A0EE1265EEC3FF00FDB4FEC3FF02D
:10361000040EF3CFDBFF050EF4CFDBFFFFDAEE5233
:10362000EF500FE05CDBEFCF14F0060E145C15E2F8
:10363000D2DB55DBEF2A37DBE668E66895DAFCDAA1
:103640000CD04DDBEF50000808E25BDA1F0E60DAA9
:10365000EF0603E144DBEF0626DBE0DAEF5024E07F
:1036600050DA1D0E92DB000825E23DDBEF5022E12F
:103670000CDB080EEECFDBFF090EEDCFDBFF05DB29
:10368000780EEE6E350EED6EA6DBFFDA080EDBCFA0
:10369000EEFF090EDBCFEDFF34DA1D0E39DAEF064F
:1036A00022DB320EEF6E06D01EDBEF50000802E286
:1036B0001ADBEF0652DA060E68DB1BE0DCDAEE06F8
:1036C000ED5AD5DA8EDA04E7FB0E145CFF0E1558BE
:1036D00056E258DBD880155004E7F60E145CFF0E56
:1036E000155804E2C4DAF60EEE6EED683DDA78D9CC
:1036F00044D033DA070E49DB1AE0BDDAEE2AED22B8
:10370000B6DA78DA3CE214500508000E155437E2B8
:1037100039DB153409E214500A08000E155404E28E
:10372000A6DA0A0EEE6EED6A1FDA5ED926D09FDAAF
:1037300034DA0001800E151404E099DAEE2AEF2243
:1037400008D020DB153405E28DDA03E290DAEE06CC
:10375000EF5A18DB153404E31450FB08FF0E155420
:103760000EE285DAF4DAD890175004E6050E165CFE
:10377000000E175804E2F8D93BD9E552E552EDD9CD
:10378000040E03DB0DE0E8DA2CDA04E7F30E145C38
:10379000FF0E155829E2E0DAF30EEE6EED6824D044
:1037A000DCD9050EF2DA0DE0D7DA24DA1DE2145086
:1037B0000D08000E155418E2CFDA0D0EEE6EED6A0C
:1037C00013D055DAEAD90001800E171404E0C4DAE8
:1037D000EE2AEF2209D0C0DAEDD9153405E242DA3B
:1037E00003E2BADAEE06EF5ACDDA040EB8DA085080
:1037F000EE261550ED22B0DADDD9030EB0DAE8DAA4
:103800000850EE261550ED2236DAC7D90001800E99
:10381000151404E030DAEE6AED6A18D0A5D90AEC86
:103820002CF0E552E552060EB3DAECD90FE2145053
:10383000A008000E15540AE2060EDB50146E156A3D
:10384000A00EADDA14C0EEFF15C0EDFF14DAA5D955
:103850000001800E171405E00EDABADAEE6AED6A9E
:103860001AD082D90DEC2CF0E552E552070E90DA11
:10387000AFDAC8D910E21450F508000E15540BE267
:10388000070EDB50146E156AF50E89DAA1DA14C042
:10389000EEFF15C0EDFF87D910DAC6EC4BF06DDAFC
:1038A000000E146E0A0EE15C02E2E16AE552E16E7E
:1038B000145068D16DD9040EE126220EE66E9AEC02
:1038C00057F0E552B2D949D91A0EEE6E340EED6EAC
:1038D00044D97EDAFB0EDBCFEEFFFC0EDBCFEEFF32
:1038E000FD0EDBCFEEFFFE0EDBCFEEFF36D90C0E6A
:1038F0000FD93A0EEE6E340EED6E2FD90E0E08D99A
:103900007E0EEE6E340EED6E000EE66E360EE66E38
:10391000FEEC4BF054D921D9090ECCD915DD00DAD3
:103920001CD9060EC7D98BD998EC2CF0E552E5527C
:1039300086D924EC35F043D910D9160EBBD90DD950
:103940000B0EE6D8060EEF6EA4D9D1D906D9180E03
:10395000DFD806C0EEFF15C0EEFF16C0EEFF17C0A1
:10396000EEFFFBD81E0ED4D8EF6AF7D8200ED0D8C1
:10397000090EEF6EF2D8200E08DAE66EEED815DAF0
:10398000ECD8210EC5D8320EEF6EE7D81D0EC0D888
:10399000050EEF6EE2D8120EEB6A130EEB6ADDD85D
:1039A000140EEB6A150EEB6AD8D81C0EB1D8EF6A6C
:1039B000D4D8100EADD8460EEE6E350EED6E020E5A
:1039C000DBCF14F0030EDBCF15F014C0F3FF15C0EE
:1039D000F4FF040EE15C02E2E16AE552E16ED2D04E
:1039E00071D9020EEF6ECED06DD9010EEF6ECAD036
:1039F00069D9EF6AC7D0DFD91C0EC7D9030820E008
:103A000080D81C0E85D8EF2AEF50030A12E0010A75
:103A100009E0030A15E139D9540EEE6E350E72D95C
:103A2000070E0DD032D9600EEE6E350E6BD9060E34
:103A300006D02BD96C0EEE6E350E64D9040EEF6EE7
:103A4000A1D07DD9FB0EDBCFE9FFFC0EDBCFEAFF77
:103A5000120E9BD90D0DF350DE6EDD6AFA0EDB50AF
:103A60000DE0D9CFE9FFDACFEAFF010E0F0B06E038
:103A7000EC52D890ED32EF32E806FAE142D8120E5D
:103A800047D8EE2AEF22A3D86FD8D6D8020EE15C31
:103A900002E2E16AE552E16E75D07AD8D7D81534E2
:103AA00002E2E0D819E32DD8140E32D883D8FB0EE9
:103AB000DBCF16F0FC0EDBCF17F0166C171E000ED6
:103AC00017221650145C1750155806E21AD8140E17
:103AD000EB6A150EEB6A08D0B9D813D8140E18D8B3
:103AE0001450EE261550ED224DD052D83DD8A1EC01
:103AF0002BF0E552E552E1D8A1EC2BF0E552E5526E
:103B000041D0FD0EDBCFE9FFFE0EDBCFEAFF120056
:103B1000E926000EEA221200E66EBBD8E552E55215
:103B200006C016F007C017F008C018F009C019F059
:103B3000EED0F3CF1CF0F4CF1DF040D937EC4DF0B0
:103B40001E6E0D0EE15E1E50EBD8F90EDBCFE9FFC5
:103B5000FA0EDBCFEAFFE3EF1EF0020EDBCFE9FF48
:103B6000030EDBCFEAFF1200FD0EDBCFE6FFFE0EF9
:103B7000DBCFE6FF1200E66EF90EE66E30EC4EF09B
:103B800066EF1EF0E552E7CFD9FF1200B0D8BFD0E4
:103B9000D9CFE6FFE1CFD9FF1200EECF14F0EECF80
:103BA00015F0A7EF1EF0FB0EDBCFE6FFFC0EDBCF20
:103BB000E6FF1200EECF14F0EFCF15F01200E55241
:103BC000E55290EF1EF014C0F3FFF46E1200DECF4A
:103BD000E6FFDDCFE6FF1200EECFE6FFEFCFE6FF18
:103BE0001200EE06ED5AEECF14F0EDCF15F0D880AE
:103BF00015501200EE2AED22EECF14F0EDCF15F0A5
:103C0000153412001650EE24146E1750EE20156E67
:103C1000E8341200E5EC24F0BDEF1EF0040EDBCF1B
:103C2000E9FF050EDBCFEAFF1200020EF3CFDBFF48
:103C3000030EF4CFDBFF120030DFBDEF1EF0020EEB
:103C4000DBCFE6FF030EDBCFE6FF1200FB0EDBCF80
:103C500014F0FC0EDBCF15F01200186E060EE15EBC
:103C60001850120014500008000E1554120049DFBD
:103C7000180E88EF1DF045DFE8EF1EF089DFE66AD9
:103C8000100EE66E350E8CEF1DF03BDF100E88EF48
:103C90001DF0000EE66EE66AE66EE66A6FEC57F01F
:103CA000E552E55212002DDF200E6FD8E66E29DFB7
:103CB000D5EF1EF02DDFE3EF1EF023DF160E28DF19
:103CC000ECEF1DF078D8080E88EF1DF0E552E552B4
:103CD000F3CF1AF0F4CF1BF071D8E66A120011DFAF
:103CE0001E0E88EF1DF00DDF210E88EF1DF0E5524E
:103CF000E55206C014F007C015F008C016F009C060
:103D000017F01200ED6EFDDE200E88EF1DF006C0EC
:103D1000E6FF07C0E6FF08C0E6FF09C0E6FF1200A5
:103D2000F3CF14F0F4CF15F0120097DF50DFD3EF8C
:103D30001DF045DFDECFE9FFDDCFEAFF120028DF0F
:103D4000020EE1261200E66E010EBBEF1DF0EECF73
:103D500016F0EFCF17F012008ADFE8EF1EF00D6EBD
:103D60000E6A14C008F015C009F013EC55F008C035
:103D700014F009C015F03BEF1EF0E552E552E55294
:103D8000E552120074DFDAEF1DF0C2DEEF501200D0
:103D9000F3CFDBFFDB50166E176A3BEF1EF0D880C7
:103DA0001456000E15563BEF1EF01F0EB1DEE55205
:103DB000E750EF6E1200ECDE81EF1DF0F3CFE6FF6F
:103DC000F4CFE6FF1200F3CFEEFF15C0EDFF1200B7
:103DD000020E88EF1DF0E7DEC7DE83EC51F0BDEF89
:023DE0001EF0D3
:0E3DE2000F016B510AE10F01010E2C6FBE0E96
:103DF0002A6FB10E2B6F0F01010E6B6F280E146E20
:103E00000F0E14C0F3FFF46E12000F016C510AE1A3
:103E10000F01030E316FC70E2F6FB10E306F0F0100
:103E2000010E6C6F2D0E146E0F0E14C0F3FFF46EA6
:103E300012001FEC23F0020EE12685EC23F0FBECD0
:103E400023F038EC23F00BE080EC23F0EDEC23F0D2
:103E5000A8EC57F0E552E55280EC23F0F0D78CEC5B
:103E600023F087EC55F0E552E552020EE15C02E2E8
:103E7000E16AE552DFD3E3DB050EE126DF6A85EC7C
:103E800023F0020ECCDB010EEECFDBFF020EEDCFF6
:103E9000DBFFD950010F6EEC23F022E093EC23F00E
:103EA000030EEECFDBFF040EEDCFDBFFDFCFE6FF2F
:103EB000F2EC23F074EC23F0DCEC23F0030EDF24AF
:103EC000E66EE66A020EE66EE66A030E74EC23F016
:103ED000A6DBDCEC23F0050EDF2693EC23F0D2D733
:103EE000050EE15C02E2E16AE552A4D3A8DB060E0E
:103EF000E126ABEC3AF09AEC23F0DF6A010EDB6AC4
:103F00000A0EDF5C35E2F6DBA1EC23F0010EDBCF1D
:103F1000E6FFF2EC23F098DBE1EC23F095DBFEEC1E
:103F200023F0010EDB50030FE66EE66A020EE66E2A
:103F3000E66A8ADB02EC24F0E1EC23F0040EDBCF2E
:103F4000E6FF050EDBCFE6FF020EDBCFE6FF030E3A
:103F5000DBCFE6FFA8EC23F0DF2A050E146E010E7E
:103F6000DBCFE7FF1450E726010EE7CFDBFFC8D712
:103F7000020EDBCF14F0030EDBCF15F014C0F3FFFD
:103F800015C0F4FF060EE15C02E2E16AE55252D38D
:103F900056DB150EE12625DFCDDB37DFD2DBD9502E
:103FA000060FE96EDACFEAFF5F0EEE6EEE6A080EDC
:103FB000DB6A8BDBA80EE66E1A0EE66E7DEC3DF03A
:103FC000E552E552110EF3CFDBFF120EF4CFDBFF0B
:103FD000130EDB6A140EDB6A010EE66E65EC28F048
:103FE000E55215EC2AF01FDBFBEC23F0EF5001E06B
:103FF0002CD16BDBD950FB0FE96EFF0EDA20EA6E95
:10400000EE50ED105BE0A8DBEE50EFCFEAFFE96E7B
:10401000166EEACF17F0080EDB5000011624146E5E
:10402000000EEA20156E090E14C0DBFF0A0E15C043
:10403000DBFFF9DAEE52EF500CE0080EDB5006E140
:10404000020EF36E080EF3CFDBFF53D0080EDB0633
:1040500050D0E9DAEF5008E0080EDB2ADB50020806
:1040600048E2080EDB6A45D0DEDA060ED8DAEF50F9
:104070000EE0B5DAEF50410813E0B1DAEF50200856
:1040800003E1ADDA5A0E15D0AADAEF0632D0CBDA58
:10409000070EC5DAEF502DE0A2DAEF505A0803E11F
:1040A0009EDA200E06D09BDAEF50200804E197DA62
:1040B000410EEF6E1ED093DAEF2A1BD00A0EE66E89
:1040C0008AEC4EF0E552D950130FE96EDACFEAFFD1
:1040D0000A0EEE26000EED22130EDBCF14F0140EA6
:1040E000DBCF15F0980E145C3A0E155802E3010E62
:1040F000B2D0D9DAE5EC3DF0E552E552010EE66EBC
:10410000000EE66EE66A73DB2EDB75DBBCDA000EB2
:10411000E66EE66AC8DAC6EC4BF049DB460EDF6EA7
:10412000FD0EDBCFE9FFFE0EDBCFEAFF64DB0B0EFB
:10413000EECFDBFF0C0EEDCFDBFFD9500B0FCEDA4D
:1041400070E00B0EDBCFE9FF0C0EDBCFEAFF0D0EAC
:10415000EECFDBFF0E0EEDCFDBFFDFCFE6FFE66A33
:10416000550E45DB07DBE9CF18F0EACF19F0E9CFB0
:10417000E6FFEACFE6FFF7EC30F01A6E060EE15EDE
:104180001A50DFCFE6FFE66A730E31DBF3DA3ADB73
:1041900024DB20EC31F0186E060EE15E1850FB0EA9
:1041A000DBCF14F0FC0EDBCF15F00B0EDB50141838
:1041B00031E10C0EDB5015182DE1DF04E66EE66AE6
:1041C000E0DAADEC31F0E552E552F3CF1CF0F4CF7C
:1041D0001DF0080EDB501A6E1B6A086E1BC009F03A
:1041E000F3CF0DF0F4CF0EF066EC55F006C018F0EA
:1041F00007C019F0550E1826000E192218C0E6FF48
:1042000019C0E6FFD8D9BDDAF7EC30F01E6E060E05
:10421000E15E1E50100EDF260B0EDBCFE9FF0C0E09
:1042200083D7010EE66E460EE66EE66AE0DA0CDA39
:10423000E2DA29DAD950010FE66E000EDA20E66ED6
:1042400074EC28F0E552E552CED62DDA87EC55F025
:10425000E552E552000E146E150EE15C02E2E16AD1
:10426000E55296D2ECD9430EE126D9CFE9FFDACF59
:10427000EAFFEE6E500EEE6E530E23DA4C0EEE6E2B
:10428000480EEE6E200E1DDA5A0EEE6E430EEE6EE6
:10429000200E17DA4A0EEE6E500EEE6E430E11DA55
:1042A000450EEE6E4D0EEE6E530E0BDA530EEE6EA5
:1042B000590EEE6E420E05DA450EEE6E430EEE6EB0
:1042C000450EFFD9410EEE6E420EEE6E430EF9D949
:1042D000580EEE6E590EEE6E5A0EF3D9440EEE6E77
:1042E000450EEE6E460EEE6EEE6A640EF36E280E0E
:1042F000F3CFDBFF290EDB6A630EF36E2A0EF3CFDA
:10430000DBFF2B0EDB6A620EF36E2C0EF3CFDBFFAE
:104310002D0EDB6A610EF36E2E0EF3CFDBFF2F0E38
:10432000DB6A600EF36E300EF3CFDBFF310EDB6A1B
:104330005F0EF36E320EF3CFDBFF330EDB6A5E0EE1
:10434000F36E340EF3CFDBFF350EDB6A5D0EF36EDA
:10435000360EF3CFDBFF370EDB6A5C0EF36E380EE2
:10436000F3CFDBFF390EDB6A5B0EF36E3A0EF3CF51
:10437000DBFF3B0EDB6AABEC3AF03F0EF3CFDBFF2B
:10438000400EF4CFDBFF3C0EDB6A0A0EF36E3C0EF0
:10439000DBCFF4FFF350F45C43E2ACD9410EF3CF32
:1043A000DBFF420EF4CFDBFF56D9F3500F0127D9C4
:1043B000E552E750EF6E4FD9F32821D9010E2FD9DE
:1043C000E552E750EF6E47D9F350020F18D913DAD0
:1043D000E552E750EF6EFAD911DAD950280F166E70
:1043E000DACF17F03C0EDB50020D1650F324E96EC5
:1043F000DA50F420EA6EEECF14F0EFCF15F0E6D9E4
:1044000001DA14C0EEFF15C0EDFF410EDBCFE6FF71
:10441000420EDBCFE6FF4ED99BD93C0EDB2AB5D747
:1044200049D939D9D9CFE6FFDACFE6FFB5EC47F065
:10443000146E060EE15E14503DD9B4D9430EE15C12
:1044400002E2E16AE552F6D0FAD8040EE12684D9F8
:10445000D2D90ED923E054D9020EEECFDBFF030EE2
:10446000EDCFDBFFFD0EDBCF14F0FE0EDBCF15F042
:104470007AD9C8D9EECF16F0EFCF17F01450165CEA
:104480001550175809E2DECF14F0DDCF15F014C037
:10449000F3FF15C0F4FF04D033D9DAD7F36AF46A16
:1044A000040EE15C02E2E16AE552C4D0C8D8030E12
:1044B000E1261CDDF3CFDEFFF4CFDDFF000EE66E5C
:1044C000E66ADECFE6FFDDCFE6FF68D9E76E020ED3
:1044D000E7CFDBFFDECFE6FFDDCFE6FF63D9020EDD
:1044E000DB50146E030EE15C02E2E16AE55250D14A
:1044F000A6D80B0EE126FADC030EF3CFDBFF040E89
:10450000F4CFDBFF85D808D99FDF51D9050EF3CF53
:10451000DBFF060EF4CFDBFFD950050FDFD843E0F9
:10452000E9D8090EF3CFDBFF0A0EF4CFDBFF57D833
:1045300069D9FD0EDBCFEEFFFE0EDBCFEDFF320EB5
:10454000E66E50D94CD83DD94AD858D9090EDBCFA0
:10455000E6FF0A0EDBCFE6FF050EDBCFE6FF060E19
:10456000DBCFE6FF55D81BEC3BF0146E060EE15E88
:104570001450070EF3CFDBFF080EF4CFDBFF030E62
:10458000B3D84DD82AD944D8DEEC3AF010D9070E6A
:10459000DBCFE6FF080EDBCFE6FF3AD8FFD838D8EE
:1045A0007AD81DD809D934D8FDD80B0EE15C02E2C7
:1045B000E16AE5523FD06FEC57F0F9D806C014F02D
:1045C00007C015F008C016F009C017F006C0E6FFD6
:1045D00007C0E6FF08C0E6FF09C0E6FF1200090EAB
:1045E000DBCFE9FF0A0EDBCFEAFF1200E9CF14F0C0
:1045F000EACF15F0E9CFE6FFEACFE6FF1200D924B3
:10460000E96E000EDA20EA6EEF50E66EE6EF23F078
:10461000030EDBCFE6FF040EDBCFE6FF1200E92638
:10462000000EEA2212000F0EDBCFE9FF100EDBCFE7
:10463000EAFF1200E16EE552E7CFD9FF1200D9CFB1
:10464000E6FFE1CFD9FF1200040EDBCFE9FF050E34
:10465000DBCFEAFF1200D9CF14F0DACF15F03C0E11
:10466000DB50040D1200166E060EE15E16501200AD
:10467000EECFDEFFEDCFDDFFD9CFE9FFDACFEAFFE6
:10468000EE50ED101200A9D8ECEC43F0186E070EB6
:10469000E15E185012003BEC1FF0E552E552320E7D
:1046A000E66EF2EF23F0110EDBCFE6FF120EDBCF4A
:1046B000E6FF12003F0EDBCFE6FF400EDBCFE6FF4A
:1046C0001200EE6E5F0EEE6E12004FEC3FF00F0E1A
:1046D000F3CFDBFF100EF4CFDBFF1200E96EDACF71
:1046E000EAFFEE50ED101200DBCFE9FF040EDBCF46
:1046F000EAFF1200060EE66E9AEC57F0E552120041
:10470000DECFE9FFDDCFEAFF1200FD0EDBCFE9FFD0
:10471000FE0EDBCFEAFF1200FD0EDBCFE6FFFE0E42
:10472000DBCFE6FF1200010EDBCFE9FF020EDBCF8D
:10473000EAFF1200020EF3CFDBFF030EF4CFDBFF24
:104740001200040EF3CFDBFF050EF4CFDBFF1200E7
:10475000C5EC3AF0D7EF23F0FB0EDBCFE9FFFC0E00
:10476000DBCFEAFF1200020EDBCFE9FF030EDBCF47
:10477000EAFF12000D0EDBCFE9FF0E0EDBCFEAFFE2
:104780001200D950060FE66E000EDA20E66E120017
:10479000E16E1450E552E7CFD9FF1200C8EC1FF0CC
:1047A000D7EF23F019EC1FF0E552E5521200E55265
:1047B000E552E552E552120019DFB5EC47F033EF50
:1047C00023F014DF96EC47F033EF23F0410EDBCFFC
:1047D000E9FF420EDBCFEAFF1200EECFE6FFEFCF9C
:1047E000E6FF1200E66A030EE66EE66A1200E66E67
:1047F000E66ADBEF22F0020E0FEF23F0030E0FDF6D
:0A480000EF6A1200040E0FEF23F020
:06480A00E3DA020EE126D4
:1048100094DB86DB02E05EDBFCD793DB81DB02E02E
:1048200059DBFCD7A7DB7CDB02E054DBFCD7A6DB43
:1048300077DB02E04FDBFCD7A5DB72DB02E04ADB73
:10484000FCD7A4DB6DDB02E045DBFCD7A3DB68DB38
:1048500002E040DBFCD77BDA030EC1DB050EBFDBD9
:10486000070EBDDB090EBBDB0B0EB9DB0D0EB7DB94
:104870000F0EB5DB150EB3DB170EB1DB190E6EDABA
:10488000A3DA16DBA1DA63DA130E68DAADEC55F0C1
:10489000E552E552020EE15C02E2E16AE552E16EA8
:1048A0009DD297DA060EE1261D0EE66E9AEC57F0C1
:1048B000E552DADA03DB0A0EEE6E480EED6EC5DB6A
:1048C000030E73DA72DA070E70DA090E6EDA0B0E67
:1048D0006CDA0D0E6ADA0F0EA3DA130E0FDBFB0E85
:1048E000DBCFEEFFFC0EDBCFEDFFE8DA110E06DBCF
:1048F000FD0EDBCFEEFFFE0EDBCFEDFFD2EC2CF09A
:1049000006C0DEFF07C0DEFF08C0DEFF09C0DDFF16
:10491000DD52DD52ACDB99DA010E0F0B05E0D890C9
:1049200015321432E806FBE196DA1450EE261550E3
:10493000ED22D9CFE9FFDACFEAFFEECFE6FFEECFE7
:10494000E6FF66DB94DBAEEC2CF03FDBE60EE66EBA
:10495000E66A820E48DB91EC49F044DA150E68DB1A
:10496000E60EE66EE66A010E3EDB29EC4BF03ADA23
:10497000170E5EDB030EE66EE66A9B0E34DB2CEC54
:104980004AF030DA190E4CDA1B0E75DADBCFE9FF8C
:10499000050EDBCFEAFF1C0E64DA90DA020E6BDA4A
:1049A000DBCF14F0050EDBCF15F014C0F3FF15C0FC
:1049B000F4FF060EE15C02E2E16AE552E16E0ED21E
:1049C00008DAC5D93FDBEF5009D276DA030E8CD274
:1049D00073DA050E89D270DA070E86D26DDA090E07
:1049E00083D26ADA0B0E80D267DA0D0E7DD264DADA
:1049F0000F0E7AD253DA030E7CD250DA050E79D23A
:104A00004DDA070E76D24ADA090E73D247DA0B0E68
:104A100070D244DA0D0E6DD241DA0F0E6AD2D9D9B6
:104A2000050EE12694D9130E9BD9020E97D9E5EC19
:104A30003DF0E552E552AADAAAD902E09BD9FCD7AB
:104A4000A9DAA5D902E096D9FCD794DAA0D902E078
:104A500091D9FCD793DA9BD902E08CD9FCD771DAD3
:104A600096D902E087D9FCD7E6DA05E121DA75ECC0
:104A70001DF0E552E55261DA8AD902E07BD9FCD714
:104A800081DA85D902E076D9FCD761D9170E64DACC
:104A9000150E62DA190E62D97AEC4AF0E552E55247
:104AA000020EE66EE66A36DA06C014F007C015F0AC
:104AB00008C016F009C017F0A5D970DA140E4ED947
:104AC00020EC31F0186E060EE15E1850050EE15C28
:104AD00002E2E16AE552E16E81D17BD9040EE12662
:104AE00036D91B0E0BDAEF5034E03DD957DA160EEB
:104AF00035D9A4DA2CD91C0E01DAEF2AEF500208BE
:104B00002CE1D6D9A2D9D89014361536F00ED8801B
:104B10001456000E1556020E14C0DBFF030E15C00E
:104B2000DBFF3CDA8FDA8EDAEE06ED5AEECF14F0C8
:104B3000EDCF15F0020EDB50141807E1030EDB5029
:104B4000151803E104D91B0E8CD901D91C0E89D983
:104B500004D071DA02E161DA71DA05D9F8D8170EFA
:104B6000D1D9150ECFD9130EFBD8020ECBD9130E07
:104B7000F5D8F7EC52F006D9E0D91AD91FD908E0D8
:104B8000A4D904E1ABD936DFC2D9F8D738DAF5D7E2
:104B9000D8D90ED913D908E098D904E19FD92DDFCF
:104BA000B6D9F8D72CDAF5D7E5D902D907D908E074
:104BB0008CD904E193D924DFAAD9F8D720DAF5D724
:104BC000DDD9F6D8FBD808E080D904E187D91BDF0E
:104BD0009ED9F8D714DAF5D7DDD9EAD8EFD808E0AE
:104BE00074D904E17BD918DF92D9F8D708DAF5D760
:104BF000C9D9DED8E3D808E068D904E16FD906DF67
:104C000086D9F8D7FCD9F5D7C1D9D2D8D7D808E0FA
:104C10005CD904E163D9FDDE7AD9F8D7F0D9F5D7AC
:104C20000ADA08E08AD90EDAEE50ED1003E18FD8E7
:104C3000020E17D9040EE15C02E2E16AE552E16E70
:104C4000CDD0C7D8070EE1267CD9FCD9020EEECF15
:104C5000DBFF030EEDCFDBFFFED8EE50ED1027E0BB
:104C6000060EDB6A74D8070E79D8ACD865EC41F033
:104C70004ED9A4D812E077D8A5D895D8BAD8A2D85A
:104C8000DDD806E0010EF36E060EF3CFDBFF6BD925
:104C9000CAD803E123D9B4DE75D8060EDB5005E08F
:104CA000E66AD8D940D9ECD8D7D74FD9CED7C3D90F
:104CB00047E14DD8090EA8D92AD980D80DE0ADD941
:104CC00072D897D8F5D8BAD802E0A7D9C7D9ABD847
:104CD00003E104D998DE56D83AD80F0E95D952D8A8
:104CE000C3D8D950040FE96E75D90FE096D9E6D82C
:104CF0008FD95BEC50F069D9040EDBCFE6FF050ECF
:104D0000DBCFE6FF30D888DE3DD821D8050E7CD930
:104D100039D8B6D8A0D8EE50ED1012E016D9A2D9E5
:104D2000130EECD8EF500CE1020EE66EC1D886D817
:104D300002E073D993D9010EE66E8CD914D9F3D859
:104D4000070EE15C02E2E16AE552E16E47D0FD0E3A
:104D5000DBCFE9FFFE0EDBCFEAFF1200CFD822D176
:104D6000CDD832EF28F0FD0EDBCFE6FFFE0EDBCF15
:104D7000E6FF120023D94CD9A1EC2BF0E552E55205
:104D8000DEEF27F0E552E552E552E55212005AD91E
:104D9000030EEECFDBFF040EEDCFDBFFD950030F88
:104DA000E96EEAEF27F02BD9FDD042D925EF28F0A4
:104DB00049D9EECFDEFFEDCFDDFF1200D9CFE9FFFD
:104DC000EAEF27F0C2D8EED087EC55F0E552E55275
:104DD0001200D9CFE6FFE1CFD9FF1200E552E7CFAD
:104DE000D9FF12001A6E060EE15E1A50DDD85EEF92
:104DF00027F090EC4DF0E9D8BAD80B0E7FD8EF50E1
:104E0000E66E120006C0E6FF07C0E6FF08C0E6FF38
:104E100009C0E6FF1200F3CFDEFFF4CFDDFF120082
:104E200007D95EEF27F0A3D80E0E68D8EF50120016
:104E30007BEC51F0E552E5520009120067EC51F0AD
:104E4000E552E552E552000912000DEC2CF0E55256
:104E5000E552D4EF27F0D950020FE96EDACFEAFF1E
:104E600012004CD8EF6A1200040EF3CFDBFF050EE0
:104E7000F4CFDBFF120042D8010EEF6E040E1200D9
:104E8000020EF3CFDBFF030EF4CFDBFF120021ECA9
:104E90001DF0146E050EE15E145012009ADFFB0E39
:104EA000DBCFE9FFFC0EDBCFEAFFB2D88DDFB8D055
:104EB0004EDF110EAEEF26F08CDFB2D0040EDBCF4A
:104EC000E9FF050EDBCFEAFF12004DDF6CDFB6D83D
:104ED0000108120068DF78DFFFEF27F0DECFE6FF82
:104EE000DDCFE6FFB3EF26F039DFC5EC3AF04ADF5D
:104EF00075D734DFDEEC3AF045DF70D7E926000ED7
:104F0000EA2212002BDF9AD82EDFA7EF26F03ADF35
:104F10000BEF27F0E66EE66A6FEC57F0C2EF26F073
:104F200047DFDEEF26F0020EDBCFE6FF030EDBCF1E
:104F3000E6FF19DF62DDC2EF26F009DF030EB0EFF6
:104F400026F005DF050EB0EF26F0020EDBCFE9FFFD
:104F5000030EDBCFEAFF120001DFA1EC2BF0E552DC
:104F6000E552A7EF26F0FFDE2DDF2EEF28F047D821
:104F700032EF28F0ECDE070EB0EF26F0E8DE090E87
:104F8000B0EF26F0E4DE0B0EB0EF26F0E0DE0D0E03
:104F9000B0EF26F0DCDE0F0EB0EF26F0D8DE110EFB
:104FA000B0EF26F008EF28F0F3CF14F0F4CF15F0AF
:104FB0001200F3CFEEFF15C0EDFF1200030EDBCFA2
:104FC000E9FF040EDBCFEAFF1200146E060EE15E6D
:104FD00014501200DACFEAFFEE50ED101200BEDEE0
:104FE000F3DEA7EF26F096DF06C016F007C017F035
:104FF00008C018F009C019F005DF37EF28F0DECF40
:10500000E9FFDDCFEAFF1200A9DE52DF65EF41F0D4
:10501000EECFE6FFEFCFE6FF1200A5DE58EF27F058
:10502000FB0EDBCFE6FFFC0EDBCFE6FFA7EF26F0A3
:1050300065DFD9EF27F03CDF18EF27F0C6EC4BF027
:10504000C2EF26F0020E7EEF27F0ABEC3AF0ACDFB9
:105050005EEF27F0B7DE2CDF47EF27F03BEC51F097
:10506000C2EF26F0EE50EFCFEAFFE96E120026DF26
:06507000110EAEEF26F068
:0A50760089DA020E23DB8BDAFEE17B
:105080002CDB88DAFEE1826A6DDA17D37EDA050E50
:1050900018DB80DAFEE1040E20DB7CDAFEE1030E91
:1050A000826E60DA0AD371DA060E69D26EDA070E02
:1050B00066D26BDA080E826EFE0EDB5003E0010E44
:1050C000816E01D0816A2DDBF8D25FDA090E826E23
:1050D000FE0EDB5003E0010E816E01D0816A21DB00
:1050E000ECD253DA0B0E4BD250DA0A0E826E91DA02
:1050F000EF5005E08EDAEF6A010E816E04D089DA96
:10510000010EEF6E816A806E806AD7D2020E806EC9
:10511000806A83AEFED7120038DA70DADBCF17F080
:10512000E1504BDA030EEBCFF3FF1750F318E8AE64
:1051300002D0F33408D0EE50145CEE501558EE5007
:105140001658EE5017580BE2FB0EDBCF14F0FC0E96
:10515000DBCF15F0FD0EDBCF16F0FE0E01D04EDAE0
:10516000DBCF17F063DAA9D210DAA2DA59DAD95014
:1051700024DA1ADA89DAF00EE66E95DFE552A00E2F
:10518000E66E94DFE552E66A94DFE552BFDF95D222
:10519000FCD9100EE126D95010DA040EEECFDBFF59
:1051A000050EEECFDBFF060EEECFDBFF070EEECFD8
:1051B000DBFFF90EDBCF08F0FA0EDBCF09F0080EAB
:1051C00008C0DBFF090E09C0DBFFF70EDBCF08F0DC
:1051D000F80EDBCF09F00A0E08C0DBFF0B0E09C08A
:1051E000DBFFF90EDBCF16F0FA0EDBCF17F0F50E72
:1051F000DB501624146EF60EDB501720156E0C0EC5
:1052000014C0DBFF0D0E15C0DBFF44DA153410E2CD
:105210001450A008000E15540BE23CDAA00E145EE8
:10522000000E155A68DA01E3EFD011DA01E3ECD091
:10523000F50EDBCF14F0F60EDBCF15F00001800E7B
:10524000151411E05DDA166A176A15AE02D01668F9
:105250001768F5D9145008DA53DA4DDA01E3D4D0DF
:10526000F6D901E3D1D0F70EDBCF16F0F80EDBCF85
:1052700017F0F30EDB501624146EF40EDB501720DB
:10528000156E0E0E14C0DBFF0F0E15C0DBFF09DA22
:10529000153410E21450F008000E15540BE201DA38
:1052A000F00E145E000E155A31DA01E3ADD0CFD9FD
:1052B00001E3AAD0F30EDBCF14F0F40EDBCF15F030
:1052C000800E151421E027DA166A176A15AE02D08F
:1052D00016681768A00E0B6E0C6A0D6A0E6AA6D9C6
:1052E000DFEC56F002C014F003C015F004C016F055
:1052F00005C017F0A4D90250B7D90DDA07DA01E3D7
:1053000083D0A5D901E380D0D3D9F30EDBCF1CF035
:10531000F40EDBCF1DF01E6A1F6A1DAE02D01E68A0
:105320001F681CC0E6FF1DC0E6FF1EC0E6FF1FC0D1
:10533000E6FFF2DE206E080EE15E205006C018F097
:1053400007C019F008C01AF009C01BF0A00E0B6EC0
:105350000C6A0D6A0E6ADFEC56F002C018F003C04A
:1053600019F004C01AF005C01BF002C0E6FF03C02C
:10537000E6FF04C0E6FF05C0E6FF9AD9F50EDBCFD5
:1053800021F0F60EDBCF22F0236A246A22AE02D08F
:105390002368246821C0E6FF22C0E6FF23C0E6FFA1
:1053A00024C0E6FFB9DE256E080EE15E2550E55209
:1053B000E7CF1BF0E552E7CF1AF0E552E7CF19F03F
:1053C000E552E7CF18F018500624146E1950072044
:1053D000156E1A500820166E1B500920176E02D940
:1053E00083D92DD9E1D850D90A0EDBCFE6FF5BDE99
:1053F000E552080EDBCFE6FF59DEE552F20EDBCFB9
:10540000E6FF57DEE55282DE100EE15C02E2E16A61
:10541000E5521BD1070EC16E926A936A946A956831
:10542000806A816A826A836A1200AFD8040EE1261C
:10543000030EDB6ADF6A030EDF5C43E2010EDB6A08
:10544000020EDB6A010EDBCF14F0020EDBCF15F08B
:10545000D890155004E6F00E145C000E155826E2A4
:10546000E66A010EDBCFE6FF020EDBCFE6FF000EA1
:10547000E66EE66A180EE66EE66AA00EE66EE66A6C
:10548000800EE66E6F0EE66E0B0EE66EE66A80DE4E
:10549000146E0D0EE15E1450D950010FE96EDACF93
:1054A000EAFF180EEE26000EED22CCD7D950030FDE
:1054B000E66E000EDA20E66E17DEE552E552DF2AD0
:1054C000BAD7040EE15C02E2E16AE552BED05DD8D3
:1054D0000E0E55D00C0E826E010E816E806E806AAB
:1054E00012000C0E826E816A91EF2BF04ED8040EE2
:1054F000E126FB0EDBCF18F0FC0EDBCF19F0A00E7F
:105500001902F3CF19F01802F3CF18F0F45019264E
:10551000FD0EDB50F324146EFE0EDB501920156EC9
:10552000166A176A15AE02D0166817685BD8D2DF04
:10553000FA0EDBCFE6FFCBDFE552010EE66EB9DDFA
:10554000E552D2D8020EE66EAEDDE552040EE66EEE
:10555000ADDDE552DBDDC5DF040EE15C02E2E16AB0
:10556000E55273D0FB0EDBCF14F0FC0EFD0EFE0EE9
:10557000156A166A176A1450816E91EF2BF0826ECD
:10558000FE0EDB50816ECDD898D0D9CFE6FFE1CFAB
:10559000D9FF1200D890030EEB32020EEB32010E4F
:1055A000EB32EF32E7061200EECFE6FFEECFE6FF7A
:1055B000EECFE6FFEFCFE6FF1200FB0FE96EFF0E26
:1055C000DA20EA6E1200E96EDACFEAFF1450EE5EDE
:1055D0001550ED5A1200DBCF15F0146C151E000E9D
:1055E0001522120014C0DFFF010E15C0DBFF020EF2
:1055F00016C0DBFF030E17C0DBFF1200F70EDBCF78
:1056000014F0F80EDBCF15F0F90EDBCF16F0FA0E22
:105610001200FD0EDBCFE9FFFE0EDBCFEAFF12002A
:1056200035DDE552E552E552E552120014C006F0B0
:1056300015C007F016C008F017C009F01200D950C5
:10564000040FE96EDACFEAFF1200E16E36D0145093
:105650000008000E15541200080EDBCF14F0090EDE
:10566000DBCF15F015341200EE261550EE22165041
:10567000EE221750EE2212000A0EDBCF14F00B0EB2
:10568000DBCF15F015341200F6DCE552E552E55299
:10569000E55212000C0EDBCF14F00D0EDBCF15F02F
:1056A00012000E0EDBCF14F00F0EDBCF15F0120040
:1056B000E66AE66AE66AE66A1200E552E7CFD9FFD3
:1056C0001200826EFB0EDBCF14F01450816E29D8CD
:1056D000E15073DF080EE76E1200826E43DFD9508F
:1056E0006CDF080EE76E1200D9CFE9FFDACFEAFFD0
:1056F0005BDF10EF2BF0D950080F65DF2CEF2BF09C
:10570000F50EDBCF14F0F60EEBEF2AF0D9500A0FAE
:105710005ADF3CEF2BF0F30EDBCF14F0F40EEBEF7F
:0A5720002AF0010E806E806A12006C
:06572A006ED994D99CDA4F
:10573000C2D98ED9EF50090DB8D914C0F3FFF46E59
:1057400068D162D9020EE12646D9EFDF8ED9DECFCD
:10575000F6FFDDCFF7FF080EF626000EF722080051
:10576000F550E66E35D9EECFE6FFEECFE6FFEECF91
:10577000E6FFEFCFE6FFDECFE6FFDDCFE6FFECECA6
:1057800043F0146E070EE15E1450020EE15C02E27B
:10579000E16AE552E16E3DD137D9020EE126090EEC
:1057A000E66E9AEC57F0E552F3CFDEFFF4CFDDFF63
:1057B00087D9080EEE6EAB0EED6E82D9060EE92685
:1057C000000EEA22FD0EDBCFEEFFFE0EDBCFEDFF7B
:1057D00077D9080EE926000EEA22FC0EDBCFEFFF98
:1057E0006FD942DAF80EDBCFEEFFF90EDBCFEEFF1A
:1057F000FA0EDBCFEEFFFB0EDBCFEEFFDECF14F0B9
:10580000DDCF15F062D9020EE15C02E2E16AE552F9
:10581000E16EFFD0CDD9040EA9D1CAD9060EA6D10A
:105820000CDAEECF16F051D9F4D007DA44D916C00D
:10583000F3FF17C0F4FFEDD089D9B7D9EBDFAED1B4
:1058400085D912DAB2D9E9DFA9D1E5D902E014D9B4
:10585000FEE167D996D902E00FD9FEE1B0D902E2A4
:10586000E16AE552E16ED5D0D6D902E005D9FEE174
:1058700058D9A8D902E2E16AE552E16ECAD0CBD983
:1058800002E0FAD8FEE14DD9A0D902E2E16AE55280
:10589000E16EBFD0C4D975D902E0EED8FEE18FD950
:1058A00002E2E16AE552E16EB4D0BDD96AD902E004
:1058B000E3D8FEE184D902E2E16AE552E16EA9D0C3
:1058C000AED983D902E2E16AE552E16EA2D0ABD94A
:1058D0007CD902E2E16AE552E16E9BD0A0D972D98F
:1058E00002E2E16AE552E16E94D09DD96BD902E201
:1058F000E16AE552E16E8DD06BD9EF2AEFCF14F05B
:105900005BD9EF50145C06E366D812D8E552E55235
:10591000010E01D0000E7DD05BD9EF5006E15BD8BF
:105920000AD8E552E552010E02D092D8EF0671D0A6
:105930004FD9EF6A6ED068D83FD9EF04E66E88D8A9
:10594000E552E750EF6E65D0FCD802E095D8FEE155
:1059500052D980D902E090D8FEE145D1F2D802E0D8
:105960008BD8FEE148D9E4D0ECD802E085D8FEE13E
:1059700042D9B0D072D96ED902E07ED8FEE133D1DF
:10598000B5D868D902E078D8FEE12DD166D9A2D089
:10599000ADD8A0D062D9CCD0A9D8CAD0780E1BD1AE
:1059A000000E19D1F00E17D1780EE66EE66A000EE1
:1059B00034D0780E14D1F00EE66EE66A000E2DD0CB
:1059C000F00E0DD1000EE66EE66A27D0000E07D16C
:1059D000DED8020E45D1FD0EDBCFE6FFFE0EDBCF9B
:1059E000E6FF1200E552E552020EF3CFDBFF030E95
:1059F000F4CFDBFFAED0E552E552F3CF16F0F4CF93
:105A000017F0010E0F0B1200D9CFE6FFE1CFD9FF3F
:105A10001200E552E7CFD9FF1200E66EE66A6FEC9E
:105A200057F0E552E552E552E55212001DD90BD967
:105A3000020E14C0DBFF030E15C0DBFF8AD0E55257
:105A4000E552E552E7CF17F0E552E7CF16F0120026
:105A50009ED8080E05D19BD8060EE926000EEA2234
:105A6000EE50EFCFEAFFE96E1200E552E552F3CFB8
:105A7000DEFFF4CFDDFF1200D89017321632E806B1
:105A8000120014C0EEFF15C0EDFF1200F90EDBCFBF
:105A9000EEFFFA0EDBCFEDFF120047DEE552E552D6
:105AA000F3CFF6FFF4CFF7FF12001650F324146E75
:105AB0001750F4201200EECF16F0EFCF17F01200BF
:105AC000DECFE9FFDDCFEAFF120014C0F3FF15C0FF
