:020000040000FA
:060000008DEF79F0120003
:0600080000EF5AF01200A7
:06002A00160095F4000031
:10003000000300008A00000094F400003B0400006C
:100040000100000090F40000FC0200000400000029
:100050008BF400002D0400000500000087F4000070
:10006000FC0100000400000082F4000028040000ED
:100070000500000081F400003A04000001000000C7
:1000800080F4000039040000010000007EF400004C
:1000900034040000020000007DF400003804000079
:1000A000010000009AF3000000020000E3000000DD
:1000B000B1F20000370400000100000063F100000D
:1000C0003604000001000000C1B30000FF0D000075
:1000D0000100000095F3000023040000050000006B
:1000E0008BF300006E0F00000A00000086F3000092
:1000F0001E04000005000000EBCC0000FF03000020
:100100000100000084F3000032040000020000003F
:100110007CF30000780F0000080000007BE4000082
:10012000FF000000010000007AF30000FD00000065
:0401300002000000C9
:0C013400020100510AE10301020E8E6F6F
:10014000660E8C6FB10E8D6F0201010E006F8A0E6C
:10015000146E030E5DEF0DF0020101510AE103017F
:10016000030E936F780E916FB10E926F0201010E24
:10017000016F8F0E146E030E5DEF0DF00201025140
:100180000AE10301010E986F930E966FB10E976FFF
:100190000201010E026F940E146E030E5DEF0DF05E
:1001A000020103510AE10301030E9D6F9C0E9B6F38
:1001B000B10E9C6F0201010E036F990E146E030EB7
:1001C0005DEF0DF0020104510AE10301030EA26F7D
:1001D000B70EA06FB10EA16F0201010E046F9E0E4B
:1001E000146E030E5DEF0DF0020105510AE10301EB
:1001F000020EA76FD20EA56FB10EA66F0201010EFF
:10020000056FA30E146E030E5DEF0DF00201065193
:100210000AE10301010EAC6FE40EAA6FB10EAB6FE1
:100220000201010E066FA80E146E030E5DEF0DF0B5
:10023000020107510AE10301010EB16FED0EAF6F2C
:10024000B10EB06F0201010E076FAD0E146E030EFA
:100250005DEF0DF0020108510AE10301020EB66FD5
:10026000F60EB46FB10EB56F0201010E086FB20E3B
:10027000146E030E5DEF0DF0020109510AE1030156
:10028000100EBB6F080EB96FB20EBA6F0201010EED
:10029000096FB70E146E030E5DEF0DF002010A51E7
:1002A0000AE10301060EC06F980EBE6FB20EBF6F5B
:1002B0000201010E0A6FBC0E146E030E5DEF0DF00D
:1002C00002010B510AE10301060EC56FCE0EC36F8A
:1002D000B20EC46F0201010E0B6FC10E146E030E3D
:1002E0005DEF0DF002010C510AE10301060ECA6F29
:1002F000040EC86FB30EC96F0201010E0C6FC60E5B
:10030000146E030E5DEF0DF002010D510AE10301C1
:10031000030ECF6F3A0ECD6FB30ECE6F0201010EFA
:100320000D6FCB0E146E030E5DEF0DF002010E513A
:100330000AE10301060ED46F550ED26FB30ED36FD0
:100340000201010E0E6FD00E146E030E5DEF0DF064
:1003500002010F510AE10301020ED96F8B0ED76F14
:10036000B30ED86F0201010E0F6FD50E146E030E7F
:100370005DEF0DF0020110510AE10301020EDE6F84
:100380009D0EDC6FB30EDD6F0201010E106FDA0EF1
:10039000146E030E5DEF0DF0020111510AE103012D
:1003A000020EE36FAF0EE16FB30EE26F0201010EBA
:1003B000116FDF0E146E030E5DEF0DF02CEC0DF0DF
:1003C000030E3EEC0EF032EC10F0F70EF3CFDBFF35
:1003D000F80EF4CFDBFF49EC0EF032EC10F0F50E26
:1003E000F3CFDBFFF60EF4CFDBFFDF6AF40EDB505A
:1003F000DF5C35E2040EDBEC10F00CEC10F0D950B1
:10040000F90FDFEC10F050EC0EF008EC45F094EC36
:100410000DF086EC10F0F350EE261550ED2286EC30
:1004200010F0020ECCEC10F0F350EE261550ED2239
:10043000E66A49EC0EF004EC0DF059EC0FF0F350C5
:10044000E66E50EC0EF085EC5FF0E552E552C3EC41
:1004500011F0E3EC0CF079EC0DF0DF2AC7D7030EB6
:10046000E15C02E2E16AE5521CEF0DF0EDEC10F008
:10047000BEEC0EF0BC0EE66EEA0E53EC10F00EDF92
:10048000B6EC10F002E2E16AE5521CEF0DF0EDEC83
:1004900010F0060EBEEC0EF0F00EE66EEA0E53EC17
:1004A00010F00EDFB6EC10F002E2E16AE5521CEF4C
:1004B0000DF0EDEC10F0060EBEEC0EF0080EE66E40
:1004C000EB0E53EC10F00EDFB6EC10F002E2E16A36
:1004D000E5521CEF0DF02CEC0DF0060EE126050E9A
:1004E000DBEC10F010EC10F0EFEC0EF08DEC0DF0FA
:1004F000BFEC0FF0040E26EC0DF0E5EC10F0E66A10
:100500001E0E5CEC11F0AEEC0EF0E66EE66AE66EE6
:10051000E66A91EC0EF043EC10F066DEC7EC11F0E9
:1005200071EC6CF01C6E090EE15E1C50F9EC10F0E1
:100530008DEC0DF044EC11F0A3EC11F0FAEC0CF0A2
:1005400057EC0EF0060EE15C02E2E16AE5521CEFA8
:100550000DF0C3EC0FF0040EE66E030E71EC11F01B
:100560008DEC0FF002E2E16AE5521CEF0DF02CEC8D
:100570000DF0090EE126FB0EDBCFE9FFFC0EDBCF11
:10058000EAFF110ECCEC10F0EECFDEFFEDCFDDFF79
:10059000040EDBEC10F0F9EC10F0A3EC11F044ECDD
:1005A00011F021EC0DF069EC0DF0070EEECFDBFF42
:1005B000080EEDCFDBFFA5EC10F002EC27F0E552C2
:1005C000E552E76E060EE7CFDBFFDB501AE1A9EC40
:1005D0000DF01E0ED5EC0DF014E3070EDBCF14F07A
:1005E000080EDBCF15F01E0E31EC0DF002E0AFEC83
:1005F0000DF080EC10F001E07ED0155001E07BD0D2
:1006000059D0010EF4EC0DF01AE2A9EC0DF01E0E1B
:10061000D5EC0DF014E2A9EC0DF03C0ED5EC0DF08C
:100620000EE398EC0FF03C0E31EC0DF002E0AFEC75
:100630000DF080EC10F05FE115505DE13BD0020E53
:10064000F4EC0DF01AE2A9EC0DF03C0ED5EC0DF037
:1006500014E2A9EC0DF05A0ED5EC0DF00EE398EC77
:100660000FF05A0E31EC0DF002E0AFEC0DF080EC23
:1006700010F041E115503FE11DD0030EF4EC0DF0F8
:100680001DE2A9EC0DF05A0ED5EC0DF017E2A9EC25
:100690000DF0780ED5EC0DF011E398EC0FF0780E1C
:1006A00031EC0DF002E0AFEC0DF080EC10F023E146
:1006B000155021E10FEC11F0EADE1BD08DEC0EF0AD
:1006C0001CEC11F004E60F0E145C000E155813E23A
:1006D00050EC0DF01CEC11F004E6080E145C000E5A
:1006E000155804E20FEC11F0C1DE03D00FEC11F04D
:1006F000E0DE88EC0DF0090EE15C02E2E16AE55211
:100700001CEF0DF0C3EC0FF0060EE66E020E71EC5E
:1007100011F0030E15EC0EF00F0EE66EE66A0FEC0C
:1007200011F04CDE28EC0EF08DEC0FF002E2E16AE5
:10073000E5521CEF0DF02CEC0DF050EC0DF0FEEF3F
:100740000EF02CEC0DF0050E9EEC0DF0FEEF0EF011
:100750002CEC0DF00A0EE126E3EC0CF0A3EC44F0D7
:10076000E552E552020E06C0DBFF030E07C0DBFFB9
:10077000040E08C0DBFF050E09C0DBFF92EC0FF092
:10078000060E06C0DBFF070E07C0DBFF080E08C021
:10079000DBFF090E09C0DBFF17EC10F0080EDBCF02
:1007A00016F0090EDBCF17F015501718E8AE02D07F
:1007B000173404D01650145C1750155820E28EECF4
:1007C00011F088EC0EF0D950060F7AEC0FF0D950EA
:1007D000020F7AEC0FF05BEC0EF09AEC10F0E66A88
:1007E00015DDF3CF1BF0F4CF1CF0CAEC0EF09AEC41
:1007F0006DF01D6E0D0EE15E1D50B2EC0EF00A0E96
:10080000E15C02E2E16AE5521CEF0DF02CEC0DF028
:100810000C0EE126E3EC0CF0A3EC44F0B7EC0DF089
:1008200092EC0FF0080E06C0DBFF090E07C0DBFFDD
:100830000A0E08C0DBFF0B0E09C0DBFF060EDBCF84
:1008400018F0070EDBCF19F00A0EDB50185C166E9D
:100850000B0EDB501958176E16C0E6FFE66ECDEC96
:1008600074F0C3EC11F0040EDBCF1EF0050EDBCFED
:100870001FF0080EDB501E5C1C6E090EDB501F586B
:100880001D6E1CC0E6FFE66E32EC10F0E552E7CFBD
:1008900015F0E552E7CF14F088EC0FF0F45015187E
:1008A000E8AE02D0153404D014501A5C15501B5811
:1008B00040E2060EDBCF20F0070EDBCF21F00A0E60
:1008C000DBCF22F00B0EDBCF23F021502318E8AE54
:1008D00002D0233404D02250205C2350215829E236
:1008E000040E82EC0DF0040EE66ED950080F7AEC7F
:1008F0000FF0D950040F7AEC0FF037EC47F0166E7A
:10090000090EE15E1650C7EC0FF07DEC0DF0040E01
:1009100085EC11F08EEC11F010EC0EF0A5EC0EF061
:100920003FEC10F09EEC11F095DC54EC0DF0B2ECC5
:100930000EF00C0EE15C02E2E16AE5521CEF0DF0F4
:10094000C3EC0FF08EEC11F0010EE66EE66E050EB4
:10095000C6EC0DF091DC54EC0DF0B2EC0EF0020E92
:10096000E15C02E2E16AE5521CEF0DF077EC0FF07A
:1009700088EC0EF093EC6EF0ABEC0EF020EC11F086
:1009800072EC4AF0AEEC0EF0E66A4A0EE66EDC0E51
:100990004AEC10F0E66A5DEC10F002E2E16AE55222
:1009A0001CEF0DF077EC0FF088EC0EF02DEC58F00A
:1009B000ABEC0EF004EC0DF043EC71F0AEEC0EF08D
:1009C000E66A420EE66E070E4AEC10F0030EE66E83
:1009D0005DEC10F002E2E16AE5521CEF0DF008EC6C
:1009E0000FF0FA0EE66EE66A6BEC0FF01BEC6DF0A2
:1009F000E552E552ABEC0EF0E66A010E5CEC11F04C
:100A0000AEEC0EF02C0ED5EC10F0A6EC11F0190E99
:100A1000E66EE66A5FEC11F0D0EC00F0CAEC11F083
:100A200002E2E16AE5521CEF0DF008EC0FF0E5EC94
:100A300010F009EC10F0F8EC6FF0AEEC0EF0900E48
:100A4000D5EC10F0F1EC10F0040E01EC0DF0520EAC
:100A5000E66E050EB2EC11F050EC0DF05FEC11F00B
:100A600018EC01F078EC11F002E2E16AE5521CEFBB
:100A70000DF048EC11F094EC11F0E66A030E5CEC1A
:100A800011F0A6EC11F050EC0DF05FEC11F09AECC7
:100A900000F0CAEC11F002E2E16AE5521CEF0DF041
:100AA00048EC11F02DEC58F062EC11F002E2E16A32
:100AB000E5521CEF0DF048EC11F093EC6EF062EC97
:100AC00011F002E2E16AE5521CEF0DF077EC0FF055
:100AD00010EC0EF094EC11F0040EE66E070EE66ECC
:100AE000A40EE66E090E4FEC10F0D0EC0FF043ECC4
:100AF00010F0BEEC00F0CAEC11F002E2E16AE5523F
:100B00001CEF0DF008EC0FF0E5EC10F0900ED5ECBA
:100B100010F0AEEC0EF086EC62F0C7EC0FF021ECBA
:100B20000DF0040E01EC0DF0D60EE66E040EB2ECE4
:100B300011F0A2EC0DF05FEC11F0E2EC00F078ECBB
:100B400011F002E2E16AE5521CEF0DF02CEC0DF021
:100B5000080E3EEC0EF0F60EDB5003E0A00E146E15
:100B600001D0146A156A12EC11F042EC78F0E552EB
:100B7000E552B7EC0DF0060E26EC0DF0B8EC11F0D6
:100B8000F40ED5EC10F0F4EC0EF0400EE66E090E0B
:100B90004FEC10F04AEC0FF0E66ED950040F7AECEF
:100BA0000FF0ACEC11F086EC0FF0FAEC0CF042EC2C
:100BB00078F0B1EC10F006C016F007C017F008C0CE
:100BC00018F009C019F0E2EC0FF05BEC0EF0C7EC86
:100BD0000FF021EC0DF017EC11F0A3EC11F0DDECAF
:100BE0000FF0080EE15C02E2E16AE5521CEF0DF045
:100BF00077EC0FF0EAEC0DF02DEC58F0BAEC10F0B9
:100C0000DAEC0DF0D80EE66ED70E4FEC10F0050EB4
:100C1000E66EE66A43EC10F0ACEC00F0EAEC10F0A3
:100C20000CEC0FF0020E6CEC10F00F0ECCEC10F090
:100C3000D20EEE6ED70EED6EA3EC11F0CFEC0EF0EF
:100C4000AEEC10F002E2E16AE5521CEF0DF0C3ECED
:100C50000FF0F80EDB5003E0DE68DD6803D0010E14
:100C6000DE6EDD6A74EC0DF050EC0DF0FAEC0CF079
:100C700037EC10F074EC0DF0A2EC0DF0DECF16F0B6
:100C8000DDCF17F0190E31EC0FF074EC0DF0D0EC55
:100C90000FF0DECF16F0DDCF17F0320E31EC0FF093
:100CA000020EE15C02E2E16AE5521CEF0DF060EC3D
:100CB0000FF057EC0EF0F5EF10F060EC0FF070EC69
:100CC00030F0B1EC10F0F5EF10F02CEC0DF0080E58
:100CD000E126A3EC0FF089EC44F0E552E55206C0A2
:100CE000DEFF07C0DEFF08C0DEFF09C0DDFFDD520A
:100CF000DD5204EC0DF0D80EE66ED70E4AEC10F083
:100D0000E668E668010EE66EF90EC6EC0DF096ECAC
:100D100001F0EAEC10F0060EF3CFDBFF070EF4CF84
:100D2000DBFFDECF14F0DDCF15F0153416E21450E2
:100D30005008000E155411E2A3EC0FF074EC44F0CF
:100D4000E3EC0DF069EC0EF00A0E185E000E195A75
:100D5000FEEC10F030EC45F012D0A3EC0FF080EC7C
:100D600044F0E3EC0DF00A0EE76E69EC0EF0E7508C
:100D70001826000E1922FEEC10F02EEC45F01A6E2B
:100D8000060EE15E1A5002EC0EF0E3EC0CF079EC8A
:100D90000DF0080EE15C02E2E16AE5521CEF0DF095
:100DA000C3EC0FF0DAEC0DF0D80EE66ED70E4AEC7D
:100DB00010F0600EE66EEA0EC7EC0EF0010EE66E65
:100DC00096EC01F09AEC10F023EC65F01A6E0F0E21
:100DD000E15E1A50A6EC0DF040EC3BF0F1EC10F0A7
:100DE000090E01EC0DF0E66EE66A32EC0EF091ECC5
:100DF0000EF0CBEC0DF088EC0DF0A5EC10F0DDEC76
:100E00000FF0020EE15C02E2E16AE5521CEF0DF028
:100E10002CEC0DF0060EE126FB0EDBCF08F0FC0EED
:100E2000DBCF09F0580E081802E11B0E091802E189
:100E3000A4EF0CF0640E081802E1190E091802E183
:100E4000A0EF0CF0680E081802E1100E091802E17C
:100E500090EF0CF04A0E081802E1100E091802E19A
:100E60007FEF0CF0360E081802E1100E091802E1AF
:100E700072EF0CF0040E081802E1100E091802E1DE
:100E80006AEF0CF0BE0E081802E10F0E091802E11D
:100E90004FEF0CF0A00E081802E10F0E091802E146
:100EA00041EF0CF00A0E081802E10F0E091802E1DA
:100EB00039EF0CF0D80E081802E10E0E091802E105
:100EC00039EF0CF0A60E081802E10E0E091802E127
:100ED00029EF0CF0740E081802E10E0E091802E159
:100EE00025EF0CF0100E081802E10E0E091802E1B1
:100EF0001CEF0CF0AC0E081802E10D0E091802E10F
:100F000013EF0CF0C60E081802E10C0E091802E1EE
:100F100000EF0CF0B20E081802E10C0E091802E105
:100F2000F3EF0BF0800E081802E10C0E091802E135
:100F30007FEF0CF0760E081802E10C0E091802E1A2
:100F4000EFEF0BF04E0E081802E10C0E091802E14B
:100F5000E4EF0BF0120E081802E10C0E091802E182
:100F6000D5EF0BF0080E081802E10C0E091802E18B
:100F7000CFEF0BF0F90E081802E10B0E091802E191
:100F80001CEF0CF0E50E081802E10B0E091802E147
:100F9000E4EF0BF0CC0E081802E10B0E091801E18A
:100FA000F8D3C20E081802E10B0E091801E1D8D3DC
:100FB000A40E081802E10B0E091801E1B9D3680E5E
:100FC000081802E10B0E091802E17FEF0CF0540E35
:100FD000081802E10B0E091802E172EF0CF0220E64
:100FE000081802E10B0E091801E1C8D30E0E08180B
:100FF00002E10B0E091801E198D3F00E081802E186
:101000000A0E091801E18ED3BE0E081802E10A0E7D
:10101000091801E184D3AA0E081802E10A0E091882
:1010200001E162D3A00E081802E10A0E091801E1DD
:1010300058D3960E081802E10A0E091801E142D3AE
:10104000820E081802E10A0E091801E1A2D35A0E15
:10105000081802E10A0E091801E1B6D3280E081893
:1010600002E10A0E091801E11AD3F60E081802E18E
:10107000090E091801E10FD3C40E081802E1090E88
:10108000091801E100D3920E081802E1090E0918AF
:1010900002E172EF0CF0600E081802E1090E091867
:1010A00001E1EAD2560E081802E1090E091801E121
:1010B00018D3470E081802E1090E091801E111D3EF
:1010C0002E0E081802E1090E091801E1CFD2150E03
:1010D000081802E1090E091801E1C5D2FC0E081832
:1010E00002E1080E091801E1BED2E10E081802E182
:1010F000080E091801E1B1D2CA0E081802E1080E63
:10110000091801E192D2660E081802E1080E0918CA
:1011100001E17FD2340E081802E1080E091801E13E
:10112000BAD2020E081802E1080E091801E161D2D4
:10113000D00E081802E1070E091801E149D29E0EEF
:10114000081802E1070E091801E13ED2850E0818C1
:1011500002E1070E091801E12FD26C0E081802E116
:10116000070E091801E11DD23A0E081802E1070E18
:10117000091801E10DD2080E081802E1070E09183E
:1011800001E1F7D1D60E081802E1060E091801E1B7
:10119000DCD1A40E081802E1060E091801E1B3D152
:1011A0006B0E081802E1060E091801E199D1400EF4
:1011B000081802E1060E091801E17ED1DC0E0818BC
:1011C00002E1050E091801E16FD1CB0E081802E10A
:1011D000050E091801E165D1960E081802E1050E09
:1011E000091801E146D1140E081802E1050E09188C
:1011F00001E128D1E20E081802E1040E091801E10C
:1012000017D1B00E081802E1040E091801E1FED052
:101210007E0E081802E1040E091801E1F1D06A0EF1
:10122000081802E1040E091801E1E4D0FC0E0818C8
:1012300002E1030E091801E1CBD0F90E081802E112
:10124000030E091801E1C1D0C00E081802E1030E17
:10125000091801E1B1D0B60E081802E1030E091811
:1012600001E1A4D0840E081802E1030E091801E17F
:1012700086D0200E081802E1030E091801E175D08E
:10128000BC0E081802E1020E091869E08A0E08185F
:1012900002E1020E09185FE0580E081802E1020E82
:1012A000091801E1C9D2260E081802E1020E091838
:1012B0004EE0F40E081802E1010E091834E0900E19
:1012C000081802E1010E091819E02C0E081802E1B5
:1012D000010E09180BE0FA0E081801E03AD3095084
:1012E00001E037D3EEEC0FF0640E80D08DDBF60E0C
:1012F000E66EE66868DB15EC05F0CED2A2EC0DF0E8
:1013000041EC0EF0BEEC11F0190E47EC0FF07FEC43
:101310000FF0320E26EC11F001E01BD3020E15EC9B
:101320000EF0B2DBC7D070DBE20EE66EE668BEEC14
:1013300011F06E0E47EC0FF07FEC0FF0870E26ECED
:1013400011F001E006D37FEC0FF0550E5FD109ECF0
:1013500010F00A0E85D182EC11F0500E97D1E66A9A
:10136000780EE66EE66A8C0E06D0010EE66EB40EBE
:10137000E66EE66A140EAAEC10F069DCDCD2010E0F
:10138000E66EF00EE66EE66ADDDBA9EC0FF0010E0C
:10139000E66E44EC0FF0FB0EE66EE6683AEC10F0F9
:1013A00009EC10F0F0EC0DF06E0E20D0D8EC10F03F
:1013B0004BEC11F0020E93D2D8EC10F0820EC4EC7C
:1013C00010F0020E83DB730EB2D21EDB160E60D25B
:1013D000E66A780EE66EE66A8C0EE66EE66AA9ECC0
:1013E0000FF0E66A010E15EC0EF0820EAAEC10F07A
:1013F00064DC16D282EC11F0F60EE66EE66836D2A8
:1014000072EC10F0F80E1426E90EBDD1AEEC0FF020
:10141000A2EC0EF0D8EC10F032EC0EF0A2EC0EF0D4
:10142000A0EC10F001E095D24EEC11F0820E1CD22F
:1014300082EC11F0D5DBD80EE66EE66897EC0EF084
:10144000500E1CD2EEEC0FF0780EE66EE66A3AEC27
:1014500010F0010EE66EF00ECCEC0FF0A9EC0FF0E0
:10146000020E34DBA00EC8EC10F0030EDEDB8C0E97
:10147000FBD1CADAB5DB23EC10F028EC10F0DEDA91
:10148000010EDBCFE6FFD0EC0FF0ECDB9DEC0EF0B5
:10149000D8EC10F0690EC4EC10F0010EDBCFE6FFC3
:1014A00090D1B2DA760EF4D19BEC11F04BDBE9DB94
:1014B00097EC0EF04B0EAAD0030EE66E0F0EE66E02
:1014C000E66AEEDAA2EC0EF09BEC11F0190EC8EC15
:1014D00010F0030EE66E0F0EE66EE66A280EC4D11B
:1014E0007FDB92DAABDA7FEC0FF0320E2AEC11F0F0
:1014F000D8EC10F0460EE66EE66A5DEC0FF07FEC7D
:101500000FF05A0EBBD1C1DBD0EC0FF0C9DAF5EC0D
:101510000FF0BBDBC5DA820EE66EE66AF5EC0FF083
:1015200005EC11F044EC0FF0D3EC11F0280EC9DA01
:1015300009DB6ADA59EC0FF0CEEC11F05A0ED880C4
:101540001656000E1756DADBBED1040E72EC0FF001
:101550003AEC10F082EC11F0A3DAF60EE66EE668D3
:10156000E6DB500E2FEC10F0E4DA030EE66E000E10
:101570001FD005EC11F0C7EC0EF0CFDB5DEC0FF0E7
:10158000A0EC10F001E0E5D182EC11F0500E6CD12E
:1015900082EC11F06BDB5DEC0FF09BEC11F0410E77
:1015A00075D0D8EC10F04BEC11F0020EE66E1E0E6A
:1015B000E66EE66A280EBBD1DBEC11F053DBBDDB37
:1015C000F8EC0FF0640EB3D19BEC11F03C0E5ED042
:1015D000F8EC0FF046EC10F0B0DBD8EC10F052EC69
:1015E00011F0F8EC0FF099DBA8DB020E1EDB490EC0
:1015F0004DD0F6DA0F0EE66EE66A20DA2FEC11F027
:10160000E7DB5BEC05F095DA2FEC11F033EC11F031
:1016100036D195EC10F0C8EC10F028DBFBEC0FF0A5
:10162000EFEC04F0146E080E44D0A0EC10F009E1C9
:1016300082EC11F0C8EC10F09BEC11F0D0EC0FF044
:1016400081DBA0EC10F001E084D1F2EC0FF065DB5F
:1016500079DBF2EC0FF0460E07D1040E6FDA000EC4
:10166000E66EE66A78D0D0D9500EB3D0CDD96ADA1A
:1016700055EC11F08C0EADD0B2EC0FF0C5D9FADA02
:10168000B6EC0FF0F7D082EC11F00A0EAAEC10F0D5
:1016900039EC05F050D195EC10F04B0E0FD095ECD5
:1016A00010F0C8EC10F0FBEC0FF066EC05F0146ED7
:1016B000060EE15E145082EC11F0A00EC8EC10F0A2
:1016C000030ED0D0D4EC0FF0A3D9EECF1AF0EFCFA9
:1016D0001BF0010EDB501A5C186E020EDB501B581B
:1016E00011D0EBEC0FF077D0D4EC0FF0010EDBCF84
:1016F0001AF0020EDBCF1BF08BD91A50EE24186EB5
:101700001B50EE20196E18C0E6FFE66E38EC11F0A3
:10171000B6EC04F01C6E080EE15E1C501AD1B2EC5F
:101720000FF0BDD071D9500EB3D06ED9780EB0D0B5
:101730007ED908DA97DA06DBD8EC10F0EEDA02DBB5
:10174000A0EC10F005E14EEC11F0820EC8EC10F0A8
:10175000EEEC0FF03C0EAAEC10F057EC06F060D067
:10176000D0EC0FF0E66EE66A46EC10F0F5EC0FF008
:1017700081DA46EC10F076DAF5EC0FF072EC10F04E
:10178000800E1426E90E152212EC11F058EC11F01F
:1017900076D03AD96FDA55EC11F0640E1AD034D9FC
:1017A00065DA11D966EC05F077D0F8EC0FF06E0E23
:1017B000C4EC10F0DBEC11F0730EC4EC10F0030E6F
:1017C000E66EEEDB820EB3D01FD9EADB55EC11F0EA
:1017D000820EE66EE66A38EC11F03FDA78D014D962
:1017E00045DAC4DB7FD0DBEC11F046EC10F0A5DA73
:1017F000F8EC0FF03BDAA1DA39DA06D9460E0CD054
:10180000DBEC11F0960EC4EC10F0F2DB6E0EC4ECC3
:1018100010F02CDAF9D8820EAAEC10F0EFEC04F0FC
:10182000146E080E8AD0040E2FDB960EC4EC10F056
:10183000040E4CD96E0E7BD0DBDB1CDA7EDADBECDF
:1018400011F052EC11F0030E70D0010EECDA010E23
:101850002BD0040E9CDA15DA75DA9BEC11F015DA50
:1018600071DA040E94DAB40EE66EE66A58EC11F002
:1018700062D078DBC4DB2AEC11F0C1DBF0DB59D994
:1018800068D0C2D8EFD9DFDBE20EE66EE668640E00
:10189000AAEC10F082EC05F0146E060E4ED09BDB25
:1018A00065DB020EC0DA020EE66E4CD9010EDBCF0C
:1018B00016F0020EDBCF17F0ABD81650EE24146EE4
:1018C0001750EE20B5D9D7EC11F0186E070EE15E77
:1018D00018503FD0010ED8DA4BEC11F0010EF6D8BB
:1018E000230E25D0010EE66E5F0E56DBF60EE66E79
:1018F000E668BDDB010EE66EFAD9000E0AD0E66A94
:101900005F0E4ADBAA0EE66EE66AB1DBE66AEFD945
:10191000B40EAAEC10F0A6EC05F0146E090E0DD072
:10192000010EB2DA52EC11F0010ED0D85A0EAAEC28
:1019300010F05BEC05F0146E070EE15E145009D058
:1019400042D865EC06F003D03ED8D0EC06F0E55264
:10195000E552060EE15C02E2E16AE5526DD07CD808
:10196000BDEC10F0020ED2DACDEC75F0E552E55286
:10197000BDEC10F0060EEB6A070EEB6AF5EF10F007
:101980000201E25106E15E0E126F190E136F010E95
:10199000E26F3AD823EC52F0E552E552F3CF14F25D
:1019A000F4CF15F2120E146E020E156E86D0E552AB
:1019B000E55206C014F007C015F008C016F009C0C3
:1019C00017F0E2EF0FF0FD0EDBCFE6FFFE0EDBCFF0
:1019D000E6FF1200EAEC10F01FDAA3EC11F0CFEFF3
:1019E0000EF0E552E552C7EF0FF0E66EAEDB47DBD7
:1019F0009EEF11F0FB0EDBCFE6FFFC0EDBCFE6FF28
:101A00001200CADB17EF11F0000EE66EE66A120054
:101A1000B4DB110EF8DA020E30D3146E070EE15E5D
:101A200014501200EECFE6FFEECFE6FFF3D310DB4B
:101A300040DAF350E66E1200E16ED7D33ADA0CEFDB
:101A400010F0DECFE9FFDDCFEAFF1200E66E6DECAD
:101A500078F0E552D0EF10F0D9CFE6FFE1CFD9FF13
:101A60001200D8801456000E1556040E14C0DBFF69
:101A7000050E15C0DBFFDBDA0001800E1514120025
:101A800070DB040EE15C1200010EDBCF14F0020EDD
:101A9000DBCF15F01200DBCFEAFF110E86EF0FF05F
:101AA0000A0EE66EE66A1200C7EC11F09AEC6DF0D1
:101AB0001C6E0D0EE15E1C50120014C0F3FFF46E9C
:101AC00012001426000E152212EF11F0E66ED0EF70
:101AD0000FF0130E98DA0E0ED0D2166E060EE15EDF
:101AE000165055DACAEF0EF0F80EDBCFE6FF3DEFE9
:101AF00011F05EEC30F0B1EF10F0020EEDDA97DB92
:101B0000E66A1200E66E6DEC78F0E5520CEF0FF02D
:101B1000186E060EE15E18501200040EDBCFE6FFD1
:101B2000050EDBCFE6FF1200146E060EE15E1450C8
:101B30001200166E070EE15E16501200E66E010EE0
:101B4000E66E1200140EE66EE66A120029DBA5EFBF
:101B500010F0D950070FE96EDACFEAFF1200010E3C
:101B6000F36E040EF3CFDBFF050EDB6A1200E552C5
:101B7000E552040E06C0DBFF050E07C0DBFF060EB4
:101B800008C0DBFF070E09C0DBFF1200E66E93EC16
:101B90006EF09EEF11F0D9DA18EF45F0EFEC04F09B
:101BA000146E080EE15E14501200D880EE54000E40
:101BB000ED5412006E0EE66E050EE66E1200010E7A
:101BC000E66EE66A1200E552E5522ADAF00EE66E9B
:101BD000E66A1200010EE66EF80EDBCFE6FF120099
:101BE000280EE66EE66A1200F36E060EDBCFF4FFF7
:101BF000F350F45C1200A6EC05F0146E090EE15EE1
:101C000014501200060EDBCFE6FF070EDBCFE6FF17
:101C1000120057EC06F0146E080EE15E145012002C
:101C2000010EE66E020EE66E1200E66E46EF10F052
:101C3000156E14C0E6FFE66E1200010EDBCFE9FF61
:101C4000020EDBCFEAFF19D234D9F350F4101200A0
:101C5000186E0B0EE15E18501200B6EC04F0186E10
:101C6000080E1200500EE66EE66A12005A0EE66E7C
:101C7000E66A12003C0EE66EE66A1200E1266BEFA1
:101C80000FF0EC0EE66EE66812004B0EE66EE66AAA
:101C90001200F50EDBCFE6FFF60EDBCFE6FF1200FB
:101CA000010EDBCFE6FF020EDBCFE6FF120073EC86
:101CB00030F0B1EF10F037EC47F01A6E090EE15E2C
:101CC0001A501200A6EC05F0186E090EE15E1850CD
:101CD0001200040EDBCF18F0050EDBCF19F0120056
:101CE00039EC05F0186E070EE15E18501200410E37
:101CF000E66EE66AE20EE66EE668120016C0E6FFE1
:101D000017C0E6FF1200EECF14F0EFCF15F012006F
:101D1000010EE66E040EE66E1200640EE66EE66AD2
:101D2000120042EC78F0E552E552D7EF0CF07AEC75
:101D300074F0E552E552F1EF0CF045DE5BEC05F096
:101D40000DEF0DF0B5DA0DEF0DF0DBCFE6FF030E72
:101D5000DBCFE6FF120045DA17EF11F042DA020E90
:101D600001EF0DF01DDAD950F70F29DA14DFDCDEB0
:101D7000ECD940DE6BEC30F0B1EF10F0C3DE50DF99
:101D800093EC6EF02EDEB9DE070E85EF11F0E66EF5
:101D900004EF0DF0F3CFE6FFF4CFE6FF120071EC95
:101DA00044F0E552E552FADA166C171E000E1722BF
:101DB000F90EDB50165C146EFA0EDB501758156ED8
:101DC000CBDAEAD914C0EEFF15C0EDFF020E120007
:101DD000D8801456000E155625DAE3EF0CF0F3DD2B
:101DE00089EC44F0D7EF0CF0FCD9040E0ADEDAEFF0
:101DF0000DF0E9DD61EC30F040EF0DF0BED9020EE0
:101E0000CBD910DE5DEC63F068DE37DA72DEEDD13F
:101E1000E4D9060E26EF0DF0020EF3CFDBFF030E22
:101E2000F4CFDBFF1200E66E8DDEF2DDEECF16F0B2
:101E3000EFCF17F0010EDB50165C146E020EDB5074
:101E40001758F6DEC0DD70EF0EF06AEC70F000DFC0
:101E50007DDEB9DD76EC30F040EF0DF0B0D9020E4A
:101E600012001702F3CF17F01602F3CF16F0F4505A
:101E70001726FB0EDB50F324146EFC0EDB501720EC
:101E8000D7DEA1DD62EF0EF0E66E50EF0DF0EBD97C
:101E900099EF0DF0050EE66EE66A11DAACEC00F093
:101EA000EAEF0CF090DDB0DDD8DEE15E185004EF13
:101EB0000DF07AEC74F0B1EF10F079DA0DEF0DF06F
:101EC000CBDDF70EDBCFE6FF0FDE94DD98EC5DF0A7
:101ED00004DEE3EF0CF0F70EDBCFE6FFF80EDBCF0E
:101EE000E6FF12002BDE90DDE66EE66A120075D981
:101EF00026EF0DF0E96EDACFEAFF12EF0DF0020ED9
:101F0000E5DD44EF0DF05BDE04EF0DF045D982D145
:101F1000F3CF1AF0F4CF1BF0120017D9B5D9020E87
:101F2000E15C12008DD989EC44F0E552E5521200D3
:101F300088DDCFDD83EF0EF023EC65F01C6E0F0E15
:101F4000E15E1C501200FD0EDBCFE9FFFE0E4BEFF1
:101F50000DF039DD27EC06F00DEF0DF068DDF2DD58
:101F600050EF0DF087DE3CDE1EEF0DF02CDD66EC51
:101F700005F094EF0DF05DEC63F088EF0DF008ECE8
:101F800045F088EF0DF068DD020EE1261200F3CF78
:101F900014F0F4CF15F01200E66EE66A04EF0DF0CF
:101FA0001E0EE66EE66A1200140EF36E010EF3CFFB
:101FB000DBFF020EDB6A04EF0DF005DD61EC30F0B3
:101FC000B1EF10F006C0E6FF07C0E6FF08C0E6FF6D
:101FD00009C0E6FF120018DD1BDD1CD1030EAEDDCB
:101FE00050EF0DF024DD50EF0DF0EDDCCEEF0DF0F5
:101FF000030E66EF0DF008DD460EAAEF10F04ED985
:1020000043DD3C0E1200C8D8EE50EFCFEAFFE96E78
:102010001200020E9EEF0DF0DE52C2D8DD52120009
:10202000040EF3CFDBFF050EF4CFDBFF1200040E2E
:10203000DBCF14F0050EDBCF15F01200DBDC6BEC10
:1020400030F040EF0DF0BFDC82EC05F094EF0DF0C6
:10205000030EE66EE66A020EE66EE66A120031DDF7
:10206000D7EF11F0CDEC74F0E552E5521200ABDC85
:10207000FBEF0DF0A8DC09EF0EF0CCEF10F0BAEC9E
:102080005BF0E5521200020EF5EF0CF0320EE66E38
:10209000E66A12007CDEE66EE66A91EF0EF077DE0D
:1020A000A9DC91EF0EF0E66ED950F90FD7DEE66E9F
:1020B0004CDEE5DF68D9E66A1200E5DF84EC01F06A
:1020C000F3DCAADED950F70FC9DE3FDE18EC45F08D
:1020D0002BDD39D91EEF10F0DBCFE9FF030EDBCF8C
:1020E000EAFF12007FDF58DF22DE0A0E71DE50ECBD
:1020F00005F01FDD33DF57D9D8901436153612009E
:102100000CDD5DDD14DE010EF3181200E4DEF70EC7
:10211000DBCF16F0F80EDBCF17F0166C171E000E93
:102120001722ECDD04DE1DEF0EF005D9AADD0ADE74
:1021300082EF11F0F3CF18F0F4CF19F0CAEF0EF0E0
:10214000E2DEF5DDF350F4101200DECFE6FFDDCF66
:10215000E6FF1200E66EE66AE3EF0CF0F6DDF9EF5B
:102160000EF0E552E552E552E552120017D912DEA3
:1021700025EF0FF0F0DDB8EF11F0FD0EDBCFE9FF3A
:10218000FE0EDBCFEAFF1200E66EE66A9DEF0EF070
:10219000E66EE66AA2EF0EF0E926000EEA221200D1
:1021A000F3CFDEFFF4CFDDFF1200C8DC87EF72F063
:1021B000020E44EF0FF096DEB4DDBBEF0FF0E96ED8
:1021C000FF0EDA20EA6E12EF0DF023DF93EC6EF0D3
:1021D000ABEF0EF0DCD89CEF0FF03EDC040EE126F6
:1021E0001200F1EC0CF021EF0DF0E552E7CFD9FF32
:1021F000120012DEF4DDA7D8BFEF0FF018C0E6FF23
:1022000019C0E6FF8EDD02EF0EF07CD8E9DC55DE6A
:10221000030E1200EECFE6FFEFCFE6FF1200DFDD88
:10222000FAEF0CF014C0E6FF15C0E6FF1200F3CF82
:10223000EEFF15C0EDFF1200B6D8D890F450120092
:10224000FB0EDBCFE9FFFC0E4BEF0DF020DE5BDE7B
:1022500024EF0EF0BDDD39EC05F099EF0DF06BD8F1
:1022600013DC500E12002DDCE3EC0CF05BEF05F0FC
:1022700058DDE3EC0CF004EF0DF0F90EDBCFE6FFD8
:10228000FA0EDBCFE6FF1200FAEC0CF079EF0DF05E
:10229000BFDDEAEF0DF056DC9DEF0EF0020EE66EAC
:1022A000A2EF0DF0F2DC9DEF0EF03BDD52EF0FF0F0
:1022B000E3EC0CF050EF05F0E66E2EEF74F0030E39
:1022C000F5EF0CF057DF200EE66E030EE66ED4EC51
:1022D00060F08ADD400EE66E090EE1DEDBDDAEEF7A
:1022E00010F0D8DE48DE5CDF7ADD2FDFBFEF0FF0C5
:1022F000EAEC0CF0F1DE150E4FDF010EEF6E020E70
:10230000AEEF10F0020EC7EF0EF0D6DFF1EC0CF0DE
:10231000020EE76EE1DEE75001EF0DF0E66A360EE1
:10232000E66E070E4AEF10F093EC6EF014DD2C0E03
:102330003CDFAEEF0EF0030EC7EF0EF0E552E552B4
:10234000F9DEE66A1200020EA5EF0EF04DDD0C0E6E
:10235000E66E080E4FEF10F0020EBEDE020E1CDF1E
:10236000020E1200E66E500EE66E070E4FEF10F0F2
:10237000FAEC0CF043EC71F0AEEF0EF01EEC0DF049
:1023800017DF44EF0DF0F1EC0CF0CAEF0EF0C0DDFA
:10239000CAEF0EF0EAEC0CF0AEEF10F0F3CF16F04F
:1023A000F4CF17F0120004EC0DF097EF0EF0E3EC11
:0C23B0000CF039EF05F0030E44EF0FF0C5
:0423BC003DEC1EF0E6
:1023C000140EE126180E08EC1FF0A00E88EC20F089
:1023D0000A0EDB6A63EC1FF00D0EDB6A0F0EF9ECE0
:1023E0001FF00E0EF3CFDBFFFE0EDB5004E1ACEC72
:1023F0001EF06F0E16D0FE0EDB0404E1ACEC1EF0F6
:102400007E0E0FD0FE0EDB50020804E1ACEC1EF095
:102410008D0E07D0FE0EDB5003080AE1ACEC1EF077
:102420009C0E2BEC1EF00B0E10EC1EF0040EDB6A63
:10243000DF6A0A0EDF5C0DE2D950010FE6EC20F0F6
:102440000C0FBCEC1FF0180EEE26000EED22DF2A5A
:10245000F0D7140EE15C02E2E16AE552E16E70EF42
:1024600020F03DEC1EF0E652DF6A040EDF5C05E270
:10247000DFCFE6FFB1EC1FF0F8D729EC20F0DF6AE0
:10248000040EDF5C03E21AEC21F0FAD7E55270EF9C
:1024900020F03DEC1EF0610EA6EC20F0580E15EC7D
:1024A00020F00B0E7DEC20F03F0E15EC1EF08FECB3
:1024B00020F01B0EF36EDB6E1C0EDB6A1F0E0FECA2
:1024C0001FF00E0E16EC1FF0870ED6EC1EF0230E3A
:1024D000F9EC1FF0220EF3CFDBFF280EDB6AC20EF1
:1024E000F36E290E42EC1EF02A0EF3CFDBFF2B0E0B
:1024F000DB6A1B0EDDEC1EF01F0E1DEC1FF00E0E36
:1025000024EC1FF0870E2BEC1FF0360EF9EC1FF0B9
:10251000350EF3CFDBFF400EF36E3B0EF3CFDBFF48
:102520009A0EF36E3C0EF3CFDBFF020E32EC1FF07F
:10253000060E39EC1FF02D0E40EC1FF0330E47EC69
:102540001FF0860E4EEC1FF0490EF9EC1FF0480EFE
:10255000F3CFDBFF4E0EDB6A9E0E9AEC1DF01A0ED7
:10256000BAEC1EF04F0E4CEC1EF0490EC1EC1EF002
:102570004C0EC8EC1EF05C0EF9EC1FF05B0EF3CFB6
:10258000DBFF0101940E006FAE0E016F020E026FB1
:10259000036B0F0E066F076B2F0E046F056B0A0E91
:1025A000096F0A6B510E0B6F0C6B0E6B010E0D6FEA
:1025B000800ECFEC1EF02E0E196F1A6B2B0E176FBC
:1025C000186B1B0E1C6F1D6B820E1E6F1F6B010E96
:1025D000216F206F5EEC20F001E097D1010EE66ED6
:1025E0002BEC78F0E552F40E80EC1DF001E08DD17B
:1025F000ECEC20F0FA0E80EC1DF001E086D1E00E4C
:102600002BEC1EF05E0E20EC21F0FA0E80EC1DF09B
:1026100001E07BD1C00E2BEC1EF0650E20EC21F00A
:10262000BEEC20F001E071D1DEEC1DF0BEEC20F03C
:1026300001E06BD1DF6A050EDF5C0BE2C0EC1FF03E
:10264000A3EC1EF0640E80EC1DF001E05ED1DF2AE9
:10265000F2D7DE521E0EDD6EDF6A050EDF5C11E280
:10266000C1EC20F001E051D1C1EC20F001E04DD1EE
:10267000F0EC20F001E049D10F0E21EC1EF0DF2A32
:10268000ECD7DE52140EDD6EDF6A050EDF5C1CE255
:1026900008EC21F05C0ED1EC1FF07FEC1FF047EC52
:1026A0001EF001E032D17FEC1FF047EC1EF001E09C
:1026B0002CD17FEC1FF0B8EC1FF001E026D10F0EFB
:1026C00021EC1EF0DF2AE1D7DE52960EDD6EDF6AC6
:1026D000030EDF5C18E2C1EC20F001E016D1C1EC82
:1026E00020F001E012D1F0EC20F001E00ED13C0E20
:1026F000146E010EDBCFE7FF1450E75E010EE7CF4B
:10270000DBFFDF2AE5D7C6EC1FF0DE520A0EDD6ED6
:10271000DF6A020EDF5C11E2C1EC20F001E0F5D0CF
:10272000C1EC20F001E0F1D0F0EC20F001E0EDD0C0
:10273000280E21EC1EF0DF2AECD7500E5AEC1EF0CA
:102740009E0E9AEC1DF04B0E4CEC1EF0600E5FECF2
:102750001EF0350E046F056BC6EC1FF0C1EC20F0C7
:1027600001E0D3D0C1EC20F001E0CFD0F0EC20F0BC
:1027700001E0CBD0280E21EC1EF0400E5AEC1EF0EA
:10278000AE0E9AEC1DF0530E4CEC1EF0600E5FEC9A
:102790001EF0C6EC1FF0C1EC20F001E0B6D0C1EC99
:1027A00020F001E0B2D0F0EC20F001E0AED07FEC00
:1027B0001FF0800E5AEC1EF0BE0E9AEC1DF0610E5A
:1027C0005FEC1EF0360E046F056BC6EC1FF034ECA8
:1027D00021F001E09AD02EEC20F0200EBAEC1EF091
:1027E000540E4CEC1EF0480EC1EC1EF04B0EC8EC23
:1027F0001EF0600E5FEC1EF0E9EC20F0320E80EC73
:102800001DF001E082D06DEC1EF0150E066F076B17
:102810003E0E046F056B040E096F0A6B500E0B6FB2
:102820000C6BE9EC20F0DF6A0A0EDF5C10E2DDECF5
:1028300020F09FEC1DF00CEC21F067E1FCEC20F0A7
:102840009FEC1DF00CEC21F060E1DF2AEDD708ECE5
:102850001EF0DF6A1E0EDF5C0CE2DDEC20F040ECC7
:1028600020F053E1FCEC20F040EC20F04EE1DF2AB8
:10287000F1D7200EFBEC1EF06D0E30EC1EF0DF6A7F
:10288000050EDF5C11E2C0EC1FF008EC1EF0D95021
:10289000150FBCEC1FF0200E1FEC20F0320E80EC68
:1028A0001DF033E1DF2AECD78FEC20F0DF6A050E54
:1028B000DF5C0CE2C0EC1FF008EC1EF0A3EC1EF095
:1028C000320E80EC1DF021E1DF2AF1D7FA0E80EC08
:1028D0001DF01BE1D950280F71EC1DF0180E0101FD
:1028E0001C6F1D6BAB0ECFEC1EF02E0E24EC21F0F6
:1028F00034EC21F00AE10101D90ECFEC1EF03C0EC0
:1029000024EC21F0BEEC20F002E0010E01D0000E1C
:10291000146E610EE15C02E2E16AE5520DEF1EF019
:102920003DEC1EF0610E7AEC1EF0800E52EC20F0B1
:10293000AA0E53EC1EF04D0E73EC1EF0140E55EC67
:102940001FF0270EF36E0D0EF3CFDBFF0E0EF9EC2A
:102950001FF0100E42EC1EF00F0EF3CFDBFFAD0E9A
:10296000FBEC1EF0860E74EC20F00A0E94EC20F0C6
:10297000450EF36E1B0EF3CFDBFF1C0EDB6A280E39
:102980000FEC1FF0480E16EC1FF0470ED6EC1EF0B1
:10299000010EF36E230E42EC1EF0220EF3CFDBFF8E
:1029A0000D0EF36E280EF3CFDBFF4F0EF36E290EE4
:1029B000F3CFDBFF0A0EF36E2A0EF3CFDBFF2B0EF5
:1029C000DB6A590EDDEC1EF03B0E1DEC1FF0480ECD
:1029D00024EC1FF03B0E2BEC1FF0010EF36E360EB5
:1029E00042EC1EF0350EF3CFDBFFC00EF36E3B0E54
:1029F000F3CFDBFFE50EF36E3C0EF3CFDBFF090EEA
:102A000032EC1FF09C0E39EC1FF0390E40EC1FF039
:102A1000310E47EC1FF0190E4EEC1FF0010EF36E55
:102A2000490E42EC1EF0480EF3CFDBFFF90E5AECD4
:102A30001EF0E50EAFEC20F0090EF36E19EC20F05D
:102A40009C0EBAEC1EF0260E4CEC1EF06A0EC1EC89
:102A50001EF0190EC8EC1EF0010EF36E5C0E42EC77
:102A60001EF05B0EF3CFDBFF0101600E266FA00EA0
:102A7000276F090E286F296B6F0E2C6F2D6B280E98
:102A80002A6F2B6B0D0E2F6F306B030E316F326B75
:102A9000010E346F336F950E396FA00E3A6F090E29
:102AA0003B6F3C6B6F0E3F6F406B150E3D6F3E6B87
:102AB000430E426F436B030E446F456B010E476F2D
:102AC000466FEB0E4C6F9E0E4D6F090E4E6F4F6BA7
:102AD000110E526F536B506F516B780E556F566BD2
:102AE000020E576F586B010E5A6F596F750E5F6F5C
:102AF000A50E606F0A0E616F626B140E656F666BD8
:102B0000100E636F646B8F0E686F696BBC0E6A6F1B
:102B10006B6B010E6D6F6C6F8D0E726F470E736F66
:102B20000A0E746F756B0C0E786F796B3B0E766FB7
:102B3000776B060E7B6F7C6B0F0E7D6F7E6B010ECD
:102B4000806F7F6FBF0E856F0E0E866F0A0E876FC8
:102B5000886B090E8B6F8C6B410E896F8A6B060E2A
:102B60008E6F8F6B1D0E906F916B010E936F926F36
:102B70005F0E986F140E996F0A0E9A6F9B6B090E79
:102B80009E6F9F6B410E9C6F9D6B060EA16FA26B9B
:102B90002C0EA36FA46B010EA66FA56FAB69190E67
:102BA000AC6F0A0EAD6FAE6B090EB16FB26B1A0E41
:102BB000AF6FB06B060EB46FB56B3A0EB66FB76BF6
:102BC000010EB96FB86FC00EBE6F9A0EBF6F090EBF
:102BD000C06FC16BC46FC56B3C0EC26FC36B060E7A
:102BE000C76FC86B490EC96FCA6B010ECC6FCB6F34
:102BF000FC0ED16F9A0ED26F090ED36FD46BD76FC4
:102C0000D86B3C0ED56FD66B420EDA6FDB6B490E7C
:102C1000DC6FDD6B010EDF6FDE6F5EEC20F001E03C
:102C2000AAD0ECEC20F034EC21F001E0A4D0D95093
:102C3000150F71EC1DF0DF6A0A0EDF5C0EE2D7ECB7
:102C40001FF0AAEC1FF001E096D0D950150FAAECA6
:102C50001FF001E090D0DF2AEFD7D950280F71EC98
:102C60001DF0DF6A0A0EDF5C11E2D7EC1FF0E6EC24
:102C700020F0150FAAEC1FF001E07DD0D950280FED
:102C8000AAEC1FF001E077D0DF2AECD77FEC1FF031
:102C900040EC21F0DF6A0A0EDF5C12E23AEC21F030
:102CA000AAEC1FF068E17FEC1FF00CEC21F063E16F
:102CB000030EDF5C03E1CD0E52EC20F0DF2AEBD7F0
:102CC00003EC1EF058E1ECEC1DF0DF6A0A0EDF5C4D
:102CD0001DE23AEC21F071EC1DF07FEC1FF00CECE2
:102CE00021F049E1ECEC1DF0190E80EC1DF043E100
:102CF000070EDF5C09E1400E2BEC1EF0470E10ECD6
:102D00001EF00A0EE3EC1DF0DF2AE0D7010EFDEC09
:102D10001DF031E1720EE66E010E29EC21F02BE17F
:102D200003EC1EF028E1850EE66E010E29EC21F081
:102D300022E103EC1EF01FE103EC1EF01CE1980EF3
:102D4000E66E010E83EC1FF0BEEC20F014E1AB0E3A
:102D5000E66E010E29EC21F00EE1BE0EE66E010ECC
:102D600083EC1FF0D10EE66E010E83EC1FF0030E14
:102D7000FDEC1DF002E0010E01D0000E146E610E9C
:102D8000E15C02E2E16AE5520DEF1EF03DEC1EF05F
:102D9000200EA6EC20F0030EDB6A130EB4EC20F03C
:102DA000040EF3CFDBFF050E95EC1DF0060EF3CFFE
:102DB000DBFF070E95EC1DF0080EF3CFDBFF090ECD
:102DC00095EC1DF00A0EF3CFDBFF0B0E95EC1DF01A
:102DD0000C0EF3CFDBFF0D0E95EC1DF00E0EF3CFB6
:102DE000DBFF0F0E95EC1DF0100EF3CFDBFF110E85
:102DF00095EC1DF0120EF3CFDBFF130EF4CFDBFFCB
:102E0000B4EC20F0140EF3CFDBFF150E95EC1DF0A3
:102E1000160EF3CFDBFF170E95EC1DF06DEC1FF0D7
:102E200095EC1DF01A0EF3CFDBFF1B0E95EC1DF099
:102E30001C0EF3CFDBFF1D0E95EC1DF01E0EF3CF25
:102E4000DBFF1F0EF4CFDBFF10EC21F0DBCFEAFF3E
:102E50008A0EEE6E300E68EC1FF010EC21F0B0EC34
:102E60001DF0BA0EC9EC1FF0B5EC1DF02C0EC9EC2C
:102E70001FF07BEC1DF00A0EC9EC1FF0AEEC1FF04A
:102E8000280EC9EC1FF067EC1EF010EC21F089EC65
:102E90001DF015EC21F0DBCFEAFFCA0EEE6EA40E9A
:102EA00068EC1FF015EC21F0B0EC1DF0BA0ECDEC83
:102EB0001FF0B5EC1DF02C0ECDEC1FF07BEC1DF0DF
:102EC0000A0ECDEC1FF0AEEC1FF0280ECDEC1FF07B
:102ED00067EC1EF015EC21F089EC1DF00AEC20F0F7
:102EE000DBCFEAFF800EE4EC1EF00AEC20F0B0EC41
:102EF0001DF0BA0E2CEC21F0B5EC1DF02C0EA9EC57
:102F00001EF00A0EA9EC1EF005EC1EF0280E2CECAB
:102F100021F067EC1EF00AEC20F089EC1DF0DBECF0
:102F20001FF0DBCFEAFFC00EEE6E1B0E99EC1EF019
:102F3000DBEC1FF00FEC20F0DBEC1FF012EC20F0CC
:102F4000DBEC1FF07BEC1DF0410EEE6EED6ADBEC6E
:102F50001FF0AEEC1FF0500EEE6EED6ADBEC1FF0D2
:102F6000A4EC1DF0DBEC1FF089EC1DF0E0EC1FF091
:102F7000DBCFEAFFFC0EEE6E1B0E99EC1EF0E0ECD0
:102F80001FF00FEC20F0E0EC1FF012EC20F0E0EC72
:102F90001FF07BEC1DF0410EEE6EED6AE0EC1FF0D1
:102FA000AEEC1FF08C0EEE6EED6AE0EC1FF0A4ECC0
:102FB0001DF0E0EC1FF030EC21F0010EEF6EE5ECBF
:102FC0001FF0DBCFEAFFE00EEE6E370E99EC1EF03D
:102FD000E5EC1FF00FEC20F0E5EC1FF012EC20F018
:102FE000E5EC1FF07BEC1DF00A0EEE6EED6AE5ECF1
:102FF0001FF0AEEC1FF0780EEE6EED6AE5EC1FF000
:10300000A4EC1DF0E5EC1FF089EC1DF0EAEC1FF0DC
:10301000DBCFEAFF1C0EEE6E380E99EC1EF0EAECE8
:103020001FF00FEC20F0EAEC1FF012EC20F0EAECBD
:103030001FF07BEC1DF00A0EEE6EED6AEAEC1FF05D
:10304000AEEC1FF0B40EEE6EED6AEAEC1FF0A4ECED
:103050001DF0EAEC1FF089EC1DF0EFEC1FF0DBCF68
:10306000EAFFEE6A540E99EC1EF0EFEC1FF00FEC45
:1030700020F0EFEC1FF012EC20F0EFEC1FF062EC10
:1030800020F0EFEC1FF0AEEC1FF0780EEE6EED6A64
:10309000EFEC1FF0A4EC1DF0EFEC1FF089EC1DF03D
:1030A000F4EC1FF0DBCFEAFF3C0EEE6E540E99EC11
:1030B0001EF0F4EC1FF00FEC20F0F4EC1FF012EC1B
:1030C00020F0F4EC1FF062EC20F0F4EC1FF0AEEC1A
:1030D0001FF0B40EEE6EED6AF4EC1FF0A4EC1DF0E0
:1030E000F4EC1FF089EC1DF0CEEC20F0DBCFEAFF12
:1030F000800EEE6E2F0E68EC1FF0CEEC20F039EC57
:1031000020F0CEEC20F0B5EC1DF0690EEE6E67EC11
:1031100020F07BEC1DF0280EEE6E67EC20F037EC13
:1031200021F067EC20F067EC1EF0CEEC20F089EC8B
:103130001DF0D3EC20F0DBCFEAFF210EE4EC1EF013
:10314000D3EC20F039EC20F0D3EC20F0B5EC1DF0FE
:10315000310EEE6E6AEC20F07BEC1DF0320EEE6E5E
:103160006AEC20F037EC21F06AEC20F0A4EC1DF0C2
:10317000D3EC20F089EC1DF0C4EC20F0DBCFEAFFAB
:10318000520EE4EC1EF0C4EC20F039EC20F0C4EC5C
:1031900020F0B5EC1DF02E0EEE6EED6AC4EC20F0C2
:1031A00062EC20F0C4EC20F037EC21F0ED6AC4ECC6
:1031B00020F0A4EC1DF0C4EC20F089EC1DF0C9EC6B
:1031C00020F0DBCFEAFFE10EEE6E170EEE6E070E7B
:1031D000EE6EEE6AC9EC20F039EC20F0C9EC20F07C
:1031E000B5EC1DF0310EEE6EED6AC9EC20F07BEC13
:1031F0001DF000EC1FF0C9EC20F037EC21F0ED6A77
:10320000C9EC20F0A4EC1DF0C9EC20F089EC1DF015
:10321000D8EC20F0DBCFEAFF120EEE6E180EEE6E49
:10322000070EEE6EEE6AD8EC20F039EC20F0D8EC08
:1032300020F0B5EC1DF02E0EEE6E6DEC20F07BEC68
:103240001DF05E0EEE6E6DEC20F037EC21F06DECB3
:1032500020F0A4EC1DF0D8EC20F089EC1DF0DEECA1
:103260001DF044EC20F001E0B4D00A0EDBCFE6FF05
:103270000B0E82EC1DF00C0EDBCFE6FF0D0E82EC88
:103280001DF0DF6A190EDF5C0EE233EC20F082ECF9
:1032900020F001E09ED09BEC20F082EC20F001E0D9
:1032A00098D0DF2AEFD7DF6A190EDF5C14E233EC27
:1032B00020F07BEC1FF0190F80EC1DF001E089D0AD
:1032C0009BEC20F07BEC1FF0190F80EC1DF001E06F
:1032D00080D0DF2AE9D77D0E80EC1DF001E079D0A7
:1032E00033EC20F034EC21F074E144EC20F071E197
:1032F000DEEC1DF003EC1EF06CE1F2EC1EF0460E6D
:10330000DF5C10E29AEC1FF00E0EDBCFE6FF0F0E33
:10331000F9DB100EDBCFE6FF110E89EC1FF059E14F
:10332000DF2AEDD703EC1EF054E19EEC1EF038ECE2
:1033300040F0CEEC20F0DFDBEECF14F0EFCF15F055
:10334000153421E214500008000E15541CE2CEEC96
:1033500020F03CEC20F0C9EC20F03CEC20F0D8EC64
:1033600020F03CEC20F0D3EC20F03CEC20F0C4EC5E
:1033700020F03CEC20F0DEEC1DF09AEC1FF0140E77
:10338000BFDBD7E026D0F2EC1EF0460EDF5C1AE27F
:103390009AEC1FF01C0EDBCFE6FF1D0EB3DB1E0EFA
:1033A000DBCFE6FF1F0EAEDB120EDBCFE6FF130E08
:1033B000A9DB140EDBCFE6FF150E89EC1FF009E147
:1033C000DF2AE3D79EEC1EF038EC40F05EEC20F0F4
:1033D00003E0010E2BEC1EF0040EDBCFE6FF050E22
:1033E000C9DB060EDBCFE6FF070EC4DB080EDBCF22
:1033F000E6FF090EBFDB0A0EDBCFE6FF0B0EBADBE2
:103400000C0EDBCFE6FF0D0EB5DB0E0EDBCFE6FFBD
:103410000F0EB0DB100EDBCFE6FF110EABDB120E92
:10342000DBCFE6FF130EA6DB140EDBCFE6FF150E97
:10343000A1DB160EDBCFE6FF170E9CDB180EDBCFF1
:10344000E6FF190E97DB1A0EDBCFE6FF1B0E92DBB1
:103450001C0EDBCFE6FF1D0E8DDB1E0EDBCFE6FF65
:103460001F0E88DB020EDB50146E200EE15C02E2C0
:10347000E16AE552D2D33DEC1EF0620EA6EC20F0DC
:10348000100ECEDB050EB9EC20F0090E84EC1EF018
:10349000070EDB6A080EDB6A500EF36E0C0EF3CFDC
:1034A000DBFF8DEC1EF0140E74EC20F0AD0EF36E0D
:1034B000170E7FEC1EF06DEC1FF0DB6A120E5CEC59
:1034C0001FF0F36E1A0EF3CFDBFF1B0EDB6A420E0A
:1034D000F36E1F0EF3CFDBFF200EDB6A960EF36E4A
:1034E000210EF3CFDBFF220EF9EC1FF0240ECADB16
:1034F000230EF3CFDBFFE00EF36E290EF3CFDBFFDD
:10350000B70EF36E2A0E7FEC1EF02B0EF3CFDBFF0F
:103510002C0E79EC20F02F0EF3CFDBFF300E79EC80
:1035200020F02D0EF3CFDBFF2E0EDB6A320EDB6AAE
:10353000330EDB6AC80EF36E340EF3CFDBFF350EAD
:10354000F9EC1FF0370E9EDB360ED9DB3C0EF3CFC5
:10355000DBFFB80EF36E3D0ED2DB3E0EF3CFDBFF8A
:103560003F0E79EC20F0420EF3CFDBFF430E79ECF7
:1035700020F0400EF3CFDBFF410E79EC20F0450E3A
:10358000F3CFDBFF460EDB6AC80EF36E470EF3CFB8
:10359000DBFF480EF9EC1FF04A0E74DB490EF3CF47
:1035A000DBFF300EAFEC20F0B80EF36E500EA7DB51
:1035B000510EF3CFDBFF520E79EC20F0550EF3CF16
:1035C000DBFF560E79EC20F0530EF3CFDBFF540EE9
:1035D000DB6A500EF36E580EF3CFDBFF590EDB6A39
:1035E000C80EF36E5A0EF3CFDBFF5B0EF9EC1FF043
:1035F0005D0E48DB5C0EF3CFDBFF0101580EE46F7C
:10360000B80EE56F080EE66FE76B280EEA6FEB6BFE
:10361000E86FE96B780EED6FEE6BC80EEF6FF06B35
:10362000010EF26FF16FCADA010EE66E9DEC3DF00D
:10363000E552D7EC1FF018DBDF6A510EDF5C4BE27E
:10364000BDDAD950030FE6EC20F0290F4ADA58EC26
:1036500020F0E40EE66E010E83EC1FF0D950020F4D
:1036600003DBD950070FBCEC1FF0020EEE26000E54
:10367000ED22D950030F76DBEE5AEE5AEE5A0C0EBD
:10368000DB060D0E01E2DB06D950340F6BDBED5A81
:10369000D950470F67DBED5AD9505A0F63DBED5A0B
:1036A0000101EF07F05B2F0EDB2A300E01E3DB2A6E
:1036B000420EDB2A430E01E3DB2A550EDB2A560EAF
:1036C00001E3DB2AEA2B000EEB23140EDF2418DAC9
:1036D00031E1DF2AB2D732DBBEEC20F02BE1470E1E
:1036E000DB2A480E01E3DB2A5A0EDB2A5B0E01E3DC
:1036F000DB2ADF6A050EDF5C1BE258EC20F0D950B4
:10370000160FEFD9100EDF02F350146E156AFF0E7C
:10371000D8801456000E15561450F2D90BE1D9502A
:10372000160FBCEC1FF01D0E1FEC20F0DF2AE2D7B5
:103730006ADA02E0010E01D0000E146E620EE15C46
:1037400002E2E16AE55269D298DA3D0ED3DA200E40
:1037500082DAE70E15EC20F0C00EF36E060EF3CF02
:10376000DBFF320EF36E070EF3CFDBFF030E9BDAA7
:10377000600EF36E0A0EF3CFDBFF7E0EF36E0B0EC0
:10378000F3CFDBFF030EF36E0C0EF3CFDBFF0D0E5A
:10379000DB6A0E0EDB6ACA0EF36E0F0EF3CFDBFF91
:1037A000030EF36E100EF3CFDBFF110EDB6AA00EDB
:1037B000F36E120EF3CFDBFF0B0EF36E130EF3CF8F
:1037C000DBFF040EF36E140EF3CFDBFF150EDB6A86
:1037D000400E74EC20F04D0EF36E170EF3CFDBFFAE
:1037E000040EF36E7ADBDB6A400EF36E1A0EF3CF33
:1037F000DBFF980EF36E1B0EF3CFDBFF040E5CDBDA
:10380000E00EF36E1E0EF3CFDBFFE30EF36E1F0E22
:10381000F3CFDBFF040ECADA790EF36E220E62DB01
:10382000230E60DB240EF3CFDBFF690EF36E250E53
:10383000F3CFDBFF690EF36E260EF3CFDBFF780EBE
:10384000F36E270EF3CFDBFF780EF36E280E4ADB04
:10385000290EF3CFDBFF8ADAD0DB220EDB50F3EC4C
:1038600020F0A00EAADA330EDB6A340EDB6A310ECA
:10387000F36E350EF3CFDBFF360EDB6A380EB9DBA5
:10388000370EF3CFDBFF9AD9DF6A050EDF5C11E25A
:10389000010EDB6A080E9FDA0AE2A1EC20F03C0E72
:1038A000146E29DB145C93D9010EDB2AF3D7DF2ACF
:1038B000ECD7DF6A050EDF5C11E2010EDB6A080E51
:1038C0008ADA0AE2A1EC20F0280E1AD902E0010EF1
:1038D00007D0010EDB2AF3D7DF2AECD76FD9000E11
:1038E000146E3D0EE15C02E2E16AE55296D1C5D963
:1038F000150E00DAD0DB5A0E7DEC20F0500E95D973
:103900005DD9DF6A050EDF5C1AE2010EDB6A0A0E82
:1039100062DA12E2ECEC20F029DA400EEE26380EE4
:10392000EE22000EEE22EE22500EEAD802E0010E48
:1039300008D0010EDB2AEBD7AEDBDF2AE3D73ED976
:10394000000E146E150EE15C02E2E16AE55265D1EB
:1039500094D9150ECFD9F2D9C00E7DD9670E60D992
:10396000370E31D9A00E9FD94F0EBDD9280E9DDA42
:10397000280E5BD923D9C80E2AD9DF6A150EDF5C61
:1039800022E2ECEC20F0DF5001E163DBDF501208B3
:1039900002E2640E01D03C0E1AD9E8D9500E01DBC8
:1039A000ECEC20F0DF50120802E2640E01D03C0E75
:1039B0000ED9DCD9B00EEE26630EEE22000EEE22FA
:1039C000EE22DF2ADBD731EC12F0150EE15C02E2C9
:1039D000E16AE552E16E84D350D9160EE126AED9E4
:1039E000E00E1ED9430EC5DB2C0E8ED9A00E10DAC8
:1039F0000C0EDB6A92D9E66AAAEC3DF0E552DF6A6A
:103A0000040EDF5C04E2DFCFE6FFABDAF9D721DB9F
:103A1000DF6A040EDF5C03E21AEC21F0FAD7DF6AFA
:103A2000130EDF5C0FE2D950030FD0DB030FA4DAD3
:103A3000EE52960EEE26000EEE22EE22640EC7D84F
:103A4000DF2AEED7DF6ADF50146E156AD890155062
:103A500004E6FF0E145C000E15581EE2BCEC5AF092
:103A6000DE52F3CFDEFFF4CFDDFFDD52010EDBCF00
:103A7000E9FF020EF5DBEF500BE0DFCFE6FFE66A71
:103A8000D1EC78F0E552E552C80EA1D8000E05D071
:103A9000640E9DD8DF2AD7D7010E146E160EE15C96
:103AA00002E2E16AE552B9D049D9020EE66EF9ECBC
:103AB0006EF0E5523EEC78F049EC12F0000910E1AE
:103AC00090EC14F000090CE1C6EC16F0000908E1D6
:103AD000D2DC000905E138DE000902E108DF000957
:103AE0001200E66E000EDA2083EF1FF091DB2E0E3F
:103AF00058DAB8EF1FF0DBCFEAFF090E25EF20F010
:103B0000E66E81D3DBCFE6FF39EC77F0E552E55284
:103B10001200DBCFEAFF0D0E98DA010EEF6E1200F5
:103B200077DB5C0E8CDAB8EF1FF0F4CFDBFF130EFF
:103B3000B4EF20F014DB020EF36E19EF20F0000E4C
:103B4000E66E010E83EF1FF0DBCFEAFF0E0E7DDA8B
:103B5000010EEF6E1200DBCFEAFFA00ED1EF1FF0D7
:103B6000DBCFEAFF060E25EF20F0DBCFEAFF040EE5
:103B700025EF20F0DBCFE6FF7BEC78F0E552E55255
:103B80001200D950020F146EDACF15F0010EDB507F
:103B9000040D1450F324E96EDA50F420EA6E2DDAA5
:103BA000D950220F146E010EDB500F011424E96E60
:103BB000000EDA20EA6EEF50F3EF20F0E66ADEEC5A
:103BC00011F0E5521200D5DA050EDB6A1200E66E3E
:103BD000EDEC6EF0E5521200260EE66E010E93D962
:103BE000390EE66E010E8FD94C0EE66E010E8BD9A2
:103BF0005F0EE66E010E83EF1FF0E66E2FEC6FF0A6
:103C0000E55200091200E668FED2020E25EF20F010
:103C1000130EE66E010E83EF1FF0E16E145060D2BA
:103C2000F36E030EF3CFDBFF1200F36E0D0EF3CF36
:103C3000DBFF0E0EDB6A100EDCD90F0EF3CFDBFFBD
:103C40001200146E010EDBCFE7FF1450E726010EC1
:103C5000E7CFDBFF1200F36E020EF3CFDBFF1200A3
:103C600043DA020E94EF20F0E66E000EDA20E66EE4
:103C7000AFEC3DF0E552E5521200D9CFE6FFE1CFBF
:103C8000D9FF1200F3CFDBFF010EF36E1200C0DA92
:103C90002E0ED5D9B8EF1FF0F36E520EF3CFDBFF27
:103CA000530EDB6A1200F36E080EF3CFDBFF090E32
:103CB000DB6A1200F36E4E0EF3CFDBFF1200010140
:103CC0000027090E0123000E022303231200DBCF7D
:103CD000EAFF0E0EBAD9EF6A12000101E00E006F82
:103CE000130EAAEF20F0F36E060EF3CFDBFF070EE4
:103CF000DB6A1200E126DF6A010EDB6A1200F3CFF5
:103D0000DBFF080EF36E120003DAF00EF36E090EFD
:103D1000F3CFDBFF0A0EDB6A12000D0EDB6A0E0E1C
:103D2000DB6A0F0EDB6A110E64D9100EF3CFDBFFD6
:103D30001200EE6E0B0EEE6EEE6A1200E66A9DEC5D
:103D40003DF0E5521200D950150F16D9200ED1EFD3
:103D50001FF082DA30EF21F0800EF36E010EF3CF08
:103D6000DBFF120009D9EE06000E1200D950020F37
:103D7000BCEF1FF0F36E540EF3CFDBFF550EDB6A82
:103D80001200F36E570EF3CFDBFF580EDB6A120002
:103D9000F36E590EF3CFDBFF5A0EDB6A1200136F7E
:103DA0007D0E146F020E156F166B1200F36E200E4F
:103DB000F3CFDBFF210EDB6A1200F36E2E0EF3CF82
:103DC000DBFF2F0EDB6A1200EE6E420EEE6E060E69
:103DD000EE6EEE6A1200F36E010EDBCFF4FFF350CD
:103DE000F45C1200010EE66E9DEC3DF0E55238ECFD
:103DF00040F0DF6A1200F36E150EF3CFDBFF120006
:103E00002D0EEE6EED6A12003C0EEE6EED6A1200A3
:103E1000F36E070EF3CFDBFF080EDB6A1200F36EC2
:103E2000190EF3CFDBFF1A0EDB6A1200F36E1E0EC3
:103E3000F3CFDBFF1F0EDB6A1200F36E2C0EF3CF05
:103E4000DBFF2D0EDB6A1200F36E310EF3CFDBFFCA
:103E5000320EDB6A1200F36E330EF3CFDBFF340E4B
:103E6000DB6A1200F36E3D0EF3CFDBFF3E0EDB6A22
:103E70001200F36E410EF3CFDBFF420EDB6A12003D
:103E8000F36E3F0EF3CFDBFF400EDB6A1200F36EE2
:103E9000440EF3CFDBFF450EDB6A1200F36E460ED5
:103EA000F3CFDBFF470EDB6A1200F36E0B0EF3CF8E
:103EB000DBFF0C0EDB6A1200F36E1C0EF3CFDBFF90
:103EC0001D0EDB6A12000B0EDB6A0C0EDB6A1200A1
:103ED000EE6E050EEE6EEE6A1200180EF3CFDBFFEB
:103EE000190E1200F3CFDBFF790EF36E1200960E5F
:103EF000EE6EED6A1200040EDF02F3501200D9508C
:103F00003B0F71EF1DF0E66E39EC77F0E552E552AC
:103F10001200F8DD43D91FDE46D91DDE35D91BDE80
:103F200038D919DE45D917DED950030F9DDE820E30
:103F300080EF1DF0160EDBCFE6FF170EE3DD180E47
:103F4000DBCFE6FF190EDEDD1A0EDBCFE6FF1B0E20
:103F500082EF1DF0C6DD190E80EF1DF0CCDD05EF00
:103F60001EF0DEEC11F0E552320E31DEDF2A1200D7
:103F7000010EDBCFE6FF47D1E96EDACFEAFF120090
:103F8000D950280F23D9150F71EF1DF079D99FEF64
:103F90001DF0EE6EED6A10EF21F0EE6EED6A15EF9A
:103FA00021F0EE26000EEE22EE22EE22120006DEB8
:103FB000D950020F12000A0EDBCFE9FF0B0E1200E0
:103FC0000C0EDBCFE9FF0D0E12000E0EDBCFE9FF6A
:103FD0000F0E1200100EDBCFE9FF110E1200120EB1
:103FE000DBCFE9FF130E1200140EDBCFE9FF150E35
:103FF0001200DB6A010EF36E12002A0EEECFDBFF19
:104000002B0EEECFDBFF2C0EEECFDBFF2D0EEECF17
:10401000DBFF1200080EDBCFE9FF090E1200A0DD66
:1040200000EF1FF0A2DD04EF1FF0FADD020EE3EF58
:104030001DF0500EF3CFDBFF510EDB6A1200EE5E77
:10404000000EEE5AEE5AEE5A1200E926000EEA224F
:104050001200FA0EBCDDFA0EE7EF1DF0C00E2ADEEC
:10406000CE0E9AEF1DF0060EDBCFE6FF070E82EFB5
:104070001DF076DD77EF1FF03EDDEE06ED5A120003
:10408000A8D8050E80EF1DF0040EDBCFE6FF050E6D
:1040900039DD34EF21F0400EDEDD110EC1DD0E0EF4
:1040A000E3EF1DF0D8DDB10EBBDD0A0EE3EF1DF02E
:1040B000D9503C0F8BD84F0F71EF1DF07FDD010EF3
:1040C000FDEF1DF018DD630EEE6EED6A1200ED6A75
:1040D000CEEF20F0ED6AD3EF20F0ED6AD8EF20F0BC
:1040E000E552E7CFD9FF1200F36E160EF3CFDBFFD8
:1040F0001200DB6A280EF36E1200D5DDA00EF3DD90
:1041000063EF1FF07D0E146EF6DE145C80EF1DF081
:10411000F36E050EF3CFDBFF060EDB6A1200A00E76
:104120006ADE6C0E30EF1EF0F36E170EF3CFDBFF7E
:10413000180EDB6A1200080EDBCFE6FF090E82EFD5
:104140001DF0D9502A0FCDDCC1EF1DF0D3DD020EDA
:10415000DB6A1200016F070E026F036B1200F36E31
:104160004F0EF3CFDBFF1200E66E6DEC78F0E552F8
:104170001200F36E040EF3CFDBFF1200020EFDEF10
:104180001DF0BDDE76EF1DF01A0EDBCFE9FF1B0E32
:1041900012001C0EDBCFE9FF1D0E1200160EDBCF46
:1041A000E9FF170E1200180EDBCFE9FF190E1200FF
:1041B0001E0EDBCFE9FF1F0E12008FDDE00E7ADD51
:1041C000210EF36E4F0E9BDD19EF20F08ADCD950E3
:1041D0001200B5DC40EF21F0D950020F71EF1DF055
:1041E0008EDE90EF1DF0E66ED950300FC5DEE55241
:1041F000E750EE6EED6A12000101C00E006F060E70
:10420000A9DF2EEF20F00CEC6FF0E5520009120050
:10421000D9503B0FBCEF1FF0D9504E0FAAEF1FF043
:10422000040EDBCFE9FF050E1200060EDBCFE9FF1F
:10423000070E1200030ED880DF54E66EB1EF1FF0B8
:10424000F4DEB5DE71EF1DF0176F186BE1DC7FEF68
:104250001FF059DE03EF1EF0EE6EED6A0AEF20F05C
:10426000DBCFEAFF25EF20F0C80E80EF1DF076DEF1
:10427000EE6A12009CDEAADF150FA8DF280F1200DD
:08428000D9504E0F71EF1DF043
:084288000F016E510AE1000173
:10429000030E846F340E826FC20E836F0F01010E06
:1042A0006E6F800E146E000E8BEF27F00F016F51B2
:1042B0000AE10001010E896F4F0E876FC20E886FF1
:1042C0000F01010E6F6F850E146E000E8BEF27F03D
:1042D0000F0170510AE10001010E8E6F580E8C6FB4
:1042E000C20E8D6F0F01010E706F8A0E146E000EDC
:1042F0008BEF27F00F0171510AE10001010E936F5E
:10430000610E916FC20E926F0F01010E716F8F0ED1
:10431000146E000E8BEF27F00F0172510AE10001BD
:10432000010E986F6A0E966FC20E976F0F01010E05
:10433000726F940E146E000E8BEF27F00F01735105
:104340000AE100010B0E9D6F730E9B6FC20E9C6FF6
:104350000F01010E736F990E146E000E8BEF27F094
:104360000F0174510AE100010B0EA26FD60EA06F6F
:10437000C20EA16F0F01010E746F9E0E146E000E1F
:104380008BEF27F00F0175510AE10001060EA76FB0
:10439000390EA56FC30EA66F0F01010E756FA30E28
:1043A000146E000E8BEF27F00F0176510AE1000129
:1043B000010EAC6F6F0EAA6FC30EAB6F0F01010E33
:1043C000766FA80E146E000E8BEF27F00F01775159
:1043D0000AE10001100EB16F780EAF6FC30EB06F1F
:1043E0000F01010E776FAD0E146E000E8BEF27F0EC
:1043F00040EC29F0090EC2EC28F0150EC2EC28F0B2
:10440000130E24EC27F0A1EC27F061EF27F043EC2A
:1044100029F0070EE66E040E1FEC27F05DEC63F04A
:10442000EEEC27F0DAEC28F049EC27F089EC44F0C8
:10443000E552E55204EC29F085EC28F019EC29F05E
:1044400008EC45F0EEEC27F019EC29F0FB0EDBCF81
:10445000E6FFFC0EBAEC27F011EC27F01F0E1EEC65
:1044600029F0000806E211EC27F01F0E24EC27F0DB
:10447000EF0648EC28F0140E24EC27F0EE2AEF2289
:10448000020EE15C02E2E16AE552E16E61EF27F0C3
:10449000D9CFE6FFE1CFD9FFFD0EDBCFE9FFFE0E5E
:1044A000DBCFEAFF110EE926000EEA22EECF14F070
:1044B000EFCF15F014C0E6FF15C0E6FFFD0EDBCF11
:1044C000E6FFFE0EDBCFE6FF98EC44F0E552E55246
:1044D000E552E7CF15F0E552E7CF14F006C016F02D
:1044E00007C017F008C018F009C019F006C0E6FFB1
:1044F00007C0E6FF08C0E6FF09C0E6FFFB0EDBCF02
:10450000E6FFFC0EDBCFE6FFFD0EDBCFE6FFFE0E87
:10451000DBCFE6FF04D015C0FAFF1450F96EFBDFC5
:104520001A6E080EE15E1A50E552E7CFD9FF12006D
:104530005CEC27F00A0EE66EE66A35EC28F00DEC2E
:1045400029F05DEC63F0166E060EE15E165047EC46
:1045500029F024EC29F0F90EDBCFE6FFFA0EBAECD5
:1045600027F061EF27F045EC28F0050E59EC28F014
:104570009DDE8EEC28F002E2E16AE552E16E61EF29
:1045800027F045EC28F0080E59EC28F0A1DE8EEC5F
:1045900028F002E2E16AE552E16E61EF27F045ECB6
:1045A00028F00C0E59EC28F0A5DE8EEC28F002E283
:1045B000E16AE552E16E61EF27F045EC28F0140E58
:1045C00059EC28F0A9DE8EEC28F002E2E16AE5520F
:1045D000E16E61EF27F019EC28F0010EE66E020E95
:1045E00061EC28F0ABDE36EC27F053EC27F002E26A
:1045F000E16AE552E16E61EF27F019EC28F0020E56
:10460000E66E61EC28F0ACDE36EC27F053EC27F0D8
:1046100002E2E16AE552E16E61EF27F05CEC27F01F
:1046200074EC27F0040FE96EDACFEAFF0A0EEE5EB3
:10463000000EED5AD950D2EC27F013EC29F0040EFD
:1046400028EC27F0070E0BEC28F072EC28F0040E93
:1046500028EC27F0090E0BEC28F0060EE15C02E2D4
:10466000E16AE552E16E61EF27F045EC28F0040EB7
:10467000FDEC27F0F90EE66E93EC6EF050EC27F0AF
:10468000080E01EC28F0F2DBD3DB08EC28F029EC73
:1046900029F0C4DF146E080EE15E1450020EE15CD6
:1046A00002E2E16AE552E16E61EF27F05CEC27F08F
:1046B00074EC27F0D2EC27F0D950040FE96EDACF72
:1046C000EAFF050EEE5E000EED5A13EC29F0030E24
:1046D000BFDB060E0BEC28F072EC28F0030EB8DB03
:1046E0000A0E0BEC28F008EC28F029EC29F0BDDFCD
:1046F000146E080EE15E1450060EE15C02E2E16AFF
:10470000E552E16EDED3D8DB040EE12694EC27F00F
:10471000FA0EE66E93EC6EF0D8DB8FEC27F035ECFA
:1047200028F054EC29F0DFEC28F0030E0D6E0E6A31
:1047300016C008F017C009F0EDEC74F008C016F0D0
:1047400009C017F008C0E6FF09C0E6FF4DEC4CF0C9
:10475000ECEC28F0E66A020E61EC28F025DE86DB40
:10476000ACEC27F008EC28F0B8DBA6EC28F0B5DBC1
:104770004CEC29F048EC28F054EC29F0EE2AEF221A
:10478000040EE15C02E2E16AE552E16E9AD394DB49
:104790009EEC28F0EF50020A66E0030A35E0010AB9
:1047A00001E07BD069EC28F0EF50030A21E0010A18
:1047B00016E0030A0BE0010A1BE138EC28F0660E54
:1047C000EE6E450E54EC28F0090E1AD038EC28F0A5
:1047D000820EEE6E450E54EC28F0070E28D038EC11
:1047E00028F09E0EEE6E450E54EC28F0060E08D012
:1047F00038EC28F0BA0EEE6E450E54EC28F0040E9C
:104800006DEC28F0010E48D069EC28F0010E1EEC8A
:1048100029F0020A1CE0030A0EE0010A18E138EC54
:1048200028F01C0EEE6E460E54EC28F00A0E6DECCD
:1048300028F0020E31D038EC28F06A0EEE6E460EEB
:1048400054EC28F0050E6DEC28F0030E25D038EC62
:1048500028F0AC0EEE6E460E54EC28F0020E6DEC15
:1048600028F0040E19D069EC28F0020E1EEC29F095
:10487000010A08E0010A06E138EC28F0D60EEE6ED7
:10488000450E04D0F5DBFA0EEE6E450E54EC28F022
:10489000050E6DEC28F01C0EEF6E13D30DDB0A0E27
:1048A000E126CBEC5AF058DBBCEC5AF0C6EC28F011
:1048B0005ADB030E1EEC29F00BE09EEC28F0EF2AE9
:1048C000EF50030803E19EEC28F0EF6AE2DA8BDB9D
:1048D0004ADBEE52EF5013E096EC28F0EFCF14F0E5
:1048E000060E145C1AE257EC29F09BDA230EACDAC0
:1048F000EFCF14F096EC28F01450EF260DD096EC84
:1049000028F0EF50000809E28CDA240E9DDAEF0659
:1049100004E196EC28F0EF06EDDB25DBEF5027E015
:1049200080DA200E1EEC29F0000827E2A2EC28F025
:10493000EF5023E19DDB080EEECFDBFF090EEDCF3C
:10494000DBFF96DB060EEE6E470EED6E57EC29F0A0
:104950008FDB080EDBCFEEFF090EDBCFEDFF61DA58
:10496000200E72DAEF06EEDB320EEF6E06D0EADBD7
:10497000EF50000802E2E6DBEF0684DA060E1EECDA
:1049800029F01CE072DBEE06ED5A3EDBF9DA04E7B3
:10499000FB0E145CFF0E15585BE221EC29F0D88069
:1049A000155004E7F60E145CFF0E155804E22CDBDC
:1049B000F60EEE6EED686DDA90D948D063DA070E28
:1049C0001EEC29F01BE051DBEE2AED221DDBEFDAB5
:1049D0003FE214500508000E15543AE221EC29F08C
:1049E000153409E214500A08000E155404E20CDBD9
:1049F0000A0EEE6EED6A4DDA74D928D005DB85DA41
:104A00000001800E151404E0FFDAEE2AEF2209D02F
:104A100021EC29F0153405E2EBDA03E2F5DAEE06D3
:104A2000EF5A21EC29F0153404E31450FB08FF0E73
:104A300015540EE2E9DAC3DBD890175004E6050EF0
:104A4000165C000E175804E224DA4FD9E552E552FD
:104A500019DA040EF3DB0DE0B7DB92DA04E7F30EAC
:104A6000145CFF0E155829E2AFDBF30EEE6EED6815
:104A700024D008DA050EE2DB0DE0A6DB98DA1DE2B1
:104A800014500D08000E155418E29EDB0D0EEE6E4C
:104A9000ED6A13D0B9DA39DA0001800E171404E098
:104AA00093DBEE2AEF2209D08FDB46DA153405E2DC
:104AB0009FDA03E289DBEE06EF5AC3DB040E96DBD6
:104AC0000850EE261550ED227FDB36DA030E8EDB22
:104AD000EBDB0850EE261550ED22C7DA16DA00019E
:104AE000800E151404E0C1DAEE6AED6A18D0D1D94F
:104AF0006EEC44F0E552E552060EAEDB60DA0FE2F2
:104B00001450A008000E15540AE2060EDB50146E75
:104B1000156AA00EA8DB14C0EEFF15C0EDFFA5DAE4
:104B2000F4D90001800E171405E09FDABDDBEE6AB0
:104B3000ED6A1AD0AED971EC44F0E552E552070E99
:104B40008BDBB2DB3CDA10E21450F508000E155492
:104B50000BE2070EDB50146E156AF50E84DBA4DB46
:104B600014C0EEFF15C0EDFF98DAFBDA29EC6CF00B
:104B70002EDB000E146E0A0EE15C02E2E16AE552E1
:104B8000E16E14509ED17CDB0B0E5ED9060EEE6EEC
:104B9000ED6A000E71DA38DAFCD9C8DAEF6AAADAFF
:104BA00078D9FCEC44F0E552E55236EC45F02CDBCC
:104BB000ACDA6FD912EC45F011DA83D17DD9040E4D
:104BC000E126270EE66E6DEC78F0E552C5D95AD98C
:104BD000F00EEE6E430EED6E55D966DBFB0EDBCFAD
:104BE000EEFFFC0EDBCFEEFFFD0EDBCFEEFFFE0E89
:104BF000DBCFEEFF47D90D0E27D90E0EEE6E440E19
:104C0000ED6E40D90F0E20D9900EEE6E440EED6E73
:104C100039D9260E19D9EF6A9C0EE66E480EE66E5B
:104C200061EC6CF0E552E5527EDA090E0DD977D9C8
:104C300044EC21F078DA060E07D971D94ED9FCEC94
:104C400044F0E552E55249D9C4EC4DF0E552E55245
:104C50006ADA150EF9D863D90FDA14D9170EF4D819
:104C600098D910D9220EF0D8EF6A0CD91F0EECD8C3
:104C7000030EEF6E07D9210EE7D8320EEF6E02D980
:104C8000200EE2D8030EEF6E6FEC76F04CDA130EC6
:104C9000DBD845D9F7D81C0ED7D8020E6DDA010E35
:104CA0006BDAEF6EEFD81B0ECFD8EF6A16D99BD90F
:104CB00014D969DFE552E552020EDBCF14F0030E82
:104CC000DBCF15F014C0F3FF15C0F4FF040EE15C58
:104CD00002E2E16AE552E16EF4D02CDA020EEF6EE8
:104CE000F0D028DA010EEF6EECD024DAEF6AE9D0CA
:104CF000E3D8EFD9E9CF14F0EACF15F01FDAEF507F
:104D00000F011424E96E000E1520EA6EEF2AC1D8B7
:104D10006AD9D7D0B8DAFB0EDBCFE9FFFC0EDBCFC8
:104D2000EAFF130E91D808D9070E1502F3CF15F03C
:104D30001402F3CF14F0F4501526F3CFDEFF15C0A4
:104D4000DDFFFA0EDB500DE0D9CFE9FFDACFEAFF45
:104D5000010E0F0B06E0EC52D890ED32EF32E80670
:104D6000FAE196D9100E70D8EE2AEF2262DA91D8C5
:104D700019D82DDA020EE15C02E2E16AE552E16E39
:104D8000A0D09AD8FC0EDB50146E156A81D9160E8D
:104D900004DAFC0EDBCFE6FFE66A7BD89CEC6BF016
:104DA00016DA8FD089D813D9153402E221D919E344
:104DB0006FD9120E49D8C0D8FB0EDBCF16F0FC0E0F
:104DC000DBCF17F0166C171E000E17221650145C5E
:104DD0001750155806E25CD9120E36D8EE6AED6A05
:104DE00004D0F5D855D9120ED8D96BD065D851D882
:104DF00005EC44F0E552E552B4D905EC44F0E55237
:104E0000E5525FD059D865D94FDAEFCF15F061D9A7
:104E1000010E1AD8EFCF14F05CD9EF5014241524EA
:104E200050D0FD0EDBCFE9FFFE0EDBCFEAFF120014
:104E3000C1D9EED8FED98AD9FCD94CEF29F0E66E5B
:104E4000000E1AD985EF28F0E926000EEA2212009A
:104E5000E66E070EE66ED95022DADFD9D9D837ECE4
:104E600047F01A6E090EE15E1A5080D1F3CF1AF0A6
:104E7000F4CF1BF0E9D99AEC6DF01C6E0D0EE15EDB
:104E80001C501200020EDBCFE9FF030EDBCFEAFF5E
:104E90001200FD0EDBCFE6FFFE0EDBCFE6FF1200B9
:104EA000E552E55263D172D9B3D87DD94FD97BD9B8
:104EB000F3D9060EE15C1200D9CFE6FFE1CFD9FFAE
:104EC0001200E552E7CFD9FF1200E552E552DFD9D3
:104ED000DECFE9FFDDCFEAFF1200020EDBCFE6FFF7
:104EE000030EDBCFE6FF1200060EE126C2D9020E4A
:104EF000EECFDBFF030EEECFDBFF040EEECFDBFFCA
:104F0000050EEECFDBFFD9501200EECF14F0EECF3E
:104F100015F0DFEF28F014C0F3FFF46E1200F3CFAA
:104F2000EEFF15C0EDFF1200E66E6DEC78F0E55275
:104F300041D9010EE66E1200EECF14F0EFCF15F05E
:104F40001200BAD9CDEC75F0E552E5521200EE50E0
:104F5000EFCFEAFFE96E1200020EF3CFDBFF030E84
:104F6000F4CFDBFF1200040EDBCFE9FF050EDBCF31
:104F7000EAFF1200DBCFE6FF5EEC30F0E7EF28F04F
:104F8000EE06ED5AEECF14F0EDCF15F0D8801550A7
:104F9000120006C0EEFF15C0EEFF16C0EEFF17C0F0
:104FA000EEFF12007CD9EE06000EED5A1200EE2A3A
:104FB000ED22EECF14F0EDCF15F01534120016509F
:104FC000EE24146E1750EE20156EE8341200FB0E1E
:104FD000DBCF14F0FC0EDBCF15F01200186E060EBE
:104FE000E15E18501200C7EC23F0E552E5521200C2
:104FF00014500008000E15541200E66E010EE66E05
:105000001200E66EE6EF21F00CDF170E24EF27F01A
:1050100030D90DEF29F0F5DFF3CF1BF0F4CF1CF002
:1050200013D99AEC6DF01D6E0D0EE15E1D5018EF58
:1050300027F042DF060EE126FD0EDBCF08F0FE0E64
:10504000DBCF09F0020E08C0DBFF030E09C0DBFF57
:10505000040E6ADF060EE66E2EEC74F036DF5FDFBC
:105060003CDFB1EC73F0ECEF28F0DBDE54EF29F01D
:10507000D8DE110E24EF27F0E66EE66AE66EE66AE9
:1050800042EC78F0A4D804EF29F0FDD813EF29F012
:10509000C8DE130ED9DEA7EF27F0FB0EDBCFE6FF4D
:1050A000FC0EDBCFE6FF1200ED6EBBDE250E24EF1B
:1050B00027F0A3DFF70EE66E93EC6EF0F1DEE66A02
:1050C0001200E66EB6D8BAEC5BF0E552E9DEE66AAD
:1050D0001200A7DE1C0E24EF27F0EF6EA2DE230ED7
:1050E00024EF27F0D950DBD8020EEE26000EED2279
:1050F00013EF29F096DE250EA1D8E66E92DE240E7F
:10510000A3DEE552E750EF6E120006C0E6FF07C0CF
:10511000E6FF08C0E6FF09C0E6FF1200A7DE88DE52
:10512000020EE15C1200B3D842EF27F07ADE220EC5
:1051300024EF27F0A5D8080E24EF27F072DE1B0E0F
:1051400024EF27F06EDE210E24EF27F012EC45F05D
:10515000146E060EE15E1450120066EC30F0E7EFBC
:1051600028F05FDE150E70DE5CEF29F0F3CF18F04B
:10517000F4CF19F024EF29F067DEEF6A83DE1C0E0E
:1051800024EF27F061DEDDDE11EF27F0040EF3CF10
:10519000DBFF050EF4CFDBFF120056DE1450EE26C7
:1051A0001550ED221200040EDBCFE6FF050EDBCF1B
:1051B000E6FF1200F3CFDEFFF4CFDDFF1200EECFEB
:1051C00016F0EFCF17F012001FDF54EF29F0E55271
:1051D000E552E552E552120078DE66D8A0DE010EF7
:1051E000E66E4A0EE66EDC0E1FEF27F00D6E0E6ABD
:1051F00014C008F015C009F0EDEC74F008C014F00C
:1052000009C015F035EF28F006C014F007C015F0FE
:1052100008C016F009C017F01200EECFE6FFEECF7F
:10522000E6FF5CEF29F0E66A300EE66E450E1FEFF2
:1052300027F0DECFE6FFDDCFE6FF120005DEEF5000
:105240001200E2DE9CEF27F0F3CFE6FFF4CFE6FF9B
:10525000120023DF49EF27F0F3CFDBFFDB50166EA0
:10526000176A35EF28F0D8801456000E155635EF22
:1052700028F0D950F70FE96EFF0EDA20EA6E12001F
:105280001BDE11EF27F018DE020EE1261200F3CF2D
:1052900014F0F4CF15F0120000DFADEF28F0020F8C
:1052A000E96EDACFEAFF1200020E24EF27F0D1DF19
:1052B000BDEC6BF0E7EF28F0EECFE6FFEFCFE6FFB7
:0252C0001200DA
:0E52C200040134510AE10F01010E5E6F440E2B
:1052D0005C6FF30E5D6F0401010E346F5A0E146E95
:1052E0000F0E14C0F3FFF46E1200040135510AE1F1
:1052F0000F01010E636F4D0E616FF30E626F0401BB
:10530000010E356F5F0E146E0F0E14C0F3FFF46EB6
:10531000120024EC2EF0020EE126B5EC2EF017EC74
:105320002FF05AEC2EF00BE029EC2EF01AEC2FF0B7
:105330007BEC78F0E552E55229EC2EF0F0D7BCEC8E
:105340002EF0CDEC75F0E552E552020EE15C02E282
:10535000E16AE552E16E2EEF2EF024EC2EF0020E03
:10536000E126FD0EDBCFDEFFDBCFDDFF29EC2EF0EB
:10537000EF5024E029EC2EF0EFCF14F0410E145C36
:1053800005E329EC2EF0EF505A0811E229EC2EF03B
:10539000EFCF14F0300E145C05E329EC2EF0EF5043
:1053A000390805E229EC2EF0EF50200802E1010E49
:1053B00006D0DF2A010EDAE3DB2AD8D7000E146EFE
:1053C000020EE15C02E2E16AE552E16E14502EEF5A
:1053D0002EF024EC2EF0040EE1264EEC2EF08EEC96
:1053E0006AF0ABEC2EF0DE0EDF5C0CE1010EDB5060
:1053F000AD0808E1020EDB50BE0804E1030EDB50ED
:10540000EF0802E0000E01D0010E146E040EE15C04
:1054100002E2E16AE552E16E14502EEF2EF024EC28
:105420002EF0050EE126DF6AB5EC2EF0020E19EC27
:105430002EF0010EEECFDBFF020EEDCFDBFFD950D9
:10544000010F99EC2EF022E0C3EC2EF0030EEECF0C
:10545000DBFF040EEDCFDBFFDFCFE6FF1FEC2FF00D
:105460009FEC2EF006EC2FF0030EDF24E66EE66ACA
:10547000020EE66EE66A030E9FEC2EF0DADB06EC17
:105480002FF0050EDF26C3EC2EF0D1D7050EE15C20
:1054900002E2E16AE552E16EE1D3D6DB060EE126D7
:1054A00057EC53F0CAEC2EF0DF6A010EDB6A0A0EED
:1054B000DF5C36E2A5EC2EF0D1EC2EF0010EDBCF56
:1054C000E6FF1FEC2FF0DEDB0BEC2FF0DBDB28EC34
:1054D0002FF0010EDB50030FE66EE66A020EE66E59
:1054E000E66AD0DB2CEC2FF00BEC2FF0040EDBCFB8
:1054F000E6FF050EDBCFE6FF020EDBCFE6FF030E75
:10550000DBCFE6FFD8EC2EF0DF2A050E146E010E7D
:10551000DBCFE7FF1450E726010EE7CFDBFFC7D74D
:10552000020EDBCF14F0030EDBCF15F014C0F3FF37
:1055300015C0F4FF060EE15C02E2E16AE552E16E9D
:105540008DD382DB160EE126BCDECAEC2EF0CDDE5A
:10555000D1EC2EF0D950060FE96EDACFEAFF5F0EDC
:10556000EE6EEE6A080EDB6AD2DBA80EE66E1A0E4D
:10557000E66E23EC52F0E552E552120EF3CFDBFF5C
:10558000130EF4CFDBFF140EDB6A150EDB6A010E7F
:10559000E66E9DEC3DF0E55238EC40F063DB17EC35
:1055A0002FF0EF5001E031D10A0EE66EEDEC6EF017
:1055B000E552ADDBB5DB5CE0DCEC2EF0EE50EFCF7E
:1055C000EAFFE96E166EEACF17F0080EDB50000115
:1055D0001624146E000EEA20156E090E14C0DBFFAF
:1055E0000A0E15C0DBFF3EDBEE52EF500CE0080E5A
:1055F000DB5006E1020EF36E080EF3CFDBFF4ED058
:10560000080EDB064BD02EDBEF5008E0080EDB2A3D
:10561000DB50020843E2080EDB6A40D023DB060EB3
:1056200008DBEF500EE0ECDAEF50410813E0E8DA67
:10563000EF50200803E1E4DA5A0E15D0E1DAEF0664
:105640002DD010DB070EF5DAEF5028E0D9DAEF5055
:105650005A0803E1D5DA200E06D0D2DAEF5020083E
:1056600004E1CEDA410EEF6E19D0CADAEF2A16D075
:10567000D950140FE96EDACFEAFF0A0EEE26000EBB
:10568000ED22140EDBCF14F0150EDBCF15F0980EC3
:10569000145C3A0E155802E3010EBDD026DB8BECEC
:1056A00052F0E552E552010EE66E000EE66EE66A35
:1056B000CBDB89DBBCDB09DB33DB0AE0010EE66E0A
:1056C0000F0EE66EE66A4E0EBFDBDCDAB0DBFDDA0B
:1056D000000EE66EE66A09DB29EC6CF092DB460E02
:1056E000DF6EFD0EDBCFE9FFFE0EDBCFEAFF9FDBB7
:1056F0000C0EEECFDBFF0D0EEDCFDBFFD9500C0F04
:1057000018DB01E17AD0FB0EDBCF14F0FC0EDBCF0F
:1057100015F00C0EDB50141803E10D0EDB501518BC
:1057200003E00B0EDB6A38D0010EF36E0B0EF3CFE5
:10573000DBFF010EE66EDF04E66EE66AD950060F67
:105740000FDB6FEC42F0E552E552F3CF1CF0F4CFE3
:105750001DF0080EDB501A6E1B6A086E1BC009F0A4
:10576000F3CF0DF0F4CF0EF040EC75F006C018F05A
:1057700007C019F0550E1826000E192218C0E6FFB2
:1057800019C0E6FF29DAD950060FEADAFBEC41F03E
:105790001E6E070EE15E1E500C0EDBCFE9FF0D0EF4
:1057A000DBCFEAFF0E0EEECFDBFF0F0EEDCFDBFF00
:1057B00011DB550E49DB15DBE9CF18F0EACF19F004
:1057C000E9CFE6FFEACFE6FFFBEC41F01A6E070EE9
:1057D000E15E1A50FFDA730E37DB03DB3DDB2ADBB9
:1057E0002AEC42F0186E070EE15E1850100EDF260C
:1057F0000C0EDBCFE9FF0D0E78D7D950010FB0DAD0
:10580000AFEC3DF0E552E552C9D66FDACDEC75F05C
:10581000E552E552000E146E160EE15C02E2E16AFA
:10582000E552E16E14501AD20FDA470EE126DE0E71
:10583000DF6EDE52AD0EDD6EBE0EF36E020EF3CFE6
:10584000DBFFEF0EF36E030EF3CFDBFFD950040F37
:10585000E96EDACFEAFF430EEE6E500EEE6E530E97
:1058600052DA4C0EEE6E480EEE6E200E4CDA5A0EE8
:10587000EE6E430EEE6E200E46DA4A0EEE6E500EBF
:10588000EE6E430E40DA450EEE6E4D0EEE6E530E8A
:105890003ADA530EEE6E590EEE6E420E34DA450EC3
:1058A000EE6E430EEE6E450E2EDA410EEE6E420E99
:1058B000EE6E430E28DA580EEE6E590EEE6E5A0E4C
:1058C00022DA440EEE6E450EEE6E460EEE6EEE6A77
:1058D000640EF36E2C0EF3CFDBFF2D0EDB6A630E2E
:1058E000F36E2E0EF3CFDBFF2F0EDB6A620EF36E2C
:1058F000300EF3CFDBFF310EDB6A610EF36E320E3A
:10590000F3CFDBFF330EDB6A600EF36E340EF3CFA2
:10591000DBFF350EDB6A5F0EF36E360EF3CFDBFF77
:10592000370EDB6A5E0EF36E380EF3CFDBFF390EF7
:10593000DB6A5D0EF36E3A0EF3CFDBFF3B0EDB6AE4
:105940005C0EF36E3C0EF3CFDBFF3D0EDB6A5B0EAD
:10595000F36E3E0EF3CFDBFF3F0EDB6A57EC53F0E6
:10596000430EF3CFDBFF440EF4CFDBFF400EDB6AC8
:105970000A0EF36E400EDBCFF4FFF350F45C43E20B
:10598000E4D9450EF3CFDBFF460EF4CFDBFF71D930
:10599000F3500F0145D9E552E750EF6E6AD9F3286D
:1059A0003FD9010E46D9E552E750EF6E62D9F35068
:1059B000020F36D93CDAE552E750EF6E31DA48DAB9
:1059C000D9502C0F166EDACF17F0400EDB50020DB7
:1059D0001650F324E96EDA50F420EA6EEECF14F09C
:1059E000EFCF15F01DDA38DA14C0EEFF15C0EDFF69
:1059F000450EDBCFE6FF460EDBCFE6FF7DD9D8D9DB
:105A0000400EDB2AB5D778D968D9D950040FA8D968
:105A1000ABEC6AF0A0D942D9ABEC6AF09CD96CD956
:105A2000EBD9470EE15C02E2E16AE552E16E16D184
:105A30000BD9040EE126C0D9FAD93CD923E009D903
:105A4000020EEECFDBFF030EEDCFDBFFFD0EDBCF53
:105A500014F0FE0EDBCF15F0B6D9FED9EECF16F05E
:105A6000EFCF17F01450165C1550175809E2DECF2F
:105A700014F0DDCF15F014C0F3FF15C0F4FF04D00F
:105A8000E8D8DAD7F36AF46A040EE15C02E2E16A6C
:105A9000E552E16EE3D0D8D8030EE1269ADC000986
:105AA00001E1C2DEFADCF3CFDEFFF4CFDDFF000E52
:105AB000E66EE66ADECFE6FFDDCFE6FF99D9E76E58
:105AC000020EE7CFDBFFDECFE6FFDDCFE6FF94D9A6
:105AD000020EDB50146E030EE15C02E2E16AE55255
