:020000040000FA
:060000001CEF58F0120095
:06000800C9EF3DF01200FB
:06002A00100080B100008F
:100030005F0F0000010000007BB100004B0F0000CB
:10004000050000007AB100005E0F00000100000012
:1000500076B10000500F00000400000075B10000F0
:100060005D0F00000100000074B100005C0F000093
:100070000100000073B100005B0F000001000000F0
:1000800072B100005A0F00000100000095B000009E
:1000900000020000DD00000093B00000560F0000D9
:1000A0000200000092B00000590F000001000000A3
:1000B0008EB00000FC0100000400000088B00000C9
:1000C000FA00000006000000459E0000580F0000E6
:1000D000010000001B6E0000FF0D00000100000089
:0C00E00086B00000540F00000200000079
:0400EC00CEEC0CF05A
:1000F000140EE126180E96EC0DF0A00E16EC0FF083
:100100000A0EDB6AF1EC0DF00D0EDB6A0F0E87ECC8
:100110000EF00E0EF3CFDBFFFE0EDB5004E13DECE4
:100120000DF06F0E16D0FE0EDB0404E13DEC0DF079
:100130007E0E0FD0FE0EDB50020804E13DEC0DF008
:100140008D0E07D0FE0EDB5003080AE13DEC0DF0EA
:100150009C0EBCEC0CF00B0EA1EC0CF0040EDB6A58
:10016000DF6A0A0EDF5C0DE2D950010F74EC0FF06C
:100170000C0F4AEC0EF0180EEE26000EED22DF2AD0
:10018000F0D7140EE15C02E2E16AE552E16EFEEFA7
:100190000EF0CEEC0CF0E652DF6A040EDF5C05E2F6
:1001A000DFCFE6FF3FEC0EF0F8D7B7EC0EF0DF6ADA
:1001B000040EDF5C03E2A8EC0FF0FAD7E552FEEF85
:1001C0000EF0CEEC0CF0610E34EC0FF0580EA3ECF8
:1001D0000EF00B0E0BEC0FF03F0EA6EC0CF01DEC2E
:1001E0000FF01B0EF36EDB6E1C0EDB6A1F0E9DEC18
:1001F0000DF00E0EA4EC0DF0870E67EC0DF0230E43
:1002000087EC0EF0220EF3CFDBFF280EDB6AC20E66
:10021000F36E290ED3EC0CF02A0EF3CFDBFF2B0E7E
:10022000DB6A1B0E6EEC0DF01F0EABEC0DF00E0E2C
:10023000B2EC0DF0870EB9EC0DF0360E87EC0EF037
:10024000350EF3CFDBFF400EF36E3B0EF3CFDBFF3B
:100250009A0EF36E3C0EF3CFDBFF020EC0EC0DF0F6
:10026000060EC7EC0DF02D0ECEEC0DF0330ED5ECD6
:100270000DF0860EDCEC0DF0490E87EC0EF0480E0A
:10028000F3CFDBFF4E0EDB6A9E0E2BEC0CF01A0E4A
:100290004BEC0DF04F0EDDEC0CF0490E52EC0DF076
:1002A0004C0E59EC0DF05C0E87EC0EF05B0EF3CFAC
:1002B000DBFF0101940E006FAE0E016F020E026FA4
:1002C000036B0F0E066F076B2F0E046F056B0A0E84
:1002D000096F0A6B510E0B6F0C6B0E6B010E0D6FDD
:1002E000800E60EC0DF02E0E196F1A6B2B0E176F2F
:1002F000186B1B0E1C6F1D6B820E1E6F1F6B010E89
:10030000216F206FECEC0EF001E097D1010EE66E4C
:1003100061EC56F0E552F40E11EC0CF001E08DD1D9
:100320007AEC0FF0FA0E11EC0CF001E086D1E00E41
:10033000BCEC0CF05E0EAEEC0FF0FA0E11EC0CF013
:1003400001E07BD1C00EBCEC0CF0650EAEEC0FF002
:100350004CEC0FF001E071D16FEC0CF04CEC0FF0B5
:1003600001E06BD1DF6A050EDF5C0BE24EEC0EF0B4
:1003700034EC0DF0640E11EC0CF001E05ED1DF2ADC
:10038000F2D7DE521E0EDD6EDF6A050EDF5C11E273
:100390004FEC0FF001E051D14FEC0FF001E04DD1E7
:1003A0007EEC0FF001E049D10F0EB2EC0CF0DF2A29
:1003B000ECD7DE52140EDD6EDF6A050EDF5C1CE248
:1003C00096EC0FF05C0E5FEC0EF00DEC0EF0D8EC3E
:1003D0000CF001E032D10DEC0EF0D8EC0CF001E0A5
:1003E0002CD10DEC0EF046EC0EF001E026D10F0EF4
:1003F000B2EC0CF0DF2AE1D7DE52960EDD6EDF6A3A
:10040000030EDF5C18E24FEC0FF001E016D14FEC69
:100410000FF001E012D17EEC0FF001E00ED13C0EA6
:10042000146E010EDBCFE7FF1450E75E010EE7CF3D
:10043000DBFFDF2AE5D754EC0EF0DE520A0EDD6E4C
:10044000DF6A020EDF5C11E24FEC0FF001E0F5D045
:100450004FEC0FF001E0F1D07EEC0FF001E0EDD0B9
:10046000280EB2EC0CF0DF2AECD7500EEBEC0CF0BF
:100470009E0E2BEC0CF04B0EDDEC0CF0600EF0EC55
:100480000CF0350E046F056B54EC0EF04FEC0FF0D2
:1004900001E0D3D04FEC0FF001E0CFD07EEC0FF0B5
:1004A00001E0CBD0280EB2EC0CF0400EEBEC0CF0DF
:1004B000AE0E2BEC0CF0530EDDEC0CF0600EF0ECFD
:1004C0000CF054EC0EF04FEC0FF001E0B6D04FEC16
:1004D0000FF001E0B2D07EEC0FF001E0AED00DECF9
:1004E0000EF0800EEBEC0CF0BE0E2BEC0CF0610E5F
:1004F000F0EC0CF0360E046F056B54EC0EF0C2EC11
:100500000FF001E09AD0BCEC0EF0200E4BEC0DF099
:10051000540EDDEC0CF0480E52EC0DF04B0E59EC85
:100520000DF0600EF0EC0CF077EC0FF0320E11ECE9
:100530000CF001E082D0FEEC0CF0150E066F076B9C
:100540003E0E046F056B040E096F0A6B500E0B6FA5
:100550000C6B77EC0FF0DF6A0A0EDF5C10E26BECDD
:100560000FF030EC0CF09AEC0FF067E18AEC0FF032
:1005700030EC0CF09AEC0FF060E1DF2AEDD799EC4B
:100580000CF0DF6A1E0EDF5C0CE26BEC0FF0CEECC1
:100590000EF053E18AEC0FF0CEEC0EF04EE1DF2AC4
:1005A000F1D7200E89EC0DF06D0EC1EC0CF0DF6A76
:1005B000050EDF5C11E24EEC0EF099EC0CF0D95018
:1005C000150F4AEC0EF0200EADEC0EF0320E11ECD1
:1005D0000CF033E1DF2AECD71DEC0FF0DF6A050EDB
:1005E000DF5C0CE24EEC0EF099EC0CF034EC0DF00C
:1005F000320E11EC0CF021E1DF2AF1D7FA0E11ECEA
:100600000CF01BE1D950280F02EC0CF0180E010180
:100610001C6F1D6BAB0E60EC0DF02E0EB2EC0FF0EC
:10062000C2EC0FF00AE10101D90E60EC0DF03C0EB6
:10063000B2EC0FF04CEC0FF002E0010E01D0000E16
:10064000146E610EE15C02E2E16AE5529EEF0CF08D
:10065000CEEC0CF0610E0BEC0DF0800EE0EC0EF029
:10066000AA0EE4EC0CF04D0E04EC0DF0140EE3ECCD
:100670000DF0270EF36E0D0EF3CFDBFF0E0E87ECA1
:100680000EF0100ED3EC0CF00F0EF3CFDBFFAD0E1F
:1006900089EC0DF0860E02EC0FF00A0E22EC0FF042
:1006A000450EF36E1B0EF3CFDBFF1C0EDB6A280E2C
:1006B0009DEC0DF0480EA4EC0DF0470E67EC0DF02C
:1006C000010EF36E230ED3EC0CF0220EF3CFDBFF02
:1006D0000D0EF36E280EF3CFDBFF4F0EF36E290ED7
:1006E000F3CFDBFF0A0EF36E2A0EF3CFDBFF2B0EE8
:1006F000DB6A590E6EEC0DF03B0EABEC0DF0480EC4
:10070000B2EC0DF03B0EB9EC0DF0010EF36E360EAF
:10071000D3EC0CF0350EF3CFDBFFC00EF36E3B0EC7
:10072000F3CFDBFFE50EF36E3C0EF3CFDBFF090EDC
:10073000C0EC0DF09C0EC7EC0DF0390ECEEC0DF0B8
:10074000310ED5EC0DF0190EDCEC0DF0010EF36E50
:10075000490ED3EC0CF0480EF3CFDBFFF90EEBECB7
:100760000CF0E50E3DEC0FF0090EF36EA7EC0EF069
:100770009C0E4BEC0DF0260EDDEC0CF06A0E52ECEC
:100780000DF0190E59EC0DF0010EF36E5C0ED3EC6A
:100790000CF05B0EF3CFDBFF0101600E266FA00EA5
:1007A000276F090E286F296B6F0E2C6F2D6B280E8B
:1007B0002A6F2B6B0D0E2F6F306B030E316F326B68
:1007C000010E346F336F950E396FA00E3A6F090E1C
:1007D0003B6F3C6B6F0E3F6F406B150E3D6F3E6B7A
:1007E000430E426F436B030E446F456B010E476F20
:1007F000466FEB0E4C6F9E0E4D6F090E4E6F4F6B9A
:10080000110E526F536B506F516B780E556F566BC4
:10081000020E576F586B010E5A6F596F750E5F6F4E
:10082000A50E606F0A0E616F626B140E656F666BCA
:10083000100E636F646B8F0E686F696BBC0E6A6F0E
:100840006B6B010E6D6F6C6F8D0E726F470E736F59
:100850000A0E746F756B0C0E786F796B3B0E766FAA
:10086000776B060E7B6F7C6B0F0E7D6F7E6B010EC0
:10087000806F7F6FBF0E856F0E0E866F0A0E876FBB
:10088000886B090E8B6F8C6B410E896F8A6B060E1D
:100890008E6F8F6B1D0E906F916B010E936F926F29
:1008A0005F0E986F140E996F0A0E9A6F9B6B090E6C
:1008B0009E6F9F6B410E9C6F9D6B060EA16FA26B8E
:1008C0002C0EA36FA46B010EA66FA56FAB69190E5A
:1008D000AC6F0A0EAD6FAE6B090EB16FB26B1A0E34
:1008E000AF6FB06B060EB46FB56B3A0EB66FB76BE9
:1008F000010EB96FB86FC00EBE6F9A0EBF6F090EB2
:10090000C06FC16BC46FC56B3C0EC26FC36B060E6C
:10091000C76FC86B490EC96FCA6B010ECC6FCB6F26
:10092000FC0ED16F9A0ED26F090ED36FD46BD76FB6
:10093000D86B3C0ED56FD66B420EDA6FDB6B490E6F
:10094000DC6FDD6B010EDF6FDE6FECEC0EF001E0B3
:10095000AAD07AEC0FF0C2EC0FF001E0A4D0D9508D
:10096000150F02EC0CF0DF6A0A0EDF5C0EE265EC9C
:100970000EF038EC0EF001E096D0D950150F38EC9F
:100980000EF001E090D0DF2AEFD7D950280F02EC0B
:100990000CF0DF6A0A0EDF5C11E265EC0EF074EC1D
:1009A0000FF0150F38EC0EF001E07DD0D950280F74
:1009B00038EC0EF001E077D0DF2AECD70DEC0EF02A
:1009C000CEEC0FF0DF6A0A0EDF5C12E2C8EC0FF02B
:1009D00038EC0EF068E10DEC0EF09AEC0FF063E1EC
:1009E000030EDF5C03E1CD0EE0EC0EF0DF2AEBD767
:1009F00094EC0CF058E17DEC0CF0DF6A0A0EDF5C41
:100A00001DE2C8EC0FF002EC0CF00DEC0EF09AECCD
:100A10000FF049E17DEC0CF0190E11EC0CF043E104
:100A2000070EDF5C09E1400EBCEC0CF0470EA1ECB8
:100A30000CF00A0E74EC0CF0DF2AE0D7010E8EECFD
:100A40000CF031E1720EE66E010EB7EC0FF02BE107
:100A500094EC0CF028E1850EE66E010EB7EC0FF079
:100A600022E194EC0CF01FE194EC0CF01CE1980EE8
:100A7000E66E010E11EC0EF04CEC0FF014E1AB0E33
:100A8000E66E010EB7EC0FF00EE1BE0EE66E010E43
:100A900011EC0EF0D10EE66E010E11EC0EF0030E0D
:100AA0008EEC0CF002E0010E01D0000E146E610E0F
:100AB000E15C02E2E16AE5529EEF0CF0CEEC0CF054
:100AC000200E34EC0FF0030EDB6A130E42EC0FF035
:100AD000040EF3CFDBFF050E26EC0CF0060EF3CF71
:100AE000DBFF070E26EC0CF0080EF3CFDBFF090E40
:100AF00026EC0CF00A0EF3CFDBFF0B0E26EC0CF00D
:100B00000C0EF3CFDBFF0D0E26EC0CF00E0EF3CF28
:100B1000DBFF0F0E26EC0CF0100EF3CFDBFF110EF7
:100B200026EC0CF0120EF3CFDBFF130EF4CFDBFF3D
:100B300042EC0FF0140EF3CFDBFF150E26EC0CF099
:100B4000160EF3CFDBFF170E26EC0CF0FBEC0DF0CE
:100B500026EC0CF01A0EF3CFDBFF1B0E26EC0CF08C
:100B60001C0EF3CFDBFF1D0E26EC0CF01E0EF3CF98
:100B7000DBFF1F0EF4CFDBFF9EEC0FF0DBCFEAFFB5
:100B80008A0EEE6E300EF6EC0DF09EEC0FF041EC9E
:100B90000CF0BA0E57EC0EF046EC0CF02C0E57ECA5
:100BA0000EF00CEC0CF00A0E57EC0EF03CEC0EF0D4
:100BB000280E57EC0EF0F8EC0CF09EEC0FF01AEC4F
:100BC0000CF0A3EC0FF0DBCFEAFFCA0EEE6EA40E22
:100BD000F6EC0DF0A3EC0FF041EC0CF0BA0E5BEC70
:100BE0000EF046EC0CF02C0E5BEC0EF00CEC0CF066
:100BF0000A0E5BEC0EF03CEC0EF0280E5BEC0EF0F7
:100C0000F8EC0CF0A3EC0FF01AEC0CF098EC0EF0F2
:100C1000DBCFEAFF800E75EC0DF098EC0EF041ECA6
:100C20000CF0BA0EBAEC0FF046EC0CF02C0E3AECCD
:100C30000DF00A0E3AEC0DF096EC0CF0280EBAEC22
:100C40000FF0F8EC0CF098EC0EF01AEC0CF069ECEC
:100C50000EF0DBCFEAFFC00EEE6E1B0E2AEC0DF09D
:100C600069EC0EF09DEC0EF069EC0EF0A0EC0EF0CD
:100C700069EC0EF00CEC0CF0410EEE6EED6A69ECD6
:100C80000EF03CEC0EF0500EEE6EED6A69EC0EF0DC
:100C900035EC0CF069EC0EF01AEC0CF06EEC0EF08A
:100CA000DBCFEAFFFC0EEE6E1B0E2AEC0DF06EECB5
:100CB0000EF09DEC0EF06EEC0EF0A0EC0EF06EEC73
:100CC0000EF00CEC0CF0410EEE6EED6A6EEC0EF0D8
:100CD0003CEC0EF08C0EEE6EED6A6EEC0EF035EC28
:100CE0000CF06EEC0EF0BEEC0FF0010EEF6E73EC3C
:100CF0000EF0DBCFEAFFE00EEE6E370E2AEC0DF0C1
:100D000073EC0EF09DEC0EF073EC0EF0A0EC0EF018
:100D100073EC0EF00CEC0CF00A0EEE6EED6A73EC58
:100D20000EF03CEC0EF0780EEE6EED6A73EC0EF009
:100D300035EC0CF073EC0EF01AEC0CF078EC0EF0D5
:100D4000DBCFEAFF1C0EEE6E380E2AEC0DF078ECCD
:100D50000EF09DEC0EF078EC0EF0A0EC0EF078ECBE
:100D60000EF00CEC0CF00A0EEE6EED6A78EC0EF064
:100D70003CEC0EF0B40EEE6EED6A78EC0EF035EC55
:100D80000CF078EC0EF01AEC0CF07DEC0EF0DBCFF2
:100D9000EAFFEE6A540E2AEC0DF07DEC0EF09DECAD
:100DA0000EF07DEC0EF0A0EC0EF07DEC0EF0F0EC11
:100DB0000EF07DEC0EF03CEC0EF0780EEE6EED6A6F
:100DC0007DEC0EF035EC0CF07DEC0EF01AEC0CF036
:100DD00082EC0EF0DBCFEAFF3C0EEE6E540E2AECF6
:100DE0000DF082EC0EF09DEC0EF082EC0EF0A0EC1B
:100DF0000EF082EC0EF0F0EC0EF082EC0EF03CEC1B
:100E00000EF0B40EEE6EED6A82EC0EF035EC0CF0E6
:100E100082EC0EF01AEC0CF05CEC0FF0DBCFEAFF8A
:100E2000800EEE6E2F0EF6EC0DF05CEC0FF0C7ECC2
:100E30000EF05CEC0FF046EC0CF0690EEE6EF5EC8B
:100E40000EF00CEC0CF0280EEE6EF5EC0EF0C5EC8E
:100E50000FF0F5EC0EF0F8EC0CF05CEC0FF01AEC87
:100E60000CF061EC0FF0DBCFEAFF210E75EC0DF01A
:100E700061EC0FF0C7EC0EF061EC0FF046EC0CF0FB
:100E8000310EEE6EF8EC0EF00CEC0CF0320EEE6E55
:100E9000F8EC0EF0C5EC0FF0F8EC0EF035EC0CF0C1
:100EA00061EC0FF01AEC0CF052EC0FF0DBCFEAFF24
:100EB000520E75EC0DF052EC0FF0C7EC0EF052EC48
:100EC0000FF046EC0CF02E0EEE6EED6A52EC0FF0C9
:100ED000F0EC0EF052EC0FF0C5EC0FF0ED6A52ECB6
:100EE0000FF035EC0CF052EC0FF01AEC0CF057EC64
:100EF0000FF0DBCFEAFFE10EEE6E170EEE6E070E7F
:100F0000EE6EEE6A57EC0FF0C7EC0EF057EC0FF0F8
:100F100046EC0CF0310EEE6EED6A57EC0FF00CEC77
:100F20000CF08EEC0DF057EC0FF0C5EC0FF0ED6A05
:100F300057EC0FF035EC0CF057EC0FF01AEC0CF00E
:100F400066EC0FF0DBCFEAFF120EEE6E180EEE6EBF
:100F5000070EEE6EEE6A66EC0FF0C7EC0EF066EC74
:100F60000FF046EC0CF02E0EEE6EFBEC0EF00CECDF
:100F70000CF05E0EEE6EFBEC0EF0C5EC0FF0FBEC31
:100F80000EF035EC0CF066EC0FF01AEC0CF06FEC98
:100F90000CF0D2EC0EF001E0B2D00A0EDBCFE6FF8F
:100FA0000B0E13EC0CF00C0EDBCFE6FF0D0E13EC6A
:100FB0000CF0DF6A190EDF5C0EE2C1EC0EF010ECF3
:100FC0000FF001E09CD029EC0FF010EC0FF001E0E5
:100FD00096D0DF2AEFD7DF6A190EDF5C14E2C1EC8E
:100FE0000EF009EC0EF0190F11EC0CF001E087D0B7
:100FF00029EC0FF009EC0EF0190F11EC0CF001E0E8
:101000007ED0DF2AE9D77D0E11EC0CF001E077D01D
:10101000C1EC0EF0C2EC0FF072E1D2EC0EF06FE119
:101020006FEC0CF094EC0CF06AE183EC0DF0DF6AED
:10103000460EDF5C10E228EC0EF00E0EDBCFE6FF72
:101040000F0EF1DB100EDBCFE6FF110E17EC0EF0EA
:1010500056E1DF2AEDD794EC0CF051E12FEC0DF0C6
:101060005CEC0FF0D9DBEECF14F0EFCF15F01534B8
:1010700021E214500008000E15541CE25CEC0FF045
:10108000CAEC0EF057EC0FF0CAEC0EF066EC0FF065
:10109000CAEC0EF061EC0FF0CAEC0EF052EC0FF05F
:1010A000CAEC0EF06FEC0CF028EC0EF0140EB9DB6D
:1010B000D7E025D083EC0DF0DF6A460EDF5C1AE244
:1010C00028EC0EF01C0EDBCFE6FF1D0EACDB1E0E77
:1010D000DBCFE6FF1F0EA7DB120EDBCFE6FF130E02
:1010E000A2DB140EDBCFE6FF150E17EC0EF007E1C6
:1010F000DF2AE3D72FEC0DF0ECEC0EF003E0010E4D
:10110000BCEC0CF0040EDBCFE6FF050EC4DB060ED4
:10111000DBCFE6FF070EBFDB080EDBCFE6FF090ED5
:10112000BADB0A0EDBCFE6FF0B0EB5DB0C0EDBCF16
:10113000E6FF0D0EB0DB0E0EDBCFE6FF0F0EABDBD6
:10114000100EDBCFE6FF110EA6DB120EDBCFE6FFA3
:10115000130EA1DB140EDBCFE6FF150E9CDB160E83
:10116000DBCFE6FF170E97DB180EDBCFE6FF190E7D
:1011700092DB1A0EDBCFE6FF1B0E8DDB1C0EDBCFE6
:10118000E6FF1D0E88DB1E0EDBCFE6FF1F0E83DBA6
:10119000020EDB50146E200EE15C02E2E16AE552C1
:1011A000CDD3CEEC0CF0620E34EC0FF0100EC9DB98
:1011B000050E47EC0FF0090E15EC0DF0070EDB6A7B
:1011C000080EDB6A500EF36E0C0EF3CFDBFF1EEC45
:1011D0000DF0140E02EC0FF0AD0EF36E170E10ECC6
:1011E0000DF0FBEC0DF0DB6A120EEAEC0DF0F36E85
:1011F0001A0EF3CFDBFF1B0EDB6A420EF36E1F0EDF
:10120000F3CFDBFF200EDB6A960EF36E210EF3CFD9
:10121000DBFF220E87EC0EF0240EC5DB230EF3CF8E
:10122000DBFFE00EF36E290EF3CFDBFFB70EF36E9C
:101230002A0EF6DB2B0EF3CFDBFF2C0E07EC0FF0A4
:101240002F0EF3CFDBFF300E07EC0FF02D0EF3CF98
:10125000DBFF2E0EDB6A320EDB6A330EDB6AC80E52
:10126000F36E340EF3CFDBFF350E87EC0EF0370E46
:101270009ADB360ED5DB3C0EF3CFDBFFB80EF36EF8
:101280003D0ECEDB3E0EF3CFDBFF3F0E07EC0FF043
:10129000420EF3CFDBFF430E07EC0FF0400EF3CF0F
:1012A000DBFF410E07EC0FF0450EF3CFDBFF460EE0
:1012B000DB6AC80EF36E470EF3CFDBFF480E87ECF8
:1012C0000EF04A0E70DB490EF3CFDBFF300E3DEC23
:1012D0000FF0B80EF36E500EA3DB510EF3CFDBFF11
:1012E000520E07EC0FF0550EF3CFDBFF560E07EC56
:1012F0000FF0530EF3CFDBFF540EDB6A500EF36E8C
:10130000580EF3CFDBFF590EDB6AC80EF36E5A0E90
:10131000F3CFDBFF5B0E87EC0EF05D0E44DB5C0E63
:10132000F3CFDBFF0101580EE46FB80EE56F080E36
:10133000E66FE76B280EEA6FEB6BE86FE96B780EF0
:10134000ED6FEE6BC80EEF6FF06B010EF26FF16F89
:10135000C6DAD9DB65EC0EF018DBDF6A510EDF5C14
:101360004BE2BDDAD950030F74EC0FF0290F4ADAC3
:10137000E6EC0EF0E40EE66E010E11EC0EF0D95024
:10138000020F03DBD950070F4AEC0EF0020EEE26D7
:10139000000EED22D950030F76DBEE5AEE5AEE5ACC
:1013A0000C0EDB060D0E01E2DB06D950340F6BDBB1
:1013B000ED5AD950470F67DBED5AD9505A0F63DB0E
:1013C000ED5A0101EF07F05B2F0EDB2A300E01E32F
:1013D000DB2A420EDB2A430E01E3DB2A550EDB2A11
:1013E000560E01E3DB2AEA2B000EEB23140EDF245A
:1013F00018DA31E1DF2AB2D732DB4CEC0FF02BE107
:10140000470EDB2A480E01E3DB2A5A0EDB2A5B0E6D
:1014100001E3DB2ADF6A050EDF5C1BE2E6EC0EF07F
:10142000D950160FEFD9100EDF02F350146E156A63
:10143000FF0ED8801456000E15561450F2D90BE149
:10144000D950160F4AEC0EF01D0EADEC0EF0DF2A4F
:10145000E2D76ADA02E0010E01D0000E146E620ECD
:10146000E15C02E2E16AE55269D298DA3D0ED3DA34
:10147000200E82DAE70EA3EC0EF0C00EF36E060E1D
:10148000F3CFDBFF320EF36E070EF3CFDBFF030E5D
:101490009BDA600EF36E0A0EF3CFDBFF7E0EF36E67
:1014A0000B0EF3CFDBFF030EF36E0C0EF3CFDBFF5F
:1014B0000D0EDB6A0E0EDB6ACA0EF36E0F0EF3CF53
:1014C000DBFF030EF36E100EF3CFDBFF110EDB6AB2
:1014D000A00EF36E120EF3CFDBFF0B0EF36E130EA6
:1014E000F3CFDBFF040EF36E140EF3CFDBFF150E0C
:1014F000DB6A400E02EC0FF04D0EF36E170EF3CFC9
:10150000DBFF040EF36E77DBDB6A400EF36E1A0E20
:10151000F3CFDBFF980EF36E1B0EF3CFDBFF040E51
:1015200059DBE00EF36E1E0EF3CFDBFFE30EF36E1E
:101530001F0EF3CFDBFF040ECADA790EF36E220E14
:101540005FDB230E5DDB240EF3CFDBFF690EF36E52
:10155000250EF3CFDBFF690EF36E260EF3CFDBFF14
:10156000780EF36E270EF3CFDBFF780EF36E280EA6
:1015700047DB290EF3CFDBFF8ADACDDB220EDB500F
:1015800081EC0FF0A00EAADA330EDB6A340EDB6AB0
:10159000310EF36E350EF3CFDBFF360EDB6A380EFD
:1015A000B6DB370EF3CFDBFF9AD9DF6A050EDF5CBF
:1015B00011E2010EDB6A080E9FDA0AE22FEC0FF04F
:1015C0003C0E146E26DB145C93D9010EDB2AF3D794
:1015D000DF2AECD7DF6A050EDF5C11E2010EDB6A61
:1015E000080E8ADA0AE22FEC0FF0280E1AD902E070
:1015F000010E07D0010EDB2AF3D7DF2AECD76FD913
:10160000000E146E3D0EE15C02E2E16AE55296D1F5
:10161000C5D9150E00DACDDB5A0E0BEC0FF0500ECB
:1016200095D95DD9DF6A050EDF5C1AE2010EDB6A2F
:101630000A0E62DA12E27AEC0FF029DA400EEE2698
:10164000380EEE22000EEE22EE22500EEAD802E014
:10165000010E08D0010EDB2AEBD7ABDBDF2AE3D784
:101660003ED9000E146E150EE15C02E2E16AE5520D
:1016700065D194D9150ECFD9F2D9C00E7DD9670E98
:1016800060D9370E31D9A00E9FD94F0EBDD9280E83
:101690009ADA280E5BD923D9C80E2AD9DF6A150E2B
:1016A000DF5C22E27AEC0FF0DF5001E160DBDF501B
:1016B000120802E2640E01D03C0E1AD9E8D9500E8D
:1016C000FEDA7AEC0FF0DF50120802E2640E01D06D
:1016D0003C0E0ED9DCD9B00EEE26630EEE22000EC3
:1016E000EE22EE22DF2ADBD7C9EC00F0150EE15C1A
:1016F00002E2E16AE552E16E81D350D9160EE1268D
:10170000AED9E00E1ED9430EC2DB2C0E8ED9A00E30
:101710000DDA0C0EDB6A92D9E66A0CEC28F0E55281
:10172000DF6A040EDF5C04E2DFCFE6FFA8DAF9D758
:101730001EDBDF6A040EDF5C03E2A8EC0FF0FAD7D1
:10174000DF6A130EDF5C0FE2D950030FCDDB030F0E
:10175000A1DAEE52960EEE26000EEE22EE22640E76
:10176000C7D8DF2AEED7DF6ADF50146E156AD8902B
:10177000155004E6FF0E145C000E15581EE285ECB1
:101780003EF0DE52F3CFDEFFF4CFDDFFDD52010E7F
:10179000DBCFE9FF020EF2DBEF500BE0DFCFE6FF1D
:1017A000E66A4AEC57F0E552E552C80EA1D8000EA1
:1017B00005D0640E9DD8DF2AD7D7010E146E160E01
:1017C000E15C02E2E16AE552B9D049D9020EE66E67
:1017D000CCEC4DF0E55274EC56F0E1EC00F0000971
:1017E00010E128EC03F000090CE15EEC05F00009C3
:1017F00008E1D7DC000905E138DE000902E108DF75
:1018000000091200E66E000EDA2011EF0EF08EDBFA
:101810002E0E55DA46EF0EF0DBCFEAFF090EB3EFDE
:101820000EF0E66E7ED3DBCFE6FFDBEC55F0E55243
:10183000E5521200DBCFEAFF0D0E95DA010EEF6ED6
:10184000120074DB5C0E89DA46EF0EF0F4CFDBFF9A
:10185000130E42EF0FF011DB020EF36EA7EF0EF046
:10186000000EE66E010E11EF0EF0DBCFEAFF0E0E5A
:101870007ADA010EEF6E1200DBCFEAFFA00E5FEF07
:101880000EF0DBCFEAFF060EB3EF0EF0DBCFEAFF80
:10189000040EB3EF0EF0DBCFE6FFB1EC56F0E552ED
:1018A000E5521200D950020F146EDACF15F0010E76
:1018B000DB50040D1450F324E96EDA50F420EA6E84
:1018C0002ADAD950220F146E010EDB500F011424B6
:1018D000E96E000EDA20EA6EEF5081EF0FF0E66A53
:1018E00076EC00F0E5521200D2DA050EDB6A120047
:1018F000E66EC0EC4DF0E5521200260EE66E010ECB
:1019000090D9390EE66E010E8CD94C0EE66E010EA2
:1019100088D95F0EE66E010E11EF0EF0E66E02EC56
:101920004EF0E55200091200E668FBD2020EB3EF5A
:101930000EF0130EE66E010E11EF0EF0E16E145074
:101940005DD2F36E030EF3CFDBFF1200F36E0D0ECC
:10195000F3CFDBFF0E0EDB6A100ED9D90F0EF3CFDB
:10196000DBFF1200146E010EDBCFE7FF1450E726F9
:10197000010EE7CFDBFF1200F36E020EF3CFDBFFA9
:10198000120040DA020E22EF0FF0E66E000EDA20AF
:10199000E66E0FEC28F0E552E5521200D9CFE6FFD3
:1019A000E1CFD9FF1200F3CFDBFF010EF36E12007F
:1019B000BDDA2E0ED2D946EF0EF0F36E520EF3CFF3
:1019C000DBFF530EDB6A1200F36E080EF3CFDBFF72
:1019D000090EDB6A1200F36E4E0EF3CFDBFF12002E
:1019E00001010027090E0123000E02230323120028
:1019F000DBCFEAFF0E0EB7D9EF6A12000101E00E4D
:101A0000006F130E38EF0FF0F36E060EF3CFDBFF0F
:101A1000070EDB6A1200E126DF6A010EDB6A1200A4
:101A2000F3CFDBFF080EF36E120000DAF00EF36E58
:101A3000090EF3CFDBFF0A0EDB6A12000D0EDB6A24
:101A40000E0EDB6A0F0EDB6A110E61D9100EF3CF9A
:101A5000DBFF1200EE6E0B0EEE6EEE6A1200E66A0F
:101A6000FFEC27F0E5521200D950150F13D9200EC4
:101A70005FEF0EF07FDABEEF0FF0800EF36E010E17
:101A8000F3CFDBFF120006D9EE06000E1200D9508C
:101A9000020F4AEF0EF0F36E540EF3CFDBFF550E3C
:101AA000DB6A1200F36E570EF3CFDBFF580EDB6AD2
:101AB0001200F36E590EF3CFDBFF5A0EDB6A1200F1
:101AC000136F7D0E146F020E156F166B1200F36EFE
:101AD000200EF3CFDBFF210EDB6A1200F36E2E0E19
:101AE000F3CFDBFF2F0EDB6A1200EE6E420EEE6EBE
:101AF000060EEE6EEE6A1200F36E010EDBCFF4FFFF
:101B0000F350F45C1200010EE66EFFEC27F0E55294
:101B10001200F36E150EF3CFDBFF12002D0EEE6EEA
:101B2000ED6A12003C0EEE6EED6A1200F36E070EC7
:101B3000F3CFDBFF080EDB6A1200F36E190EF3CF52
:101B4000DBFF1A0EDB6A1200F36E1E0EF3CFDBFF13
:101B50001F0EDB6A1200F36E2C0EF3CFDBFF2D0E8F
:101B6000DB6A1200F36E310EF3CFDBFF320EDB6A5D
:101B70001200F36E330EF3CFDBFF340EDB6A12007C
:101B8000F36E3D0EF3CFDBFF3E0EDB6A1200F36E09
:101B9000410EF3CFDBFF420EDB6A1200F36E3F0E05
:101BA000F3CFDBFF400EDB6A1200F36E440EF3CF7F
:101BB000DBFF450EDB6A1200F36E460EF3CFDBFF50
:101BC000470EDB6A1200F36E0B0EF3CFDBFF0C0E39
:101BD000DB6A1200F36E1C0EF3CFDBFF1D0EDB6A17
:101BE00012000B0EDB6A0C0EDB6A1200EE6E050EA5
:101BF000EE6EEE6A1200180EF3CFDBFF190E120024
:101C0000F3CFDBFF790EF36E1200960EEE6EED6AE7
:101C10001200040EDF02F3501200D9503B0F02EF06
:101C20000CF0E66EDBEC55F0E552E5521200FBDD00
:101C300043D922DE46D920DE35D91EDE38D91CDE56
:101C400045D91ADED950030FA0DE820E11EF0CF039
:101C5000160EDBCFE6FF170EE6DD180EDBCFE6FF34
:101C6000190EE1DD1A0EDBCFE6FF1B0E13EF0CF0B1
:101C7000C9DD190E11EF0CF0CFDD96EF0CF076EC0C
:101C800000F0E552320E34DEDF2A1200010EDBCF07
:101C9000E6FF47D1E96EDACFEAFF1200D950280FEC
:101CA00023D9150F02EF0CF079D930EF0CF0EE6E5E
:101CB000ED6A9EEF0FF0EE6EED6AA3EF0FF0EE26E9
:101CC000000EEE22EE22EE22120009DED950020FA3
:101CD00012000A0EDBCFE9FF0B0E12000C0EDBCF59
:101CE000E9FF0D0E12000E0EDBCFE9FF0F0E120002
:101CF000100EDBCFE9FF110E1200120EDBCFE9FF51
:101D0000130E1200140EDBCFE9FF150E1200DB6A72
:101D1000010EF36E12002A0EEECFDBFF2B0EEECF7C
:101D2000DBFF2C0EEECFDBFF2D0EEECFDBFF120024
:101D3000080EDBCFE9FF090E1200A3DD8EEF0DF0D8
:101D4000A5DD92EF0DF0FDDD020E74EF0CF0500EEC
:101D5000F3CFDBFF510EDB6A1200EE5E000EEE5A8F
:101D6000EE5AEE5A1200E926000EEA221200FA0E8E
:101D7000BFDDFA0E78EF0CF0C00E2DDECE0E2BEF8D
:101D80000CF0060EDBCFE6FF070E13EF0CF079DD4B
:101D900005EF0EF041DDEE06ED5A1200A8D8050E53
:101DA00011EF0CF0040EDBCFE6FF050E3CDDC2EFB9
:101DB0000FF0400EE1DD110EC4DD0E0E74EF0CF0DD
:101DC000DBDDB10EBEDD0A0E74EF0CF0D9503C0F16
:101DD0008BD84F0F02EF0CF082DD010E8EEF0CF06E
:101DE0001BDD630EEE6EED6A1200ED6A5CEF0FF024
:101DF000ED6A61EF0FF0ED6A66EF0FF0E552E7CFA5
:101E0000D9FF1200F36E160EF3CFDBFF1200DB6A70
:101E1000280EF36E1200D8DDA00EF6DDF1EF0DF006
:101E20007D0E146EF6DE145C11EF0CF0F36E050EF1
:101E3000F3CFDBFF060EDB6A1200A00E6ADE6C0E2B
:101E4000C1EF0CF0F36E170EF3CFDBFF180EDB6A59
:101E50001200080EDBCFE6FF090E13EF0CF0D9508D
:101E60002A0FD0DC52EF0CF0D6DD020EDB6A120036
:101E7000016F070E026F036B1200F36E4F0EF3CF6C
:101E8000DBFF1200E66EA3EC56F0E5521200F36E93
:101E9000040EF3CFDBFF1200020E8EEF0CF0BDDE5E
:101EA00007EF0CF01A0EDBCFE9FF1B0E12001C0E21
:101EB000DBCFE9FF1D0E1200160EDBCFE9FF170E78
:101EC0001200180EDBCFE9FF190E12001E0EDBCF39
:101ED000E9FF1F0E120092DDE00E7DDD210EF36E94
:101EE0004F0E9EDDA7EF0EF08DDCD9501200B8DC4E
:101EF000CEEF0FF0D950020F02EF0CF08EDE21EF83
:101F00000CF0E66ED950300FC5DEE552E750EE6EAC
:101F1000ED6A12000101C00E006F060EA9DFBCEFD2
:101F20000EF0DFEC4DF0E55200091200D9503B0FE6
:101F30004AEF0EF0D9504E0F38EF0EF0040EDBCF03
:101F4000E9FF050E1200060EDBCFE9FF070E1200B7
:101F5000030ED880DF54E66E3FEF0EF0F4DEB5DE00
:101F600002EF0CF0176F186BE4DC0DEF0EF059DE8A
:101F700094EF0CF0EE6EED6A98EF0EF0DBCFEAFF17
:101F8000B3EF0EF0C80E11EF0CF076DEEE6A120021
:101F90009CDEAADF150FA8DF280F1200D9504E0FC4
:041FA00002EF0CF050
:0C1FA400020100510AE10001020E846FEE
:101FB0001E0E826F6B0E836F0201010E006F800E8A
:101FC000146E000EB7EF16F0020101510AE1000194
:101FD000030E896F300E876F6B0E886F0201010E42
:101FE000016F850E146E000EB7EF16F0020102515C
:101FF0000AE10001010E8E6F4B0E8C6F6B0E8D6F20
:102000000201010E026F8A0E146E000EB7EF16F079
:10201000020103510AE10001030E936F540E916F08
:102020006B0E926F0201010E036F8F0E146E000E85
:10203000B7EF16F0020104510AE10001030E986F98
:102040006F0E966F6B0E976F0201010E046F940E68
:10205000146E000EB7EF16F0020105510AE10001FF
:10206000020E9D6F8A0E9B6F6B0E9C6F0201010E1C
:10207000056F990E146E000EB7EF16F002010651AF
:102080000AE10001010EA26F9C0EA06F6B0EA16F02
:102090000201010E066F9E0E146E000EB7EF16F0D1
:1020A000020107510AE10001020EA76FA50EA56FFC
:1020B0006B0EA66F0201010E076FA30E146E000EC9
:1020C000B7EF16F0020108510AE10001100EAC6FE3
:1020D000B70EAA6F6B0EAB6F0201010E086FA80E50
:1020E000146E000EB7EF16F0020109510AE100016B
:1020F0002D0EB16F470EAF6F6C0EB06F0201010E67
:10210000096FAD0E146E000EB7EF16F002010A5102
:102110000AE10001040EB66FDC0EB46F6D0EB56FF0
:102120000201010E0A6FB20E146E000EB7EF16F028
:1021300002010B510AE10001030EBB6F000EB96FE3
:102140006E0EBA6F0201010E0B6FB70E146E000E09
:10215000B7EF16F06DEC16F0030E31EC17F029EC2A
:1021600017F0F70EF3CFDBFFF80EF4CFDBFF34EC04
:1021700017F029EC17F0F50EF3CFDBFFF60EF4CFD6
:10218000DBFFDF6AF40EDB50DF5C36E28FEC18F029
:1021900093EC18F0DE52F8EC18F0DD52E4EC18F095
:1021A0003BEC17F03FEC2CF0146E060EE15E145081
:1021B00090EC16F0F350EE261550ED2290EC16F050
:1021C000020ECEEC18F0F350EE261550ED22E66A22
:1021D00034EC17F017EC17F0F350E66E3BEC17F009
:1021E0004DEC44F0EEEC17F087EC16F036EC16F000
:1021F000B3EC16F0DF2AC6D7030EE15C02E2E16A17
:10220000E55264EF16F06BEC19F0F3EC16F0C7EC46
:1022100016F0DCEC18F0BE0EE66EAA0EB1EC17F06C
:1022200063DFBEEC17F002E2E16AE55264EF16F0FC
:102230006BEC19F0060EF3EC16F0020EC7EC16F07C
:102240000A0EDCEC18F0E80EE66EAA0EB1EC17F000
:102250005DDFBEEC17F002E2E16AE55264EF16F0D2
:102260006DEC16F0060EE126050EE66E010E93ECFF
:1022700018F0040EF3CFDBFF050EF4CFDBFFD2EC3A
:1022800018F042EC17F049EC19F0040E23EC18F0AA
:10229000E66A1E0E12EC18F0E66EE66AE66EE66A74
:1022A00065EC19F0020E41EC16F0D6DEF3EC17F0F7
:1022B00044EC4BF01C6E090E17EC18F0D2EC18F041
:1022C000020EB1EC18F049EC19F042EC17F04BECAF
:1022D00016F0B3EC16F0020EB1EC18F04BEC16F061
:1022E00049EC17F0060EE15C02E2E16AE55264EFA8
:1022F00016F0ECEC18F0640EE66EE66A17EC17F0D8
:10230000CBEC17F0D890F45004E60A0E145C000EE3
:10231000155807E236EC16F03CEC18F074DFBBEC15
:1023200016F0020EE15C02E2E16AE55264EF16F09B
:10233000ECEC18F036EC16F03CEC18F079DFBBEC66
:1023400016F0020EE15C02E2E16AE55264EF16F07B
:102350001FEC18F0060EE66E020E6BEC17F0030E83
:10236000E66E5FEC17F00F0E63EC17F03CEC18F024
:10237000F1DE5AEC17F01BEC18F0020EE15C02E201
:10238000E16AE55264EF16F06DEC16F0C3EC16F05E
:102390009DEF17F06DEC16F0050E05EC19F09DEFB2
:1023A00017F06DEC16F0080E67EC18F006C0DEFFB3
:1023B00007C0DEFF08C0DEFF09C0DDFFDD52DD52D1
:1023C000D5EC16F0FBEC16F0020EDBCF14F0030E8A
:1023D000DBCF15F0060EDBCF16F0070EDBCF17F0C4
:1023E00015501718E8AE02D0173404D01650145CFC
:1023F0001750155826E2E6EC17F0040EE66ED95099
:10240000040F2FEC18F0D9CFE9FFDACFEAFF72EC16
:1024100016F070EC2EF01C6E090EE15E1C50C0EC44
:1024200016F02CDEF3CF1DF0F4CF1EF074EC18F094
:102430001F6E0D0EE15E1F50CBEC17F03AEC18F05A
:1024400002D022EC17F0080EE15C02E2E16AE552EC
:1024500064EF16F06DEC16F00A0E67EC18F0020E41
:1024600006C0DBFF030E07C0DBFF040E08C0DBFF66
:10247000050E09C0DBFFD5EC16F0060E06C0DBFF2B
:10248000070E07C0DBFF080E08C0DBFF090E09C0FE
:10249000DBFF040E5EEC16F0040EE66ED950060F5C
:1024A0002FEC18F0D950020F2FEC18F070EC2EF032
:1024B000166E090EE15E1650CBEC17F05AEC18F0D0
:1024C000E66A040E12EC18F0040EDBCF18F0050ECD
:1024D000DBCF19F0080EDB50185C166E090EDB50CE
:1024E0001958176E16C0E6FFE66E29EC17F087EC58
:1024F00016F0020EDBCF1EF0030EDBCF1FF0060E30
:10250000DB501E5C1C6E070EDB501F581D6E1CC07E
:10251000E6FFE66E29EC17F0E552E7CF15F0E5523D
:10252000E7CF14F0F3CF1AF0F4CF1BF0F4501518E6
:10253000E8AE02D0153404D014501A5C15501B5864
:102540000AE2E6EC17F0020E04EC18F0C0EC16F00C
:10255000A7DDD1DB02D022EC17F00A0EE15C02E22B
:10256000E16AE552B1D3B9DBE6EC17F0E66E050E91
:10257000E66E66EC4DF0E552E552C0EC16F0A2DDD9
:10258000BADBCAEF18F01FEC18F0040E97DB010E4F
:10259000E66E040EE66EAEEC3AF0A7EC18F00DEC29
:1025A00019F014EC50F0A9EC18F0E66A940EE66EFF
:1025B000230E11EC19F0030EE66E020E04EC18F077
:1025C000DFDBB6DD98DB020EE15C02E2E16AE55298
:1025D0007BD3ADEC18F0FA0EE66EE66A41EC18F02B
:1025E000EEEC4BF0E552E552A7EC18F0E66A010E6E
:1025F00012EC18F02C0E29EC18F0540EE66E240E96
:1026000009EC19F005DD86EC19F002E2E16AE55209
:102610005BD394EC17F008EC17F0BDEC18F002E275
:10262000E16AE55251D394EC17F0300EE66E230EBA
:10263000E66EBDEC18F002E2E16AE55245D389ECA2
:1026400019F0AEEC3AF09BEC18F002E2E16AE552C8
:102650003BD389EC19F066EC4DF09BEC18F002E2EC
:10266000E16AE55231D377EC18F0010EE66E030E05
:10267000E66E57EC19F0500EE66E230EE66E860EEF
:10268000E66E250E67EC17F0050EE66E020EF9DA1F
:10269000ADDC86EC19F002E2E16AE55215D36BEC91
:1026A00019F0060E23EC18F0900E05EC19F0E3EC8F
:1026B00051F0A9EC18F064EC46F016EC19F0040E99
:1026C000E8DA600EE66E220EE66EA20EE66E230ECD
:1026D00009EC19F0AFDCBCDAB7EC18F0130ECEEC55
:1026E00018F0010EEF6E020E71EC17F002E2E16AD3
:1026F000E552EAD2F2DA080EB4DBF60EDB5003E064
:10270000A00E146E01D0146A156A14C0E6FF15C03D
:10271000E6FF78EC56F0EEEC17F06DDB060ECEDA45
:1027200081EC19F0F40E29EC18F076EC19F0E66E55
:10273000D950040F2FEC18F07CEC19F087DBABDAE2
:10274000B1DA70EC2EF01A6E090EE15E1A50CBEC85
:1027500017F05AEC18F0020EB1EC18F087DA82ECA0
:1027600024F0EEEC17F0080EE15C02E2E16AE552BB
:10277000ABD277EC18F031DBAEEC3AF0A7EC17F007
:1027800047DBD00EE66EA10EA2DB010EE66E020E56
:1027900078DA1ADCF1EC18F0020EB7EC18F00E0E35
:1027A000CEEC18F0CA0EEE6EA10EED6E9EDB99DB3C
:1027B00002E2E16AE55288D21FEC18F0F80EDB5015
:1027C00003E0DE68DD6803D0010EDE6EDD6AC6DA86
:1027D000DADA61DA4BDA8EDF146E090EE15E14503C
:1027E000BDDA1BDBDECF16F0DDCF17F0190ED8DB1C
:1027F000B5DAE8DADECF16F0DDCF17F0320ED0DB37
:10280000020EE15C02E2E16AE5525ED21FEC18F0D2
:10281000FA0EDB5004E0010EDE6EDD6A02D0DE68E7
:10282000DD68020EE15C02E2E16AE5524DD21FEC86
:1028300018F0FA0EDB5004E0010EDE6EDD6A02D005
:10284000DE68DD68020EE15C02E2E16AE5523CD23C
:10285000D0DB1FDBCAEF18F0CCDB8BEC24F0BEDB47
:10286000CAEF18F03ADAFB0EDBCF08F0FC0EDBCF34
:1028700009F0E10E081802E1080E091801E1BCD1C7
:10288000D00E081802E1070E091801E1A6D19E0E2C
:10289000081802E1070E091801E18FD1850E08180A
:1028A00002E1070E091801E180D16C0E081802E15F
:1028B000070E091801E176D1530E081802E1070E40
:1028C000091801E167D13A0E081802E1070E09184C
:1028D00001E157D1080E081802E1070E091801E1BD
:1028E0004CD1D60E081802E1060E091801E13AD1C2
:1028F000A40E081802E1060E091801E11DD16B0EA5
:10290000081802E1060E091801E10BD1400E081863
:1029100002E1060E091801E1FAD0CB0E081802E117
:10292000050E091801E1EFD0960E081802E1050E18
:10293000091801E1DCD0140E081802E1050E09188F
:1029400001E1C2D0B00E081802E1040E091801E13D
:10295000ADD07E0E081802E1040E091801E1A3D0E3
:10296000FC0E081802E1030E091801E18CD0F90EE3
:10297000081802E1030E091801E182D0B60E08180A
:1029800002E1030E091801E178D0840E081802E173
:10299000030E09185AE0200E081802E1030E091868
:1029A00050E0BC0E081802E1020E091844E08A0E3D
:1029B000081802E1020E09183AE0580E081802E160
:1029C000020E091828E0260E081802E1020E091866
:1029D0001FE0F40E081802E1010E091813E0900E32
:1029E000081802E1010E09180AE0FA0E081801E0C1
:1029F0000ED1095001E00BD17DDB640E02D1AADAC1
:102A00002D0ED9D04DEC19F06E0EC1DB870ED3D050
:102A100025DA0A0EF4D0030EE66ED4D93C0E53DA52
:102A20004EDBB1D94B0E1CEC19F05A0EC4D0020E7D
:102A300051D9500EDCD0E66A780EE66EE66A8C0E4E
:102A4000AFD0010EE66EB40EA8D0010EE66EF00E09
:102A5000E66EE66AE2D90AD9AFDE1ADB010EE66E4F
:102A6000E66E91D9FB0EE66EE66800D9DAD9F6D9A2
:102A7000280EE66EE66A6E0E13D06CDA230E9BD03B
:102A8000CCDB160E42D0E66A780EE66EE66A8C0E55
:102A900051EC19F0FDDAE66A010EE66E10DA820EEC
:102AA00012DADADEB0D0F9DBA8DB0AD0020EE66E6D
:102AB000B4D92EDBC4DD08DB500EF6DBE9DA020EFA
:102AC000E66EABD9820E87D015DB780EFCD9A9D97A
:102AD000010EE66EF00EE66EE66A000EE2DB8CECAE
:102AE00019F0A00E8ADBE66EEAD98C0E74D095DB65
:102AF000280EA6DBE15E14500EDB500EA7DB690E3C
:102B000046DB820E58D089DB760E9ADB7ED0030E30
:102B1000E1D8FEDAC2DADED8190E6FDBDBD8280E78
:102B20005AD0F9DACCD9A2D874DDCEDA460ECBD998
:102B300070DDCCD81E0E12D04B0EE66EE66A42D97E
:102B4000E7DAB1D94B0EE66EE66A1DD9820EBBD923
:102B5000AAD97FDB5EDDFFD8E66E280EE66EE66A58
:102B60005A0E15D0DCDAB6D8AED95BD9020EB2D87F
:102B7000500EA9D9C3DA640E0AD06BDBC4DA780E22
:102B800006D0020EA7D85A0E9ED9BDDA410E9BD9A7
:102B900040DD2FD0010EE66E4B0EE66EE66A140E97
:102BA00080DB27D0D7D9280E06D0030EE66EEBD8EF
:102BB000500E42DB640E97DB1CD0030E8BD83C0E0C
:102BC00082D99CDA8C0E19DBE66EDDD8780E6CDBD0
:102BD0007DD823D9640E68DB0CD09DDA3C0E36DB41
:102BE0004B0ED5DA5A0E7FDB71D869D9490E6BD9F5
:102BF0001ADD146E070E09D092DAE66E000EE66E4C
:102C0000E66A61D925DE146E080EE15E1450C2D268
:102C100064D8DCD81BD9BDEC54F0E552E552D6D8C7
:102C2000060EEB6A070EEB6AB5D20201DC5106E133
:102C3000100E0C6F2C0E0D6F010EDC6FC0EC3CF013
:102C4000F3CF0EF2F4CF0FF20C0E146E020E8FD0F3
:102C5000C8DA75EF17F0E552E55206C014F007C068
:102C600015F008C016F009C017F01BD2FD0EDBCF1F
:102C7000E6FFFE0EDBCFE6FF1200E552E55216EF4F
:102C800019F0C2D9F3CF18F0F4CF19F090DAE66A50
:102C9000120084DA15D3FB0EDBCFE6FFFC0EDBCF90
:102CA000E6FF120078EC56F099D906C016F007C07E
:102CB00017F008C018F009C019F0F3D1E66EA3ECC4
:102CC00056F0E552F8EF18F0E16E64D2E1D9020E49
:102CD000E66E1200E66E0DEF19F0D9CFE6FFE1CFF8
:102CE000D9FF1200EECFE6FFEECFE6FFEECFE6FF14
:102CF000EFCFE6FF1200F3CF1CF0F4CF1DF0F4D9B4
:102D00001E6E0D0EE15E1E5046D93AEF18F043D903
:102D1000D7EF18F082EC24F061D9040EE15C1200C8
:102D2000B0D9F70EDBCF16F0F80EDBCF17F0166C2C
:102D3000171E000E172216C0E6FF17C0E6FFD6ECDE
:102D400053F04CD928D9010EDBCFE9FF020EDBCFBF
:102D5000EAFFCEEF18F09CD9030E1200F80EDBCF7D
:102D6000E6FF2EEF19F07FEC24F0EEEF17F014C021
:102D7000F3FFF46E1200186E060EE15E185012009A
:102D800032D9E66A12000A0EE66EE66A1200E66EB4
:102D900066EC4DF0E552E552FED8020EE8D9F3CFCD
:102DA000EEFF15C0EDFFE66A1200FB0EDBCFE9FF78
:102DB000FC0EDBCFEAFF110E91D9C0EC2BF0E552EF
:102DC000E55212001E0EE66EE66A1200FD0EDBCF23
:102DD000E9FFFE0EDBCFEAFF1200010EE66EF80EF1
:102DE000DBCFE6FF1200E66EA3EC56F0E5523DDACB
:102DF000010EE66E1200040E06C0DBFF050E07C0D2
:102E0000DBFF060E08C0DBFF070E09C0DBFF120068
:102E1000F20EE66E220EE66E1200140EE66EE66A02
:102E2000120016DD146E080EE15E14501200F5D982
:102E3000D6EC53F0EEEF17F091EC24F0CFD8040E5F
:102E4000E15C120019DAEE6AED6A1200020E6EEF12
:102E500018F029EC54F0E552E5521200020E05EF8D
:102E600019F0E12641EF18F0F50EDBCFE6FFF60E84
:102E7000DBCFE6FF1200010EDBCFE6FF020EDBCF59
:102E8000E6FF1200040EDBCFE6FF050EDBCFE6FF08
:102E900012008EEC24F0EEEF17F02CDC186E090E09
:102EA000E15E18501200E9EC12F0146E080EE15EBB
:102EB00014501200186E0B0EE15E18501200320E04
:102EC000E66EE66A1200E66EE66A36EF16F002DF9C
:102ED000E2DE65EF19F027D98BD964D991D949EF92
:102EE00019F03FD9C3DE8AEF16F0020E3AD9A8ECEA
:102EF0002BF0E552E552F3CF16F0F4CF17F0166C35
:102F0000171E000E1722F90EDB50165C146EFA0E17
:102F1000DB501758156EF0D9020E40D914C0EEFFE1
:102F200015C0EDFF020E1200F4D9C1D9E66A030EF6
:102F3000E66E8AEC53F06FEF19F048DF020E2ED9DF
:102F4000D1DE08EC48F09FD989D90DDF23D1FFD815
:102F500081EF19F0A2D961DF89DE29EC13F08CEF43
:102F600019F0E66E31D9020EE66EFBD883EC3FF025
:102F7000E552E552E552CBDEE66A1200F3CF16F0D9
:102F8000F4CF17F014D93BEC4FF094DF31D938D996
:102F90006DDE1CEF17F0F3CF14F0F4CF15F0120034
:102FA0001702F3CF17F01602F3CF16F0F4501726DE
:102FB000FB0EDB50F324146EFC0EDB501720156E55
:102FC00014C0E6FFE66E52DE4DEF17F0E66A880E9B
:102FD000E66E230E26D9010EE66E1200E552E5528A
:102FE000E552E5521200F3CF1AF0F4CF1BF0D7EF01
:102FF00018F073DEF70EDBCFE6FFB0DE4CDE61ECDF
:1030000041F041D936EF16F0E66EFAD883EC3FF086
:10301000E552E552E5521200010E81D9E4EC0FF0C1
:1030200028EF16F0E66E8AEC53F0A9EF18F0E15E97
:103030001C5035EF19F0E4D82EDEB3EF16F04DDE5C
:10304000020EE12612003ADE09DF66EC4DF0A7EF32
:1030500018F0DBD8E3EC51F042D908EF17F0E96E35
:10306000DACFEAFF72EF16F0020EE76E80D8E75073
:1030700049EF16F001D924D1C0EC2BF0ECDD4BEF79
:1030800016F0F70EDBCFE6FFF80EDBCFE6FF1200FF
:10309000146E070EE15E145012001FEC13F0ABEF3C
:1030A00016F006C0E6FF07C0E6FF08C0E6FF09C04D
:1030B000E6FF1200DECFE9FFDDCFEAFF01D129EC08
:1030C00013F049DEE66E120001DEC3EF16F0E126D2
:1030D000CDDDDAEC2BF0E552E55212005FD8EECFF1
:1030E000E6FFEFCFE6FF120062D86DEF4CF0F3D8A9
:1030F0005EEF16F0030E89D8C3EF16F009EC13F05B
:10310000E5DD0DEF17F009EC13F025DE6AEF16F0A0
:103110003ADE36EF16F0020EE66EE2EF16F0040E1F
:10312000E66E010E1200D6DDE66EE66ACED808EC39
:1031300048F0BBEF16F00BDF200EE66E030EE66ED6
:103140009CEC45F0CCD864DED1D871EF17F095DD5A
:10315000B7D093DD020E49EF16F0BDD8060E5EEF34
:1031600016F0DBCFE6FF030EDBCFE6FF1200DBCF6E
:10317000E9FF030EDBCFEAFF1200540EE66E240EC9
:10318000A6DE020ECCD8D2EC0FF086EF19F0ABD849
:103190008CEF19F0E552E7CFD9FF1200E926000EB7
:1031A000EA22120063DDC0EC2BF02BEF16F0F3CF18
:1031B000E6FFF4CFE6FF1200E66E8AEC53F0E5522C
:1031C000E552E9DE34EF18F0D950F90FE96EFF0E41
:1031D000DA20EA6E72EF16F032DFA1DF7CDE1BEF41
:1031E00018F001DF86EC42F01C6E0E0E17EF18F09F
:1031F000F3CFDEFFF4CFDDFF120065DE4DEF18F0F8
:10320000DECFE6FFDDCFE6FF1200E66E010EE66ED2
:1032100012005DDE040E8FEF19F0000EE66EE66A16
:10322000120058DDE66EE66A52EF16F0B4DEDECF2D
:10323000E9FFDDCFEAFF120046DE41DFE2EF16F0E4
:1032400042DE4FEC13F0146E060E12004CD864EF01
:1032500018F0020E3FDD280E63EF17F0F90EDBCFFA
:10326000E6FFFA0EDBCFE6FF1200020EF3CFDBFF24
:10327000030EF4CFDBFF1200F90EDBCFE9FFFA0EED
:10328000DBCFEAFF1200166E060EE15E165087EFE6
:1032900016F03FEC2CF0BBEF16F0020EE66EC3EF1B
:1032A00016F011DEDCEF13F00EDE1FEF13F066EC0C
:1032B0004DF04DDF2C0EA9DFE3EC51F0A9EF18F033
:1032C000F3CFEEFF15C0EDFF120078EC56F0E5529B
:1032D000E5522BEF16F001DD040EE1261200CDDCE5
:1032E000040E49EF16F0EFDD29EF13F0660EE66EDF
:1032F000250EEDDD0CEF18F0020E39DF020ECEEFD9
:1033000018F0C9DC14EC50F0A9EF18F0A1DC71EF53
:1033100017F023DFEDEF16F0D9DCE2EF16F0E66EE2
:06332000030E41EF16F060
:0A3326000001FA510AE10201030E52
:10333000E16F900EDF6FAD0EE06F0001010EFA6FCE
:10334000DD0E146E020ED2EF1DF00001FB510AE1FA
:103350000201010EE66FAB0EE46FAD0EE56F0001EA
:10336000010EFB6FE20E146E020ED2EF1DF0000193
:10337000FC510AE10201010EEB6FB40EE96FAD0ED4
:10338000EA6F0001010EFC6FE70E146E020ED2EF21
:103390001DF00001FD510AE10201010EF06FBD0EAA
:1033A000EE6FAD0EEF6F0001010EFD6FEC0E146EAF
:1033B000020EF8D30001FE510AE10201010EF56F81
:1033C000C60EF36FAD0EF46F0001010EFE6FF10E2D
:1033D000146E020EE7D30001FF510AE10201010E53
:1033E000FA6FCF0EF86FAD0EF96F0001010EFF6F8F
:1033F000F60E146E020ED6D3CAEC1EF0090E77DB61
:10340000DADBBDEC54F0E552E5524CEC1EF0BDECBD
:1034100054F0E552E552A5D38EEC1EF0070EE66E91
:10342000030EE66E38EC1EF0A0DB08EC48F01CEC56
:103430001EF0F3CFDEFFF4CFDDFF85DBC0EC2BF019
:1034400094DBB4DB3FEC2CF084EC1EF0D2DB020EFC
:10345000E15C02E2E16AE552E16E83D3D9CFE6FF97
:10346000E1CFD9FF020EE126FD0EDBCFE9FFFE0E14
:10347000DBCFEAFF100EE926000EEA22EECF14F0B1
:10348000EFCF15F0D9CFE6FFDACFE6FFFB0EDBCFAB
:10349000E6FFFC0EDBCFE6FFFD0EDBCFE6FFFE0E08
:1034A000DBCFE6FF04D015C0FAFF1450F96EFBDF46
:1034B000166E060EE15E1650D9CFE9FFDACFEAFFAD
:1034C000EE50ED100DE03FDBCFEC2BF04EDB6EDB72
:1034D00049EC2CF084EC1EF085EC24F0ACEC1EF0F2
:1034E000020EE15C02E2E16AE552E16E3AD33FDBB3
:1034F0000A0EE66EE66AAEDBEECFE6FFEECFE6FF43
:103500005ADB08EC48F0166E060EE15E1650F7DB4B
:10351000CDEC1EF0F90EDBCFE6FFFA0EDBCFE6FFB7
:1035200068DB1FD39ADB010EE66E14DB0EDFF0DAE8
:1035300018D393DB020EF6DB1ADFEADA12D38DDB47
:10354000030EF0DB26DFE4DA0CD387DB040EEADBC4
:1035500031DFDEDA06D3E2DB040EE66EA3EC56F0D2
:10356000E552F3CFDEFFF4CFDDFF010EE66EFA0E7B
:10357000E66E66EC4DF0CCDBD2EC1EF06BDBD7ECEC
:103580001EF0D4DB030E0D6E0E6A16C008F017C0D5
:1035900009F049EC54F008C016F009C017F008C053
:1035A000E6FF09C0E6FF5CEC33F0B2DB020E71DB34
:1035B000010EE66EF00EE66E990E9DDAE66A020ED8
:1035C000E66EF4DA83EC3FF0E5526FDB04DFA0DA5D
:1035D000020EE15C02E2E16AE552E16EC2D2C7DAB4
:1035E0000A0EE12694EC3EF00FDB85EC3EF0040E73
:1035F000F3CFDBFF050EF4CFDBFFFFDAEE52EF5027
:103600000FE05CDBEFCF14F0060E145C15E2D2DBAA
:1036100055DBEF2A37DBE668E66895DAFCDA0CD092
:103620004DDBEF50000808E25BDA1F0E60DAEF06B0
:1036300003E144DBEF0626DBE0DAEF5024E050DA6A
:103640001D0E92DB000825E23DDBEF5022E10CDB92
:10365000080EEECFDBFF090EEDCFDBFF05DB560ECC
:10366000EE6E350EED6EA6DBFFDA080EDBCFEEFF59
:10367000090EDBCFEDFF34DA1D0E39DAEF0622DB5F
:10368000320EEF6E06D01EDBEF50000802E21ADBAE
:10369000EF0652DA060E68DB1BE0DCDAEE06ED5AC6
:1036A000D5DA8EDA04E7FB0E145CFF0E155856E2ED
:1036B00058DBD880155004E7F60E145CFF0E155841
:1036C00004E2C4DAF60EEE6EED683DDA78D944D045
:1036D00033DA070E49DB1AE0BDDAEE2AED22B6DA5C
:1036E00078DA3CE214500508000E155437E239DB55
:1036F000153409E214500A08000E155404E2A6DA43
:103700000A0EEE6EED6A1FDA5ED926D09FDA34DA41
:103710000001800E151404E099DAEE2AEF2208D099
:1037200020DB153405E28DDA03E290DAEE06EF5A7B
:1037300018DB153404E31450FB08FF0E15540EE299
:1037400085DAF4DAD890175004E6050E165C000E00
:10375000175804E2F8D93BD9E552E552EDD9040EE9
:1037600003DB0DE0E8DA2CDA04E7F30E145CFF0E5D
:10377000155829E2E0DAF30EEE6EED6824D0DCD9BC
:10378000050EF2DA0DE0D7DA24DA1DE214500D0846
:10379000000E155418E2CFDA0D0EEE6EED6A13D05E
:1037A00055DAEAD90001800E171404E0C4DAEE2AD3
:1037B000EF2209D0C0DAEDD9153405E242DA03E28E
:1037C000BADAEE06EF5ACDDA040EB8DA0850EE2671
:1037D0001550ED22B0DADDD9030EB0DAE8DA085080
:1037E000EE261550ED2236DAC7D90001800E1514E9
:1037F00004E030DAEE6AED6A18D0A5D9A5EC2BF01A
:10380000E552E552060EB3DAECD90FE21450A008E7
:10381000000E15540AE2060EDB50146E156AA00E57
:10382000ADDA14C0EEFF15C0EDFF14DAA5D9000122
:10383000800E171405E00EDABADAEE6AED6A1AD0D5
:1038400082D9A8EC2BF0E552E552070E90DAAFDAF8
:10385000C8D910E21450F508000E15540BE2070EFB
:10386000DB50146E156AF50E89DAA1DA14C0EEFF8A
:1038700015C0EDFF87D910DAFCEC4AF06DDA000EC6
:10388000146E0A0EE15C02E2E16AE552E16E145048
:1038900068D16DD9040EE126220EE66EA3EC56F037
:1038A000E552B2D949D9F80EEE6E330EED6E44D919
:1038B0007EDAFB0EDBCFEEFFFC0EDBCFEEFFFD0E64
:1038C000DBCFEEFFFE0EDBCFEEFF36D90C0E0FD9AD
:1038D000180EEE6E340EED6E2FD90E0E08D95C0E5A
:1038E000EE6E340EED6EDE0EE66E350EE66E34ECE8
:1038F0004BF054D921D9090ECCD915DD00DA1CD9E9
:10390000060EC7D98BD933EC2CF0E552E55286D997
:10391000C1EC3BF043D910D9160EBBD90DD90B0E13
:10392000E6D8060EEF6EA4D9D1D906D9180EDFD885
:1039300006C0EEFF15C0EEFF16C0EEFF17C0EEFF8B
:10394000FBD81E0ED4D8EF6AF7D8200ED0D8080EB8
:10395000EF6EF2D8200E08DAE66EEED815DAECD863
:10396000210EC5D8320EEF6EE7D81D0EC0D8050E59
:10397000EF6EE2D8120EEB6A130EEB6ADDD8140E6E
:10398000EB6A150EEB6AD8D81C0EB1D8EF6AD4D802
:10399000100EADD8240EEE6E350EED6E020EDBCF9E
:1039A00014F0030EDBCF15F014C0F3FF15C0F4FFC5
:1039B000040EE15C02E2E16AE552E16ED2D071D917
:1039C000020EEF6ECED06DD9010EEF6ECAD069D95E
:1039D000EF6AC7D0DFD91C0EC7D9030820E080D812
:1039E0001C0E85D8EF2AEF50030A12E0010A09E005
:1039F000030A15E139D9320EEE6E350E72D9070E73
:103A00000DD032D93E0EEE6E350E6BD9060E06D0B5
:103A10002BD94A0EEE6E350E64D9040EEF6EA1D08E
:103A20007DD9FB0EDBCFE9FFFC0EDBCFEAFF120EE8
:103A30009BD90D0DF350DE6EDD6AFA0EDB500DE002
:103A4000D9CFE9FFDACFEAFF010E0F0B06E0EC5207
:103A5000D890ED32EF32E806FAE142D8120E47D89C
:103A6000EE2AEF22A3D86FD8D6D8020EE15C02E28C
:103A7000E16AE552E16E75D07AD8D7D8153402E202
:103A8000E0D819E32DD8140E32D883D8FB0EDBCF43
:103A900016F0FC0EDBCF17F0166C171E000E172267
:103AA0001650145C1750155806E21AD8140EEB6A1B
:103AB000150EEB6A08D0B9D813D8140E18D81450C4
:103AC000EE261550ED224DD052D83DD83CEC2BF0CF
:103AD000E552E552E1D83CEC2BF0E552E55241D0FD
:103AE000FD0EDBCFE9FFFE0EDBCFEAFF1200E92679
:103AF000000EEA221200E66EBBD8E552E55206C07F
:103B000016F007C017F008C018F009C019F0EED081
:103B1000F3CF1CF0F4CF1DF040D96DEC4CF01E6ECD
:103B20000D0EE15E1E50EBD8F90EDBCFE9FFFA0E69
:103B3000DBCFEAFFD2EF1EF0020EDBCFE9FF030E70
:103B4000DBCFEAFF1200FD0EDBCFE6FFFE0EDBCF80
:103B5000E6FF1200E66EF90EE66E66EC4DF055EFEC
:103B60001EF0E552E7CFD9FF1200B0D8BFD0D9CFB1
:103B7000E6FFE1CFD9FF1200EECF14F0EECF15F043
:103B800096EF1EF0FB0EDBCFE6FFFC0EDBCFE6FF71
:103B90001200EECF14F0EFCF15F01200E552E5520F
:103BA0007FEF1EF014C0F3FFF46E1200DECFE6FFCD
:103BB000DDCFE6FF1200EECFE6FFEFCFE6FF12000B
:103BC000EE06ED5AEECF14F0EDCF15F0D88015507B
:103BD0001200EE2AED22EECF14F0EDCF15F01534E1
:103BE00012001650EE24146E1750EE20156EE834B5
:103BF00012007FEC24F0ACEF1EF0040EDBCFE9FFE7
:103C0000050EDBCFEAFF1200020EF3CFDBFF030E3F
:103C1000F4CFDBFF120030DFACEF1EF0020EDBCF83
:103C2000E6FF030EDBCFE6FF1200FB0EDBCF14F046
:103C3000FC0EDBCF15F01200186E060EE15E185078
:103C4000120014500008000E1554120049DF180E1F
:103C500077EF1DF045DFD7EF1EF089DFE66AEE0E45
:103C6000E66E340E7BEF1DF03BDF100E77EF1DF09C
:103C7000000EE66EE66AE66EE66A78EC56F0E5520D
:103C8000E55212002DDF200E6FD8E66E29DFC4EF5B
:103C90001EF02DDFD2EF1EF023DF160E28DFDBEF44
:103CA0001DF078D8080E77EF1DF0E552E552F3CFFE
:103CB0001AF0F4CF1BF071D8E66A120011DF1E0E65
:103CC00077EF1DF00DDF210E77EF1DF0E552E55285
:103CD00006C014F007C015F008C016F009C017F0B0
:103CE0001200ED6EFDDE200E77EF1DF006C0E6FF40
:103CF00007C0E6FF08C0E6FF09C0E6FF1200F3CFE9
:103D000014F0F4CF15F0120097DF50DFC2EF1DF072
:103D100045DFDECFE9FFDDCFEAFF120028DF020E2C
:103D2000E1261200E66E010EAAEF1DF0EECF16F0AE
:103D3000EFCF17F012008ADFD7EF1EF00D6E0E6A7C
:103D400014C008F015C009F049EC54F008C014F094
:103D500009C015F02AEF1EF0E552E552E552E55292
:103D6000120074DFC9EF1DF0C2DEEF501200F3CF76
:103D7000DBFFDB50166E176A2AEF1EF0D880145650
:103D8000000E15562AEF1EF01F0EB1DEE552E75069
:103D9000EF6E1200ECDE70EF1DF0F3CFE6FFF4CF14
:103DA000E6FF1200F3CFEEFF15C0EDFF1200020E8A
:103DB00077EF1DF0E7DEC7DEB9EC50F0ACEF1EF098
:103DC0000F015B510AE10F01010E366F740E346F63
:103DD000B00E356F0F01010E5B6F320E146E0F0EB9
:103DE00014C0F3FFF46E1200DBDB020EE1262BECB5
:103DF00023F090EC23F0E6DB0BE021EC23F026EC43
:103E000023F0B1EC56F0E552E55221EC23F0F1D766
:103E100032EC23F0BDEC54F0E552E552020EE15CC9
:103E200002E2E16AE552B7D3BBDB050EE126DF6AA9
:103E30002BEC23F0020E9DDB010EEECFDBFF020E1A
:103E4000EDCFDBFFD950010FEADB1FE039EC23F0A7
:103E5000030EEECFDBFF040EEDCFDBFFDFCFE6FF7F
:103E60008BEC23F0E2DB75EC23F0030EDF24E66E2F
:103E7000E66A020EE66EE66A030ED7DB7ADB75ECC5
:103E800023F0050EDF26F5DBD6D7050EE15C02E256
:103E9000E16AE55280D384DB060EE126A8EC38F017
:103EA000EFDBDF6A010EDB6A0A0EDF5C38E2C3DBA0
:103EB000040EF3CFDBFF050EF4CFDBFF010EDBCFEB
:103EC000E6FF8BEC23F090DB7AEC23F08DDB98ECB3
:103ED00023F0010EDB50030FE66EE66A020EE66E7B
:103EE000E66A82DB9CEC23F07AEC23F0040EDBCF55
:103EF000E6FF050EDBCFE6FF020EDBCFE6FF030E8B
:103F0000DBCFE6FFC4DBDF2A050E146E010EDBCF2C
:103F1000E7FF1450E726010EE7CFDBFFC5D7020EFF
:103F2000DBCF14F0030EDBCF15F014C0F3FF15C088
:103F3000F4FF060EE15C02E2E16AE5522CD330DBCD
:103F4000110EE1263DDF9CDBD950040FE96EDACF7C
:103F5000EAFF5F0EEE6EEE6A060EDB6A57DB0F0EAF
:103F6000DB6A100EDB6A010EE66EFFEC27F0E5520D
:103F700004DBD6DBEF5001E017D148DBD950FB0F53
:103F8000E96EFF0EDA20EA6EEE50ED105BE083DBA7
:103F9000EE50EFCFEAFFE96E166EEACF17F0060E8D
:103FA000DB5000011624146E000EEA20156E070E79
:103FB00014C0DBFF080E15C0DBFFDFDAEE52EF5056
:103FC0000CE0060EDB5006E1020EF36E060EF3CF98
:103FD000DBFF53D0060EDB0650D0CFDAEF5008E0FF
:103FE000060EDB2ADB50020848E2060EDB6A45D0EB
:103FF000C4DA060EBEDAEF500EE09BDAEF5041084D
:1040000013E097DAEF50200803E193DA5A0E15D047
:1040100090DAEF0632D0B1DA070EABDAEF502DE0CE
:1040200088DAEF505A0803E184DA200E06D081DAEC
:10403000EF50200804E17DDA410EEF6E1ED079DAF0
:10404000EF2A1BD00A0EE66EC0EC4DF0E552D950B7
:104050000F0FE96EDACFEAFF0A0EEE26000EED2210
:104060000F0EDBCF14F0100EDBCF15F0980E145CA2
:104070003A0E155802E3010E98D0010EE66E000EBE
:10408000E66EE66AE66EE66A40DA0CDB49DBDEDA0B
:1040900022EC43F0186E070EE15E1850460EDF6EFC
:1040A000FD0EDBCFE9FFFE0EDBCFEAFF39DB090EA9
:1040B000EECFDBFF0A0EEDCFDBFFD950090FAFDAF1
:1040C00069E062DA0B0EEECFDBFF0C0EEDCFDBFF0B
:1040D000DFCFE6FFE66A550E26DBE9CF18F0EACF20
:1040E00019F0E9CFE6FFEACFE6FF92EC30F01A6E66
:1040F000060EE15E1A50DFCFE6FFE66A730E13DBB1
:104100001BDBA4DABBEC30F0186E060EE15E185033
:10411000FB0EDBCF14F0FC0EDBCF15F0090EDB50ED
:10412000141831E10A0EDB5015182DE1DF04E66E9C
:10413000E66AC6DA48EC31F0E552E552F3CF1CF0FE
:10414000F4CF1DF0060EDB501A6E1B6A086E1BC002
:1041500009F0F3CF0DF0F4CF0EF09CEC54F006C054
:1041600018F007C019F0550E1826000E192218C0B5
:10417000E6FF19C0E6FFC9D9A3DA92EC30F01E6E53
:10418000060EE15E1E50100EDF26090EDBCFE9FFA2
:104190000A0E8AD7D950010FE66E000EDA20E66EBD
:1041A0000FEC28F0E552E3D6000E146E110EE15C20
:1041B00002E2E16AE5528BD2F3D9430EE126D9CF70
:1041C000E9FFDACFEAFFEE6E500EEE6E530E1ADA0A
:1041D0004C0EEE6E480EEE6E200E14DA5A0EEE6E97
:1041E000430EEE6E200E0EDA4A0EEE6E500EEE6E9E
:1041F000430E08DA450EEE6E4D0EEE6E530E02DAE9
:10420000530EEE6E590EEE6E420EFCD9450EEE6E5A
:10421000430EEE6E450EF6D9410EEE6E420EEE6E78
:10422000430EF0D9580EEE6E590EEE6E5A0EEAD9C4
:10423000440EEE6E450EEE6E460EEE6EEE6A640EA7
:10424000F36E280EF3CFDBFF290EDB6A630EF36EED
:104250002A0EF3CFDBFF2B0EDB6A620EF36E2C0E01
:10426000F3CFDBFF2D0EDB6A610EF36E2E0EF3CF64
:10427000DBFF2F0EDB6A600EF36E300EF3CFDBFF39
:10428000310EDB6A5F0EF36E320EF3CFDBFF330EBF
:10429000DB6A5E0EF36E340EF3CFDBFF350EDB6AA6
:1042A0005D0EF36E360EF3CFDBFF370EDB6A5C0E6E
:1042B000F36E380EF3CFDBFF390EDB6A5B0EF36E65
:1042C0003A0EF3CFDBFF3B0EDB6AA8EC38F03F0E73
:1042D000F3CFDBFF400EF4CFDBFF3C0EDB6A0A0EB0
:1042E000F36E3C0EDBCFF4FFF350F45C43E2A3D952
:1042F000410EF3CFDBFF420EF4CFDBFF56D9F35074
:104300000F0127D9E552E750EF6E4FD9F32821D995
:10431000010E2FD9E552E750EF6E47D9F350020F47
:1043200018D9FED9E552E750EF6EE9D901DAD95034
:10433000280F166EDACF17F03C0EDB50020D165028
:10434000F324E96EDA50F420EA6EEECF14F0EFCFEA
:1043500015F0D5D9F1D914C0EEFF15C0EDFF410E0F
:10436000DBCFE6FF420EDBCFE6FF45D990D93C0E0E
:10437000DB2AB5D740D931D9D9CFE6FFDACFE6FF6E
:10438000EBEC46F0146E060EE15E145034D9A8D959
:10439000430EE15C02E2E16AE552FDD001D9040E70
:1043A000E12679D9BDD90ED923E04BD9020EEECF43
:1043B000DBFF030EEDCFDBFFFD0EDBCF14F0FE0EB7
:1043C000DBCF15F06FD9B8D9EECF16F0EFCF17F0DD
:1043D0001450165C1550175809E2DECF14F0DDCFEB
:1043E00015F014C0F3FF15C0F4FF04D02AD9DAD7B2
:1043F000F36AF46A040EE15C02E2E16AE552CBD0B2
:10440000CFD8030EE12647DDF3CFDEFFF4CFDDFF8B
:10441000000EE66EE66ADECFE6FFDDCFE6FF5DD991
:10442000E76E020EE7CFDBFFDECFE6FFDDCFE6FF74
:1044300057D9020EDB50146E030EE15C02E2E16A12
:10444000E55245D1ADD80B0EE12625DD030EF3CFA5
:10445000DBFF040EF4CFDBFF85D804D99FDF56D9EC
:10446000050EF3CFDBFF060EF4CFDBFFD950050FAF
:10447000D6D843E0E0D8090EF3CFDBFF0A0EF4CF25
:10448000DBFF82D859D9FD0EDBCFEEFFFE0EDBCF6E
:10449000EDFF320EE66E3FD977D82CD975D848D9C2
:1044A000090EDBCFE6FF0A0EDBCFE6FF050EDBCF02
:1044B000E6FF060EDBCFE6FF55D818EC39F0146E98
:1044C000060EE15E1450070EF3CFDBFF080EF4CFAB
:1044D000DBFF030EAAD84DD8B9D844D8DBEC38F0AE
:1044E00015D9070EDBCFE6FF080EDBCFE6FF3AD883
:1044F000F4D838D872D848D8F8D834D8F1D80B0EB8
:10450000E15C02E2E16AE55246D078EC56F0FED872
:1045100006C014F007C015F008C016F009C017F067
:1045200006C0E6FF07C0E6FF08C0E6FF09C0E6FFD9
:104530001200070EDBCFE9FF080EDBCFEAFF120007
:10454000E9CF14F0EACF15F0E9CFE6FFEACFE6FFB6
:104550001200D924E96E000EDA20EA6EEF50E66E02
:104560007FEF23F0030EDBCFE6FF040EDBCFE6FF89
:104570001200E926000EEA2212000D0EDBCFE9FF41
:104580000E0EDBCFEAFF1200090EDBCFE9FF0A0EA9
:10459000DBCFEAFF1200E16EE552E7CFD9FF120050
:1045A000D9CFE6FFE1CFD9FF1200D9CF14F0DACF8F
:1045B00015F03C0EDB50040D1200166E060EE15E87
:1045C00016501200EECFDEFFEDCFDDFFD9CFE9FFB1
:1045D000DACFEAFFEE50ED10120026DCE552E5528C
:1045E000320EE66E8BEF23F0040EDBCFE9FF050EF3
:1045F000DBCFEAFF12003F0EDBCFE6FF400EDBCF42
:10460000E6FF1200EE6E5F0EEE6E120085EC3EF0DD
:104610000D0EF3CFDBFF0E0EF4CFDBFF1200E96EC1
:10462000DACFEAFFEE50ED101200DBCFE9FF040E07
:10463000DBCFEAFF1200060EE66EA3EC56F0E55261
:104640001200DECFE9FFDDCFEAFF1200EECFE6FF7A
:10465000EFCFE6FF1200FD0EDBCFE9FFFE0EDBCF52
:10466000EAFF1200FD0EDBCFE6FFFE0EDBCFE6FF1A
:104670001200010EDBCFE9FF020EDBCFEAFF1200D2
:10468000020EF3CFDBFF030EF4CFDBFF1200C2EC10
:1046900038F086EF23F0FB0EDBCFE9FFFC0EDBCF1B
:1046A000EAFF1200020EDBCFE9FF030EDBCFEAFFC9
:1046B00012000B0EDBCFE9FF0C0EDBCFEAFF12007E
:1046C000D950040FE66E000EDA20E66E1200E16E9D
:1046D0001450E552E7CFD9FF120031DC86EF23F00A
:1046E000F4EC1EF0E552E55212002ADFEBEC46F046
:1046F000DDEF22F025DFCCEC46F0DDEF22F0410EBD
:10470000DBCFE9FF420EDBCFEAFF1200E552E552B4
:10471000E552E5521200E66A030EE66EE66A120002
:10472000020EB9EF22F0E66EE66AEFDE59EF23F0F3
:0E473000030E1FDFEF6A1200040EB9EF22F035
:02473E00E3DABC
:10474000020EE12694DB86DB02E05EDBFCD793DB26
:1047500081DB02E059DBFCD7A7DB7CDB02E054DB2A
:10476000FCD7A6DB77DB02E04FDBFCD7A5DB72DBF7
:1047700002E04ADBFCD7A4DB6DDB02E045DBFCD7C3
:10478000A3DB68DB02E040DBFCD77BDA030EC1DB96
:10479000050EBFDB070EBDDB090EBBDB0B0EB9DB65
:1047A0000D0EB7DB0F0EB5DB150EB3DB170EB1DB4D
:1047B000190E6EDAA3DA16DBA1DA63DA130E68DA01
:1047C000E3EC54F0E552E552020EE15C02E2E16AEC
:1047D000E552E16E9DD297DA060EE1261D0EE66ED9
:1047E000A3EC56F0E552DADA03DB3E0EEE6E470E2E
:1047F000ED6EC5DB030E73DA72DA070E70DA090E9E
:104800006EDA0B0E6CDA0D0E6ADA0F0EA3DA130EE7
:104810000FDBFB0EDBCFEEFFFC0EDBCFEDFFE8DAAC
:10482000110E06DBFD0EDBCFEEFFFE0EDBCFEDFF44
:104830006DEC2CF006C0DEFF07C0DEFF08C0DEFF17
:1048400009C0DDFFDD52DD52ACDB99DA010E0F0B42
:1048500005E0D89015321432E806FBE196DA1450E0
:10486000EE261550ED22D9CFE9FFDACFEAFFEECFE1
:10487000E6FFEECFE6FF66DB94DB49EC2CF03FDB96
:10488000E60EE66EE66A820E48DBC7EC48F044DAD4
:10489000150E68DBE60EE66EE66A010E3EDB5FECA7
:1048A0004AF03ADA170E5EDB030EE66EE66A9B0EFE
:1048B00034DB62EC49F030DA190E4CDA1B0E75DA93
:1048C000DBCFE9FF050EDBCFEAFF1C0E64DA90DADE
:1048D000020E6BDADBCF14F0050EDBCF15F014C03F
:1048E000F3FF15C0F4FF060EE15C02E2E16AE55257
:1048F000E16E0ED208DAC5D93FDBEF5009D276DA85
:10490000030E8CD273DA050E89D270DA070E86D2C6
:104910006DDA090E83D26ADA0B0E80D267DA0D0ED9
:104920007DD264DA0F0E7AD253DA030E7CD250DADB
:10493000050E79D24DDA070E76D24ADA090E73D215
:1049400047DA0B0E70D244DA0D0E6DD241DA0F0E3B
:104950006AD2D9D9050EE12694D9130E9BD9020E3D
:1049600097D91CEC3DF0E552E552AADAAAD902E04B
:104970009BD9FCD7A9DAA5D902E096D9FCD794DA5D
:10498000A0D902E091D9FCD793DA9BD902E08CD967
:10499000FCD771DA96D902E087D9FCD7E6DA05E1CF
:1049A00021DA64EC1DF0E552E55261DA8AD902E0C1
:1049B0007BD9FCD781DA85D902E076D9FCD761D9D9
:1049C000170E64DA150E62DA190E62D9B0EC49F0EE
:1049D000E552E552020EE66EE66A36DA06C014F0DB
:1049E00007C015F008C016F009C017F0A5D970DA95
:1049F000140E4ED9BBEC30F0186E060EE15E185066
:104A0000050EE15C02E2E16AE552E16E81D17BD9FB
:104A1000040EE12636D91B0E0BDAEF5034E03DD9F7
:104A200057DA160E35D9A4DA2CD91C0E01DAEF2A82
:104A3000EF5002082CE1D6D9A2D9D89014361536F9
:104A4000F00ED8801456000E1556020E14C0DBFF6F
:104A5000030E15C0DBFF3CDA8FDA8EDAEE06ED5A74
:104A6000EECF14F0EDCF15F0020EDB50141807E175
:104A7000030EDB50151803E104D91B0E8CD901D9A4
:104A80001C0E89D904D071DA02E161DA71DA05D934
:104A9000F8D8170ED1D9150ECFD9130EFBD8020EA8
:104AA000CBD9130EF5D82DEC52F006D9E0D91AD98E
:104AB0001FD908E0A4D904E1ABD936DFC2D9F8D7B1
:104AC00038DAF5D7D8D90ED913D908E098D904E146
:104AD0009FD92DDFB6D9F8D72CDAF5D7E5D902D989
:104AE00007D908E08CD904E193D924DFAAD9F8D7F3
:104AF00020DAF5D7DDD9F6D8FBD808E080D904E173
:104B000087D91BDF9ED9F8D714DAF5D7DDD9EAD8D3
:104B1000EFD808E074D904E17BD918DF92D9F8D72F
:104B200008DAF5D7C9D9DED8E3D808E068D904E1B6
:104B30006FD906DF86D9F8D7FCD9F5D7C1D9D2D835
:104B4000D7D808E05CD904E163D9FDDE7AD9F8D77B
:104B5000F0D9F5D70ADA08E08AD90EDAEE50ED106E
:104B600003E18FD8020E17D9040EE15C02E2E16A7C
:104B7000E552E16ECDD0C7D8070EE1267CD9FCD92D
:104B8000020EEECFDBFF030EEDCFDBFFFED8EE50C3
:104B9000ED1027E0060EDB6A74D8070E79D8ACD882
:104BA0009BEC40F04ED9A4D812E077D8A5D895D880
:104BB000BAD8A2D8DDD806E0010EF36E060EF3CF08
:104BC000DBFF6BD9CAD803E123D9B4DE75D8060E52
:104BD000DB5005E0E66AD8D940D9ECD8D7D74FD911
:104BE000CED7C3D947E14DD8090EA8D92AD980D844
:104BF0000DE0ADD972D897D8F5D8BAD802E0A7D9C8
:104C0000C7D9ABD803E104D998DE56D83AD80F0EED
:104C100095D952D8C3D8D950040FE96E75D90FE091
:104C200096D9E6D88FD991EC4FF069D9040EDBCF35
:104C3000E6FF050EDBCFE6FF30D888DE3DD821D871
:104C4000050E7CD939D8B6D8A0D8EE50ED1012E0B8
:104C500016D9A2D9130EECD8EF500CE1020EE66E75
:104C6000C1D886D802E073D993D9010EE66E8CD9EB
:104C700014D9F3D8070EE15C02E2E16AE552E16E75
:104C800047D0FD0EDBCFE9FFFE0EDBCFEAFF1200BF
:104C9000CFD822D1CDD8CCEF27F0FD0EDBCFE6FF69
:104CA000FE0EDBCFE6FF120023D94CD93CEC2BF0F3
:104CB000E552E55278EF27F0E552E552E552E5522C
:104CC00012005AD9030EEECFDBFF040EEDCFDBFF4F
:104CD000D950030FE96E84EF27F02BD9FDD042D9CC
:104CE000BFEF27F049D9EECFDEFFEDCFDDFF120099
:104CF000D9CFE9FF84EF27F0C2D8EED0BDEC54F055
:104D0000E552E5521200D9CFE6FFE1CFD9FF1200FC
:104D1000E552E7CFD9FF12001A6E060EE15E1A5077
:104D2000DDD8F8EF26F0C6EC4CF0E9D8BAD80B0E77
:104D30007FD8EF50E66E120006C0E6FF07C0E6FF20
:104D400008C0E6FF09C0E6FF1200F3CFDEFFF4CF94
:104D5000DDFF120007D9F8EF26F0A3D80E0E68D8B1
:104D6000EF501200B1EC50F0E552E552000912008C
:104D70009DEC50F0E552E552E55200091200A8EC16
:104D80002BF0E552E5526EEF27F0D950020FE96E95
:104D9000DACFEAFF12004CD8EF6A1200040EF3CF0C
:104DA000DBFF050EF4CFDBFF120042D8010EEF6EE1
:104DB000040E1200020EF3CFDBFF030EF4CFDBFF75
:104DC000120010EC1DF0146E050EE15E145012007E
:104DD0009ADFFB0EDBCFE9FFFC0EDBCFEAFFB2D898
:104DE0008DDFB8D04EDF110E48EF26F08CDFB2D049
:104DF000040EDBCFE9FF050EDBCFEAFF12004DDF2B
:104E00006CDFB6D80108120068DF78DF99EF27F071
:104E1000DECFE6FFDDCFE6FF4DEF26F039DFC2EC57
:104E200038F04ADF75D734DFDBEC38F045DF70D778
:104E3000E926000EEA2212002BDF9AD82EDF41EF7E
:104E400026F03ADFA5EF26F0E66EE66A78EC56F03B
:104E50005CEF26F047DF78EF26F0020EDBCFE6FFAF
:104E6000030EDBCFE6FF19DF62DD5CEF26F009DF22
:104E7000030E4AEF26F005DF050E4AEF26F0020E7C
:104E8000DBCFE9FF030EDBCFEAFF120001DF3CECD2
:104E90002BF0E552E55241EF26F0FFDE2DDFC8EFA3
:104EA00027F047D8CCEF27F0ECDE070E4AEF26F0CC
:104EB000E8DE090E4AEF26F0E4DE0B0E4AEF26F09C
:104EC000E0DE0D0E4AEF26F0DCDE0F0E4AEF26F094
:104ED000D8DE110E4AEF26F0A2EF27F0F3CF14F040
:104EE000F4CF15F01200F3CFEEFF15C0EDFF120066
:104EF000030EDBCFE9FF040EDBCFEAFF1200146ED6
:104F0000060EE15E14501200DACFEAFFEE50ED100B
:104F10001200BEDEF3DE41EF26F096DF06C016F08B
:104F200007C017F008C018F009C019F005DFD1EF6D
:104F300027F0DECFE9FFDDCFEAFF1200A9DE52DF66
:104F40009BEF40F0EECFE6FFEFCFE6FF1200A5DECD
:104F5000F2EF26F0FB0EDBCFE6FFFC0EDBCFE6FF29
:104F600041EF26F065DF73EF27F03CDFB2EF26F06C
:104F7000FCEC4AF05CEF26F0020E18EF27F0A8ECEC
:104F800038F0ACDFF8EF26F0B7DE2CDFE1EF26F0EB
:104F900071EC50F05CEF26F0EE50EFCFEAFFE96ED7
:0A4FA000120026DF110E48EF26F084
:064FAA008ADA020E24DB8E
:104FB0008CDAFEE12DDB89DAFEE1826A6EDA18D343
:104FC0007FDA050E19DB81DAFEE1040E21DB7DDAE2
:104FD000FEE1030E826E61DA0BD372DA060E6AD23C
:104FE0006FDA070E67D26CDA080E826EFE0EDB50A7
:104FF00003E0010E816E01D0816A2EDBF9D260DA06
:10500000090E826EFE0EDB5003E0010E816E01D0B0
:10501000816A22DBA5D9ECD253DA0B0E4BD250DADF
:105020000A0E826E91DAEF5005E08EDAEF6A010E19
:10503000816E04D089DA010EEF6E816A806E806A1B
:10504000D7D2020E806E806A83AEFED7120038DAA5
:1050500070DADBCF17F0E1504BDA030EEBCFF3FF42
:105060001750F318E8AE02D0F33408D0EE50145CB9
:10507000EE501558EE501658EE5017580BE2FB0E36
:10508000DBCF14F0FC0EDBCF15F0FD0EDBCF16F0FE
:10509000FE0E01D04EDADBCF17F063DAA9D210DAB8
:1050A000A2DA59DAD95024DA1ADA89DAF00EE66E81
:1050B00094DFE552A00EE66E93DFE552E66A93DFD9
:1050C000E552BFDF95D2FCD9100EE126D95010DA97
:1050D000040EEECFDBFF050EEECFDBFF060EEECFAC
:1050E000DBFF070EEECFDBFFF90EDBCF08F0FA0E89
:1050F000DBCF09F0080E08C0DBFF090E09C0DBFF9B
:10510000F70EDBCF08F0F80EDBCF09F00A0E08C06F
:10511000DBFF0B0E09C0DBFFF90EDBCF16F0FA0E3A
:10512000DBCF17F0F50EDB501624146EF60EDB50B5
:105130001720156E0C0E14C0DBFF0D0E15C0DBFF23
:1051400044DA153410E21450A008000E15540BE296
:105150003CDAA00E145E000E155A68DA01E3EFD0B7
:1051600011DA01E3ECD0F50EDBCF14F0F60EDBCF55
:1051700015F00001800E151411E05DDA166A176A49
:1051800015AE02D016681768F5D9145008DA53DA4C
:105190004DDA01E3D4D0F6D901E3D1D0F70EDBCF5D
:1051A00016F0F80EDBCF17F0F30EDB501624146E5A
:1051B000F40EDB501720156E0E0E14C0DBFF0F0E21
:1051C00015C0DBFF09DA153410E21450F008000EA8
:1051D00015540BE201DAF00E145E000E155A31DAA6
:1051E00001E3ADD0CFD901E3AAD0F30EDBCF14F0A9
:1051F000F40EDBCF15F0800E151421E027DA166AC5
:10520000176A15AE02D016681768A00E0B6E0C6AEE
:105210000D6A0E6AA6D915EC56F002C014F003C050
:1052200015F004C016F005C017F0A4D90250B7D984
:105230000DDA07DA01E383D0A5D901E380D0D3D911
:10524000F30EDBCF1CF0F40EDBCF1DF01E6A1F6ADD
:105250001DAE02D01E681F681CC0E6FF1DC0E6FF21
:105260001EC0E6FF1FC0E6FFF2DE206E080EE15E04
:10527000205006C018F007C019F008C01AF009C085
:105280001BF0A00E0B6E0C6A0D6A0E6A15EC56F040
:1052900002C018F003C019F004C01AF005C01BF0DA
:1052A00002C0E6FF03C0E6FF04C0E6FF05C0E6FF5C
:1052B0009AD9F50EDBCF21F0F60EDBCF22F0236A70
:1052C000246A22AE02D02368246821C0E6FF22C0EF
:1052D000E6FF23C0E6FF24C0E6FFB9DE256E080E18
:1052E000E15E2550E552E7CF1BF0E552E7CF1AF01B
:1052F000E552E7CF19F0E552E7CF18F01850062431
:10530000146E19500720156E1A500820166E1B5087
:105310000920176E02D983D92DD9E1D850D90A0EA8
:10532000DBCFE6FF5ADEE552080EDBCFE6FF58DEA4
:10533000E552F20EDBCFE6FF56DEE55282DE100EBE
:10534000E15C02E2E16AE5521BD1070EC16E926A8E
:10535000936A946A9568806A816A826A836A120095
:10536000AFD8040EE126030EDB6ADF6A030EDF5CB2
:1053700043E2010EDB6A020EDB6A010EDBCF14F0A2
:10538000020EDBCF15F0D890155004E6F00E145C39
:10539000000E155826E2E66A010EDBCFE6FF020E8C
:1053A000DBCFE6FF000EE66EE66A180EE66EE66AF2
:1053B000A00EE66EE66A800EE66E6F0EE66E0B0ECF
:1053C000E66EE66A80DE146E0D0EE15E1450D95072
:1053D000010FE96EDACFEAFF180EEE26000EED227D
:1053E000CCD7D950030FE66E000EDA20E66E17DE3A
:1053F000E552E552DF2ABAD7040EE15C02E2E16A27
:10540000E552BED05DD80E0E55D00C0E826E010E48
:10541000816E806E806A12000C0E826E816A2CEFA3
:105420002BF04ED8040EE126FB0EDBCF18F0FC0E5D
:10543000DBCF19F0A00E1902F3CF19F01802F3CF49
:1054400018F0F4501926FD0EDB50F324146EFE0EF6
:10545000DB501920156E166A176A15AE02D0166851
:1054600017685BD8D2DFFA0EDBCFE6FFCBDFE55261
:10547000010EE66EB8DDE552D2D8020EE66EADDD65
:10548000E552040EE66EACDDE552DBDDC5DF040E51
:10549000E15C02E2E16AE55273D0FB0EDBCF14F06F
:1054A000FC0EFD0EFE0E156A166A176A1450816E08
:1054B0002CEF2BF0826EFE0EDB50816ECDD898D093
:1054C000D9CFE6FFE1CFD9FF1200D890030EEB321F
:1054D000020EEB32010EEB32EF32E7061200EECF96
:1054E000E6FFEECFE6FFEECFE6FFEFCFE6FF1200DE
:1054F000FB0FE96EFF0EDA20EA6E1200E96EDACFDA
:10550000EAFF1450EE5E1550ED5A1200DBCF15F095
:10551000146C151E000E1522120014C0DFFF010EC0
:1055200015C0DBFF020E16C0DBFF030E17C0DBFF4A
:105530001200F70EDBCF14F0F80EDBCF15F0F90EEA
:10554000DBCF16F0FA0E1200FD0EDBCFE9FFFE0EE8
:10555000DBCFEAFF120034DDE552E552E552E552B9
:10556000120014C006F015C007F016C008F017C0EE
:1055700009F01200D950040FE96EDACFEAFF1200E9
:10558000E16E36D014500008000E15541200080EBB
:10559000DBCF14F0090EDBCF15F015341200EE2628
:1055A0001550EE221650EE221750EE2212000A0E6F
:1055B000DBCF14F00B0EDBCF15F015341200F5DC49
:1055C000E552E552E552E55212000C0EDBCF14F025
:1055D0000D0EDBCF15F012000E0EDBCF14F00F0E08
:1055E000DBCF15F01200E66AE66AE66AE66A1200A8
:1055F000E552E7CFD9FF1200826EFB0EDBCF14F02D
:105600001450816E29D8E15073DF080EE76E120046
:10561000826E43DFD9506CDF080EE76E1200D9CFDF
:10562000E9FFDACFEAFF5BDFABEF2AF0D950080FD2
:1056300065DFC7EF2AF0F50EDBCF14F0F60E86EF2C
:105640002AF0D9500A0F5ADFD7EF2AF0F30EDBCF3A
:1056500014F0F40E86EF2AF0010E806E806A1200BC
:105660006ED994D99CDAC2D98ED9EF50090DB8D928
:1056700014C0F3FFF46E68D162D9020EE12646D958
:10568000EFDF8ED9DECFF6FFDDCFF7FF080EF6266F
:10569000000EF7220800F550E66E35D9EECFE6FF92
:1056A000EECFE6FFEECFE6FFEFCFE6FFDECFE6FF81
:1056B000DDCFE6FF22EC43F0146E070EE15E1450DE
:1056C000020EE15C02E2E16AE552E16E3DD137D9BA
:1056D000020EE126090EE66EA3EC56F0E552F3CF7A
:1056E000DEFFF4CFDDFF87D9740EEE6EA90EED6EEE
:1056F00082D9060EE926000EEA22FD0EDBCFEEFF70
:10570000FE0EDBCFEDFF77D9080EE926000EEA2268
:10571000FC0EDBCFEFFF6FD942DAF80EDBCFEEFFE6
:10572000F90EDBCFEEFFFA0EDBCFEEFFFB0EDBCF89
:10573000EEFFDECF14F0DDCF15F062D9020EE15C92
:1057400002E2E16AE552E16EFFD0CDD9040EA9D1A3
:10575000CAD9060EA6D10CDAEECF16F051D9F4D084
:1057600007DA44D916C0F3FF17C0F4FFEDD089D98A
:10577000B7D9EBDFAED185D912DAB2D9E9DFA9D139
:10578000E5D902E014D9FEE167D996D902E00FD934
:10579000FEE1B0D902E2E16AE552E16ED5D0D6D998
:1057A00002E005D9FEE158D9A8D902E2E16AE55242
:1057B000E16ECAD0CBD902E0FAD8FEE14DD9A0D92A
:1057C00002E2E16AE552E16EBFD0C4D975D902E0C8
:1057D000EED8FEE18FD902E2E16AE552E16EB4D083
:1057E000BDD96AD902E0E3D8FEE184D902E2E16AD8
:1057F000E552E16EA9D0AED983D902E2E16AE55261
:10580000E16EA2D0ABD97CD902E2E16AE552E16E49
:105810009BD0A0D972D902E2E16AE552E16E94D040
:105820009DD96BD902E2E16AE552E16E8DD06BD968
:10583000EF2AEFCF14F05BD9EF50145C06E366D883
:1058400012D8E552E552010E01D0000E7DD05BD991
:10585000EF5006E15BD80AD8E552E552010E02D0BE
:1058600092D8EF0671D04FD9EF6A6ED068D83FD981
:10587000EF04E66E88D8E552E750EF6E65D0FCD8AD
:1058800002E095D8FEE152D980D902E090D8FEE13D
:1058900045D1F2D802E08BD8FEE148D9E4D0ECD86B
:1058A00002E085D8FEE142D9B0D072D96ED902E0CB
:1058B0007ED8FEE133D1B5D868D902E078D8FEE1D0
:1058C0002DD166D9A2D0ADD8A0D062D9CCD0A9D8DC
:1058D000CAD0780E1BD1000E19D1F00E17D1780E58
:1058E000E66EE66A000E34D0780E14D1F00EE66E45
:1058F000E66A000E2DD0F00E0DD1000EE66EE66ABF
:1059000027D0000E07D1DED8020E45D1FD0EDBCF29
:10591000E6FFFE0EDBCFE6FF1200E552E552020E77
:10592000F3CFDBFF030EF4CFDBFFAED0E552E55241
:10593000F3CF16F0F4CF17F0010E0F0B1200D9CFF2
:10594000E6FFE1CFD9FF1200E552E7CFD9FF120001
:10595000E66EE66A78EC56F0E552E552E552E5521D
:1059600012001DD90BD9020E14C0DBFF030E15C0A7
:10597000DBFF8AD0E552E552E552E7CF17F0E5525A
:10598000E7CF16F012009ED8080E05D19BD8060E60
:10599000E926000EEA22EE50EFCFEAFFE96E120090
:1059A000E552E552F3CFDEFFF4CFDDFF1200D890D1
:1059B00017321632E806120014C0EEFF15C0EDFFD4
:1059C0001200F90EDBCFEEFFFA0EDBCFEDFF120077
:1059D00047DEE552E552F3CFF6FFF4CFF7FF1200B2
:1059E0001650F324146E1750F4201200EECF16F068
:1059F000EFCF17F01200DECFE9FFDDCFEAFF120094
:105A000014C0F3FF15C0F4FF1200FB0EDBCF16F03D
:105A1000FC0EDBCF17F0A6D89BDE8FD8C0D8CCDF2A
:105A200093D78DDFF90EDBCF16F0FA0EDBCF17F030
:105A300099D88BDE82D8DCEF2CF0DBCF09F0165042
:105A4000085C146E17500958156E83EF2CF077DF41
:105A5000040EE12686EF2CF056DF90D814C0DEFF4E
:105A6000DD6E86EF2CF04FDF9AD8FB0EDBCFEEFF1A
:105A7000FC0EDBCFEDFF68D762DF48DF66DE96EF16
:105A80002CF05DDF83EF2CF0DECF06F0DECF07F0E9
:105A9000DECF08F0DDCF09F0DD52DD52040EE15C0F
:105AA0001200F626000EF7220900F5CF14F00800C8
:105AB000F5CF15F0A5DF48D74BDE96EF2CF070DF61
:105AC00086EF2CF0FD0EDBCFE9FFFE0EDBCFEAFF09
:105AD000120050DF85DF156E14C0F3FFF46E34D76B
