:020000040000FA
:060000005EEF6EF012003D
:060008009BEF4EF0120018
:06002A0015002CDE0000B1
:10003000000300008A0000002BDE0000790F0000A2
:100040000100000026DE00006B0F0000050000002C
:1000500023DE0000FD000000030000001EDE0000A3
:10006000660F0000050000001DDE0000780F000094
:10007000010000001CDE0000770F000001000000FE
:100080001ADE0000720F00000200000019DE0000FE
:10009000760F0000010000003ADD000000020000C1
:1000A000DF00000053DC0000750F000001000000BD
:1000B00005DB0000740F0000010000008BA90000A8
:1000C000FF0D00000100000035DD0000610F0000A1
:1000D000050000002CDD0000F70100000900000011
:1000E00027DD00005C0F000005000000E3B7000002
:1000F000FF0300000100000025DD0000700F00007C
:10010000020000001EDD0000370F000007000000A5
:10011000FDC20000FF020000010000001CDD000025
:08012000FD03000002000000D5
:08012800F3EC0CF0140EE126CB
:10013000180EBEEC0DF0A00E3EEC0FF00A0EDB6ABE
:1001400019EC0EF00D0EDB6A0F0EAFEC0EF00E0E7A
:10015000F3CFDBFFFE0EDB5004E162EC0DF06F0E1F
:1001600016D0FE0EDB0404E162EC0DF07E0E0FD023
:10017000FE0EDB50020804E162EC0DF08D0E07D09C
:10018000FE0EDB5003080AE162EC0DF09C0EE1EC80
:100190000CF00B0EC6EC0CF0040EDB6ADF6A0A0EE4
:1001A000DF5C0DE2D950010F9CEC0FF00C0F72ECEC
:1001B0000EF0180EEE26000EED22DF2AF0D7140EF8
:1001C000E15C02E2E16AE552E16E26EF0FF0F3EC4A
:1001D0000CF0E652DF6A040EDF5C05E2DFCFE6FFDB
:1001E00067EC0EF0F8D7DFEC0EF0DF6A040EDF5C90
:1001F00003E2D0EC0FF0FAD7E55226EF0FF0F3EC64
:100200000CF0610E5CEC0FF0580ECBEC0EF00B0E08
:1002100033EC0FF03F0ECBEC0CF045EC0FF01B0E67
:10022000F36EDB6E1C0EDB6A1F0EC5EC0DF00E0EBE
:10023000CCEC0DF0870E8CEC0DF0230EAFEC0EF035
:10024000220EF3CFDBFF280EDB6AC20EF36E290EFF
:10025000F8EC0CF02A0EF3CFDBFF2B0EDB6A1B0E43
:1002600093EC0DF01F0ED3EC0DF00E0EDAEC0DF04A
:10027000870EE1EC0DF0360EAFEC0EF0350EF3CF3D
:10028000DBFF400EF36E3B0EF3CFDBFF9A0EF36EF7
:100290003C0EF3CFDBFF020EE8EC0DF0060EEFECA8
:1002A0000DF02D0EF6EC0DF0330EFDEC0DF0860E7C
:1002B00004EC0EF0490EAFEC0EF0480EF3CFDBFF6E
:1002C0004E0EDB6A9E0E50EC0CF01A0E70EC0DF028
:1002D0004F0E02EC0DF0490E77EC0DF04C0E7EEC5B
:1002E0000DF05C0EAFEC0EF05B0EF3CFDBFF010107
:1002F000940E006FAE0E016F020E026F036B0F0EB5
:10030000066F076B2F0E046F056B0A0E096F0A6BE1
:10031000510E0B6F0C6B0E6B010E0D6F800E85EC8A
:100320000DF02E0E196F1A6B2B0E176F186B1B0E1C
:100330001C6F1D6B820E1E6F1F6B010E216F206FD5
:1003400014EC0FF001E097D1010EE66EFCEC6CF0BE
:10035000E552F40E36EC0CF001E08DD1A2EC0FF07A
:10036000FA0E36EC0CF001E086D1E00EE1EC0CF078
:100370005E0ED6EC0FF0FA0E36EC0CF001E07BD1FD
:10038000C00EE1EC0CF0650ED6EC0FF074EC0FF043
:1003900001E071D194EC0CF074EC0FF001E06BD142
:1003A000DF6A050EDF5C0BE276EC0EF059EC0DF027
:1003B000640E36EC0CF001E05ED1DF2AF2D7DE529B
:1003C0001E0EDD6EDF6A050EDF5C11E277EC0FF0CA
:1003D00001E051D177EC0FF001E04DD1A6EC0FF028
:1003E00001E049D10F0ED7EC0CF0DF2AECD7DE523A
:1003F000140EDD6EDF6A050EDF5C1CE2BEEC0FF052
:100400005C0E87EC0EF035EC0EF0FDEC0CF001E02C
:1004100032D135EC0EF0FDEC0CF001E02CD135ECD6
:100420000EF06EEC0EF001E026D10F0ED7EC0CF0C2
:10043000DF2AE1D7DE52960EDD6EDF6A030EDF5C47
:1004400018E277EC0FF001E016D177EC0FF001E045
:1004500012D1A6EC0FF001E00ED13C0E146E010E8D
:10046000DBCFE7FF1450E75E010EE7CFDBFFDF2AAB
:10047000E5D77CEC0EF0DE520A0EDD6EDF6A020E6E
:10048000DF5C11E277EC0FF001E0F5D077EC0FF0D4
:1004900001E0F1D0A6EC0FF001E0EDD0280ED7EC92
:1004A0000CF0DF2AECD7500E10EC0DF09E0E50EC45
:1004B0000CF04B0E02EC0DF0600E15EC0DF0350E4D
:1004C000046F056B7CEC0EF077EC0FF001E0D3D0FD
:1004D00077EC0FF001E0CFD0A6EC0FF001E0CBD02D
:1004E000280ED7EC0CF0400E10EC0DF0AE0E50ECD8
:1004F0000CF0530E02EC0DF0600E15EC0DF07CECE0
:100500000EF077EC0FF001E0B6D077EC0FF001E0E1
:10051000B2D0A6EC0FF001E0AED035EC0EF0800EBC
:1005200010EC0DF0BE0E50EC0CF0610E15EC0DF061
:10053000360E046F056B7CEC0EF0EAEC0FF001E078
:100540009AD0E4EC0EF0200E70EC0DF0540E02EC9C
:100550000DF0480E77EC0DF04B0E7EEC0DF0600EBA
:1005600015EC0DF09FEC0FF0320E36EC0CF001E0C4
:1005700082D023EC0DF0150E066F076B3E0E046F54
:10058000056B040E096F0A6B500E0B6F0C6B9FEC22
:100590000FF0DF6A0A0EDF5C10E293EC0FF055EC0F
:1005A0000CF0C2EC0FF067E1B2EC0FF055EC0CF080
:1005B000C2EC0FF060E1DF2AEDD7BEEC0CF0DF6A91
:1005C0001E0EDF5C0CE293EC0FF0F6EC0EF053E144
:1005D000B2EC0FF0F6EC0EF04EE1DF2AF1D7200E70
:1005E000B1EC0DF06D0EE6EC0CF0DF6A050EDF5C91
:1005F00011E276EC0EF0BEEC0CF0D950150F72EC57
:100600000EF0200ED5EC0EF0320E36EC0CF033E18D
:10061000DF2AECD745EC0FF0DF6A050EDF5C0CE259
:1006200076EC0EF0BEEC0CF059EC0DF0320E36EC20
:100630000CF021E1DF2AF1D7FA0E36EC0CF01BE1C9
:10064000D950280F27EC0CF0180E01011C6F1D6B00
:10065000AB0E85EC0DF02E0EDAEC0FF0EAEC0FF09D
:100660000AE10101D90E85EC0DF03C0EDAEC0FF039
:1006700074EC0FF002E0010E01D0000E146E610E5A
:10068000E15C02E2E16AE552C3EF0CF0F3EC0CF03E
:10069000610E30EC0DF0800E08EC0FF0AA0E09ECA4
:1006A0000DF04D0E29EC0DF0140E0BEC0EF0270E94
:1006B000F36E0D0EF3CFDBFF0E0EAFEC0EF0100E4F
:1006C000F8EC0CF00F0EF3CFDBFFAD0EB1EC0DF03C
:1006D000860E2AEC0FF00A0E4AEC0FF0450EF36E70
:1006E0001B0EF3CFDBFF1C0EDB6A280EC5EC0DF0F2
:1006F000480ECCEC0DF0470E8CEC0DF0010EF36EB5
:10070000230EF8EC0CF0220EF3CFDBFF0D0EF36E90
:10071000280EF3CFDBFF4F0EF36E290EF3CFDBFF76
:100720000A0EF36E2A0EF3CFDBFF2B0EDB6A590E97
:1007300093EC0DF03B0ED3EC0DF0480EDAEC0DF01F
:100740003B0EE1EC0DF0010EF36E360EF8EC0CF002
:10075000350EF3CFDBFFC00EF36E3B0EF3CFDBFFA6
:10076000E50EF36E3C0EF3CFDBFF090EE8EC0DF067
:100770009C0EEFEC0DF0390EF6EC0DF0310EFDECA9
:100780000DF0190E04EC0EF0010EF36E490EF8ECAC
:100790000CF0480EF3CFDBFFF90E10EC0DF0E50E78
:1007A00065EC0FF0090EF36ECFEC0EF09C0E70ECC2
:1007B0000DF0260E02EC0DF06A0E77EC0DF0190E1E
:1007C0007EEC0DF0010EF36E5C0EF8EC0CF05B0E9F
:1007D000F3CFDBFF0101600E266FA00E276F090E1D
:1007E000286F296B6F0E2C6F2D6B280E2A6F2B6BC9
:1007F0000D0E2F6F306B030E316F326B010E346FA5
:10080000336F950E396FA00E3A6F090E3B6F3C6B3C
:100810006F0E3F6F406B150E3D6F3E6B430E426F88
:10082000436B030E446F456B010E476F466FEB0E33
:100830004C6F9E0E4D6F090E4E6F4F6B110E526F27
:10084000536B506F516B780E556F566B020E576F8E
:10085000586B010E5A6F596F750E5F6FA50E606F62
:100860000A0E616F626B140E656F666B100E636F1C
:10087000646B8F0E686F696BBC0E6A6F6B6B010ED9
:100880006D6F6C6F8D0E726F470E736F0A0E746F03
:10089000756B0C0E786F796B3B0E766F776B060E6F
:1008A0007B6F7C6B0F0E7D6F7E6B010E806F7F6F99
:1008B000BF0E856F0E0E866F0A0E876F886B090E4E
:1008C0008B6F8C6B410E896F8A6B060E8E6F8F6BF0
:1008D0001D0E906F916B010E936F926F5F0E986F6C
:1008E000140E996F0A0E9A6F9B6B090E9E6F9F6B89
:1008F000410E9C6F9D6B060EA16FA26B2C0EA36F19
:10090000A46B010EA66FA56FAB69190EAC6F0A0E32
:10091000AD6FAE6B090EB16FB26B1A0EAF6FB06BED
:10092000060EB46FB56B3A0EB66FB76B010EB96FAA
:10093000B86FC00EBE6F9A0EBF6F090EC06FC16B4D
:10094000C46FC56B3C0EC26FC36B060EC76FC86B1E
:10095000490EC96FCA6B010ECC6FCB6FFC0ED16F05
:100960009A0ED26F090ED36FD46BD76FD86B3C0E33
:10097000D56FD66B420EDA6FDB6B490EDC6FDD6B29
:10098000010EDF6FDE6F14EC0FF001E0AAD0A2ECD5
:100990000FF0EAEC0FF001E0A4D0D950150F27ECCE
:1009A0000CF0DF6A0A0EDF5C0EE28DEC0EF060ECFC
:1009B0000EF001E096D0D950150F60EC0EF001E07A
:1009C00090D0DF2AEFD7D950280F27EC0CF0DF6A40
:1009D0000A0EDF5C11E28DEC0EF09CEC0FF0150FAF
:1009E00060EC0EF001E07DD0D950280F60EC0EF0E5
:1009F00001E077D0DF2AECD735EC0EF0F6EC0FF003
:100A0000DF6A0A0EDF5C12E2F0EC0FF060EC0EF031
:100A100068E135EC0EF0C2EC0FF063E1030EDF5C31
:100A200003E1CD0E08EC0FF0DF2AEBD7B9EC0CF0A8
:100A300058E1A2EC0CF0DF6A0A0EDF5C1DE2F0EC7C
:100A40000FF027EC0CF035EC0EF0C2EC0FF049E1A2
:100A5000A2EC0CF0190E36EC0CF043E1070EDF5C53
:100A600009E1400EE1EC0CF0470EC6EC0CF00A0E6A
:100A700099EC0CF0DF2AE0D7010EB3EC0CF031E179
:100A8000720EE66E010EDFEC0FF02BE1B9EC0CF00C
:100A900028E1850EE66E010EDFEC0FF022E1B9ECE5
:100AA0000CF01FE1B9EC0CF01CE1980EE66E010EA3
:100AB00039EC0EF074EC0FF014E1AB0EE66E010EA3
:100AC000DFEC0FF00EE1BE0EE66E010E39EC0EF01B
:100AD000D10EE66E010E39EC0EF0030EB3EC0CF005
:100AE00002E0010E01D0000E146E610EE15C02E224
:100AF000E16AE552C3EF0CF0F3EC0CF0200E5CEC75
:100B00000FF0030EDB6A130E6AEC0FF0040EF3CF46
:100B1000DBFF050E4BEC0CF0060EF3CFDBFF070EF0
:100B20004BEC0CF0080EF3CFDBFF090E4BEC0CF096
:100B30000A0EF3CFDBFF0B0E4BEC0CF00C0EF3CFD9
:100B4000DBFF0D0E4BEC0CF00E0EF3CFDBFF0F0EA8
:100B50004BEC0CF0100EF3CFDBFF110E4BEC0CF056
:100B6000120EF3CFDBFF130EF4CFDBFF6AEC0FF0B6
:100B7000140EF3CFDBFF150E4BEC0CF0160EF3CF7B
:100B8000DBFF170E4BEC0CF023EC0EF04BEC0CF0F3
:100B90001A0EF3CFDBFF1B0E4BEC0CF01C0EF3CF49
:100BA000DBFF1D0E4BEC0CF01E0EF3CFDBFF1F0E18
:100BB000F4CFDBFFC6EC0FF0DBCFEAFF8A0EEE6E60
:100BC000300E1EEC0EF0C6EC0FF066EC0CF0BA0E18
:100BD0007FEC0EF06BEC0CF02C0E7FEC0EF031EC99
:100BE0000CF00A0E7FEC0EF064EC0EF0280E7FEC99
:100BF0000EF01DEC0DF0C6EC0FF03FEC0CF0CBEC62
:100C00000FF0DBCFEAFFCA0EEE6EA40E1EEC0EF064
:100C1000CBEC0FF066EC0CF0BA0E83EC0EF06BEC44
:100C20000CF02C0E83EC0EF031EC0CF00A0E83EC81
:100C30000EF064EC0EF0280E83EC0EF01DEC0DF0BF
:100C4000CBEC0FF03FEC0CF0C0EC0EF0DBCFEAFF8A
:100C5000800E9AEC0DF0C0EC0EF066EC0CF0BA0EC3
:100C6000E2EC0FF06BEC0CF02C0E5FEC0DF00A0ECA
:100C70005FEC0DF0BBEC0CF0280EE2EC0FF01DEC7D
:100C80000DF0C0EC0EF03FEC0CF091EC0EF0DBCF71
:100C9000EAFFC00EEE6E1B0E4FEC0DF091EC0EF065
:100CA000C5EC0EF091EC0EF0C8EC0EF091EC0EF0ED
:100CB00031EC0CF0410EEE6EED6A91EC0EF064EC4E
:100CC0000EF0500EEE6EED6A91EC0EF05AEC0CF058
:100CD00091EC0EF03FEC0CF096EC0EF0DBCFEAFF5F
:100CE000FC0EEE6E1B0E4FEC0DF096EC0EF0C5EC0C
:100CF0000EF096EC0EF0C8EC0EF096EC0EF031EC27
:100D00000CF0410EEE6EED6A96EC0EF064EC0EF017
:100D10008C0EEE6EED6A96EC0EF05AEC0CF096EC42
:100D20000EF0E6EC0FF0010EEF6E9BEC0EF0DBCF59
:100D3000EAFFE00EEE6E370E4FEC0DF09BEC0EF07E
:100D4000C5EC0EF09BEC0EF0C8EC0EF09BEC0EF038
:100D500031EC0CF00A0EEE6EED6A9BEC0EF064ECDA
:100D60000EF0780EEE6EED6A9BEC0EF05AEC0CF085
:100D70009BEC0EF03FEC0CF0A0EC0EF0DBCFEAFFAA
:100D80001C0EEE6E380E4FEC0DF0A0EC0EF0C5EC24
:100D90000EF0A0EC0EF0C8EC0EF0A0EC0EF031EC72
:100DA0000CF00A0EEE6EED6AA0EC0EF064EC0EF0A4
:100DB000B40EEE6EED6AA0EC0EF05AEC0CF0A0EC66
:100DC0000EF03FEC0CF0A5EC0EF0DBCFEAFFEE6A84
:100DD000540E4FEC0DF0A5EC0EF0C5EC0EF0A5ECAA
:100DE0000EF0C8EC0EF0A5EC0EF018EC0FF0A5EC30
:100DF0000EF064EC0EF0780EEE6EED6AA5EC0EF0DF
:100E00005AEC0CF0A5EC0EF03FEC0CF0AAEC0EF056
:100E1000DBCFEAFF3C0EEE6E540E4FEC0DF0AAEC69
:100E20000EF0C5EC0EF0AAEC0EF0C8EC0EF0AAEC39
:100E30000EF018EC0FF0AAEC0EF064EC0EF0B40E0D
:100E4000EE6EED6AAAEC0EF05AEC0CF0AAEC0EF085
:100E50003FEC0CF084EC0FF0DBCFEAFF800EEE6E7F
:100E60002F0E1EEC0EF084EC0FF0EFEC0EF084EC85
:100E70000FF06BEC0CF0690EEE6E1DEC0FF031EC28
:100E80000CF0280EEE6E1DEC0FF0EDEC0FF01DECEB
:100E90000FF01DEC0DF084EC0FF03FEC0CF089EC42
:100EA0000FF0DBCFEAFF210E9AEC0DF089EC0FF08A
:100EB000EFEC0EF089EC0FF06BEC0CF0310EEE6EF7
:100EC00020EC0FF031EC0CF0320EEE6E20EC0FF057
:100ED000EDEC0FF020EC0FF05AEC0CF089EC0FF079
:100EE0003FEC0CF07AEC0FF0DBCFEAFF520E9AECFD
:100EF0000DF07AEC0FF0EFEC0EF07AEC0FF06BECFB
:100F00000CF02E0EEE6EED6A7AEC0FF018EC0FF08E
:100F10007AEC0FF0EDEC0FF0ED6A7AEC0FF05AEC92
:100F20000CF07AEC0FF03FEC0CF07FEC0FF0DBCF25
:100F3000EAFFE10EEE6E170EEE6E070EEE6EEE6A33
:100F40007FEC0FF0EFEC0EF07FEC0FF06BEC0CF0A1
:100F5000310EEE6EED6A7FEC0FF031EC0CF0B6EC7A
:100F60000DF07FEC0FF0EDEC0FF0ED6A7FEC0FF081
:100F70005AEC0CF07FEC0FF03FEC0CF08EEC0FF025
:100F8000DBCFEAFF120EEE6E180EEE6E070EEE6E5F
:100F9000EE6A8EEC0FF0EFEC0EF08EEC0FF06BECD7
:100FA0000CF02E0EEE6E23EC0FF031EC0CF05E0E1A
:100FB000EE6E23EC0FF0EDEC0FF023EC0FF05AEC9B
:100FC0000CF08EEC0FF03FEC0CF094EC0CF0FAEC23
:100FD0000EF001E0B4D00A0EDBCFE6FF0B0E38ECCA
:100FE0000CF00C0EDBCFE6FF0D0E38EC0CF0DF6AD8
:100FF000190EDF5C0EE2E9EC0EF038EC0FF001E0C8
:101000009ED051EC0FF038EC0FF001E098D0DF2AC1
:10101000EFD7DF6A190EDF5C14E2E9EC0EF031EC79
:101020000EF0190F36EC0CF001E089D051EC0FF006
:1010300031EC0EF0190F36EC0CF001E080D0DF2A15
:10104000E9D77D0E36EC0CF001E079D0E9EC0EF03A
:10105000EAEC0FF074E1FAEC0EF071E194EC0CF0B4
:10106000B9EC0CF06CE1A8EC0DF0460EDF5C10E280
:1010700050EC0EF00E0EDBCFE6FF0F0EF9DB100E7C
:10108000DBCFE6FF110E3FEC0EF059E1DF2AEDD782
:10109000B9EC0CF054E154EC0DF00CEC36F084ECAF
:1010A0000FF0DFDBEECF14F0EFCF15F0153421E2B7
:1010B00014500008000E15541CE284EC0FF0F2EC02
:1010C0000EF07FEC0FF0F2EC0EF08EEC0FF0F2EC85
:1010D0000EF089EC0FF0F2EC0EF07AEC0FF0F2EC7F
:1010E0000EF094EC0CF050EC0EF0140EBFDBD7E0D9
:1010F00026D0A8EC0DF0460EDF5C1AE250EC0EF0A4
:101100001C0EDBCFE6FF1D0EB3DB1E0EDBCFE6FFB2
:101110001F0EAEDB120EDBCFE6FF130EA9DB140EA3
:10112000DBCFE6FF150E3FEC0EF009E1DF2AE3D737
:1011300054EC0DF00CEC36F014EC0FF003E0010E63
:10114000E1EC0CF0040EDBCFE6FF050EC9DB060E6A
:10115000DBCFE6FF070EC4DB080EDBCFE6FF090E90
:10116000BFDB0A0EDBCFE6FF0B0EBADB0C0EDBCFCC
:10117000E6FF0D0EB5DB0E0EDBCFE6FF0F0EB0DB8C
:10118000100EDBCFE6FF110EABDB120EDBCFE6FF5E
:10119000130EA6DB140EDBCFE6FF150EA1DB160E39
:1011A000DBCFE6FF170E9CDB180EDBCFE6FF190E38
:1011B00097DB1A0EDBCFE6FF1B0E92DB1C0EDBCF9C
:1011C000E6FF1D0E8DDB1E0EDBCFE6FF1F0E88DB5C
:1011D000020EDB50146E200EE15C02E2E16AE55281
:1011E000D2D3F3EC0CF0620E5CEC0FF0100ECEDB01
:1011F000050E6FEC0FF0090E3AEC0DF0070EDB6AEE
:10120000080EDB6A500EF36E0C0EF3CFDBFF43ECDF
:101210000DF0140E2AEC0FF0AD0EF36E170E35EC38
:101220000DF023EC0EF0DB6A120E12EC0EF0F36EF2
:101230001A0EF3CFDBFF1B0EDB6A420EF36E1F0E9E
:10124000F3CFDBFF200EDB6A960EF36E210EF3CF99
:10125000DBFF220EAFEC0EF0240ECADB230EF3CF21
:10126000DBFFE00EF36E290EF3CFDBFFB70EF36E5C
:101270002A0E35EC0DF02B0EF3CFDBFF2C0E2FECEE
:101280000FF02F0EF3CFDBFF300E2FEC0FF02D0EF3
:10129000F3CFDBFF2E0EDB6A320EDB6A330EDB6A26
:1012A000C80EF36E340EF3CFDBFF350EAFEC0EF04D
:1012B000370E9EDB360ED9DB3C0EF3CFDBFFB80ECC
:1012C000F36E3D0ED2DB3E0EF3CFDBFF3F0E2FEC75
:1012D0000FF0420EF3CFDBFF430E2FEC0FF0400E6A
:1012E000F3CFDBFF410E2FEC0FF0450EF3CFDBFF0A
:1012F000460EDB6AC80EF36E470EF3CFDBFF480ED7
:10130000AFEC0EF04A0E74DB490EF3CFDBFF300E6C
:1013100065EC0FF0B80EF36E500EA7DB510EF3CF55
:10132000DBFF520E2FEC0FF0550EF3CFDBFF560E06
:101330002FEC0FF0530EF3CFDBFF540EDB6A500E91
:10134000F36E580EF3CFDBFF590EDB6AC80EF36E57
:101350005A0EF3CFDBFF5B0EAFEC0EF05D0E48DBF9
:101360005C0EF3CFDBFF0101580EE46FB80EE56FA2
:10137000080EE66FE76B280EEA6FEB6BE86FE96B20
:10138000780EED6FEE6BC80EEF6FF06B010EF26F23
:10139000F16FCADA010EE66E5CEC34F0E5528DECCA
:1013A0000EF018DBDF6A510EDF5C4BE2BDDAD9507C
:1013B000030F9CEC0FF0290F4ADA0EEC0FF0E40E4D
:1013C000E66E010E39EC0EF0D950020F03DBD95056
:1013D000070F72EC0EF0020EEE26000EED22D95031
:1013E000030F76DBEE5AEE5AEE5A0C0EDB060D0EAC
:1013F00001E2DB06D950340F6BDBED5AD950470FB1
:1014000067DBED5AD9505A0F63DBED5A0101EF0744
:10141000F05B2F0EDB2A300E01E3DB2A420EDB2AC3
:10142000430E01E3DB2A550EDB2A560E01E3DB2ACD
:10143000EA2B000EEB23140EDF2418DA31E1DF2A49
:10144000B2D732DB74EC0FF02BE1470EDB2A480EEB
:1014500001E3DB2A5A0EDB2A5B0E01E3DB2ADF6A9B
:10146000050EDF5C1BE20EEC0FF0D950160FEFD922
:10147000100EDF02F350146E156AFF0ED88014565A
:10148000000E15561450F2D90BE1D950160F72EC1C
:101490000EF01D0ED5EC0EF0DF2AE2D76ADA02E07C
:1014A000010E01D0000E146E620EE15C02E2E16AF0
:1014B000E55269D298DA3D0ED3DA200E82DAE70ED1
:1014C000CBEC0EF0C00EF36E060EF3CFDBFF320E48
:1014D000F36E070EF3CFDBFF030E9BDA600EF36EA5
:1014E0000A0EF3CFDBFF7E0EF36E0B0EF3CFDBFFA6
:1014F000030EF36E0C0EF3CFDBFF0D0EDB6A0E0E48
:10150000DB6ACA0EF36E0F0EF3CFDBFF030EF36E32
:10151000100EF3CFDBFF110EDB6AA00EF36E120E7E
:10152000F3CFDBFF0B0EF36E130EF3CFDBFF040ED6
:10153000F36E140EF3CFDBFF150EDB6A400E2AECC0
:101540000FF04D0EF36E170EF3CFDBFF040EF36EAC
:101550007ADBDB6A400EF36E1A0EF3CFDBFF980ED8
:10156000F36E1B0EF3CFDBFF040E5CDBE00EF36EBD
:101570001E0EF3CFDBFFE30EF36E1F0EF3CFDBFF88
:10158000040ECADA790EF36E220E62DB230E60DBE4
:10159000240EF3CFDBFF690EF36E250EF3CFDBFFD6
:1015A000690EF36E260EF3CFDBFF780EF36E270E77
:1015B000F3CFDBFF780EF36E280E4ADB290EF3CF54
:1015C000DBFF8ADAD0DB220EDB50A9EC0FF0A00E95
:1015D000AADA330EDB6A340EDB6A310EF36E350E97
:1015E000F3CFDBFF360EDB6A380EB9DB370EF3CFF5
:1015F000DBFF9AD9DF6A050EDF5C11E2010EDB6AC0
:10160000080E9FDA0AE257EC0FF03C0E146E29DB4D
:10161000145C93D9010EDB2AF3D7DF2AECD7DF6AFB
:10162000050EDF5C11E2010EDB6A080E8ADA0AE2BF
:1016300057EC0FF0280E1AD902E0010E07D0010E68
:10164000DB2AF3D7DF2AECD76FD9000E146E3D0EDC
:10165000E15C02E2E16AE55296D1C5D9150E00DAE5
:10166000D0DB5A0E33EC0FF0500E95D95DD9DF6AFE
:10167000050EDF5C1AE2010EDB6A0A0E62DA12E284
:10168000A2EC0FF029DA400EEE26380EEE22000E04
:10169000EE22EE22500EEAD802E0010E08D0010E32
:1016A000DB2AEBD7AEDBDF2AE3D73ED9000E146E80
:1016B000150EE15C02E2E16AE55265D194D9150E9E
:1016C000CFD9F2D9C00E7DD9670E60D9370E31D986
:1016D000A00E9FD94F0EBDD9280E9DDA280E5BD9DA
:1016E00023D9C80E2AD9DF6A150EDF5C22E2A2ECEC
:1016F0000FF0DF5001E163DBDF50120802E2640EFD
:1017000001D03C0E1AD9E8D9500E01DBA2EC0FF043
:10171000DF50120802E2640E01D03C0E0ED9DCD973
:10172000B00EEE26630EEE22000EEE22EE22DF2A2F
:10173000DBD7E7EC00F0150EE15C02E2E16AE5526E
:10174000E16E84D350D9160EE126AED9E00E1ED933
:10175000430EC5DB2C0E8ED9A00E10DA0C0EDB6A00
:1017600092D9E66A69EC34F0E552DF6A040EDF5C78
:1017700004E2DFCFE6FFABDAF9D721DBDF6A040E44
:10178000DF5C03E2D0EC0FF0FAD7DF6A130EDF5C08
:101790000FE2D950030FD0DB030FA4DAEE52960EFE
:1017A000EE26000EEE22EE22640EC7D8DF2AEED718
:1017B000DF6ADF50146E156AD890155004E6FF0EEC
:1017C000145C000E15581EE257EC4FF0DE52F3CFBA
:1017D000DEFFF4CFDDFFDD52010EDBCFE9FF020EAD
:1017E000F5DBEF500BE0DFCFE6FFE66AA2EC6DF031
:1017F000E552E552C80EA1D8000E05D0640E9DD862
:10180000DF2AD7D7010E146E160EE15C02E2E16A00
:10181000E552B9D049D9020EE66EA8EC63F0E55264
:101820000FEC6DF0FFEC00F0000910E146EC03F066
:1018300000090CE17CEC05F0000908E1D2DC0009AC
:1018400005E138DE000902E108DF00091200E66E5A
:10185000000EDA2039EF0EF091DB2E0E58DA6EEF23
:101860000EF0DBCFEAFF090EDBEF0EF0E66E81D360
:10187000DBCFE6FF13EC6CF0E552E5521200DBCF54
:10188000EAFF0D0E98DA010EEF6E120077DB5C0EA8
:101890008CDA6EEF0EF0F4CFDBFF130E6AEF0FF071
:1018A00014DB020EF36ECFEF0EF0000EE66E010EAB
:1018B00039EF0EF0DBCFEAFF0E0E7DDA010EEF6E90
:1018C0001200DBCFEAFFA00E87EF0EF0DBCFEAFFBE
:1018D000060EDBEF0EF0DBCFEAFF040EDBEF0EF0BF
:1018E000DBCFE6FF4CEC6DF0E552E5521200D9502B
:1018F000020F146EDACF15F0010EDB50040D1450F8
:10190000F324E96EDA50F420EA6E2DDAD950220F72
:10191000146E010EDB500F011424E96E000EDA2064
:10192000EA6EEF50A9EF0FF0E66A94EC00F0E55292
:101930001200D5DA050EDB6A1200E66E9CEC63F04D
:10194000E5521200260EE66E010E93D9390EE66EB0
:10195000010E8FD94C0EE66E010E8BD95F0EE66E2E
:10196000010E39EF0EF0E66EDEEC63F0E552000991
:101970001200E668FED2020EDBEF0EF0130EE66EEA
:10198000010E39EF0EF0E16E145060D2F36E030ECB
:10199000F3CFDBFF1200F36E0D0EF3CFDBFF0E0E65
:1019A000DB6A100EDCD90F0EF3CFDBFF1200146ED2
:1019B000010EDBCFE7FF1450E726010EE7CFDBFF78
:1019C0001200F36E020EF3CFDBFF120043DA020EB9
:1019D0004AEF0FF0E66E000EDA20E66E6EEC34F0A1
:1019E000E552E5521200D9CFE6FFE1CFD9FF120050
:1019F000F3CFDBFF010EF36E1200C0DA2E0ED5D945
:101A00006EEF0EF0F36E520EF3CFDBFF530EDB6A78
:101A10001200F36E080EF3CFDBFF090EDB6A120033
:101A2000F36E4E0EF3CFDBFF120001010027090E0B
:101A30000123000E022303231200DBCFEAFF0E0E68
:101A4000BAD9EF6A12000101E00E006F130E60EFC9
:101A50000FF0F36E060EF3CFDBFF070EDB6A12000A
:101A6000E126DF6A010EDB6A1200F3CFDBFF080E0E
:101A7000F36E120003DAF00EF36E090EF3CFDBFF04
:101A80000A0EDB6A12000D0EDB6A0E0EDB6A0F0E09
:101A9000DB6A110E64D9100EF3CFDBFF1200EE6E7D
:101AA0000B0EEE6EEE6A1200E66A5CEC34F0E55264
:101AB0001200D950150F16D9200E87EF0EF082DADA
:101AC000E6EF0FF0800EF36E010EF3CFDBFF120096
:101AD00009D9EE06000E1200D950020F72EF0EF077
:101AE000F36E540EF3CFDBFF550EDB6A1200F36E7C
:101AF000570EF3CFDBFF580EDB6A1200F36E590E60
:101B0000F3CFDBFF5A0EDB6A1200136F7D0E146FEA
:101B1000020E156F166B1200F36E200EF3CFDBFF73
:101B2000210EDB6A1200F36E2E0EF3CFDBFF2F0EB9
:101B3000DB6A1200EE6E420EEE6E060EEE6EEE6A7E
:101B40001200F36E010EDBCFF4FFF350F45C1200D1
:101B5000010EE66E5CEC34F0E5520CEC36F0DF6A18
:101B60001200F36E150EF3CFDBFF12002D0EEE6E9A
:101B7000ED6A12003C0EEE6EED6A1200F36E070E77
:101B8000F3CFDBFF080EDB6A1200F36E190EF3CF02
:101B9000DBFF1A0EDB6A1200F36E1E0EF3CFDBFFC3
:101BA0001F0EDB6A1200F36E2C0EF3CFDBFF2D0E3F
:101BB000DB6A1200F36E310EF3CFDBFF320EDB6A0D
:101BC0001200F36E330EF3CFDBFF340EDB6A12002C
:101BD000F36E3D0EF3CFDBFF3E0EDB6A1200F36EB9
:101BE000410EF3CFDBFF420EDB6A1200F36E3F0EB5
:101BF000F3CFDBFF400EDB6A1200F36E440EF3CF2F
:101C0000DBFF450EDB6A1200F36E460EF3CFDBFFFF
:101C1000470EDB6A1200F36E0B0EF3CFDBFF0C0EE8
:101C2000DB6A1200F36E1C0EF3CFDBFF1D0EDB6AC6
:101C300012000B0EDB6A0C0EDB6A1200EE6E050E54
:101C4000EE6EEE6A1200180EF3CFDBFF190E1200D3
:101C5000F3CFDBFF790EF36E1200960EEE6EED6A97
:101C60001200040EDF02F3501200D9503B0F27EF91
:101C70000CF0E66E13EC6CF0E552E5521200F8DD64
:101C800043D91FDE46D91DDE35D91BDE38D919DE12
:101C900045D917DED950030F9DDE820E36EF0CF0CA
:101CA000160EDBCFE6FF170EE3DD180EDBCFE6FFE7
:101CB000190EDEDD1A0EDBCFE6FF1B0E38EF0CF03F
:101CC000C6DD190E36EF0CF0CCDDBBEF0CF094EC5A
:101CD00000F0E552320E31DEDF2A1200010EDBCFBA
:101CE000E6FF47D1E96EDACFEAFF1200D950280F9C
:101CF00023D9150F27EF0CF079D955EF0CF0EE6EC4
:101D0000ED6AC6EF0FF0EE6EED6ACBEF0FF0EE2648
:101D1000000EEE22EE22EE22120006DED950020F55
:101D200012000A0EDBCFE9FF0B0E12000C0EDBCF08
:101D3000E9FF0D0E12000E0EDBCFE9FF0F0E1200B1
:101D4000100EDBCFE9FF110E1200120EDBCFE9FF00
:101D5000130E1200140EDBCFE9FF150E1200DB6A22
:101D6000010EF36E12002A0EEECFDBFF2B0EEECF2C
:101D7000DBFF2C0EEECFDBFF2D0EEECFDBFF1200D4
:101D8000080EDBCFE9FF090E1200A0DDB6EF0DF063
:101D9000A2DDBAEF0DF0FADD020E99EF0CF0500E55
:101DA000F3CFDBFF510EDB6A1200EE5E000EEE5A3F
:101DB000EE5AEE5A1200E926000EEA221200FA0E3E
:101DC000BCDDFA0E9DEF0CF0C00E2ADECE0E50EFF9
:101DD0000CF0060EDBCFE6FF070E38EF0CF076DDD9
:101DE0002DEF0EF03EDDEE06ED5A1200A8D8050EDE
:101DF00036EF0CF0040EDBCFE6FF050E39DDEAEF1F
:101E00000FF0400EDEDD110EC1DD0E0E99EF0CF06D
:101E1000D8DDB10EBBDD0A0E99EF0CF0D9503C0FA6
:101E20008BD84F0F27EF0CF07FDD010EB3EF0CF0D6
:101E300018DD630EEE6EED6A1200ED6A84EF0FF0AE
:101E4000ED6A89EF0FF0ED6A8EEF0FF0E552E7CF04
:101E5000D9FF1200F36E160EF3CFDBFF1200DB6A20
:101E6000280EF36E1200D5DDA00EF3DD19EF0EF093
:101E70007D0E146EF6DE145C36EF0CF0F36E050E7C
:101E8000F3CFDBFF060EDB6A1200A00E6ADE6C0EDB
:101E9000E6EF0CF0F36E170EF3CFDBFF180EDB6AE4
:101EA0001200080EDBCFE6FF090E38EF0CF0D95018
:101EB0002A0FCDDC77EF0CF0D3DD020EDB6A1200C7
:101EC000016F070E026F036B1200F36E4F0EF3CF1C
:101ED000DBFF1200E66E3EEC6DF0E5521200F36E91
:101EE000040EF3CFDBFF1200020EB3EF0CF0BDDEE9
:101EF0002CEF0CF01A0EDBCFE9FF1B0E12001C0EAC
:101F0000DBCFE9FF1D0E1200160EDBCFE9FF170E27
:101F10001200180EDBCFE9FF190E12001E0EDBCFE8
:101F2000E9FF1F0E12008FDDE00E7ADD210EF36E49
:101F30004F0E9BDDCFEF0EF08ADCD9501200B5DCDE
:101F4000F6EF0FF0D950020F27EF0CF08EDE46EFC0
:101F50000CF0E66ED950300FC5DEE552E750EE6E5C
:101F6000ED6A12000101C00E006F060EA9DFE4EF5A
:101F70000EF0BBEC63F0E55200091200D9503B0FA4
:101F800072EF0EF0D9504E0F60EF0EF0040EDBCF63
:101F9000E9FF050E1200060EDBCFE9FF070E120067
:101FA000030ED880DF54E66E67EF0EF0F4DEB5DE88
:101FB00027EF0CF0176F186BE1DC35EF0EF059DEF0
:101FC000B9EF0CF0EE6EED6AC0EF0EF0DBCFEAFF7A
:101FD000DBEF0EF0C80E36EF0CF076DEEE6A120084
:101FE0009CDEAADF150FA8DF280F1200D9504E0F74
:041FF00027EF0CF0DB
:0C1FF400020100510AE10301020E8E6F91
:102000009C0E8C6FA70E8D6F0201010E006F8A0E61
:10201000146E030E98EF19F0020101510AE1030159
:10202000030E936FAE0E916FA70E926F0201010E19
:10203000016F8F0E146E030E98EF19F0020102511A
:102040000AE10301010E986FC90E966FA70E976FF4
:102050000201010E026F940E146E030E98EF19F038
:10206000020103510AE10301030E9D6FD20E9B6F23
:10207000A70E9C6F0201010E036F990E146E030EE2
:1020800098EF19F0020104510AE10301030EA26F57
:10209000ED0EA06FA70EA16F0201010E046F9E0E40
:1020A000146E030E98EF19F0020105510AE10301C5
:1020B000020EA76F080EA56FA80EA66F0201010EF3
:1020C000056FA30E146E030E98EF19F0020106516E
:1020D0000AE10301010EAC6F1A0EAA6FA80EAB6FD6
:1020E0000201010E066FA80E146E030E98EF19F090
:1020F000020107510AE10301010EB16F230EAF6F18
:10210000A80EB06F0201010E076FAD0E146E030E24
:1021100098EF19F0020108510AE10301020EB66FAF
:102120002C0EB46FA80EB56F0201010E086FB20E2F
:10213000146E030E98EF19F0020109510AE1030130
:10214000100EBB6F3E0EB96FA80EBA6F0201010EE2
:10215000096FB70E146E030E98EF19F002010A51C1
:102160000AE10301060EC06FCE0EBE6FA80EBF6F50
:102170000201010E0A6FBC0E146E030E98EF19F0E7
:1021800002010B510AE10301060EC56F040EC36F75
:10219000A90EC46F0201010E0B6FC10E146E030E67
:1021A00098EF19F002010C510AE10301060ECA6F03
:1021B0003A0EC86FA90EC96F0201010E0C6FC60E50
:1021C000146E030E98EF19F002010D510AE103019C
:1021D000030ECF6F700ECD6FA90ECE6F0201010EF0
:1021E0000D6FCB0E146E030E98EF19F045EC19F03D
:1021F000030E2CEC1AF0DBEC1BF0F70EF3CFDBFF39
:10220000F80EF4CFDBFF35EC1AF0DBEC1BF0F50E2B
:10221000F3CFDBFFF60EF4CFDBFFDF6AF40EDB500B
:10222000DF5C33E2040E15EC1DF0BBEC1BF0D95063
:10223000F90F6EEC1CF03CEC1AF04BEC3BF083EC2D
:102240001BF024EC1CF0F350EE261550ED2224EC8C
:102250001CF0020E50EC1CF0F350EE261550ED224F
:10226000E66A35EC1AF0000E52EC19F0E66E3CEC22
:102270001AF018EC55F0DBEC1CF03EEC1CF012EC04
:1022800019F0ADEC19F0DF2AC9D7030EE15C02E2C8
:10229000E16AE55237EF19F074EC1CF0B9EC1AF072
:1022A0000C0EE66ED50E33EC1CF058DF94EC1AF0F1
:1022B00002E2E16AE55237EF19F074EC1CF0060E09
:1022C000B9EC1AF02E0EE66ED50E33EC1CF058DF8A
:1022D00094EC1AF002E2E16AE55237EF19F074EC7F
:1022E0001CF0060EB9EC1AF0460EE66ED50E33EC75
:1022F0001CF058DF94EC1AF002E2E16AE55237EF85
:1023000019F045EC19F0060EE126050E15EC1DF04E
:10231000040EF3CFDBFF050EF4CFDBFF1AEC1DF04C
:10232000C0EC19F03EEC1DF0040E39EC19F0F3ECA2
:1023300019F0DAEC1AF0E66A1E0EA9EC1BF0E66E54
:10234000E66A42EC1DF0020E1DEC19F0ADDE1EEC4B
:102350001BF067EC60F01C6E090EE15E1C504BEC4C
:102360001CF0C0EC19F0DFEC1CF035EC1DF021EC9A
:1023700019F043EC1AF0060EE15C02E2E16AE55264
:1023800037EF19F071EC1BF0040EE66E6EEC1BF0EB
:10239000B4EC1CF075EC1BF002E2E16AE55237EF99
:1023A00019F045EC19F0090EE12637EC1BF050EC62
:1023B0001CF0EECFDEFFEDCFDDFF040E15EC1DF0BF
:1023C0004BEC1CF035EC1DF0DFEC1CF08DEC19F043
:1023D000070EEECFDBFF080EEDCFDBFF5AEC1CF053
:1023E000EEEC22F0E552E552E76E060EE7CFDBFF9A
:1023F000DB5018E1E1EC19F01E0E0DEC1AF012E3BF
:10240000070EDBCF14F0080EDBCF15F01E0E74ECB8
:1024100019F002E0EBEC19F054EC1CF064E11550FB
:1024200062E13BD0010E47EC1AF01AE2E1EC19F040
:102430001E0E0DEC1AF014E2E1EC19F03C0E0DEC5E
:102440001AF00EE3BFEC1BF03C0E74EC19F002E046
:10245000EBEC19F054EC1CF046E1155044E11DD0B2
:10246000020E47EC1AF01DE2E1EC19F03C0E0DEC07
:102470001AF017E2E1EC19F05A0E0DEC1AF011E324
:10248000BFEC1BF05A0E74EC19F002E0EBEC19F003
:1024900054EC1CF028E1155026E1E2EC1CF00DDFB5
:1024A00020D0640EE66EE66A26EC1DF0D890F4505B
:1024B00004E60F0E145C000E155815E29AEC1CF0A1
:1024C00026EC1DF0D890F45004E6080E145C000EC3
:1024D000155804E2E2EC1CF0DFDE03D0E2EC1CF065
:1024E000FEDEB6EC19F0090EE15C02E2E16AE552AB
:1024F00037EF19F071EC1BF0060EE66E50EC1BF096
:10250000B4EC1CF0030E12EC1AF00F0E7AEC1AF079
:102510005DEC1BF06BDE27EC1AF075EC1BF002E2B1
:10252000E16AE55237EF19F045EC19F09AEC1CF02E
:10253000E6EF1AF045EC19F0050EE66E010EE66EB8
:10254000E6EF1AF045EC19F00A0EE12612EC19F04C
:10255000E6EC3AF0E552E552020E06C0DBFF030E50
:1025600007C0DBFF040E08C0DBFF050E09C0DBFF60
:1025700037EC1BF0C5EC1BF0060E06C0DBFF070EA8
:1025800007C0DBFF080E08C0DBFF090E09C0DBFF38
:10259000CBEC1BF0080EDBCF16F0090EDBCF17F0EB
:1025A00015501718E8AE02D0173404D01650145C3A
:1025B000175015581FE220EC1DF06FEC1AF0D9509F
:1025C000060F65EC1BF0D950020F65EC1BF04EECCA
:1025D0001AF00AEC1BF07ADDF3CF1BF0F4CF1CF0FD
:1025E0003EEC1CF049EC62F01D6E0D0EE15E1D50DC
:1025F00088EC1AF00A0EE15C02E2E16AE55237EF7C
:1026000019F045EC19F00C0EE12612EC19F0E6EC8D
:102610003AF0D2EC19F037EC1BF0C5EC1BF0080EC9
:1026200006C0DBFF090E07C0DBFF0A0E08C0DBFF98
:102630000B0E09C0DBFF040EA7EC19F0040EE66ECA
:10264000D950080F65EC1BF0D950040F65EC1BF056
:102650007AEC3DF0166E090EE15E165088EC1BF028
:102660009CEC19F0040E69EC1CF062EC19F0060EFB
:10267000DBCF18F0070EDBCF19F00A0EDB50185C29
:10268000166E0B0EDB501958176E16C0E6FFE66E7D
:1026900089EC69F019EC19F03EEC1CF0040EDBCF6C
:1026A0001EF0050EDBCF1FF0080EDB501E5C1C6E0B
:1026B000090EDB501F581D6E1CC0E6FFE66EDBECFA
:1026C0001BF0E552E7CF15F0E552E7CF14F0F3CF5A
:1026D0001AF0F4CF1BF0F4501518E8AE02D0153400
:1026E00004D014501A5C15501B580DE220EC1DF05C
:1026F00008EC1AF07EEC1AF09EEC1CF00BDD67EC97
:1027000019F088EC1AF00C0EE15C02E2E16AE55285
:1027100037EF19F071EC1BF020EC1DF0010EE66EA6
:10272000E66E050EE66E42EC63F0E552E5520AEC09
:102730001BF002DD67EC19F088EC1AF0020EE15C88
:1027400002E2E16AE55237EF19F062EC1BF06FEC40
:102750001AF0DAEC1AF037EC1BF0A1EC19F0B5EC3A
:1027600040F046EC1DF0E66AA80EE66EC50E01ECE0
:102770001CF0E66A020E1DEC19F018EC1CF002E2E7
:10278000E16AE55237EF19F062EC1BF06FEC1AF0DA
:102790007AEC1BF004EC1CF0B7EC1CF0E66A340E8B
:1027A000E66E250E01EC1CF0030EE0EC1BF018ECBD
:1027B0001CF002E2E16AE55237EF19F0C8EC1AF0BA
:1027C000FA0EE66EE66A56EC1BF0CAEC61F0DBEC42
:1027D0001CF03FEC19F0E66A010EA9EC1BF02C0E80
:1027E000CCEC1AF029EC1DF0190E78EC1CF038DC5A
:1027F0004AEC1DF002E2E16AE55237EF19F0BBEC5A
:102800001CF0F3EC19F0A7EC64F046EC1DF0900E10
:10281000CCEC1AF042EC19F0840EE66E230E38EC84
:102820001DF00A0E78EC1CF063DC0BEC1DF002E2EC
:10283000E16AE55237EF19F0C8EC1AF002EC1AF031
:10284000A5EC1CF0E66A030E69EC1CF029EC1DF007
:102850000A0E78EC1CF0FAEC0FF04AEC1DF002E2E4
:10286000E16AE55237EF19F0C8EC1AF0BFEC1CF042
:10287000FCEC1CF002E2E16AE55237EF19F0C8EC1B
:102880001AF002EC1AF0DAEC1AF024EC1BF0FCEC73
:102890001CF002E2E16AE55237EF19F062EC1BF03E
:1028A00008EC1AF0A5EC1CF0F40EE66E240EE66EB1
:1028B000880EE66E270EFDEC1BF01E0EE0EC1BF002
:1028C0001EEC10F04AEC1DF002E2E16AE55237EF2F
:1028D00019F0BBEC1CF0900ECCEC1AF028EC19F0BF
:1028E0002FEC57F088EC1BF042EC19F0020EE66E6C
:1028F000230E38EC1DF0140E78EC1CF042EC10F0B6
:102900000BEC1DF002E2E16AE55237EF19F045ECFD
:1029100019F0080E2CEC1AF0F60EDB5003E0A00EB6
:10292000146E01D0146A156A95EC1CF013EC6DF06E
:10293000E552E552D2EC19F0060E39EC19F024EC10
:102940001BF0F40ECCEC1AF08DEC1BF0140EE66EBE
:10295000270EFDEC1BF03FEC1BF0E66ED950040F88
:1029600065EC1BF02FEC1DF0A1EC19F021EC19F037
:1029700013EC6DF046EC1CF006C016F007C017F023
:1029800008C018F009C019F09BEC1BF04EEC1AF0CF
:1029900088EC1BF03FEC19F035EC1DF012EC19F04F
:1029A00063EC26F046EC1CF0080EE15C02E2E16A02
:1029B000E55237EF19F062EC1BF0BFEC1CF0F8ECBD
:1029C00019F01C0EE66ECB0EFDEC1BF0050EE0ECD4
:1029D0001BF00CEC10F05FEC1CF00FEC1CF00E0E7A
:1029E00050EC1CF0160EEE6ECB0EED6E35EC1DF0BD
:1029F000A0EC1AF043EC1CF002E2E16AE55237EF7A
:102A000019F071EC1BF0F80EDB5003E0DE68DD68B6
:102A100003D0010EDE6EDD6A93EC19F09AEC1CF027
:102A200021EC19F012EC19F05CEC1AF093EC19F0AF
:102A3000E7EC19F0DECF16F0DDCF17F0190EF4EC4D
:102A40001AF093EC19F01E0EE66EE66ADECF16F071
:102A5000DDCF17F0320EF4EC1AF0020EE15C02E268
:102A6000E16AE55237EF19F071EC1BF0FA0EDB501A
:102A700004E0010EDE6EDD6A02D0DE68DD68020E63
:102A8000E15C02E2E16AE55237EF19F071EC1BF00C
:102A9000FA0EDB5004E0010EDE6EDD6A02D0DE6865
:102AA000DD68020EE15C02E2E16AE55237EF19F0FF
:102AB00045EC1BF043EC1AF07CEF1CF045EC1BF0EE
:102AC00072EC26F046EC1CF07CEF1CF045EC19F0A3
:102AD000060EE126FB0EDBCF08F0FC0EDBCF09F083
:102AE000C40E081802E1090E091801E157D3920E2D
:102AF000081802E1090E091801E138D3600E081820
:102B000002E1090E091801E11FD3560E081802E16F
:102B1000090E091801E10DD3470E081802E1090E4C
:102B2000091801E106D32E0E081802E1090E091852
:102B300001E1F4D2150E081802E1090E091801E1AD
:102B4000EAD2FC0E081802E1080E091801E1E3D2EE
:102B5000E10E081802E1080E091801E1D0D2CA0EF0
:102B6000081802E1080E091801E1B3D2660E081830
:102B700002E1080E091801E19CD2340E081802E1A6
:102B8000080E091801E191D2020E081802E1080EA0
:102B9000091801E17AD2D00E081802E1070E0918CF
:102BA00001E164D29E0E081802E1070E091801E146
:102BB0005AD2850E081802E1070E091801E149D220
:102BC0006C0E081802E1070E091801E13AD23A0E1C
:102BD000081802E1070E091801E12CD2080E0818A6
:102BE00002E1070E091801E119D2D60E081802E118
:102BF000060E091801E1FFD1A40E081802E1060E25
:102C0000091801E1CDD16B0E081802E1060E091872
:102C100001E1B7D1400E081802E1060E091801E1E2
:102C20009ED1DC0E081802E1050E091801E190D1D1
:102C3000CB0E081802E1050E091801E181D1960EAC
:102C4000081802E1050E091801E162D1140E0818F6
:102C500002E1050E091801E141D1E20E081802E176
:102C6000040E091801E133D1B00E081802E1040E78
:102C7000091801E118D17E0E081802E1040E0918A6
:102C800001E1F4D06A0E081802E1040E091801E10E
:102C9000E7D0FC0E081802E1030E091801E1D1D0BB
:102CA000F90E081802E1030E091801E1C6D0C00EA2
:102CB000081802E1030E091801E1B6D0B60E081893
:102CC00002E1030E091801E1AAD0840E081802E1FE
:102CD000030E091801E18ED0200E081802E1030E40
:102CE000091801E17ED0BC0E081802E1020E091895
:102CF00072E08A0E081802E1020E091868E0580E08
:102D0000081802E1020E091856E0260E081802E122
:102D1000020E09184DE0F40E081802E1010E091820
:102D200034E0900E081802E1010E09181CE02C0E88
:102D3000081802E1010E09180DE0FA0E081801E06A
:102D400036D2095001E033D2030EE66E010EDBDA13
:102D5000640E83D004EC1CF0F60E90EC1BF04FDDFB
:102D600083EC1BF0D8D133DBEC0E8BEC1CF0190E8E
:102D700027EC1BF06AEC1BF0320EAAEC1CF001E011
:102D800016D2020E4FDB97DAE8D004EC1CF0E20E0C
:102D90008BEC1CF06E0E27EC1BF06AEC1BF0870E20
:102DA000AAEC1CF001E003D26AEC1BF0550E7AD1BC
:102DB0001ADB0A0EA9D1FAEC1BF03C0E3BEC1CF01E
:102DC000030EA1DA4B0E4EEC1DF05A0E48D150EC1A
:102DD0001BF0500EE5D1E66A780EE66EE66A8C0EC0
:102DE00006D0010EE66EB40EE66EE66A140E82DBC5
:102DF00008DED9D1010EE66EF00EE66EE66AE4EC6E
:102E00001BF0E7EC1BF0010EE66E7DDAFB0E90EC9A
:102E10001BF0EBEC1BF0E7DA16DB6E0E1ED0AFEC0E
:102E20001CF09FDA230E1BD198EC1BF0820E3BECBA
:102E30001CF0020E96DA730E12D104EC1CF0160E82
:102E400082D0E66A780EE66EE66A8C0E53DBE7EC1B
:102E50001BF0E66A010EE6DA820E4CDB2FDE58D15B
:102E600050EC1BF0F60EE66EE66845D1E5EC1CF082
:102E7000E66EE66A26EC1DF00A0E95DBF5DC7BDAE1
:102E8000F0DBE66EA4DA9AEC1CF026EC1DF0D8908C
:102E900014361536700E1426D30E152295EC1CF040
:102EA000C1D9E2DC61D1DDDBE66E91DA0A0E15EC08
:102EB0001CF098EC1BF0500E15EC1CF008EC1CF00C
:102EC00001E075D1020EE66E82DA820E12D1E8DBE5
:102ED000BADAD80EE8EC1CF0500E45D1030EE66EBF
:102EE000010E11DA780E06DBEBEC1BF0010EE66E3C
:102EF000F00EE66EE66A000EFDDAE7EC1BF0020E5D
:102F000030DAA00E15EC1CF0030E8CDA8C0EF1D02A
:102F100004EC1CF0F3EC1BF0DCDCF5DB030EE66EDE
:102F2000E66A020EEFEC1BF0CEDA500E3BEC1CF022
:102F300098EC1BF0690E3BEC1CF0C5DA820E8FD0CA
:102F400004EC1CF0760ED6DAC4DC146E060E2DD11D
:102F5000C5DB3DDAEC0EE8EC1CF04B0EA3D0030E03
:102F6000E66E0F0EE66EE66A0A0E51EC1DF0190EC3
:102F700015EC1CF0030EE66E0F0EE66EE66A280EE8
:102F8000B8D061DA000EEFEC1BF0A4DB320EC3EC1C
:102F90001CF0CEDB460EECEC1CF09CDB5A0EE3D0B2
:102FA0004B0EE66EE66A1E0EE66EE66A0A0EEFEC61
:102FB0001CF04B0EE66EE66A9AEC1CF0820EEFEC0B
:102FC0001CF0C8EC1CF0030E9ED926EC1DF0280E58
:102FD00086D9FDD904EC1CF092DBF2EC1CF05A0E01
:102FE000D8801656000E175675DA1CD91CEC14F052
:102FF000186E070EA6D0040EE66E010E35D97ADAE9
:10300000EADB4EDB9AEC1CF0F60EE8EC1CF0500EFE
:10301000CEDBB1D9030EE66E000E17D0C8EC1CF063
:103020005DDB640EECEC1CF0F3DB01E0C0D038DBC0
:10303000500E5FD035DB5A0EECEC1CF04FDB410E2E
:10304000AFD0AFEC1CF0E66E1E0EE66EE66A280E00
:1030500006D0030E58D9500E4EEC1DF0640E4ADA1D
:103060003FEC14F0A0D03ADB3C0E9AD0C3DB320E1A
:103070003BEC1CF05DDB4B0E4EEC1DF0640E3BECAC
:103080001CF0020ECFD9490E8BD0DDD90F0EA7DB75
:1030900025DB11D9500E87DA3FEC14F06CD91EDB1A
:1030A0000AD9500ECCEC1CF05FD085EC1CF04B0E16
:1030B0000CD085EC1CF0B9DB5A0EE66EE66AA4DB98
:1030C000460EEFEC1CF0ECDAA00E51EC1DF0B40E45
:1030D00010D09EDB05E1E4DA51EC1DF01E0EA5DBFD
:1030E00097DB65E1E5EC1CF0640E9FDBE5EC1CF082
:1030F000460EE66EE66A96D834EC14F054D0040E10
:10310000E66E010EE66E000EE66EE66AF3D9D0DCDE
:10311000146E080E4AD078DB500E08D075DB57D9F4
:10312000D0EC1CF0E15E18506FDB8C0EE66EE66AA8
:1031300006D06ADB2CD9110E0FDB020E02D9D0ECBF
:103140001CF0E15E185033D03C0EE66EE66A7BD987
:10315000A6D85ADB3C0ECED94EEC14F0D4DA02DB02
:10316000C3EC1CF0FFDA23DB06D921D0010EE66E9A
:103170005F0EE66EE66A48DBF60ED2DA9DD9010EE6
:10318000E66E410EE66EE66AE20EE66EE668000E58
:10319000B1D987EC14F0146E090E07D081DA0A0E4B
:1031A000A9D91CEC14F0146E070EE15E1450060E43
:1031B000E15C02E2E16AE5525AD067D8E8D8020E33
:1031C000C0D8E6EC6AF0E552E552E1D8060EEB6AAB
:1031D000070EEB6A91D30201DE5106E1BA0E0E6FC3
:1031E000310E0F6F010EDE6F0FDB85EC4DF0E552F7
:1031F000E552F3CF10F2F4CF11F20E0E146E020E60
:10320000156E96D0E552E55206C014F007C015F0D1
:1032100008C016F009C017F09BEF1BF050DB6ED909
:10322000A0EF1AF0FD0EDBCFE6FFFE0EDBCFE6FFD0
:103230001200E552E55288EF1BF0E66E3BDB9EEF95
:103240001CF0FB0EDBCFE6FFFC0EDBCFE6FF12002F
:103250007BDA020E28D2EECFE6FFEECFE6FFEECF0E
:10326000E6FFEFCFE6FF1200E66E04EF1CF0E16E22
:1032700043D3E66E3EEC6DF0E55280EF1CF064DA6D
:10328000F7EF1CF061DA040E0ED2D9CFE6FFE1CFE2
:10329000D9FF1200146E070EE15E145012002FDAEF
:1032A000BBEF1BF0E66EE66A2ADAF3501200EEDAA4
:1032B000040EE15C1200010EDBCF14F0020EDBCF36
:1032C00015F01200020EE76EAADAE750ECD1B6D97B
:1032D00049EC62F01C6E0D0EE15E1C5012001426CB
:1032E000000E152295EF1CF0D8801456000E1556CE
:1032F000040E14C0DBFF050E15C0DBFF4CDA000125
:10330000800E15141200E66E9AEF1CF0166E060E73
:10331000E15E1650FDD93EEF1CF016DA120E1CDAF3
:103320000E0E50EF1CF0F80EDBCFE6FFD4EF1CF0D2
:1033300014C0F3FFF46E1200020E71DA58DBE66A75
:103340001200AEDAEECFE6FFEFCFE6FF1200E66E38
:103350003EEC6DF0E552DFEF1AF060EC26F046EF40
:103360001CF0E66E1E0EE66EE66A1200186E060E81
:10337000E15E18501200166E070EE15E1650120044
:10338000040EDBCFE6FF050EDBCFE6FF1200FD0EDD
:10339000DBCFE9FFFE0EDBCFEAFF12005BEC3BF078
:1033A00083EF1BF0E552E552040E06C0DBFF050E6D
:1033B00007C0DBFF060E08C0DBFF070E09C0DBFFFE
:1033C0001200D950070FE96EDACFEAFF1200140E8F
:1033D000E66EE66A1200010EF36E040EF3CFDBFF19
:1033E000050EDB6A1200020EE66E010EE66E12009A
:1033F000A20EE66E230EE66E1200146E080EE15E5B
:1034000014501200010EE66EF80EDBCFE6FF12003C
:10341000010EE66E020EE66E1200D880EE54000E2B
:10342000ED541200E66E320EE66EE66A1200010EF0
:10343000E66EE66A1200010EDBCFE9FF020EDBCF7B
:10344000EAFF50EF1CF0280EE66EE66A1200186ED6
:103450000B0EE15E18501200E12656EF1BF0D4D996
:10346000A5EC13F0186E080E1200F50EDBCFE6FF88
:10347000F60EDBCFE6FF1200010EDBCFE6FF020EF9
:10348000DBCFE6FF120075EC26F046EF1CF0F36E82
:10349000060EDBCFF4FFF350F45C12007AEC3DF043
:1034A0001A6E090EE15E1A50120087EC14F0186EC5
:1034B000090EE15E1850120087EC14F0146E090E2C
:1034C000E15E14501200010EDBCFE6FF1E0EE66E29
:1034D000E66A120016C0E6FF17C0E6FF1200010EF2
:1034E000E66E040EE66E120013EC6DF0E552E55246
:1034F00002EF19F0E66EE66A12EF19F0DBCFE6FF95
:10350000030EDBCFE6FF120036EC69F0DBEF1CF0B8
:10351000F7D9D950F70FE2D9CDD940DFCBD991DE19
:103520006DEC26F046EF1CF05DDAA8D9C4EC65F02E
:103530008EDFE6D9BFD976DE78EC26F057EF19F0AA
:10354000B4EC3AF0E552E5524DDA166C171E000E57
:103550001722F90EDB50165C146EFA0EDB5017586A
:10356000156E7DDA9DD914C0EEFF15C0EDFF020E79
:103570001200EDDE4DDF42EC63F05BDEDDDE070EB8
:10358000A8D962EF19F04EDE63EC26F057EF19F080
:10359000ABD9060E39EF19F0E66E010EE66E43EC7C
:1035A00067F019EF19F0D8801456000E1556BDD9E2
:1035B00012EF19F042EC63F03CDE3FEF19F0020E1F
:1035C000F3CFDBFF030EF4CFDBFF1200E0DE020ED1
:1035D00067D941DE06EC58F099DEE6D9BEDE8CD123
:1035E00034EC14F04AEF19F01702F3CF17F016027B
:1035F000F3CF16F0F4501726FB0EDB50F324146EB5
:10360000FC0EDB501720156E14C0E6FFE66E0ADED6
:1036100055EF1AF0F3CF18F0F4CF19F02FD9E66A6E
:1036200012007FD96DD906DA45D93EEF1DF056D983
:10363000020E12003FEC14F04AEF19F0F3CF1AF02B
:10364000F4CF1BF03EEF1CF0FCDDB7EF1CF0A4D96B
:10365000BBEF19F055EC50F0E552EBDD0FD9E66AFF
:103660001200030EE66EE66A020E52EF19F0FB0E30
:10367000DBCFE9FFFC0EDBCFEAFF110E1200050ED7
:1036800037D90CEC10F00EEF19F0FFDDF70EDBCFA1
:10369000E6FF49DED6DD33EC52F038DE12EF19F0EA
:1036A000020E34EF19F0FCD8F7EF1CF0F70EDBCF69
:1036B000E6FFF80EDBCFE6FF1200CCEC3AF0A2DD1D
:1036C00021EF19F011D939EF19F0E96EDACFEAFFDD
:1036D0002BEF19F0020E45DE5BEF19F0030E34EF0D
:1036E00019F0D3DD020EE1261200E4D868D9020EEB
:1036F000E15C1200B9EC4CF09CDD3FEF19F036ECC8
:1037000069F046EF1CF0146E060EE15E14501200D4
:10371000F3CF14F0F4CF15F01200B4DDF8EF19F088
:10372000E66EE66812EF19F01CEC14F04AEF19F09F
:10373000020E83EF19F006C0E6FF07C0E6FF08C0DF
:10374000E6FF09C0E6FF1200DECFE9FFDDCFEAFFAA
:103750001200BFD828EF19F0A3D8EE50EFCFEAFF40
:10376000E96E1200020EE66E32DEA5DD3C0E12009E
:103770005EDE000E1200DE52C3D8DD521200CDDD37
:10378000EECF14F0EFCF15F01200DBDDCCEC3AF009
:10379000E552E5521200040EDBCF14F0050EDBCF2C
:1037A00015F012004EDD6DEC26F057EF19F097DDA5
:1037B00039DD1CEF14F089EC69F0E552E552120096
:1037C000E66E020E1DEF19F002DE12EF19F001ECA9
:1037D00015F04AEF19F058EC15F0FDEF19F0E66E10
:1037E000E66A4FEF19F02FDE12EF19F0DEEC13F05E
:1037F000FDEF19F0030EB1EF19F036DD22DD74EFA5
:103800001AF032DD42EF1DF0000EE66EE66A12009D
:10381000AFDFE66EE66A78DEF350F4101200DBCF1D
:10382000E9FF030EDBCFEAFF120064DEF0EF1AF0CF
:10383000E4EC10F04CDDC3DED950F70FF8DE5EDEAD
:10384000ADDD13D9D2EF1BF031DFF70EDBCF16F071
:10385000F80EDBCF17F0166C171E000E17223ADE9B
:1038600053DE1BEF1AF0E66ED950F90FE0DEE66E7C
:1038700045DE2AEF1BF03EDE1AEF1BF0F3CFE6FF2A
:10388000F4CFE6FF12003ADEC3EF1AF0E552E5523C
:10389000E552E552120093DECDD8E7D83EEF1DF099
:1038A000E926000EEA2212006BDDC1DD2DDE010EDD
:1038B000F3181200DECFE6FFDDCFE6FF1200BEDE1A
:1038C000E8EC58F01C6E0E0EE15E1C5078DE020E25
:1038D0001200E66EEAEC68F019EF19F0E96EFF0EDF
:1038E000DA20EA6E2BEF19F0D0DC040EE12612008C
:1038F000E66E030E1DEF19F0E552E7CFD9FF120077
:10390000F3CFDEFFF4CFDDFF1200E8DEEC0E08DFC0
:1039100067DE50EF1BF0E66EE668C1DC09DF5BEFA7
:1039200019F006EC58F0B6EF19F014C0E6FF15C018
:10393000E6FF12000A0EE66EE66A120055EC50F041
:10394000E552E552E5520AEF1BF034DE2C0E24DE80
:1039500028EF19F07CDE0CDFA5DCF4101200E8DEA5
:1039600033DF68DE020E12008DD811EF1BF09DECE4
:1039700066F046EF1DF00CDE36DDDAEF1AF042DDC0
:10398000B9DE24EF1BF00FDE1CEC14F0BBEF19F0D6
:1039900087DE29DF94EF1BF0A2DC44DC3FEF14F05C
:1039A000A3DD40DC2FEF1AF0F90EDBCFE6FFFA0EB5
:1039B000DBCFE6FF1200E552E55219EF19F041DCCA
:1039C000ADEF19F02FDC5DEF1BF04BDE83EF19F04C
:1039D000E66EE66884EF1AF08DDD94EF1BF08ADD69
:1039E000F6EF1BF0F3CF16F0F4CF17F01200F3CF81
:1039F000EEFF15C0EDFF1200200EE66E030EE66E20
:103A000067EC56F016DC89DE140EE66E270EF5DE46
:103A100036DE43EF1CF00EEC19F001DF130E40DF31
:103A2000010EEF6E020E43EF1CF0E66E010EE9DEB2
:103A300091EF1CF012EC19F0CCEC3AF002EF19F017
:103A4000E66A280EE66E250E01EF1CF0DDDE84EF3F
:103A50001AF063DE020EE66E260EFDEF1BF0020E7C
:103A6000DEDE020E1DDF020E1200020E7EEF1AF0E5
:103A7000E66E440EE66E250EFDEF1BF04BEC3BF0C0
:103A8000B6EF19F0E66EE66A74EF1AF019EC19F069
:103A900028EF19F00EEC19F043EF1CF0ECDEFAEF12
:083AA0001BF0C3DE6EEF1BF00A
:083AA8000101F7510AE10301DD
:103AB000030ED46F8C0ED26FC10ED36F0101010EB5
:103AC000F76FD00E146E030E7EEF23F00101F85154
:103AD0000AE10301010ED96FA70ED76FC10ED86F8F
:103AE0000101010EF86FD50E146E030E7EEF23F068
:103AF0000101F9510AE10301010EDE6FB00EDC6F26
:103B0000C10EDD6F0101010EF96FDA0E146E030EA6
:103B10007EEF23F00101FA510AE10301010EE36F88
:103B2000B90EE16FC10EE26F0101010EFA6FDF0EF7
:103B3000146E030E7EEF23F00101FB510AE1030135
:103B4000010EE86FC20EE66FC10EE76F0101010EB4
:103B5000FB6FE40E146E030E7EEF23F00101FC51A7
:103B60000AE103010B0EED6FCB0EEB6FC10EEC6F94
:103B70000101010EFC6FE90E146E030E7EEF23F0BF
:103B80000101FD510AE10301060EF26F2E0EF06FE6
:103B9000C20EF16F0101010EFD6FEE0E146E030EE9
:103BA0007EEF23F00101FE510AE10301010EF76FE0
:103BB000640EF56FC20EF66F0101010EFE6FF30E7B
:103BC000146E030E7EEF23F00101FF510AE10301A1
:103BD000100EFC6F6D0EFA6FC20EFB6F0101010E2D
:103BE000FF6FF80E146E030E7EEF23F012EC25F03B
:103BF000090E98EC24F0140E98EC24F0120E10EC40
:103C000023F090EC23F049EF23F015EC25F0070E9C
:103C1000E66E040E0BEC23F006EC58F0E5EC23F016
:103C2000A9EC24F036EC23F0CCEC3AF0E552E55266
:103C3000C4EC24F05CEC24F075EC24F04BEC3BF08D
:103C4000E5EC23F075EC24F0FB0EDBCFE6FFFC0E79
:103C5000AAEC23F0FDEC22F01E0EDEEC24F00008AE
:103C600006E2FDEC22F01E0E10EC23F0EF0624EC31
:103C700024F0140E10EC23F0EE2AEF22020EE15C89
:103C800002E2E16AE552E16E49EF23F0D9CFE6FFA7
:103C9000E1CFD9FFFD0EDBCFE9FFFE0EDBCFEAFF60
:103CA000100EE926000EEA22EECF14F0EFCF15F049
:103CB00014C0E6FF15C0E6FFFD0EDBCFE6FFFE0EEB
:103CC000DBCFE6FFDBEC3AF0E552E552E552E7CF19
:103CD00015F0E552E7CF14F006C016F007C017F054
:103CE00008C018F009C019F006C0E6FF07C0E6FFDB
:103CF00008C0E6FF09C0E6FFFB0EDBCFE6FFFC0EC7
:103D0000DBCFE6FFFD0EDBCFE6FFFE0EDBCFE6FFEF
:103D100004D015C0FAFF1450F96EFBDF1A6E080EBE
:103D2000E15E1A50E552E7CFD9FF120044EC23F0D0
:103D30000A0EE66EE66A0CEC24F0CDEC24F006ECFC
:103D400058F0166E060EE15E165019EC25F0EFECF9
:103D500024F0F90EDBCFE6FFFA0EAAEC23F049EFD0
:103D600023F01CEC24F0050E3DEC23F0AFDE65ECF7
:103D700024F002E2E16AE552E16E49EF23F01CEC27
:103D800024F0080E3DEC23F0B3DE65EC24F002E2F3
:103D9000E16AE552E16E49EF23F01CEC24F00C0ED1
:103DA0003DEC23F0B7DE65EC24F002E2E16AE55277
:103DB000E16E49EF23F01CEC24F0140E3DEC23F0EF
:103DC000BBDE65EC24F002E2E16AE552E16E49EF08
:103DD00023F044EC23F0060EE126FD0EDBCF08F0C5
:103DE000FE0EDBCF09F0020E08C0DBFF030E09C098
:103DF000DBFF040E9BEC23F0060EE66EEAEC68F0A7
:103E00004DEC23F086EC23F055EC23F06DEC68F0DC
:103E100052EC24F0010EE66E6DEC23F09FDE2AECEE
:103E200023F0040EF3CFDBFF050E82EC23F0D7EC7A
:103E300023F082EC24F0D7EC23F01EEC25F0060EE4
:103E4000E15C02E2E16AE552E16E49EF23F044EC05
:103E500023F05CEC23F0040FE96EDACFEAFF0A0EE0
:103E6000EE5E000EED5AD950C2EC23F0D3EC24F0F4
:103E7000040EDADB070EFBEC23F03FEC24F0040E1B
:103E8000D3DB090EFBEC23F0060EE15C02E2E16AF3
:103E9000E552E16E49EF23F01CEC24F0040EE66ECF
:103EA000010EE66EF90EF7EC24F0080EF4EC23F0A8
:103EB000D1DBAADB09EC24F0F4EC24F0C8DF146EAB
:103EC000080EE15E1450020EE15C02E2E16AE55286
:103ED000E16EDFD3D9DBF0DBC2EC23F0D950040F65
:103EE000E96EDACFEAFF050EEE5E000EED5AD3EC76
:103EF00024F0030E99DB060EFBEC23F03FEC24F0DC
:103F0000030E92DB0A0EFBEC23F009EC24F0F4EC38
:103F100024F0C2DF146E080EE15E1450060EE15C60
:103F200002E2E16AE552E16EB4D3AEDB040EE126B3
:103F30009BEC23F0FA0EE66E42EC63F0AEDBE6DBC0
:103F40000CEC24F026EC25F0AEEC24F0030E0D6E04
:103F50000E6A16C008F017C009F0A9EC69F008C095
:103F600016F009C017F008C0E6FF09C0E6FF90ECA4
:103F700042F052EC24F0E66AB0DB14DE6BDB020E9A
:103F8000F3CFDBFF030EBEDB90DB82EC24F08DDB96
:103F90001EEC25F024EC24F026EC25F0EE2AEF228E
:103FA000040EE15C02E2E16AE552E16E72D36CDB81
:103FB0007AEC24F0EF50020A5FE0030A34E0010AD1
:103FC0006CE13BEC24F0EF50030A21E0010A16E01B
:103FD000030A0BE0010A1BE10FEC24F0620EEE6E07
:103FE0003D0E1FEC24F0090E1AD00FEC24F07E0ECB
:103FF000EE6E3D0E1FEC24F0070E27D00FEC24F0E0
:104000009A0EEE6E3D0E1FEC24F0060E08D00FEC5B
:1040100024F0B60EEE6E3D0E1FEC24F0040E30ECD4
:1040200024F0010E39D03BEC24F0010EDEEC24F03C
:10403000020A19E0030A0DE0010A15E1F0DB4E0E59
:10404000EE6E3E0E1FEC24F00A0E30EC24F0020E51
:1040500023D0E5DB980EEE6E3E0EF1DB050E30EC64
:1040600024F0030E19D0DBDBD40EEE6E3E0EE7DB40
:10407000020EF6DB040E10D03BEC24F0020EDEEC58
:1040800024F0010A06E0010A04E1E1EC24F01C0E30
:1040900003D0E1EC24F0140EEF6EFBD2F5DA0A0E39
:1040A000E12666EC4FF09CEC24F057EC4FF0040E48
:1040B000F3CFDBFF050EF4CFDBFF45DB030EDEECB9
:1040C00024F00BE07AEC24F0EF2AEF50030803E130
:1040D0007AEC24F0EF6ACADA7DDB35DBEE52EF5082
:1040E00012E06DEC24F0EFCF14F0060E145C17E232
:1040F00029EC25F082DA220E93DAEFCF14F0EDDB13
:104100001450EF260BD0E9DBEF50000808E275DA17
:10411000230E86DAEF0603E1E0DBEF06B8DB13DB04
:10412000EF5026E06ADA1F0EDEEC24F0000826E2EB
:10413000E5DBEF5023E173DB080EEECFDBFF090E6A
:10414000EDCFDBFF6CDB2A0EEE6E3F0EED6E29EC41
:1041500025F065DB080EDBCFEEFF090EDBCFEDFFB0
:104160004CDA1F0E5DDAEF06C9DB320EEF6E06D0B9
:10417000C5DBEF50000802E2C1DBEF0664DA060E91
:10418000DEEC24F01CE048DBEE06ED5A30DBE8DA2A
:1041900004E7FB0E145CFF0E155858E2E9EC24F01E
:1041A000D880155004E7F60E145CFF0E155804E293
:1041B0001EDBF60EEE6EED6859DA84D945D043DA8F
:1041C000070EDEEC24F01AE027DBEE2AED220FDBEF
:1041D000DEDA3CE214500508000E155437E2F9DB34
:1041E000153409E214500A08000E155404E2FFDAEF
:1041F0000A0EEE6EED6A3ADA69D926D0F8DA78DA84
:104200000001800E151404E0F2DAEE2AEF2208D045
:10421000E0DB153405E2E3DA03E2E9DAEE06EF5A11
:10422000D8DB153404E31450FB08FF0E15540EE2DE
:10423000DEDA94DBD890175004E6050E165C000E0B
:10424000175804E213DA46D9E552E552FCD9040EB8
:10425000B5DB0DE088DB84DA04E7F30E145CFF0EB7
:10426000155829E280DBF30EEE6EED6824D0EBD911
:10427000050EA4DB0DE077DB8ADA1DE214500D0891
:10428000000E155418E26FDB0D0EEE6EED6A13D0C2
:10429000AEDA2EDA0001800E171404E064DBEE2A99
:1042A000EF2209D060DB37DA153405E298DA03E251
:1042B0005ADBEE06EF5A8DDB040E58DB0850EE2673
:1042C0001550ED2250DB27DA030E50DBBFDB085020
:1042D000EE261550ED22A0DA0BDA0001800E15143F
:1042E00004E09ADAEE6AED6A18D0C0D9B1EC3AF07F
:1042F000E552E552060E82DB52DA0FE21450A008B6
:10430000000E15540AE2060EDB50146E156AA00E5C
:104310007CDB14C0EEFF15C0EDFF7EDAE9D90001A9
:10432000800E171405E078DA91DBEE6AED6A1AD098
:104330009DD9B4EC3AF0E552E552070E5FDB86DB1F
:104340002EDA10E21450F508000E15540BE2070E99
:10435000DB50146E156AF50E58DB78DB14C0EEFFE7
:1043600015C0EDFF76DAD9DA1FEC60F022DB000E23
:10437000146E0A0EE15C02E2E16AE552E16E14504D
:1043800088D150DB0B0E4CD9060EEF6E000E4BDAC7
:104390002EDAEFD9A2DAEF6A7ADA68D93FEC3BF08D
:1043A000E552E55279EC3BF0EFDA86DA5FD955EC6D
:1043B0003BF00BDA6ED168D9040EE126250EE66ECD
:1043C0003EEC6DF0E552B8DA3ED9EC0EEE6E3B0EE7
:1043D000ED6E39D93BDBFB0EDBCFEEFFFC0EDBCF06
:1043E000EEFFFD0EDBCFEEFFFE0EDBCFEEFF2BD997
:1043F0000C0E16D90A0EEE6E3C0EED6E24D90E0E82
:104400000FD98C0EEE6E3C0EED6E9C0EE66E400EDD
:10441000E66E57EC60F0E552E5525CDA090EDCDA44
:1044200054EC1DF057DA060ED7DA3FD93FEC3BF0DB
:10443000E552E5523AD9F3EC43F0E552E5524ADA57
:10444000140ECADAF0D9FFD8160EEAD892D9FBD8E2
:10445000210EE6D8EF6AF7D81E0EE2D8030EEF6EF3
:10446000F2D8200EDDD8320EEF6EEDD81F0ED8D860
:10447000030EEF6E88EC6BF02DDA120EADDAE3D896
:104480001B0ECED8020E4EDA010E4CDAEF6EDBD8E0
:104490001A0EC6D8EF6A09D99DD907D972DFE5523D
:1044A000E552020EDBCF14F0030EDBCF15F014C083
:1044B000F3FF15C0F4FF040EE15C02E2E16AE5528D
:1044C000E16EE7D00EDA020EEF6EE3D00ADA010EEB
:1044D000EF6EDFD006DAEF6ADCD0D6D8CCD9E9CFE0
:1044E00014F0EACF15F006DAEF500F011424E96E4C
:1044F000000E1520EA6EEF2AB9D86CD9CAD095DA29
:10450000FB0EDBCFE9FFFC0EDBCFEAFF120E56DA23
:10451000070DF350DE6EDD6AFA0EDB500DE0D9CFE9
:10452000E9FFDACFEAFF010E0F0B06E0EC52D8905C
:10453000ED32EF32E806FAE187D9100E71D8EE2A93
:10454000EF22D3D993D81AD834DA020EE15C02E212
:10455000E16AE552E16E9DD097D8FC0EDB50146EF7
:10456000156A72D9160EEFD9FC0EDBCFE6FF7ED8A6
:1045700043EC65F0E552E552E5528BD085D81ED963
:10458000153402E22CD919E35FD9120E49D8C3D8E9
:10459000FB0EDBCF16F0FC0EDBCF17F0166C171EF0
:1045A000000E17221650145C1750155806E24CD90D
:1045B000120E36D8EE6AED6A04D000D945D9120E33
:1045C000C2D967D061D852D848EC3AF0E552E552EA
:1045D000A4D948EC3AF0E552E5525BD055D84BD916
:1045E00035DAEFCF15F047D9010E1AD8EFCF14F016
:1045F00042D9EF50142415244CD0FD0EDBCFE9FF37
:10460000FE0EDBCFEAFF1200A4D903D96ED97AD906
:104610006CD91EEF25F0E66E000E05D95CEF24F094
:10462000E926000EEA221200E66E070EE66ED95069
:1046300008DAB3D9EED87AEC3DF01A6E090EE15ED5
:104640001A5035EF24F0020EDBCFE9FF030EDBCF6B
:10465000EAFF1200F3CF1AF0F4CF1BF0C0D949ECF7
:1046600062F01C6E0D0EE15E1C501200FD0EDBCFE1
:10467000E6FFFE0EDBCFE6FF1200E66E010EE66EF1
:10468000F70EB5D9E66A1200D9CFE6FFE1CFD9FF20
:104690001200E552E7CFD9FF1200E552E552C9D921
:1046A000DECFE9FFDDCFEAFF1200020EDBCFE6FF2F
:1046B000030EDBCFE6FF1200060EE126ACD9020E98
:1046C000EECFDBFF030EEECFDBFF040EEECFDBFF02
:1046D000050EEECFDBFFD9501200020EE66E05D9B3
:1046E00055EC50F0E552E552E552BFD8E66A1200AB
:1046F000EECF14F0EECF15F0AEEF24F014C0F3FFC0
:10470000F46E1200F4CFDBFF09EF24F0F3CFEEFFDD
:1047100015C0EDFF1200EECF14F0EFCF15F0120030
:104720009DD9E6EC6AF0E552E5521200EE50EFCF6B
:10473000EAFFE96E1200E66E3EEC6DF0E55209D933
:10474000010EE66E1200040EDBCFE9FF050EDBCF93
:10475000EAFF1200DBCFE6FF60EC26F0D9EF24F091
:10476000EE06ED5AEECF14F0EDCF15F0D8801550CF
:10477000120006C0EEFF15C0EEFF16C0EEFF17C018
:10478000EEFF12005ED9EE06000EED5A1200EE2A80
:10479000ED22EECF14F0EDCF15F0153412001650C7
:1047A000EE24146E1750EE20156EE8341200040E3D
:1047B000DBCFE6FF050EDBCFE6FF1200FB0EDBCF03
:1047C00014F0FC0EDBCF15F01200186E060EE15E41
:1047D00018501200D7EC1FF0E552E55212001450A9
:1047E0000008000E15541200E66EE4EF1DF005DF20
:1047F000160E10EF23F0F8DFF3CF1BF0F4CF1CF010
:10480000EED849EC62F01D6E0D0EE15E1D5004EF16
:1048100023F001D9CDEF24F0F0DE26EF25F0EDDE18
:10482000100E10EF23F0E66EE66AE66EE66A13EC11
:104830006DF0BFD8C4EF24F0F8D8D3EF24F0ED6EBC
:10484000DCDE240E10EF23F0D8DE120EE9DE96EF48
:1048500023F0FB0EDBCFE6FFFC0EDBCFE6FF120002
:10486000EF6ECBDE220E10EF23F0F3CF18F0F4CF73
:1048700019F0EFEF24F0C1DE1B0E10EF23F0D9503A
:10488000E0D8020EEE26000EED22D3EF24F0B5DEC6
:10489000240E94D8E66EB1DE230EC2DEE552E75058
:1048A000EF6E1200FADE020E97D8010EE66EA80E29
:1048B000E66EC50E0BEF23F006C0E6FF07C0E6FF6D
:1048C00008C0E6FF09C0E6FF1200C4DE9DDE020E4E
:1048D000E15C1200AED823EF23F08FDE210E10EF43
:1048E00023F0A0D8080E10EF23F0DECFE6FFDDCFD7
:1048F000E6FF120082DE1A0E10EF23F07EDE200E9D
:1049000010EF23F055EC3BF0146E060EE15E1450F0
:10491000120068EC26F0D9EF24F06FDE140E80DE72
:104920002EEF25F07DDEEF6A8EDE1B0E10EF23F0FA
:1049300077DEF6DEFDEF22F0020EF3CFDBFF030E93
:10494000F4CFDBFF12006CDE1450EE261550ED2282
:104950001200F3CFDEFFF4CFDDFF1200EECF16F032
:10496000EFCF17F0120043DF26EF25F00D6E0E6A31
:1049700014C008F015C009F0A9EC69F008C014F0E3
:1049800009C015F00CEF24F006C014F007C015F0B4
:1049900008C016F009C017F01200EECFE6FFEECF08
:1049A000E6FF2EEF25F0E66A2C0EE66E3D0E0BEFCD
:1049B00023F0E552E552E552E552120031DEEF50A8
:1049C00012002DDFD20EEE6E3D0E39DF050E30EFF8
:1049D00024F00DDF8BEF23F023DE86EF23F0F3CFFF
:1049E000E6FFF4CFE6FF120034DF36EF23F0E66E89
:1049F00042EC63F0E552E55235EF24F0F3CFDBFFF4
:104A0000DB50166E176A0CEF24F0D8801456000E97
:104A100015560CEF24F0D950F70FE96EFF0EDA208F
:104A2000EA6E120031DEFDEF22F02EDE020EE126EC
:104A30001200F3CF14F0F4CF15F012000ADF89EF63
:104A400024F0020FE96EDACFEAFF1200020E10EF37
:104A500023F0CADF5FEC65F0D9EF24F0EECFE6FF7C
:064A6000EFCFE6FF12009B
:0A4A6600C3DB020EE12666EC4FF000
:104A7000E2DB1DEC2AF0EE52EF500EE01DEC2AF0C6
:104A8000EF500AE01DEC2AF0030EC3DB05E0020143
:104A9000FF0705E1010E04D00201190EFF6F000EA1
:104AA000146E020EE15C02E2E16AE552E16E14501E
:104AB000A3D39DDB020EE126D4EC29F09CEC29F077
:104AC00003E073EC29F0FAD7ADEC29F09CEC29F067
:104AD00003E073EC29F0FAD7D8EC29F09CEC29F02C
:104AE00003E073EC29F0FAD7DCEC29F09CEC29F018
:104AF00002E0F9DBFBD7E0EC29F09CEC29F002E0C6
:104B0000F2DBFBD726DB0D0E2DDB9CEC29F002E05F
:104B1000EADBFBD7E4EC29F09CEC29F002E0E3DBD4
:104B2000FBD717DB030E19EC2AF0050E19EC2AF05F
:104B3000070E19EC2AF0090E19EC2AF00B0E19ECED
:104B40002AF00D0E19EC2AF00F0E19EC2AF01B0EAC
:104B500019EC2AF0150E19EC2AF0170E19EC2AF0B0
:104B6000190E19EC2AF01D0EFBDA3ADBE8EC29F0FD
:104B700037DBACDB35DBEDDA130EF2DA0CEC6BF085
:104B8000E552E552020EE15C02E2E16AE552E16EB5
:104B900033D32DDB060EE126280EE66E3EEC6DF0DB
:104BA000E5525ADBF6DAB20EEE6E4A0EED6E44ECCA
:104BB0002AF0030EA2DBA1DB070E9FDB090E9DDBB3
:104BC0000B0E9BDB0D0E99DB0F0EFDDAE2DA130EF6
:104BD000AFDBFB0EDBCFEEFFFC0EDBCFEDFFD9DA58
:104BE000110EA6DBFD0EDBCFEEFFFE0EDBCFEDFFE1
:104BF00079EC3BF0BADBB9DA55EC3BF0186E060EF7
:104C0000E15E1850E60EE66EE66A820E53DB92EC29
:104C10005AF082DB150ED7DAE60EE66EE66A010E72
:104C200049DBB6EC5EF078DB170ECDDA030EE66EEC
:104C3000E66A9B0E3FDB51EC5FF06EDB190EC3DAC8
:104C4000DC0EE66EE66A9A0E35DB06EC5CF064DBA1
:104C50001B0EB9DADC0EE66EE66A010E2BDB90EC79
:104C60004BF05ADB1D0EAFDA94DA270EC1DB1F0EB4
:104C7000EB6A200EEB6A8DDA210ED9DA8ADA220E7F
:104C8000B7DB230EB5DB250ED2DA83DA260EB0DBD6
:104C9000020ECDDA040EDBCF14F0050EDBCF15F0DB
:104CA00014C0F3FF15C0F4FF060EE15C02E2E16AF6
:104CB000E552E16EA1D29BDA4CDA020EAADA9CD25E
:104CC00032DB030E1DD3D5DB0E0E24DB050E18D30D
:104CD000D0DB040E1FDB070E13D3CBDB0C0E1ADB6D
:104CE000090E0ED320DB0B0E0BD31DDB0D0E08D3EC
:104CF000C0DB080E0FDB0F0E03D3D2DA030E05D391
:104D0000CFDA050E02D3CCDA070EFFD2C9DA090ECC
:104D1000FCD2C6DA0B0EF9D2C3DA0D0EF6D2C0DA27
:104D20000F0EF3D264DA050EE12613DA64DBEDEC44
:104D30004DF00FDB0D0E16DA33DA02E01DDAFCD788
:104D400043DB2EDA02E018DAFCD736DB29DA02E0A0
:104D500013DAFCD702DB24DA02E00EDAFCD728DB18
:104D60001FDA02E009DAFCD787DB09E1F2D9210E6C
:104D700050DA05E0ABDAE2EC22F0E552E55214DB62
:104D80000FDA02E0F9D9FCD71BDB0ADA02E0F4D92A
:104D9000FCD7E7DA25E1DDD9170E7BDB150E79DBD1
:104DA000190EDED99FEC5FF0D4DA1B0ED9D954EC82
:104DB0005CF0CFDA1D0ED4D923EC4BF0E552E5526E
:104DC000E66A020EE66EE66A69DBCFDA88DA120E70
:104DD000C7D96DEC38F0186E070EE15E185005D09B
:104DE000F7DAE3EC31F0E552E552050EE15C02E260
:104DF000E16AE552E16E00D2FAD9040EE126A9D9A2
:104E0000250E07DA38E0B1D928DB140EA9D92DDB3D
:104E1000A0D9260E42DAEF50020831E157DAB4EC9D
:104E20003AF0E552E552F8D9F00ED8801456000E4B
:104E300015560A0E145E000E155A020E14C0DBFF42
:104E4000030E15C0DBFF09DB33DB32DBEE06ED5A68
:104E5000EECF14F0EDCF15F0020EDB50141807E181
:104E6000030EDB50151803E174D9250EDAD971D978
:104E7000260ED7D904D000DB02E1ECDAF6DAACDAA0
:104E80001BE067D9230E09DAEF0416E162D9210E7F
:104E9000C0D902E0000E01D0010EE66E5AD9210EF3
:104EA00047DAE552E750EF6E79DAF7D9EF50640848
:104EB00003E14FD9220EB5D954DA19E089DA2FEC83
:104EC00031F0B3DA14E045D91F0E4CD90D0E48D994
:104ED000CCEC2FF0E552E5529FD901DA120E28DA18
:104EE000F350EE261550ED2234D9020E9AD9E3DAAA
:104EF000170E45DA150E43DA7EDAB7DA32DA06E152
:104F0000DADA130E2DD98DEC67F03ED94DDA55D98A
:104F100060D908E0DFD904E1EAD9EFDE06DAF8D794
:104F20008CDAF5D71ADA49D954D908E0D3D904E193
:104F3000DED9E6DEFAD9F8D780DAF5D739DA3DD905
:104F400048D908E0C7D904E1D2D9DDDEEED9F8D7D7
:104F500074DAF5D731DA31D93CD908E0BBD904E1AC
:104F6000C6D9D4DEE2D9F8D768DAF5D72DDA25D953
:104F700030D908E0AFD904E1BAD9D1DED6D9F8D713
:104F80005CDAF5D71DDA19D924D908E0A3D904E1F0
:104F9000AED9BFDECAD9F8D750DAF5D7DAD80D0EB8
:104FA000E1D80BD916D908E095D904E1A0D9B4DE2F
:104FB000BCD9F8D742DAF5D7D4D930E154DD0009AD
:104FC00001E07CDA59DA2AE0C4D8030EC9D895EC9E
:104FD00048F02BDA23E041DA1E0E1BD90EE1B9D8D6
:104FE000270E25D973D929EC30F0E552E552F4CFDC
:104FF00015F0AFD81F0EE7D811D068D9C1EC21F059
:10500000A8D9220E14D9CAD90CD9A3D8210E0FD9E8
:10501000A0D8250E0CD99DD8260E03D9040EE15C2C
:1050200002E2E16AE552E16EE7D0E1D8070EE1263F
:1050300094D93EDA020EEECFDBFF030EEDCFDBFF9D
:1050400007D930E0060EDB6A84D8070E89D8CDD8A0
:105050006DEC51F06AD9BDD81BE041D9060ED5D907
:10506000AAD801D9CDD9C1D843EC65F0E552DDD934
:1050700008E0010EF36E060EF3CFDBFF76D8B5D84D
:1050800089D9D2D80E0EC5D803E131D93CDE7CD8FF
:10509000060EDB5005E0E66A07DA51D9EBD8D0D727
:1050A00072D9C7D7E9D94EE154D8090EDAD93DD91A
:1050B00090D811E0CFD97FD8D6D88ED905E1A0D924
:1050C00005D9E6D801E0FAD9AFD80E0EA2D803E18F
:1050D0000ED91CDE59D83DD80F0EC3D955D8BCD82F
:1050E000D950040F7DD912E0B5D953D8C8D91AECDC
:1050F00066F0146E060EE15E1450040EDBCFE6FF80
:10510000050EDBCFE6FF31D80ADE3ED822D8050EE9
:10511000A8D93AD8AFD89CD815E035D981D9130E83
:1051200078D810E159D906E1020EE66ECFD8B0D892
:1051300001E0C4D9010EE66EB7D9D1D8180E65D9F1
:1051400029D9FDD8070EE15C02E2E16AE552E16E81
:1051500053D0FD0EDBCFE9FFFE0EDBCFEAFF1200DE
:10516000E7D844D1E5D810EF2AF0FD0EDBCFE6FFFB
:10517000FE0EDBCFE6FF12004CD981D948EC3AF0A5
:10518000E552E55209EF2AF0E552E552E552E552C3
:105190001200040EDBCFE9FF050EDBCFEAFF1200A1
:1051A00087D9030EEECFDBFF040EEDCFDBFFD95026
:1051B000030FF0EF29F041D919D17AD9EECFDEFFF4
:1051C000EDCFDDFF1200B4D8F3CFEEFF15C0EDFF39
:1051D0001200D9CFE9FFDACFEAFFEE50ED1012004E
:1051E000E6EC6AF0E552E5521200CDD8FFD0D9CFF7
:1051F000E6FFE1CFD9FF1200E552E7CFD9FF120059
:1052000006C0E6FF07C0E6FF08C0E6FF09C0E6FFEC
:1052100012008ED8EF501200F3CF14F0F4CF15F037
:10522000120086D8EF6A120008D910EF2AF080D851
:10523000010EEF6E1200F3CFDEFFF4CFDDFF1200A0
:1052400077D8EE2AEF22120057EC65F015EF2AF01E
:10525000D950020FF0EF29F0040EF3CFDBFF050E5B
:10526000F4CFDBFF1200A2EC62F0146E060EE15EDA
:1052700014501200020EF3CFDBFF030EF4CFDBFF5E
:1052800012007FEC22F0146E050EE15E1450120045
:10529000ACEC22F0E55215EF2AF04AD8EF2A1200C2
:1052A000A6DFFB0EDBCFE9FFFC0EDBCFEAFFE7D882
:1052B00097DFC8D0F3D806C016F007C017F008C0B3
:1052C00018F009C019F09CDFB5EF28F042DF110E8D
:1052D000B0EF28F04ADF6FDFC8D801081200BDD850
:1052E000120EB2EF28F067DF7BDF1DEF2AF0DECF72
:1052F000E6FFDDCFE6FFB5EF28F065DF44EF2AF0EB
:105300002FDF10EC48F040DF77D72ADF29EC48F098
:105310003BDF72D795DF96D01A6E060EE15E1A500B
:105320007BDFC9EF28F063DF8DD02EDF1BEF29F084
:10533000E926000EEA22120040DFE9EF28F0020E13
:10534000DBCFE6FF030EDBCFE6FF0FDFD9DCC4EFD8
:1053500028F0E552E552A9EF28F0FBDE050EB2EF8A
:1053600028F0F7DE270E09EF29F006C014F007C079
:1053700015F008C016F009C017F000EF29F0F0DEB4
:1053800074D85BEF2AF0020EDBCFE9FF030EDBCF10
:10539000EAFF120001EC65F0C4EF28F0DADE230E1C
:1053A00040DFD7DE240E1200D4DE030EB2EF28F069
:1053B000D0DE070EB2EF28F0CCDE090EB2EF28F0F7
:1053C000C8DE0B0EB2EF28F0C4DE0F0EB2EF28F0ED
:1053D000C0DE1F0EB0EF28F0BCDE220E09EF29F070
:1053E000E96EDACFEAFFEE50ED1012003FEF2AF03F
:1053F00018DFC9EF28F0130EB5DE020EB0EF28F06B
:1054000013DF0B0E06DFE66E12001ADFAEDEF5EFDD
:1054100028F0030EDBCFE9FF040EDBCFEAFF12001A
:10542000EE50EFCFEAFFE96E1200E552E5520009B7
:10543000120096DED5DEA9EF28F0DECFE9FFDDCF42
:10544000EAFF1200FB0EDBCFE6FFFC0EDBCFE6FF30
:10545000A9EF28F08ADE66EF29F07BDE110EB2EFAD
:1054600028F07EDE33DF6DEF51F01FEC60F0C4EF0B
:1054700028F0BDDE6FEF29F029DF24EF29F0EECF11
:10548000E6FFEFCFE6FF1200F4EC47F0C5DEC9EF10
:1054900028F066DE48EC3AF0A9EF29F0E66EE66AFD
:1054A00013EC6DF0C4EF28F0A0DE10DF41EF29F01F
:1054B000020E98EF29F059DEA9EF28F0CBDFCAEFF2
:0254C00029F0D1
:0E54C2000F0172510AE10F01010E276FE60E75
:1054D000256FDC0E266F0F01010E726F230E146E06
:1054E0000F0E14C0F3FFF46E12000F0173510AE1A6
:1054F0000F01010E2C6FEF0E2A6FDC0E2B6F0F01C8
:10550000010E736F280E146E0F0E14C0F3FFF46EAD
:10551000120092EC2EF0020EE12601EC2FF07EEC50
:105520002FF0ABEC2EF00BE0FCEC2EF070EC2FF03B
:105530004CEC6DF0E552E552FCEC2EF0F0D708ECA7
:105540002FF0E6EC6AF0E552E552020EE15C02E271
:10555000E16AE552E2D3E6DB050EE126DF6A01EC03
:105560002FF0020ECFDB010EEECFDBFF020EEDCFF0
:10557000DBFFD950010FEAEC2EF022E00FEC2FF008
:10558000030EEECFDBFF040EEDCFDBFFDFCFE6FF38
:1055900075EC2FF0F0EC2EF05FEC2FF0030EDF2413
:1055A000E66EE66A020EE66EE66A030EF0EC2EF098
:1055B000A9DB5FEC2FF0050EDF260FEC2FF0D2D722
:1055C000050EE15C02E2E16AE552A7D3ABDB060E11
:1055D000E126F4EC47F016EC2FF0DF6A010EDB6AEF
:1055E0000A0EDF5C36E2F6EC2EF01DEC2FF0010E19
:1055F000DBCFE6FF75EC2FF09ADB64EC2FF097DB46
:1056000081EC2FF0010EDB50030FE66EE66A020E0E
:10561000E66EE66A8CDB85EC2FF064EC2FF0040E6E
:10562000DBCFE6FF050EDBCFE6FF020EDBCFE6FFAA
:10563000030EDBCFE6FF24EC2FF0DF2A050E146EFD
:10564000010EDBCFE7FF1450E726010EE7CFDBFFAB
:10565000C7D7020EDBCF14F0030EDBCF15F014C05A
:10566000F3FF15C0F4FF060EE15C02E2E16AE552C9
:1056700054D358DB160EE12624DFD8DB36DFDDDB22
:10568000D950060FE96EDACFEAFF5F0EEE6EEE6AD2
:10569000080EDB6A8DDBA80EE66E1A0EE66E85EC50
:1056A0004DF0E552E552120EF3CFDBFF130EF4CFAF
:1056B000DBFF140EDB6A150EDB6A010EE66E5CEC96
:1056C00034F0E5520CEC36F021DB7EEC2FF0EF509D
:1056D00001E02ED10A0EE66E9CEC63F0E55268DB29
:1056E00070DB5BE0B5DBEE50EFCFEAFFE96E166EE4
:1056F000EACF17F0080EDB5000011624146E000EDE
:10570000EA20156E090E14C0DBFF0A0E15C0DBFF80
:10571000FDDAEE52EF500CE0080EDB5006E1020E0F
:10572000F36E080EF3CFDBFF4ED0080EDB064BD036
:10573000EDDAEF5008E0080EDB2ADB50020843E206
:10574000080EDB6A40D0E2DA060EDCDAEF500EE03B
:10575000B9DAEF50410813E0B5DAEF50200803E161
:10576000B1DA5A0E15D0AEDAEF062DD0CFDA070E29
:10577000C9DAEF5028E0A6DAEF505A0803E1A2DABE
:10578000200E06D09FDAEF50200804E19BDA410E8C
:10579000EF6E19D097DAEF2A16D0D950140FE96EB0
:1057A000DACFEAFF0A0EEE26000EED22140EDBCF52
:1057B00014F0150EDBCF15F0980E145C3A0E155848
:1057C00002E3010EBBD0E2DAEDEC4DF0E552E5521A
:1057D000010EE66E000EE66EE66A8CDB40DB8EDBC9
:1057E000C5DAEFDA0AE0010EE66E0F0EE66EE66A43
:1057F0004E0E80DB9CDA82DBB9DA000EE66EE66ADA
:10580000C5DA1FEC60F056DB460EDF6EFD0EDBCF17
:10581000E9FFFE0EDBCFEAFF71DB0C0EEECFDBFF04
:105820000D0EEDCFDBFFD9500C0FD4DA76E0FB0E76
:10583000DBCF14F0FC0EDBCF15F00C0EDB50141890
:1058400003E10D0EDB50151803E00B0EDB6A34D0BC
:10585000010EF36E0B0EF3CFDBFF010EE66EDF04DD
:10586000E66EE66A03DBB2EC38F0E552E552F3CFC0
:105870001CF0F4CF1DF0080EDB501A6E1B6A086E88
:105880001BC009F0F3CF0DF0F4CF0EF0FCEC69F083
:1058900006C018F007C019F0550E1826000E192280
:1058A00018C0E6FF19C0E6FFF9D9E0DA3EEC38F09F
:1058B0001E6E070EE15E1E500C0EDBCFE9FF0D0ED3
:1058C000DBCFEAFF0E0EEECFDBFF0F0EEDCFDBFFDF
:1058D000D4DA550E0FDBD8DAE9CF18F0EACF19F099
:1058E000E9CFE6FFEACFE6FF3EEC38F01A6E070E8E
:1058F000E15E1A50C2DA730EFDDAC6DA06DBF0DAC0
:105900006DEC38F0186E070EE15E1850100EDF26B1
:105910000C0EDBCFE9FF0D0E7DD7D950010FE66EDF
:10592000000EDA20E66E6EEC34F0E552E552CCD68D
:105930002DDAE6EC6AF0E552E552000E146E160E12
:10594000E15C02E2E16AE552A6D2ECD9430EE1261F
:10595000D9CFE9FFDACFEAFFEE6E500EEE6E530EAE
:1059600023DA4C0EEE6E480EEE6E200E1DDA5A0E45
:10597000EE6E430EEE6E200E17DA4A0EEE6E500EED
:10598000EE6E430E11DA450EEE6E4D0EEE6E530EB8
:105990000BDA530EEE6E590EEE6E420E05DA450E20
:1059A000EE6E430EEE6E450EFFD9410EEE6E420EC8
:1059B000EE6E430EF9D9580EEE6E590EEE6E5A0E7B
:1059C000F3D9440EEE6E450EEE6E460EEE6EEE6AA6
:1059D000640EF36E280EF3CFDBFF290EDB6A630E35
:1059E000F36E2A0EF3CFDBFF2B0EDB6A620EF36E33
:1059F0002C0EF3CFDBFF2D0EDB6A610EF36E2E0E45
:105A0000F3CFDBFF2F0EDB6A600EF36E300EF3CFA9
:105A1000DBFF310EDB6A5F0EF36E320EF3CFDBFF7E
:105A2000330EDB6A5E0EF36E340EF3CFDBFF350E02
:105A3000DB6A5D0EF36E360EF3CFDBFF370EDB6AEB
:105A40005C0EF36E380EF3CFDBFF390EDB6A5B0EB4
:105A5000F36E3A0EF3CFDBFF3B0EDB6AF4EC47F05C
:105A60003F0EF3CFDBFF400EF4CFDBFF3C0EDB6AD3
:105A70000A0EF36E3C0EDBCFF4FFF350F45C43E20E
:105A8000B5D9410EF3CFDBFF420EF4CFDBFF56D981
:105A9000F3500F0127D9E552E750EF6E4FD9F328A5
:105AA00021D9010E2FD9E552E750EF6E47D9F350B7
:105AB000020F18D923DAE552E750EF6E0ADA21DA3D
:105AC000D950280F166EDACF17F03C0EDB50020DBE
:105AD0001650F324E96EDA50F420EA6EEECF14F09B
