:020000040000FA
:060000005DEF58F0120054
:06000800B7EF3DF012000D
:06002A00110004B2000009
:10003000610F000001000000FFB100004B0F000045
:1000400005000000FEB10000600F0000010000008C
:10005000FAB10000500F000004000000F9B10000E8
:100060005F0F000001000000F8B100005E0F00000B
:1000700001000000F7B100005D0F0000010000006A
:10008000F6B100005C0F00000100000019B1000093
:1000900000020000DD00000017B10000580F000052
:1000A0000200000015B10000560F00000200000021
:1000B00014B100005B0F00000100000010B100004F
:1000C000FC010000040000000AB10000FA0000007A
:1000D00006000000219E00005A0F000001000000F1
:1000E000956B0000FF0D00000100000008B100004A
:0800F000540F000002000000A3
:0800F800D4EC0CF0140EE1261B
:10010000180E9CEC0DF0A00E1CEC0FF00A0EDB6A32
:10011000F7EC0DF00D0EDB6A0F0E8DEC0EF00E0EEF
:10012000F3CFDBFFFE0EDB5004E143EC0DF06F0E6E
:1001300016D0FE0EDB0404E143EC0DF07E0E0FD072
:10014000FE0EDB50020804E143EC0DF08D0E07D0EB
:10015000FE0EDB5003080AE143EC0DF09C0EC2ECEE
:100160000CF00B0EA7EC0CF0040EDB6ADF6A0A0E33
:10017000DF5C0DE2D950010F7AEC0FF00C0F50EC60
:100180000EF0180EEE26000EED22DF2AF0D7140E28
:10019000E15C02E2E16AE552E16E04EF0FF0D4ECBB
:1001A0000CF0E652DF6A040EDF5C05E2DFCFE6FF0B
:1001B00045EC0EF0F8D7BDEC0EF0DF6A040EDF5C04
:1001C00003E2AEEC0FF0FAD7E55204EF0FF0D4ECF7
:1001D0000CF0610E3AEC0FF0580EA9EC0EF00B0E7D
:1001E00011EC0FF03F0EACEC0CF023EC0FF01B0EFB
:1001F000F36EDB6E1C0EDB6A1F0EA3EC0DF00E0E11
:10020000AAEC0DF0870E6DEC0DF0230E8DEC0EF0C8
:10021000220EF3CFDBFF280EDB6AC20EF36E290E2F
:10022000D9EC0CF02A0EF3CFDBFF2B0EDB6A1B0E92
:1002300074EC0DF01F0EB1EC0DF00E0EB8EC0DF0DD
:10024000870EBFEC0DF0360E8DEC0EF0350EF3CFB1
:10025000DBFF400EF36E3B0EF3CFDBFF9A0EF36E27
:100260003C0EF3CFDBFF020EC6EC0DF0060ECDEC1C
:100270000DF02D0ED4EC0DF0330EDBEC0DF0860EF0
:10028000E2EC0DF0490E8DEC0EF0480EF3CFDBFFE3
:100290004E0EDB6A9E0E31EC0CF01A0E51EC0DF096
:1002A0004F0EE3EC0CF0490E58EC0DF04C0E5FECE9
:1002B0000DF05C0E8DEC0EF05B0EF3CFDBFF010159
:1002C000940E006FAE0E016F020E026F036B0F0EE5
:1002D000066F076B2F0E046F056B0A0E096F0A6B12
:1002E000510E0B6F0C6B0E6B010E0D6F800E66ECDA
:1002F0000DF02E0E196F1A6B2B0E176F186B1B0E4D
:100300001C6F1D6B820E1E6F1F6B010E216F206F05
:10031000F2EC0EF001E097D1010EE66EC7EC56F05C
:10032000E552F40E17EC0CF001E08DD180EC0FF0EB
:10033000FA0E17EC0CF001E086D1E00EC2EC0CF0E6
:100340005E0EB4EC0FF0FA0E17EC0CF001E07BD16E
:10035000C00EC2EC0CF0650EB4EC0FF052EC0FF0D6
:1003600001E071D175EC0CF052EC0FF001E06BD1B3
:10037000DF6A050EDF5C0BE254EC0EF03AEC0DF098
:10038000640E17EC0CF001E05ED1DF2AF2D7DE52EA
:100390001E0EDD6EDF6A050EDF5C11E255EC0FF01C
:1003A00001E051D155EC0FF001E04DD184EC0FF09C
:1003B00001E049D10F0EB8EC0CF0DF2AECD7DE5289
:1003C000140EDD6EDF6A050EDF5C1CE29CEC0FF0A4
:1003D0005C0E65EC0EF013EC0EF0DEEC0CF001E0C0
:1003E00032D113EC0EF0DEEC0CF001E02CD113EC6A
:1003F0000EF04CEC0EF001E026D10F0EB8EC0CF034
:10040000DF2AE1D7DE52960EDD6EDF6A030EDF5C77
:1004100018E255EC0FF001E016D155EC0FF001E0B9
:1004200012D184EC0FF001E00ED13C0E146E010EDF
:10043000DBCFE7FF1450E75E010EE7CFDBFFDF2ADB
:10044000E5D75AEC0EF0DE520A0EDD6EDF6A020EC0
:10045000DF5C11E255EC0FF001E0F5D055EC0FF048
:1004600001E0F1D084EC0FF001E0EDD0280EB8EC03
:100470000CF0DF2AECD7500EF1EC0CF09E0E31ECB4
:100480000CF04B0EE3EC0CF0600EF6EC0CF0350EBD
:10049000046F056B5AEC0EF055EC0FF001E0D3D071
:1004A00055EC0FF001E0CFD084EC0FF001E0CBD0A1
:1004B000280EB8EC0CF0400EF1EC0CF0AE0E31EC66
:1004C0000CF0530EE3EC0CF0600EF6EC0CF05AEC72
:1004D0000EF055EC0FF001E0B6D055EC0FF001E056
:1004E000B2D084EC0FF001E0AED013EC0EF0800E31
:1004F000F1EC0CF0BE0E31EC0CF0610EF6EC0CF0F1
:10050000360E046F056B5AEC0EF0C8EC0FF001E0EC
:100510009AD0C2EC0EF0200E51EC0DF0540EE3EC2C
:100520000CF0480E58EC0DF04B0E5FEC0DF0600E29
:10053000F6EC0CF07DEC0FF0320E17EC0CF001E055
:1005400082D004EC0DF0150E066F076B3E0E046FA3
:10055000056B040E096F0A6B500E0B6F0C6B7DEC74
:100560000FF0DF6A0A0EDF5C10E271EC0FF036EC80
:100570000CF0A0EC0FF067E190EC0FF036EC0CF013
:10058000A0EC0FF060E1DF2AEDD79FEC0CF0DF6A02
:100590001E0EDF5C0CE271EC0FF0D4EC0EF053E1B8
:1005A00090EC0FF0D4EC0EF04EE1DF2AF1D7200EE4
:1005B0008FEC0DF06D0EC7EC0CF0DF6A050EDF5C02
:1005C00011E254EC0EF09FEC0CF0D950150F50ECEA
:1005D0000EF0200EB3EC0EF0320E17EC0CF033E1FF
:1005E000DF2AECD723EC0FF0DF6A050EDF5C0CE2AC
:1005F00054EC0EF09FEC0CF03AEC0DF0320E17ECD0
:100600000CF021E1DF2AF1D7FA0E17EC0CF01BE118
:10061000D950280F08EC0CF0180E01011C6F1D6B4F
:10062000AB0E66EC0DF02E0EB8EC0FF0C8EC0FF030
:100630000AE10101D90E66EC0DF03C0EB8EC0FF0AA
:1006400052EC0FF002E0010E01D0000E146E610EAC
:10065000E15C02E2E16AE552A4EF0CF0D4EC0CF0AC
:10066000610E11EC0DF0800EE6EC0EF0AA0EEAEC35
:100670000CF04D0E0AEC0DF0140EE9EC0DF0270E07
:10068000F36E0D0EF3CFDBFF0E0E8DEC0EF0100EA1
:10069000D9EC0CF00F0EF3CFDBFFAD0E8FEC0DF0AD
:1006A000860E08EC0FF00A0E28EC0FF0450EF36EE4
:1006B0001B0EF3CFDBFF1C0EDB6A280EA3EC0DF044
:1006C000480EAAEC0DF0470E6DEC0DF0010EF36E26
:1006D000230ED9EC0CF0220EF3CFDBFF0D0EF36EE0
:1006E000280EF3CFDBFF4F0EF36E290EF3CFDBFFA7
:1006F0000A0EF36E2A0EF3CFDBFF2B0EDB6A590EC8
:1007000074EC0DF03B0EB1EC0DF0480EB8EC0DF0B2
:100710003B0EBFEC0DF0010EF36E360ED9EC0CF073
:10072000350EF3CFDBFFC00EF36E3B0EF3CFDBFFD6
:10073000E50EF36E3C0EF3CFDBFF090EC6EC0DF0B9
:100740009C0ECDEC0DF0390ED4EC0DF0310EDBEC3F
:100750000DF0190EE2EC0DF0010EF36E490ED9EC1E
:100760000CF0480EF3CFDBFFF90EF1EC0CF0E50EC8
:1007700043EC0FF0090EF36EADEC0EF09C0E51EC55
:100780000DF0260EE3EC0CF06A0E58EC0DF0190E8D
:100790005FEC0DF0010EF36E5C0ED9EC0CF05B0E0D
:1007A000F3CFDBFF0101600E266FA00E276F090E4D
:1007B000286F296B6F0E2C6F2D6B280E2A6F2B6BF9
:1007C0000D0E2F6F306B030E316F326B010E346FD5
:1007D000336F950E396FA00E3A6F090E3B6F3C6B6D
:1007E0006F0E3F6F406B150E3D6F3E6B430E426FB9
:1007F000436B030E446F456B010E476F466FEB0E64
:100800004C6F9E0E4D6F090E4E6F4F6B110E526F57
:10081000536B506F516B780E556F566B020E576FBE
:10082000586B010E5A6F596F750E5F6FA50E606F92
:100830000A0E616F626B140E656F666B100E636F4C
:10084000646B8F0E686F696BBC0E6A6F6B6B010E09
:100850006D6F6C6F8D0E726F470E736F0A0E746F33
:10086000756B0C0E786F796B3B0E766F776B060E9F
:100870007B6F7C6B0F0E7D6F7E6B010E806F7F6FC9
:10088000BF0E856F0E0E866F0A0E876F886B090E7E
:100890008B6F8C6B410E896F8A6B060E8E6F8F6B20
:1008A0001D0E906F916B010E936F926F5F0E986F9C
:1008B000140E996F0A0E9A6F9B6B090E9E6F9F6BB9
:1008C000410E9C6F9D6B060EA16FA26B2C0EA36F49
:1008D000A46B010EA66FA56FAB69190EAC6F0A0E63
:1008E000AD6FAE6B090EB16FB26B1A0EAF6FB06B1E
:1008F000060EB46FB56B3A0EB66FB76B010EB96FDB
:10090000B86FC00EBE6F9A0EBF6F090EC06FC16B7D
:10091000C46FC56B3C0EC26FC36B060EC76FC86B4E
:10092000490EC96FCA6B010ECC6FCB6FFC0ED16F35
:100930009A0ED26F090ED36FD46BD76FD86B3C0E63
:10094000D56FD66B420EDA6FDB6B490EDC6FDD6B59
:10095000010EDF6FDE6FF2EC0EF001E0AAD080EC4A
:100960000FF0C8EC0FF001E0A4D0D950150F08EC3F
:100970000CF0DF6A0A0EDF5C0EE26BEC0EF03EEC70
:100980000EF001E096D0D950150F3EEC0EF001E0CC
:1009900090D0DF2AEFD7D950280F08EC0CF0DF6A8F
:1009A0000A0EDF5C11E26BEC0EF07AEC0FF0150F23
:1009B0003EEC0EF001E07DD0D950280F3EEC0EF059
:1009C00001E077D0DF2AECD713EC0EF0D4EC0FF077
:1009D000DF6A0A0EDF5C12E2CEEC0FF03EEC0EF0A6
:1009E00068E113EC0EF0A0EC0FF063E1030EDF5CA6
:1009F00003E1CD0EE6EC0EF0DF2AEBD79AEC0CF01B
:100A000058E183EC0CF0DF6A0A0EDF5C1DE2CEECED
:100A10000FF008EC0CF013EC0EF0A0EC0FF049E135
:100A200083EC0CF0190E17EC0CF043E1070EDF5CC1
:100A300009E1400EC2EC0CF0470EA7EC0CF00A0ED8
:100A40007AEC0CF0DF2AE0D7010E94EC0CF031E1E7
:100A5000720EE66E010EBDEC0FF02BE19AEC0CF07D
:100A600028E1850EE66E010EBDEC0FF022E19AEC56
:100A70000CF01FE19AEC0CF01CE1980EE66E010EF2
:100A800017EC0EF052EC0FF014E1AB0EE66E010E17
:100A9000BDEC0FF00EE1BE0EE66E010E17EC0EF08F
:100AA000D10EE66E010E17EC0EF0030E94EC0CF076
:100AB00002E0010E01D0000E146E610EE15C02E254
:100AC000E16AE552A4EF0CF0D4EC0CF0200E3AEC05
:100AD0000FF0030EDB6A130E48EC0FF0040EF3CF99
:100AE000DBFF050E2CEC0CF0060EF3CFDBFF070E40
:100AF0002CEC0CF0080EF3CFDBFF090E2CEC0CF005
:100B00000A0EF3CFDBFF0B0E2CEC0CF00C0EF3CF28
:100B1000DBFF0D0E2CEC0CF00E0EF3CFDBFF0F0EF7
:100B20002CEC0CF0100EF3CFDBFF110E2CEC0CF0C4
:100B3000120EF3CFDBFF130EF4CFDBFF48EC0FF008
:100B4000140EF3CFDBFF150E2CEC0CF0160EF3CFCA
:100B5000DBFF170E2CEC0CF001EC0EF02CEC0CF083
:100B60001A0EF3CFDBFF1B0E2CEC0CF01C0EF3CF98
:100B7000DBFF1D0E2CEC0CF01E0EF3CFDBFF1F0E67
:100B8000F4CFDBFFA4EC0FF0DBCFEAFF8A0EEE6EB2
:100B9000300EFCEC0DF0A4EC0FF047EC0CF0BA0EAC
:100BA0005DEC0EF04CEC0CF02C0E5DEC0EF012EC4B
:100BB0000CF00A0E5DEC0EF042EC0EF0280E5DEC2F
:100BC0000EF0FEEC0CF0A4EC0FF020EC0CF0A9EC15
:100BD0000FF0DBCFEAFFCA0EEE6EA40EFCEC0DF0B8
:100BE000A9EC0FF047EC0CF0BA0E61EC0EF04CECF7
:100BF0000CF02C0E61EC0EF012EC0CF00A0E61EC15
:100C00000EF042EC0EF0280E61EC0EF0FEEC0CF053
:100C1000A9EC0FF020EC0CF09EEC0EF0DBCFEAFF1D
:100C2000800E7BEC0DF09EEC0EF047EC0CF0BA0E53
:100C3000C0EC0FF04CEC0CF02C0E40EC0DF00A0E5A
:100C400040EC0DF09CEC0CF0280EC0EC0FF0FEEC2C
:100C50000CF09EEC0EF020EC0CF06FEC0EF0DBCF05
:100C6000EAFFC00EEE6E1B0E30EC0DF06FEC0EF0D6
:100C7000A3EC0EF06FEC0EF0A6EC0EF06FEC0EF0A5
:100C800012EC0CF0410EEE6EED6A6FEC0EF042ECE1
:100C90000EF0500EEE6EED6A6FEC0EF03BEC0CF0C9
:100CA0006FEC0EF020EC0CF074EC0EF0DBCFEAFFF2
:100CB000FC0EEE6E1B0E30EC0DF074EC0EF0A3EC9F
:100CC0000EF074EC0EF0A6EC0EF074EC0EF012ECDC
:100CD0000CF0410EEE6EED6A74EC0EF042EC0EF08C
:100CE0008C0EEE6EED6A74EC0EF03BEC0CF074ECD6
:100CF0000EF0C4EC0FF0010EEF6E79EC0EF0DBCFCE
:100D0000EAFFE00EEE6E370E30EC0DF079EC0EF0EF
:100D1000A3EC0EF079EC0EF0A6EC0EF079EC0EF0F0
:100D200012EC0CF00A0EEE6EED6A79EC0EF042EC6D
:100D30000EF0780EEE6EED6A79EC0EF03BEC0CF0F6
:100D400079EC0EF020EC0CF07EEC0EF0DBCFEAFF3D
:100D50001C0EEE6E380E30EC0DF07EEC0EF0A3ECB7
:100D60000EF07EEC0EF0A6EC0EF07EEC0EF012EC27
:100D70000CF00A0EEE6EED6A7EEC0EF042EC0EF018
:100D8000B40EEE6EED6A7EEC0EF03BEC0CF07EECF9
:100D90000EF020EC0CF083EC0EF0DBCFEAFFEE6AF5
:100DA000540E30EC0DF083EC0EF0A3EC0EF083EC5F
:100DB0000EF0A6EC0EF083EC0EF0F6EC0EF083ECE9
:100DC0000EF042EC0EF0780EEE6EED6A83EC0EF053
:100DD0003BEC0CF083EC0EF020EC0CF088EC0EF009
:100DE000DBCFEAFF3C0EEE6E540E30EC0DF088ECDB
:100DF0000EF0A3EC0EF088EC0EF0A6EC0EF088ECF2
:100E00000EF0F6EC0EF088EC0EF042EC0EF0B40EA4
:100E1000EE6EED6A88EC0EF03BEC0CF088EC0EF018
:100E200020EC0CF062EC0FF0DBCFEAFF800EEE6EF0
:100E30002F0EFCEC0DF062EC0FF0CDEC0EF062EC3E
:100E40000FF04CEC0CF0690EEE6EFBEC0EF012ECB9
:100E50000CF0280EEE6EFBEC0EF0CBEC0FF0FBEC82
:100E60000EF0FEEC0CF062EC0FF020EC0CF067ECF6
:100E70000FF0DBCFEAFF210E7BEC0DF067EC0FF0FB
:100E8000CDEC0EF067EC0FF04CEC0CF0310EEE6E8A
:100E9000FEEC0EF012EC0CF0320EEE6EFEEC0EF0EC
:100EA000CBEC0FF0FEEC0EF03BEC0CF067EC0FF02F
:100EB00020EC0CF058EC0FF0DBCFEAFF520E7BEC8D
:100EC0000DF058EC0FF0CDEC0EF058EC0FF04CECB0
:100ED0000CF02E0EEE6EED6A58EC0FF0F6EC0EF004
:100EE00058EC0FF0CBEC0FF0ED6A58EC0FF03BEC48
:100EF0000CF058EC0FF020EC0CF05DEC0FF0DBCFB9
:100F0000EAFFE10EEE6E170EEE6E070EEE6EEE6A63
:100F10005DEC0FF0CDEC0EF05DEC0FF04CEC0CF056
:100F2000310EEE6EED6A5DEC0FF012EC0CF094EC0D
:100F30000DF05DEC0FF0CBEC0FF0ED6A5DEC0FF017
:100F40003BEC0CF05DEC0FF020EC0CF06CEC0FF0D7
:100F5000DBCFEAFF120EEE6E180EEE6E070EEE6E8F
:100F6000EE6A6CEC0FF0CDEC0EF06CEC0FF04CEC8C
:100F70000CF02E0EEE6E01EC0FF012EC0CF05E0E8B
:100F8000EE6E01EC0FF0CBEC0FF001EC0FF03BEC50
:100F90000CF06CEC0FF020EC0CF075EC0CF0D8ECD5
:100FA0000EF001E0B2D00A0EDBCFE6FF0B0E19EC1B
:100FB0000CF00C0EDBCFE6FF0D0E19EC0CF0DF6A27
:100FC000190EDF5C0EE2C7EC0EF016EC0FF001E03C
:100FD0009CD02FEC0FF016EC0FF001E096D0DF2A3A
:100FE000EFD7DF6A190EDF5C14E2C7EC0EF00FECEE
:100FF0000EF0190F17EC0CF001E087D02FEC0FF07A
:101000000FEC0EF0190F17EC0CF001E07ED0DF2A88
:10101000E9D77D0E17EC0CF001E077D0C7EC0EF0AD
:10102000C8EC0FF072E1D8EC0EF06FE175EC0CF04B
:101030009AEC0CF06AE189EC0DF0DF6A460EDF5C99
:1010400010E22EEC0EF00E0EDBCFE6FF0F0EF1DB02
:10105000100EDBCFE6FF110E1DEC0EF056E1DF2A7D
:10106000EDD79AEC0CF051E135EC0DF062EC0FF09D
:10107000D9DBEECF14F0EFCF15F0153421E2145088
:101080000008000E15541CE262EC0FF0D0EC0EF0DC
:101090005DEC0FF0D0EC0EF06CEC0FF0D0EC0EF03D
:1010A00067EC0FF0D0EC0EF058EC0FF0D0EC0EF037
:1010B00075EC0CF02EEC0EF0140EB9DBD7E025D059
:1010C00089EC0DF0DF6A460EDF5C1AE22EEC0EF0C2
:1010D0001C0EDBCFE6FF1D0EACDB1E0EDBCFE6FFEA
:1010E0001F0EA7DB120EDBCFE6FF130EA2DB140EE2
:1010F000DBCFE6FF150E1DEC0EF007E1DF2AE3D78C
:1011000035EC0DF0F2EC0EF003E0010EC2EC0CF049
:10111000040EDBCFE6FF050EC4DB060EDBCFE6FFD9
:10112000070EBFDB080EDBCFE6FF090EBADB0A0EA7
:10113000DBCFE6FF0B0EB5DB0C0EDBCFE6FF0D0EB3
:10114000B0DB0E0EDBCFE6FF0F0EABDB100EDBCFFE
:10115000E6FF110EA6DB120EDBCFE6FF130EA1DBBE
:10116000140EDBCFE6FF150E9CDB160EDBCFE6FF81
:10117000170E97DB180EDBCFE6FF190E92DB1A0E67
:10118000DBCFE6FF1B0E8DDB1C0EDBCFE6FF1D0E5B
:1011900088DB1E0EDBCFE6FF1F0E83DB020EDB506B
:1011A000146E200EE15C02E2E16AE552CDD3D4EC8C
:1011B0000CF0620E3AEC0FF0100EC9DB050E4DEC90
:1011C0000FF0090E1BEC0DF0070EDB6A080EDB6A50
:1011D000500EF36E0C0EF3CFDBFF24EC0DF0140E6B
:1011E00008EC0FF0AD0EF36E170E16EC0DF001ECDF
:1011F0000EF0DB6A120EF0EC0DF0F36E1A0EF3CF68
:10120000DBFF1B0EDB6A420EF36E1F0EF3CFDBFF1C
:10121000200EDB6A960EF36E210EF3CFDBFF220E5B
:101220008DEC0EF0240EC5DB230EF3CFDBFFE00EBA
:10123000F36E290EF3CFDBFFB70EF36E2A0EF6DB4B
:101240002B0EF3CFDBFF2C0E0DEC0FF02F0EF3CF98
:10125000DBFF300E0DEC0FF02D0EF3CFDBFF2E0E6B
:10126000DB6A320EDB6A330EDB6AC80EF36E340EB5
:10127000F3CFDBFF350E8DEC0EF0370E9ADB360E1A
:10128000D5DB3C0EF3CFDBFFB80EF36E3D0ECEDBAD
:101290003E0EF3CFDBFF3F0E0DEC0FF0420EF3CF0F
:1012A000DBFF430E0DEC0FF0400EF3CFDBFF410EE2
:1012B0000DEC0FF0450EF3CFDBFF460EDB6AC80ED8
:1012C000F36E470EF3CFDBFF480E8DEC0EF04A0EA7
:1012D00070DB490EF3CFDBFF300E43EC0FF0B80E9E
:1012E000F36E500EA3DB510EF3CFDBFF520E0DEC6D
:1012F0000FF0550EF3CFDBFF560E0DEC0FF0530E33
:10130000F3CFDBFF540EDB6A500EF36E580EF3CFB3
:10131000DBFF590EDB6AC80EF36E5A0EF3CFDBFF0C
:101320005B0E8DEC0EF05D0E44DB5C0EF3CFDBFF4D
:101330000101580EE46FB80EE56F080EE66FE76B1B
:10134000280EEA6FEB6BE86FE96B780EED6FEE6BD2
:10135000C80EEF6FF06B010EF26FF16FC6DAD9DBDA
:101360006BEC0EF018DBDF6A510EDF5C4BE2BDDA8E
:10137000D950030F7AEC0FF0290F4ADAECEC0EF09B
:10138000E40EE66E010E17EC0EF0D950020F03DBEF
:10139000D950070F50EC0EF0020EEE26000EED2293
:1013A000D950030F76DBEE5AEE5AEE5A0C0EDB06DE
:1013B0000D0E01E2DB06D950340F6BDBED5AD9502C
:1013C000470F67DBED5AD9505A0F63DBED5A010125
:1013D000EF07F05B2F0EDB2A300E01E3DB2A420E13
:1013E000DB2A430E01E3DB2A550EDB2A560E01E30E
:1013F000DB2AEA2B000EEB23140EDF2418DA31E18E
:10140000DF2AB2D732DB52EC0FF02BE1470EDB2A9A
:10141000480E01E3DB2A5A0EDB2A5B0E01E3DB2ACE
:10142000DF6A050EDF5C1BE2ECEC0EF0D950160F04
:10143000EFD9100EDF02F350146E156AFF0ED8803C
:101440001456000E15561450F2D90BE1D950160F50
:1014500050EC0EF01D0EB3EC0EF0DF2AE2D76ADA84
:1014600002E0010E01D0000E146E620EE15C02E299
:10147000E16AE55269D298DA3D0ED3DA200E82DABB
:10148000E70EA9EC0EF0C00EF36E060EF3CFDBFFF5
:10149000320EF36E070EF3CFDBFF030E9BDA600E06
:1014A000F36E0A0EF3CFDBFF7E0EF36E0B0EF3CF5F
:1014B000DBFF030EF36E0C0EF3CFDBFF0D0EDB6ACA
:1014C0000E0EDB6ACA0EF36E0F0EF3CFDBFF030EB8
:1014D000F36E100EF3CFDBFF110EDB6AA00EF36E7E
:1014E000120EF3CFDBFF0B0EF36E130EF3CFDBFF09
:1014F000040EF36E140EF3CFDBFF150EDB6A400E05
:1015000008EC0FF04D0EF36E170EF3CFDBFF040E59
:10151000F36E77DBDB6A400EF36E1A0EF3CFDBFF60
:10152000980EF36E1B0EF3CFDBFF040E59DBE00EBB
:10153000F36E1E0EF3CFDBFFE30EF36E1F0EF3CF41
:10154000DBFF040ECADA790EF36E220E5FDB230E88
:101550005DDB240EF3CFDBFF690EF36E250EF3CFB8
:10156000DBFF690EF36E260EF3CFDBFF780EF36E12
:10157000270EF3CFDBFF780EF36E280E47DB290E24
:10158000F3CFDBFF8ADACDDB220EDB5087EC0FF0E6
:10159000A00EAADA330EDB6A340EDB6A310EF36E6C
:1015A000350EF3CFDBFF360EDB6A380EB6DB370EB7
:1015B000F3CFDBFF9AD9DF6A050EDF5C11E2010E83
:1015C000DB6A080E9FDA0AE235EC0FF03C0E146E6F
:1015D00026DB145C93D9010EDB2AF3D7DF2AECD784
:1015E000DF6A050EDF5C11E2010EDB6A080E8ADAA3
:1015F0000AE235EC0FF0280E1AD902E0010E07D0EE
:10160000010EDB2AF3D7DF2AECD76FD9000E146E58
:101610003D0EE15C02E2E16AE55296D1C5D9150EB4
:1016200000DACDDB5A0E11EC0FF0500E95D95DD9D2
:10163000DF6A050EDF5C1AE2010EDB6A0A0E62DA6F
:1016400012E280EC0FF029DA400EEE26380EEE2280
:10165000000EEE22EE22500EEAD802E0010E08D073
:10166000010EDB2AEBD7ABDBDF2AE3D73ED9000E36
:10167000146E150EE15C02E2E16AE55265D194D97F
:10168000150ECFD9F2D9C00E7DD9670E60D9370EAD
:1016900031D9A00E9FD94F0EBDD9280E9ADA280E47
:1016A0005BD923D9C80E2AD9DF6A150EDF5C22E286
:1016B00080EC0FF0DF5001E160DBDF50120802E246
:1016C000640E01D03C0E1AD9E8D9500EFEDA80EC37
:1016D0000FF0DF50120802E2640E01D03C0E0ED96A
:1016E000DCD9B00EEE26630EEE22000EEE22EE22C4
:1016F000DF2ADBD7CFEC00F0150EE15C02E2E16AF5
:10170000E552E16E81D350D9160EE126AED9E00E36
:101710001ED9430EC2DB2C0E8ED9A00E0DDA0C0E94
:10172000DB6A92D9E66A53EC28F0E552DF6A040ED0
:10173000DF5C04E2DFCFE6FFA8DAF9D71EDBDF6A61
:10174000040EDF5C03E2AEEC0FF0FAD7DF6A130E93
:10175000DF5C0FE2D950030FCDDB030FA1DAEE52AD
:10176000960EEE26000EEE22EE22640EC7D8DF2A79
:10177000EED7DF6ADF50146E156AD890155004E674
:10178000FF0E145C000E15581EE273EC3EF0DE52A4
:10179000F3CFDEFFF4CFDDFFDD52010EDBCFE9FF3B
:1017A000020EF2DBEF500BE0DFCFE6FFE66A8BECD8
:1017B00057F0E552E552C80EA1D8000E05D0640ED0
:1017C0009DD8DF2AD7D7010E146E160EE15C02E217
:1017D000E16AE552B9D049D9020EE66EBAEC4DF095
:1017E000E552DAEC56F0E7EC00F0000910E12EECDF
:1017F00003F000090CE164EC05F0000908E1D7DC16
:10180000000905E138DE000902E108DF00091200E5
:10181000E66E000EDA2017EF0EF08EDB2E0E55DA94
:101820004CEF0EF0DBCFEAFF090EB9EF0EF0E66EDB
:101830007ED3DBCFE6FF41EC56F0E552E5521200D5
:10184000DBCFEAFF0D0E95DA010EEF6E120074DBAE
:101850005C0E89DA4CEF0EF0F4CFDBFF130E48EF8D
:101860000FF011DB020EF36EADEF0EF0000EE66E20
:10187000010E17EF0EF0DBCFEAFF0E0E7ADA010E43
:10188000EF6E1200DBCFEAFFA00E65EF0EF0DBCFAC
:10189000EAFF060EB9EF0EF0DBCFEAFF040EB9EF58
:1018A0000EF0DBCFE6FF02EC54F0E552E5521200F9
:1018B000D950020F146EDACF15F0010EDB50040D73
:1018C0001450F324E96EDA50F420EA6E2ADAD95083
:1018D000220F146E010EDB500F011424E96E000E6E
:1018E000DA20EA6EEF5087EF0FF0E66A7CEC00F04A
:1018F000E5521200D2DA050EDB6A1200E66EAEEC9B
:101900004DF0E5521200260EE66E010E90D9390E0A
:10191000E66E010E8CD94C0EE66E010E88D95F0E74
:10192000E66E010E17EF0EF0E66EF0EC4DF0E552AC
:1019300000091200E668FBD2020EB9EF0EF0130E9A
:10194000E66E010E17EF0EF0E16E14505DD2F36EED
:10195000030EF3CFDBFF1200F36E0D0EF3CFDBFFB0
:101960000E0EDB6A100ED9D90F0EF3CFDBFF12007B
:10197000146E010EDBCFE7FF1450E726010EE7CF10
:10198000DBFF1200F36E020EF3CFDBFF120040DA32
:10199000020E28EF0FF0E66E000EDA20E66E56EC2F
:1019A00028F0E552E5521200D9CFE6FFE1CFD9FF8A
:1019B0001200F3CFDBFF010EF36E1200BDDA2E0E24
:1019C000D2D94CEF0EF0F36E520EF3CFDBFF530E75
:1019D000DB6A1200F36E080EF3CFDBFF090EDB6A41
:1019E0001200F36E4E0EF3CFDBFF12000101002751
:1019F000090E0123000E022303231200DBCFEAFFAE
:101A00000E0EB7D9EF6A12000101E00E006F130E3F
:101A10003EEF0FF0F36E060EF3CFDBFF070EDB6A2F
:101A20001200E126DF6A010EDB6A1200F3CFDBFF52
:101A3000080EF36E120000DAF00EF36E090EF3CF0B
:101A4000DBFF0A0EDB6A12000D0EDB6A0E0EDB6A8C
:101A50000F0EDB6A110E61D9100EF3CFDBFF1200FF
:101A6000EE6E0B0EEE6EEE6A1200E66A46EC28F0A1
:101A7000E5521200D950150F13D9200E65EF0EF064
:101A80007FDAC4EF0FF0800EF36E010EF3CFDBFFB1
:101A9000120006D9EE06000E1200D950020F50EFC8
:101AA0000EF0F36E540EF3CFDBFF550EDB6A12001F
:101AB000F36E570EF3CFDBFF580EDB6A1200F36EA6
:101AC000590EF3CFDBFF5A0EDB6A1200136F7D0E47
:101AD000146F020E156F166B1200F36E200EF3CF0B
:101AE000DBFF210EDB6A1200F36E2E0EF3CFDBFF5D
:101AF0002F0EDB6A1200EE6E420EEE6E060EEE6EDA
:101B0000EE6A1200F36E010EDBCFF4FFF350F45CCB
:101B10001200010EE66E46EC28F0E5521200F36E5C
:101B2000150EF3CFDBFF12002D0EEE6EED6A1200E4
:101B30003C0EEE6EED6A1200F36E070EF3CFDBFF84
:101B4000080EDB6A1200F36E190EF3CFDBFF1A0EDC
:101B5000DB6A1200F36E1E0EF3CFDBFF1F0EDB6A93
:101B60001200F36E2C0EF3CFDBFF2D0EDB6A12009A
:101B7000F36E310EF3CFDBFF320EDB6A1200F36E31
:101B8000330EF3CFDBFF340EDB6A1200F36E3D0E33
:101B9000F3CFDBFF3E0EDB6A1200F36E410EF3CF94
:101BA000DBFF420EDB6A1200F36E3F0EF3CFDBFF6A
:101BB000400EDB6A1200F36E440EF3CFDBFF450EDE
:101BC000DB6A1200F36E460EF3CFDBFF470EDB6AD3
:101BD0001200F36E0B0EF3CFDBFF0C0EDB6A12006C
:101BE000F36E1C0EF3CFDBFF1D0EDB6A12000B0E33
:101BF000DB6A0C0EDB6A1200EE6E050EEE6EEE6A0C
:101C00001200180EF3CFDBFF190E1200F3CFDBFF2B
:101C1000790EF36E1200960EEE6EED6A1200040E4F
:101C2000DF02F3501200D9503B0F08EF0CF0E66EC4
:101C300041EC56F0E552E5521200FBDD43D922DEBD
:101C400046D920DE35D91EDE38D91CDE45D91ADE4C
:101C5000D950030FA0DE820E17EF0CF0160EDBCF6B
:101C6000E6FF170EE6DD180EDBCFE6FF190EE1DD0D
:101C70001A0EDBCFE6FF1B0E19EF0CF0C9DD190EB3
:101C800017EF0CF0CFDD9CEF0CF07CEC00F0E55290
:101C9000320E34DEDF2A1200010EDBCFE6FF47D121
:101CA000E96EDACFEAFF1200D950280F23D9150FB9
:101CB00008EF0CF079D936EF0CF0EE6EED6AA4EF78
:101CC0000FF0EE6EED6AA9EF0FF0EE26000EEE2299
:101CD000EE22EE22120009DED950020F12000A0E87
:101CE000DBCFE9FF0B0E12000C0EDBCFE9FF0D0E70
:101CF00012000E0EDBCFE9FF0F0E1200100EDBCF2D
:101D0000E9FF110E1200120EDBCFE9FF130E1200D5
:101D1000140EDBCFE9FF150E1200DB6A010EF36E25
:101D200012002A0EEECFDBFF2B0EEECFDBFF2C0EC8
:101D3000EECFDBFF2D0EEECFDBFF1200080EDBCF68
:101D4000E9FF090E1200A3DD94EF0DF0A5DD98EF79
:101D50000DF0FDDD020E7AEF0CF0500EF3CFDBFF3D
:101D6000510EDB6A1200EE5E000EEE5AEE5AEE5A8B
:101D70001200E926000EEA221200FA0EBFDDFA0E6A
:101D80007EEF0CF0C00E2DDECE0E31EF0CF0060E05
:101D9000DBCFE6FF070E19EF0CF079DD0BEF0EF04D
:101DA00041DDEE06ED5A1200A8D8050E17EF0CF033
:101DB000040EDBCFE6FF050E3CDDC8EF0FF0400E52
:101DC000E1DD110EC4DD0E0E7AEF0CF0DBDDB10E9D
:101DD000BEDD0A0E7AEF0CF0D9503C0F8BD84F0FB6
:101DE00008EF0CF082DD010E94EF0CF01BDD630EAA
:101DF000EE6EED6A1200ED6A62EF0FF0ED6A67EFCA
:101E00000FF0ED6A6CEF0FF0E552E7CFD9FF12004B
:101E1000F36E160EF3CFDBFF1200DB6A280EF36EB3
:101E20001200D8DDA00EF6DDF7EF0DF07D0E146E7A
:101E3000F6DE145C17EF0CF0F36E050EF3CFDBFF4C
:101E4000060EDB6A1200A00E6ADE6C0EC7EF0CF005
:101E5000F36E170EF3CFDBFF180EDB6A1200080ECD
:101E6000DBCFE6FF090E19EF0CF0D9502A0FD0DCBA
:101E700058EF0CF0D6DD020EDB6A1200016F070E80
:101E8000026F036B1200F36E4F0EF3CFDBFF1200F5
:101E9000E66EC4EC53F0E5521200F36E040EF3CF7D
:101EA000DBFF1200020E94EF0CF0BDDE0DEF0CF024
:101EB0001A0EDBCFE9FF1B0E12001C0EDBCFE9FF71
:101EC0001D0E1200160EDBCFE9FF170E1200180EC2
:101ED000DBCFE9FF190E12001E0EDBCFE9FF1F0E4C
:101EE000120092DDE00E7DDD210EF36E4F0E9EDDC1
:101EF000ADEF0EF08DDCD9501200B8DCD4EF0FF04E
:101F0000D950020F08EF0CF08EDE27EF0CF0E66ED2
:101F1000D950300FC5DEE552E750EE6EED6A120083
:101F20000101C00E006F060EA9DFC2EF0EF0CDEC6E
:101F30004DF0E55200091200D9503B0F50EF0EF062
:101F4000D9504E0F3EEF0EF0040EDBCFE9FF050E29
:101F50001200060EDBCFE9FF070E1200030ED88039
:101F6000DF54E66E45EF0EF0F4DEB5DE08EF0CF060
:101F7000176F186BE4DC13EF0EF059DE9AEF0CF0DC
:101F8000EE6EED6A9EEF0EF0DBCFEAFFB9EF0EF0DA
:101F9000C80E17EF0CF076DEEE6A12009CDEAADFA8
:101FA000150FA8DF280F1200D9504E0F08EF0CF0C4
:101FB000020100510AE10001020E846F980E826F47
:101FC000680E836F0201010E006F800E146E000E0A
:101FD000C4EF16F0020101510AE10001030E896FFE
:101FE000AA0E876F680E886F0201010E016F850EC1
:101FF000146E000EC4EF16F0020102510AE1000156
:10200000010E8E6FC50E8C6F680E8D6F0201010E72
:10201000026F8A0E146E000EC4EF16F00201035117
:102020000AE10001030E936FCE0E916F680E926F5E
:102030000201010E036F8F0E146E000EC4EF16F036
:10204000020104510AE10001030E986FE90E966F38
:10205000680E976F0201010E046F940E146E000E4D
:10206000C4EF16F0020105510AE10001020E9D6F56
:10207000040E9B6F690E9C6F0201010E056F990E95
:10208000146E000EC4EF16F0020106510AE10001C1
:10209000010EA26F160EA06F690EA16F0201010E54
:1020A000066F9E0E146E000EC4EF16F0020107516B
:1020B0000AE10001020EA76F1F0EA56F690EA66F41
:1020C0000201010E076FA30E146E000EC4EF16F08E
:1020D000020108510AE10001100EAC6F310EAA6F27
:1020E000690EAB6F0201010E086FA80E146E000E90
:1020F000C4EF16F0020109510AE100012D0EB16F83
:10210000C10EAF6F690EB06F0201010E096FAD0E07
:10211000146E000EC4EF16F002010A510AE100012C
:10212000040EB66F560EB46F6B0EB56F0201010E42
:102130000A6FB20E146E000EC4EF16F002010B51BE
:102140000AE10001030EBB6F7A0EB96F6B0EBA6F16
:102150000201010E0B6FB70E146E000EC4EF16F0E5
:102160007AEC16F0030E3EEC17F036EC17F0F70E93
:10217000F3CFDBFFF80EF4CFDBFF41EC17F036ECCA
:1021800017F0F50EF3CFDBFFF60EF4CFDBFFDF6ABF
:10219000F40EDB50DF5C36E29CEC18F0A0EC18F09B
:1021A000DE5205EC19F0DD52F1EC18F048EC17F0B6
:1021B00086EC2CF0146E060EE15E14509DEC16F0C9
:1021C000F350EE261550ED229DEC16F0020EDBECDE
:1021D00018F0F350EE261550ED22E66A41EC17F0A8
:1021E00024EC17F0F350E66E48EC17F03BEC44F0AB
:1021F000FBEC17F094EC16F043EC16F0C0EC16F084
:10220000DF2AC6D7030EE15C02E2E16AE55271EF14
:1022100016F078EC19F000EC17F0D4EC16F0E9ECBD
:1022200018F08A0EE66EAB0EBEEC17F063DFCBEC57
:1022300017F002E2E16AE55271EF16F078EC19F05E
:10224000060E00EC17F0020ED4EC16F00A0EE9ECC4
:1022500018F0B40EE66EAB0EBEEC17F05DDFCBEC03
:1022600017F002E2E16AE55271EF16F07AEC16F02F
:10227000060EE126050EE66E010EA0EC18F0040E27
:10228000F3CFDBFF050EF4CFDBFFDFEC18F04FECF4
:1022900017F056EC19F0040E30EC18F0E66A1E0E3A
:1022A0001FEC18F0E66EE66AE66EE66A72EC19F06C
:1022B000020E4EEC16F0D6DE00EC18F032EC4BF0CD
:1022C0001C6E090E24EC18F0DFEC18F0020EBEECC8
:1022D00018F056EC19F04FEC17F058EC16F0C0EC73
:1022E00016F0020EBEEC18F058EC16F056EC17F093
:1022F000060EE15C02E2E16AE55271EF16F0F9ECDC
:1023000018F0640EE66EE66A24EC17F0D8EC17F0CD
:10231000D890F45004E60A0E145C000E155807E23B
:1023200043EC16F049EC18F074DFC8EC16F0020E1E
:10233000E15C02E2E16AE55271EF16F0F9EC18F0A7
:1023400043EC16F049EC18F079DFC8EC16F0020EF9
:10235000E15C02E2E16AE55271EF16F02CEC18F054
:10236000060EE66E020E78EC17F0030EE66E6CECCD
:1023700017F00F0E70EC17F049EC18F0F1DE67EC77
:1023800017F028EC18F0020EE15C02E2E16AE55277
:1023900071EF16F07AEC16F0D0EC16F0AAEF17F009
:1023A0007AEC16F0050E12EC19F0AAEF17F07AECA1
:1023B00016F0080E74EC18F006C0DEFF07C0DEFF52
:1023C00008C0DEFF09C0DDFFDD52DD52E2EC16F091
:1023D00008EC17F0020EDBCF14F0030EDBCF15F084
:1023E000060EDBCF16F0070EDBCF17F015501718CF
:1023F000E8AE02D0173404D01650145C17501558AC
:1024000026E2F3EC17F0040EE66ED950040F3CEC14
:1024100018F0D9CFE9FFDACFEAFF7FEC16F0B7EC7E
:102420002EF01C6E090EE15E1C50CDEC16F02CDE79
:10243000F3CF1DF0F4CF1EF081EC18F01F6E0D0EDF
:10244000E15E1F50D8EC17F047EC18F002D02FECEB
:1024500017F0080EE15C02E2E16AE55271EF16F056
:102460007AEC16F00A0E74EC18F0020E06C0DBFFD0
:10247000030E07C0DBFF040E08C0DBFF050E09C01A
:10248000DBFFE2EC16F0060E06C0DBFF070E07C00E
:10249000DBFF080E08C0DBFF090E09C0DBFF040EDE
:1024A0006BEC16F0040EE66ED950060F3CEC18F0FB
:1024B000D950020F3CEC18F0B7EC2EF0166E090E56
:1024C000E15E1650D8EC17F067EC18F0E66A040EDF
:1024D0001FEC18F0040EDBCF18F0050EDBCF19F05F
:1024E000080EDB50185C166E090EDB501958176E7B
:1024F00016C0E6FFE66E36EC17F094EC16F0020E0E
:10250000DBCF1EF0030EDBCF1FF0060EDB501E5C90
:102510001C6E070EDB501F581D6E1CC0E6FFE66EDA
:1025200036EC17F0E552E7CF15F0E552E7CF14F09F
:10253000F3CF1AF0F4CF1BF0F4501518E8AE02D028
:10254000153404D014501A5C15501B580AE2F3ECF1
:1025500017F0020E11EC18F0CDEC16F0A7DDD8DB69
:1025600002D02FEC17F00A0EE15C02E2E16AE552BC
:10257000B8D3C0DBF3EC17F0E66E050EE66E54EC54
:102580004DF0E552E552CDEC16F0A2DDC1DBD7EF00
:1025900018F02CEC18F0040E9EDB010EE66E040E13
:1025A000E66E6BEC39F0B4EC18F016EC19F002ECB6
:1025B00050F0B6EC18F0E66AA00EE66E230E1EECA4
:1025C00019F0030EE66E020E11EC18F0CDEC16F0C9
:1025D000B5DD9EDB020EE15C02E2E16AE55281D3E9
:1025E000BAEC18F0FA0EE66EE66A4EEC18F0DCEC87
:1025F0004BF0E552E552B4EC18F0E66A010E1FEC20
:1026000018F02C0E36EC18F0600EE66E240E1AEC64
:1026100019F004DD93EC19F002E2E16AE55261D3AE
:10262000A1EC17F015EC17F0CAEC18F002E2E16A21
:10263000E55257D3A1EC17F03C0EE66E230EE66E82
:10264000CAEC18F002E2E16AE5524BD396EC19F0BD
:102650006BEC39F0A8EC18F002E2E16AE55241D3E4
:1026600096EC19F054EC4DF0A8EC18F002E2E16A97
:10267000E55237D384EC18F0010EE66E030EE66ED9
:1026800064EC19F05C0EE66E230EE66E920EE66EBA
:10269000250E74EC17F0050EE66E020EFFDAACDCC8
:1026A00093EC19F002E2E16AE5521BD378EC19F0E1
:1026B000060E30EC18F0900E12EC19F0D1EC51F03F
:1026C000B6EC18F052EC46F023EC19F0040EEEDAFA
:1026D0006C0EE66E220EE66EAE0EE66E230E1AEC61
:1026E00019F0AEDCC2DAC4EC18F0130EDBEC18F013
:1026F000010EEF6E020E7EEC17F002E2E16AE55287
:10270000F0D2F8DA080EBADBF60EDB5003E0A00ECA
:10271000146E01D0146A156A14C0E6FF15C0E6FFF6
:10272000DEEC56F0FBEC17F073DB060ED4DA8EEC21
:1027300019F0F40E36EC18F083EC19F0E66ED9506F
:10274000040F3CEC18F089EC19F08DDBB1DAB7DA44
:10275000B7EC2EF01A6E090EE15E1A50D8EC17F0A5
:1027600067EC18F0020EBEEC18F08DDAB9EC24F02C
:10277000FBEC17F0080EE15C02E2E16AE552B1D22F
:1027800084EC18F037DB6BEC39F0B4EC17F04DDB70
:10279000AC0EE66EA10EA8DB010EE66E020E7EDA2E
:1027A00019DCFEEC18F0020EC4EC18F00E0EDBEC97
:1027B00018F0A60EEE6EA10EED6EA4DB9FDB02E21A
:1027C000E16AE5528ED22CEC18F0F80EDB5003E0F3
:1027D000DE68DD6803D0010EDE6EDD6ACCDAE0DA99
:1027E00067DA51DA8EDF146E090EE15E1450C3DA37
:1027F00021DBDECF16F0DDCF17F0190EDEDBBBDA02
:10280000EEDADECF16F0DDCF17F0320ED6DB020E99
:10281000E15C02E2E16AE55264D22CEC18F0FA0EB7
:10282000DB5004E0010EDE6EDD6A02D0DE68DD689A
:10283000020EE15C02E2E16AE55253D22CEC18F0A0
:10284000FA0EDB5004E0010EDE6EDD6A02D0DE68B7
:10285000DD68020EE15C02E2E16AE55242D2D6DBBB
:1028600025DBD7EF18F0D2DBC2EC24F0C4DBD7EFC6
:1028700018F040DAFB0EDBCF08F0FC0EDBCF09F0DE
:10288000E10E081802E1080E091801E1BED1D00ED0
:10289000081802E1070E091801E1A8D19E0E0818D8
:1028A00002E1070E091801E191D1850E081802E135
:1028B000070E091801E182D16C0E081802E1070E1B
:1028C000091801E178D1530E081802E1070E091822
:1028D00001E169D13A0E081802E1070E091801E179
:1028E00059D1080E081802E1070E091801E14ED16E
:1028F000D60E081802E1060E091801E13CD1A40E1B
:10290000081802E1060E091801E11FD16B0E081824
:1029100002E1060E091801E10DD1400E081802E18E
:10292000060E091801E1FCD0CB0E081802E1050ED5
:10293000091801E1F1D0960E081802E1050E0918F8
:1029400001E1DED0140E081802E1050E091801E1BC
:10295000C4D0B00E081802E1040E091801E1AED08F
:102960007E0E081802E1040E091801E1A3D0FC0E46
:10297000081802E1030E091801E18CD0F90E0818BD
:1029800002E1030E091801E182D0B60E081802E137
:10299000030E091801E178D0840E081802E1030E35
:1029A00009185AE0200E081802E1030E091850E039
:1029B000BC0E081802E1020E091844E08A0E08183D
:1029C00002E1020E09183AE0580E081802E1020E60
:1029D000091828E0260E081802E1020E09181FE067
:1029E000F40E081802E1010E091813E0900E081801
:1029F00002E1010E09180AE0FA0E081801E010D1F0
:102A0000095001E00DD183DB640E04D1B0DA2D0E44
:102A1000DBD05AEC19F06E0EC7DB870ED5D02BDA5F
:102A20000A0EF6D0030EE66EDAD93C0E59DA54DB04
:102A3000B7D94B0E29EC19F05A0EC6D0020E57D951
:102A4000500EDED0E66A780EE66EE66A8C0EB1D0E5
:102A5000010EE66EB40EAAD0010EE66EF00EE66E22
:102A6000E66AE8D910D9AFDE20DB010EE66EE66E2D
:102A700097D9FB0EE66EE66806D9E0D9FCD9280E98
:102A8000E66EE66A6E0E13D072DA230E9DD0CEDBB0
:102A9000160E44D0E66A780EE66EE66A8C0E5EECA0
:102AA00019F003DBE66A010EE66E16DA820E18DA1A
:102AB000DADEB2D05AEC19F0ADDB0BD0020EE66EC6
:102AC000B9D933DBC3DD0DDB500E61EC19F0EDDA63
:102AD000020EE66EAFD9820E87D019DB780E00DACF
:102AE000ADD9010EE66EF00EE66EE66A000EE6DB8C
:102AF00099EC19F0A00E8EDBE66EEED98C0E74D038
:102B000095DB280EAADBE15E145012DB500EABDB26
:102B1000690E4ADB820E58D089DB760E9EDB7ED0B2
:102B2000030EE5D802DBC6DAE2D8190E73DBDFD874
:102B3000280E5AD0FDDAD0D9A6D872DDD2DA460EE8
:102B4000CFD96EDDD0D81E0E12D04B0EE66EE66ADF
:102B500046D9EBDAB5D94B0EE66EE66A21D9820E7C
:102B6000BFD9AED983DB5CDD03D9E66E280EE66EF5
:102B7000E66A5A0E15D0E0DABAD8B2D95FD9020E99
:102B8000B6D8500EADD9C7DA640E0AD06FDBC8DAFA
:102B9000780E06D0020EABD85A0EA2D9C1DA410E79
:102BA0009FD93EDD2FD0010EE66E4B0EE66EE66A33
:102BB000140E84DB27D0DBD9280E06D0030EE66E78
:102BC000EFD8500E46DB640E9BDB1CD0030E8FD873
:102BD0003C0E86D9A0DA8C0E1DDBE66EE1D8780EAD
:102BE00070DB81D827D9640E6CDB0CD0A1DA3C0EE7
:102BF0003ADB4B0ED9DA5A0E83DB75D86DD9490E04
:102C00006FD918DD146E070E09D096DAE66E000E45
:102C1000E66EE66A65D923DE146E080EE15E145096
:102C2000C6D268D8E0D81FD923EC55F0E552E5525A
:102C3000DAD8060EEB6A070EEB6AB9D20201DC5154
:102C400006E1220E0C6F2C0E0D6F010EDC6FEEDA1A
:102C50007DEC3BF0E552E552F3CF0EF2F4CF0FF2EC
:102C60000C0E146E020E156E8FD0C8DA82EF17F0BC
:102C7000E552E55206C014F007C015F008C016F082
:102C800009C017F01BD2FD0EDBCFE6FFFE0EDBCF37
:102C9000E6FF1200E552E55223EF19F0C2D9F3CF57
:102CA00018F0F4CF19F090DAE66A120084DA15D33E
:102CB000FB0EDBCFE6FFFC0EDBCFE6FF1200DEEC07
:102CC00056F099D906C016F007C017F008C018F0E2
:102CD00009C019F0F3D1E66EC4EC53F0E55205EFEC
:102CE00019F0E16E64D2E1D9020EE66E1200E66ED2
:102CF00016EF19F0D9CFE6FFE1CFD9FF1200EECFE2
:102D0000E6FFEECFE6FFEECFE6FFEFCFE6FF1200E5
:102D1000F3CF1CF0F4CF1DF0F4D91E6E0D0EE15E62
:102D20001E5046D947EF18F043D9E4EF18F0B9EC3C
:102D300024F061D9040EE15C1200B0D9F70EDBCFAC
:102D400016F0F80EDBCF17F0166C171E000E1722C8
:102D500016C0E6FF17C0E6FF3CEC54F04CD928D96A
:102D6000010EDBCFE9FF020EDBCFEAFFDBEF18F04D
:102D70009CD9030E1200F80EDBCFE6FF3BEF19F0F3
:102D8000B6EC24F0FBEF17F014C0F3FFF46E120062
:102D9000186E060EE15E1850120032D9E66A120073
:102DA0000A0EE66EE66A1200E66E54EC4DF0E5524D
:102DB000E552FED8020EE8D9F3CFEEFF15C0EDFFC5
:102DC000E66A1200FB0EDBCFE9FFFC0EDBCFEAFF69
:102DD000110E91D907EC2CF0E552E55212001E0EAF
:102DE000E66EE66A1200FD0EDBCFE9FFFE0EDBCFDA
:102DF000EAFF1200010EE66EF80EDBCFE6FF1200CE
:102E0000E66EC4EC53F0E5523DDA010EE66E1200B8
:102E1000040E06C0DBFF050E07C0DBFF060E08C070
:102E2000DBFF070E09C0DBFF1200FE0EE66E220E6E
:102E3000E66E1200140EE66EE66A120010DD146EE5
:102E4000080EE15E14501200F1D93CEC54F0FBEF97
:102E500017F0C8EC24F0CFD8040EE15C120019DAA8
:102E6000EE6AED6A1200020E7BEF18F08FEC54F060
:102E7000E552E5521200020E12EF19F0E1264EEF74
:102E800018F0F50EDBCFE6FFF60EDBCFE6FF120003
:102E9000010EDBCFE6FF020EDBCFE6FF1200040ED1
:102EA000DBCFE6FF050EDBCFE6FF1200C5EC24F01A
:102EB000FBEF17F026DC186E090EE15E18501200C9
:102EC000F0EC12F0146E080EE15E14501200186E51
:102ED0000B0EE15E18501200320EE66EE66A12002A
:102EE000E66EE66A43EF16F002DFE2DE72EF19F0FB
:102EF00027D98BD964D991D956EF19F03FD9C3DEC0
:102F000097EF16F0020E3AD9EFEC2BF0E552E552AE
:102F1000F3CF16F0F4CF17F0166C171E000E172221
:102F2000F90EDB50165C146EFA0EDB501758156E56
:102F3000F0D9020E40D914C0EEFF15C0EDFF020E0D
:102F40001200F4D9C1D9E66A030EE66E78EC53F0AC
:102F50007CEF19F048DF020E2ED9D1DEF6EC47F0F7
:102F60009FD989D90DDF23D1FFD88EEF19F0A2D9CF
:102F700061DF89DE30EC13F099EF19F0E66E31D99C
:102F8000020EE66EFBD871EC3FF0E552E552E552D9
:102F9000CBDEE66A1200F3CF16F0F4CF17F014D9A7
:102FA00029EC4FF094DF31D938D96DDE29EF17F0D5
:102FB000F3CF14F0F4CF15F012001702F3CF17F08F
:102FC0001602F3CF16F0F4501726FB0EDB50F32455
:102FD000146EFC0EDB501720156E14C0E6FFE66E73
:102FE00052DE5AEF17F0E66A940EE66E230E26D9EB
:102FF000010EE66E1200E552E552E552E55212006E
:10300000F3CF1AF0F4CF1BF0E4EF18F073DEF70EF5
:10301000DBCFE6FFB0DE4CDE4FEC41F041D943EFB1
:1030200016F0E66EFAD871EC3FF0E552E552E55243
:103030001200010E81D9EAEC0FF035EF16F0E66EC2
:1030400078EC53F0B6EF18F0E15E1C5042EF19F047
:10305000E4D82EDEC0EF16F04DDE020EE12612009F
:103060003ADE09DF54EC4DF0B4EF18F0DBD8D1ECC8
:1030700051F042D915EF17F0E96EDACFEAFF7FEF92
:1030800016F0020EE76E80D8E75056EF16F001D921
:1030900024D107EC2CF0ECDD58EF16F0F70EDBCF67
:1030A000E6FFF80EDBCFE6FF1200146E070EE15EBE
:1030B0001450120026EC13F0B8EF16F006C0E6FF2D
:1030C00007C0E6FF08C0E6FF09C0E6FF1200DECF3A
:1030D000E9FFDDCFEAFF01D130EC13F049DEE66E07
:1030E000120001DED0EF16F0E126CDDD21EC2CF050
:1030F000E552E55212005FD8EECFE6FFEFCFE6FFD4
:10310000120062D85BEF4CF0F3D86BEF16F0030EB1
:1031100089D8D0EF16F010EC13F0E5DD1AEF17F0B8
:1031200010EC13F025DE77EF16F03ADE43EF16F0E1
:10313000020EE66EEFEF16F0040EE66E010E1200C0
:10314000D6DDE66EE66ACED8F6EC47F0C8EF16F0AC
:103150000BDF200EE66E030EE66E8AEC45F0CCD84F
:1031600064DED1D87EEF17F095DDB7D093DD020E87
:1031700056EF16F0BDD8060E6BEF16F0DBCFE6FF6C
:10318000030EDBCFE6FF1200DBCFE9FF030EDBCF40
:10319000EAFF1200600EE66E240EA6DE020ECCD808
:1031A000D8EC0FF093EF19F0ABD899EF19F0E55286
:1031B000E7CFD9FF1200E926000EEA22120063DDF4
:1031C00007EC2CF038EF16F0F3CFE6FFF4CFE6FF74
:1031D0001200E66E78EC53F0E552E552E9DE41EF7D
:1031E00018F0D950F90FE96EFF0EDA20EA6E7FEF82
:1031F00016F032DFA1DF7CDE28EF18F001DF74EC7F
:1032000042F01C6E0E0E24EF18F0F3CFDEFFF4CF69
:10321000DDFF120065DE5AEF18F0DECFE6FFDDCFEE
:10322000E6FF1200E66E010EE66E1200000EE66E7C
:10323000E66A120059DE040E9CEF19F058DDE66EC6
:10324000E66A5FEF16F0B4DEDECFE9FFDDCFEAFF1E
:10325000120046DE41DFEFEF16F042DE56EC13F0CF
:10326000146E060E12004CD871EF18F0020E3FDDFE
:10327000280E70EF17F0F90EDBCFE6FFFA0EDBCF6A
:10328000E6FF1200020EF3CFDBFF030EF4CFDBFFED
:103290001200F90EDBCFE9FFFA0EDBCFEAFF1200D6
:1032A000166E060EE15E165094EF16F086EC2CF0CA
:1032B000C8EF16F0020EE66ED0EF16F011DEE3EF67
:1032C00013F00EDE26EF13F054EC4DF04DDF2C0E14
:1032D000A9DFD1EC51F0B6EF18F0F3CFEEFF15C037
:1032E000EDFF1200DEEC56F0E552E55238EF16F035
:1032F00001DD040EE1261200CDDC040E56EF16F0BF
:10330000EFDD30EF13F0720EE66E250EEDDD19EFF6
:1033100018F0020E39DF020EDBEF18F0C9DC02EC08
:1033200050F0B6EF18F0A1DC7EEF17F023DFFAEFD4
:1033300016F0D9DCEFEF16F0E66E030E4EEF16F046
:103340000001FA510AE10201030EE16F120EDF6F74
:10335000AE0EE06F0001010EFA6FDD0E146E020E6C
:10336000DFEF1DF00001FB510AE10201010EE66FE3
:103370002D0EE46FAE0EE56F0001010EFB6FE20E45
:10338000146E020EDFEF1DF00001FC510AE1020194
:10339000010EEB6F360EE96FAE0EEA6F0001010E03
:1033A000FC6FE70E146E020EDFEF1DF00001FD5101
:1033B0000AE10201010EF06F3F0EEE6FAE0EEF6FED
:1033C0000001010EFD6FEC0E146E020EF8D3000129
:1033D000FE510AE10201010EF56F480EF36FAE0EC9
:1033E000F46F0001010EFE6FF10E146E020EE7D3B2
:1033F0000001FF510AE10201010EFA6F510EF86F50
:10340000AE0EF96F0001010EFF6FF60E146E020E84
:10341000D6D3D7EC1EF0090E77DBDADB23EC55F0C0
:10342000E552E55259EC1EF023EC55F0E552E55219
:10343000A5D39BEC1EF0070EE66E030EE66E45EC80
:103440001EF0A0DBF6EC47F029EC1EF0F3CFDEFF18
:10345000F4CFDDFF85DB07EC2CF094DBB4DB86ECEE
:103460002CF091EC1EF0D2DB020EE15C02E2E16A8C
:10347000E552E16E83D3D9CFE6FFE1CFD9FF020E4B
:10348000E126FD0EDBCFE9FFFE0EDBCFEAFF100EDB
:10349000E926000EEA22EECF14F0EFCF15F0D9CFD7
:1034A000E6FFDACFE6FFFB0EDBCFE6FFFC0EDBCF5D
:1034B000E6FFFD0EDBCFE6FFFE0EDBCFE6FF04D01E
:1034C00015C0FAFF1450F96EFBDF166E060EE15EB2
:1034D0001650D9CFE9FFDACFEAFFEE50ED100DE03C
:1034E0003FDB16EC2CF04EDB6EDB90EC2CF091EC1D
:1034F0001EF0BCEC24F0B9EC1EF0020EE15C02E21E
:10350000E16AE552E16E3AD33FDB0A0EE66EE66A07
:10351000AEDBEECFE6FFEECFE6FF5ADBF6EC47F090
:10352000166E060EE15E1650F7DBDAEC1EF0F90EB1
:10353000DBCFE6FFFA0EDBCFE6FF68DB1FD39ADBBB
:10354000010EE66E14DB0EDFF0DA18D393DB020E09
:10355000F6DB1ADFEADA12D38DDB030EF0DB26DFAF
:10356000E4DA0CD387DB040EEADB31DFDEDA06D3E4
:10357000E2DB040EE66EC4EC53F0E552F3CFDEFF5F
:10358000F4CFDDFF010EE66EFA0EE66E54EC4DF060
:10359000CCDBDFEC1EF06BDBE4EC1EF0D4DB030EC7
:1035A0000D6E0E6A16C008F017C009F0AFEC54F0AB
:1035B00008C016F009C017F008C0E6FF09C0E6FF12
:1035C000A3EC33F0B2DB020E71DB010EE66ECC0E23
:1035D000E66E990E9DDAE66A020EE66EF4DA71EC9A
:1035E0003FF0E5526FDB04DFA0DA020EE15C02E29D
:1035F000E16AE552E16EC2D2C7DA0A0EE12682EC38
:103600003EF00FDB73EC3EF0040EF3CFDBFF050E54
:10361000F4CFDBFFFFDAEE52EF500FE05CDBEFCFD1
:1036200014F0060E145C15E2D2DB55DBEF2A37DB13
:10363000E668E66895DAFCDA0CD04DDBEF5000085E
:1036400008E25BDA1F0E60DAEF0603E144DBEF0607
:1036500026DBE0DAEF5024E050DA1D0E92DB0008A2
:1036600025E23DDBEF5022E10CDB080EEECFDBFF65
:10367000090EEDCFDBFF05DB700EEE6E350EED6E45
:10368000A6DBFFDA080EDBCFEEFF090EDBCFEDFF86
:1036900034DA1D0E39DAEF0622DB320EEF6E06D079
:1036A0001EDBEF50000802E21ADBEF0652DA060ECC
:1036B00068DB1BE0DCDAEE06ED5AD5DA8EDA04E7D9
:1036C000FB0E145CFF0E155856E258DBD8801550DF
:1036D00004E7F60E145CFF0E155804E2C4DAF60E89
:1036E000EE6EED683DDA78D944D033DA070E49DB67
:1036F0001AE0BDDAEE2AED22B6DA78DA3CE21450AE
:103700000508000E155437E239DB153409E2145070
:103710000A08000E155404E2A6DA0A0EEE6EED6AEF
:103720001FDA5ED926D09FDA34DA0001800E151434
:1037300004E099DAEE2AEF2208D020DB153405E206
:103740008DDA03E290DAEE06EF5A18DB153404E363
:103750001450FB08FF0E15540EE285DAF4DAD89007
:10376000175004E6050E165C000E175804E2F8D94F
:103770003BD9E552E552EDD9040E03DB0DE0E8DA62
:103780002CDA04E7F30E145CFF0E155829E2E0DA98
:10379000F30EEE6EED6824D0DCD9050EF2DA0DE002
:1037A000D7DA24DA1DE214500D08000E155418E281
:1037B000CFDA0D0EEE6EED6A13D055DAEAD90001BC
:1037C000800E171404E0C4DAEE2AEF2209D0C0DA22
:1037D000EDD9153405E242DA03E2BADAEE06EF5A21
:1037E000CDDA040EB8DA0850EE261550ED22B0DA24
:1037F000DDD9030EB0DAE8DA0850EE261550ED22D6
:1038000036DAC7D90001800E151404E030DAEE6A0A
:10381000ED6A18D0A5D9ECEC2BF0E552E552060E76
:10382000B3DAECD90FE21450A008000E15540AE2E6
:10383000060EDB50146E156AA00EADDA14C0EEFF52
:1038400015C0EDFF14DAA5D90001800E171405E0AC
:103850000EDABADAEE6AED6A1AD082D9EFEC2BF002
:10386000E552E552070E90DAAFDAC8D910E21450EB
:10387000F508000E15540BE2070EDB50146E156AA6
:10388000F50E89DAA1DA14C0EEFF15C0EDFF87D975
:1038900010DAEAEC4AF06DDA000E146E0A0EE15C02
:1038A00002E2E16AE552E16E145068D16DD9040E6E
:1038B000E126220EE66EC4EC53F0E552B2D949D9A6
:1038C000120EEE6E340EED6E44D97EDAFB0EDBCFB7
:1038D000EEFFFC0EDBCFEEFFFD0EDBCFEEFFFE0EAC
:1038E000DBCFEEFF36D90C0E0FD9320EEE6E340E52
:1038F000ED6E2FD90E0E08D9760EEE6E340EED6EEB
:10390000F80EE66E350EE66E22EC4BF054D921D956
:10391000090ECCD915DD00DA1CD9060EC7D98BD912
:103920007AEC2CF0E552E55286D97EEC3AF043D998
:1039300010D9160EBBD90DD90B0EE6D8060EEF6EB8
:10394000A4D9D1D906D9180EDFD806C0EEFF15C00C
:10395000EEFF16C0EEFF17C0EEFFFBD81E0ED4D848
:10396000EF6AF7D8200ED0D8080EEF6EF2D8200EEE
:1039700008DAE66EEED815DAECD8210EC5D8320E8C
:10398000EF6EE7D81D0EC0D8050EEF6EE2D8120E0E
:10399000EB6A130EEB6ADDD8140EEB6A150EEB6AB8
:1039A000D8D81C0EB1D8EF6AD4D8100EADD83E0EC0
:1039B000EE6E350EED6E020EDBCF14F0030EDBCF94
:1039C00015F014C0F3FF15C0F4FF040EE15C02E231
:1039D000E16AE552E16ED2D071D9020EEF6ECED01F
:1039E0006DD9010EEF6ECAD069D9EF6AC7D0DFD9A1
:1039F0001C0EC7D9030820E080D81C0E85D8EF2AFA
:103A0000EF50030A12E0010A09E0030A15E139D96F
:103A10004C0EEE6E350E72D9070E0DD032D9580EFF
:103A2000EE6E350E6BD9060E06D02BD9640EEE6EF7
:103A3000350E64D9040EEF6EA1D07DD9FB0EDBCF1D
:103A4000E9FFFC0EDBCFEAFF120E9BD90D0DF35000
:103A5000DE6EDD6AFA0EDB500DE0D9CFE9FFDACF7A
:103A6000EAFF010E0F0B06E0EC52D890ED32EF3278
:103A7000E806FAE142D8120E47D8EE2AEF22A3D880
:103A80006FD8D6D8020EE15C02E2E16AE552E16E3F
:103A900075D07AD8D7D8153402E2E0D819E32DD8FA
:103AA000140E32D883D8FB0EDBCF16F0FC0EDBCF22
:103AB00017F0166C171E000E17221650145C1750C4
:103AC000155806E21AD8140EEB6A150EEB6A08D0E8
:103AD000B9D813D8140E18D81450EE261550ED226C
:103AE0004DD052D83DD883EC2BF0E552E552E1D8C9
:103AF00083EC2BF0E552E55241D0FD0EDBCFE9FF20
:103B0000FE0EDBCFEAFF1200E926000EEA221200C9
:103B1000E66EBBD8E552E55206C016F007C017F0B6
:103B200008C018F009C019F0EED0F3CF1CF0F4CFA4
:103B30001DF040D95BEC4CF01E6E0D0EE15E1E5088
:103B4000EBD8F90EDBCFE9FFFA0EDBCFEAFFDFEFB0
:103B50001EF0020EDBCFE9FF030EDBCFEAFF1200FF
:103B6000FD0EDBCFE6FFFE0EDBCFE6FF1200E66EBA
:103B7000F90EE66E54EC4DF062EF1EF0E552E7CF21
:103B8000D9FF1200B0D8BFD0D9CFE6FFE1CFD9FF1F
:103B90001200EECF14F0EECF15F0A3EF1EF0FB0EE7
:103BA000DBCFE6FFFC0EDBCFE6FF1200EECF14F01A
:103BB000EFCF15F01200E552E5528CEF1EF014C065
:103BC000F3FFF46E1200DECFE6FFDDCFE6FF12005A
:103BD000EECFE6FFEFCFE6FF1200EE06ED5AEECF96
:103BE00014F0EDCF15F0D88015501200EE2AED221A
:103BF000EECF14F0EDCF15F0153412001650EE2470
:103C0000146E1750EE20156EE8341200B6EC24F056
:103C1000B9EF1EF0040EDBCFE9FF050EDBCFEAFFA4
:103C20001200020EF3CFDBFF030EF4CFDBFF120016
:103C300030DFB9EF1EF0020EDBCFE6FF030EDBCF65
:103C4000E6FF1200FB0EDBCF14F0FC0EDBCF15F00D
:103C50001200186E060EE15E185012001450000893
:103C6000000E1554120049DF180E84EF1DF045DFD9
:103C7000E4EF1EF089DFE66A080EE66E350E88EF87
:103C80001DF03BDF100E84EF1DF0000EE66EE66ABD
:103C9000E66EE66ADEEC56F0E552E55212002DDFE4
:103CA000200E6FD8E66E29DFD1EF1EF02DDFDFEF9B
:103CB0001EF023DF160E28DFE8EF1DF078D8080E7F
:103CC00084EF1DF0E552E552F3CF1AF0F4CF1BF06C
:103CD00071D8E66A120011DF1E0E84EF1DF00DDFB1
:103CE000210E84EF1DF0E552E55206C014F007C026
:103CF00015F008C016F009C017F01200ED6EFDDED9
:103D0000200E84EF1DF006C0E6FF07C0E6FF08C0E6
:103D1000E6FF09C0E6FF1200F3CF14F0F4CF15F070
:103D2000120097DF50DFCFEF1DF045DFDECFE9FF58
:103D3000DDCFEAFF120028DF020EE1261200E66E58
:103D4000010EB7EF1DF0EECF16F0EFCF17F0120017
:103D50008ADFE4EF1EF00D6E0E6A14C008F015C085
:103D600009F0AFEC54F008C014F009C015F037EFBB
:103D70001EF0E552E552E552E552120074DFD6EF2F
:103D80001DF0C2DEEF501200F3CFDBFFDB50166EEA
:103D9000176A37EF1EF0D8801456000E155637EF0D
:103DA0001EF01F0EB1DEE552E750EF6E1200ECDEA2
:103DB0007DEF1DF0F3CFE6FFF4CFE6FF1200F3CF67
:103DC000EEFF15C0EDFF1200020E84EF1DF0E7DEDE
:0A3DD000C7DEA7EC50F0B9EF1EF0BB
:063DDA000F015D510AE13A
:103DE0000F01010E366FF60E346FB00E356F0F01F6
:103DF000010E5D6F320E146E0F0E14C0F3FFF46EE1
:103E0000120003EC23F0020EE12666EC23F0CBEC6B
:103E100023F015EC23F00BE05CEC23F061EC23F0D5
:103E200002EC54F0E552E5525CEC23F0F0D76DEC77
:103E300023F023EC55F0E552E552020EE15C02E27C
:103E4000E16AE552DBD3DFDB050EE126DF6A66ECD3
:103E500023F0020EC1DB010EEECFDBFF020EEDCF31
:103E6000DBFFD950010F4AEC23F022E074EC23F081
:103E7000030EEECFDBFF040EEDCFDBFFDFCFE6FF5F
:103E8000C6EC23F050EC23F0B5EC23F0030EDF2456
:103E9000E66EE66A020EE66EE66A030E50EC23F06A
:103EA0009BDBB5EC23F0050EDF2674EC23F0D2D7B4
:103EB000050EE15C02E2E16AE552A0D3A4DB060E46
:103EC000E12665EC37F07BEC23F0DF6A010EDB6A5C
:103ED0000A0EDF5C38E2EADB040EF3CFDBFF050EEF
:103EE000F4CFDBFF010EDBCFE6FFC6EC23F0B0DB47
:103EF000BAEC23F0ADDBD3EC23F0010EDB50030F63
:103F0000E66EE66A020EE66EE66AA2DBD7EC23F006
:103F1000BAEC23F0040EDBCFE6FF050EDBCFE6FFA5
:103F2000020EDBCFE6FF030EDBCFE6FFEBDBDF2A83
:103F3000050E146E010EDBCFE7FF1450E726010ECD
:103F4000E7CFDBFFC5D7020EDBCF14F0030EDBCFCC
:103F500015F014C0F3FF15C0F4FF060EE15C02E299
:103F6000E16AE5524BD34FDB130EE12636DFC3DBAC
:103F7000D950040FE96EDACFEAFF5F0EEE6EEE6AFB
:103F8000060EDB6A7EDBA80EE66E1A0EE66E7DEC90
:103F90003BF0E552E5520F0EF3CFDBFF100EF4CFEE
:103FA000DBFF110EDB6A120EDB6A010EE66E46ECD9
:103FB00028F0E55215DBEFDBEF5001E023D161DBA8
:103FC000D950FB0FE96EFF0EDA20EA6EEE50ED10CD
:103FD0005BE09CDBEE50EFCFEAFFE96E166EEACFB6
:103FE00017F0060EDB5000011624146E000EEA20B6
:103FF000156E070E14C0DBFF080E15C0DBFFF0DAEC
:10400000EE52EF500CE0060EDB5006E1020EF36EAE
:10401000060EF3CFDBFF53D0060EDB0650D0E0DAFE
:10402000EF5008E0060EDB2ADB50020848E2060EDD
:10403000DB6A45D0D5DA060ECFDAEF500EE0ACDA07
:10404000EF50410813E0A8DAEF50200803E1A4DAAA
:104050005A0E15D0A1DAEF0632D0C2DA070EBCDA5A
:10406000EF502DE099DAEF505A0803E195DA200E6F
:1040700006D092DAEF50200804E18EDA410EEF6E9E
:104080001ED08ADAEF2A1BD00A0EE66EAEEC4DF097
:10409000E552D950110FE96EDACFEAFF0A0EEE268B
:1040A000000EED22110EDBCF14F0120EDBCF15F057
:1040B000980E145C3A0E155802E3010EA9D0CFDA1F
:1040C000E5EC3BF0E552E552010EE66E000EE66EC1
:1040D000E66AE66EE66A4CDA20DB5DDBF2DA10ECCB
:1040E00043F0186E070EE15E1850000EE66EE66AA9
:1040F000B6DAEAEC4AF034DB460EDF6EFD0EDBCFBB
:10410000E9FFFE0EDBCFEAFF46DB090EEECFDBFF59
:104110000A0EEDCFDBFFD950090FBCDA69E067DA90
:104120000B0EEECFDBFF0C0EEDCFDBFFDFCFE6FF9C
:10413000E66A550E33DBE9CF18F0EACF19F0E9CF84
:10414000E6FFEACFE6FFD9EC30F01A6E060EE15E2C
:104150001A50DFCFE6FFE66A730E20DB28DBB1DA08
:1041600002EC31F0186E060EE15E1850FB0EDBCF4C
:1041700014F0FC0EDBCF15F0090EDB50141831E102
:104180000A0EDB5015182DE1DF04E66EE66AD3DA7D
:104190008FEC31F0E552E552F3CF1CF0F4CF1DF077
:1041A000060EDB501A6E1B6A086E1BC009F0F3CFB7
:1041B0000DF0F4CF0EF002EC55F006C018F007C079
:1041C00019F0550E1826000E192218C0E6FF19C066
:1041D000E6FFCED9B0DAD9EC30F01E6E060EE15E05
:1041E0001E50100EDF26090EDBCFE9FF0A0E8AD71C
:1041F000D950010FE66E000EDA20E66E56EC28F07C
:10420000E552D7D62CDA23EC55F0E552E552000EF4
:10421000146E130EE15C02E2E16AE55293D2F3D927
:10422000430EE126D9CFE9FFDACFEAFFEE6E500E5A
:10423000EE6E530E22DA4C0EEE6E480EEE6E200E2F
:104240001CDA5A0EEE6E430EEE6E200E16DA4A0E91
:10425000EE6E500EEE6E430E10DA450EEE6E4D0E03
:10426000EE6E530E0ADA530EEE6E590EEE6E420EDD
:1042700004DA450EEE6E430EEE6E450EFED9410E8B
:10428000EE6E420EEE6E430EF8D9580EEE6E590EDB
:10429000EE6E5A0EF2D9440EEE6E450EEE6E460EDE
:1042A000EE6EEE6A640EF36E280EF3CFDBFF290E7E
:1042B000DB6A630EF36E2A0EF3CFDBFF2B0EDB6A95
:1042C000620EF36E2C0EF3CFDBFF2D0EDB6A610E58
:1042D000F36E2E0EF3CFDBFF2F0EDB6A600EF36E54
:1042E000300EF3CFDBFF310EDB6A5F0EF36E320E62
:1042F000F3CFDBFF330EDB6A5E0EF36E340EF3CFCB
:10430000DBFF350EDB6A5D0EF36E360EF3CFDBFF9F
:10431000370EDB6A5C0EF36E380EF3CFDBFF390E1F
:10432000DB6A5B0EF36E3A0EF3CFDBFF3B0EDB6A0C
:1043300065EC37F03F0EF3CFDBFF400EF4CFDBFF31
:104340003C0EDB6A0A0EF36E3C0EDBCFF4FFF3503B
:10435000F45C43E2ABD9410EF3CFDBFF420EF4CF66
:10436000DBFF56D9F3500F0127D9E552E750EF6E26
:104370004FD9F32821D9010E2FD9E552E750EF6E1E
:1043800047D9F350020F18D906DAE552E750EF6E1D
:10439000F6D909DAD950280F166EDACF17F03C0E8D
:1043A000DB50020D1650F324E96EDA50F420EA6E69
:1043B000EECF14F0EFCF15F0E2D9F9D914C0EEFF2B
:1043C00015C0EDFF410EDBCFE6FF420EDBCFE6FF6F
:1043D0004DD998D93C0EDB2AB5D748D931D9D9CF98
:1043E000E6FFDACFE6FFD9EC46F0146E060EE15E8A
:1043F00014503CD9B0D9430EE15C02E2E16AE552C7
:10440000FDD001D9040EE12681D9C5D90ED923E00A
:1044100053D9020EEECFDBFF030EEDCFDBFFFD0E17
:10442000DBCF14F0FE0EDBCF15F077D9C0D9EECF7D
:1044300016F0EFCF17F01450165C1550175809E21C
:10444000DECF14F0DDCF15F014C0F3FF15C0F4FF7C
:1044500004D032D9DAD7F36AF46A040EE15C02E2DE
:10446000E16AE552CBD0CFD8030EE12627DDF3CFAA
:10447000DEFFF4CFDDFF000EE66EE66ADECFE6FF7C
:10448000DDCFE6FF65D9E76E020EE7CFDBFFDECFBB
:10449000E6FFDDCFE6FF5FD9020EDB50146E030EA0
:1044A000E15C02E2E16AE5524DD1ADD80B0EE126A6
:1044B00005DD030EF3CFDBFF040EF4CFDBFF85D861
:1044C0000CD99FDF4DD9050EF3CFDBFF060EF4CFDD
:1044D000DBFFD950050FDED843E0E8D8090EF3CF53
:1044E000DBFF0A0EF4CFDBFF82D861D9FD0EDBCFF4
:1044F000EEFFFE0EDBCFEDFF320EE66E47D977D82A
:1045000039D975D850D9090EDBCFE6FF0A0EDBCFBB
:10451000E6FF050EDBCFE6FF060EDBCFE6FF55D844
:10452000D5EC37F0146E060EE15E1450070EF3CF93
:10453000DBFF080EF4CFDBFF030EB2D84DD8C1D895
:1045400044D898EC37F00CD9070EDBCFE6FF080E05
:10455000DBCFE6FF3AD8FCD838D872D848D805D98E
:1045600034D8F9D80B0EE15C02E2E16AE55246D09C
:10457000DEEC56F0F5D806C014F007C015F008C000
:1045800016F009C017F006C0E6FF07C0E6FF08C036
:10459000E6FF09C0E6FF1200070EDBCFE9FF080EB9
:1045A000DBCFEAFF1200E9CF14F0EACF15F0E9CF34
:1045B000E6FFEACFE6FF1200D924E96E000EDA200A
:1045C000EA6EEF50E66EBFEF23F0030EDBCFE6FF9F
:1045D000040EDBCFE6FF1200E926000EEA221200ED
:1045E0000D0EDBCFE9FF0E0EDBCFEAFF1200090E46
:1045F000DBCFE9FF0A0EDBCFEAFF1200E16EE552E6
:10460000E7CFD9FF1200D9CFE6FFE1CFD9FF1200E3
:10461000D9CF14F0DACF15F03C0EDB50040D1200A8
:10462000166E060EE15E16501200EECFDEFFEDCFE5
:10463000DDFFD9CFE9FFDACFEAFFEE50ED1012002F
:1046400023EC1FF0E552E552320EE66EC6EF23F082
:10465000040EDBCFE9FF050EDBCFEAFF12000F0EE1
:10466000DBCFE6FF100EDBCFE6FF12003F0EDBCF05
:10467000E6FF400EDBCFE6FF1200EE6E5F0EEE6E41
:10468000120073EC3EF00D0EF3CFDBFF0E0EF4CFF5
:10469000DBFF1200E96EDACFEAFFEE50ED101200F8
:1046A000DBCFE9FF040EDBCFEAFF1200060EE66E59
:1046B000C4EC53F0E5521200DECFE9FFDDCFEAFF94
:1046C0001200EECFE6FFEFCFE6FF1200FD0EDBCFCC
:1046D000E9FFFE0EDBCFEAFF1200FD0EDBCFE6FFA7
:1046E000FE0EDBCFE6FF1200010EDBCFE9FF020E6C
:1046F000DBCFEAFF1200020EF3CFDBFF030EF4CF95
:10470000DBFF12007FEC37F0B0EF23F0FB0EDBCFC6
:10471000E9FFFC0EDBCFEAFF1200020EDBCFE9FF60
:10472000030EDBCFEAFF12000B0EDBCFE9FF0C0E0E
:10473000DBCFEAFF1200D950040FE66E000EDA203C
:10474000E66E1200E16E1450E552E7CFD9FF120079
:104750000ADCB0EF23F001EC1FF0E552E552120045
:10476000E552E552E552E55212001DDFD9EC46F064
:1047700010EF23F018DFBAEC46F010EF23F0410EF3
:10478000DBCFE9FF420EDBCFEAFF1200E66A030E41
:10479000E66EE66A1200020EECEF22F0E66EE66AC2
:1047A000E7DE94EF23F0030E17DFEF6A1200040E2A
:0447B000ECEF22F018
:0C47B400ECDA020EE12698DB8ADB02E062
:1047C0005DDBFCD797DB85DB02E058DBFCD7ADDB9C
:1047D00080DB02E053DBFCD7ACDB7BDB02E04EDBB3
:1047E000FCD7ABDB76DB02E049DBFCD7AADB71DB75
:1047F00002E044DBFCD7A9DB6CDB02E03FDBFCD74B
:1048000084DA030ED7DB050ED5DB070ED3DB090EEA
:10481000D1DB0B0ECFDB0D0ECDDB0F0ECBDB150E80
:10482000C9DB170EC7DB190E77DAACDA23DBAADA9D
:104830006CDA130E71DA49EC55F0E552E552020ECE
:10484000E15C02E2E16AE552E16EA6D2A0DA060E70
:10485000E1261D0EE66EC4EC53F0E552D7DAFEDA1F
:10486000B40EEE6E470EED6ECCDB030E7CDA7BDA17
:10487000070E79DA090E77DA0B0E75DA0D0E73DA98
:104880000F0EA8DA130E19DBFB0EDBCFEEFFFC0ECA
:10489000DBCFEDFFE3DA110E10DBFD0EDBCFEEFF19
:1048A000FE0EDBCFEDFFB4EC2CF006C0DEFF07C040
:1048B000DEFF08C0DEFF09C0DDFFDD52DD52B2DBE6
:1048C00099DA010E0F0B05E0D89015321432E80684
:1048D000FBE196DA1450EE261550ED22D9CFE9FF10
:1048E000DACFEAFFEECFE6FFEECFE6FF70DB9ADB32
:1048F00090EC2CF045DBE60EE66EE66A820E4EDBAF
:10490000B5EC48F056DA150E72DBE60EE66EE66A96
:10491000010E44DB4DEC4AF04CDA170E68DB030E57
:10492000E66EE66A9B0E3ADB50EC49F042DA190E6D
:1049300051DA1B0E5BDA1C0E59DA56DB010EEF6EF4
:10494000040EDBCF14F0050EDBCF15F014C0F3FF1F
:1049500015C0F4FF060EE15C02E2E16AE552E16E89
:104960001BD215DAD2D9020E38DA16D275DA030E56
:104970008FD272DA050E8CD26FDA070E89D26CDA1A
:10498000090E86D269DA0B0E83D266DA0D0E80D25A
:1049900063DA0F0E7DD256DA030E7FD253DA050E9C
:1049A0007CD250DA070E79D24DDA090E76D24ADA85
:1049B0000B0E73D247DA0D0E70D244DA0F0E6DD2A1
:1049C000E6D9050EE126A1D9E0DAA6D9E5EC3BF05F
:1049D000E552E552B6DAB9D902E0AAD9FCD7B5DA80
:1049E000B4D902E0A5D9FCD7A0DAAFD902E0A0D9AA
:1049F000FCD79FDAAAD902E09BD9FCD77BDAA5D9EC
:104A000002E096D9FCD7F6DA05E134DA71EC1DF054
:104A1000E552E5526BDA99D902E08AD9FCD78DDAF2
:104A200094D902E085D9FCD770D9170E6EDA150E2D
:104A30006CDA190E71D99EEC49F0E552E552020E7E
:104A4000E66EE66A2FDA85DA140E66D9E6D9110E1B
:104A5000E66EE66A020E26DA58D997DA5FD90B0EAF
:104A60005BD9DBD91F0EE66EE66A020E1BDA30EC6C
:104A700054F0F3CF18F0F4CF19F0F3CFE6FFF4CFF2
:104A8000E6FF02EC31F01A6E060EE15E1A50050EDA
:104A9000E15C02E2E16AE552E16E7ED178D9040E72
:104AA000E12633D91B0E99D936E03BD952DA160EDE
:104AB00033D9A3DA2AD91C0E00DAEF2AEF50020804
:104AC0002EE1D8D997D9D89014361536F00ED88063
:104AD0001456000E1556020E14C0DBFF030E15C04F
:104AE000DBFF37DA81DA80DAEE06ED5AEECF14F02A
:104AF000EDCF15F0020EDB50141808E1030EDB5069
:104B0000151804E102D91B0ED8D9EF6AFED81C0E85
:104B1000D4D9EF6A04D06EDA02E17CDA6EDA01D918
:104B2000F4D8170ECED9150ECCD92FDACAD9130E58
:104B3000F3D81BEC52F004D9D9D918D91DD908E003
:104B400094D904E19FD927DFC1D9F8D737DAF5D74F
:104B5000D1D90CD911D908E088D904E193D91EDF45
:104B6000B5D9F8D72BDAF5D7E0D900D905D908E0BF
:104B70007CD904E187D915DFA9D9F8D71FDAF5D791
:104B8000D8D9F4D8F9D808E070D904E17BD90CDF82
:104B90009DD9F8D713DAF5D7D8D9E8D8EDD808E0F9
:104BA00064D904E16FD909DF91D9F8D707DAF5D7CD
:104BB000C4D9DCD8E1D808E058D904E163D9F7DEDC
:104BC00085D9F8D7FBD9F5D7BCD9D0D8D5D808E046
:104BD0004CD904E157D9EEDE79D9F8D7EFD9F5D71A
:104BE00009DA08E083D900DAEE50ED1003E18DD840
:104BF000FBD9EF6A040EE15C02E2E16AE552E16E84
:104C0000CBD0C5D8070EE12675D9EED9020EEECF6E
:104C1000DBFF030EEDCFDBFFF3D8EE50ED1031E0FC
:104C2000060EDB6A72D8070E77D8AAD889EC40F056
:104C30004DD9A2D81CE075D8A3D893D8C6D80B0EEE
:104C4000CCD8E66E9DD88BEC50F0E552E552E5529B
:104C5000000906E0010EF36E060EF3CFDBFF5CD910
:104C600061D90E0EBAD803E10DD99BDE69D8060EC4
:104C7000DB5005E0E66ACAD92FD9D6D8CDD73ED9C0
:104C8000C4D7B8D93BE141D8090E9DD91FD974D8F2
:104C900009E0C0D966D899D80E0E9FD803E1F2D8A2
:104CA00083DE4ED832D80F0E8ED94AD8AFD8D9501D
:104CB000040FE96E6ED90FE0ADD9D0D888D97FEC5A
:104CC0004FF05ED9040EDBCFE6FF050EDBCFE6FF2B
:104CD00028D873DE35D819D8050E75D931D8A4D89F
:104CE0008FD8EE50ED100AE009D997D9130E75D878
:104CF00005E1010EE66E8AD90FD9EED8070EE15C08
:104D000002E2E16AE552E16E47D0FD0EDBCFE9FF3A
:104D1000FE0EDBCFEAFF1200D0D81FD1CED80DEFA8
:104D200028F0FD0EDBCFE6FFFE0EDBCFE6FF120024
:104D300020D94DD983EC2BF0E552E552B9EF27F09D
:104D4000E552E552E552E55212004ED9030EEECF80
:104D5000DBFF040EEDCFDBFFD950030FE96EC9EF87
:104D600027F02CD9FAD043D901EF28F03DD9EECF66
:104D7000DEFFEDCFDDFF1200D9CFE9FFC9EF27F04D
:104D8000BDD8EBD023EC55F0E552E5521200D9CF57
:104D9000E6FFE1CFD9FF1200E552E7CFD9FF1200BD
:104DA00006C0E6FF07C0E6FF08C0E6FF09C0E6FF51
:104DB00012001A6E060EE15E1A50D1D82EEF27F0BF
:104DC000F3CFDEFFF4CFDDFF1200B4EC4CF0D8D807
:104DD00092EF27F00CD92EEF27F06FD8EF5012008A
:104DE0009FEC50F0E552E5520009120066D8EF6AD8
:104DF0002EEF27F0EFEC2BF0E552E552AFEF27F066
:104E0000D950020FE96EDACFEAFF1200040EF3CF99
:104E1000DBFF050EF4CFDBFF120002EC31F0186E61
:104E2000060EE15E18501200020EF3CFDBFF030EF8
:104E3000F4CFDBFF12001DEC1DF0146E050EE15ED9
:104E400014501200A4DFFB0EDBCFE9FFFC0EDBCF1A
:104E5000EAFFBDD897DFC0D09ADFBED0040EDBCF0B
:104E6000E9FF050EDBCFEAFF12005BDF7ADFC5D872
:104E7000010812004ADF110E8CEF26F072DF82DF8C
:104E8000DEEF27F0DECFE6FFDDCFE6FF91EF26F085
:104E900043DF7FEC37F054DF7FD73EDF98EC37F00D
:104EA0004FDF7AD7C3D806C014F007C015F008C08A
:104EB00016F009C017F0D0EF26F0E926000EEA221E
:104EC00012002ADF9AD82DDF85EF26F039DFE0EFD8
:104ED00026F04CDFBCEF26F0020EDBCFE6FF030E20
:104EE000DBCFE6FF1EDF5ADDA0EF26F00EDF030E5C
:104EF0008EEF26F00ADF050E8EEF26F0020EDBCFD6
:104F0000E9FF030EDBCFEAFF120006DF83EC2BF094
:104F1000E552E55285EF26F004DF32DF5FEC50F01A
:104F2000A0EF26F04BD80DEF28F0EFDE070E8EEF46
:104F300026F0EBDE090E8EEF26F0E7DE0B0E8EEF8D
:104F400026F0E3DE0D0E8EEF26F0DFDE0F0E8EEF85
:104F500026F0DBDE110E8EEF26F0E7EF27F0F3CF21
:104F600014F0F4CF15F01200F3CFEEFF15C0EDFFF3
:104F70001200030EDBCFE9FF040EDBCFEAFF1200C5
:104F8000146E060EE15E14501200130EC7DE020E00
:104F90001200DACFEAFFEE50ED10120047D806C03B
:104FA00016F007C017F008C018F009C019F0F8DEB5
:104FB00012EF28F0B1DEE6DE85EF26F0DECFE9FF66
:104FC000DDCFEAFF1200A8DE55DF89EF40F0EECF1B
:104FD000E6FFEFCFE6FF1200FB0EDBCFE6FFFC0E95
:104FE000DBCFE6FF85EF26F0020E5DEF27F065DFF1
:104FF000B4EF27F03FDFF0EF26F0EAEC4AF0A0EF45
:1050000026F065EC37F0ABDF2EEF27F0B9DE32DFAC
:105010001BEF27F086DE3AEF27F0EE50EFCFEAFFE6
:10502000E96E12001BDF110E8CEF26F0E66EE66AC9
:08503000DEEC56F0A0EF26F0C3
:085038008ADA020E24DB8CDA97
:10504000FEE12DDB89DAFEE1826A6EDA18D37FDABF
:10505000050E19DB81DAFEE1040E21DB7DDAFEE1CB
:10506000030E826E61DA0BD372DA060E6AD26FDA41
:10507000070E67D26CDA080E826EFE0EDB5003E07C
:10508000010E816E01D0816A2EDBF9D260DA090E41
:10509000826EFE0EDB5003E0010E816E01D0816A4C
:1050A00022DBA5D9ECD253DA0B0E4BD250DA0A0E22
:1050B000826E91DAEF5005E08EDAEF6A010E816EB2
:1050C00004D089DA010EEF6E816A806E806AD7D2D1
:1050D000020E806E806A83AEFED7120038DA70DA74
:1050E000DBCF17F0E1504BDA030EEBCFF3FF175095
:1050F000F318E8AE02D0F33408D0EE50145CEE5052
:105100001558EE501658EE5017580BE2FB0EDBCF39
:1051100014F0FC0EDBCF15F0FD0EDBCF16F0FE0E0B
:1051200001D04EDADBCF17F063DAA9D210DAA2DAB7
:1051300059DAD95024DA1ADA89DAF00EE66E94DFF9
:10514000E552A00EE66E93DFE552E66A93DFE55284
:10515000BFDF95D2FCD9100EE126D95010DA040E2B
:10516000EECFDBFF050EEECFDBFF060EEECFDBFF53
:10517000070EEECFDBFFF90EDBCF08F0FA0EDBCF28
:1051800009F0080E08C0DBFF090E09C0DBFFF70EAF
:10519000DBCF08F0F80EDBCF09F00A0E08C0DBFF0A
:1051A0000B0E09C0DBFFF90EDBCF16F0FA0EDBCFDA
:1051B00017F0F50EDB501624146EF60EDB50172098
:1051C000156E0C0E14C0DBFF0D0E15C0DBFF44DAAC
:1051D000153410E21450A008000E15540BE23CDA0E
:1051E000A00E145E000E155A68DA01E3EFD011DA52
:1051F00001E3ECD0F50EDBCF14F0F60EDBCF15F0AB
:105200000001800E151411E05DDA166A176A15AEFA
:1052100002D016681768F5D9145008DA53DA4DDA57
:1052200001E3D4D0F6D901E3D1D0F70EDBCF16F0ED
:10523000F80EDBCF17F0F30EDB501624146EF40ECD
:10524000DB501720156E0E0E14C0DBFF0F0E15C0BD
:10525000DBFF09DA153410E21450F008000E155483
:105260000BE201DAF00E145E000E155A31DA01E39A
:10527000ADD0CFD901E3AAD0F30EDBCF14F0F40EFA
:10528000DBCF15F0800E151421E027DA166A176AB5
:1052900015AE02D016681768A00E0B6E0C6A0D6A68
:1052A0000E6AA6D97BEC56F002C014F003C015F0CC
:1052B00004C016F005C017F0A4D90250B7D90DDA12
:1052C00007DA01E383D0A5D901E380D0D3D9F30E67
:1052D000DBCF1CF0F40EDBCF1DF01E6A1F6A1DAE83
:1052E00002D01E681F681CC0E6FF1DC0E6FF1EC07E
:1052F000E6FF1FC0E6FFF2DE206E080EE15E2050E2
:1053000006C018F007C019F008C01AF009C01BF059
:10531000A00E0B6E0C6A0D6A0E6A7BEC56F002C092
:1053200018F003C019F004C01AF005C01BF002C049
:10533000E6FF03C0E6FF04C0E6FF05C0E6FF9AD91A
:10534000F50EDBCF21F0F60EDBCF22F0236A246AC4
:1053500022AE02D02368246821C0E6FF22C0E6FF07
:1053600023C0E6FF24C0E6FFB9DE256E080EE15E2D
:105370002550E552E7CF1BF0E552E7CF1AF0E55292
:10538000E7CF19F0E552E7CF18F018500624146E55
:1053900019500720156E1A500820166E1B50092050
:1053A000176E02D983D92DD9E1D850D90A0EDBCF97
:1053B000E6FF5ADEE552080EDBCFE6FF58DEE55287
:1053C000F20EDBCFE6FF56DEE55282DE100EE15C28
:1053D00002E2E16AE5521BD1070EC16E926A936A3E
:1053E000946A9568806A816A826A836A1200AFD87B
:1053F000040EE126030EDB6ADF6A030EDF5C43E284
:10540000010EDB6A020EDB6A010EDBCF14F0020E26
:10541000DBCF15F0D890155004E6F00E145C000EAA
:10542000155826E2E66A010EDBCFE6FF020EDBCF5F
:10543000E6FF000EE66EE66A180EE66EE66AA00E5D
:10544000E66EE66A800EE66E6F0EE66E0B0EE66E98
:10545000E66A80DE146E0D0EE15E1450D950010F25
:10546000E96EDACFEAFF180EEE26000EED22CCD759
:10547000D950030FE66E000EDA20E66E17DEE55215
:10548000E552DF2ABAD7040EE15C02E2E16AE55296
:10549000BED05DD80E0E55D00C0E826E010E816E00
:1054A000806E806A12000C0E826E816A73EF2BF0A0
:1054B0004ED8040EE126FB0EDBCF18F0FC0EDBCF3E
:1054C00019F0A00E1902F3CF19F01802F3CF18F05B
:1054D000F4501926FD0EDB50F324146EFE0EDB5043
:1054E0001920156E166A176A15AE02D0166817686D
:1054F0005BD8D2DFFA0EDBCFE6FFCBDFE552010E41
:10550000E66EB8DDE552D2D8020EE66EADDDE552AC
:10551000040EE66EACDDE552DBDDC5DF040EE15CBA
:1055200002E2E16AE55273D0FB0EDBCF14F0FC0E11
:10553000FD0EFE0E156A166A176A1450816E73EF1F
:105540002BF0826EFE0EDB50816ECDD898D0D9CF75
:10555000E6FFE1CFD9FF1200D890030EEB32020E26
:10556000EB32010EEB32EF32E7061200EECFE6FF30
:10557000EECFE6FFEECFE6FFEFCFE6FF1200FB0F28
:10558000E96EFF0EDA20EA6E1200E96EDACFEAFF6A
:105590001450EE5E1550ED5A1200DBCF15F0146C6E
:1055A000151E000E1522120014C0DFFF010E15C0DB
:1055B000DBFF020E16C0DBFF030E17C0DBFF12007D
:1055C000F70EDBCF14F0F80EDBCF15F0F90EDBCFC2
:1055D00016F0FA0E1200FD0EDBCFE9FFFE0EDBCF58
:1055E000EAFF120034DDE552E552E552E5521200C1
:1055F00014C006F015C007F016C008F017C009F077
:105600001200D950040FE96EDACFEAFF1200E16E02
:1056100036D014500008000E15541200080EDBCFCF
:1056200014F0090EDBCF15F015341200EE261550DC
:10563000EE221650EE221750EE2212000A0EDBCF99
:1056400014F00B0EDBCF15F015341200F5DCE5522B
:10565000E552E552E55212000C0EDBCF14F00D0EB0
:10566000DBCF15F012000E0EDBCF14F00F0EDBCFE8
:1056700015F01200E66AE66AE66AE66A1200E5528A
:10568000E7CFD9FF1200826EFB0EDBCF14F014506F
:10569000816E29D8E15073DF080EE76E1200826E2A
:1056A00043DFD9506CDF080EE76E1200D9CFE9FF57
:1056B000DACFEAFF5BDFF2EF2AF0D950080F65DF9F
:1056C0000EEF2BF0F50EDBCF14F0F60ECDEF2AF037
:1056D000D9500A0F5ADF1EEF2BF0F30EDBCF14F078
:0E56E000F40ECDEF2AF0010E806E806A1200EB
:0256EE006ED973
:1056F00094D99CDAC2D98ED9EF50090DB8D914C00B
:10570000F3FFF46E68D162D9020EE12646D9EFDFCD
:105710008ED9DECFF6FFDDCFF7FF080EF626000E9E
:10572000F7220800F550E66E35D9EECFE6FFEECF52
:10573000E6FFEECFE6FFEFCFE6FFDECFE6FFDDCF01
:10574000E6FF10EC43F0146E070EE15E1450020EFB
:10575000E15C02E2E16AE552E16E3DD137D9020E29
:10576000E126090EE66EC4EC53F0E552F3CFDEFFFE
:10577000F4CFDDFF87D9400EEE6EAA0EED6E82D912
:10578000060EE926000EEA22FD0EDBCFEEFFFE0E2E
:10579000DBCFEDFF77D9080EE926000EEA22FC0EDA
:1057A000DBCFEFFF6FD942DAF80EDBCFEEFFF90E59
:1057B000DBCFEEFFFA0EDBCFEEFFFB0EDBCFEEFF13
:1057C000DECF14F0DDCF15F062D9020EE15C02E20B
:1057D000E16AE552E16EFFD0CDD9040EA9D1CAD954
:1057E000060EA6D10CDAEECF16F051D9F4D007DAB6
:1057F00044D916C0F3FF17C0F4FFEDD089D9B7D94B
:10580000EBDFAED185D912DAB2D9E9DFA9D1E5D97A
:1058100002E014D9FEE167D996D902E00FD9FEE182
:10582000B0D902E2E16AE552E16ED5D0D6D902E004
:1058300005D9FEE158D9A8D902E2E16AE552E16E44
:10584000CAD0CBD902E0FAD8FEE14DD9A0D902E204
:10585000E16AE552E16EBFD0C4D975D902E0EED855
:10586000FEE18FD902E2E16AE552E16EB4D0BDD922
:105870006AD902E0E3D8FEE184D902E2E16AE552A6
:10588000E16EA9D0AED983D902E2E16AE552E16EB8
:10589000A2D0ABD97CD902E2E16AE552E16E9BD09D
:1058A000A0D972D902E2E16AE552E16E94D09DD9A5
:1058B0006BD902E2E16AE552E16E8DD06BD9EF2A35
:1058C000EFCF14F05BD9EF50145C06E366D812D822
:1058D000E552E552010E01D0000E7DD05BD9EF50AC
:1058E00006E15BD80AD8E552E552010E02D092D803
:1058F000EF0671D04FD9EF6A6ED068D83FD9EF0468
:10590000E66E88D8E552E750EF6E65D0FCD802E02D
:1059100095D8FEE152D980D902E090D8FEE145D178
:10592000F2D802E08BD8FEE148D9E4D0ECD802E00E
:1059300085D8FEE142D9B0D072D96ED902E07ED8C6
:10594000FEE133D1B5D868D902E078D8FEE12DD197
:1059500066D9A2D0ADD8A0D062D9CCD0A9D8CAD0AF
:10596000780E1BD1000E19D1F00E17D1780EE66E0D
:10597000E66A000E34D0780E14D1F00EE66EE66AB8
:10598000000E2DD0F00E0DD1000EE66EE66A27D087
:10599000000E07D1DED8020E45D1FD0EDBCFE6FFAB
:1059A000FE0EDBCFE6FF1200E552E552020EF3CF0A
:1059B000DBFF030EF4CFDBFFAED0E552E552F3CFB1
:1059C00016F0F4CF17F0010E0F0B1200D9CFE6FF3F
:1059D000E1CFD9FF1200E552E7CFD9FF1200E66E02
:1059E000E66ADEEC56F0E552E552E552E552120069
:1059F0001DD90BD9020E14C0DBFF030E15C0DBFF4F
:105A00008AD0E552E552E552E7CF17F0E552E7CFED
:105A100016F012009ED8080E05D19BD8060EE92676
:105A2000000EEA22EE50EFCFEAFFE96E1200E552D7
:105A3000E552F3CFDEFFF4CFDDFF1200D89017322E
:105A40001632E806120014C0EEFF15C0EDFF12007A
:105A5000F90EDBCFEEFFFA0EDBCFEDFF120047DED3
:105A6000E552E552F3CFF6FFF4CFF7FF12001650E0
:105A7000F324146E1750F4201200EECF16F0EFCF7F
:105A800017F01200DECFE9FFDDCFEAFF120014C0ED
:105A9000F3FF15C0F4FF1200FB0EDBCF16F0FC0E77
:105AA000DBCF17F0A6D89BDE8FD8C0D8CCDF93D73A
:105AB0008DDFF90EDBCF16F0FA0EDBCF17F099D899
:105AC0008BDE82D823EF2DF0DBCF09F01650085C77
:105AD000146E17500958156ECAEF2CF077DF040EBC
