:020000040000FA
:06000000B0EF58F0120001
:06000800C4EF4DF01200F0
:06002A00090053B20000C2
:10003000A8000000010000004FB20000FC01000019
:10004000040000004DB20000A30000000200000008
:100050004CB20000A7000000010000004BB20000FD
:10006000A6000000010000007CB1000000020000BA
:10007000CF0000007BB10000A500000001000000DF
:100080007AB10000FF0D00000100000078B100000F
:08009000FE0200000200000066
:08009800D9CFE6FFE1CFD9FF4B
:1000A000140EE126180EF36E070EF3CFDBFF080ED9
:1000B000DB6AA00EF36E050EF3CFDBFF060EDB6AE4
:1000C0000A0EDB6A0B0EDB6A0C0EDB6A0D0EDB6AB6
:1000D0000F0EDB6A010EF36E0E0EF3CFDBFFFE0E8A
:1000E000DB5012E1800EF36E010EF3CFDBFF6F0EDB
:1000F000F36E020EF3CFDBFF0B0EF36E030EF3CFA6
:10010000DBFF040EDB6A40D0FE0EDB0412E1800E42
:10011000F36E010EF3CFDBFF7E0EF36E020EF3CF14
:10012000DBFF0B0EF36E030EF3CFDBFF040EDB6A77
:100130002BD0FE0EDB50020812E1800EF36E010E92
:10014000F3CFDBFF8D0EF36E020EF3CFDBFF0B0E52
:10015000F36E030EF3CFDBFF040EDB6A15D0FE0E49
:10016000DB50030811E1800EF36E010EF3CFDBFFCD
:100170009C0EF36E020EF3CFDBFF0B0EF36E030E3D
:10018000F3CFDBFF040EDB6ADF6A0A0EDF5C15E2E9
:10019000D950010FE66E000EDA20E66EDEEC55F067
:1001A000E552E552D9500C0FE96EDACFEAFF180E8E
:1001B000EE26000EED22DF2AE8D7140EE15C03E202
:1001C00000D0E16AE552E16EE552E7CFD9FF1200B7
:1001D000D9CFE6FFE1CFD9FFE652DF6A040EDF5C3C
:1001E0000BE2DFCFE6FF58DFE552320EE66EA5ECFC
:1001F00052F0E552DF2AF2D7FA0EE66EA5EC52F085
:10020000E552FA0EE66EA5EC52F0E552DF6A040EF6
:10021000DF5C0DE2030ED880DF54E66E3DDFE55271
:10022000320EE66EA5EC52F0E552DF2AF0D700D090
:10023000E552E552E7CFD9FF1200D9CFE6FFE1CF73
:10024000D9FF610EE126DF6A010EDB6A020EDB6A6E
:10025000580EF36E030EF3CFDBFF020EF36E040EA7
:10026000F3CFDBFF050EDB6A0B0EF36E080EF3CF48
:10027000DBFF090EDB6AA00EF36E060EF3CFDBFF89
:10028000070EDB6A0B0EDB6A0C0EDB6A3F0EF36EA9
:100290000D0EF3CFDBFF0E0EDB6A100EDB6A010ED4
:1002A000F36E0F0EF3CFDBFFA00EF36E150EF3CF40
:1002B000DBFF6C0EF36E160EF3CFDBFF020EF36E58
:1002C000170EF3CFDBFF180EDB6A1B0EF36EF3CFB6
:1002D000DBFF1C0EDB6A1F0EF36E190EF3CFDBFF84
:1002E0001A0EDB6A0E0EF36E1E0EF3CFDBFF1F0E2F
:1002F000DB6A870EF36E200EF3CFDBFF210EDB6A85
:10030000230EDB6A010EF36E220EF3CFDBFF280E05
:10031000DB6AC20EF36E290EF3CFDBFF010EF36E24
:100320002A0EF3CFDBFF2B0EDB6A1B0EF36E2E0EB5
:10033000F3CFDBFF2F0EDB6A1F0EF36E2C0EF3CF15
:10034000DBFF2D0EDB6A0E0EF36E310EF3CFDBFFFB
:10035000320EDB6A870EF36E330EF3CFDBFF340E03
:10036000DB6A360EDB6A010EF36E350EF3CFDBFF70
:10037000400EF36E3B0EF3CFDBFF9A0EF36E3C0E96
:10038000F3CFDBFF020EF36E3D0EF3CFDBFF3E0E2D
:10039000DB6A060EF36E410EF3CFDBFF420EDB6A23
:1003A0002D0EF36E3F0EF3CFDBFF400EDB6A330EF4
:1003B000F36E440EF3CFDBFF450EDB6A860EF36E61
:1003C000460EF3CFDBFF470EDB6A490EDB6A010EF8
:1003D000F36E480EF3CFDBFF4E0EDB6A9E0EF36E1C
:1003E0004F0EF3CFDBFF020EF36E500EF3CFDBFFA9
:1003F000510EDB6A1A0EF36E540EF3CFDBFF550E6F
:10040000DB6A4F0EF36E520EF3CFDBFF530EDB6A47
:10041000490EF36E570EF3CFDBFF580EDB6A4C0E1E
:10042000F36E590EF3CFDBFF5A0EDB6A5C0EDB6A0C
:10043000010EF36E5B0EF3CFDBFF0101940E006F34
:10044000AE0E016F020E026F036B0F0E066F076B8D
:100450002F0E046F056B0A0E096F0A6B510E0B6F9E
:100460000C6B0E6B010E0D6F800E136F7D0E146FF3
:10047000020E156F166B2E0E196F1A6B2B0E176F5F
:10048000186B1B0E1C6F1D6B820E1E6F1F6B010EF7
:10049000216F206FE66A00DEE552010EE66E3EEC4B
:1004A00053F0E552000903E0010E9AEF08F0010E47
:1004B000E66E7EEC58F0E552F40EE66E09EC53F071
:1004C000E552000903E0010E9AEF08F0D950020F3F
:1004D000E66E000EDA20E66EDEEC55F0E552E552EF
:1004E000FA0EE66E09EC53F0E552000903E0010E46
:1004F0009AEF08F0E00EF36E020EF3CFDBFF5E0E14
:10050000F36E030EF3CFDBFF020EF36E040EF3CF98
:10051000DBFF050EDB6AE66ABFDDE552D950020F4C
:10052000E66E000EDA20E66EDEEC55F0E552E5529E
:10053000FA0EE66E09EC53F0E552000903E0010EF5
:100540009AEF08F0C00EF36E020EF3CFDBFF650EDC
:10055000F36E030EF3CFDBFF020EF36E040EF3CF48
:10056000DBFF050EDB6AE66A97DDE552D950020F24
:10057000E66E000EDA20E66EDEEC55F0E552E5524E
:10058000020EE66E3EEC53F0E552000903E0010E68
:100590009AEF08F0E66A80DDE552020EE66E3EEC68
:1005A00053F0E552000903E0010E9AEF08F0DF6A0C
:1005B000050EDF5C2BE2D950280FE66E000EDA2024
:1005C000E66EDEEC55F0E552E552D950150FE66EB9
:1005D000000EDA20E66EDEEC55F0E552E552D95019
:1005E000150FE96EDACFEAFF200EEE26000EEE229E
:1005F000EE22EE22640EE66E09EC53F0E55200099D
:1006000003E0010E9AEF08F0DF2AD2D7DE521E0E69
:10061000DD6EDF6A050EDF5C6CE2D9503B0FE66EE3
:10062000000EDA20E66EDEEC55F0E552E552D950C8
:100630003B0FE96EDACFEAFF2E0EEE26000EEE2219
:10064000EE22EE22010EDBCFE6FF09EC53F0E5527D
:10065000000903E0010E9AEF08F0D9503B0FE66E57
:10066000000EDA20E66EDEEC55F0E552E552D95088
:100670003B0FE96EDACFEAFF2E0EEE26000EEE22D9
:10068000EE22EE22010EDBCFE6FF09EC53F0E5523D
:10069000000903E0010E9AEF08F0D9503B0FE66E17
:1006A000000EDA20E66EDEEC55F0E552E552D95048
:1006B0003B0FE96EDACFEAFF5C0EEE5E000EEE5AFB
:1006C000EE5AEE5A010EDBCFE6FF09EC53F0E5528D
:1006D000000903E0010E9AEF08F00F0E146E010EF0
:1006E000DBCFE7FF1450E726010EE7CFDBFFDF2A61
:1006F00091D7DE52140EDD6EDF6A050EDF5C6CE210
:10070000D9503B0FE96EDACFEAFF5C0EEE26000E01
:10071000EE22EE22EE22D9503B0FE66E000EDA20DA
:10072000E66EDEEC55F0E552E552D9503B0FE96E2E
:10073000DACFEAFF2E0EEE5E000EEE5AEE5AEE5AB9
:10074000010EDBCFE6FF09EC53F0E552000903E0B0
:10075000010E9AEF08F0D9503B0FE66E000EDA203A
:10076000E66EDEEC55F0E552E552D9503B0FE96EEE
:10077000DACFEAFF2E0EEE5E000EEE5AEE5AEE5A79
:10078000010EDBCFE6FF09EC53F0E552000903E070
:10079000010E9AEF08F0D9503B0FE66E000EDA20FA
:1007A000E66EDEEC55F0E552E552010EDBCFE6FFDA
:1007B00009EC53F0E552000903E0010E9AEF08F04E
:1007C0000F0E146E010EDBCFE7FF1450E726010E6B
:1007D000E7CFDBFFDF2A91D7DE52960EDD6EDF6AB0
:1007E000030EDF5C6CE2D9503B0FE66E000EDA20A0
:1007F000E66EDEEC55F0E552E552D9503B0FE96E5E
:10080000DACFEAFF2E0EEE26000EEE22EE22EE22C8
:10081000010EDBCFE6FF09EC53F0E552000903E0DF
:10082000010E9AEF08F0D9503B0FE66E000EDA2069
:10083000E66EDEEC55F0E552E552D9503B0FE96E1D
:10084000DACFEAFF2E0EEE26000EEE22EE22EE2288
:10085000010EDBCFE6FF09EC53F0E552000903E09F
:10086000010E9AEF08F0D9503B0FE66E000EDA2029
:10087000E66EDEEC55F0E552E552D9503B0FE96EDD
:10088000DACFEAFF5C0EEE5E000EEE5AEE5AEE5A3A
:10089000010EDBCFE6FF09EC53F0E552000903E05F
:1008A000010E9AEF08F03C0E146E010EDBCFE7FF4D
:1008B0001450E75E010EE7CFDBFFDF2A91D7D95056
:1008C0004E0FE66E000EDA20E66EDEEC55F0E552D5
:1008D000E552000EE66E010EE66EDEEC55F0E552D6
:1008E000E552DE520A0EDD6EDF6A020EDF5C6AE25E
:1008F000D9503B0FE66E000EDA20E66EDEEC55F0C6
:10090000E552E552D9503B0FE96EDACFEAFF2E0EE1
:10091000EE26000EEE22EE22EE22010EDBCFE6FFE7
:1009200009EC53F0E552000903E0010E9AEF08F0DC
:10093000D9503B0FE66E000EDA20E66EDEEC55F085
:10094000E552E552D9503B0FE96EDACFEAFF2E0EA1
:10095000EE26000EEE22EE22EE22010EDBCFE6FFA7
:1009600009EC53F0E552000902E0010EE3D3D9503F
:100970003B0FE66E000EDA20E66EDEEC55F0E55237
:10098000E552D9503B0FE96EDACFEAFF5C0EEE5E1E
:10099000000EEE5AEE5AEE5A010EDBCFE6FF09ECDE
:1009A00053F0E552000902E0010EC4D3280E146E84
:1009B000010EDBCFE7FF1450E726010EE7CFDBFF88
:1009C000DF2A93D7500EF36E4E0EF3CFDBFF9E0E51
:1009D000F36E4F0EF3CFDBFF020EF36E500EF3CF2C
:1009E000DBFF510EDB6A4B0EF36E520EF3CFDBFFD3
:1009F000530EDB6A600E01010027090E0123000E71
:100A000002230323350E046F056BD9504E0FE66E9B
:100A1000000EDA20E66EDEEC55F0E552E552000EEF
:100A2000E66E010EE66EDEEC55F0E552E552D95069
:100A30003B0FE66E000EDA20E66EDEEC55F0E55276
:100A4000E552D9503B0FE96EDACFEAFF2E0EEE26C3
:100A5000000EEE22EE22EE22010EDBCFE6FF09ECC5
:100A600053F0E552000902E0010E64D3D9503B0F68
:100A7000E66E000EDA20E66EDEEC55F0E552E55249
:100A8000D9503B0FE96EDACFEAFF2E0EEE26000EAC
:100A9000EE22EE22EE22010EDBCFE6FF09EC53F050
:100AA000E552000902E0010E45D3D9503B0FE66E36
:100AB000000EDA20E66EDEEC55F0E552E552D95034
:100AC0003B0FE96EDACFEAFF5C0EEE5E000EEE5AE7
:100AD000EE5AEE5A010EDBCFE6FF09EC53F0E55279
:100AE000000902E0010E26D3280E146E010EDBCFA2
:100AF000E7FF1450E726010EE7CFDBFF400EF36E51
:100B00004E0EF3CFDBFFAE0EF36E4F0EF3CFDBFFD7
:100B1000020EF36E500EF3CFDBFF510EDB6A530E65
:100B2000F36E520EF3CFDBFF530EDB6A600E010152
:100B30000027090E0123000E02230323D9504E0F74
:100B4000E66E000EDA20E66EDEEC55F0E552E55278
:100B5000000EE66E010EE66EDEEC55F0E552E55253
:100B6000D9503B0FE66E000EDA20E66EDEEC55F053
:100B7000E552E552D9503B0FE96EDACFEAFF2E0E6F
:100B8000EE26000EEE22EE22EE22010EDBCFE6FF75
:100B900009EC53F0E552000902E0010ECBD2D95026
:100BA0003B0FE66E000EDA20E66EDEEC55F0E55205
:100BB000E552D9503B0FE96EDACFEAFF2E0EEE2652
:100BC000000EEE22EE22EE22010EDBCFE6FF09EC54
:100BD00053F0E552000902E0010EACD2D9503B0FB0
:100BE000E66E000EDA20E66EDEEC55F0E552E552D8
:100BF000D9503B0FE96EDACFEAFF5C0EEE5E000ED5
:100C0000EE5AEE5AEE5A010EDBCFE6FF09EC53F036
:100C1000E552000902E0010E8DD2D9503B0FE66E7D
:100C2000000EDA20E66EDEEC55F0E552E552800E5D
:100C3000F36E4E0EF3CFDBFFBE0EF36E4F0EF3CF0F
:100C4000DBFF020EF36E500EF3CFDBFF510EDB6ABB
:100C5000610E01010027090E0123000E0223032368
:100C6000360E046F056BD9504E0FE66E000EDA207B
:100C7000E66EDEEC55F0E552E552000EE66E010E32
:100C8000E66EDEEC55F0E552E552C80EE66E09EC74
:100C900053F0E552000902E0010E4CD2C00EF36E93
:100CA0004E0EF3CFDBFFCE0EF36E4F0EF3CFDBFF16
:100CB000020EF36E500EF3CFDBFF510EDB6A200EF7
:100CC000F36E540EF3CFDBFF550EDB6A540EF36E5A
:100CD000520EF3CFDBFF530EDB6A480EF36E570E56
:100CE000F3CFDBFF580EDB6A4B0EF36E590EF3CFDA
:100CF000DBFF5A0EDB6A600E01010027090E01239B
:100D0000000E02230323000EE66E010EE66EDEECFB
:100D100055F0E552E552D9504E0FE66E000EDA203E
:100D2000E66EDEEC55F0E552E552320EE66E09EC69
:100D300053F0E552000902E0010EFCD10101E00E82
:100D4000006F130E016F070E026F036B150E066F17
:100D5000076B3E0E046F056B040E096F0A6B500E95
:100D60000B6F0C6B000EE66E010EE66EDEEC55F0BE
:100D7000E552E552D9504E0FE66E000EDA20E66ECF
:100D8000DEEC55F0E552E552DF6A320EDF5C6AE2D6
:100D90000101E00E006F130E016F070E026F036B6F
:100DA000E00EF36E4E0EF3CFDBFF210EF36E4F0E0F
:100DB000F3CFDBFF080EF36E500EF3CFDBFF510EC7
:100DC000DB6A000EE66E010EE66EDEEC55F0E552D3
:100DD000E552D9504E0FE66E000EDA20E66EDEECDC
:100DE00055F0E552E552050EE66E09EC53F0E5527A
:100DF000000902E0010E9ED10101C00E006F060E37
:100E0000016F070E026F036BC00EF36E4E0EF3CF31
:100E1000DBFFCE0EF36E4F0EF3CFDBFF020EF36E51
:100E2000500EF3CFDBFF510EDB6A000EE66E010EB3
:100E3000E66EDEEC55F0E552E552D9504E0FE66E07
:100E4000000EDA20E66EDEEC55F0E552E552050EB6
:100E5000E66E09EC53F0E552000902E0010E6AD19A
:100E6000DF2A93D7130EE66E010EE66EDEEC55F028
:100E7000E552E552DF6A1E0EDF5C6AE20101E00E18
:100E8000006F130E016F070E026F036BE00EF36E1F
:100E90004E0EF3CFDBFF210EF36E4F0EF3CFDBFFD1
:100EA000080EF36E500EF3CFDBFF510EDB6A000E1F
:100EB000E66E010EE66EDEEC55F0E552E552D950D5
:100EC0004E0FE66E000EDA20E66EDEEC55F0E552CF
:100ED000E552050EE66E09EC53F0E552000902E01A
:100EE000010E28D10101C00E006F060E016F070E22
:100EF000026F036BC00EF36E4E0EF3CFDBFFCE0E10
:100F0000F36E4F0EF3CFDBFF020EF36E500EF3CFF6
:100F1000DBFF510EDB6A000EE66E010EE66EDEECC4
:100F200055F0E552E552D9504E0FE66E000EDA202C
:100F3000E66EDEEC55F0E552E552050EE66E09EC84
:100F400053F0E552000902E0010EF4D0DF2A93D7F6
:100F5000200EF36E150EF3CFDBFF6D0EF36E160E43
:100F6000F3CFDBFF020EF36E170EF3CFDBFF180E8D
:100F7000DB6ADF6A050EDF5C32E2D950280FE66ECD
:100F8000000EDA20E66EDEEC55F0E552E552D9505F
:100F9000150FE66E000EDA20E66EDEEC55F0E55237
:100FA000E552130EE66E010EE66EDEEC55F0E552EC
:100FB000E552D950150FE96EDACFEAFF200EEE5E4A
:100FC000000EEE5AEE5AEE5A320EE66E09EC53F06F
:100FD000E552000902E0010EADD0DF2ACBD7A00E0A
:100FE000F36E150EF3CFDBFF6C0EF36E160EF3CF20
:100FF000DBFF020EF36E170EF3CFDBFF180EDB6A7A
:10100000DF6A050EDF5C32E2D950280FE66E000E73
:10101000DA20E66EDEEC55F0E552E552D950150FB8
:10102000E66E000EDA20E66EDEEC55F0E552E55293
:10103000130EE66E010EE66EDEEC55F0E552E5525B
:10104000D950150FE96EDACFEAFF200EEE26000E1A
:10105000EE22EE22EE22320EE66E09EC53F0E5525D
:10106000000902E0010E66D0DF2ACBD7FA0EE66E49
:1010700009EC53F0E552000902E0010E5BD0D950B3
:10108000280FE66E000EDA20E66EDEEC55F0E55233
:10109000E552180E01011C6F1D6BAB0E136F7D0E18
:1010A000146F020E156F166B2E0E176F186B130E42
:1010B000E66E010EE66EDEEC55F0E552E552D950D3
:1010C0003B0FE66E000EDA20E66EDEEC55F0E552E0
:1010D000E552C80EE66E09EC53F0E552000902E055
:1010E000010E28D00101D90E136F7D0E146F020E70
:1010F000156F166B3C0E176F186B130EE66E010E14
:10110000E66EDEEC55F0E552E552D9503B0FE66E47
:10111000000EDA20E66EDEEC55F0E552E552020EE6
:10112000E66E3EEC53F0E552000902E0010E02D0FB
:10113000000E00D0146E610EE15C02E2E16AE5523D
:10114000E16E1450E552E7CFD9FF1200D9CFE6FF88
:10115000E1CFD9FF610EE126DF6A010EDB6A800E66
:10116000F36E020EF3CFDBFFB10EF36E030EF3CF7F
:10117000DBFF0A0EF36E040EF3CFDBFF050EDB6A16
:10118000AA0EF36E080EF3CFDBFF090EDB6A4D0EDD
:10119000F36E060EF3CFDBFF070EDB6A140EF36E61
:1011A0000B0EF3CFDBFF0C0EDB6A270EF36E0D0E7A
:1011B000F3CFDBFF0E0EDB6A010EF36E100EF3CFE2
:1011C000DBFF010EF36E0F0EF3CFDBFFAD0EF36E00
:1011D000150EF3CFDBFF860EF36E160EF3CFDBFF9B
:1011E0000A0EF36E170EF3CFDBFF180EDB6A450E07
:1011F000F36E1B0EF3CFDBFF1C0EDB6A280EF36EC3
:10120000190EF3CFDBFF1A0EDB6A480EF36E1E0ECB
:10121000F3CFDBFF1F0EDB6A470EF36E200EF3CF1A
:10122000DBFF210EDB6A010EF36E230EF3CFDBFF33
:10123000010EF36E220EF3CFDBFF0D0EF36E280EC0
:10124000F3CFDBFF4F0EF36E290EF3CFDBFF0A0E59
:10125000F36E2A0EF3CFDBFF2B0EDB6A590EF36E13
:101260002E0EF3CFDBFF2F0EDB6A3B0EF36E2C0E40
:10127000F3CFDBFF2D0EDB6A480EF36E310EF3CF9A
:10128000DBFF320EDB6A3B0EF36E330EF3CFDBFF78
:10129000340EDB6A010EF36E360EF3CFDBFF010E68
:1012A000F36E350EF3CFDBFFC00EF36E3B0EF3CFC4
:1012B000DBFFE50EF36E3C0EF3CFDBFF090EF36EA2
:1012C0003D0EF3CFDBFF3E0EDB6A9C0EF36E410E4C
:1012D000F3CFDBFF420EDB6A390EF36E3F0EF3CF26
:1012E000DBFF400EDB6A310EF36E440EF3CFDBFF03
:1012F000450EDB6A190EF36E460EF3CFDBFF470E89
:10130000DB6A010EF36E490EF3CFDBFF010EF36EC5
:10131000480EF3CFDBFFF90EF36E4E0EF3CFDBFF7B
:10132000E50EF36E4F0EF3CFDBFF090EF36E500E9A
:10133000F3CFDBFF510EDB6A9C0EF36E540EF3CF3E
:10134000DBFF550EDB6A260EF36E520EF3CFDBFF8A
:10135000530EDB6A6A0EF36E570EF3CFDBFF580EA7
:10136000DB6A190EF36E590EF3CFDBFF5A0EDB6A00
:10137000010EF36E5C0EF3CFDBFF010EF36E5B0E1E
:10138000F3CFDBFF0101600E266FA00E276F090E61
:10139000286F296B6F0E2C6F2D6B280E2A6F2B6B0D
:1013A0000D0E2F6F306B030E316F326B010E346FE9
:1013B000336F950E396FA00E3A6F090E3B6F3C6B81
:1013C0006F0E3F6F406B150E3D6F3E6B430E426FCD
:1013D000436B030E446F456B010E476F466FEB0E78
:1013E0004C6F9E0E4D6F090E4E6F4F6B110E526F6C
:1013F000536B506F516B780E556F566B020E576FD3
:10140000586B010E5A6F596F750E5F6FA50E606FA6
:101410000A0E616F626B140E656F666B100E636F60
:10142000646B8F0E686F696BBC0E6A6F6B6B010E1D
:101430006D6F6C6F8D0E726F470E736F0A0E746F47
:10144000756B0C0E786F796B3B0E766F776B060EB3
:101450007B6F7C6B0F0E7D6F7E6B010E806F7F6FDD
:10146000BF0E856F0E0E866F0A0E876F886B090E92
:101470008B6F8C6B410E896F8A6B060E8E6F8F6B34
:101480001D0E906F916B010E936F926F5F0E986FB0
:10149000140E996F0A0E9A6F9B6B090E9E6F9F6BCD
:1014A000410E9C6F9D6B060EA16FA26B2C0EA36F5D
:1014B000A46B010EA66FA56FAB69190EAC6F0A0E77
:1014C000AD6FAE6B090EB16FB26B1A0EAF6FB06B32
:1014D000060EB46FB56B3A0EB66FB76B010EB96FEF
:1014E000B86FC00EBE6F9A0EBF6F090EC06FC16B92
:1014F000C46FC56B3C0EC26FC36B060EC76FC86B63
:10150000490EC96FCA6B010ECC6FCB6FFC0ED16F49
:101510009A0ED26F090ED36FD46BD76FD86B3C0E77
:10152000D56FD66B420EDA6FDB6B490EDC6FDD6B6D
:10153000010EDF6FDE6FE66A4CEC00F0E552010E43
:10154000E66E3EEC53F0E552000902E0010E2FD2A8
:10155000D950020FE66E000EDA20E66EDEEC55F092
:10156000E552E552C80EE66E09EC53F0E55200096B
:1015700002E0010E1CD2D950150FE66E000EDA20E3
:10158000E66EDEEC55F0E552E552DF6A0A0EDF5CEE
:101590002CE2E66A4CEC00F0E552D950020FE66E00
:1015A000000EDA20E66EDEEC55F0E552E552190E3B
:1015B000E66E09EC53F0E552000902E0010EF7D1A6
:1015C000D950150FE66E000EDA20E66EDEEC55F00F
:1015D000E552E552190EE66E09EC53F0E5520009AA
:1015E00002E0010EE4D1DF2AD1D7D950280FE66EF0
:1015F000000EDA20E66EDEEC55F0E552E552DF6AC9
:101600000A0EDF5C36E2E66A4CEC00F0E552D95097
:10161000020FE66E000EDA20E66EDEEC55F0E552C3
:10162000E552D950150FE66E000EDA20E66EDEECBC
:1016300055F0E552E552190EE66E09EC53F0E5520D
:10164000000902E0010EB3D1D950280FE66E000E5A
:10165000DA20E66EDEEC55F0E552E552190EE66E44
:1016600009EC53F0E552000902E0010EA0D1DF2A97
:10167000C7D7D9503B0FE66E000EDA20E66EDEECDF
:1016800055F0E552E552D9504E0FE66E000EDA20C5
:10169000E66EDEEC55F0E552E552DF6A0A0EDF5CDD
:1016A0005EE2E66A4CEC00F0E552D950020FE66EBD
:1016B000000EDA20E66EDEEC55F0E552E552D95028
:1016C000150FE66E000EDA20E66EDEEC55F0E55200
:1016D000E552D950280FE66E000EDA20E66EDEECF9
:1016E00055F0E552E552190EE66E09EC53F0E5525D
:1016F000000902E0010E5BD1D9503B0FE66E000EEF
:10170000DA20E66EDEEC55F0E552E552D9504E0F88
:10171000E66E000EDA20E66EDEEC55F0E552E5529C
:10172000190EE66E09EC53F0E552000902E0010ED5
:101730003ED1030EDF5C11E1CD0EF36E020EF3CF4E
:10174000DBFFB10EF36E030EF3CFDBFF0A0EF36E79
:10175000040EF3CFDBFF050EDB6ADF2A9FD7E668B6
:1017600009EC53F0E552000902E0010E20D1260EEB
:10177000E66E010EE66EDEEC55F0E552E552390EEE
:10178000E66E010EE66EDEEC55F0E552E5524C0ECB
:10179000E66E010EE66EDEEC55F0E552E5525F0EA8
:1017A000E66E010EE66EDEEC55F0E552E552DF6ABC
:1017B0000A0EDF5C01E37ED0E66A4CEC00F0E552F5
:1017C000D950020FE66E000EDA20E66EDEEC55F020
:1017D000E552E552D950150FE66E000EDA20E66E9E
:1017E000DEEC55F0E552E552D950280FE66E000EBA
:1017F000DA20E66EDEEC55F0E552E552D9503B0FAB
:10180000E66E000EDA20E66EDEEC55F0E552E552AB
:10181000D9504E0FE66E000EDA20E66EDEEC55F083
:10182000E552E552190EE66E09EC53F0E552000957
:1018300002E0010EBCD0260EE66E010EE66EDEEC76
:1018400055F0E552E552390EE66E010EE66EDEEC1D
:1018500055F0E552E5524C0EE66E010EE66EDEECFA
:1018600055F0E552E5525F0EE66E010EE66EDEECD7
:1018700055F0E552E552190EE66E09EC53F0E552CB
:10188000000902E0010E93D0070EDF5C11E1400E6B
:10189000F36E020EF3CFDBFF470EF36E030EF3CFB2
:1018A000DBFF0A0EF36E040EF3CFDBFF050EDB6ADF
:1018B000DF2A7ED7010EE66E3EEC53F0E5520009BA
:1018C00002E0010E74D0720EE66E010EE66EDEECE2
:1018D00055F0E552E552E66809EC53F0E55200098F
:1018E00002E0010E64D0E66809EC53F0E55200090D
:1018F00002E0010E5CD0850EE66E010EE66EDEECB7
:1019000055F0E552E552E66809EC53F0E55200095E
:1019100002E0010E4CD0E66809EC53F0E5520009F4
:1019200002E0010E44D0E66809EC53F0E5520009EC
:1019300002E0010E3CD0980EE66E010EE66EDEEC83
:1019400055F0E552E552020EE66E3EEC53F0E552DC
:10195000000902E0010E2BD0AB0EE66E010EE66E22
:10196000DEEC55F0E552E552E66809EC53F0E5523D
:10197000000902E0010E1BD0BE0EE66E010EE66EFF
:10198000DEEC55F0E552E552D10EE66E010EE66E44
:10199000DEEC55F0E552E552030EE66E3EEC53F0F8
:1019A000E552000902E0010E02D0000E00D0146ED4
:1019B000610EE15C02E2E16AE552E16E1450E5522B
:1019C000E7CFD9FF1200D9CFE6FFE1CFD9FF1F0E35
:1019D000E126DF6A010EDB6A020EDB6A130EE66E99
:1019E0009DEC57F0E552030EF3CFDBFF040EF4CF6E
:1019F000DBFF130EE66E9DEC57F0E552050EF3CFBC
:101A0000DBFF060EF4CFDBFF130EE66E9DEC57F006
:101A1000E552070EF3CFDBFF080EF4CFDBFF130E0A
:101A2000E66E9DEC57F0E552090EF3CFDBFF0A0E90
:101A3000F4CFDBFF130EE66E9DEC57F0E5520B0E74
:101A4000F3CFDBFF0C0EF4CFDBFF130EE66E9DEC45
:101A500057F0E5520D0EF3CFDBFF0E0EF4CFDBFF98
:101A6000130EE66E9DEC57F0E5520F0EF3CFDBFF41
:101A7000100EF4CFDBFF130EE66E9DEC57F0E5522F
:101A8000110EF3CFDBFF120EF4CFDBFF130EE66E69
:101A90009DEC57F0E552130EF3CFDBFF140EF4CF9D
:101AA000DBFF130EE66E9DEC57F0E552150EF3CFFB
:101AB000DBFF160EF4CFDBFF130EE66E9DEC57F046
:101AC000E552170EF3CFDBFF180EF4CFDBFF130E3A
:101AD000E66E9DEC57F0E552190EF3CFDBFF1A0EC0
:101AE000F4CFDBFF130EE66E9DEC57F0E5521B0EB4
:101AF000F3CFDBFF1C0EF4CFDBFF130EE66E9DEC85
:101B000057F0E5521D0EF3CFDBFF1E0EF4CFDBFFC7
:101B1000030EDBCFE9FF040EDBCFEAFF8A0EEE6E89
:101B2000300EEE6E050EEE6EEE6A030EDBCFE9FFB1
:101B3000040EDBCFEAFF060EE926000EEA22BA0EFB
:101B4000EE6EED6A030EDBCFE9FF040EDBCFEAFF9A
:101B5000E926000EEA222C0EEE6EED6A030EDBCFB4
:101B6000E9FF040EDBCFEAFF090EE926000EEA22A8
:101B70000A0EEE6EED6A030EDBCFE9FF040EDBCF3B
:101B8000EAFF090EE926000EEA22020EE926000EFF
:101B9000EA22280EEE6EED6A030EDBCFE9FF040E9B
:101BA000DBCFEAFF0E0EE926000EEA22EF6A030EF3
:101BB000DBCFE9FF040EDBCFEAFF0D0EE926000EB6
:101BC000EA22010EEF6E050EDBCFE9FF060EDBCF3A
:101BD000EAFFCA0EEE6EA40EEE6E050EEE6EEE6A13
:101BE000DBCFE9FF060EDBCFEAFFE926000EEA2293
:101BF000BA0EEE6EED6A050EDBCFE9FF060EDBCF07
:101C0000EAFF040EE926000EEA222C0EEE6EED6AC3
:101C1000050EDBCFE9FF060EDBCFEAFF090EE92652
:101C2000000EEA220A0EEE6EED6A050EDBCFE9FF2A
:101C3000060EDBCFEAFF090EE926000EEA22020EAD
:101C4000E926000EEA22280EEE6EED6A050EDBCFC5
:101C5000E9FF060EDBCFEAFF0E0EE926000EEA22B0
:101C6000EF6A050EDBCFE9FF060EDBCFEAFF0D0EB4
:101C7000E926000EEA22010EEF6E070EDBCFE9FF28
:101C8000080EDBCFEAFF800EEE6E420EEE6E060E01
:101C9000EE6EEE6A070EDBCFE9FF080EDBCFEAFF40
:101CA000060EE926000EEA22BA0EEE6EED6A070E67
:101CB000DBCFE9FF080EDBCFEAFF040EE926000EBA
:101CC000EA222C0EEE6EED6A070EDBCFE9FF080E5E
:101CD000DBCFEAFF090EE926000EEA220A0EEE6EBD
:101CE000ED6A070EDBCFE9FF080EDBCFEAFF090E36
:101CF000E926000EEA22020EE926000EEA22280E4C
:101D0000EE6EED6A070EDBCFE9FF080EDBCFEAFFD0
:101D10000E0EE926000EEA22EF6A070EDBCFE9FF7E
:101D2000080EDBCFEAFF0D0EE926000EEA22010EB7
:101D3000EF6E090EDBCFE9FF0A0EDBCFEAFFC00E24
:101D4000EE6E1B0EEE6E0B0EEE6EEE6A090EDBCF24
:101D5000E9FF0A0EDBCFEAFF060EE926000EEA22B3
:101D60002D0EEE6EED6A090EDBCFE9FF0A0EDBCF1A
:101D7000EAFF040EE926000EEA223C0EEE6EED6A42
:101D8000090EDBCFE9FF0A0EDBCFEAFF090EE926D9
:101D9000000EEA22410EEE6EED6A090EDBCFE9FF7E
:101DA0000A0EDBCFEAFF090EE926000EEA22020E38
:101DB000E926000EEA22500EEE6EED6A090EDBCF28
:101DC000E9FF0A0EDBCFEAFF0E0EE926000EEA223B
:101DD000010EEF6E090EDBCFE9FF0A0EDBCFEAFF43
:101DE0000D0EE926000EEA22010EEF6E0B0EDBCF80
:101DF000E9FF0C0EDBCFEAFFFC0EEE6E1B0EEE6E63
:101E00000B0EEE6EEE6ADBCFE9FF0C0EDBCFEAFFC6
:101E1000060EE926000EEA222D0EEE6EED6A0B0E7E
:101E2000DBCFE9FF0C0EDBCFEAFF040EE926000E44
:101E3000EA223C0EEE6EED6A0B0EDBCFE9FF0C0ED4
:101E4000DBCFEAFF090EE926000EEA22410EEE6E14
:101E5000ED6A0B0EDBCFE9FF0C0EDBCFEAFF090EBC
:101E6000E926000EEA22020EE926000EEA228C0E76
:101E7000EE6EED6A0B0EDBCFE9FF0C0EDBCFEAFF57
:101E80000E0EE926000EEA22010EEF6E0B0EDBCFDE
:101E9000E9FF0C0EDBCFEAFF0D0EE926000EEA2269
:101EA000010EEF6E0D0EDBCFE9FF0E0EDBCFEAFF6A
:101EB000E00EEE6E370EEE6E0B0EEE6EEE6A0D0E4F
:101EC000DBCFE9FF0E0EDBCFEAFF060EE926000EA0
:101ED000EA222D0EEE6EED6A0D0EDBCFE9FF0E0E3F
:101EE000DBCFEAFF040EE926000EEA223C0EEE6E7E
:101EF000ED6A0D0EDBCFE9FF0E0EDBCFEAFF090E18
:101F0000E926000EEA220A0EEE6EED6A0D0EDBCF18
:101F1000E9FF0E0EDBCFEAFF090EE926000EEA22EA
:101F2000020EE926000EEA22780EEE6EED6A0D0E24
:101F3000DBCFE9FF0E0EDBCFEAFFE926000EEA2237
:101F4000010EEF6E0D0EDBCFE9FF0E0EDBCFEAFFC9
:101F50000D0EE926000EEA22010EEF6E0F0EDBCF0A
:101F6000E9FF100EDBCFEAFF1C0EEE6E380EEE6EB0
:101F70000B0EEE6EEE6A0F0EDBCFE9FF100EDBCF1D
:101F8000EAFF060EE926000EEA222D0EEE6EED6A3D
:101F90000F0EDBCFE9FF100EDBCFEAFF040EE926C0
:101FA000000EEA223C0EEE6EED6A0F0EDBCFE9FF6B
:101FB000100EDBCFEAFF090EE926000EEA220A0E18
:101FC000EE6EED6A0F0EDBCFE9FF100EDBCFEAFFFE
:101FD000090EE926000EEA22020EE926000EEA2288
:101FE000B40EEE6EED6A0F0EDBCFE9FF100EDBCF05
:101FF000EAFF0E0EE926000EEA22010EEF6E0F0E2A
:10200000DBCFE9FF100EDBCFEAFF0D0EE926000E55
:10201000EA22010EEF6E110EDBCFE9FF120EDBCFCD
:10202000EAFFEE6A540EEE6E0B0EEE6EEE6A110EC5
:10203000DBCFE9FF120EDBCFEAFF060EE926000E2A
:10204000EA222D0EEE6EED6A110EDBCFE9FF120EC5
:10205000DBCFEAFF040EE926000EEA223C0EEE6E0C
:10206000ED6A110EDBCFE9FF120EDBCFEAFF090E9E
:10207000E926000EEA22630EEE6EED6A110EDBCF4A
:10208000E9FF120EDBCFEAFF090EE926000EEA2275
:10209000020EE926000EEA22780EEE6EED6A110EAF
:1020A000DBCFE9FF120EDBCFEAFF0E0EE926000EB2
:1020B000EA22010EEF6E110EDBCFE9FF120EDBCF2D
:1020C000EAFF0D0EE926000EEA22010EEF6E130E56
:1020D000DBCFE9FF140EDBCFEAFF3C0EEE6E540EB1
:1020E000EE6E0B0EEE6EEE6A130EDBCFE9FF140EF2
:1020F000DBCFEAFF060EE926000EEA222D0EEE6E79
:10210000ED6A130EDBCFE9FF140EDBCFEAFF040EFE
:10211000E926000EEA223C0EEE6EED6A130EDBCFCE
:10212000E9FF140EDBCFEAFF090EE926000EEA22D2
:10213000630EEE6EED6A130EDBCFE9FF140EDBCFFC
:10214000EAFF090EE926000EEA22020EE926000E39
:10215000EA22B40EEE6EED6A130EDBCFE9FF140E29
:10216000DBCFEAFF0E0EE926000EEA22010EEF6E2B
:10217000130EDBCFE9FF140EDBCFEAFF0D0EE926CD
:10218000000EEA22010EEF6E150EDBCFE9FF160EF0
:10219000DBCFEAFF800EEE6E2F0EEE6E050EEE6EBA
:1021A000EE6A150EDBCFE9FF160EDBCFEAFF060E57
:1021B000E926000EEA22960EEE6EED6A150EDBCFD2
:1021C000E9FF160EDBCFEAFF040EE926000EEA2235
:1021D000690EEE6EED6A150EDBCFE9FF160EDBCF52
:1021E000EAFF090EE926000EEA22280EEE6EED6ADD
:1021F000150EDBCFE9FF160EDBCFEAFF090EE9264D
:10220000000EEA22020EE926000EEA22EE6AED6ACC
:10221000150EDBCFE9FF160EDBCFEAFF0E0EE92627
:10222000000EEA22EF6A150EDBCFE9FF160EDBCFB8
:10223000EAFF0D0EE926000EEA22010EEF6E170EE0
:10224000DBCFE9FF180EDBCFEAFF210EEE6E420E68
:10225000EE6E060EEE6EEE6A170EDBCFE9FF180E7D
:10226000DBCFEAFF060EE926000EEA22960EEE6E9E
:10227000ED6A170EDBCFE9FF180EDBCFEAFF040E85
:10228000E926000EEA22310EEE6EED6A170EDBCF64
:10229000E9FF180EDBCFEAFF090EE926000EEA225D
:1022A000320EEE6EED6A170EDBCFE9FF180EDBCFB4
:1022B000EAFF090EE926000EEA22020EE926000EC8
:1022C000EA22EE6AED6A170EDBCFE9FF180EDBCFCC
:1022D000EAFF0E0EE926000EEA22010EEF6E170E3F
:1022E000DBCFE9FF180EDBCFEAFF0D0EE926000E6B
:1022F000EA22010EEF6E190EDBCFE9FF1A0EDBCFDB
:10230000EAFF520EEE6E420EEE6E060EEE6EEE6AB4
:10231000190EDBCFE9FF1A0EDBCFEAFF060EE92626
:10232000000EEA22960EEE6EED6A190EDBCFE9FF83
:102330001A0EDBCFEAFF040EE926000EEA222E0E6B
:10234000EE6EED6A190EDBCFE9FF1A0EDBCFEAFF66
:10235000090EE926000EEA22630EEE6EED6A190EF2
:10236000DBCFE9FF1A0EDBCFEAFF090EE926000EEC
:10237000EA22020EE926000EEA22EE6AED6A190E42
:10238000DBCFE9FF1A0EDBCFEAFF0E0EE926000EC7
:10239000EA22010EEF6E190EDBCFE9FF1A0EDBCF3A
:1023A000EAFF0D0EE926000EEA22010EEF6E1B0E6B
:1023B000DBCFE9FF1C0EDBCFEAFFE10EEE6E170E5E
:1023C000EE6E070EEE6EEE6A1B0EDBCFE9FF1C0E03
:1023D000DBCFEAFF060EE926000EEA22960EEE6E2D
:1023E000ED6A1B0EDBCFE9FF1C0EDBCFEAFF040E0C
:1023F000E926000EEA22310EEE6EED6A1B0EDBCFEF
:10240000E9FF1C0EDBCFEAFF090EE926000EEA22E7
:102410002D0EEE6EED6A1B0EDBCFE9FF1C0EDBCF3F
:10242000EAFF090EE926000EEA22020EE926000E56
:10243000EA22EE6AED6A1B0EDBCFE9FF1C0EDBCF52
:10244000EAFF0E0EE926000EEA22010EEF6E1B0EC9
:10245000DBCFE9FF1C0EDBCFEAFF0D0EE926000EF5
:10246000EA22010EEF6E1D0EDBCFE9FF1E0EDBCF61
:10247000EAFF120EEE6E180EEE6E070EEE6EEE6AAC
:102480001D0EDBCFE9FF1E0EDBCFEAFF060EE926AD
:10249000000EEA22960EEE6EED6A1D0EDBCFE9FF0E
:1024A0001E0EDBCFEAFF040EE926000EEA222E0EF6
:1024B000EE6EED6A1D0EDBCFE9FF1E0EDBCFEAFFED
:1024C000090EE926000EEA225E0EEE6EED6A1D0E82
:1024D000DBCFE9FF1E0EDBCFEAFF090EE926000E77
:1024E000EA22020EE926000EEA22EE6AED6A1D0ECD
:1024F000DBCFE9FF1E0EDBCFEAFF0E0EE926000E52
:10250000EA22010EEF6E1D0EDBCFE9FF1E0EDBCFC0
:10251000EAFF0D0EE926000EEA22010EEF6EE66AD2
:102520004CEC00F0E552030EDBCFE6FF040EDBCFF0
:10253000E6FFDEEC55F0E552E552C80EE66E09EC1A
:1025400053F0E552000906E0010EF36E020EF3CFE0
:10255000DBFF8DD2090EDBCFE6FF0A0EDBCFE6FFF5
:10256000DEEC55F0E552E5520B0EDBCFE6FF0C0E2C
:10257000DBCFE6FFDEEC55F0E552E552DF6A190EDF
:10258000DF5C3AE2050EDBCFE6FF060EDBCFE6FFAF
:10259000DEEC55F0E552E5527D0E146E040EDF02BE
:1025A000F350145CE66E09EC53F0E552000906E0C6
:1025B000010EF36E020EF3CFDBFF59D2070EDBCF15
:1025C000E6FF080EDBCFE6FFDEEC55F0E552E55204
:1025D0007D0E146E040EDF02F350145CE66E09ECFF
:1025E00053F0E552000906E0010EF36E020EF3CF40
:1025F000DBFF3DD2DF2AC3D7DF6A190EDF5C36E28C
:10260000050EDBCFE6FF060EDBCFE6FFDEEC55F076
:10261000E552E552040EDF02F350190FE66E09ECA5
:1026200053F0E552000906E0010EF36E020EF3CFFF
:10263000DBFF1DD2070EDBCFE6FF080EDBCFE6FF88
:10264000DEEC55F0E552E552040EDF02F350190FAF
:10265000E66E09EC53F0E552000906E0010EF36E58
:10266000020EF3CFDBFF03D2DF2AC7D77D0EE66E63
:1026700009EC53F0E552000906E0010EF36E020E7C
:10268000F3CFDBFFF4D1050EDBCFE6FF060EDBCF89
:10269000E6FFDEEC55F0E552E552C80EE66E09ECB9
:1026A00053F0E552000906E0010EF36E020EF3CF7F
:1026B000DBFFDDD1030EDBCFE6FF040EDBCFE6FF51
:1026C000DEEC55F0E552E552C80EE66E09EC53F02B
:1026D000E552000906E0010EF36E020EF3CFDBFFB8
:1026E000C6D1E66A4CEC00F0E552E66809EC53F01E
:1026F000E552000906E0010EF36E020EF3CFDBFF98
:10270000B6D1DF6A460EDF5C01E37DD0150EDBCF6C
:10271000E6FF160EDBCFE6FFDEEC55F0E552E552A4
:10272000170EDBCFE6FF180EDBCFE6FFDEEC55F031
:10273000E552E552190EDBCFE6FF1A0EDBCFE6FFBE
:10274000DEEC55F0E552E5520D0EDBCFE6FF0E0E46
:10275000DBCFE6FFDEEC55F0E552E5520F0EDBCFA6
:10276000E6FF100EDBCFE6FFDEEC55F0E552E5525A
:10277000150EDBCFE9FF160EDBCFEAFFA00EEE262B
:10278000000EEE22EE22EE22170EDBCFE9FF180E2E
:10279000DBCFEAFFA00EEE26000EEE22EE22EE22A6
:1027A000190EDBCFE9FF1A0EDBCFEAFFA00EEE26F3
:1027B000000EEE22EE22EE221B0EDBCFE9FF1C0EF6
:1027C000DBCFEAFFA00EEE26000EEE22EE22EE2276
:1027D0001D0EDBCFE9FF1E0EDBCFEAFFA00EEE26BB
:1027E000000EEE22EE22EE22820EE66E09EC53F08F
:1027F000E552000906E0010EF36E020EF3CFDBFF97
:1028000036D1DF2A7FD7E66809EC53F0E55200099C
:1028100006E0010EF36E020EF3CFDBFF28D1150E9A
:10282000DBCFE9FF160EDBCFEAFF090EE926000E2B
:10283000EA22EECF14F0EFCF15F0153404E2145075
:102840000008000E15546CE2150EDBCFE9FF160EE2
:10285000DBCFEAFF090EE926000EEA22EE06ED5A6A
:102860001B0EDBCFE9FF1C0EDBCFEAFF090EE926CA
:10287000000EEA22EE06ED5A1D0EDBCFE9FF1E0E1A
:10288000DBCFEAFF090EE926000EEA22EE06ED5A3A
:10289000170EDBCFE9FF180EDBCFEAFF090EE926A2
:1028A000000EEA22EE06ED5A190EDBCFE9FF1A0EF2
:1028B000DBCFEAFF090EE926000EEA22EE06ED5A0A
:1028C000E66A4CEC00F0E552150EDBCFE6FF160E83
:1028D000DBCFE6FFDEEC55F0E552E552170EDBCF1D
:1028E000E6FF180EDBCFE6FFDEEC55F0E552E552D1
:1028F000190EDBCFE6FF1A0EDBCFE6FFDEEC55F05C
:10290000E552E552140EE66E09EC53F0E55200096B
:1029100006E0010EF36E020EF3CFDBFFA8D07FD7E7
:10292000DF6A460EDF5C01E391D0150EDBCFE6FFD8
:10293000160EDBCFE6FFDEEC55F0E552E552170E42
:10294000DBCFE6FF180EDBCFE6FFDEEC55F0E552FD
:10295000E552190EDBCFE6FF1A0EDBCFE6FFDEEC09
:1029600055F0E552E5521B0EDBCFE6FF1C0EDBCF28
:10297000E6FFDEEC55F0E552E5521D0EDBCFE6FF3B
:102980001E0EDBCFE6FFDEEC55F0E552E552110EF0
:10299000DBCFE6FF120EDBCFE6FFDEEC55F0E552B3
:1029A000E552130EDBCFE6FF140EDBCFE6FFDEECC5
:1029B00055F0E552E552150EDBCFE9FF160EDBCFE1
:1029C000EAFFA00EEE26000EEE22EE22EE22170EF9
:1029D000DBCFE9FF180EDBCFEAFFA00EEE26000EDC
:1029E000EE22EE22EE22190EDBCFE9FF1A0EDBCF2C
:1029F000EAFFA00EEE26000EEE22EE22EE221B0EC5
:102A0000DBCFE9FF1C0EDBCFEAFFA00EEE26000EA7
:102A1000EE22EE22EE221D0EDBCFE9FF1E0EDBCFF3
:102A2000EAFFA00EEE26000EEE22EE22EE22820E2D
:102A3000E66E09EC53F0E552000906E0010EF36E74
:102A4000020EF3CFDBFF13D0DF2A6BD7E66A4CEC24
:102A500000F0E552010EE66E3EEC53F0E55200093F
:102A600006E0010EF36E020EF3CFDBFF00D0030E83
:102A7000DBCFE6FF040EDBCFE6FFCCEC57F0E552F0
:102A8000E552050EDBCFE6FF060EDBCFE6FFCCEC12
:102A900057F0E552E552070EDBCFE6FF080EDBCF1D
:102AA000E6FFCCEC57F0E552E552090EDBCFE6FF2E
:102AB0000A0EDBCFE6FFCCEC57F0E552E5520B0EE9
:102AC000DBCFE6FF0C0EDBCFE6FFCCEC57F0E55298
:102AD000E5520D0EDBCFE6FF0E0EDBCFE6FFCCECB2
:102AE00057F0E552E5520F0EDBCFE6FF100EDBCFBD
:102AF000E6FFCCEC57F0E552E552110EDBCFE6FFD6
:102B0000120EDBCFE6FFCCEC57F0E552E552130E88
:102B1000DBCFE6FF140EDBCFE6FFCCEC57F0E5523F
:102B2000E552150EDBCFE6FF160EDBCFE6FFCCEC51
:102B300057F0E552E552170EDBCFE6FF180EDBCF5C
:102B4000E6FFCCEC57F0E552E552190EDBCFE6FF7D
:102B50001A0EDBCFE6FFCCEC57F0E552E5521B0E28
:102B6000DBCFE6FF1C0EDBCFE6FFCCEC57F0E552E7
:102B7000E5521D0EDBCFE6FF1E0EDBCFE6FFCCECF1
:102B800057F0E552E552020EDB50146E1F0EE15C69
:102B900003E200D0E16AE552E16E1450E552E7CF5E
:102BA000D9FF1200D9CFE6FFE1CFD9FF620EE126AF
:102BB000DF6A010EDB6A020EDB6A100EF36E030E93
:102BC000F3CFDBFF050EF36E040EF3CFDBFF090E30
:102BD000F36E050EF3CFDBFF060EDB6AF00EF36E2D
:102BE000090EF3CFDBFF0A0EDB6A070EDB6A080E65
:102BF000DB6A500EF36E0C0EF3CFDBFF0D0EDB6ABB
:102C00000E0EDB6A0F0EDB6A110EDB6A010EF36E2D
:102C1000100EF3CFDBFF140EF36E160EF3CFDBFFB7
:102C2000AD0EF36E170EF3CFDBFF080EF36E180E2A
:102C3000F3CFDBFF190EDB6A120EF36E1C0EF3CF1F
:102C4000DBFF1D0EDB6AF36E1A0EF3CFDBFF1B0EEC
:102C5000DB6A420EF36E1F0EF3CFDBFF200EDB6A42
:102C6000960EF36E210EF3CFDBFF220EDB6A010E10
:102C7000F36E240EF3CFDBFF010EF36E230EF3CFC2
:102C8000DBFFE00EF36E290EF3CFDBFFB70EF36E22
:102C90002A0EF3CFDBFF080EF36E2B0EF3CFDBFF14
:102CA0002C0EDB6A280EF36E2F0EF3CFDBFF300EF7
:102CB000DB6A280EF36E2D0EF3CFDBFF2E0EDB6AE0
:102CC000320EDB6A330EDB6AC80EF36E340EF3CFBE
:102CD000DBFF350EDB6A010EF36E370EF3CFDBFF41
:102CE000010EF36E360EF3CFDBFF080EF36E3C0ED3
:102CF000F3CFDBFFB80EF36E3D0EF3CFDBFF080E14
:102D0000F36E3E0EF3CFDBFF3F0EDB6A280EF36E51
:102D1000420EF3CFDBFF430EDB6A280EF36E400E4C
:102D2000F3CFDBFF410EDB6A280EF36E450EF3CFC7
:102D3000DBFF460EDB6AC80EF36E470EF3CFDBFFF8
:102D4000480EDB6A010EF36E4A0EF3CFDBFF010E75
:102D5000F36E490EF3CFDBFF300EF36E4F0EF3CF61
:102D6000DBFFB80EF36E500EF3CFDBFF080EF36EF1
:102D7000510EF3CFDBFF520EDB6A280EF36E550EB9
:102D8000F3CFDBFF560EDB6A280EF36E530EF3CF44
:102D9000DBFF540EDB6A500EF36E580EF3CFDBFFF1
:102DA000590EDB6AC80EF36E5A0EF3CFDBFF5B0ED3
:102DB000DB6A010EF36E5D0EF3CFDBFF010EF36EE7
:102DC0005C0EF3CFDBFF0101580EE46FB80EE56F28
:102DD000080EE66FE76B280EEA6FEB6BE86FE96BA6
:102DE000780EED6FEE6BC80EEF6FF06B010EF26FA9
:102DF000F16FE66A4CEC00F0E552010EE66E2BEC4A
:102E000034F0E552E66A4CEC00F0E552D950020F7E
:102E1000E66E000EDA20E66E4FEC34F0E552E55235
:102E2000DF6A510EDF5C01E38FD0E66A4CEC00F004
:102E3000E552D950030FE66E000EDA20E66EDEECA6
:102E400055F0E552E552D950290FE66E000EDA2012
:102E5000E66EDEEC55F0E552E552D9503C0FE66ED9
:102E6000000EDA20E66EDEEC55F0E552E552D95060
:102E70004F0FE66E000EDA20E66EDEEC55F0E552FE
:102E8000E552E40EE66E010EE66EDEEC55F0E5521C
:102E9000E552D950020FE66E000EDA20E66E4FECD6
:102EA00034F0E552E552D950070FE96EDACFEAFF68
:102EB000020EEE26000EED22D950030FE96EDACF96
:102EC000EAFFEE06000EEE5AEE5AEE5A0C0EDB0644
:102ED0000D0E01E2DB06D950340FE96EDACFEAFFBE
:102EE000EE06000EED5AD950470FE96EDACFEAFF31
:102EF000EE06000EED5AD9505A0FE96EDACFEAFF0E
:102F0000EE06000EED5A0101EF07F05B2F0EDB2AF3
:102F1000300E01E3DB2A420EDB2A430E01E3DB2AFB
:102F2000550EDB2A560E01E3DB2AEA2B000EEB23BB
:102F3000140EDF24E66E09EC53F0E552000902E0BE
:102F4000010E65D0DF2A6DD7E66A2BEC34F0E5522E
:102F5000020EE66E3EEC53F0E552000902E0010E6F
:102F600056D0470EDB2A480E01E3DB2A5A0EDB2A35
:102F70005B0E01E3DB2ADF6A050EDF5C3EE2D9501F
:102F80003C0FE66E000EDA20E66EDEEC55F0E55200
:102F9000E552D9504F0FE66E000EDA20E66EDEECF9
:102FA00055F0E552E552D950160FE66E000EDA20C4
:102FB000E66EDEEC55F0E552E552100EDF02F350FE
:102FC000146E156AFF0ED8801456000E1556145054
:102FD000E66E09EC53F0E552000902E0010E17D04D
:102FE000D950160FE96EDACFEAFF1D0EEE5E000E25
:102FF000EE5AEE5AEE5ADF2ABFD7E66809EC53F0D4
:10300000E552000902E0010E02D0000E00D0146E5D
:10301000620EE15C02E2E16AE552E16E1450E552B3
:10302000E7CFD9FF1200D9CFE6FFE1CFD9FF3D0EA0
:10303000E126DF6A010EDB6A200EF36E020EF3CF8B
:10304000DBFFE70EF36E030EF3CFDBFF020EF36E32
:10305000040EF3CFDBFF050EDB6AC00EF36E060E27
:10306000F3CFDBFF320EF36E070EF3CFDBFF030E61
:10307000F36E080EF3CFDBFF090EDB6A600EF36E12
:103080000A0EF3CFDBFF7E0EF36E0B0EF3CFDBFFEA
:10309000030EF36E0C0EF3CFDBFF0D0EDB6A0E0E8C
:1030A000DB6ACA0EF36E0F0EF3CFDBFF030EF36E77
:1030B000100EF3CFDBFF110EDB6AA00EF36E120EC3
:1030C000F3CFDBFF0B0EF36E130EF3CFDBFF040E1B
:1030D000F36E140EF3CFDBFF150EDB6A400EF36EBA
:1030E000160EF3CFDBFF4D0EF36E170EF3CFDBFFA3
:1030F000040EF36E180EF3CFDBFF190EDB6A400EE1
:10310000F36E1A0EF3CFDBFF980EF36E1B0EF3CFA8
:10311000DBFF040EF36E1C0EF3CFDBFF1D0EDB6A2C
:10312000E00EF36E1E0EF3CFDBFFE30EF36E1F0E09
:10313000F3CFDBFF040EF36E200EF3CFDBFF210E87
:10314000DB6A790EF36E220EF3CFDBFF790EF36E9E
:10315000230EF3CFDBFF790EF36E240EF3CFDBFFEC
:10316000690EF36E250EF3CFDBFF690EF36E260EAC
:10317000F3CFDBFF780EF36E270EF3CFDBFF780E75
:10318000F36E280EF3CFDBFF790EF36E290EF3CF2B
:10319000DBFFD950020FE96EDACFEAFF2A0EEECF3D
:1031A000DBFF2B0EEECFDBFF2C0EEECFDBFF2D0E69
:1031B000EECFDBFF220EDB50E66ED950300FE96E0A
:1031C000DACFEAFFE552E750EE6EED6AA00EF36E3D
:1031D0002E0EF3CFDBFF2F0EDB6A330EDB6A340ECD
:1031E000DB6A310EF36E350EF3CFDBFF360EDB6A92
:1031F000380EDB6A010EF36E370EF3CFDBFFE66AA3
:103200004CEC00F0E552DF6A050EDF5C55E2010E82
:10321000DB6A080EF36E010EDBCFF4FFF350F45CB3
:1032200049E2D9502A0FE66E000EDA20E66EDEEC97
:1032300055F0E552E552D950020F146EDACF15F071
:10324000010EDB50040D1450F324E96E1550F420E8
:10325000EA6E2A0EEECFDBFF2B0EEECFDBFF2C0E3D
:10326000EECFDBFF2D0EEECFDBFFD950220F146E19
:10327000DACF15F0010EDB500F011424E96E000EB9
:103280001520EA6EEF50E66ED950300FE96EDACFB6
:10329000EAFFE552E750EE6EED6A3C0E146E040E46
:1032A000DF02F350145CE66EA5EC52F0E552010E1D
:1032B000DB2AAFD7DF2AA8D7DF6A050EDF5C54E22E
:1032C000010EDB6A080EF36E010EDBCFF4FFF35044
:1032D000F45C48E2D9502A0FE66E000EDA20E66E62
:1032E000DEEC55F0E552E552D950020F146EDACFFC
:1032F00015F0010EDB50040D1450F324E96E155047
:10330000F420EA6E2A0EEECFDBFF2B0EEECFDBFFB2
:103310002C0EEECFDBFF2D0EEECFDBFFD950220FB0
:10332000146EDACF15F0010EDB500F011424E96E94
:10333000000E1520EA6EEF50E66ED950300FE96EA0
:10334000DACFEAFFE552E750EE6EED6A280EE66E40
:1033500009EC53F0E552000902E0010E0BD0010E1A
:10336000DB2AB0D7DF2AA9D7E66A4CEC00F0E55299
:10337000000E00D0146E3D0EE15C02E2E16AE552FF
:10338000E16E1450E552E7CFD9FF1200D9CFE6FF26
:10339000E1CFD9FF150EE126DF6A010EDB6A400E90
:1033A000F36E020EF3CFDBFF110EF36E030EF3CFBD
:1033B000DBFF0E0EF36E040EF3CFDBFF050EDB6AB0
:1033C0005A0EF36E080EF3CFDBFF090EDB6AA00E78
:1033D000F36E060EF3CFDBFF070EDB6A0B0EDB6A24
:1033E0000C0EDB6A500EF36E0D0EF3CFDBFF0E0EEC
:1033F000DB6A100EDB6A010EF36E0F0EF3CFDBFFFC
:10340000E66A4CEC00F0E552DF6A050EDF5C3FE255
:10341000010EDB6A0A0EF36E010EDBCFF4FFF350F0
:10342000F45C22E2D950020FE66E000EDA20E66E5E
:10343000DEEC55F0E552E552D950020FE96EDACFD5
:10344000EAFF400EEE26380EEE22000EEE22EE22AD
:10345000500EE66E09EC53F0E552000902E0010E51
:103460001CD0010EDB2AD6D7400EF36E020EF3CF2E
:10347000DBFF110EF36E030EF3CFDBFF0E0EF36EC8
:10348000040EF3CFDBFF050EDB6ADF2ABED7E66A48
:103490004CEC00F0E552000E00D0146E150EE15C0D
:1034A00002E2E16AE552E16E1450E552E7CFD9FF3E
:1034B0001200D9CFE6FFE1CFD9FF150EE126DF6A72
:1034C000010EDB6AE66A2BEC34F0E552C00EF36EB7
:1034D000020EF3CFDBFF670EF36E030EF3CFDBFFBD
:1034E000370EF36E040EF3CFDBFF050EDB6AA00E82
:1034F000F36E080EF3CFDBFF090EDB6A4F0EF36E9F
:10350000060EF3CFDBFF070EDB6A280EF36E0B0E01
:10351000F3CFDBFF0C0EDB6A280EF36E0D0EF3CF3C
:10352000DBFF0E0EDB6A100EDB6A010EF36E0F0E70
:10353000F3CFDBFFE66A4CEC00F0E552C80EE66E16
:10354000A5EC52F0E552DF6A150EDF5C55E2D9506A
:10355000020FE66E000EDA20E66EDEEC55F0E55264
:10356000E552DF500AE1FA0EE66EA5EC52F0E552A4
:10357000FA0EE66EA5EC52F0E552DF50120806E2B4
:10358000640EE66EA5EC52F0E55205D03C0EE66EF8
:10359000A5EC52F0E552D950020FE96EDACFEAFFFE
:1035A000500EEE26000EEE22EE22EE22D950020F31
:1035B000E66E000EDA20E66EDEEC55F0E552E552DE
:1035C000DF50120806E2640EE66EA5EC52F0E552FA
:1035D00005D03C0EE66EA5EC52F0E552D950020F34
:1035E000E96EDACFEAFFB00EEE26630EEE22000E91
:1035F000EE22EE22DF2AA8D7E8EC00F0150EE15CFF
:1036000002E2E16AE552E16EE552E7CFD9FF12002E
:10361000D9CFE6FFE1CFD9FF160EE126E66A2BEC03
:1036200034F0E552E00EF36E030EF3CFDBFF430EF2
:10363000F36E040EF3CFDBFF2C0EF36E050EF3CF0B
:10364000DBFF060EDB6AF00EF36E090EF3CFDBFF35
:103650000A0EDB6AA00EF36E070EF3CFDBFF080E37
:10366000DB6A0C0EDB6A0D0EDB6A0E0EDB6A0F0ED8
:10367000DB6A110EDB6A010EF36E100EF3CFDBFF77
:10368000E66A3FEC34F0E552DF6A040EDF5C0CE2E0
:10369000DFCFE6FF4CEC00F0E552320EE66EA5EC13
:1036A00052F0E552DF2AF1D7FA0EE66EA5EC52F0A1
:1036B000E552FA0EE66EA5EC52F0E552DF6A040E12
:1036C000DF5C0EE2030ED880DF54E66E4CEC00F0B7
:1036D000E552320EE66EA5EC52F0E552DF2AEFD746
:1036E000DF6A130EDF5C1CE2D950030FE66E000E9A
:1036F000DA20E66EDEEC55F0E552E552D950030FC4
:10370000E96EDACFEAFFEE52960EEE26000EEE22BA
:10371000EE22640EE66EA5EC52F0E552DF2AE1D708
:10372000DF6ADF50146E156AD890155004E6FF0E5C
:10373000145C000E155831E285EC4EF0DE52F3CFEA
:10374000DEFFF4CFDDFFDD52010EDBCFE9FF020E1D
:10375000DBCFEAFFE926000EEA22EF5017E0DFCFC9
:10376000E6FFE66A4AEC58F0E552E552E6687EEC80
:1037700058F0E552C80EE66EA5EC52F0E552020E86
:10378000E66E7EEC58F0E552000E0DD0640EE66E4B
:10379000A5EC52F0E552DF2AC4D7E6687EEC58F07B
:1037A000E552010E00D0146E160EE15C02E2E16AF1
:1037B000E552E16E1450E552E7CFD9FF1200E66AF8
:1037C0002BEC34F0E552020EE66EC0EC52F0E552FE
:1037D0001DEC01F0000912E1A6EC08F000090EE171
:1037E000E3EC0CF000090AE1D2EC15F0000906E167
:1037F0001ADC000903E1CADD000901E000D0120073
:10380000D9CFE6FFE1CFD9FF020EE126FD0EDBCFD7
:10381000E9FFFE0EDBCFEAFF020EE926000EEA22E8
:10382000EE50EFCFEAFFE96E020EE926000EEA2223
:10383000EECFDEFFEDCFDDFFD9CFE9FFDACFEAFF34
:10384000EE50ED1019E0DECFE9FFDDCFEAFFEECF5D
:10385000E6FFEFCFE6FF02EC57F0E552E552DECF90
:10386000E9FFDDCFEAFF020EE926000EEA22EECFE5
:10387000DEFFEDCFDDFFE0D7FD0EDBCFE9FFFE0E73
:10388000DBCFEAFF040EE926000EEA22EE50EFCF6E
:10389000EAFFE96E020EE926000EEA22EECFDEFF15
:1038A000EDCFDDFFD9CFE9FFDACFEAFFEE50ED1023
:1038B00019E0DECFE9FFDDCFEAFFEECFE6FFEFCF85
:1038C000E6FF02EC57F0E552E552DECFE9FFDDCF2F
:1038D000EAFF020EE926000EEA22EECFDEFFEDCF70
:1038E000DDFFE0D7FD0EDBCFE9FFFE0EDBCFEAFF09
:1038F000060EE926000EEA22EE50EFCFEAFFE96E4F
:10390000020EE926000EEA22EECFDEFFEDCFDDFF4C
:10391000D9CFE9FFDACFEAFFEE50ED1019E0DECFA4
:10392000E9FFDDCFEAFFEECFE6FFEFCFE6FF02ECE7
:1039300057F0E552E552DECFE9FFDDCFEAFF020E98
:10394000E926000EEA22EECFDEFFEDCFDDFFE0D765
:10395000FD0EDBCFE9FFFE0EDBCFEAFF080EE92606
:10396000000EEA22EE50EFCFEAFFE96E020EE926E2
:10397000000EEA22EECFDEFFEDCFDDFFD9CFE9FF6B
:10398000DACFEAFFEE50ED1019E0DECFE9FFDDCF30
:10399000EAFFEECFE6FFEFCFE6FF02EC57F0E5528D
:1039A000E552DECFE9FFDDCFEAFF020EE926000E89
:1039B000EA22EECFDEFFEDCFDDFFE0D7FD0EDBCF5D
:1039C000E9FFFE0EDBCFEAFF0A0EE926000EEA222F
:1039D000EE50EFCFEAFFE96E020EE926000EEA2272
:1039E000EECFDEFFEDCFDDFFD9CFE9FFDACFEAFF83
:1039F000EE50ED1019E0DECFE9FFDDCFEAFFEECFAC
:103A0000E6FFEFCFE6FF02EC57F0E552E552DECFDE
:103A1000E9FFDDCFEAFF020EE926000EEA22EECF33
:103A2000DEFFEDCFDDFFE0D7FD0EDBCFE9FFFE0EC1
:103A3000DBCFEAFF0C0EE926000EEA22EE50EFCFB4
:103A4000EAFFE96E020EE926000EEA22EECFDEFF63
:103A5000EDCFDDFFD9CFE9FFDACFEAFFEE50ED1071
:103A600019E0DECFE9FFDDCFEAFFEECFE6FFEFCFD3
:103A7000E6FF02EC57F0E552E552DECFE9FFDDCF7D
:103A8000EAFF020EE926000EEA22EECFDEFFEDCFBE
:103A9000DDFFE0D7FD0EDBCFE9FFFE0EDBCFEAFF57
:103AA000020EE926000EEA22EECFE6FFEFCFE6FF98
:103AB00002EC57F0E552E552FD0EDBCFE9FFFE0EBA
:103AC000DBCFEAFF040EE926000EEA22EECFE6FF86
:103AD000EFCFE6FF02EC57F0E552E552FD0EDBCFEB
:103AE000E9FFFE0EDBCFEAFF060EE926000EEA2212
:103AF000EECFE6FFEFCFE6FF02EC57F0E552E552DE
:103B0000FD0EDBCFE9FFFE0EDBCFEAFF080EE92654
:103B1000000EEA22EECFE6FFEFCFE6FF02EC57F011
:103B2000E552E552FD0EDBCFE9FFFE0EDBCFEAFFEB
:103B30000A0EE926000EEA22EECFE6FFEFCFE6FFFF
:103B400002EC57F0E552E552FD0EDBCFE9FFFE0E29
:103B5000DBCFEAFF0C0EE926000EEA22EECFE6FFED
:103B6000EFCFE6FF02EC57F0E552E552FD0EDBCF5A
:103B7000E9FFFE0EDBCFEAFF0E0EE926000EEA2279
:103B8000EECFE6FFEFCFE6FF02EC57F0E552E5524D
:103B9000020EE15C02E2E16AE552E16EE552E7CF36
:103BA000D9FF1200D9CFE6FFE1CFD9FF020EE126FF
:103BB000120EE66E9DEC57F0E552F3CFDEFFF4CF28
:103BC000DDFFDECFE9FFDDCFEAFF000EEE6E380E3F
:103BD000ED6E0AEC4AF0F3CF14F0F4CF15F0DECF1F
:103BE000E9FFDDCFEAFF020EE926000EEA2214C04B
:103BF000EEFF15C0EDFF0AEC4AF0F3CF14F0F4CF5E
:103C000015F0DECFE9FFDDCFEAFF040EE926000E56
:103C1000EA2214C0EEFF15C0EDFF0AEC4AF0F3CF24
:103C200014F0F4CF15F0DECFE9FFDDCFEAFF060E8A
:103C3000E926000EEA2214C0EEFF15C0EDFF0AECE3
:103C40004AF0F3CF14F0F4CF15F0DECFE9FFDDCF6B
:103C5000EAFF080EE926000EEA2214C0EEFF15C0A6
:103C6000EDFF0AEC4AF0F3CF14F0F4CF15F0DECFFD
:103C7000E9FFDDCFEAFF0A0EE926000EEA2214C0B2
:103C8000EEFF15C0EDFF0AEC4AF0F3CF14F0F4CFCD
:103C900015F0DECFE9FFDDCFEAFF0C0EE926000EBE
:103CA000EA2214C0EEFF15C0EDFFDECFE9FFDDCF45
:103CB000EAFF0E0EE926000EEA22FD0EDBCFEEFF34
:103CC000FE0EDBCFEDFFDECFE9FFDDCFEAFF100E0A
:103CD000E926000EEA22FB0EDBCFEEFFFC0EDBCF67
:103CE000EDFFDECF14F0DDCF15F014C0F3FF15C0EB
:103CF000F4FF020EE15C03E200D0E16AE552E16EFE
:103D0000E552E7CFD9FF1200D9CFE6FFE1CFD9FFC7
:103D1000FB0EDBCFE6FFFC0EDBCFE6FFFD0EDBCFBD
:103D2000E9FFFE0EDBCFEAFF020EE926000EEA22D3
:103D3000EECFE6FFEFCFE6FF3FEC4AF0E552E5526B
:103D4000E552E552E552E7CFD9FF1200D9CFE6FFA1
:103D5000E1CFD9FFFB0EDBCFE6FFFC0EDBCFE6FFAA
:103D6000FD0EDBCFE9FFFE0EDBCFEAFF040EE926F6
:103D7000000EEA22EECFE6FFEFCFE6FF3FEC4AF07F
:103D8000E552E552E552E552E552E7CFD9FF120080
:103D9000D9CFE6FFE1CFD9FFFB0EDBCFE6FFFC0E6C
:103DA000DBCFE6FFFD0EDBCFE9FFFE0EDBCFEAFF48
:103DB000060EE926000EEA22EECFE6FFEFCFE6FF81
:103DC0003FEC4AF0E552E552E552E552E552E7CFC5
:103DD000D9FF1200D9CFE6FFE1CFD9FFFB0EDBCF31
:103DE000E6FFFC0EDBCFE6FFFD0EDBCFE9FFFE0EAC
:103DF000DBCFEAFF080EE926000EEA22EECFE6FF4F
:103E0000EFCFE6FF3FEC4AF0E552E552E552E552CE
:103E1000E552E7CFD9FF1200D9CFE6FFE1CFD9FFB6
:103E2000FB0EDBCFE6FFFC0EDBCFE6FFFD0EDBCFAC
:103E3000E9FFFE0EDBCFEAFF0A0EE926000EEA22BA
:103E4000EECFE6FFEFCFE6FF3FEC4AF0E552E5525A
:103E5000E552E552E552E7CFD9FF1200D9CFE6FF90
:103E6000E1CFD9FFFB0EDBCFE6FFFC0EDBCFE6FF99
:103E7000FD0EDBCFE9FFFE0EDBCFEAFF0C0EE926DD
:103E8000000EEA22EECFE6FFEFCFE6FF3FEC4AF06E
:103E9000E552E552E552E552E552E7CFD9FF12006F
:103EA000D9CFE6FFE1CFD9FFFB0EDBCFE9FFFC0E58
:103EB000DBCFEAFFEECFE6FFEFCFE6FF02EC57F0F5
:103EC000E552E552FB0EDBCFE6FFFC0EDBCFE6FF53
:103ED000FD0EDBCFE9FFFE0EDBCFEAFF020EE92687
:103EE000000EEA22EECFE6FFEFCFE6FFACEC4AF0A1
:103EF000E552E552E552E55200D0E552E7CFD9FF51
:103F00001200D9CFE6FFE1CFD9FFFB0EDBCFE9FFEF
:103F1000FC0EDBCFEAFFEECFE6FFEFCFE6FF02ECD1
:103F200057F0E552E552FB0EDBCFE6FFFC0EDBCF90
:103F3000E6FFFD0EDBCFE9FFFE0EDBCFEAFF040E4E
:103F4000E926000EEA22EECFE6FFEFCFE6FFACEC6B
:103F50004AF0E552E552E552E55200D0E552E7CF8E
:103F6000D9FF1200D9CFE6FFE1CFD9FFFB0EDBCF9F
:103F7000E9FFFC0EDBCFEAFFEECFE6FFEFCFE6FF77
:103F800002EC57F0E552E552FB0EDBCFE6FFFC0EEC
:103F9000DBCFE6FFFD0EDBCFE9FFFE0EDBCFEAFF56
:103FA000060EE926000EEA22EECFE6FFEFCFE6FF8F
:103FB000ACEC4AF0E552E552E552E55200D0E5524C
:103FC000E7CFD9FF1200D9CFE6FFE1CFD9FFFB0E33
:103FD000DBCFE9FFFC0EDBCFEAFFEECFE6FFEFCF52
:103FE000E6FF02EC57F0E552E552FB0EDBCFE6FFB1
:103FF000FC0EDBCFE6FFFD0EDBCFE9FFFE0EDBCFD5
:10400000EAFF080EE926000EEA22EECFE6FFEFCF28
:10401000E6FFACEC4AF0E552E552E552E55200D03D
:10402000E552E7CFD9FF1200D9CFE6FFE1CFD9FFA4
:10403000FB0EDBCFE9FFFC0EDBCFEAFFEECFE6FFA6
:10404000EFCFE6FF02EC57F0E552E552FB0EDBCF77
:10405000E6FFFC0EDBCFE6FFFD0EDBCFE9FFFE0E39
:10406000DBCFEAFF0A0EE926000EEA22EECFE6FFDA
:10407000EFCFE6FFACEC4AF0E552E552E552E552EF
:1040800000D0E552E7CFD9FF1200D9CFE6FFE1CF4C
:10409000D9FFFB0EDBCFE9FFFC0EDBCFEAFFEECF53
:1040A000E6FFEFCFE6FF02EC57F0E552E552FB0EDC
:1040B000DBCFE6FFFC0EDBCFE6FFFD0EDBCFE9FF3B
:1040C000FE0EDBCFEAFF0C0EE926000EEA22EECF51
:1040D000E6FFEFCFE6FFACEC4AF0E552E552E552E1
:1040E000E55200D0E552E7CFD9FF1200D9CFE6FF65
:1040F000E1CFD9FF020EE126FD0EDBCFE9FFFE0E78
:10410000DBCFEAFF100EE926000EEA22EE50EFCFD9
:10411000EAFFE96EEECFE6FFEFCFE6FF72EC25F0A7
:10412000E552E552FD0EDBCFE9FFFE0EDBCFEAFFE5
:104130000C0EE926000EEA22EE50EFCFEAFFE96E00
:10414000020EE926000EEA22EECFDEFFEDCFDDFF04
:10415000D9CFE9FFDACFEAFFEE50ED1019E0DECF5C
:10416000E9FFDDCFEAFFEECFE6FFEFCFE6FF72EC2F
:1041700025F0E552E552DECFE9FFDDCFEAFF020E82
:10418000E926000EEA22EECFDEFFEDCFDDFFE0D71D
:10419000FD0EDBCFE9FFFE0EDBCFEAFF040EE926C2
:1041A000000EEA22EE50EFCFEAFFE96E020EE9269A
:1041B000000EEA22EECFDEFFEDCFDDFFD9CFE9FF23
:1041C000DACFEAFFEE50ED1019E0DECFE9FFDDCFE8
:1041D000EAFFEECFE6FFEFCFE6FF72EC25F0E55207
:1041E000E552DECFE9FFDDCFEAFF020EE926000E41
:1041F000EA22EECFDEFFEDCFDDFFE0D7FD0EDBCF15
:10420000E9FFFE0EDBCFEAFF0E0EE926000EEA22E2
:10421000EECFE6FFEFCFE6FF72EC25F0E552E55278
:10422000FD0EDBCFE9FFFE0EDBCFEAFF060EE9262F
:10423000000EEA22EE50EFCFEAFFE96E020EE92609
:10424000000EEA22EECFDEFFEDCFDDFFD9CFE9FF92
:10425000DACFEAFFEE50ED1019E0DECFE9FFDDCF57
:10426000EAFFEECFE6FFEFCFE6FF72EC25F0E55276
:10427000E552DECFE9FFDDCFEAFF020EE926000EB0
:10428000EA22EECFDEFFEDCFDDFFE0D7FD0EDBCF84
:10429000E9FFFE0EDBCFEAFF080EE926000EEA2258
:1042A000EE50EFCFEAFFE96E020EE926000EEA2299
:1042B000EECFDEFFEDCFDDFFD9CFE9FFDACFEAFFAA
:1042C000EE50ED1019E0DECFE9FFDDCFEAFFEECFD3
:1042D000E6FFEFCFE6FF72EC25F0E552E552DECFC8
:1042E000E9FFDDCFEAFF020EE926000EEA22EECF5B
:1042F000DEFFEDCFDDFFE0D7FD0EDBCFE9FFFE0EE9
:10430000DBCFEAFF020EE926000EEA22EE50EFCFE5
:10431000EAFFE96E020EE926000EEA22EECFDEFF8A
:10432000EDCFDDFFD9CFE9FFDACFEAFFEE50ED1098
:1043300019E0DECFE9FFDDCFEAFFEECFE6FFEFCFFA
:10434000E6FF72EC25F0E552E552DECFE9FFDDCF66
:10435000EAFF020EE926000EEA22EECFDEFFEDCFE5
:10436000DDFFE0D7FD0EDBCFE9FFFE0EDBCFEAFF7E
:104370000A0EE926000EEA22EE50EFCFEAFFE96EC0
:10438000020EE926000EEA22EECFDEFFEDCFDDFFC2
:10439000D9CFE9FFDACFEAFFEE50ED1019E0DECF1A
:1043A000E9FFDDCFEAFFEECFE6FFEFCFE6FF72ECED
:1043B00025F0E552E552DECFE9FFDDCFEAFF020E40
:1043C000E926000EEA22EECFDEFFEDCFDDFFE0D7DB
:1043D000020EE15C02E2E16AE552E16EE552E7CFEE
:1043E000D9FF1200D9CFE6FFE1CFD9FF020EE126B7
:1043F000FD0EDBCFE6FFFE0EDBCFE6FFFD0EDBCFD3
:10440000E9FFFE0EDBCFEAFF0E0EE926000EEA22E0
:10441000EECFE6FFEFCFE6FFF6EC54F0E552E552C3
:10442000E552E552FD0EDBCFE6FFFE0EDBCFE6FFE9
:10443000FD0EDBCFE9FFFE0EDBCFEAFF100EE92613
:10444000000EEA22EE50EFCFEAFFE96EEECFE6FF74
:10445000EFCFE6FFF6EC54F0E552E552E552E552B7
:10446000FD0EDBCFE6FFFE0EDBCFE6FFFD0EDBCF62
:10447000E9FFFE0EDBCFEAFF100EE926000EEA226E
:10448000EECFE6FFEFCFE6FF5FEC54F0E552E552EA
:10449000E552E552FD0EDBCFE9FFFE0EDBCFEAFF72
:1044A000020EE926000EEA22EE50EFCFEAFFE96E97
:1044B000020EE926000EEA22EECFDEFFEDCFDDFF91
:1044C000D9CFE9FFDACFEAFFEE50ED1037E0FD0E6D
:1044D000DBCFE6FFFE0EDBCFE6FFDECFE9FFDDCF71
:1044E000EAFFEECFE6FFEFCFE6FFF6EC54F0E55241
:1044F000E552E552E552010814E1DECFE6FFDDCFDB
:10450000E6FFFD0EDBCFE6FFFE0EDBCFE6FFC8DCED
:10451000E552E552E552E552F3CFDEFFF4CFDDFF81
:104520000CD0DECFE9FFDDCFEAFF020EE926000E58
:10453000EA22EECFDEFFEDCFDDFFC2D7FD0EDBCFEF
:10454000E9FFFE0EDBCFEAFF040EE926000EEA22A9
:10455000EE50EFCFEAFFE96E020EE926000EEA22E6
:10456000EECFDEFFEDCFDDFFD9CFE9FFDACFEAFFF7
:10457000EE50ED1037E0FD0EDBCFE6FFFE0EDBCF99
:10458000E6FFDECFE9FFDDCFEAFFEECFE6FFEFCFBC
:10459000E6FFF6EC54F0E552E552E552E55201082B
:1045A00014E1DECFE6FFDDCFE6FFFD0EDBCFE6FF59
:1045B000FE0EDBCFE6FFA5DCE552E552E552E55203
:1045C000F3CFDEFFF4CFDDFF0CD0DECFE9FFDDCF90
:1045D000EAFF020EE926000EEA22EECFDEFFEDCF63
:1045E000DDFFC2D7FD0EDBCFE9FFFE0EDBCFEAFF1A
:1045F000060EE926000EEA22EE50EFCFEAFFE96E42
:10460000020EE926000EEA22EECFDEFFEDCFDDFF3F
:10461000D9CFE9FFDACFEAFFEE50ED1037E0FD0E1B
:10462000DBCFE6FFFE0EDBCFE6FFDECFE9FFDDCF1F
:10463000EAFFEECFE6FFEFCFE6FFF6EC54F0E552EF
:10464000E552E552E552010814E1DECFE6FFDDCF89
:10465000E6FFFD0EDBCFE6FFFE0EDBCFE6FF82DCE2
:10466000E552E552E552E552F3CFDEFFF4CFDDFF30
:104670000CD0DECFE9FFDDCFEAFF020EE926000E07
:10468000EA22EECFDEFFEDCFDDFFC2D7FD0EDBCF9E
:10469000E9FFFE0EDBCFEAFF080EE926000EEA2254
:1046A000EE50EFCFEAFFE96E020EE926000EEA2295
:1046B000EECFDEFFEDCFDDFFD9CFE9FFDACFEAFFA6
:1046C000EE50ED1037E0FD0EDBCFE6FFFE0EDBCF48
:1046D000E6FFDECFE9FFDDCFEAFFEECFE6FFEFCF6B
:1046E000E6FFF6EC54F0E552E552E552E5520108DA
:1046F00014E1DECFE6FFDDCFE6FFFD0EDBCFE6FF08
:10470000FE0EDBCFE6FF5FDCE552E552E552E552F7
:10471000F3CFDEFFF4CFDDFF0CD0DECFE9FFDDCF3E
:10472000EAFF020EE926000EEA22EECFDEFFEDCF11
:10473000DDFFC2D7FD0EDBCFE9FFFE0EDBCFEAFFC8
:104740000A0EE926000EEA22EE50EFCFEAFFE96EEC
:10475000020EE926000EEA22EECFDEFFEDCFDDFFEE
:10476000D9CFE9FFDACFEAFFEE50ED1037E0FD0ECA
:10477000DBCFE6FFFE0EDBCFE6FFDECFE9FFDDCFCE
:10478000EAFFEECFE6FFEFCFE6FFF6EC54F0E5529E
:10479000E552E552E552010814E1DECFE6FFDDCF38
:1047A000E6FFFD0EDBCFE6FFFE0EDBCFE6FF3CDCD7
:1047B000E552E552E552E552F3CFDEFFF4CFDDFFDF
:1047C0000CD0DECFE9FFDDCFEAFF020EE926000EB6
:1047D000EA22EECFDEFFEDCFDDFFC2D7FD0EDBCF4D
:1047E000E9FFFE0EDBCFEAFF0C0EE926000EEA22FF
:1047F000EE50EFCFEAFFE96E020EE926000EEA2244
:10480000EECFDEFFEDCFDDFFD9CFE9FFDACFEAFF54
:10481000EE50ED1037E0FD0EDBCFE6FFFE0EDBCFF6
:10482000E6FFDECFE9FFDDCFEAFFEECFE6FFEFCF19
:10483000E6FFF6EC54F0E552E552E552E552010888
:1048400014E1DECFE6FFDDCFE6FFFD0EDBCFE6FFB6
:10485000FE0EDBCFE6FF19DCE552E552E552E552EC
:10486000F3CFDEFFF4CFDDFF0CD0DECFE9FFDDCFED
:10487000EAFF020EE926000EEA22EECFDEFFEDCFC0
:10488000DDFFC2D7020EE15C02E2E16AE552E16EB1
:10489000E552E7CFD9FF1200D9CFE6FFE1CFD9FF2C
:1048A000050EE126FD0EDBCFE9FFFE0EDBCFEAFFB2
:1048B000040EE926000EEA22EE50EFCFEAFFE96E81
:1048C000020EE926000EEA22020EEECFDBFF030EF7
:1048D000EDCFDBFFD950020FE96EDACFEAFFEE50E1
:1048E000ED1001E1C0D0040EDB6AFD0EDBCFE9FF65
:1048F000FE0EDBCFEAFF060EE926000EEA22EECF1F
:10490000E6FFEFCFE6FF020EDBCFE9FF030EDBCFC2
:10491000EAFFEECFE6FFEFCFE6FF52EC52F0E552B2
:10492000E552E552E552F3CFDEFFF4CFDDFFD9CFFC
:10493000E9FFDACFEAFFEE50ED1068E0FD0EDBCFC5
:10494000E6FFFE0EDBCFE6FF020EDBCFE9FF030E34
:10495000DBCFEAFFEECFE6FFEFCFE6FFDECFE9FFEA
:10496000DDCFEAFFEECFE6FFEFCFE6FF18EC58F021
:10497000146E060EE15E1450DECFE9FFDDCFEAFFD4
:10498000EE50EFCFEAFFE96E0B0EE926000EEA22A9
:10499000EF50E66E020EDBCFE9FF030EDBCFEAFF3E
:1049A000EECFE6FFEFCFE6FF6EEC56F0E552E552B4
:1049B000E55200091BE0010EF36E040EF3CFDBFF9E
:1049C000FD0EDBCFE6FFFE0EDBCFE6FF020EDBCFF8
:1049D000E9FF030EDBCFEAFFEECFE6FFEFCFE6FF06
:1049E00042EC56F0E552E552E552E552DECFE6FFE5
:1049F000DDCFE6FFFD0EDBCFE6FFFE0EDBCFE6FFF1
:104A0000B2EC1FF0E552E552E552E552040EDB50E0
:104A100019E0020EDBCFE6FF030EDBCFE6FFFD0E53
:104A2000DBCFE6FFFE0EDBCFE6FF81EC1FF0E552A9
:104A3000E552E552E552020EF3CFDBFF030EF4CF51
:104A4000DBFF10D0020EDBCFE9FF030EDBCFEAFF66
:104A5000020EE926000EEA22020EEECFDBFF030E65
:104A6000EDCFDBFF37D7050EE15C02E2E16AE552EC
:0A4A7000E16EE552E7CFD9FF120016
:064A7A00D9CFE6FFE1CFF9
:104A8000D9FFFD0EDBCFE9FFFE0EDBCFEAFF060EFE
:104A9000E926000EEA22EE50EFCFEAFFE96E020EA1
:104AA000E926000EEA22EECF16F0EFCF17F0FD0E4A
:104AB000DBCFE9FFFE0EDBCFEAFF080EE926000E92
:104AC000EA22EF50090D1650F324146E1750F4200B
:104AD000156E14C0F3FF15C0F4FF00D0E552E7CF08
:104AE000D9FF1200D9CFE6FFE1CFD9FF020EE126B0
:104AF000FD0EDBCFE6FFFE0EDBCFE6FFBEDFE552AD
:104B0000E552F3CFDEFFF4CFDDFFDECFE9FFDDCFEF
:104B1000EAFF080EE926000EEA22EF50E66EFD0ECF
:104B2000DBCFE9FFFE0EDBCFEAFF020EE926000E27
:104B3000EA22EECFE6FFEECFE6FFEECFE6FFEFCFC5
:104B4000E6FFDECFE6FFDDCFE6FF56EC49F0146E60
:104B5000070EE15E1450020EE15C02E2E16AE552EA
:104B6000E16EE552E7CFD9FF1200D9CFE6FFE1CFE2
:104B7000D9FFFD0EDBCFE6FFFE0EDBCFE6FF7DDFCC
:104B8000E552E552F3CFE9FFF4CFEAFF040EE92640
:104B9000000EEA22EECF14F0EFCF15F014C0F3FFB1
:104BA00015C0F4FF00D0E552E7CFD9FF1200D9CFEE
:104BB000E6FFE1CFD9FFFD0EDBCFE6FFFE0EDBCF38
:104BC000E6FF5BDFE552E552F3CFE9FFF4CFEAFF02
:104BD000060EE926000EEA22EECF14F0EFCF15F014
:104BE00014C0F3FF15C0F4FF00D0E552E7CFD9FFA2
:104BF0001200D9CFE6FFE1CFD9FFFD0EDBCFE9FFF1
:104C0000FE0EDBCFEAFF020EE926000EEA22EECF0F
:104C100014F0EECF15F0EECF16F0EFCF17F014C072
:104C2000F3FF15C0F4FF00D0E552E7CFD9FF120023
:104C3000D9CFE6FFE1CFD9FFFD0EDBCFE9FFFE0EB6
:104C4000DBCFEAFF020EE926000EEA22EECF14F0D7
:104C5000EECF15F0EECF16F0EFCF17F016C0F3FF42
:104C600017C0F4FF00D0E552E7CFD9FF1200D9CF2B
:104C7000E6FFE1CFD9FFFD0EDBCFE9FFFE0EDBCF74
:104C8000EAFF020EE926000EEA22EECF16F0EFCF81
:104C900017F016C0E6FF17C0E6FFFD0EDBCFE6FFFC
:104CA000FE0EDBCFE6FF61DFE552E552E552E7CFCE
:104CB00017F0E552E7CF16F01650F324146E175094
:104CC000F420156E14C0F3FF15C0F4FF00D0E552B8
:104CD000E7CFD9FF1200D9CFE6FFE1CFD9FFFD0E14
:104CE000DBCFE9FFFE0EDBCFEAFF020EE926000E66
:104CF000EA22020EE926000EEA22EECF16F0EFCFEE
:104D000017F016C0E6FF17C0E6FFFD0EDBCFE6FF8B
:104D1000FE0EDBCFE6FF4BDFE552E552E552E7CF73
:104D200017F0E552E7CF16F01650F324146E175023
:104D3000F420156E14C0F3FF15C0F4FF00D0E55247
:104D4000E7CFD9FF1200D9CFE6FFE1CFD9FF040E9C
:104D5000E126FD0EDBCFE6FFFE0EDBCFE6FF05DF33
:104D6000E552E552F3CF16F0F4CF17F0010E0F0B1A
:104D700005E0D89017321632E806FBE1FD0EDBCFD6
:104D8000E9FFFE0EDBCFEAFF020EE926000EEA2263
:104D90001650EE24146E1750EE20156E14C0DEFF70
:104DA00015C0DDFFFD0EDBCFE6FFFE0EDBCFE6FF1D
:104DB000FEDEE552E552F3CF16F0F4CF17F0010E08
:104DC0000F0B05E0D89017321632E806FBE1FD0E16
:104DD000DBCFE9FFFE0EDBCFEAFF020EE926000E75
:104DE000EA22020EE926000EEA221650EE24146E84
:104DF0001750EE20156E020E14C0DBFF030E15C017
:104E0000DBFFDECF06F0DECF07F0DECF08F0DDCF30
:104E100009F0DD52DD52040EE15C03E200D0E16AEC
:104E2000E552E16EE552E7CFD9FF1200D9CFE6FF98
:104E3000E1CFD9FF040EE126FD0EDBCFE6FFFE0E2B
:104E4000DBCFE6FF92DEE552E552F3CF16F0F4CF6A
:104E500017F0010E0F0B05E0D89017321632E80656
:104E6000FBE1FD0EDBCFE9FFFE0EDBCFEAFF020E1A
:104E7000E926000EEA221650EE24146E1750EE209A
:104E8000156E14C0DEFF15C0DDFFFD0EDBCFE6FFA3
:104E9000FE0EDBCFE6FFCCDEE552E552020EF3CF8D
:104EA000DBFF030EF4CFDBFFDECF06F0DECF07F033
:104EB000DECF08F0DDCF09F0DD52DD52040EE15CFB
:104EC00003E200D0E16AE552E16EE552E7CFD9FF97
:104ED0001200D9CFE6FFE1CFD9FF040EE126FD0E87
:104EE000DBCFE6FFFE0EDBCFE6FF3FDEE552E5520D
:104EF000F3CF16F0F4CF17F0010E0F0B05E0D890AA
:104F000017321632E806FBE1FD0EDBCFE9FFFE0E9D
:104F1000DBCFEAFF020EE926000EEA221650EE244D
:104F2000146E1750EE20156E14C0DEFF15C0DDFFA5
:104F3000FD0EDBCFE6FFFE0EDBCFE6FFCCDEE5525B
:104F4000E552020EF3CFDBFF030EF4CFDBFFDECF23
:104F500006F0DECF07F0DECF08F0DDCF09F0DD523E
:104F6000DD52040EE15C03E200D0E16AE552E16E3D
:104F7000E552E7CFD9FF1200D9CFE6FFE1CFD9FF45
:104F8000040EE126FD0EDBCFE6FFFE0EDBCFE6FFD3
:104F900030DEE552E552F3CFDEFFF4CFDDFFFD0E4C
:104FA000DBCFE6FFFE0EDBCFE6FF01DEE552E5528A
:104FB000F3CF16F0F4CF17F0010E0F0B05E0D890E9
:104FC00017321632E806FBE1FD0EDBCFE9FFFE0EDD
:104FD000DBCFEAFF020EE926000EEA22020EE926E6
:104FE000000EEA221650EE24146E1750EE20156EB5
:104FF000020E14C0DBFF030E15C0DBFFDECF06F090
:10500000DECF07F0DECF08F0DDCF09F0DD52DD5254
:10501000040EE15C03E200D0E16AE552E16EE55284
:10502000E7CFD9FF1200D9CFE6FFE1CFD9FF040EB9
:10503000E126FD0EDBCFE6FFFE0EDBCFE6FF17DE3F
:10504000E552E552F3CFDEFFF4CFDDFFFD0EDBCFFF
:10505000E6FFFE0EDBCFE6FFAADDE552E552F3CF19
:1050600016F0F4CF17F0010E0F0B05E0D8901732B1
:105070001632E806FBE1FD0EDBCFE9FFFE0EDBCFCB
:10508000EAFF020EE926000EEA22020EE926000ED1
:10509000EA221650EE24146E1750EE20156E020E02
:1050A00014C0DBFF030E15C0DBFFDECF06F0DECF42
:1050B00007F0DECF08F0DDCF09F0DD52DD52040E3F
:1050C000E15C03E200D0E16AE552E16EE552E7CF30
:1050D000D9FF1200D9CFE6FFE1CFD9FF040EE126B8
:1050E000FD0EDBCFE6FFFE0EDBCFE6FF82DDE552F5
:1050F000E552F3CFDEFFF4CFDDFFFD0EDBCFE6FFA1
:10510000FE0EDBCFE6FFE7DDE552E552020EF3CF00
:10511000DBFF030EF4CFDBFFDECF06F0DECF07F0C0
:10512000DECF08F0DDCF09F0DD52DD52040EE15C88
:1051300003E200D0E16AE552E16EE552E7CFD9FF24
:105140001200D9CFE6FFE1CFD9FF040EE126FD0E14
:10515000DBCFE6FFFE0EDBCFE6FF89DDE552E55251
:10516000F3CFDEFFF4CFDDFFFD0EDBCFE6FFFE0E5B
:10517000DBCFE6FFB0DDE552E552020EF3CFDBFFF9
:10518000030EF4CFDBFFDECF06F0DECF07F0DECF7D
:1051900008F0DDCF09F0DD52DD52040EE15C03E2E0
:1051A00000D0E16AE552E16EE552E7CFD9FF120087
:1051B000D9CFE6FFE1CFD9FF040EE126FD0EDBCF0C
:1051C000E6FFFE0EDBCFE6FF14DDE552E552F3CF3E
:1051D000DEFFF4CFDDFFFD0EDBCFE6FFFE0EDBCF03
:1051E000E6FF26DDE552E552020EF3CFDBFF030EAC
:1051F000F4CFDBFFDECF06F0DECF07F0DECF08F026
:10520000DDCF09F0DD52DD52040EE15C03E200D097
:10521000E16AE552E16EE552E7CFD9FF1200D9CF3E
:10522000E6FFE1CFD9FF040EE126FD0EDBCFE6FF5E
:10523000FE0EDBCFE6FF1BDDE552E552F3CFDEFFCE
:10524000F4CFDDFFFD0EDBCFE6FFFE0EDBCFE6FF8A
:10525000EFDCE552E552020EF3CFDBFF030EF4CF95
:10526000DBFFDECF06F0DECF07F0DECF08F0DDCFCC
:1052700009F0DD52DD52040EE15C03E200D0E16A88
:10528000E552E16EE552E7CFD9FF1200D9CFE6FF34
:10529000E1CFD9FFFD0EDBCFE9FFFE0EDBCFEAFF4A
:1052A000080EE926000EEA22EF2AEFCF14F0FD0ED9
:1052B000DBCFE9FFFE0EDBCFEAFF060EE926000E8C
:1052C000EA22EE50EFCFEAFFE96E040EE926000E67
:1052D000EA22EF50145C0BE3FD0EDBCFE6FFFE0E7F
:1052E000DBCFE6FF36D8E552E552010E02D0000EC4
:1052F00000D0E552E7CFD9FF1200D9CFE6FFE1CFCA
:10530000D9FFFD0EDBCFE9FFFE0EDBCFEAFF080E73
:10531000E926000EEA22EF500CE1FD0EDBCFE6FF9E
:10532000FE0EDBCFE6FF28D8E552E552010E0DD088
:105330000CD0FD0EDBCFE9FFFE0EDBCFEAFF080E3F
:10534000E926000EEA22EF0600D0E552E7CFD9FFAA
:105350001200D9CFE6FFE1CFD9FFFD0EDBCFE9FF89
:10536000FE0EDBCFEAFF080EE926000EEA22EF6A06
:10537000E552E7CFD9FF1200D9CFE6FFE1CFD9FF41
:10538000FD0EDBCFE9FFFE0EDBCFEAFF060EE926BE
:10539000000EEA22EE50EFCFEAFFE96E040EE92696
:1053A000000EEA22EF04E66EFD0EDBCFE9FFFE0EF3
:1053B000DBCFEAFF080EE926000EEA22E552E750AD
:1053C000EF6EE552E7CFD9FF1200D9CFE6FFE1CF6C
:1053D000D9FF040EE126FB0EDBCFE6FFFC0EDBCF90
:1053E000E6FFB1DCE552E55206C0DEFF07C0DEFF96
:1053F00008C0DEFF09C0DDFFDD52DD52FD0EDBCF50
:10540000E6FFFE0EDBCFE6FFB5EC25F0E552E552F8
:10541000F3CF16F0F4CF17F0010E0F0B05E0D89084
:1054200017321632E806FBE11650DE5C146E175098
:10543000DD58156EFD0EDBCFE9FFFE0EDBCFEAFF78
:10544000020EE926000EEA2214C0EEFF15C0EDFFA1
:10545000FD0EDBCFE6FFFE0EDBCFE6FFD7EC25F03F
:10546000E552E552F3CF16F0F4CF17F0010E0F0B13
:1054700005E0D89017321632E806FBE1020EDBCFCA
:1054800008F0030EDBCF09F01650085C146E1750BD
:105490000958156EFD0EDBCFE9FFFE0EDBCFEAFFEC
:1054A000020EE926000EEA22020EE926000EEA228A
:1054B00014C0EEFF15C0EDFF040EE15C02E2E16AEC
:1054C000E552E16EE552E7CFD9FF1200D9CFE6FFF2
:1054D000E1CFD9FF040EE126FB0EDBCFE6FFFC0E89
:1054E000DBCFE6FFA3DCE552E55206C0DEFF07C0D6
:1054F000DEFF08C0DEFF09C0DDFFDD52DD52FD0E1C
:10550000DBCFE6FFFE0EDBCFE6FFB5EC25F0E55284
:10551000E552F3CF16F0F4CF17F0010E0F0B05E0B4
:10552000D89017321632E806FBE11650DE5C146E96
:105530001750DD58156EFD0EDBCFE9FFFE0EDBCFF9
:10554000EAFF020EE926000EEA2214C0EEFF15C0A3
:10555000EDFFFD0EDBCFE9FFFE0EDBCFEAFF020E13
:10556000E926000EEA22020EE926000EEA22020EC9
:10557000DBCFEEFF030EDBCFEDFF040EE15C02E2BA
:10558000E16AE552E16EE552E7CFD9FF1200D9CFCB
:10559000E6FFE1CFD9FF040EE126FB0EDBCFE6FFED
:1055A000FC0EDBCFE6FF95DCE552E55206C0DEFFE0
:1055B00007C0DEFF08C0DEFF09C0DDFFDD52DD529F
:1055C000FD0EDBCFE6FFFE0EDBCFE6FFB5EC25F0F0
:1055D000E552E552F3CF16F0F4CF17F0010E0F0BA2
:1055E00005E0D89017321632E806FBE11650DE5C73
:1055F000146E1750DD58156EFD0EDBCFE9FFFE0E61
:10560000DBCFEAFF020EE926000EEA2214C0EEFF0D
:1056100015C0EDFF020EDBCF16F0030EDBCF17F047
:1056200016C0E6FF17C0E6FFFD0EDBCFE6FFFE0E5D
:10563000DBCFE6FFD7EC25F0E552E552E552E7CFA8
:1056400017F0E552E7CF16F0F350165C146EF450E5
:105650001758156EFD0EDBCFE9FFFE0EDBCFEAFF1C
:10566000020EE926000EEA22020EE926000EEA22C8
:1056700014C0EEFF15C0EDFF040EE15C02E2E16A2A
:10568000E552E16EE552E7CFD9FF1200D9CFE6FF30
:10569000E1CFD9FF040EE126FB0EDBCFE6FFFC0EC7
:1056A000DBCFE6FF69DCE552E55206C0DEFF07C04E
:1056B000DEFF08C0DEFF09C0DDFFDD52DD52FD0E5A
:1056C000DBCFE9FFFE0EDBCFEAFF020EE926000E7C
:1056D000EA22DECFEEFFDDCFEDFFFD0EDBCFE6FFF2
:1056E000FE0EDBCFE6FFD7EC25F0E552E552F3CF17
:1056F00016F0F4CF17F0010E0F0B05E0D89017321B
:105700001632E806FBE1020EDBCF08F0030EDBCF1A
:1057100009F01650085C146E17500958156EFD0EEE
:10572000DBCFE9FFFE0EDBCFEAFF020EE926000E1B
:10573000EA22020EE926000EEA2214C0EEFF15C08E
:10574000EDFF040EE15C02E2E16AE552E16EE55232
:10575000E7CFD9FF1200D9CFE6FFE1CFD9FF040E82
:10576000E126FB0EDBCFE6FFFC0EDBCFE6FF5BDCCA
:10577000E552E55206C0DEFF07C0DEFF08C0DEFFCF
:1057800009C0DDFFDD52DD52DECF16F0DDCF17F0B0
:1057900016C0E6FF17C0E6FFFD0EDBCFE6FFFE0EEC
:1057A000DBCFE6FFB5EC25F0E552E552E552E7CF59
:1057B00017F0E552E7CF16F0F350165C146EF45074
:1057C0001758156EFD0EDBCFE9FFFE0EDBCFEAFFAB
:1057D000020EE926000EEA2214C0EEFF15C0EDFF0E
:1057E000FD0EDBCFE6FFFE0EDBCFE6FFD7EC25F0AC
:1057F000E552E552F3CF16F0F4CF17F0010E0F0B80
:1058000005E0D89017321632E806FBE1020EDBCF36
:1058100008F0030EDBCF09F01650085C146E175029
:105820000958156EFD0EDBCFE9FFFE0EDBCFEAFF58
:10583000020EE926000EEA22020EE926000EEA22F6
:1058400014C0EEFF15C0EDFF040EE15C02E2E16A58
:10585000E552E16EE552E7CFD9FF1200D9CFE6FF5E
:10586000E1CFD9FF040EE126FB0EDBCFE6FFFC0EF5
:10587000DBCFE6FF2FDCE552E55206C0DEFF07C0B6
:10588000DEFF08C0DEFF09C0DDFFDD52DD52FD0E88
:10589000DBCFE9FFFE0EDBCFEAFF020EE926000EAA
:1058A000EA22DECFEEFFDDCFEDFF020EDBCF16F0FA
:1058B000030EDBCF17F016C0E6FF17C0E6FFFD0EA4
:1058C000DBCFE6FFFE0EDBCFE6FFD7EC25F0E5529F
:1058D000E552E552E7CF17F0E552E7CF16F0F35067
:1058E000165C146EF4501758156EFD0EDBCFE9FFF1
:1058F000FE0EDBCFEAFF020EE926000EEA22020EC0
:10590000E926000EEA2214C0EEFF15C0EDFF040EDA
:10591000E15C02E2E16AE552E16EE552E7CFD9FFD0
:105920001200D9CFE6FFE1CFD9FF040EE126FB0E2E
:10593000DBCFE6FFFC0EDBCFE6FFA1EC28F0E55263
:10594000E55206C0DEFF07C0DEFF08C0DEFF09C06B
:10595000DDFFDD52DD52DECF16F0DDCF17F016C0D1
:10596000E6FF17C0E6FFFD0EDBCFE6FFFE0EDBCF46
:10597000E6FFB5EC25F0E552E552E552E7CF17F02A
:10598000E552E7CF16F0F350165C146EF45017583A
:10599000156EFD0EDBCFE9FFFE0EDBCFEAFF020E38
:1059A000E926000EEA2214C0EEFF15C0EDFF020E3C
:1059B000DBCF16F0030EDBCF17F016C0E6FF17C0E3
:1059C000E6FFFD0EDBCFE6FFFE0EDBCFE6FFD7ECFA
:1059D00025F0E552E552E552E7CF17F0E552E7CF63
:1059E00016F0F350165C146EF4501758156EFD0E39
:1059F000DBCFE9FFFE0EDBCFEAFF020EE926000E49
:105A0000EA22020EE926000EEA2214C0EEFF15C0BB
:105A1000EDFF040EE15C02E2E16AE552E16EE5525F
:105A2000E7CFD9FF1200D9CFE6FFE1CFD9FF040EAF
:105A3000E126FB0EDBCFE6FFFC0EDBCFE6FFD8EC6A
:105A400028F0E552E55206C0DEFF07C0DEFF08C0C1
:105A5000DEFF09C0DDFFDD52DD52FD0EDBCFE9FFC9
:105A6000FE0EDBCFEAFF020EE926000EEA22DECFB1
:105A7000EEFFDDCFEDFFFD0EDBCFE9FFFE0EDBCF4E
:105A8000EAFF020EE926000EEA22020EE926000EC7
:105A9000EA22020EDBCFEEFF030EDBCFEDFF040E9A
:105AA000E15C02E2E16AE552E16EE552E7CFD9FF3F
:105AB0001200D9CFE6FFE1CFD9FF040EE126FB0E9D
:105AC000DBCFE6FFFC0EDBCFE6FF0FEC29F0E55263
:105AD000E55206C0DEFF07C0DEFF08C0DEFF09C0DA
:105AE000DDFFDD52DD52DECF16F0DDCF17F016C040
