:020000040000FA
:06000000CDEF5DF01200DF
:0600080034EF40F012008D
:06002A001100F1BC000012
:100030001503000001000000ECBC00000A030000F2
:1000400005000000E9BC00007D0F00000300000077
:10005000E4BC00000503000005000000E3BC000054
:100060001403000001000000E2BC000013030000C4
:100070000100000031BB000012030000010000007D
:10008000ED9C0000110300000100000003BC000013
:1000900000020000DF000000BB8E0000FF0D00002A
:1000A0000100000001BC00000F030000020000007E
:1000B00089B50000FF02000001000000FCBB000049
:1000C0000003000005000000F5BB0000F800000080
:1000D000070000009D990000FF00000001000000E3
:1000E000F3BB0000FE01000002000000F1BB0000B5
:0800F000FC0100000200000009
:0800F800DBEC0CF0140EE12614
:10010000180EA6EC0DF0A00E26EC0FF00A0EDB6A1E
:1001100001EC0EF00D0EDB6A0F0E97EC0EF00E0EDA
:10012000F3CFDBFFFE0EDB5004E14AEC0DF06F0E67
:1001300016D0FE0EDB0404E14AEC0DF07E0E0FD06B
:10014000FE0EDB50020804E14AEC0DF08D0E07D0E4
:10015000FE0EDB5003080AE14AEC0DF09C0EC9ECE0
:100160000CF00B0EAEEC0CF0040EDB6ADF6A0A0E2C
:10017000DF5C0DE2D950010F84EC0FF00C0F5AEC4C
:100180000EF0180EEE26000EED22DF2AF0D7140E28
:10019000E15C02E2E16AE552E16E0EEF0FF0DBECAA
:1001A0000CF0E652DF6A040EDF5C05E2DFCFE6FF0B
:1001B0004FEC0EF0F8D7C7EC0EF0DF6A040EDF5CF0
:1001C00003E2B8EC0FF0FAD7E5520EEF0FF0DBECDC
:1001D0000CF0610E44EC0FF0580EB3EC0EF00B0E69
:1001E0001BEC0FF03F0EB3EC0CF02DEC0FF01B0EE0
:1001F000F36EDB6E1C0EDB6A1F0EADEC0DF00E0E07
:10020000B4EC0DF0870E74EC0DF0230E97EC0EF0AD
:10021000220EF3CFDBFF280EDB6AC20EF36E290E2F
:10022000E0EC0CF02A0EF3CFDBFF2B0EDB6A1B0E8B
:100230007BEC0DF01F0EBBEC0DF00E0EC2EC0DF0C2
:10024000870EC9EC0DF0360E97EC0EF0350EF3CF9D
:10025000DBFF400EF36E3B0EF3CFDBFF9A0EF36E27
:100260003C0EF3CFDBFF020ED0EC0DF0060ED7EC08
:100270000DF02D0EDEEC0DF0330EE5EC0DF0860EDC
:10028000ECEC0DF0490E97EC0EF0480EF3CFDBFFCF
:100290004E0EDB6A9E0E38EC0CF01A0E58EC0DF088
:1002A0004F0EEAEC0CF0490E5FEC0DF04C0E66ECD4
:1002B0000DF05C0E97EC0EF05B0EF3CFDBFF01014F
:1002C000940E006FAE0E016F020E026F036B0F0EE5
:1002D000066F076B2F0E046F056B0A0E096F0A6B12
:1002E000510E0B6F0C6B0E6B010E0D6F800E6DECD3
:1002F0000DF02E0E196F1A6B2B0E176F186B1B0E4D
:100300001C6F1D6B820E1E6F1F6B010E216F206F05
:10031000FCEC0EF001E097D1010EE66E4CEC5CF0C7
:10032000E552F40E1EEC0CF001E08DD18AEC0FF0DA
:10033000FA0E1EEC0CF001E086D1E00EC9EC0CF0D8
:100340005E0EBEEC0FF0FA0E1EEC0CF001E07BD15D
:10035000C00EC9EC0CF0650EBEEC0FF05CEC0FF0BB
:1003600001E071D17CEC0CF05CEC0FF001E06BD1A2
:10037000DF6A050EDF5C0BE25EEC0EF041EC0DF087
:10038000640E1EEC0CF001E05ED1DF2AF2D7DE52E3
:100390001E0EDD6EDF6A050EDF5C11E25FEC0FF012
:1003A00001E051D15FEC0FF001E04DD18EEC0FF088
:1003B00001E049D10F0EBFEC0CF0DF2AECD7DE5282
:1003C000140EDD6EDF6A050EDF5C1CE2A6EC0FF09A
:1003D0005C0E6FEC0EF01DEC0EF0E5EC0CF001E0A5
:1003E00032D11DEC0EF0E5EC0CF001E02CD11DEC4F
:1003F0000EF056EC0EF001E026D10F0EBFEC0CF023
:10040000DF2AE1D7DE52960EDD6EDF6A030EDF5C77
:1004100018E25FEC0FF001E016D15FEC0FF001E0A5
:1004200012D18EEC0FF001E00ED13C0E146E010ED5
:10043000DBCFE7FF1450E75E010EE7CFDBFFDF2ADB
:10044000E5D764EC0EF0DE520A0EDD6EDF6A020EB6
:10045000DF5C11E25FEC0FF001E0F5D05FEC0FF034
:1004600001E0F1D08EEC0FF001E0EDD0280EBFECF2
:100470000CF0DF2AECD7500EF8EC0CF09E0E38ECA6
:100480000CF04B0EEAEC0CF0600EFDEC0CF0350EAF
:10049000046F056B64EC0EF05FEC0FF001E0D3D05D
:1004A0005FEC0FF001E0CFD08EEC0FF001E0CBD08D
:1004B000280EBFEC0CF0400EF8EC0CF0AE0E38EC51
:1004C0000CF0530EEAEC0CF0600EFDEC0CF064EC5A
:1004D0000EF05FEC0FF001E0B6D05FEC0FF001E042
:1004E000B2D08EEC0FF001E0AED01DEC0EF0800E1D
:1004F000F8EC0CF0BE0E38EC0CF0610EFDEC0CF0DC
:10050000360E046F056B64EC0EF0D2EC0FF001E0D8
:100510009AD0CCEC0EF0200E58EC0DF0540EEAEC14
:100520000CF0480E5FEC0DF04B0E66EC0DF0600E1B
:10053000FDEC0CF087EC0FF0320E1EEC0CF001E03D
:1005400082D00BEC0DF0150E066F076B3E0E046F9C
:10055000056B040E096F0A6B500E0B6F0C6B87EC6A
:100560000FF0DF6A0A0EDF5C10E27BEC0FF03DEC6F
:100570000CF0AAEC0FF067E19AEC0FF03DEC0CF0F8
:10058000AAEC0FF060E1DF2AEDD7A6EC0CF0DF6AF1
:100590001E0EDF5C0CE27BEC0FF0DEEC0EF053E1A4
:1005A0009AEC0FF0DEEC0EF04EE1DF2AF1D7200ED0
:1005B00099EC0DF06D0ECEEC0CF0DF6A050EDF5CF1
:1005C00011E25EEC0EF0A6EC0CF0D950150F5AECCF
:1005D0000EF0200EBDEC0EF0320E1EEC0CF033E1EE
:1005E000DF2AECD72DEC0FF0DF6A050EDF5C0CE2A2
:1005F0005EEC0EF0A6EC0CF041EC0DF0320E1EECB1
:100600000CF021E1DF2AF1D7FA0E1EEC0CF01BE111
:10061000D950280F0FEC0CF0180E01011C6F1D6B48
:10062000AB0E6DEC0DF02E0EC2EC0FF0D2EC0FF015
:100630000AE10101D90E6DEC0DF03C0EC2EC0FF099
:100640005CEC0FF002E0010E01D0000E146E610EA2
:10065000E15C02E2E16AE552ABEF0CF0DBEC0CF09E
:10066000610E18EC0DF0800EF0EC0EF0AA0EF1EC1D
:100670000CF04D0E11EC0DF0140EF3EC0DF0270EF6
:10068000F36E0D0EF3CFDBFF0E0E97EC0EF0100E97
:10069000E0EC0CF00F0EF3CFDBFFAD0E99EC0DF09C
:1006A000860E12EC0FF00A0E32EC0FF0450EF36ED0
:1006B0001B0EF3CFDBFF1C0EDB6A280EADEC0DF03A
:1006C000480EB4EC0DF0470E74EC0DF0010EF36E15
:1006D000230EE0EC0CF0220EF3CFDBFF0D0EF36ED9
:1006E000280EF3CFDBFF4F0EF36E290EF3CFDBFFA7
:1006F0000A0EF36E2A0EF3CFDBFF2B0EDB6A590EC8
:100700007BEC0DF03B0EBBEC0DF0480EC2EC0DF097
:100710003B0EC9EC0DF0010EF36E360EE0EC0CF062
:10072000350EF3CFDBFFC00EF36E3B0EF3CFDBFFD6
:10073000E50EF36E3C0EF3CFDBFF090ED0EC0DF0AF
:100740009C0ED7EC0DF0390EDEEC0DF0310EE5EC21
:100750000DF0190EECEC0DF0010EF36E490EE0EC0D
:100760000CF0480EF3CFDBFFF90EF8EC0CF0E50EC1
:100770004DEC0FF0090EF36EB7EC0EF09C0E58EC3A
:100780000DF0260EEAEC0CF06A0E5FEC0DF0190E7F
:1007900066EC0DF0010EF36E5C0EE0EC0CF05B0EFF
:1007A000F3CFDBFF0101600E266FA00E276F090E4D
:1007B000286F296B6F0E2C6F2D6B280E2A6F2B6BF9
:1007C0000D0E2F6F306B030E316F326B010E346FD5
:1007D000336F950E396FA00E3A6F090E3B6F3C6B6D
:1007E0006F0E3F6F406B150E3D6F3E6B430E426FB9
:1007F000436B030E446F456B010E476F466FEB0E64
:100800004C6F9E0E4D6F090E4E6F4F6B110E526F57
:10081000536B506F516B780E556F566B020E576FBE
:10082000586B010E5A6F596F750E5F6FA50E606F92
:100830000A0E616F626B140E656F666B100E636F4C
:10084000646B8F0E686F696BBC0E6A6F6B6B010E09
:100850006D6F6C6F8D0E726F470E736F0A0E746F33
:10086000756B0C0E786F796B3B0E766F776B060E9F
:100870007B6F7C6B0F0E7D6F7E6B010E806F7F6FC9
:10088000BF0E856F0E0E866F0A0E876F886B090E7E
:100890008B6F8C6B410E896F8A6B060E8E6F8F6B20
:1008A0001D0E906F916B010E936F926F5F0E986F9C
:1008B000140E996F0A0E9A6F9B6B090E9E6F9F6BB9
:1008C000410E9C6F9D6B060EA16FA26B2C0EA36F49
:1008D000A46B010EA66FA56FAB69190EAC6F0A0E63
:1008E000AD6FAE6B090EB16FB26B1A0EAF6FB06B1E
:1008F000060EB46FB56B3A0EB66FB76B010EB96FDB
:10090000B86FC00EBE6F9A0EBF6F090EC06FC16B7D
:10091000C46FC56B3C0EC26FC36B060EC76FC86B4E
:10092000490EC96FCA6B010ECC6FCB6FFC0ED16F35
:100930009A0ED26F090ED36FD46BD76FD86B3C0E63
:10094000D56FD66B420EDA6FDB6B490EDC6FDD6B59
:10095000010EDF6FDE6FFCEC0EF001E0AAD08AEC36
:100960000FF0D2EC0FF001E0A4D0D950150F0FEC2E
:100970000CF0DF6A0A0EDF5C0EE275EC0EF048EC5C
:100980000EF001E096D0D950150F48EC0EF001E0C2
:1009900090D0DF2AEFD7D950280F0FEC0CF0DF6A88
:1009A0000A0EDF5C11E275EC0EF084EC0FF0150F0F
:1009B00048EC0EF001E07DD0D950280F48EC0EF045
:1009C00001E077D0DF2AECD71DEC0EF0DEEC0FF063
:1009D000DF6A0A0EDF5C12E2D8EC0FF048EC0EF092
:1009E00068E11DEC0EF0AAEC0FF063E1030EDF5C92
:1009F00003E1CD0EF0EC0EF0DF2AEBD7A1EC0CF00A
:100A000058E18AEC0CF0DF6A0A0EDF5C1DE2D8ECDC
:100A10000FF00FEC0CF01DEC0EF0AAEC0FF049E11A
:100A20008AEC0CF0190E1EEC0CF043E1070EDF5CB3
:100A300009E1400EC9EC0CF0470EAEEC0CF00A0ECA
:100A400081EC0CF0DF2AE0D7010E9BEC0CF031E1D9
:100A5000720EE66E010EC7EC0FF02BE1A1EC0CF06C
:100A600028E1850EE66E010EC7EC0FF022E1A1EC45
:100A70000CF01FE1A1EC0CF01CE1980EE66E010EEB
:100A800021EC0EF05CEC0FF014E1AB0EE66E010E03
:100A9000C7EC0FF00EE1BE0EE66E010E21EC0EF07B
:100AA000D10EE66E010E21EC0EF0030E9BEC0CF065
:100AB00002E0010E01D0000E146E610EE15C02E254
:100AC000E16AE552ABEF0CF0DBEC0CF0200E44ECED
:100AD0000FF0030EDB6A130E52EC0FF0040EF3CF8F
:100AE000DBFF050E33EC0CF0060EF3CFDBFF070E39
:100AF00033EC0CF0080EF3CFDBFF090E33EC0CF0F7
:100B00000A0EF3CFDBFF0B0E33EC0CF00C0EF3CF21
:100B1000DBFF0D0E33EC0CF00E0EF3CFDBFF0F0EF0
:100B200033EC0CF0100EF3CFDBFF110E33EC0CF0B6
:100B3000120EF3CFDBFF130EF4CFDBFF52EC0FF0FE
:100B4000140EF3CFDBFF150E33EC0CF0160EF3CFC3
:100B5000DBFF170E33EC0CF00BEC0EF033EC0CF06B
:100B60001A0EF3CFDBFF1B0E33EC0CF01C0EF3CF91
:100B7000DBFF1D0E33EC0CF01E0EF3CFDBFF1F0E60
:100B8000F4CFDBFFAEEC0FF0DBCFEAFF8A0EEE6EA8
:100B9000300E06EC0EF0AEEC0FF04EEC0CF0BA0E90
:100BA00067EC0EF053EC0CF02C0E67EC0EF019EC29
:100BB0000CF00A0E67EC0EF04CEC0EF0280E67EC11
:100BC0000EF005EC0DF0AEEC0FF027EC0CF0B3ECF2
:100BD0000FF0DBCFEAFFCA0EEE6EA40E06EC0EF0AD
:100BE000B3EC0FF04EEC0CF0BA0E6BEC0EF053ECD5
:100BF0000CF02C0E6BEC0EF019EC0CF00A0E6BECFA
:100C00000EF04CEC0EF0280E6BEC0EF005EC0DF037
:100C1000B3EC0FF027EC0CF0A8EC0EF0DBCFEAFF02
:100C2000800E82EC0DF0A8EC0EF04EEC0CF0BA0E3B
:100C3000CAEC0FF053EC0CF02C0E47EC0DF00A0E42
:100C400047EC0DF0A3EC0CF0280ECAEC0FF005EC0D
:100C50000DF0A8EC0EF027EC0CF079EC0EF0DBCFE9
:100C6000EAFFC00EEE6E1B0E37EC0DF079EC0EF0C5
:100C7000ADEC0EF079EC0EF0B0EC0EF079EC0EF07D
:100C800019EC0CF0410EEE6EED6A79EC0EF04CECC6
:100C90000EF0500EEE6EED6A79EC0EF042EC0CF0B8
:100CA00079EC0EF027EC0CF07EEC0EF0DBCFEAFFD7
:100CB000FC0EEE6E1B0E37EC0DF07EEC0EF0ADEC84
:100CC0000EF07EEC0EF0B0EC0EF07EEC0EF019ECB7
:100CD0000CF0410EEE6EED6A7EEC0EF04CEC0EF078
:100CE0008C0EEE6EED6A7EEC0EF042EC0CF07EECBB
:100CF0000EF0CEEC0FF0010EEF6E83EC0EF0DBCFBA
:100D0000EAFFE00EEE6E370E37EC0DF083EC0EF0DE
:100D1000ADEC0EF083EC0EF0B0EC0EF083EC0EF0C8
:100D200019EC0CF00A0EEE6EED6A83EC0EF04CEC52
:100D30000EF0780EEE6EED6A83EC0EF042EC0CF0E5
:100D400083EC0EF027EC0CF088EC0EF0DBCFEAFF22
:100D50001C0EEE6E380E37EC0DF088EC0EF0ADEC9C
:100D60000EF088EC0EF0B0EC0EF088EC0EF019EC02
:100D70000CF00A0EEE6EED6A88EC0EF04CEC0EF004
:100D8000B40EEE6EED6A88EC0EF042EC0CF088ECDE
:100D90000EF027EC0CF08DEC0EF0DBCFEAFFEE6AE4
:100DA000540E37EC0DF08DEC0EF0ADEC0EF08DEC3A
:100DB0000EF0B0EC0EF08DEC0EF000EC0FF08DECC0
:100DC0000EF04CEC0EF0780EEE6EED6A8DEC0EF03F
:100DD00042EC0CF08DEC0EF027EC0CF092EC0EF0E7
:100DE000DBCFEAFF3C0EEE6E540E37EC0DF092ECCA
:100DF0000EF0ADEC0EF092EC0EF0B0EC0EF092ECCA
:100E00000EF000EC0FF092EC0EF04CEC0EF0B40E85
:100E1000EE6EED6A92EC0EF042EC0CF092EC0EF0FD
:100E200027EC0CF06CEC0FF0DBCFEAFF800EEE6EDF
:100E30002F0E06EC0EF06CEC0FF0D7EC0EF06CEC15
:100E40000FF053EC0CF0690EEE6E05EC0FF019ECA0
:100E50000CF0280EEE6E05EC0FF0D5EC0FF005EC63
:100E60000FF005EC0DF06CEC0FF027EC0CF071ECD2
:100E70000FF0DBCFEAFF210E82EC0DF071EC0FF0EA
:100E8000D7EC0EF071EC0FF053EC0CF0310EEE6E6F
:100E900008EC0FF019EC0CF0320EEE6E08EC0FF0CF
:100EA000D5EC0FF008EC0FF042EC0CF071EC0FF009
:100EB00027EC0CF062EC0FF0DBCFEAFF520E82EC75
:100EC0000DF062EC0FF0D7EC0EF062EC0FF053EC8B
:100ED0000CF02E0EEE6EED6A62EC0FF000EC0FF0EF
:100EE00062EC0FF0D5EC0FF0ED6A62EC0FF042EC23
:100EF0000CF062EC0FF027EC0CF067EC0FF0DBCF9E
:100F0000EAFFE10EEE6E170EEE6E070EEE6EEE6A63
:100F100067EC0FF0D7EC0EF067EC0FF053EC0CF031
:100F2000310EEE6EED6A67EC0FF019EC0CF09EECF2
:100F30000DF067EC0FF0D5EC0FF0ED6A67EC0FF0F9
:100F400042EC0CF067EC0FF027EC0CF076EC0FF0B5
:100F5000DBCFEAFF120EEE6E180EEE6E070EEE6E8F
:100F6000EE6A76EC0FF0D7EC0EF076EC0FF053EC67
:100F70000CF02E0EEE6E0BEC0FF019EC0CF05E0E7A
:100F8000EE6E0BEC0FF0D5EC0FF00BEC0FF042EC2B
:100F90000CF076EC0FF027EC0CF07CEC0CF0E2ECB3
:100FA0000EF001E0B4D00A0EDBCFE6FF0B0E20EC12
:100FB0000CF00C0EDBCFE6FF0D0E20EC0CF0DF6A20
:100FC000190EDF5C0EE2D1EC0EF020EC0FF001E028
:100FD0009ED039EC0FF020EC0FF001E098D0DF2A22
:100FE000EFD7DF6A190EDF5C14E2D1EC0EF019ECDA
:100FF0000EF0190F1EEC0CF001E089D039EC0FF067
:1010000019EC0EF0190F1EEC0CF001E080D0DF2A75
:10101000E9D77D0E1EEC0CF001E079D0D1EC0EF09A
:10102000D2EC0FF074E1E2EC0EF071E17CEC0CF02C
:10103000A1EC0CF06CE190EC0DF0460EDF5C10E2E0
:1010400038EC0EF00E0EDBCFE6FF0F0EF9DB100EC4
:10105000DBCFE6FF110E27EC0EF059E1DF2AEDD7CA
:10106000A1EC0CF054E13CEC0DF080EC2BF06CECBE
:101070000FF0DFDBEECF14F0EFCF15F0153421E2E7
:1010800014500008000E15541CE26CEC0FF0DAEC62
:101090000EF067EC0FF0DAEC0EF076EC0FF0DAEC15
:1010A0000EF071EC0FF0DAEC0EF062EC0FF0DAEC0F
:1010B0000EF07CEC0CF038EC0EF0140EBFDBD7E039
:1010C00026D090EC0DF0460EDF5C1AE238EC0EF004
:1010D0001C0EDBCFE6FF1D0EB3DB1E0EDBCFE6FFE3
:1010E0001F0EAEDB120EDBCFE6FF130EA9DB140ED4
:1010F000DBCFE6FF150E27EC0EF009E1DF2AE3D780
:101100003CEC0DF080EC2BF0FCEC0EF003E0010E5B
:10111000C9EC0CF0040EDBCFE6FF050EC9DB060EB2
:10112000DBCFE6FF070EC4DB080EDBCFE6FF090EC0
:10113000BFDB0A0EDBCFE6FF0B0EBADB0C0EDBCFFC
:10114000E6FF0D0EB5DB0E0EDBCFE6FF0F0EB0DBBC
:10115000100EDBCFE6FF110EABDB120EDBCFE6FF8E
:10116000130EA6DB140EDBCFE6FF150EA1DB160E69
:10117000DBCFE6FF170E9CDB180EDBCFE6FF190E68
:1011800097DB1A0EDBCFE6FF1B0E92DB1C0EDBCFCC
:10119000E6FF1D0E8DDB1E0EDBCFE6FF1F0E88DB8C
:1011A000020EDB50146E200EE15C02E2E16AE552B1
:1011B000D2D3DBEC0CF0620E44EC0FF0100ECEDB61
:1011C000050E57EC0FF0090E22EC0DF0070EDB6A4E
:1011D000080EDB6A500EF36E0C0EF3CFDBFF2BEC28
:1011E0000DF0140E12EC0FF0AD0EF36E170E1DEC99
:1011F0000DF00BEC0EF0DB6A120EFAEC0DF0F36E54
:101200001A0EF3CFDBFF1B0EDB6A420EF36E1F0ECE
:10121000F3CFDBFF200EDB6A960EF36E210EF3CFC9
:10122000DBFF220E97EC0EF0240ECADB230EF3CF69
:10123000DBFFE00EF36E290EF3CFDBFFB70EF36E8C
:101240002A0E1DEC0DF02B0EF3CFDBFF2C0E17EC4E
:101250000FF02F0EF3CFDBFF300E17EC0FF02D0E3B
:10126000F3CFDBFF2E0EDB6A320EDB6A330EDB6A56
:10127000C80EF36E340EF3CFDBFF350E97EC0EF095
:10128000370E9EDB360ED9DB3C0EF3CFDBFFB80EFC
:10129000F36E3D0ED2DB3E0EF3CFDBFF3F0E17ECBD
:1012A0000FF0420EF3CFDBFF430E17EC0FF0400EB2
:1012B000F3CFDBFF410E17EC0FF0450EF3CFDBFF52
:1012C000460EDB6AC80EF36E470EF3CFDBFF480E07
:1012D00097EC0EF04A0E74DB490EF3CFDBFF300EB5
:1012E0004DEC0FF0B80EF36E500EA7DB510EF3CF9E
:1012F000DBFF520E17EC0FF0550EF3CFDBFF560E4F
:1013000017EC0FF0530EF3CFDBFF540EDB6A500ED9
:10131000F36E580EF3CFDBFF590EDB6AC80EF36E87
:101320005A0EF3CFDBFF5B0E97EC0EF05D0E48DB41
:101330005C0EF3CFDBFF0101580EE46FB80EE56FD2
:10134000080EE66FE76B280EEA6FEB6BE86FE96B50
:10135000780EED6FEE6BC80EEF6FF06B010EF26F53
:10136000F16FCADA010EE66ED0EC29F0E55275ECA9
:101370000EF018DBDF6A510EDF5C4BE2BDDAD950AC
:10138000030F84EC0FF0290F4ADAF6EC0EF0E40EAE
:10139000E66E010E21EC0EF0D950020F03DBD9509E
:1013A000070F5AEC0EF0020EEE26000EED22D95079
:1013B000030F76DBEE5AEE5AEE5A0C0EDB060D0EDC
:1013C00001E2DB06D950340F6BDBED5AD950470FE1
:1013D00067DBED5AD9505A0F63DBED5A0101EF0775
:1013E000F05B2F0EDB2A300E01E3DB2A420EDB2AF4
:1013F000430E01E3DB2A550EDB2A560E01E3DB2AFE
:10140000EA2B000EEB23140EDF2418DA31E1DF2A79
:10141000B2D732DB5CEC0FF02BE1470EDB2A480E33
:1014200001E3DB2A5A0EDB2A5B0E01E3DB2ADF6ACB
:10143000050EDF5C1BE2F6EC0EF0D950160FEFD96B
:10144000100EDF02F350146E156AFF0ED88014568A
:10145000000E15561450F2D90BE1D950160F5AEC64
:101460000EF01D0EBDEC0EF0DF2AE2D76ADA02E0C4
:10147000010E01D0000E146E620EE15C02E2E16A20
:10148000E55269D298DA3D0ED3DA200E82DAE70E01
:10149000B3EC0EF0C00EF36E060EF3CFDBFF320E90
:1014A000F36E070EF3CFDBFF030E9BDA600EF36ED5
:1014B0000A0EF3CFDBFF7E0EF36E0B0EF3CFDBFFD6
:1014C000030EF36E0C0EF3CFDBFF0D0EDB6A0E0E78
:1014D000DB6ACA0EF36E0F0EF3CFDBFF030EF36E63
:1014E000100EF3CFDBFF110EDB6AA00EF36E120EAF
:1014F000F3CFDBFF0B0EF36E130EF3CFDBFF040E07
:10150000F36E140EF3CFDBFF150EDB6A400E12EC08
:101510000FF04D0EF36E170EF3CFDBFF040EF36EDC
:101520007ADBDB6A400EF36E1A0EF3CFDBFF980E08
:10153000F36E1B0EF3CFDBFF040E5CDBE00EF36EED
:101540001E0EF3CFDBFFE30EF36E1F0EF3CFDBFFB8
:10155000040ECADA790EF36E220E62DB230E60DB14
:10156000240EF3CFDBFF690EF36E250EF3CFDBFF06
:10157000690EF36E260EF3CFDBFF780EF36E270EA7
:10158000F3CFDBFF780EF36E280E4ADB290EF3CF84
:10159000DBFF8ADAD0DB220EDB5091EC0FF0A00EDD
:1015A000AADA330EDB6A340EDB6A310EF36E350EC7
:1015B000F3CFDBFF360EDB6A380EB9DB370EF3CF25
:1015C000DBFF9AD9DF6A050EDF5C11E2010EDB6AF0
:1015D000080E9FDA0AE23FEC0FF03C0E146E29DB96
:1015E000145C93D9010EDB2AF3D7DF2AECD7DF6A2C
:1015F000050EDF5C11E2010EDB6A080E8ADA0AE2F0
:101600003FEC0FF0280E1AD902E0010E07D0010EB0
:10161000DB2AF3D7DF2AECD76FD9000E146E3D0E0C
:10162000E15C02E2E16AE55296D1C5D9150E00DA15
:10163000D0DB5A0E1BEC0FF0500E95D95DD9DF6A46
:10164000050EDF5C1AE2010EDB6A0A0E62DA12E2B4
:101650008AEC0FF029DA400EEE26380EEE22000E4C
:10166000EE22EE22500EEAD802E0010E08D0010E62
:10167000DB2AEBD7AEDBDF2AE3D73ED9000E146EB0
:10168000150EE15C02E2E16AE55265D194D9150ECE
:10169000CFD9F2D9C00E7DD9670E60D9370E31D9B6
:1016A000A00E9FD94F0EBDD9280E9DDA280E5BD90A
:1016B00023D9C80E2AD9DF6A150EDF5C22E28AEC34
:1016C0000FF0DF5001E163DBDF50120802E2640E2D
:1016D00001D03C0E1AD9E8D9500E01DB8AEC0FF08C
:1016E000DF50120802E2640E01D03C0E0ED9DCD9A4
:1016F000B00EEE26630EEE22000EEE22EE22DF2A60
:10170000DBD7CFEC00F0150EE15C02E2E16AE552B6
:10171000E16E84D350D9160EE126AED9E00E1ED963
:10172000430EC5DB2C0E8ED9A00E10DA0C0EDB6A30
:1017300092D9E66ADDEC29F0E552DF6A040EDF5C3F
:1017400004E2DFCFE6FFABDAF9D721DBDF6A040E74
:10175000DF5C03E2B8EC0FF0FAD7DF6A130EDF5C50
:101760000FE2D950030FD0DB030FA4DAEE52960E2E
:10177000EE26000EEE22EE22640EC7D8DF2AEED748
:10178000DF6ADF50146E156AD890155004E6FF0E1C
:10179000145C000E15581EE2F0EC40F0DE52F3CF60
:1017A000DEFFF4CFDDFFDD52010EDBCFE9FF020EDD
:1017B000F5DBEF500BE0DFCFE6FFE66A11EC5DF002
:1017C000E552E552C80EA1D8000E05D0640E9DD892
:1017D000DF2AD7D7010E146E160EE15C02E2E16A31
:1017E000E552B9D049D9020EE66EC9EC53F0E55284
:1017F0005FEC5CF0E7EC00F0000910E12EEC03F088
:1018000000090CE164EC05F0000908E1D2DC0009F4
:1018100005E138DE000902E108DF00091200E66E8A
:10182000000EDA2021EF0EF091DB2E0E58DA56EF83
:101830000EF0DBCFEAFF090EC3EF0EF0E66E81D3A8
:10184000DBCFE6FF99EC5BF0E552E5521200DBCF0F
:10185000EAFF0D0E98DA010EEF6E120077DB5C0ED8
:101860008CDA56EF0EF0F4CFDBFF130E52EF0FF0D1
:1018700014DB020EF36EB7EF0EF0000EE66E010EF3
:1018800021EF0EF0DBCFEAFF0E0E7DDA010EEF6ED8
:101890001200DBCFEAFFA00E6FEF0EF0DBCFEAFF06
:1018A000060EC3EF0EF0DBCFEAFF040EC3EF0EF01F
:1018B000DBCFE6FF9CEC5CF0E552E5521200D9501C
:1018C000020F146EDACF15F0010EDB50040D145028
:1018D000F324E96EDA50F420EA6E2DDAD950220FA3
:1018E000146E010EDB500F011424E96E000EDA2095
:1018F000EA6EEF5091EF0FF0E66A7CEC00F0E552F3
:101900001200D5DA050EDB6A1200E66EBDEC53F06C
:10191000E5521200260EE66E010E93D9390EE66EE0
:10192000010E8FD94C0EE66E010E8BD95F0EE66E5E
:10193000010E21EF0EF0E66EFFEC53F0E5520009C8
:101940001200E668FED2020EC3EF0EF0130EE66E32
:10195000010E21EF0EF0E16E145060D2F36E030E13
:10196000F3CFDBFF1200F36E0D0EF3CFDBFF0E0E95
:10197000DB6A100EDCD90F0EF3CFDBFF1200146E02
:10198000010EDBCFE7FF1450E726010EE7CFDBFFA8
:101990001200F36E020EF3CFDBFF120043DA020EE9
:1019A00032EF0FF0E66E000EDA20E66EE2EC29F080
:1019B000E552E5521200D9CFE6FFE1CFD9FF120080
:1019C000F3CFDBFF010EF36E1200C0DA2E0ED5D975
:1019D00056EF0EF0F36E520EF3CFDBFF530EDB6AC1
:1019E0001200F36E080EF3CFDBFF090EDB6A120064
:1019F000F36E4E0EF3CFDBFF120001010027090E3C
:101A00000123000E022303231200DBCFEAFF0E0E98
:101A1000BAD9EF6A12000101E00E006F130E48EF11
:101A20000FF0F36E060EF3CFDBFF070EDB6A12003A
:101A3000E126DF6A010EDB6A1200F3CFDBFF080E3E
:101A4000F36E120003DAF00EF36E090EF3CFDBFF34
:101A50000A0EDB6A12000D0EDB6A0E0EDB6A0F0E39
:101A6000DB6A110E64D9100EF3CFDBFF1200EE6EAD
:101A70000B0EEE6EEE6A1200E66AD0EC29F0E5522B
:101A80001200D950150F16D9200E6FEF0EF082DA22
:101A9000CEEF0FF0800EF36E010EF3CFDBFF1200DE
:101AA00009D9EE06000E1200D950020F5AEF0EF0BF
:101AB000F36E540EF3CFDBFF550EDB6A1200F36EAC
:101AC000570EF3CFDBFF580EDB6A1200F36E590E90
:101AD000F3CFDBFF5A0EDB6A1200136F7D0E146F1B
:101AE000020E156F166B1200F36E200EF3CFDBFFA4
:101AF000210EDB6A1200F36E2E0EF3CFDBFF2F0EEA
:101B0000DB6A1200EE6E420EEE6E060EEE6EEE6AAE
:101B10001200F36E010EDBCFF4FFF350F45C120001
:101B2000010EE66ED0EC29F0E55280EC2BF0DF6A76
:101B30001200F36E150EF3CFDBFF12002D0EEE6ECA
:101B4000ED6A12003C0EEE6EED6A1200F36E070EA7
:101B5000F3CFDBFF080EDB6A1200F36E190EF3CF32
:101B6000DBFF1A0EDB6A1200F36E1E0EF3CFDBFFF3
:101B70001F0EDB6A1200F36E2C0EF3CFDBFF2D0E6F
:101B8000DB6A1200F36E310EF3CFDBFF320EDB6A3D
:101B90001200F36E330EF3CFDBFF340EDB6A12005C
:101BA000F36E3D0EF3CFDBFF3E0EDB6A1200F36EE9
:101BB000410EF3CFDBFF420EDB6A1200F36E3F0EE5
:101BC000F3CFDBFF400EDB6A1200F36E440EF3CF5F
:101BD000DBFF450EDB6A1200F36E460EF3CFDBFF30
:101BE000470EDB6A1200F36E0B0EF3CFDBFF0C0E19
:101BF000DB6A1200F36E1C0EF3CFDBFF1D0EDB6AF7
:101C000012000B0EDB6A0C0EDB6A1200EE6E050E84
:101C1000EE6EEE6A1200180EF3CFDBFF190E120003
:101C2000F3CFDBFF790EF36E1200960EEE6EED6AC7
:101C30001200040EDF02F3501200D9503B0F0FEFD9
:101C40000CF0E66E99EC5BF0E552E5521200F8DD1F
:101C500043D91FDE46D91DDE35D91BDE38D919DE42
:101C600045D917DED950030F9DDE820E1EEF0CF012
:101C7000160EDBCFE6FF170EE3DD180EDBCFE6FF17
:101C8000190EDEDD1A0EDBCFE6FF1B0E20EF0CF087
:101C9000C6DD190E1EEF0CF0CCDDA3EF0CF07CECD2
:101CA00000F0E552320E31DEDF2A1200010EDBCFEA
:101CB000E6FF47D1E96EDACFEAFF1200D950280FCC
:101CC00023D9150F0FEF0CF079D93DEF0CF0EE6E24
:101CD000ED6AAEEF0FF0EE6EED6AB3EF0FF0EE26A9
:101CE000000EEE22EE22EE22120006DED950020F86
:101CF00012000A0EDBCFE9FF0B0E12000C0EDBCF39
:101D0000E9FF0D0E12000E0EDBCFE9FF0F0E1200E1
:101D1000100EDBCFE9FF110E1200120EDBCFE9FF30
:101D2000130E1200140EDBCFE9FF150E1200DB6A52
:101D3000010EF36E12002A0EEECFDBFF2B0EEECF5C
:101D4000DBFF2C0EEECFDBFF2D0EEECFDBFF120004
:101D5000080EDBCFE9FF090E1200A0DD9EEF0DF0AB
:101D6000A2DDA2EF0DF0FADD020E81EF0CF0500EB5
:101D7000F3CFDBFF510EDB6A1200EE5E000EEE5A6F
:101D8000EE5AEE5A1200E926000EEA221200FA0E6E
:101D9000BCDDFA0E85EF0CF0C00E2ADECE0E38EF59
:101DA0000CF0060EDBCFE6FF070E20EF0CF076DD21
:101DB00015EF0EF03EDDEE06ED5A1200A8D8050E26
:101DC0001EEF0CF0040EDBCFE6FF050E39DDD2EF7F
:101DD0000FF0400EDEDD110EC1DD0E0E81EF0CF0B6
:101DE000D8DDB10EBBDD0A0E81EF0CF0D9503C0FEF
:101DF0008BD84F0F0FEF0CF07FDD010E9BEF0CF037
:101E000018DD630EEE6EED6A1200ED6A6CEF0FF0F6
:101E1000ED6A71EF0FF0ED6A76EF0FF0E552E7CF64
:101E2000D9FF1200F36E160EF3CFDBFF1200DB6A50
:101E3000280EF36E1200D5DDA00EF3DD01EF0EF0DB
:101E40007D0E146EF6DE145C1EEF0CF0F36E050EC4
:101E5000F3CFDBFF060EDB6A1200A00E6ADE6C0E0B
:101E6000CEEF0CF0F36E170EF3CFDBFF180EDB6A2C
:101E70001200080EDBCFE6FF090E20EF0CF0D95060
:101E80002A0FCDDC5FEF0CF0D3DD020EDB6A12000F
:101E9000016F070E026F036B1200F36E4F0EF3CF4C
:101EA000DBFF1200E66E8EEC5CF0E5521200F36E82
:101EB000040EF3CFDBFF1200020E9BEF0CF0BDDE31
:101EC00014EF0CF01A0EDBCFE9FF1B0E12001C0EF4
:101ED000DBCFE9FF1D0E1200160EDBCFE9FF170E58
:101EE0001200180EDBCFE9FF190E12001E0EDBCF19
:101EF000E9FF1F0E12008FDDE00E7ADD210EF36E7A
:101F00004F0E9BDDB7EF0EF08ADCD9501200B5DC26
:101F1000DEEF0FF0D950020F0FEF0CF08EDE2EEF38
:101F20000CF0E66ED950300FC5DEE552E750EE6E8C
:101F3000ED6A12000101C00E006F060EA9DFCCEFA2
:101F40000EF0DCEC53F0E55200091200D9503B0FC3
:101F50005AEF0EF0D9504E0F48EF0EF0040EDBCFC3
:101F6000E9FF050E1200060EDBCFE9FF070E120097
:101F7000030ED880DF54E66E4FEF0EF0F4DEB5DED0
:101F80000FEF0CF0176F186BE1DC1DEF0EF059DE50
:101F9000A1EF0CF0EE6EED6AA8EF0EF0DBCFEAFFDA
:101FA000C3EF0EF0C80E1EEF0CF076DEEE6A1200E4
:101FB0009CDEAADF150FA8DF280F1200D9504E0FA4
:041FC0000FEF0CF023
:0C1FC400020100510AE10001020E846FCE
:101FD000CC0E826F8C0E836F0201010E006F800E9B
:101FE000146E000E3BEF17F0020101510AE10001EF
:101FF000030E896FDE0E876F8C0E886F0201010E53
:10200000016F850E146E000E3BEF17F002010251B6
:102010000AE10001010E8E6FF90E8C6F8C0E8D6F30
:102020000201010E026F8A0E146E000E3BEF17F0D4
:10203000020103510AE10001030E936F020E916F3A
:102040008D0E926F0201010E036F8F0E146E000E43
:102050003BEF17F0020104510AE10001030E986FF3
:102060001D0E966F8D0E976F0201010E046F940E78
:10207000146E000E3BEF17F0020105510AE100015A
:10208000020E9D6F380E9B6F8D0E9C6F0201010E2C
:10209000056F990E146E000E3BEF17F0020106510A
:1020A0000AE10001010EA26F4A0EA06F8D0EA16F12
:1020B0000201010E066F9E0E146E000E3BEF17F02C
:1020C000020107510AE10001010EA76F530EA56F2F
:1020D0008D0EA66F0201010E076FA30E146E000E87
:1020E0003BEF17F0020108510AE10001020EAC6F4C
:1020F0005C0EAA6F8D0EAB6F0201010E086FA80E69
:10210000146E000E3BEF17F0020109510AE10001C5
:10211000100EB16F6E0EAF6F8D0EB06F0201010E1B
:10212000096FAD0E146E000E3BEF17F002010A515D
:102130000AE10001060EB66FFE0EB46F8D0EB56F8C
:102140000201010E0A6FB20E146E000E3BEF17F083
:1021500002010B510AE10001060EBB6F340EB96F8C
:102160008E0EBA6F0201010E0B6FB70E146E000EC9
:102170003BEF17F002010C510AE10001060EC06F9F
:102180006A0EBE6F8E0EBF6F0201010E0C6FBC0E89
:10219000146E000E3BEF17F002010D510AE1000131
:1021A000030EC56FA00EC36F8E0EC46F0201010E29
:1021B0000D6FC10E146E000E3BEF17F033EC18F0EC
:1021C000030EABEC17F0A1EC17F0F70EF3CFDBFF2B
:1021D000F80EF4CFDBFFAEEC17F0A1EC17F0F50E24
:1021E000F3CFDBFFF60EF4CFDBFFDF6AF40EDB503C
:1021F000DF5C37E2040EE66E010E0FEC19F0DE52E2
:1022000070EC19F0DD527EEC19F0B5EC17F013EC20
:102210002EF0146E060EE15E145010EC17F0F35021
:10222000EE261550ED2210EC17F0020E57EC19F0C7
:10223000F350EE261550ED22E66AAEEC17F060EC96
:1022400017F0F350E66EB5EC17F0B0EC47F03BEC4E
:1022500018F038EC18F0B2EC16F0F5EC19F0DF2AB3
:10226000C5D7030EE15C02E2E16AE552DFEF16F04A
:102270005DEC17F0DFEC17F0280EE66EB60EE1EC21
:1022800016F054DF00EC18F002E2E16AE552DFEFED
:1022900016F05BEC19F0460EE66EB60EE1EC16F0A9
:1022A00057DF00EC18F002E2E16AE552DFEF16F0CA
:1022B0005BEC19F0580EE66EB60EE1EC16F05ADF44
:1022C00000EC18F002E2E16AE552DFEF16F033ECC1
:1022D00018F0060EE126050EE66E010E0FEC19F061
:1022E000040EF3CFDBFF050EF4CFDBFF66EC19F035
:1022F000BCEC17F0CDEC19F065EC17F06BEC19F0B5
:10230000E66A1E0E8DEC19F0E66EE66AE66EE66A87
:10231000E3EC19F0020EBDEC16F0AEDE72EC18F034
:1023200041EC51F01C6E090E90EC18F066EC19F0BF
:10233000020E3BEC19F0CDEC19F0BCEC17F0C8EC38
:1023400016F085EC17F03BEC19F0C8EC16F0C3EC76
:1023500017F0060EE15C02E2E16AE552DFEF16F0EB
:1023600004EC19F0030ED9EC17F097EC18F085EC9B
:1023700017F0E15C02E2E16AE552DFEF16F060EC93
:1023800019F0640EC7EC18F0D890F45004E60A0E69
:10239000145C000E15580FE2010EC7EC18F0F35054
:1023A000F41004E1D1EC19F063DF03D0D1EC19F0A3
:1023B0007FDF3FEC17F0020EE15C02E2E16AE552DA
:1023C000DFEF16F060EC19F0D1EC19F062DF3FECB2
:1023D00017F0020EE15C02E2E16AE552DFEF16F06F
:1023E00037EC17F0060EE66E020ED9EC17F0030E6E
:1023F000E66ED5EC17F00F0EF8EC17F09AEC18F02B
:10240000DDDEA6EC17F097EC18F085EC17F0E15C38
:1024100002E2E16AE552DFEF16F033EC18F04CEC23
:1024200017F006EF17F033EC18F0050EA3EC18F0D8
:1024300006EF17F033EC18F0080EDAEC18F006C0CF
:10244000DEFF07C0DEFF08C0DEFF09C0DDFFDD5292
:10245000DD5250EC17F078EC17F0020EDBCF14F0E1
:10246000030EDBCF15F0060EDBCF16F0070EDBCF29
:1024700017F015501718E8AE02D0173404D01650D4
:10248000145C175015581FE25EEC18F0040EE7ECD0
:1024900018F0D9CFE9FF2BEC17F08CEC32F01C6E62
:1024A000090EE15E1C5049EC17F0F8DDF3CF1DF08A
:1024B000F4CF1EF0EDEC18F01F6E0D0EE15E1F5014
:1024C0008CEC18F002D09AEC17F0080EE15C02E2F6
:1024D000E16AE552DFEF16F033EC18F00A0EDAECA1
:1024E00018F0020E06C0DBFF030E07C0DBFF040E70
:1024F00008C0DBFF050E09C0DBFF50EC17F0060E2D
:1025000006C0DBFF070E07C0DBFF080E08C0DBFFBD
:10251000090E09C0DBFF65EC17F0040EE66ED9501A
:10252000060FE96E2BEC17F0D950020FE96E2BEC79
:1025300017F08CEC32F0166E090EE15E165078EC56
:1025400018F04DEC19F0E66A040E8DEC19F0040E4B
:10255000DBCF18F0050EDBCF19F0080EDB50185C4E
:10256000166E090EDB501958176E16C0E6FFE66EA0
:10257000A1EC17F038EC18F0020EDBCF1EF0030EC2
:10258000DBCF1FF0060EDB501E5C1C6E070EDB500F
:102590001F581D6E1CC0E6FFE66EA1EC17F0E55259
:1025A000E7CF15F0E552E7CF14F0F3CF1AF0F4CFF0
:1025B0001BF0F4501518E8AE02D0153404D01450B6
:1025C0001A5C15501B580BE25EEC18F0020E7EEC04
:1025D00018F049EC17F086DDF5EC16F002D09AEC15
:1025E00017F00A0EE15C02E2E16AE552DFEF16F055
:1025F00033EC18F05EEC18F0E66E050EE66E63EC58
:1026000053F0E552E55249EC17F07EDDF5EC16F09B
:102610009FEF18F037EC17F065EC17F0010EE66E3F
:10262000040EE66E52EC3EF02CEC18F07AEC19F049
:1026300013EC56F02FEC18F0E66A260EE66E240E28
:10264000A5EC19F0030EE66E020E7EEC18F049ECD4
:1026500017F0A2DDCADB020EE15C02E2E16AE5529C
:10266000AED3A9DBFA0EE66EE66AA7EC18F0EBEC47
:1026700051F0E552E5522CEC18F0E66A010E8DECB3
:1026800019F02C0EAAEC19F0D80EE66E240EF4EC1C
:1026900017F0040E96EC19F0CBDC10EC1AF002E205
:1026A000E16AE5528CD387DB6BEC19F088EC17F00C
:1026B000C8EC54F02FEC18F0900EF9EC19F092ECF5
:1026C00019F0600EE66E230EADEC19F0CCEC18F0AC
:1026D000F7DCDAEC19F002E2E16AE55270D3EEECD5
:1026E00019F066EC18F044EC19F002E2E16AE552E8
:1026F00066D3EEEC19F092EC19F0C40EE66E230EE0
:10270000E66E44EC19F002E2E16AE55258D3D4ECEB
:1027100018F052EC3EF017EC19F002E2E16AE552D3
:102720004ED3D4EC18F063EC53F017EC19F002E23E
:10273000E16AE55244D3F0EC18F0010EE66E030EA8
:10274000E66E23EC19F0E00EE66E230EE66E140E34
:10275000E66E260EF4EC17F0050EE66E020E0DDBAB
:1027600055DC10EC1AF002E2E16AE55228D323DBD3
:102770006BEC19F0900EF9EC19F02FEC18F0C7EC97
:1027800049F078EC18F0040E00DBCE0EE66E220E57
:10279000ADEC19F0040E96EC19F05CDCDAEC19F0F3
:1027A00002E2E16AE5520BD333EC18F0080ED3DBFA
:1027B000F60EDB5003E0A00E146E01D0146A156A09
:1027C00014C0E6FF15C0E6FF63EC5CF03BEC18F0CC
:1027D0008FDB060E94EC18F0E9EC19F0F40EAAEC7D
:1027E00019F0FFEC19F0E7EC18F005EC1AF0A6DB95
:1027F000CFDAD5DA8CEC32F01A6E090EE15E1A509F
:1028000078EC18F04DEC19F0020E3BEC19F0AADA56
:1028100001EC26F03BEC18F0080EE15C02E2E16A04
:10282000E552CDD2F0EC18F05DDB52EC3EF02CEC32
:1028300018F0E9EC19F06FDBCE0EE66EAD0ED4DBCE
:10284000010EE66E020E99DAF4EC0FF086EC19F048
:10285000020E2AEC19F00E0E57EC19F0C80EEE6EAF
:10286000AD0EED6EDADBC8DB02E2E16AE552A7D21B
:10287000FEDAF80EDB5003E0DE68DD6803D0010EFF
:10288000DE6EDD6AEFDA08DB83DA6CDA8DDF146E78
:10289000090EE15E1450E6DA43DBDECF16F0DDCF41
:1028A00017F0190E48EC18F0DDDA12DBDECF16F067
:1028B000DDCF17F0320E48EC18F0020EE15C02E2B8
:1028C000E16AE5527CD2D3DAFA0EDB5004E0010E65
:1028D000DE6EDD6A02D0DE68DD68020EE15C02E2D7
:1028E000E16AE5526CD2C3DAFA0EDB5004E0010E65
:1028F000DE6EDD6A02D0DE68DD68020EE15C02E2B7
:10290000E16AE5525CD230EC19F03DDB9FEF18F044
:1029100030EC19F00AEC26F0AEDB9FEF18F0A3DBE9
:10292000FB0EDBCF08F0FC0EDBCF09F0E10E081840
:1029300002E1080E091801E1D7D1D00E081802E112
:10294000070E091801E1C1D19E0E081802E1070E19
:10295000091801E1ABD1850E081802E1070E09182C
:1029600001E19DD16C0E081802E1070E091801E182
:1029700093D1530E081802E1070E091801E184D122
:102980003A0E081802E1070E091801E174D1080E89
:10299000081802E1070E091801E169D1D60E0818DE
:1029A00002E1060E091801E155D1A40E081802E152
:1029B000060E091801E138D16B0E081802E1060E67
:1029C000091801E126D1400E081802E1060E091887
:1029D00001E115D1CB0E081802E1050E091801E13D
:1029E00007D1960E081802E1050E091801E1F1D091
:1029F000140E081802E1050E091801E1D5D0B00E39
:102A0000081802E1040E091801E1BFD07E0E081873
:102A100002E1040E091801E1B4D0FC0E081802E12D
:102A2000030E091801E19DD0F90E081802E1030E0A
:102A3000091801E193D0B60E081802E1030E091837
:102A400001E189D0840E081802E1030E09186BE039
:102A5000200E081802E1030E091861E0BC0E0818E8
:102A600002E1020E091855E08A0E081802E1020E72
:102A700009184BE0580E081802E1020E091839E057
:102A8000260E081802E1020E091830E0F40E0818AC
:102A900002E1010E091823E0900E081802E1010E70
:102AA00009181AE02C0E081802E1010E09180CE0B2
:102AB000FA0E081801E023D1095001E020D1030EDD
:102AC00042DBEAD9640E5AD07AEC19F0F60EE66EC3
:102AD000E66848D9E8DD90D0D3DA2D0EE5D0020EB5
:102AE000A2EC19F06E0ECDDB870EDED011DA0A0EE5
:102AF000FED0030EE66EECD93C0E7ADA50DBCCD970
:102B00004B0EB3EC19F05A0ECFD0020E67D9500E0F
:102B1000E6D0E66A780EE66EE66A8C0EBBD0010E51
:102B2000E66EB40EB4D0010EE66EF00EE66EE66A06
:102B3000F7D918D99DDE19DB010EE66EA2EC19F06B
:102B4000FB0EE66EE6680ED9EFD9E2D9280EE66EE6
:102B5000E66A6E0E13D094DA230EA6D0CBDB160EE7
:102B600049D0E66A780EE66EE66A8C0ED4EC19F06F
:102B7000FCDAE66A010EE66E18DA820E39DAC8DE91
:102B8000BAD0020EDFDBD6DB0BD0020EE66EC8D960
:102B90003FDBBDDD0CDB500ED7EC19F0E6DA020EA0
:102BA000E66EBED9820E8FD0030ECDDA75D9780EBF
:102BB0001FDABAD9010EE66EF00EE66EE66A000E76
:102BC000F3DB13EC1AF0A00EB5DBE66EEED98C0E3B
:102BD0007AD090DB280E0CDACADD146E060EE15EA8
:102BE000145019DB500EC3DB690E4BDB820E5CD038
:102BF00081DB760EFDD9BBDD146E060E7ED0030E92
:102C0000EDD806DBB7DAEAD8190E94DBE7D8280E40
:102C10005AD001DBCAD9A6D862DDC9DA460EE8D996
:102C20005EDDDFD81E0E12D04B0EE66EE66A50D97E
:102C3000EFDAB4D94B0EE66EE66A2ED9820ED8D9F9
:102C4000ADD998DB4CDD0BD9E66E280EE66EE66A50
:102C50005A0E17D0040EE66E010EC0D8C9D964D939
:102C6000020EBCD8500EC4D9BEDA640E0AD082DB84
:102C7000BFDA780E06D0020EB1D85A0EB9D9B8DA3A
:102C8000410EB6D92CDD2DD0010EE66E4B0EE66E50
:102C9000E66A140E89DB25D0F3D9280E05D0030E81
:102CA00051DB500E60DB640EA7DB1BD0030E96D801
:102CB0003C0E9ED998DA8C0E3DDB44DB780E77DB38
:102CC00090D82ED9640E73DB0CD0A5DA3C0E4FDB06
:102CD0004B0ED7DA5A0E90DB84D867D9490E88D9C3
:102CE00008DD146E070E09D0040E2DDA000EE66E14
:102CF000E66A7ED908DE146E080EE15E14501FD21B
:102D0000B2D92CDA1BD91CEC5AF0E552E55226DA7E
:102D1000060EEB6A070EEB6A12D20201DE5106E1E3
:102D2000000E0E6F2D0E0F6F010EDE6FE3DA1EEC3C
:102D30003FF0E552E552F3CF10F2F4CF11F20E0E50
:102D4000146E020E156E97D0E1DA0DEF18F0E55211
:102D5000E55206C014F007C015F008C016F009C00F
:102D600017F00CD2FD0EDBCFE6FFFE0EDBCFE6FF49
:102D70001200E552E55278EF18F0C0D9F3CF18F001
:102D8000F4CF19F0B2DAE66A120091DA4DEF19F0D9
:102D9000FB0EDBCFE6FFFC0EDBCFE6FF120063ECA1
:102DA0005CF069D906C016F007C017F008C018F02B
:102DB00009C019F0E3D13ADB060E94EF18F0E16E8A
:102DC000BED1E66E9BDA020EE66E55DAEEEC41F00D
:102DD000E552E552E5524CD9E66A1200E66E7AEF0A
:102DE00019F0C3D9020EE66E1200F3CF1CF0F4CF37
:102DF0001DF0F3D91E6E0D0EE15E1E508CEF18F023
:102E000001EC26F038D9040EE15C1200A7D9020EBD
:102E10004EDA5FD99EEC4AF0FDDAEFD9E6DA8FD1CF
:102E200096D9F70EDBCF16F0F80EDBCF17F0166C45
:102E3000171E000E172216C0E6FF17C0E6FF35EC7E
:102E400059F019D92FDA010EDBCFE9FF020EDBCFE3
:102E5000EAFF57EF19F0DACFEAFF69EF18F085D9EA
:102E6000030E1200F80EDBCFE6FFFDEF18F0FBD8E3
:102E7000020EE126120014C0F3FFF46E1200186E69
:102E8000060EE15E18501200E552E5520BDA020E12
:102E9000120028D9E66A12000A0EE66EE66A1200EF
:102EA000FB0EDBCFE9FFFC0EDBCFEAFF110E89D969
:102EB00094EC2DF0E552E5521200B8DA1AEF1AF050
:102EC00019DA35EC59F03BEF18F0040E94EF18F0D6
:102ED0001E0EE66EE66A120010EC26F0CCD8040E48
:102EE000E15C1200010EE66EF80EDBCFE6FF120089
:102EF000040E06C0DBFF050E07C0DBFF060E08C090
:102F0000DBFF070E09C0DBFF12006FDA020E1200B2
:102F1000020EA3EF18F07E0EE66E230EE66E120090
:102F2000140EE66EE66A1200EEDC146E080EE15E28
:102F30001450120024DAEE6AED6A1200020EE1EF7C
:102F400018F088EC59F0E552E5521200186E0B0E9D
:102F5000E15E18501200E126A7EF18F0F50EDBCF66
:102F6000E6FFF60EDBCFE6FF1200010EDBCFE6FF39
:102F7000020EDBCFE6FF1200040EDBCFE6FF050EEC
:102F8000DBCFE6FF12000DEC26F03BEF18F0D4EC9F
:102F900013F0186E090EE15E1850120031EC13F0B8
:102FA000146E080EE15E14501200320EE66EE66AF0
:102FB000120035D995D98AD9C0D9CDEF19F0E6D903
:102FC000010EE66E020EE66E63EC53F05DDF42D951
:102FD00064D9E66A070EE66E65EC58F055DFE76ED9
:102FE00039D9E750C5EF16F0F9DED2DEE3EF19F07C
:102FF000E66EE66AB2EF16F03ED9B4DE00EF17F0E7
:10300000F3CF16F0F4CF17F070D93AEC55F09EDFFD
:1030100067D993D9A7DE6CEF17F0020E2CD97CECA0
:103020002DF0E552E552F3CF16F0F4CF17F0166C01
:10303000171E000E1722F90EDB50165C146EFA0EE6
:10304000DB501758156EE1D9020E31D914C0EEFFCE
:1030500015C0EDFF020E12008CDE4DEF19F089DE77
:10306000020EC5EF16F0D9CFE6FFE1CFD9FF12006F
:1030700019D975EF19F0E552E552E552E552120003
:10308000020E60D94DDF6EDE91EC13F013EF1AF0F3
:103090001702F3CF17F01602F3CF16F0F4501726ED
:1030A000FB0EDB50F324146EFC0EDB501720156E64
:1030B00014C0E6FFE66E56DEC7EF17F0E66A1A0E9A
:1030C000E66E240E42D9010EE66E12002BD98BEF6C
:1030D00017F0EECFE6FFEECFE6FFEECFE6FFEFCF45
:1030E000E6FF1200F3CF1AF0F4CF1BF075EF19F0E2
:1030F000D9D8DECFE9FFDDCFEAFF1200E66E1DD999
:10310000EEEC41F0E552E552E5521200010E0ED907
:10311000F4EC0FF0A4EF16F0C5D831D94DEF19F04B
:10312000E15E1C50C6EF19F085D970EF19F005D992
:10313000C8EF16F094EC2DF00ADEC8EF16F0E55259
:10314000E7CFD9FF1200E66E010EE66E1200F70E11
:10315000DBCFE6FFF80EDBCFE6FF1200FD0EDBCF84
:10316000E9FFFE0EDBCFEAFF1200146E070EE15EF0
:103170001450120087EC13F02FEF17F006C0E6FF93
:1031800007C0E6FF08C0E6FF09C0E6FF1200E66ED2
:10319000E66A96DE52EF19F0020E96EF19F091EC06
:1031A00013F05DDEE66E120006DE72EF17F019DE38
:1031B0004CEF17F0E126D6DDAEEC2DF0E552E552EE
:1031C000120075D8EECFE6FFEFCFE6FF1200E66EF5
:1031D000D950040FE96E2BEF17F087D86AEF52F041
:1031E0006CDE70EF19F06FEC13F0FBDD90EF17F071
:1031F0006FEC13F034DEEEEF16F0F90EDBCFE6FFE6
:10320000FA0EDBCFE6FF120032DE040EE66E12008D
:1032100043DEB2EF16F0020EE66E68EF17F0DEDD69
:10322000E66EE66AD0D89EEC4AF03FEF17F014DF66
:10323000D0D8200EE66E030EE66EFFEC48F046DFB7
:10324000DED8FCEF17F063EC53F006DF2C0ED1D87C
:103250002FEF18F0DBCFE9FF030EDBCFEAFF120000
:1032600002DFF70EDBCFE6FFFDDD92DDCCEC43F0B5
:10327000D1D8B2EF16F0DBCFE6FF030EDBCFE6FFCF
:103280001200BAD813EF1AF0D80EE66E240EACDE98
:1032900083DFE2EC0FF010EF1AF0F3CFEEFF15C072
:1032A000EDFF1200F3CF14F0F4CF15F01200E92671
:1032B000000EEA221200BAD8060EBCD8DFEF17F0D3
:1032C000A3DF010E76DE33DFF5EF19F04BDD94EC72
:1032D0002DF0A7EF16F01CDE63EC53F02CEF18F086
:1032E000F3CFDEFFF4CFDDFF1200F3CFE6FFF4CF24
:1032F000E6FF1200000EE66EE66A1200D950F90FE2
:10330000E96EFF0EDA20EA6E69EF18F0EBDEF1EC01
:1033100044F01C6E0E0E90EF18F0E66E65EC58F05F
:103320002FEF18F026DD040EC5EF16F0E66E030E43
:10333000BDEF16F05DDEBAEF18F0DECFE6FFDDCFB1
:10334000E6FF1200E66E4CEF17F048DDE66EE66A27
:10335000CFEF16F04ED866EF18F0E66E340EE66E3C
:10336000240EF4EF17F044DE1ADF68EF17F044D8AC
:10337000D7EF18F0020E32DD280EF8EF17F0F90E35
:10338000DBCFE9FFFA0EDBCFEAFF1200020EF3CF2C
:10339000DBFF030EF4CFDBFF120013EC2EF03FEF48
:1033A00017F0E0DC9AEF18F023DE38EF14F020DE9F
:1033B00087EF13F0C9DC4EDF130E79DF010EEF6EDD
:1033C000020EFCEF17F063EC5CF0E552E552A7EF5C
:1033D00016F0DEDC13EC56F02FEF18F0E5DE33DFED
:1033E000E66A030EE66E65EF58F0FEEC25F03BEF63
:1033F00018F0A9DE4EEF57F0FBDD91EF13F0F00E61
:10340000E66E250EF1DD86EF18F0020E23DF020EC8
:1034100057EF19F0166E060EE15E165038EF18F0F1
:1034200093DCFCEF17F0DDDC68EF17F01CDE040E18
:0E343000E1261200E66E8EEC5CF0E552120012
:02343E0000018B
:10344000F8510AE10001030ECA6FDE0EC86FB40E18
:10345000C96F0001010EF86FC60E146E000EDCEF8E
:103460001EF00001F9510AE10001010ECF6FF90EC3
:10347000CD6FB40ECE6F0001010EF96FCB0E146E3E
:10348000000EDCEF1EF00001FA510AE10001010E0E
:10349000D46F020ED26FB50ED36F0001010EFA6F1A
:1034A000D00E146E000EDCEF1EF00001FB510AE19D
:1034B0000001010ED96F0B0ED76FB50ED86F00014A
:1034C000010EFB6FD50E146E000EDCEF1EF0000136
:1034D000FC510AE10001010EDE6F140EDC6FB50E27
:1034E000DD6F0001010EFC6FDA0E146E000EDCEFD2
:1034F0001EF00001FD510AE100010B0EE36F1D0EED
:10350000E16FB50EE26F0001010EFD6FDF0E146E6C
:10351000000EDCEF1EF00001FE510AE10001010E79
:10352000E86F800EE66FB50EE76F0001010EFE6FCB
:10353000E40E146E000EDCEF1EF0EFEC1FF0090E2F
:10354000F6DBF4EC1EF01CEC5AF0E552E55280EC90
:103550001FF01CEC5AF0E552E552B4EF1EF0C0EC3F
:103560001FF0070EE66E040EE66E000E48EC1FF02C
:10357000F9DB9EEC4AF00BEC1FF0F3CFDEFFF4CF4B
:10358000DDFFE0DB94EC2DF0B7EC1FF013EC2EF038
:10359000BCEC1FF020EC1FF0A3DB1D0EECEC1FF0C9
:1035A000000804E29DDB1D0EC2DBEF06020EE15CAB
:1035B00002E2E16AE552E16ED7D3D9CFE6FFE1CF6F
:1035C000D9FF020EE126FD0EDBCFE9FFFE0EDBCFB9
:1035D000EAFF100EE926000EEA22EECF14F0EFCF3C
:1035E00015F0D9CFE6FFDACFE6FFFB0EDBCFE6FF23
:1035F000FC0EDBCFE6FFFD0EDBCFE6FFFE0EDBCFE2
:10360000E6FF04D015C0FAFF1450F96EFBDF166E0A
:10361000060EE15E1650D9CFE9FFDACFEAFFEE5091
:10362000ED100DE08FDBA3EC2DF0B7EC1FF01DECDF
:103630002EF0BCEC1FF004EC26F0DFEC1FF0020EC5
:10364000E15C02E2E16AE552E16E8ED391DB0A0EA3
:10365000E66EE66A45EC1FF0EECFE6FFEECFE6FF42
:10366000C3DB9EEC4AF0166E060EE15E165089EC46
:103670001FF0C4EC1FF0F90EDBCFE6FFFA0EDBCF34
:10368000E6FFDEDB71D350EC1FF0010EE66E5BEC63
:103690001FF0E7DE38DB68D350EC1FF0020E04ECBD
:1036A00020F0F1DE30DB60D350EC1FF0030E04ECB1
:1036B00020F0FBDE28DB58D3F3DB040E04EC20F013
:1036C00006DF21DB51D354DB040EE126FD0EDBCFF8
:1036D00008F0FE0EDBCF09F0020E08C0DBFF030E80
:1036E00009C0DBFF72DB060EE66E65EC58F04ADBC4
:1036F00078DBF2EC58F0EADB010EE66E9FEC1FF08F
:10370000F8DE01DB040EE15C02E2E16AE552E16E03
:103710002BD3C0EC1FF059DBFA0EE66E63EC53F0CE
:1037200031DBE4EC1FF0B1DB08EC20F0C9EC1FF05A
:10373000030E0D6E0E6A16C008F017C009F0A8EC53
:1037400059F008C016F009C017F008C0E6FF09C01C
:10375000E6FF71EC35F0BADBE66AF1DBDCDED3DAEA
:10376000020EE15C02E2E16AE552E16EFDD200DBAD
:103770000A0EE126FFEC40F06EDBF0EC40F0040EA8
:10378000F3CFDBFF050EF4CFDBFF5EDBEE52EF5035
:1037900015E0C4DBEFCF14F0060E145C1CE20BEC5A
:1037A00020F0DEDBEFCF14F0B9DB1450EF268ADB1C
:1037B000BDDBE668E668C6DA55DB0DD0AFDBEF505F
:1037C000000809E28DDA220EB2DAEF0604E1A6DB88
:1037D000EF0678DBABDB38DBEF5026E081DA1E0E3C
:1037E000ECEC1FF0000826E29DDBEF5023E15FDBED
:1037F000080EEECFDBFF090EEDCFDBFF58DB120E1C
:10380000EE6E370EED6E0BEC20F051DB080EDBCFC9
:10381000EEFF090EDBCFEDFF63DA1E0E88DAEF064E
:1038200081DB320EEF6E06D07DDBEF50000802E246
:1038300079DBEF0680DA060ECFDB1BE026DBEE0637
:10384000ED5A1FDBD6DA04E7FB0E145CFF0E1558A9
:1038500056E2BFDBD880155004E7F60E145CFF0E6D
:10386000155804E20EDBF60EEE6EED686BDA94D9B5
:1038700044D061DA070EB0DB1AE007DBEE2AED2256
:1038800000DBCEDA3CE214500508000E155437E296
:10389000A0DB153409E214500A08000E155404E2A6
:1038A000F0DA0A0EEE6EED6A4DDA7AD926D0E9DA50
:1038B00071DA0001800E151404E0E3DAEE2AEF223B
:1038C00008D087DB153405E2D7DA03E2DADAEE0650
:1038D000EF5A7FDB153404E31450FB08FF0E155438
:1038E0000EE2CFDA56DBD890175004E6050E165CD0
:1038F000000E175804E226DA57D9E552E5521BDAD2
:10390000040E6ADB0DE04ADB74DA04E7F30E145CA4
:10391000FF0E155829E242DBF30EEE6EED6824D05F
:103920000ADA050E59DB0DE039DB7ADA1DE21450B4
:103930000D08000E155418E231DB0D0EEE6EED6A27
:1039400013D09FDA27DA0001800E171404E026DB7B
:10395000EE2AEF2209D022DB2ADA153405E28CDACE
:1039600003E21CDBEE06EF5A34DB040E1ADB0850D0
:10397000EE261550ED2212DB1ADA030E12DB48DBBD
:103980000850EE261550ED2280DA04DA0001800E90
:10399000151404E07ADAEE6AED6A18D0D3D979EC1E
:1039A0002DF0E552E552060E1DDB42DA0FE214500F
:1039B000A008000E15540AE2060EDB50146E156ABC
:1039C000A00E17DB14C0EEFF15C0EDFF5EDAE2D9E2
:1039D0000001800E171405E058DA1ADBEE6AED6A72
:1039E0001AD0B0D97CEC2DF0E552E552070EFADA88
:1039F0000FDB1EDA10E21450F508000E15540BE22E
:103A0000070EDB50146E156AF50EF3DA01DB14C0F5
:103A1000EEFF15C0EDFFC4D973DAF9EC50F0CFDA40
:103A2000000E146E0A0EE15C02E2E16AE552E16EFC
:103A300014509AD1D4DA0B0E7AD9060EEF6E000E1E
:103A400027DA4EDA1EDADED97DD907EC2EF0E55200
:103A5000E55241EC2EF086D975D91DEC2EF0DBD95C
:103A600083D186D9040EE126240EE66E8EEC5CF03E
:103A7000E552F1D960D93A0EEE6E350EED6E5BD996
:103A8000C7DAFB0EDBCFEEFFFC0EDBCFEEFFFD0E49
:103A9000DBCFEEFFFE0EDBCFEEFF4DD90C0E47D98C
:103AA0005E0EEE6E350EED6E46D90E0E40D9BA0E94
:103AB000EE6E350EED6E6E0EE66E370EE66E31EC86
:103AC00051F09DDA090E33D97FDAB9DC22DA33D925
:103AD000060E2DD986D907EC2EF0E552E55209DA0B
:103AE000D4EC36F08CDA160E22D96EDAD1D9F8D9A8
:103AF00022D9180E1CD986D91ED9200E18D9EF6AE2
:103B00001AD9230E14D9090E2FDA210E10D9010E5D
:103B10002BDA230E61DAE66E0ED9220E08D9E552B1
:103B2000E75022DA1D0E03D9040E1EDA1F0EFFD84D
:103B3000320E1ADA1E0EFBD8030E16DA120EEB6ADC
:103B4000130EEB6AF8D8140EEB6A150EEB6AF3D875
:103B50001C0EEDD8EF6AEFD8100EE9D8860EEE6E87
:103B6000360EED6EC6D966DF08D907D906D905D954
:103B700004D9E552E552020EDBCF14F0030EDBCF81
:103B800015F014C0F3FF15C0F4FF040EE15C02E26F
:103B9000E16AE552E16EE8D0B8D9020EEF6EE4D0EA
:103BA000B4D9010EEF6EE0D0B0D9EF6ADDD017DAEC
:103BB0001C0E12DA040833E093D81C0EB8D8EF2A92
:103BC000EF50040A21E0070A14E0010A0AE0030AA0
:103BD00026E16DD9980EEE6E360EED6E73D9070E96
:103BE0000FD065D9A80EEE6E360EED6E6BD9060EAF
:103BF00007D05DD9B80EEE6E360EED6E63D9040EA9
:103C0000EF6EAED9010E0AD052D9C60EEE6E360E48
:103C1000ED6E58D9050EEF6EA3D9170EEF6EA4D036
:103C2000AFD9FB0EDBCFE9FFFC0EDBCFEAFF120EB4
:103C3000D3D90D0DF350DE6EDD6AFA0EDB500DE0C8
:103C4000D9CFE9FFDACFEAFF010E0F0B06E0EC5205
:103C5000D890ED32EF32E806FAE142D8120E67D87A
:103C6000EE2AEF22ADD86ED8FDD8020EE15C02E25A
:103C7000E16AE552E16E78D07BD8F7D8153402E2DC
:103C8000FBD819E32DD8140E52D891D8FB0EDBCFF8
:103C900016F0FC0EDBCF17F0166C171E000E172265
:103CA0001650145C1750155806E21AD8140EEB6A19
:103CB000150EEB6A08D0D9D813D8140E38D8145082
:103CC000EE261550ED2250D053D83CD810EC2DF0F4
:103CD000E552E55215D910EC2DF0E552E55244D0ED
:103CE000FD0EDBCFE9FFFE0EDBCFEAFF1200E66E32
:103CF000000ECED806C016F007C017F008C018F0A6
:103D000009C019F024D1F3CF1CF0F4CF1DF03CD939
:103D10006AEC52F01E6E0D0EE15E1E50FAD8F90EDE
:103D2000DBCFE9FFFA0EDBCFEAFFE4EF1FF0E92675
:103D3000000EEA221200020EDBCFE9FF030EDBCFFA
:103D4000EAFF1200FD0EDBCFE6FFFE0EDBCFE6FF43
:103D50001200E552E552F3CF1AF0F4CF1BF014D95C
:103D6000E66A1200BDD8F3D0E552E7CFD9FF1200C2
:103D7000D9CFE6FFE1CFD9FF1200E552E552B9D81D
:103D8000D7EF1DF0E552E552C4D8DECFE9FFDDCF15
:103D9000EAFF1200EECF14F0EECF15F0C9EF1FF0DE
:103DA000FB0EDBCFE6FFFC0EDBCFE6FF1200EECF13
:103DB00014F0EFCF15F0120014C0F3FFF46E1200F0
:103DC000DECFE6FFDDCFE6FF1200040EE66E8EECDE
:103DD0005CF0E552F3CFDEFFF4CFDDFF010EE66EBF
:103DE0001200F2D879EF1FF0EECFE6FFEFCFE6FF3B
:103DF0001200EE06ED5AEECF14F0EDCF15F0D8809C
:103E00001550120006C0EEFF15C0EEFF16C0EEFF03
:103E100017C0EEFF1200186E060EE15E1850120079
:103E2000EE2AED22EECF14F0EDCF15F0153412008E
:103E30001650EE24146E1750EE20156EE834120062
:103E4000FEEC25F0DFEF1FF0040EDBCFE9FF050EDF
:103E5000DBCFEAFF1200020EF3CFDBFF030EF4CF3D
:103E6000DBFF120009DFDFEF1FF0FB0EDBCF14F0EA
:103E7000FC0EDBCF15F0120014500008000E155494
:103E800012002EDF180E97EF1EF02ADF08EF20F049
:103E9000E66EE66AE66EE66A63EC5CF0DFEF1FF062
:103EA00067DFE66A4C0EE66E360E77EF1EF018DF1F
:103EB000100E97EF1EF0E66EF90EE66E63EC53F00F
:103EC000A9EF1EF00DDF230E97EF1EF05BDFA0D8E9
:103ED0007BD8010EE66EEA0EE66EA50E77EF1EF0B9
:103EE00006C014F007C015F008C016F009C017F09E
:103EF0001200020EDBCFE6FF030EDBCFE6FF12005F
:103F0000EFDE160E14DFF4EF1EF069D8080E97EFFF
:103F10001EF0F3CF14F0F4CF15F01200E1DE200E06
:103F200097EF1EF0DDDE1F0E97EF1EF0EF50E66EEE
:103F3000D7DE220EFCDEE552E750EF6E1200020ED5
:103F4000E66E3EDFEEEC41F0E552A9EF1EF006C052
:103F5000E6FF07C0E6FF08C0E6FF09C0E6FF120063
:103F6000BFDE210E97EF1EF0EF6E9BEF1EF0E552C5
:103F7000E552F8DEE0EF1EF04EDF22DFD0EF1EF05C
:103F8000F7DE020EE1261200F3CFE6FFF4CFE6FFE4
:103F90001200EECF16F0EFCF17F0120072DF08EF2D
:103FA00020F00D6E0E6A14C008F015C009F0A8ECE0
:103FB00059F008C014F009C015F045EF1FF0E552A4
:103FC000E552E552E5521200F3CFEEFF15C0EDFFCA
:103FD000120057DFD7EF1EF0AADEEF501200C8DE46
:103FE00070EF1EF0F3CFDBFFDB50166E176A45EF64
:103FF0001FF0D8801456000E155645EF1FF0E552FD
:10400000E55287DF9BEF1EF0E66E010E5BEF1FF0BF
:10401000020E97EF1EF0C4DE95DEB8EC56F0DFEF2F
:024020001FF08F
:0E402200030112510AE10F01010E6D6FDF0E56
:104030006B6FBB0E6C6F0301010E126F690E146E75
:104040000F0E14C0F3FFF46E120031EC24F0020ED8
:10405000E1269BEC24F008EC25F04AEC24F00BE080
:1040600091EC24F096EC24F09CEC5CF0E552E552E7
:1040700091EC24F0F0D7A2EC24F01CEC5AF0E552BD
:10408000E552020EE15C02E2E16AE552E5D3E9DBCA
:10409000050EE126DF6A9BEC24F0020ED2DB010E56
:1040A000EECFDBFF020EEDCFDBFFD950010F7FEC2F
:1040B00024F022E0A9EC24F0030EEECFDBFF040E87
:1040C000EDCFDBFFDFCFE6FF03EC25F085EC24F03E
:1040D000F2EC24F0030EDF24E66EE66A020EE66ED2
:1040E000E66A030E85EC24F0ACDBF2EC24F0050E5E
:1040F000DF26A9EC24F0D2D7050EE15C02E2E16AEA
:10410000E552AAD3AEDB060EE126E2EC3AF0B0ECC3
:1041100024F0DF6A010EDB6A0A0EDF5C3AE28BEC08
:1041200024F0040EF3CFDBFF050EF4CFDBFF010E0E
:10413000DBCFE6FF03EC25F0C0DBF7EC24F0BDDBC2
:1041400010EC25F0010EDB50030FE66EE66A020E5E
:10415000E66EE66AB2DB14EC25F0F7EC24F0040E10
:10416000DBCFE6FF050EDBCFE6FF020EDBCFE6FF7F
:10417000030EDBCFE6FFB7EC24F0DF2A050E146E4A
:10418000010EDBCFE7FF1450E726010EE7CFDBFF80
:10419000C3D7020EDBCF14F0030EDBCF15F014C033
:1041A000F3FF15C0F4FF060EE15C02E2E16AE5529E
:1041B00053D357DB140EE12634DFD2DBD950040F82
:1041C000E96EDACFEAFF5F0EEE6EEE6A060EDB6A8C
:1041D0008DDBA80EE66E1A0EE66E1EEC3FF0E55281
:1041E000E552100EF3CFDBFF110EF4CFDBFF120E02
:1041F000DB6A130EDB6A010EE66ED0EC29F0E552A5
:1042000080EC2BF022DB08EC25F0EF5001E02FD101
:104210006DDBD950FB0FE96EFF0EDA20EA6EEE502F
:10422000ED105BE0A8DBEE50EFCFEAFFE96E166E13
:10423000EACF17F0060EDB5000011624146E000EB4
:10424000EA20156E070E14C0DBFF080E15C0DBFF59
:10425000FCDAEE52EF500CE0060EDB5006E1020EE7
:10426000F36E060EF3CFDBFF53D0060EDB0650D005
:10427000ECDAEF5008E0060EDB2ADB50020848E2D9
:10428000060EDB6A45D0E1DA060EDBDAEF500EE00F
:10429000B8DAEF50410813E0B4DAEF50200803E138
:1042A000B0DA5A0E15D0ADDAEF0632D0CEDA070EFC
:1042B000C8DAEF502DE0A5DAEF505A0803E1A1DA91
:1042C000200E06D09EDAEF50200804E19ADA410E63
:1042D000EF6E1ED096DAEF2A1BD00A0EE66EBDEC0A
:1042E00053F0E552D950120FE96EDACFEAFF0A0E09
:1042F000EE26000EED22120EDBCF14F0130EDBCFF4
:1043000015F0980E145C3A0E155802E3010EB5D064
:10431000DBDA86EC3FF0E552E552010EE66E000E68
:10432000E66EE66AE66EE66A58DA2CDB71DBFEDAE8
:104330008DEC45F0186E070EE15E1850000EE66E2B
:10434000E66AC2DAF9EC50F048DB460EDF6EFD0E8D
:10435000DBCFE9FFFE0EDBCFEAFF5ADB0A0EEECF22
:10436000DBFF0B0EEDCFDBFFD9500A0FC8DA74E08C
:10437000FB0EDBCF14F0FC0EDBCF15F00A0EDB508A
:10438000141803E10B0EDB50151803E0090EDB6A6D
:1043900034D0010EF36E090EF3CFDBFF010EE66E93
:1043A000DF04E66EE66AF5DA14EC31F0E552E55228
:1043B000F3CF1CF0F4CF1DF0060EDB501A6E1B6A13
:1043C000086E1BC009F0F3CF0DF0F4CF0EF0FBEC3C
:1043D00059F006C018F007C019F0550E1826000E47
:1043E000192218C0E6FF19C0E6FFF7D9D2DA4AEC65
:1043F00030F01E6E070EE15E1E500A0EDBCFE9FFA5
:104400000B0EDBCFEAFF0C0EEECFDBFF0D0EEDCF78
:10441000DBFFC6DA550EFFDAE9CF18F0EACF19F064
:10442000E9CFE6FFEACFE6FF4AEC30F01A6E070E5E
:10443000E15E1A50B5DA730EEEDAF6DA77DA79EC75
:1044400030F0186E070EE15E1850100EDF260A0ECF
:10445000DBCFE9FF0B0E7FD7D950010FE66E000EC0
:10446000DA20E66EE2EC29F0E552E552CBD62CDA02
:104470001CEC5AF0E552E552000E146E140EE15C8D
:1044800002E2E16AE5529AD2ECD9430EE126D9CF95
:10449000E9FFDACFEAFFEE6E500EEE6E530E22DA2F
:1044A0004C0EEE6E480EEE6E200E1CDA5A0EEE6EBC
:1044B000430EEE6E200E16DA4A0EEE6E500EEE6EC3
:1044C000430E10DA450EEE6E4D0EEE6E530E0ADA06
:1044D000530EEE6E590EEE6E420E04DA450EEE6E7F
:1044E000430EEE6E450EFED9410EEE6E420EEE6E9E
:1044F000430EF8D9580EEE6E590EEE6E5A0EF2D9E2
:10450000440EEE6E450EEE6E460EEE6EEE6A640ED4
:10451000F36E280EF3CFDBFF290EDB6A630EF36E1A
:104520002A0EF3CFDBFF2B0EDB6A620EF36E2C0E2E
:10453000F3CFDBFF2D0EDB6A610EF36E2E0EF3CF91
:10454000DBFF2F0EDB6A600EF36E300EF3CFDBFF66
:10455000310EDB6A5F0EF36E320EF3CFDBFF330EEC
:10456000DB6A5E0EF36E340EF3CFDBFF350EDB6AD3
:104570005D0EF36E360EF3CFDBFF370EDB6A5C0E9B
:10458000F36E380EF3CFDBFF390EDB6A5B0EF36E92
:104590003A0EF3CFDBFF3B0EDB6AE2EC3AF03F0E64
:1045A000F3CFDBFF400EF4CFDBFF3C0EDB6A0A0EDD
:1045B000F36E3C0EDBCFF4FFF350F45C43E2ABD977
:1045C000410EF3CFDBFF420EF4CFDBFF56D9F350A1
:1045D0000F0127D9E552E750EF6E4FD9F32821D9C3
:1045E000010E2FD9E552E750EF6E47D9F350020F75
:1045F00018D90EDAE552E750EF6EFED911DAD9502C
:10460000280F166EDACF17F03C0EDB50020D165055
:10461000F324E96EDA50F420EA6EEECF14F0EFCF17
:1046200015F0EAD901DA14C0EEFF15C0EDFF410E16
:10463000DBCFE6FF420EDBCFE6FF4DD998D93C0E2B
:10464000DB2AB5D748D931D9D9CFE6FFDACFE6FF93
:1046500037EC4BF0146E060EE15E14503CD9B8D91D
:10466000430EE15C02E2E16AE552F6D0FAD8040EAC
:10467000E12681D9CDD90ED923E053D9020EEECF50
:10468000DBFF030EEDCFDBFFFD0EDBCF14F0FE0EE4
:10469000DBCF15F077D9C8D9EECF16F0EFCF17F0F2
:1046A0001450165C1550175809E2DECF14F0DDCF18
:1046B00015F014C0F3FF15C0F4FF04D032D9DAD7D7
:1046C000F36AF46A040EE15C02E2E16AE552C4D0E6
:1046D000C8D8030EE12616DDF3CFDEFFF4CFDDFFF1
:1046E000000EE66EE66ADECFE6FFDDCFE6FF6CD9B0
:1046F000E76E020EE7CFDBFFDECFE6FFDDCFE6FFA2
:1047000067D9020EDB50146E030EE15C02E2E16A2F
:10471000E55254D1A6D80B0EE126F4DC030EF3CFFC
:10472000DBFF040EF4CFDBFF85D80CD99FDF55D912
:10473000050EF3CFDBFF060EF4CFDBFFD950050FDC
:10474000DED843E0E8D8090EF3CFDBFF0A0EF4CF42
:10475000DBFF8CD869D9FD0EDBCFEEFFFE0EDBCF81
:10476000EDFF320EE66E4FD981D841D97FD858D9A6
:10477000090EDBCFE6FF0A0EDBCFE6FF050EDBCF2F
:10478000E6FF060EDBCFE6FF55D854EC3BF0146E87
:10479000060EE15E1450070EF3CFDBFF080EF4CFD8
:1047A000DBFF030EB2D84DD8C1D844D817EC3BF08C
:1047B00014D9070EDBCFE6FF080EDBCFE6FF3AD8B1
:1047C00003D938D872D852D80DD934D801D90B0EA4
:1047D000E15C02E2E16AE5523FD063EC5CF0FDD8B7
:1047E00006C014F007C015F008C016F009C017F095
:1047F00006C0E6FF07C0E6FF08C0E6FF09C0E6FF07
:104800001200070EDBCFE9FF080EDBCFEAFF120034
:10481000E9CF14F0EACF15F0E9CFE6FFEACFE6FFE3
:104820001200D924E96E000EDA20EA6EEF50E66E2F
:10483000FCEF24F0030EDBCFE6FF040EDBCFE6FF38
:104840001200E926000EEA2212000E0EDBCFE9FF6D
:104850000F0EDBCFEAFF1200E16EE552E7CFD9FF82
:104860001200D9CFE6FFE1CFD9FF1200090EDBCF4E
:10487000E9FF0A0EDBCFEAFF1200D9CF14F0DACF3E
:1048800015F03C0EDB50040D1200166E060EE15EB4
:1048900016501200EECFDEFFEDCFDDFFD9CFE9FFDE
:1048A000DACFEAFFEE50ED10120047EC20F0E552AF
:1048B000E552320EE66E03EF25F0040EDBCFE9FF82
:1048C000050EDBCFEAFF1200100EDBCFE6FF110E64
:1048D000DBCFE6FF12003F0EDBCFE6FF400EDBCF63
:1048E000E6FF1200EE6E5F0EEE6E1200F0EC40F08E
:1048F0000E0EF3CFDBFF0F0EF4CFDBFF1200E96EDD
:10490000DACFEAFFEE50ED101200DBCFE9FF040E24
:10491000DBCFEAFF1200060EE66E8EEC5CF0E5528D
:104920001200DECFE9FFDDCFEAFF1200EECFE6FF97
:10493000EFCFE6FF1200FD0EDBCFE9FFFE0EDBCF6F
:10494000EAFF1200FD0EDBCFE6FFFE0EDBCFE6FF37
:104950001200010EDBCFE9FF020EDBCFEAFF1200EF
:10496000020EF3CFDBFF030EF4CFDBFF1200FEECF1
:104970003AF0EDEF24F0FB0EDBCFE9FFFC0EDBCFCE
:10498000EAFF1200020EDBCFE9FF030EDBCFEAFFE6
:104990001200D950040FE66E000EDA20E66E120007
:1049A000090EDBCFE6FFDFCFE6FFE66A12000C0E52
:1049B000DBCFE9FF0D0EDBCFEAFF1200E16E1450F2
:1049C000E552E7CFD9FF1200D9EC20F0EDEF24F04B
:1049D00025EC20F0E552E5521200E552E552E55291
:1049E000E552120015DF37EC4BF045EF24F010DFF5
:1049F00018EC4BF045EF24F0410EDBCFE9FF420EFF
:104A0000DBCFEAFF1200E66A030EE66EE66A1200EA
:104A1000020E21EF24F0E66EE66ADFDED7EF24F027
:0E4A2000030E0FDFEF6A1200040E21EF24F0E8
:024A2E003ADB71
:104A3000020EE1262CEC29F0DBDB02E0AFDBFCD739
:104A4000E4DBD6DB02E0AADBFCD730EC29F0D0DBDC
:104A500002E0A4DBFCD734EC29F0CADB02E09EDBE9
:104A6000FCD738EC29F0C4DB02E098DBFCD7CCDAC9
:104A70000D0ED3DABDDB02E091DBFCD73CEC29F074
:104A8000B7DB02E08BDBFCD7BFDA030E60EC29F06A
:104A9000050E60EC29F0070E60EC29F0090E60ECC1
:104AA00029F00B0E60EC29F00D0E60EC29F00F0ED2
:104AB00060EC29F01B0E60EC29F0150E60EC29F07B
:104AC000170E60EC29F0190EA6DAE5DA5CDBE3DA02
:104AD0009BDA130EA0DA42EC5AF0E552E552020ED0
:104AE000E15C02E2E16AE552E16EE1D2DBDA060E58
:104AF000E126230EE66E8EEC5CF0E5520DDBA4DAC7
:104B00002E0EEE6E4A0EED6E84EC29F0030E50DB95
:104B10004FDB070E4DDB090E4BDB0B0E49DB0D0E99
:104B200047DB0F0EB2DA90DA130E5EDBFB0EDBCF43
:104B3000EEFFFC0EDBCFEDFF87DA110E55DBFD0E2D
:104B4000DBCFEEFFFE0EDBCFEDFF41EC2EF065DBA1
:104B50007BDA110E60DA1DEC2EF0186E060EE15EA7
:104B60001850E60EE66EE66A820EFFDA90EC4FF021
:104B70002CDB150E8ADAE60EE66EE66A010EF5DA31
:104B8000C0EC4EF022DB170E80DA030EE66EE66A0A
:104B90009B0EEBDA2BEC50F018DB190E76DADC0EFC
:104BA000E66EE66A9A0EE1DAE3EC4CF00EDB1B0EE1
:104BB0006CDA4ADA1D0E9BDA47DA1E0E79DB1F0E1D
:104BC00077DB210E94DA40DA220E72DB020E8FDAE6
:104BD000040EDBCF14F0050EDBCF15F014C0F3FF8D
:104BE00015C0F4FF060EE15C02E2E16AE552E16EF7
:104BF0005ED258DA09DA020E67DA59D2C8DA030E41
:104C0000DAD2C5DA050ED7D2C2DA070ED4D2BFDAAD
:104C1000090ED1D2BCDA0B0ECED2B9DA0D0ECBD240
:104C2000B6DA0F0EC8D297DA030ECAD294DA050E9E
:104C3000C7D291DA070EC4D28EDA090EC1D28BDA4E
:104C40000B0EBED288DA0D0EBBD285DA0F0EB8D2AB
:104C500029DA050EE126D8D9130EDFD9020EDBD9E9
:104C600086EC3FF0EBDA0D0ED8D9F5D902E0DFD9AA
:104C7000FCD702DBF0D902E0DAD9FCD7F1DAEBD9C4
:104C800002E0D5D9FCD7F0DAE6D902E0D0D9FCD7DA
:104C9000BCDAE1D902E0CBD9FCD72ADB09E1B4D9EF
:104CA0001D0E12DA05E06FDA64EC1EF0E552E552F3
:104CB000D3DAD1D902E0BBD9FCD7DADACCD902E019
:104CC000B6D9FCD7A1D9170E24DB150E22DB190E9D
:104CD000A2D979EC50F0B2DA1B0E9DD931EC4DF02F
:104CE000E552E552E66A020EE66EE66A17DB95DAF1
:104CF00090DA140E90D979EC30F0186E070EE15E60
:104D00001850050EE15C02E2E16AE552E16ECFD196
:104D1000C9D9040EE12678D9210ED6D938E080D938
:104D200078DA160E78D9E7DA6FD9220E11DAEF5059
:104D3000020831E128DA7CEC2DF0E552E552C7D9C2
:104D4000F00ED8801456000E15560A0E145E000E92
:104D5000155A020E14C0DBFF030E15C0DBFF59DA33
:104D6000EBDAEADAEE06ED5AEECF14F0EDCF15F0FD
:104D7000020EDB50141807E1030EDB50151803E197
:104D800043D9210EACD940D9220EA9D904D0B0DA2A
:104D900002E1A3DAB0DA74DA1BE036D91F0ED8D9F3
:104DA000EF0416E131D91D0E8FD902E0000E01D0BB
:104DB000010EE66E29D91D0E17DAE552E750EF6EA7
:104DC00041DAC6D9EF50640803E11ED91E0E87D917
:104DD00027D91AD9170E00DA150EFED9130E1DD9D0
:104DE000020EFAD9130E17D998EC57F028D934DAF5
:104DF0003FD944D908E0CDD904E1D4D914DFF1D9A1
:104E0000F8D762DAF5D701DA33D938D908E0C1D951
:104E100004E1C8D90BDFE5D9F8D756DAF5D720DA9F
:104E200027D92CD908E0B5D904E1BCD902DFD9D9FA
:104E3000F8D74ADAF5D718DA1BD920D908E0A9D96A
:104E400004E1B0D9F9DECDD9F8D73EDAF5D714DAD6
:104E50000FD914D908E09DD904E1A4D9F6DEC1D94F
:104E6000F8D732DAF5D704DA03D908D908E091D9AE
:104E700004E198D9E4DEB5D9F8D726DAF5D7C4D855
:104E80000D0ECBD8F5D8FAD808E083D904E18AD939
:104E9000D9DEA7D9F8D718DAF5D72ADA21E0B4D8BD
:104EA000030EB9D883EC3BF0E552E552000918E057
:104EB000B0D91D0E09D903E1A7D8020E10D063D9CD
:104EC0001AEC1DF0BBD91E0E12D9BCD908D99CD83A
:104ED0001D0E0DD999D8210E0AD996D8220EFFD8C9
:104EE000040EE15C02E2E16AE552E16EE0D0DAD85C
:104EF000070EE1268AD920DA020EEECFDBFF030E81
:104F0000EDCFDBFF05D92AE0060EDB6A7DD8070E60
:104F100082D8C6D806EC43F064D9B0D815E080D862
:104F2000BFD8A4D800D9B8D9BBD8EBD806E0010EB9
:104F3000F36E060EF3CFDBFF8BD9CED80E0EC4D89E
:104F400003E130D976DE7BD8060EDB5005E0E66A59
:104F5000EBD951D9EFD8D6D76AD9CDD7C9D94DE138
:104F600053D8090EB6D93DD989D812E0B6D97ED822
:104F7000DAD886D906E190D906D9C3D802E0ADD9EE
:104F8000D7D9AAD80E0EA0D803E10CD955DE57D830
:104F90003BD80F0E9ED953D8BFD8D950040F74D91F
:104FA00012E09BD951D8ABD990EC55F0146E060E97
:104FB000E15E1450040EDBCFE6FF050EDBCFE6FF0B
:104FC0002FD843DE3CD820D8050E83D938D8B2D8A4
:104FD0009FD813E02CD96FD9130E76D80EE150D993
:104FE00007E1020EE66ECFD88CD802E076D9A0D9C0
:104FF000010EE66E99D92CD9FED8070EE15C02E2CB
:10500000E16AE552E16E53D0FD0EDBCFE9FFFE0E03
:10501000DBCFEAFF1200E8D83DD1E6D85BEF29F0FC
:10502000FD0EDBCFE6FFFE0EDBCFE6FF120039D927
:1050300066D910EC2DF0E552E55251EF29F0E5521A
:10504000E552E552E5521200040EDBCFE9FF050EF2
:10505000DBCFEAFF120070D9030EEECFDBFF040EA8
:10506000EDCFDBFFD950030F44EF29F02DD912D13A
:1050700063D9EECFDEFFEDCFDDFF1200D9CFE9FF20
:10508000DACFEAFFEE50ED101200AED8F3CFEEFF0C
:1050900015C0EDFF12001CEC5AF0E552E55212006B
:1050A000C6D8F8D0D9CFE6FFE1CFD9FF1200E5523C
:1050B000E7CFD9FF120006C0E6FF07C0E6FF08C031
:1050C000E6FF09C0E6FF12008FD8EF501200F3CFC1
:1050D00014F0F4CF15F01200F7D85BEF29F084D864
:1050E000EF6A1200F3CFDEFFF4CFDDFF12007CD8B1
:1050F000010EEF6E1200B0EC56F0E552E5520009D9
:1051000012009CEC56F0E552E552E55200091200FF
:10511000D950020F44EF29F0040EF3CFDBFF050E48
:10512000F4CFDBFF1200C3EC52F0146E060EE15E0A
:1051300014501200020EF3CFDBFF030EF4CFDBFF9F
:10514000120010EC1EF0146E050EE15E14501200F9
:105150004BD8EF2A1200A6DFFB0EDBCFE9FFFC0ED7
:10516000DBCFEAFFCCD897DFBBD0D8D806C016F08B
:1051700007C017F008C018F009C019F09CDF64DF01
:10518000110E0BEF28F040DF110E0BEF28F08ADF35
:10519000A7D046DF6BDFAFD80108120067DF7BDFE7
:1051A00064EF29F0DECFE6FFDDCFE6FF10EF28F059
:1051B0006CDF84EF29F02FDFFEEC3AF040DF77D789
:1051C0002ADF17EC3BF03BDF72D71A6E060EE15E6A
:1051D0001A507DDF24EF28F01EDF8DD821DF04EF89
:1051E00028F02DDF72EF28F0E926000EEA221200E7
:1051F0003FDF3EEF28F0020EDBCFE6FF030EDBCFF2
:10520000E6FF0EDF13DD1FEF28F0FEDE050E0DEFCB
:1052100028F0FADE110E0DEF28F006C014F007C0DA
:1052200015F008C016F009C017F05BEF28F0020E69
:10523000DBCFE9FF030EDBCFEAFF1200E552E552B8
:1052400004EF28F0E1DE1F0E4ADFDEDE200E120042
:10525000E7DE26DF98EF29F0D7DE030E0DEF28F00A
:10526000D3DE070E0DEF28F0CFDE090E0DEF28F08C
:10527000CBDE0B0E0DEF28F0C7DE0F0E0DEF28F082
:10528000C3DE1E0E64EF28F0E96EDACFEAFFEE50BF
:10529000ED1012007FEF29F01FDF0B0E15DFE66E19
:1052A0001200030EDBCFE9FF040EDBCFEAFF120092
:1052B00016DF24EF28F0EE50EFCFEAFFE96E120080
:1052C000AADEE9DE04EF28F0DECFE9FFDDCFEAFF5A
:1052D0001200A1DE58DF06EF43F0A2DEC3EF28F094
:1052E000FB0EDBCFE6FFFC0EDBCFE6FF04EF28F082
:1052F0004ADF7BEF28F0F9EC50F01FEF28F0EECFFB
:10530000E6FFEFCFE6FF1200E2EC3AF0E0DE24EF3A
:1053100028F081DE10EC2DF01EEF29F0E66EE66A33
:1053200063EC5CF01FEF28F0BBDE2DDFA1EF28F06F
:0E53300070EC56F01FEF28F0020EF4EF28F09C
:02533E0083AE3C
:10534000FED7120088DA020E25DB8EDAFEE130DBB2
:105350008BDAFEE1826A73DA83D27DDA050E1ADB1C
:1053600083DAFEE1040E24DB7FDAFEE1030E826EB7
:1053700066DA76D270DA060E90DA72D26CDA070E3E
:105380008CDA6ED268DA080E826EFE0EDB5003E015
:10539000010E816E01D0816A010E806E806A60D23A
:1053A0005ADA090E826EFE0EDB5003E0010E816EAA
:1053B00001D0816A010E20DB53D24DDA0B0E6DDA7B
:1053C000BEDF4ED248DA0A0E826E92DAEF5005E066
:1053D0008FDAEF6A010E816E04D08ADA010EEF6E69
:1053E000816A0ADB3DD2020EFCEF2CF034DA75DA6A
:1053F000DBCF17F0E1504BDA030EEBCFF3FF175082
:10540000F318E8AE02D0F33408D0EE50145CEE503E
:105410001558EE501658EE5017580BE2FB0EDBCF26
:1054200014F0FC0EDBCF15F0FD0EDBCF16F0FE0EF8
:1054300001D053DADBCF17F068DA12D20CDAA5DA32
:105440005EDAD95024DA1ADA8CDAF00EE66E92DFE0
:10545000E552A00EE66E92DFE552E66A93DFE55272
:10546000C2DFFED1F8D9100EE126D95010DA040EB1
:10547000EECFDBFF050EEECFDBFF060EEECFDBFF40
:10548000070EEECFDBFFF90EDBCF08F0FA0EDBCF15
:1054900009F0080E08C0DBFF090E09C0DBFFF70E9C
:1054A000DBCF08F0F80EDBCF09F00A0E08C0DBFFF7
:1054B0000B0E09C0DBFFF90EDBCF16F0FA0EDBCFC7
:1054C00017F0F50EDB501624146EF60EDB50172085
:1054D000156E0C0E14C0DBFF0D0E15C0DBFF47DA96
:1054E000153410E21450A008000E15540BE23FDAF8
:1054F000A00E145E000E155A69DA01E3EFD014DA3B
:1055000001E3ECD0F50EDBCF14F0F60EDBCF15F097
:105510000001800E151411E05EDA166A176A15AEE6
:1055200002D016681768FAD914500BDA54DA4EDA3A
:1055300001E3D4D0F9D901E3D1D0F70EDBCF16F0D7
:10554000F80EDBCF17F0F30EDB501624146EF40EBA
:10555000DB501720156E0E0E14C0DBFF0F0E15C0AA
:10556000DBFF0CDA153410E21450F008000E15546D
:105570000BE204DAF00E145E000E155A32DA01E383
:10558000ADD0D2D901E3AAD0F30EDBCF14F0F40EE4
:10559000DBCF15F0800E151421E028DA166A176AA1
:1055A00015AE02D016681768A00E0B6E0C6A0D6A55
:1055B0000E6AABD9D3EC5BF002C014F003C015F057
:1055C00004C016F005C017F0A9D90250BAD90EDAF6
:1055D00008DA01E383D0A8D901E380D0D6D9F30E4D
:1055E000DBCF1CF0F40EDBCF1DF01E6A1F6A1DAE70
:1055F00002D01E681F681CC0E6FF1DC0E6FF1EC06B
:10560000E6FF1FC0E6FFF2DE206E080EE15E2050CE
:1056100006C018F007C019F008C01AF009C01BF046
:10562000A00E0B6E0C6A0D6A0E6AD3EC5BF002C022
:1056300018F003C019F004C01AF005C01BF002C036
:10564000E6FF03C0E6FF04C0E6FF05C0E6FF9DD904
:10565000F50EDBCF21F0F60EDBCF22F0236A246AB1
:1056600022AE02D02368246821C0E6FF22C0E6FFF4
:1056700023C0E6FF24C0E6FFB9DE256E080EE15E1A
:105680002550E552E7CF1BF0E552E7CF1AF0E5527F
:10569000E7CF19F0E552E7CF18F018500624146E42
:1056A00019500720156E1A500820166E1B5009203D
:1056B000176E07D984D932D9E1D853D90A0EDBCF76
:1056C000E6FF58DEE552080EDBCFE6FF57DEE55277
:1056D000F20EDBCFE6FF56DEE55285DE100EE15C12
:1056E00002E2E16AE552E16EBBD0070EC16E926A3A
:1056F000936A946A9568806A816A826A836A1200F2
:10570000AAD8040EE126030EDB6ADF6A030EDF5C13
:1057100043E2010EDB6A020EDB6A010EDBCF14F0FE
:10572000020EDBCF15F0D890155004E6F00E145C95
:10573000000E155826E2E66A010EDBCFE6FF020EE8
:10574000DBCFE6FF000EE66EE66A180EE66EE66A4E
:10575000A00EE66EE66A800EE66E6F0EE66E0B0E2B
:10576000E66EE66A7FDE146E0D0EE15E1450D950CF
:10577000010FE96EDACFEAFF180EEE26000EED22D9
:10578000CCD7D950030FE66E000EDA20E66E1ADE93
:10579000E552E552DF2ABAD7040EE15C02E2E16A83
:1057A000E552E16E5DD057D80E0E77D859D00C0E69
:1057B000826E010E816E806E806A12000C0E826E07
:1057C000816A1ED148D8040EE126FB0EDBCF18F00B
:1057D000FC0EDBCF19F0A00E1902F3CF19F018025E
:1057E000F3CF18F0F4501926FD0EDB50F324146E9D
:1057F000FE0EDB501920156E166A176A15AE02D020
:10580000166817685ED8D3DFFA0EDBCFE6FFCBDF72
:10581000E552010EE66EB6DDE552D1D8020EE66E17
:10582000A9DDE552040EE66EA9DDE552DCDDC6DF3A
:10583000040EE15C02E2E16AE552E16E11D0FB0E7A
:10584000DBCF14F0FC0EFD0EFE0E156A166A176A09
:105850001450816ED5D0D9CFE6FFE1CFD9FF120029
:10586000E552E7CFD9FF1200D890030EEB32020EBB
:10587000EB32010EEB32EF32E7061200EECFE6FF1D
:10588000EECFE6FFEECFE6FFEFCFE6FF1200FB0F15
:10589000E96EFF0EDA20EA6E1200826EFE0EDB5019
:1058A000816EAED0E96EDACFEAFF1450EE5E15508D
:1058B000ED5A1200DBCF15F0146C151E000E1522E8
:1058C000120014C0DFFF010E15C0DBFF020E16C070
:1058D000DBFF030E17C0DBFF1200F70EDBCF14F067
:1058E000F80EDBCF15F0F90EDBCF16F0FA0E120032
:1058F000FD0EDBCFE9FFFE0EDBCFEAFF12002DDD50
:10590000E552E552E552E552120014C006F015C00A
:1059100007F016C008F017C009F01200D950040FA4
:10592000E96EDACFEAFF120014500008000E155499
:105930001200080EDBCF14F0090EDBCF15F0153482
:105940001200EE261550EE221650EE221750EE22CF
:1059500012000A0EDBCF14F00B0EDBCF15F015345E
:105960001200F0DCE552E552E552E55212000C0E51
:10597000DBCF14F00D0EDBCF15F012000E0EDBCFD7
:1059800014F00F0EDBCF15F01200E66AE66AE66A45
:10599000E66A1200826EFB0EDBCF14F01450816EAB
:1059A000010E806E806AE15072DF080EE76E120011
:1059B000826E45DFD9506BDF080EE76E1200D9CF3B
:1059C000E9FFDACFEAFF5ADF7FEF2CF0D950080F5A
:1059D00069DF99EF2CF0F50EDBCF14F0F60E5AEFDD
:1059E0002CF0D9500A0F5EDFA9EF2CF0F30EDBCFBD
:1059F00014F0F40E5AEF2CF0806E806A9FEF29F0BD
:085A0000010E806E806A1200A5
:085A08006ED994D99CDAC2D9D1
:105A10008ED9EF50090DB8D914C0F3FFF46E68D1D8
:105A200062D9020EE12646D9EFDF8ED9DECFF6FF2E
:105A3000DDCFF7FF080EF626000EF7220800F5501E
:105A4000E66E35D9EECFE6FFEECFE6FFEECFE6FF0E
:105A5000EFCFE6FFDECFE6FFDDCFE6FF8DEC45F0D2
:105A6000146E070EE15E1450020EE15C02E2E16A80
:105A7000E552E16E3DD137D9020EE126090EE66E00
:105A80008EEC5CF0E552F3CFDEFFF4CFDDFF87D97B
:105A9000320EEE6EB40EED6E82D9060EE926000EC1
:105AA000EA22FD0EDBCFEEFFFE0EDBCFEDFF77D956
:105AB000080EE926000EEA22FC0EDBCFEFFF6FD9BD
:105AC00042DAF80EDBCFEEFFF90EDBCFEEFFFA0E77
