:020000040000FA
:0600000057EF51F0120061
:0600080086EF35F0120046
:06002A001100EFA300002D
:100030005B0F000001000000EAA30000460F000073
:1000400005000000E9A300005A0F000001000000B5
:10005000E5A300004B0F000004000000E4A3000033
:10006000590F000001000000E3A30000580F00003A
:1000700001000000E2A30000570F00000100000093
:1000800005A3000000020000DD00000004A3000042
:10009000560F00000100000002A30000510F0000F5
:1000A0000200000001A30000550F00000100000045
:1000B000FDA20000FC01000004000000F7A2000007
:1000C000FA00000006000000F6A20000540F000035
:1000D00001000000F5A20000530F00000100000025
:1000E0005F600000FF0D000001000000F3A20000AF
:0800F0004F0F000002000000A8
:0800F800BAEC0CF0140EE12635
:10010000180E89EC0DF0A00E06EC0FF00A0EDB6A5B
:10011000E7EC0DF00D0EDB6A0F0E69EC0EF00E0E23
:10012000F3CFDBFFFE0EDB5004E123EC0DF06F0E8E
:1001300016D0FE0EDB0404E123EC0DF07E0E0FD092
:10014000FE0EDB50020804E123EC0DF08D0E07D00B
:10015000FE0EDB5003080AE123EC0DF09C0EB1EC1F
:100160000CF00B0E99EC0CF0040EDB6ADF6A0A0E41
:10017000DF5C0EE2D950010F01EC0CF0D9500C0FEE
:100180003CEC0EF0180EEE26000EED22DF2AEFD723
:10019000140EE15C02E2E16AE552E16EEEEF0EF070
:1001A000BAEC0CF0E652DF6A040EDF5C05E2DFCF4A
:1001B000E6FF31EC0EF0F8D79FEC0EF0DF6A040E8C
:1001C000DF5C03E2A6EC0FF0FAD7E552EEEF0EF09B
:1001D000BAEC0CF0610E2AEC0FF0580E88EC0FF020
:1001E0000B0EFBEC0EF03F0E9EEC0CF00DEC0FF046
:1001F0001B0EF36EDB6E1C0EDB6A1F0E90EC0DF017
:100200000E0E97EC0DF0870E5BEC0DF0230E69ECF3
:100210000EF0220EF3CFDBFF280EDB6AC20EF36E68
:10022000290EBFEC0CF02A0EF3CFDBFF2B0EDB6A9E
:100230001B0E62EC0DF01F0E9EEC0DF00E0EA5ECE9
:100240000DF0870EACEC0DF0360E69EC0EF0350EAD
:10025000F3CFDBFF400EF36E3B0EF3CFDBFF9A0EC6
:10026000F36E3C0EF3CFDBFF020EB3EC0DF0060E87
:10027000BAEC0DF02D0EC1EC0DF0330EC8EC0DF004
:10028000860ECFEC0DF0490E69EC0EF0480EF3CF60
:10029000DBFF4E0EDB6A9E0E29EC0CF01A0E3FECD3
:1002A0000DF04F0EC9EC0CF0490E46EC0DF04C0E63
:1002B0004DEC0DF05C0E69EC0EF05B0EF3CFDBFF46
:1002C0000101940E006FAE0E016F020E026F036B00
:1002D0000F0E066F076B2F0E046F056B0A0E096F6A
:1002E0000A6B510E0B6F0C6B0E6B010E0D6F800EB7
:1002F00054EC0DF02E0E196F1A6B2B0E176F186B36
:100300001B0E1C6F1D6B820E1E6F1F6B010E216F6B
:10031000206FDCEC0EF001E096D1010EE66EC1EC30
:100320004FF0E552F40E0FEC0CF001E08CD156ECDE
:100330000FF0FA0E0FEC0CF001E085D1E00EB1ECFD
:100340000CF05E0E8AEC0EF0FA0E0FEC0CF001E0F1
:100350007AD1C00EB1EC0CF0650E8AEC0EF042ECD6
:100360000FF001E070D168EC0CF042EC0FF001E00E
:100370006AD1DF6A050EDF5C0BE240EC0EF01DEC8B
:100380000DF0640E0FEC0CF001E05DD1DF2AF2D726
:10039000DE521E0EDD6EDF6A050EDF5C11E249ECF7
:1003A0000FF001E050D149EC0FF001E04CD175ECB9
:1003B0000FF001E048D10F0EA7EC0CF0DF2AECD7CC
:1003C000DE52140EDD6EDF6A050EDF5C1DE296EC78
:1003D0000FF05C0ED6EC0DF03B0F01EC0CF0C4EC12
:1003E0000CF001E030D102EC0EF0C4EC0CF001E0B6
:1003F0002AD102EC0EF038EC0EF001E024D10F0E01
:10040000A7EC0CF0DF2AE0D7DE52960EDD6EDF6A35
:10041000030EDF5C18E249EC0FF001E014D149EC67
:100420000FF001E010D175EC0FF001E00CD13C0EA3
:10043000146E010EDBCFE7FF1450E75E010EE7CF2D
:10044000DBFFDF2AE5D743EC0EF0DE520A0EDD6E4D
:10045000DF6A020EDF5C11E249EC0FF001E0F3D03D
:1004600049EC0FF001E0EFD075EC0FF001E0EBD0BC
:10047000280EA7EC0CF0DF2AECD7500ED7EC0CF0CE
:100480009E0E29EC0CF04B0EC9EC0CF0600EDCEC6F
:100490000CF0350E046F056B43EC0EF049EC0FF0D9
:1004A00001E0D1D049EC0FF001E0CDD075EC0FF0B8
:1004B00001E0C9D0280EA7EC0CF0400ED7EC0CF0F0
:1004C000AE0E29EC0CF0530EC9EC0CF0600EDCEC17
:1004D0000CF043EC0EF049EC0FF001E0B4D049EC25
:1004E0000FF001E0B0D075EC0FF001E0ACD002EC01
:1004F0000EF0800ED7EC0CF0BE0E29EC0CF0610E65
:10050000DCEC0CF0360E046F056B43EC0EF0B4EC33
:100510000FF001E098D0A4EC0EF0200E3FEC0DF0AF
:10052000540EC9EC0CF0480E46EC0DF04B0E4DECA1
:100530000DF0600EDCEC0CF072EC0FF0320E0FECF4
:100540000CF001E080D0ECEC0CF0150E066F076BA0
:100550003E0E046F056B040E096F0A6B500E0B6F95
:100560000C6B72EC0FF0DF6A0A0EDF5C10E269ECD4
:100570000FF02EEC0CF09AEC0FF065E181EC0FF02F
:100580002EEC0CF09AEC0FF05EE1DF2AEDD791EC47
:100590000CF0DF6A1E0EDF5C0CE269EC0FF0BDECC4
:1005A0000EF051E181EC0FF0BDEC0EF04CE1DF2AD2
:1005B000F1D7200E77EC0DF06D0EB6EC0CF0DF6A83
:1005C000050EDF5C11E240EC0EF091EC0CF0D9501E
:1005D000150F3CEC0EF0200E93EC0EF0320E0FECEB
:1005E0000CF031E1DF2AECD70DEC0FF0DF6A050EDD
:1005F000DF5C0CE240EC0EF091EC0CF01DEC0DF029
:10060000320E0FEC0CF01FE1DF2AF1D7FA0E0FECDF
:100610000CF019E19EEC0FF0180E01011C6F1D6B20
:10062000AB0E54EC0DF02E0EACEC0FF0B4EC0FF062
:100630000AE10101D90E54EC0DF03C0EACEC0FF0C8
:1006400042EC0FF002E0010E01D0000E146E610EBC
:10065000E15C02E2E16AE55296EF0CF0BAEC0CF0D4
:10066000610EF9EC0CF0800ECFEC0EF0AA0ED0EC7F
:100670000CF04D0EF2EC0CF0140ED9EC0DF0270E30
:10068000F36E33EC0FF069EC0EF0100EBFEC0CF0D3
:100690000F0EF3CFDBFFAD0E77EC0DF0860EF2EC14
:1006A0000EF00A0E12EC0FF0450EF36E1B0EF3CF98
:1006B000DBFF1C0EDB6A280E90EC0DF0480E97EC69
:1006C0000DF0470E5BEC0DF0010EF36E230EBFEC48
:1006D0000CF0220EF3CFDBFF0D0EF36E280EF3CFDE
:1006E000DBFF4F0EF36E290EF3CFDBFF0A0EF36E26
:1006F0002A0EF3CFDBFF2B0EDB6A590E62EC0DF0F6
:100700003B0E9EEC0DF0480EA5EC0DF03B0EACEC54
:100710000DF0010EF36E360EBFEC0CF0350EF3CF7C
:10072000DBFFC00EF36E3B0EF3CFDBFFE50EF36E87
:100730003C0EF3CFDBFF090EB3EC0DF09C0EBAECD0
:100740000DF0390EC1EC0DF0310EC8EC0DF0190EA4
:10075000CFEC0DF0010EF36E490EBFEC0CF0480E1D
:10076000F3CFDBFFF90ED7EC0CF0E50E38EC0FF011
:10077000090EF36E8DEC0EF09C0E3FEC0DF0260E84
:10078000C9EC0CF06A0E46EC0DF0190E4DEC0DF0B4
:10079000010EF36E5C0EBFEC0CF05B0EF3CFDBFFD3
:1007A0000101600E266FA00E276F090E286F296BBE
:1007B0006F0E2C6F2D6B280E2A6F2B6B0D0E2F6F6B
:1007C000306B030E316F326B010E346F336F950E49
:1007D000396FA00E3A6F090E3B6F3C6B6F0E3F6F87
:1007E000406B150E3D6F3E6B430E426F436B030E25
:1007F000446F456B010E476F466FEB0E4C6F9E0EBC
:100800004D6F090E4E6F4F6B110E526F536B506F41
:10081000516B780E556F566B020E576F586B010E69
:100820005A6F596F750E5F6FA50E606F0A0E616F7C
:10083000626B140E656F666B100E636F646B8F0EC8
:10084000686F696BBC0E6A6F6B6B010E6D6F6C6FBE
:100850008D0E726F470E736F0A0E746F756B0C0EF0
:10086000786F796B3B0E766F776B060E7B6F7C6BC8
:100870000F0E7D6F7E6B010E806F7F6FBF0E856FD9
:100880000E0E866F0A0E876F886B090E8B6F8C6B4E
:10089000410E896F8A6B060E8E6F8F6B1D0E906FE7
:1008A000916B010E936F926F5F0E986F140E996F9C
:1008B0000A0E9A6F9B6B090E9E6F9F6B410E9C6F89
:1008C0009D6B060EA16FA26B2C0EA36FA46B010E85
:1008D000A66FA56FAB69190EAC6F0A0EAD6FAE6B4C
:1008E000090EB16FB26B1A0EAF6FB06B060EB46F1C
:1008F000B56B3A0EB66FB76B010EB96FB86FC00E1D
:10090000BE6F9A0EBF6F090EC06FC16BC46FC56B0F
:100910003C0EC26FC36B060EC76FC86B490EC96F22
:10092000CA6B010ECC6FCB6FFC0ED16F9A0ED26FDB
:10093000090ED36FD46BD76FD86B3C0ED56FD66BC7
:10094000420EDA6FDB6B490EDC6FDD6B010EDF6F81
:10095000DE6FDCEC0EF001E0ADD056EC0FF0B4EC45
:100960000FF001E0A7D0A2EC0FF0DF6A0A0EDF5C07
:1009700010E268EC0CF0D950020F2DEC0EF001E003
:1009800099D0D950150F2DEC0EF001E093D0DF2A4D
:10099000EDD79EEC0FF0DF6A0A0EDF5C10E2BAECD6
:1009A0000FF0D950150F2DEC0EF001E083D0D95087
:1009B000280F2DEC0EF001E07DD0DF2AEDD702EC00
:1009C0000EF0BDEC0FF0DF6A0A0EDF5C16E2BAEC47
:1009D0000FF0A2EC0FF0D950280F2DEC0EF06AE1C9
:1009E00002EC0EF09AEC0FF065E1030EDF5C03E120
:1009F000CD0ECFEC0EF0DF2AE7D78DEC0CF05AE1EC
:100A000076EC0CF0DF6A0A0EDF5C1FE2BAEC0FF046
:100A1000A2EC0FF09EEC0FF002EC0EF09AEC0FF04F
:100A200049E176EC0CF0190E0FEC0CF043E1070EE7
:100A3000DF5C09E1400EB1EC0CF0470E99EC0CF0D4
:100A40000A0E6DEC0CF0DF2ADED7010E87EC0CF0FD
:100A500031E1720EE66E010EB1EC0FF02BE18DEC80
:100A60000CF028E1850EE66E010EB1EC0FF022E1EC
:100A70008DEC0CF01FE18DEC0CF01CE1980EE66E95
:100A8000010E06EC0EF042EC0FF014E1AB0EE66E38
:100A9000010EB1EC0FF00EE1BE0EE66E010E06EC9B
:100AA0000EF0D10EE66E010E06EC0EF0030E87EC92
:100AB0000CF002E0010E01D0000E146E610EE15C3C
:100AC00002E2E16AE55296EF0CF0BAEC0CF01F0E70
:100AD0002AEC0FF0130EE66EBEEC4CF0E552030E5E
:100AE00045EC0FF021EC0CF0050EF3CFDBFF060E0A
:100AF00021EC0CF0070EF3CFDBFF080E21EC0CF01D
:100B0000090EF3CFDBFF0A0E21EC0CF00B0EF3CF36
:100B1000DBFF0C0E21EC0CF033EC0FF021EC0CF0B1
:100B20000F0EF3CFDBFF100E21EC0CF0110EF3CF04
:100B3000DBFF120E21EC0CF0130EF3CFDBFF140ED3
:100B400021EC0CF0150EF3CFDBFF160E21EC0CF0B0
:100B5000170EF3CFDBFF180E21EC0CF0190EF3CFBC
:100B6000DBFF1A0E21EC0CF01B0EF3CFDBFF1C0E8B
:100B700021EC0CF01D0EF3CFDBFF1E0EF4CFDBFFDC
:100B800046EC0EF0DBCFEAFF8A0EEE6E300EECEC98
:100B90000DF046EC0EF043EC0CF0BA0EEE6EED6A82
:100BA00046EC0EF029EC0DF02C0EEE6EED6A46ECE4
:100BB0000EF0AFEC0EF046EC0EF08CEC0FF046ECC5
:100BC0000EF0E4EC0CF046EC0EF018EC0CF07AECC5
:100BD0000EF0DBCFEAFFCA0EEE6EA40EECEC0DF0C9
:100BE000DBCFE9FF060E29EC0DF0BA0EEE6EED6AD2
:100BF0007AEC0EF047EC0CF02C0EEE6EED6A7AEC0F
:100C00000EF0AFEC0EF07AEC0EF08CEC0FF07AEC0C
:100C10000EF0E4EC0CF07AEC0EF018EC0CF04BEC6F
:100C20000EF0DBCFEAFF800E69EC0DF04BEC0EF01E
:100C300043EC0CF0BA0EEE6EED6A4BEC0EF047ECA6
:100C40000CF02C0EEE6EED6A4BEC0EF0AFEC0EF0ED
:100C50004BEC0EF08CEC0FF04BEC0EF0E4EC0CF0E7
:100C60004BEC0EF018EC0CF050EC0EF0DBCFEAFF82
:100C7000C00EEE6E1B0E18EC0DF050EC0EF07FEC7B
:100C80000EF050EC0EF082EC0EF050EC0EF00BEC8F
:100C90000CF0410EEE6EED6A50EC0EF02AEC0EF008
:100CA000500EEE6EED6A50EC0EF03FEC0CF050EC96
:100CB0000EF018EC0CF085EC0EF0DBCFEAFFFC0E2A
:100CC000EE6E1B0E18EC0DF0DBCFE9FF0C0E7FEC87
:100CD0000EF085EC0EF082EC0EF085EC0EF00BECD5
:100CE0000CF0410EEE6EED6A85EC0EF02AEC0EF083
:100CF0008C0EEE6EED6A85EC0EF03FEC0CF085ECA0
:100D00000EF018EC0CF055EC0EF0DBCFEAFFE00E25
:100D1000EE6E370E18EC0DF055EC0EF07FEC0EF089
:100D200055EC0EF082EC0EF055EC0EF0AFEC0EF040
:100D300055EC0EF02AEC0EF0780EEE6EED6A55ECE6
:100D40000EF029EC0DF0010EEF6E55EC0EF018ECE4
:100D50000CF05AEC0EF0DBCFEAFF1C0EEE6E380EF4
:100D600018EC0DF05AEC0EF07FEC0EF05AEC0EF091
:100D700082EC0EF05AEC0EF0AFEC0EF05AEC0EF0E6
:100D80002AEC0EF0B40EEE6EED6A5AEC0EF03FEC6B
:100D90000CF05AEC0EF018EC0CF05FEC0EF0DBCF20
:100DA000EAFFEE6A540E18EC0DF05FEC0EF07FECEB
:100DB0000EF05FEC0EF082EC0EF05FEC0EF0E0EC6B
:100DC0000EF05FEC0EF02AEC0EF0780EEE6EED6A8F
:100DD0005FEC0EF03FEC0CF05FEC0EF018EC0CF05A
:100DE00064EC0EF0DBCFEAFF3C0EEE6E540E18EC16
:100DF0000DF064EC0EF07FEC0EF064EC0EF082EC83
:100E00000EF064EC0EF0E0EC0EF064EC0EF02AEC68
:100E10000EF0B40EEE6EED6A64EC0EF03FEC0CF0EA
:100E200064EC0EF018EC0CF05AEC0FF0DBCFEAFF9C
:100E3000800EEE6E2F0EECEC0DF05AEC0FF0B2ECD3
:100E40000EF05AEC0FF047EC0CF0690EEE6EE5EC8C
:100E50000EF00BEC0CF0280EEE6EE5EC0EF0B7EC9D
:100E60000FF0E5EC0EF0E4EC0CF05AEC0FF018EC9F
:100E70000CF05FEC0FF0DBCFEAFF210E69EC0DF018
:100E80005FEC0FF0B2EC0EF05FEC0FF047EC0CF003
:100E9000310EEE6EE8EC0EF00BEC0CF0320EEE6E56
:100EA000E8EC0EF0B7EC0FF0E8EC0EF03FEC0CF0D5
:100EB0005FEC0FF018EC0CF04CEC0FF0DBCFEAFF1E
:100EC000520E69EC0DF04CEC0FF0B2EC0EF04CEC65
:100ED0000FF047EC0CF02E0EEE6EED6A4CEC0FF0BE
:100EE000E0EC0EF04CEC0FF0B7EC0FF0ED6A4CECD0
:100EF0000FF03FEC0CF04CEC0FF018EC0CF051EC58
:100F00000FF0DBCFEAFFE10EEE6E170EEE6E070E6E
:100F1000EE6EEE6A51EC0FF0B2EC0EF051EC0FF009
:100F200047EC0CF0310EEE6EED6A51EC0FF00BEC6D
:100F30000CF081EC0DF051EC0FF0B7EC0FF0ED6A16
:100F400051EC0FF03FEC0CF051EC0FF018EC0CF002
:100F500064EC0FF0DBCFEAFF120EEE6E180EEE6EB1
:100F6000070EEE6EEE6A64EC0FF0B2EC0EF064EC7D
:100F70000FF047EC0CF02E0EEE6EEBEC0EF00BECDF
:100F80000CF05E0EEE6EEBEC0EF0B7EC0FF0EBEC4F
:100F90000EF03FEC0CF064EC0FF018EC0CF068EC89
:100FA0000CF0C1EC0EF001E0A8D0090EDBCFE6FF9B
:100FB0000A0E11EC0CF00B0EDBCFE6FF0C0E11EC61
:100FC0000CF0DF6A190EDF5C0EE2A9EC0EF000EC0B
:100FD0000FF001E092D019EC0FF000EC0FF001E0FF
:100FE0008CD0DF2AEFD7DF6A190EDF5C13E2A9ECA1
:100FF0000EF0FEEC0DF0190F0FEC0CF001E07DD0BF
:1010000019EC0FF0FEEC0DF0190F0FEC0CF075E180
:10101000DF2AEAD77D0E0FEC0CF06FE1A9EC0EF0A1
:10102000B4EC0FF06AE1C1EC0EF067E168EC0CF093
:101030008DEC0CF062E1DF6A460EDF5C10E21AEC28
:101040000EF00D0EDBCFE6FF0E0EEBDB0F0EDBCF4F
:10105000E6FF100E0CEC0EF050E1DF2AEDD78DEC20
:101060000CF04BE15AEC0FF0D6DBEECF14F0EFCFE3
:1010700015F0153421E214500008000E15541CE23E
:101080005AEC0FF0B5EC0EF051EC0FF0B5EC0EF0A1
:1010900064EC0FF0B5EC0EF05FEC0FF0B5EC0EF079
:1010A0004CEC0FF0B5EC0EF068EC0CF01AEC0EF016
:1010B000140EB5DBD7E021D0DF6A460EDF5C1AE202
:1010C0001AEC0EF01B0EDBCFE6FF1C0EAADB1D0E8A
:1010D000DBCFE6FF1E0EA5DB110EDBCFE6FF120E07
:1010E000A0DB130EDBCFE6FF140E0CEC0EF005E1D7
:1010F000DF2AE3D7DCEC0EF003E0010EB1EC0CF0DC
:10110000030EDBCFE6FF040EB3DB050EDBCFE6FFFD
:10111000060EAEDB070EDBCFE6FF080EA9DB090EDD
:10112000DBCFE6FF0A0EA4DB0B0EDBCFE6FF0C0ED7
:101130009FDB0D0EDBCFE6FF0E0E9ADB0F0EDBCF33
:10114000E6FF100E95DB110EDBCFE6FF120E90DBF3
:10115000130EDBCFE6FF140E8BDB150EDBCFE6FFA5
:10116000160E86DB170EDBCFE6FF180E81DB190E9D
:10117000DBCFE6FF1A0E7CDB1B0EDBCFE6FF1C0E7F
:1011800077DB1D0EDBCFE6FF1E0E72DB020EDB509F
:10119000146E1F0EE15C02E2E16AE552C7D3EADB9E
:1011A000620E2AEC0FF0100EC4DB050E3DEC0FF0C2
:1011B000090E03EC0DF0070EDB6A080EDB6A500E19
:1011C000F36E0C0EF3CFDBFF0CEC0DF0140EF2EC13
:1011D0000EF0AD0EF36E170EFEEC0CF0180EF3CF02
:1011E000DBFF190EDB6A120EE0EC0DF0F36E1A0E47
:1011F000F3CFDBFF1B0EDB6A420EF36E1F0EF3CF45
:10120000DBFF200EDB6A960EF36E210EF3CFDBFFC1
:10121000220E69EC0EF0240EB2DB230EF3CFDBFFBF
:10122000E00EF36E290EF3CFDBFFB70EF36E2A0E3E
:10123000E5DB2B0EF3CFDBFF2C0EF7EC0EF02F0EC1
:10124000F3CFDBFF300EF7EC0EF02D0EF3CFDBFF0C
:101250002E0EDB6A320EDB6A330EDB6AC80EF36ECB
:10126000340EF3CFDBFF350E69EC0EF0370E87DB63
:10127000360EC4DB3C0EF3CFDBFFB80EF36E3D0E33
:10128000BDDB3E0EF3CFDBFF3F0EF7EC0EF0420E60
:10129000F3CFDBFF430EF7EC0EF0400EF3CFDBFF96
:1012A000410EF7EC0EF0450EF3CFDBFF460EDB6A86
:1012B000C80EF36E470EF3CFDBFF480E69EC0EF05D
:1012C0004A0E5DDB490EF3CFDBFF300E38EC0FF03A
:1012D000B80EF36E500E92DB510EF3CFDBFF520EC1
:1012E000F7EC0EF0550EF3CFDBFF560EF7EC0EF0D9
:1012F000530EF3CFDBFF540EDB6A500EF36E580E25
:10130000F3CFDBFF590EDB6AC80EF36E5A0EF3CF34
:10131000DBFF5B0E69EC0EF05D0E31DB5C0EF3CF94
:10132000DBFF0101580EE46FB80EE56F080EE66FA3
:10133000E76B280EEA6FEB6BE86FE96B780EED6FE9
:10134000EE6BC80EEF6FF06B010EF26FF16FC0DA4B
:10135000010EE66E3BEC23F0E552BADA85DBDF6A7C
:10136000510EDF5C49E2B4DAD950030F4ADAD950A2
:10137000290F47DAD5EC0EF0E40EE66E010E06EC0E
:101380000EF072DBD950070F3CEC0EF0020EEE2689
:10139000000EED22D950030F5FDBEE5AEE5AEE5AE3
:1013A0000C0EDB060D0E01E2DB06D950340F54DBC8
:1013B000ED5AD950470F50DBED5AD9505A0F4CDB3C
:1013C000ED5A0101EF07F05B2F0EDB2A300E01E32F
:1013D000DB2A420EDB2A430E01E3DB2A550EDB2A11
:1013E000560E01E3DB2AEA2B000EEB23140EDF245A
:1013F00016DA31E1DF2AB4D77FDB42EC0FF02BE1C4
:10140000470EDB2A480E01E3DB2A5A0EDB2A5B0E6D
:1014100001E3DB2ADF6A050EDF5C1BE2D5EC0EF090
:10142000D950160FEED9100EDF02F350146E156A64
:10143000FF0ED8801456000E15561450F0D90BE14B
:10144000D950160F3CEC0EF01D0E93EC0EF0DF2A77
:10145000E2D763DA02E0010E01D0000E146E620ED4
:10146000E15C02E2E16AE55261D284DA3D0EC1DA62
:10147000200E77DAE70E88EC0FF0C00EF36E060E42
:10148000F3CFDBFF320EF36E070EF3CFDBFF030E5D
:1014900087DA600EF36E0A0EF3CFDBFF7E0EF36E7B
:1014A0000B0EF3CFDBFF030EF36E0C0EF3CFDBFF5F
:1014B0000D0EDB6A0E0EDB6ACA0EF36E0F0EF3CF53
:1014C000DBFF030EF36E100EF3CFDBFF110EDB6AB2
:1014D000A00EF36E120EF3CFDBFF0B0EF36E130EA6
:1014E00045EC0FF0F36E140EF3CFDBFF150EDB6A45
:1014F000400EF2EC0EF04D0EF36E170E45EC0FF0B1
:10150000F36E180EF3CFDBFF190EDB6A400EF36E9D
:101510001A0EF3CFDBFF980EF36E1B0E45EC0FF0A7
:101520004FDBE00EF36E1E0EF3CFDBFFE30EF36E28
:101530001F0E45EC0FF0BFDA790EF36E220E51DB71
:10154000230E4FDB240EF3CFDBFF690EF36E250E67
:10155000F3CFDBFF690EF36E260EF3CFDBFF780EC1
:10156000F36E270EF3CFDBFF780EF36E280E39DB18
:10157000290EF3CFDBFF74DAB0DB220EDB5078EC00
:101580000FF0A00E9FDA330EDB6A340EDB6A310EE9
:10159000F36E350EF3CFDBFF360EDB6A380E99DBC8
:1015A000370EF3CFDBFF94D9DF6A050EDF5C11E263
:1015B000010EDB6A080E94DA0AE21FEC0FF03C0E13
:1015C000146E1CDB145C8DD9010EDB2AF3D7DF2AE5
:1015D000ECD7DF6A050EDF5C11E2010EDB6A080E54
:1015E0007FDA0AE21FEC0FF0280E19D902E0010E93
:1015F00007D0010EDB2AF3D7DF2AECD769D9000E1A
:10160000146E3D0EE15C02E2E16AE5528FD1B2D97F
:10161000150EEFD9BDDB5A0EEEDB500E8FD958D91F
:10162000DF6A050EDF5C1AE2010EDB6A0A0E58DA89
:1016300012E256EC0FF014DA400EEE26380EEE22CF
:10164000000EEE22EE22500EEAD802E0010E08D083
:10165000010EDB2AEBD79CDBDF2AE3D739D9000E5A
:10166000146E150EE15C02E2E16AE5525FD182D9A7
:10167000150EBFD941DAC00E74D9670E5AD9370E8C
:101680002CD9A00E8DD94F0EADD9280E92DA280E86
:1016900055D91ED9C80E25D9DF6A150EDF5C22E2A6
:1016A00056EC0FF0DF5001E14ADBDF50120802E296
:1016B000640E01D03C0E15D9D3D9500E77DA020F43
:1016C000A0D8DF50120802E2640E01D03C0E09D906
:1016D000C7D9B00EEE26630EEE22000EEE22EE22E9
:1016E000DF2ADBD7D0EC00F0150EE15C02E2E16A04
:1016F000E552E16E73D33ED9160EE126FDD9E00E18
:1017000018D9430EBADB2C0E7ED9A00E02DA0C0ECD
:10171000DB6A82D9E66A47EC23F0E552DF6A040E01
:10172000DF5C04E2DFCFE6FF9CDAF9D708DBDF6A93
:10173000040EDF5C03E2A6EC0FF0FAD7DF6A130EAB
:10174000DF5C10E2D950030F5CD8D950030F94DA54
:10175000EE52960EEE26000EEE22EE22640EC1D858
:10176000DF2AEDD7DF6ADF50146E156AD890155066
:1017700004E6FF0E145C000E15581EE242EC36F033
:10178000DE52F3CFDEFFF4CFDDFFDD52010EDBCF03
:10179000E9FF020E5ED9EF500BE0DFCFE6FFE66A0D
:1017A00085EC50F0E552E552C80E9BD8000E05D0EE
:1017B000640E97D8DF2AD7D7010E146E160EE15C9F
:1017C00002E2E16AE552B2D097D9020EE66EC2ECAF
:1017D00046F0E552D4EC4FF0E8EC00F0000910E1DF
:1017E0002EEC03F000090CE165EC05F0000908E1BE
:1017F000D6DC000905E139DE000902E108DF000955
:101800001200E66E000EDA2006EF0EF08FDB2E0ED1
:1018100090DA38EF0EF0DBCFEAFF090EAAD2E66EBF
:1018200080D3DBCFE6FF3BEC4FF0E552E5521200F0
:10183000DBCFEAFF0D0E08D379DB5C0E74DA38EFEC
:101840000EF0F4CFDBFF130EE66EBEEC4CF0E5526B
:1018500012000EDB020EF36E8DEF0EF0000EE66E40
:10186000010E06EF0EF0DBCFEAFFA00E99EF0EF0AF
:10187000DBCFE6FFFCEC4CF0E552E5521200DBCF8B
:10188000EAFF0E0EE1D2DBCFEAFF060E72D2DBCF0B
:10189000EAFF040E6ED2D950020F146EDACF15F0A3
:1018A000010EDB50040D1450F324E96EDA50F420DD
:1018B000EA6E13DAD950220F146E010EDB500F01BD
:1018C0001424E96E000EDA20EA6EEF5078EF0FF084
:1018D000E66A7CEC00F0E5521200CFDA050EDB6A16
:1018E0001200E66EB6EC46F0E5521200260EE66EE9
:1018F000010E8CD9390EE66E010E88D94C0EE66EBB
:10190000010E84D95F0EE66E010E06EF0EF0E66E54
:10191000F8EC46F0E55200091200E66802D3020E28
:1019200028D2130EE66E010E06EF0EF0E16E145093
:1019300055D2F36E030EF3CFDBFF1200F36E93DA92
:10194000DB6A100EC6D90F0EF3CFDBFF1200146E48
:10195000010EDBCFE7FF1450E726010EE7CFDBFFD8
:101960001200F36E020EF3CFDBFF12003BDA020E21
:1019700012EF0FF0D9CFE6FFE1CFD9FF1200F3CF7E
:10198000DBFF010EF36E1200D1DA2E0ECCD938EF48
:101990000EF0F36E520EF3CFDBFF530EDB6A120034
:1019A000F36E080EF3CFDBFF090EDB6A1200F36E55
:1019B0004E0EF3CFDBFF120001010027090E0123B9
:1019C000000E022303231200DBCFEAFF0E0EE926EE
:1019D000000EEA22EF6A12000101E00E006F130E02
:1019E0002EEF0FF0F36E060EF3CFDBFF070EDB6A70
:1019F0001200E126DF6A010EDB6A1200F3CFDBFF83
:101A0000080EF36E120002DAF00EF36E090EF3CF39
:101A1000DBFF0A0EDB6A12000D0EDB6A0E0EDB6ABC
:101A20000F0EDB6A110E55D9100EF3CFDBFF12003B
:101A3000EE6E0B0EEE6EEE6A1200D950150F1CD929
:101A4000200E99EF0EF0800EF36E010EF3CFDBFF48
:101A50001200DBCFEAFF8DD10FD9EE06000E120087
:101A6000D950020F3CEF0EF0D950020FE66E000E77
:101A7000DA20E66E4AEC23F0E552E5521200F36EEE
:101A8000540EF3CFDBFF550EDB6A1200F36E570ED8
:101A9000F3CFDBFF580EDB6A1200F36E590EF3CF63
:101AA000DBFF5A0EDB6A1200136F7D0E146F020EFD
:101AB000156F166B1200F36E200EF3CFDBFF210EB5
:101AC000DB6A1200F36E2E0EF3CFDBFF2F0EDB6A04
:101AD0001200EE6E420EEE6E060EEE6EEE6A120012
:101AE000F36E010EDBCFF4FFF350F45C1200F36EE3
:101AF000150EF3CFDBFF1200E66A3BEC23F0E55254
:101B000012002D0EEE6EED6A12003C0EEE6EED6AC6
:101B10001200F36E070EF3CFDBFF080EDB6A120034
:101B2000F36E190EF3CFDBFF1A0EDB6A1200F36EB1
:101B30001E0EF3CFDBFF1F0EDB6A1200F36E2C0EBE
:101B4000F3CFDBFF2D0EDB6A1200F36E310EF3CF05
:101B5000DBFF320EDB6A1200F36E330EF3CFDBFFD6
:101B6000340EDB6A1200F36E3D0EF3CFDBFF3E0E48
:101B7000DB6A1200F36E410EF3CFDBFF420EDB6A2D
:101B80001200F36E3F0EF3CFDBFF400EDB6A120054
:101B9000F36E440EF3CFDBFF450EDB6A1200F36EEB
:101BA000460EF3CFDBFF470EDB6A1200C2D8D950D6
:101BB0001200F36E0B0EF3CFDBFF0C0EDB6A12008C
:101BC000F36E1C0EF3CFDBFF1D0EDB6A12000B0E53
:101BD000DB6A0C0EDB6A1200EE6E050EEE6EEE6A2C
:101BE0001200F3CFDBFF790EF36E12000A0EEE6ED9
:101BF000ED6A1200960EEE6EED6A1200040EDF0220
:101C0000F3501200D9503B0F01EF0CF0E66E3BECA5
:101C10004FF0E552E552120004DE4CD924DE4FD9D4
:101C200022DE3AD920DE3DD91EDE4ED91CDE820EE0
:101C30000FEF0CF0150EDBCFE6FF160EF2DD170EE0
:101C4000DBCFE6FF180EEDDD190EDBCFE6FF1A0E37
:101C500011EF0CF0E0DD8FEF0CF0D3DD190E0FEF7C
:101C60000CF07CEC00F0E552320E3BDEDF2A120075
:101C7000010EDBCFE6FF55D1E96EDACFEAFF1200A5
:101C80005DD9A2EF0FF079D92EEF0CF0030EDBCF68
:101C9000E9FF040E1200070EDBCFE9FF080E120069
:101CA000090EDBCFE9FF0A0E12000D0EDBCFE9FFB4
:101CB0000E0E12000F0EDBCFE9FF100E1200110EF8
:101CC000DBCFE9FF120E1200130EDBCFE9FF140E7B
:101CD0001200DB6A010EF36E12002A0EEECFDBFF5C
:101CE0002B0EEECFDBFF2C0EEECFDBFF2D0EEECF5B
:101CF000DBFF1200050EDBCFE9FF060E1200C3DD8D
:101D000081EF0DF0C4DD85EF0DF00B0EDBCFE9FFA9
:101D10000C0E1200FDD8BAEF0FF0500EF3CFDBFF20
:101D2000510EDB6A1200EE5E000EEE5AEE5AEE5ACB
:101D30001200EE26000EEE22EE22EE221200FA0E25
:101D4000D0DDFA0E71EF0CF0C00E31DECE0E29EFB1
:101D50000CF0050EDBCFE6FF060E11EF0CF05BDD9D
:101D6000F6EF0DF090DDFAEF0DF055DDEE06ED5AD1
:101D70001200E926000EEA221200B4D8050E0FEF79
:101D80000CF0030EDBCFE6FF040E4BDDB4EF0FF0DB
:101D9000400EE7DD110ECDDD0E0E6DEF0CF0E1DD36
:101DA000B10EC7DD0A0E6DEF0CF0D9503C0F29DDE6
:101DB000D9504F0F01EF0CF08BDD010E87EF0CF0C7
:101DC0002ADD630EEE6EED6A1200ED6A5AEF0FF037
:101DD000ED6A5FEF0FF0ED6A64EF0FF0E552E7CFC9
:101DE000D9FF1200F36E160EF3CFDBFF1200DB6A91
:101DF000280EF36E1200D4DDA00EF4DDE7EF0DF037
:101E00007D0E146EFBDE145C0FEF0CF0F36E050E0E
:101E1000F3CFDBFF060EDB6A1200A00E68DE6C0E4D
:101E2000B6EF0CF0F36E170EF3CFDBFF180EDB6A84
:101E30001200070EDBCFE6FF080E11EF0CF0D950B1
:101E40002A0FDFDC4BEF0CF0E926000EEA22010E30
:101E5000EF6E1200CEDD020EDB6A1200016F070E7C
:101E6000026F036B12000D0EF3CFDBFF0E0E12009C
:101E7000F36E4F0EF3CFDBFF1200F36E040EF3CFC1
:101E8000DBFF1200020E87EF0CF0F3CFDBFF040E36
:101E90001200B8DE06EF0CF0190EDBCFE9FF1A0EC8
:101EA00012001B0EDBCFE9FF1C0E1200D950020FEF
:101EB00001EF0CF0150EDBCFE9FF160E1200170E26
:101EC000DBCFE9FF180E12001D0EDBCFE9FF1E0E5F
:101ED000120082DDE00E6BDD210EF36E4F0E8EDD03
:101EE0008DEF0EF0BBDCBDEF0FF08CDE1CEF0CF0C5
:101EF000E66ED950300FC0DEE552E750EE6EED6A67
:101F000012000101C00E006F060EA8DFA4EF0EF054
:101F100010DD020E6DEF0CF09DDE280EEE6EED6A08
:101F20001200D5EC46F0E55200091200D9503B0FE3
:101F30003CEF0EF0D9504E0F2DEF0EF0D950280F78
:101F400001EF0CF0D950150F01EF0CF0030ED88003
:101F5000DF54E66E31EF0EF0176F186BE2DC02EF24
:101F60000EF054DE8DEF0CF0C80E0FEF0CF072DEA9
:101F7000EE6A1200ADDC56EF0FF0D9504E0F01EFB4
:021F80000CF063
:0E1F8200020100510AE10001020E846F620E9E
:101F9000826F5D0E836F0201010E006F800E146E62
:101FA000000EA6EF16F0020101510AE10001030E36
:101FB000896F740E876F5D0E886F0201010E016FCD
:101FC000850E146E000EA6EF16F0020102510AE112
:101FD0000001010E8E6F8F0E8C6F5D0E8D6F0201F2
:101FE000010E026F8A0E146E000EA6EF16F00201AB
:101FF00003510AE10001030E936F980E916F5D0E7D
:10200000926F0201010E036F8F0E146E000EA6EF89
:1020100016F0020104510AE10001030E986FB30E9D
:10202000966F5D0E976F0201010E046F940E146E91
:10203000000EA6EF16F0020105510AE10001020EA2
:102040009D6FCE0E9B6F5D0E9C6F0201010E056FA2
:10205000990E146E000EA6EF16F0020106510AE169
:102060000001010EA26FE00EA06F5D0EA16F0201D4
:10207000010E066F9E0E146E000EA6EF16F0020102
:1020800007510AE10001020EA76FE90EA56F5D0E70
:10209000A66F0201010E076FA30E146E000EA6EFCD
:1020A00016F0020108510AE10001100EAC6FFB0EA0
:1020B000AA6F5D0EAB6F0201010E086FA80E146EC1
:1020C000000EA6EF16F0020109510AE100012D0EE3
:1020D000B16F8B0EAF6F5E0EB06F0201010E096F14
:1020E000AD0E146E000EA6EF16F002010A510AE1C1
:1020F0000001040EB66F200EB46F600EB56F0201C2
:10210000010E0A6FB20E146E000EA6EF16F0020159
:102110000B510AE10001030EBB6F440EB96F600E54
:10212000BA6F0201010E0B6FB70E146E000EA6EF10
:1021300016F05CEC16F0030E20EC17F018EC17F01C
:10214000F70EF3CFDBFFF80EF4CFDBFF23EC17F035
:1021500018EC17F0F50EF3CFDBFFF60EF4CFDBFF34
:10216000DF6AF40EDB50DF5C36E27EEC18F082ECC6
:1021700018F0DE52E7EC18F0DD52D3EC18F02AEC40
:1021800017F07AEC27F0146E060EE15E14507FEC27
:1021900016F0F350EE261550ED227FEC16F0020EED
:1021A000BDEC18F0F350EE261550ED22E66A23EC54
:1021B00017F006EC17F0F350E66E2AEC17F021EC5E
:1021C0003EF0DDEC17F076EC16F025EC16F0A2EC04
:1021D00016F0DF2AC6D7030EE15C02E2E16AE5529F
:1021E00053EF16F05AEC19F0E2EC16F0B6EC16F0DC
:1021F000CBEC18F07E0EE66E9D0EA0EC17F063DFC0
:10220000ADEC17F002E2E16AE55253EF16F05AEC3A
:1022100019F0060EE2EC16F0020EB6EC16F00A0EFD
:10222000CBEC18F0A80EE66E9D0EA0EC17F05DDF6B
:10223000ADEC17F002E2E16AE55253EF16F05CEC08
:1022400016F0060EE126050EE66E010E82EC18F081
:10225000040EF3CFDBFF050EF4CFDBFFC1EC18F06B
:1022600031EC17F038EC19F0040E12EC18F0E66AB5
:102270001E0E01EC18F0E66EE66AE66EE66A54ECB5
:1022800019F0020E30EC16F0D6DEE2EC17F03AEC64
:1022900044F01C6E090E06EC18F0C1EC18F0020EAA
:1022A000A0EC18F038EC19F031EC17F03AEC16F01D
:1022B000A2EC16F0020EA0EC18F03AEC16F038EC96
:1022C00017F0060EE15C02E2E16AE55253EF16F008
:1022D000DBEC18F0640EE66EE66A06EC17F0BAEC7A
:1022E00017F0D890F45004E60A0E145C000E15584E
:1022F00007E225EC16F02BEC18F074DFAAEC16F0D0
:10230000020EE15C02E2E16AE55253EF16F0DBEC0B
:1023100018F025EC16F02BEC18F079DFAAEC16F08B
:10232000020EE15C02E2E16AE55253EF16F00EECB8
:1023300018F0060EE66E020E5AEC17F0030EE66E6B
:102340004EEC17F00F0E52EC17F02BEC18F0F1DEFC
:1023500049EC17F00AEC18F0020EE15C02E2E16AC7
:10236000E55253EF16F05CEC16F0B2EC16F08CEF81
:1023700017F05CEC16F0050EF4EC18F08CEF17F08B
:102380005CEC16F0080E56EC18F006C0DEFF07C035
:10239000DEFF08C0DEFF09C0DDFFDD52DD52C4EC08
:1023A00016F0EAEC16F0020EDBCF14F0030EDBCFD2
:1023B00015F0060EDBCF16F0070EDBCF17F0155029
:1023C0001718E8AE02D0173404D01650145C17501A
:1023D000155826E2D5EC17F0040EE66ED950040F1E
:1023E0001EEC18F0D9CFE9FFDACFEAFF61EC16F066
:1023F000ABEC29F01C6E090EE15E1C50AFEC16F040
:102400002CDEF3CF1DF0F4CF1EF063EC18F01F6E3E
:102410000D0EE15E1F50BAEC17F029EC18F002D057
:1024200011EC17F0080EE15C02E2E16AE55253EFAD
:1024300016F05CEC16F00A0E56EC18F0020E06C010
:10244000DBFF030E07C0DBFF040E08C0DBFF050E39
:1024500009C0DBFFC4EC16F0060E06C0DBFF070E5A
:1024600007C0DBFF080E08C0DBFF090E09C0DBFF59
:10247000040E4DEC16F0040EE66ED950060F1EEC5D
:1024800018F0D950020F1EEC18F0ABEC29F0166EC4
:10249000090EE15E1650BAEC17F049EC18F0E66A46
:1024A000040E01EC18F0040EDBCF18F0050EDBCFA4
:1024B00019F0080EDB50185C166E090EDB50195827
:1024C000176E16C0E6FFE66E18EC17F076EC16F005
:1024D000020EDBCF1EF0030EDBCF1FF0060EDB502B
:1024E0001E5C1C6E070EDB501F581D6E1CC0E6FFE5
:1024F000E66E18EC17F0E552E7CF15F0E552E7CF9E
:1025000014F0F3CF1AF0F4CF1BF0F4501518E8AE26
:1025100002D0153404D014501A5C15501B580AE22E
:10252000D5EC17F0020EF3EC17F0AFEC16F0A7DDC8
:10253000D1DB02D011EC17F00A0EE15C02E2E16A95
:10254000E552B1D3B9DBD5EC17F0E66E050EE66EB9
:102550005CEC46F0E552E552AFEC16F0A2DDBADBDA
:10256000B9EF18F00EEC18F0040E97DB010EE66ED2
:10257000040EE66E6BEC32F096EC18F0FCEC18F002
:102580005AEC48F098EC18F0E66A720EE66E230EEC
:1025900000EC19F0030EE66E020EF3EC17F0DFDB31
:1025A000B6DD98DB020EE15C02E2E16AE5527BD324
:1025B0009CEC18F0FA0EE66EE66A30EC18F0E4ECEB
:1025C00044F0E552E55296EC18F0E66A010E01EC93
:1025D00018F02C0E18EC18F0320EE66E240EF8EC03
:1025E00018F005DD75EC19F002E2E16AE5525BD303
:1025F00083EC17F0F7EC16F0ACEC18F002E2E16AAD
:10260000E55251D383EC17F00E0EE66E230EE66E04
:10261000ACEC18F002E2E16AE55245D378EC19F02F
:102620006BEC32F08AEC18F002E2E16AE5523BD33F
:1026300078EC19F05CEC46F08AEC18F002E2E16A02
:10264000E55231D366EC18F0010EE66E030EE66E2D
:1026500046EC19F02E0EE66E230EE66E640EE66E64
:10266000250E56EC17F0050EE66E020EF9DAADDC1B
:1026700075EC19F002E2E16AE55215D35AEC19F053
:10268000060E12EC18F0900EF4EC18F0CBEC4AF0B9
:1026900098EC18F038EC40F005EC19F0040EE8DA8C
:1026A0003E0EE66E220EE66E800EE66E230EF8EC0F
:1026B00018F0AFDCBCDAA6EC18F0130EBDEC18F085
:1026C000010EEF6E020E60EC17F002E2E16AE552D5
:1026D000EAD2F2DA080EB4DBF60EDB5003E0A00E0D
:1026E000146E01D0146A156A14C0E6FF15C0E6FF27
:1026F000D8EC4FF0DDEC17F06DDB060ECEDA70ECA7
:1027000019F0F40E18EC18F065EC19F0E66ED950DB
:10271000040F1EEC18F06BEC19F087DBABDAB1DAC2
:10272000ABEC29F01A6E090EE15E1A50BAEC17F004
:1027300049EC18F0020EA0EC18F087DAB8EC1FF0A4
:10274000DDEC17F0080EE15C02E2E16AE552ABD283
:1027500066EC18F031DB6BEC32F096EC17F047DBEF
:10276000A00EE66E930EA2DB010EE66E020E78DA84
:102770001ADCE0EC18F0020EA6EC18F00E0EBDEC20
:1027800018F09A0EEE6E930EED6E9EDB99DB02E270
:10279000E16AE55288D20EEC18F0F80EDB5003E047
:1027A000DE68DD6803D0010EDE6EDD6AC6DADADAD5
:1027B00061DA4BDA8EDF146E090EE15E1450BDDA79
:1027C0001BDBDECF16F0DDCF17F0190ED8DBB5DA44
:1027D000E8DADECF16F0DDCF17F0320ED0DB020ED6
:1027E000E15C02E2E16AE5525ED20EEC18F0FA0E0C
:1027F000DB5004E0010EDE6EDD6A02D0DE68DD68CB
:10280000020EE15C02E2E16AE5524DD20EEC18F0F4
:10281000FA0EDB5004E0010EDE6EDD6A02D0DE68E7
:10282000DD68020EE15C02E2E16AE5523CD2D0DBF7
:102830001FDBB9EF18F0CCDBC1EC1FF0BEDBB9EF4A
:1028400018F03ADAFB0EDBCF08F0FC0EDBCF09F014
:10285000E10E081802E1080E091801E1BCD1D00E02
:10286000081802E1070E091801E1A6D19E0E08180A
:1028700002E1070E091801E18FD1850E081802E167
:10288000070E091801E180D16C0E081802E1070E4D
:10289000091801E176D1530E081802E1070E091854
:1028A00001E167D13A0E081802E1070E091801E1AB
:1028B00057D1080E081802E1070E091801E14CD1A2
:1028C000D60E081802E1060E091801E13AD1A40E4D
:1028D000081802E1060E091801E11DD16B0E081857
:1028E00002E1060E091801E10BD1400E081802E1C1
:1028F000060E091801E1FAD0CB0E081802E1050E08
:10290000091801E1EFD0960E081802E1050E09182A
:1029100001E1DCD0140E081802E1050E091801E1EE
:10292000C2D0B00E081802E1040E091801E1ADD0C2
:102930007E0E081802E1040E091801E1A3D0FC0E76
:10294000081802E1030E091801E18CD0F90E0818ED
:1029500002E1030E091801E182D0B60E081802E167
:10296000030E091801E178D0840E081802E1030E65
:1029700009185AE0200E081802E1030E091850E069
:10298000BC0E081802E1020E091844E08A0E08186D
:1029900002E1020E09183AE0580E081802E1020E90
:1029A000091828E0260E081802E1020E09181FE097
:1029B000F40E081802E1010E091813E0900E081831
:1029C00002E1010E09180AE0FA0E081801E00ED122
:1029D000095001E00BD17DDB640E02D1AADA2D0E85
:1029E000D9D03CEC19F06E0EC1DB870ED3D025DABE
:1029F0000A0EF4D0030EE66ED4D93C0E53DA4EDB49
:102A0000B1D94B0E0BEC19F05A0EC4D0020E51D9AD
:102A1000500EDCD0E66A780EE66EE66A8C0EAFD019
:102A2000010EE66EB40EA8D0010EE66EF00EE66E54
:102A3000E66AE2D90AD9AFDE1ADB010EE66EE66E6F
:102A400091D9FB0EE66EE66800D9DAD9F6D9280EE0
:102A5000E66EE66A6E0E13D06CDA230E9BD0CCDBEA
:102A6000160E42D0E66A780EE66EE66A8C0E40ECF0
:102A700019F0FDDAE66A010EE66E10DA820E12DA5D
:102A8000DADEB0D0F9DBA8DB0AD0020EE66EB4D9EC
:102A90002EDBC4DD08DB500EF6DBE9DA020EE66E53
:102AA000ABD9820E87D015DB780EFCD9A9D9010EDF
:102AB000E66EF00EE66EE66A000EE2DB7BEC19F0E5
:102AC000A00E8ADBE66EEAD98C0E74D095DB280E58
:102AD000A6DBE15E14500EDB500EA7DB690E46DB71
:102AE000820E58D089DB760E9ADB7ED0030EE1D8B9
:102AF000FEDAC2DADED8190E6FDBDBD8280E5AD028
:102B0000F9DACCD9A2D874DDCEDA460ECBD970DD95
:102B1000CCD81E0E12D04B0EE66EE66A42D9E7DA2A
:102B2000B1D94B0EE66EE66A1DD9820EBBD9AAD981
:102B30007FDB5EDDFFD8E66E280EE66EE66A5A0E93
:102B400015D0DCDAB6D8AED95BD9020EB2D8500EA9
:102B5000A9D9C3DA640E0AD06BDBC4DA780E06D0CA
:102B6000020EA7D85A0E9ED9BDDA410E9BD940DD80
:102B70002FD0010EE66E4B0EE66EE66A140E80DB79
:102B800027D0D7D9280E06D0030EE66EEBD8500E0C
:102B900042DB640E97DB1CD0030E8BD83C0E82D92F
:102BA0009CDA8C0E19DBE66EDDD8780E6CDB7DD8F6
:102BB00023D9640E68DB0CD09DDA3C0E36DB4B0E5D
:102BC000D5DA5A0E7FDB71D869D9490E6BD91ADD77
:102BD000146E070E09D092DAE66E000EE66EE66A13
:102BE00061D925DE146E080EE15E1450C2D264D89D
:102BF000DCD81BD91DEC4EF0E552E552D6D8060EB6
:102C0000EB6A070EEB6AB5D20201DC5106E1EE0E6B
:102C10000C6F2B0E0D6F010EDC6F7DEC34F0F3CFDB
:102C20000EF2F4CF0FF20C0E146E020E8FD0C8DA33
:102C300064EF17F0E552E55206C014F007C015F036
:102C400008C016F009C017F01BD2FD0EDBCFE6FF5F
:102C5000FE0EDBCFE6FF1200E552E55205EF19F05C
:102C6000C2D9F3CF18F0F4CF19F090DAE66A120067
:102C700084DA15D3FB0EDBCFE6FFFC0EDBCFE6FFDD
:102C80001200D8EC4FF099D906C016F007C017F023
:102C900008C018F009C019F0F3D1E66EBEEC4CF094
:102CA000E552E7EF18F0E16E64D2E1D9020EE66E6C
:102CB0001200E66EFCEF18F0D9CFE6FFE1CFD9FFA6
:102CC0001200EECFE6FFEECFE6FFEECFE6FFEFCF4E
:102CD000E6FF1200F3CF1CF0F4CF1DF0F4D91E6E06
:102CE0000D0EE15E1E5046D929EF18F043D9C6EF0C
:102CF00018F0B8EC1FF061D9040EE15C1200B0D9F5
:102D0000F70EDBCF16F0F80EDBCF17F0166C171EA0
:102D1000000E172216C0E6FF17C0E6FF36EC4DF096
:102D20004CD928D9010EDBCFE9FF020EDBCFEAFF39
:102D3000BDEF18F09CD9030E1200F80EDBCFE6FFB2
:102D40001DEF19F0B5EC1FF0DDEF17F014C0F3FF25
:102D5000F46E1200186E060EE15E1850120032D9A1
:102D6000E66A12000A0EE66EE66A1200E66E5CEC97
:102D700046F0E552E552FED8020EE8D9F3CFEEFF59
:102D800015C0EDFFE66A1200FB0EDBCFE9FFFC0E7B
:102D9000DBCFEAFF110E91D9FBEC26F0E552E552AC
:102DA00012001E0EE66EE66A1200FD0EDBCFE9FF92
:102DB000FE0EDBCFEAFF1200010EE66EF80EDBCF4F
:102DC000E6FF1200E66EBEEC4CF0E5523DDA010E75
:102DD000E66E1200040E06C0DBFF050E07C0DBFF27
:102DE000060E08C0DBFF070E09C0DBFF1200D00E85
:102DF000E66E220EE66E1200140EE66EE66A120011
:102E000016DD146E080EE15E14501200F5D936EC92
:102E10004DF0DDEF17F0C7EC1FF0CFD8040EE15CEA
:102E2000120019DAEE6AED6A1200020E5DEF18F078
:102E300089EC4DF0E552E5521200020EF4EF18F065
:102E4000E12630EF18F0F50EDBCFE6FFF60EDBCF14
:102E5000E6FF1200010EDBCFE6FF020EDBCFE6FF3E
:102E60001200040EDBCFE6FF050EDBCFE6FF1200FB
:102E7000C4EC1FF0DDEF17F02CDC186E090EE15EDC
:102E800018501200D8EC12F0146E080EE15E1450C7
:102E90001200186E0B0EE15E18501200320EE66E34
:102EA000E66A1200E66EE66A25EF16F002DFE2DE61
:102EB00054EF19F027D98BD964D991D938EF19F08B
:102EC0003FD9C3DE79EF16F0020E3AD9E3EC26F0D3
:102ED000E552E552F3CF16F0F4CF17F0166C171E3B
:102EE000000E1722F90EDB50165C146EFA0EDB5042
:102EF0001758156EF0D9020E40D914C0EEFF15C058
:102F0000EDFF020E1200F4D9C1D9E66A030EE66E97
:102F100072EC4CF05EEF19F048DF020E2ED9D1DED4
:102F2000FEEC40F09FD989D90DDF23D1FFD870EF97
:102F300019F0A2D961DF89DE18EC13F07BEF19F0EC
:102F4000E66E31D9020EE66EFBD858EC38F0E55249
:102F5000E552E552CBDEE66A1200F3CF16F0F4CF6D
:102F600017F014D981EC47F094DF31D938D96DDEF0
:102F70000BEF17F0F3CF14F0F4CF15F01200170297
:102F8000F3CF17F01602F3CF16F0F4501726FB0E0E
:102F9000DB50F324146EFC0EDB501720156E14C0AA
:102FA000E6FFE66E52DE3CEF17F0E66A660EE66E6E
:102FB000230E26D9010EE66E1200E552E552E552C7
:102FC000E5521200F3CF1AF0F4CF1BF0C6EF18F061
:102FD00073DEF70EDBCFE6FFB0DE4CDE36EC3AF008
:102FE00041D925EF16F0E66EFAD858EC38F0E552E4
:102FF000E552E5521200010E81D9D3EC0FF017EF24
:1030000016F0E66E72EC4CF098EF18F0E15E1C5092
:1030100024EF19F0E4D82EDEA2EF16F04DDE020EFA
:10302000E12612003ADE09DF5CEC46F096EF18F07C
:10303000DBD8CBEC4AF042D9F7EF16F0E96EDACFE5
:10304000EAFF61EF16F0020EE76E80D8E75038EF26
:1030500016F001D924D1FBEC26F0ECDD3AEF16F0A6
:10306000F70EDBCFE6FFF80EDBCFE6FF1200146EA3
:10307000070EE15E145012000EEC13F09AEF16F0FA
:1030800006C0E6FF07C0E6FF08C0E6FF09C0E6FF8E
:103090001200DECFE9FFDDCFEAFF01D118EC13F01B
:1030A00049DEE66E120001DEB2EF16F0E126CDDD5C
:1030B00015EC27F0E552E55212005FD8EECFE6FF9F
:1030C000EFCFE6FF120062D863EF45F0F3D84DEF83
:1030D00016F0030E89D8B2EF16F0F8EC12F0E5DD29
:1030E000FCEF16F0F8EC12F025DE59EF16F03ADEA0
:1030F00025EF16F0020EE66ED1EF16F0040EE66E26
:10310000010E1200D6DDE66EE66ACED8FEEC40F087
:10311000AAEF16F00BDF200EE66E030EE66E70ECE3
:103120003FF0CCD864DED1D860EF17F095DDB7D092
:1031300093DD020E38EF16F0BDD8060E4DEF16F0F7
:10314000DBCFE6FF030EDBCFE6FF1200DBCFE9FFAC
:10315000030EDBCFEAFF1200320EE66E240EA6DE6F
:10316000020ECCD8C1EC0FF075EF19F0ABD87BEFA5
:1031700019F0E552E7CFD9FF1200E926000EEA2246
:10318000120063DDFBEC26F01AEF16F0F3CFE6FF3A
:10319000F4CFE6FF1200E66E72EC4CF0E552E55219
:1031A000E9DE23EF18F0D950F90FE96EFF0EDA20AF
:1031B000EA6E61EF16F032DFA1DF7CDE0AEF18F075
:1031C00001DF5AEC3CF01C6E0E0E06EF18F0F3CF48
:1031D000DEFFF4CFDDFF120065DE3CEF18F0DECF3E
:1031E000E6FFDDCFE6FF1200E66E010EE66E12008E
:1031F0005DDE040E7EEF19F0000EE66EE66A120048
:1032000058DDE66EE66A41EF16F0B4DEDECFE9FF88
:10321000DDCFEAFF120046DE41DFD1EF16F042DEDD
:103220003EEC13F0146E060E12004CD853EF18F05B
:10323000020E3FDD280E52EF17F0F90EDBCFE6FF4E
:10324000FA0EDBCFE6FF1200020EF3CFDBFF030E18
:10325000F4CFDBFF1200F90EDBCFE9FFFA0EDBCF74
:10326000EAFF1200166E060EE15E165076EF16F0BB
:103270007AEC27F0AAEF16F0020EE66EB2EF16F027
:1032800011DECBEF13F00EDE0EEF13F05CEC46F028
:103290004DDF2C0EA9DFCBEC4AF098EF18F0F3CFFE
:1032A000EEFF15C0EDFF1200D8EC4FF0E552E552ED
:1032B0001AEF16F001DD040EE1261200CDDC040E3B
:1032C00038EF16F0EFDD18EF13F0440EE66E250E22
:1032D000EDDDFBEF17F0020E39DF020EBDEF18F047
:1032E000C9DC5AEC48F098EF18F0A1DC60EF17F059
:1032F00023DFDCEF16F0D9DCD1EF16F0E66E030E1B
:0433000030EF16F0A4
:0C3304000001FA510AE10201030EE16F22
:10331000060EDF6FA00EE06F0001010EFA6FDD0EEA
:10332000146E020EA9EF1DF00001FB510AE102012B
:10333000010EE66F210EE46FA00EE56F0001010E95
:10334000FB6FE20E146E020EA9EF1DF00001FC519E
:103350000AE10201010EEB6F2A0EE96FA00EEA6F7F
:103360000001010EFC6FE70E146E020EF2D3000195
:10337000FD510AE10201010EF06F330EEE6FA00E57
:10338000EF6F0001010EFD6FEC0E146E020EE1D323
:103390000001FE510AE10201010EF56F3C0EF36FD0
:1033A000A00EF46F0001010EFE6FF10E146E020EFE
:1033B000D0D30001FF510AE10201010EFA6F450E60
:1033C000F86FA00EF96F0001010EFF6FF60E146E7C
:1033D000020EBFD38AEC1EF0090E60DBBEDB1DECD3
:1033E0004EF0E552E55223EC1EF01DEC4EF0E55296
:1033F000E5528ED393DB020EE126070EE66E030E36
:10340000E66E0FEC1EF088DBFEEC40F0ECDBF3CF59
:10341000DEFFF4CFDDFF6EDBFBEC26F07DDBA2DB15
:103420007AEC27F05BEC1EF0BBDB020EE15C02E203
:10343000E16AE552E16E6CD3D9CFE6FFE1CFD9FF67
:10344000020EE126FD0EDBCFE9FFFE0EDBCFEAFF29
:10345000100EE926000EEA22EECF14F0EFCF15F0A1
:10346000D9CFE6FFDACFE6FFFB0EDBCFE6FFFC0E9F
:10347000DBCFE6FFFD0EDBCFE6FFFE0EDBCFE6FF88
:1034800004D015C0FAFF1450F96EFBDF166E060E5D
:10349000E15E1650D9CFE9FFDACFEAFFEE50ED102A
:1034A0000DE028DB0AEC27F037DB5CDB84EC27F04F
:1034B0005BEC1EF0BBEC1FF07FEC1EF0020EE15C3B
:1034C00002E2E16AE552E16E23D328DB0A0EE66EE2
:1034D000E66A97DBEECFE6FFEECFE6FF3EDBFEECE3
:1034E00040F0166E060EE15E1650E0DBA0EC1EF01A
:1034F000F90EDBCFE6FFFA0EDBCFE6FF51DB08D398
:1035000083DB010EE66EFDDA0FDFD9DA01D37CDB57
:10351000020EDBDB1BDFD3DAFBD276DB030ED5DB5F
:1035200026DFCDDAF5D270DB040ECFDB31DFC7DA70
:10353000EFD2F4DA020EE126040EE66EBEEC4CF099
:10354000E552F3CFDEFFF4CFDDFF010EE66EFA0E9B
:10355000E66E5CEC46F0B3DBF8DB53DBAAEC1EF066
:10356000B8DB030E0D6E0E6A16C008F017C009F026
:10357000A9EC4DF008C016F009C017F008C0E6FF2E
:1035800009C0E6FF7FEC2CF09ADB020E59DB010E3E
:10359000E66EDC0EE66E8B0E85DAE66A020EE66EED
:1035A000E1DA58EC38F0E55257DB03DF88DA020E37
:1035B000E15C02E2E16AE552E16EAAD2AFDA0A0EFC
:1035C000E12651EC36F0F7DA42EC36F0040EF3CF98
:1035D000DBFF050EF4CFDBFFE7DAEE52EF500FE032
:1035E00044DBEFCF14F0060E145C15E2B6DB3DDBD6
:1035F000EF2A1FDBE668E6687DDAE4DA0CD035DB1B
:10360000EF50000808E243DA1F0E48DAEF0603E144
:103610002CDBEF060EDBC8DAEF5024E038DA1D0EA3
:1036200076DB000825E225DBEF5022E1F4DA080E14
:10363000EECFDBFF090EEDCFDBFFEDDA320EEE6EE3
:10364000350EED6E8ADBE7DA080EDBCFEEFF090EF2
:10365000DBCFEDFF1CDA1D0E21DAEF060ADB320E9E
:10366000EF6E06D006DBEF50000802E202DBEF0649
:103670003ADA060E4CDB1BE0C4DAEE06ED5ABDDA90
:1036800076DA04E7FB0E145CFF0E155856E23CDBBD
:10369000D880155004E7F60E145CFF0E155804E2AE
:1036A000ACDAF60EEE6EED6825DA78D944D01BDA86
:1036B000070E2DDB1AE0A5DAEE2AED229EDA60DA9B
:1036C0003CE214500508000E155437E21DDB15349A
:1036D00009E214500A08000E155404E28EDA0A0EAC
:1036E000EE6EED6A07DA5ED926D087DA1CDA0001C1
:1036F000800E151404E081DAEE2AEF2208D004DBF4
:10370000153405E275DA03E278DAEE06EF5AFCDAF0
:10371000153404E31450FB08FF0E15540EE26DDA65
:10372000D8DAD890175004E6050E165C000E17582C
:1037300004E2E0D93BD9E552E552D5D9040EE7DAE7
:103740000DE0CCDA14DA04E7F30E145CFF0E155822
:1037500029E2C4DAF30EEE6EED6824D0C4D9050E6A
:10376000D6DA0DE0BBDA0CDA1DE214500D08000EBB
:10377000155418E2B3DA0D0EEE6EED6A13D03DDA91
:10378000D2D90001800E171404E0A8DAEE2AEF2245
:1037900009D0A4DAD5D9153405E22ADA03E29EDA93
:1037A000EE06EF5AB1DA040E9CDA0850EE261550F8
:1037B000ED2294DAC5D9030E94DACCDA0850EE265D
:1037C0001550ED221EDAAFD90001800E151404E069
:1037D00018DAEE6AED6A18D08DD9E0EC26F0E552E1
:1037E000E552060E9ADAD4D90FE21450A008000E62
:1037F00015540AE2060EDB50146E156AA00E94DA18
:1038000014C0EEFF15C0EDFFFCD98DD90001800E6C
:10381000171405E0F6D99EDAEE6AED6A1AD06AD975
:10382000E3EC26F0E552E552070E77DA93DAB0D9E9
:1038300010E21450F508000E15540BE2070EDB5091
:10384000146E156AF50E70DA85DA14C0EEFF15C035
:10385000EDFF6FD9F8D9F2EC43F051DA000E146E97
:103860000A0EE15C02E2E16AE552E16E145050D1C9
:1038700055D9040EE126220EE66EBEEC4CF0E55260
:103880009AD931D9D40EEE6E330EED6E2CD962DAA0
:10389000FB0EDBCFEEFFFC0EDBCFEEFFFD0EDBCF32
:1038A000EEFFFE0EDBCFEEFF1ED90C0EF7D8F40EA6
:1038B000EE6E330EED6E17D90E0EF0D8380EEE6E9A
:1038C000340EED6EBC0EE66E350EE66E2AEC44F05C
:1038D0003CD909D9090EB4D915DDE8D904D9060EA9
:1038E000AFD973D96EEC27F0E552E5526ED97EEC74
:1038F00033F02BD9F8D8160EA3D9F5D80B0ECED8A5
:10390000060EEF6E8CD9B9D9EED8180EC7D806C0FE
:10391000EEFF15C0EEFF16C0EEFF17C0EEFFE3D8B6
:103920001E0EBCD8EF6ADFD8200EB8D8080EEF6E96
:10393000DAD8200EECD9E66ED6D8FCD9D4D8210E30
:10394000ADD8320EEF6ECFD81D0EA8D8050EEF6E93
:10395000CAD8120EEB6A130EEB6AC5D8140EEB6AC6
:10396000150EEB6AC0D81C0E99D8EF6ABCD8100EA1
:1039700095D8000EEE6E350EED6E020EDBCF14F014
:10398000030EDBCF15F014C0F3FF15C0F4FF040ED7
:10399000E15C02E2E16AE552E16EBAD059D9020E69
:1039A000EF6EB6D055D9010EEF6EB2D051D9EF6A95
:1039B000AFD0B0D91C0EABD9030820E068D81C0EDC
:1039C0006DD8EF2AEF50030A12E0010A09E0030A5A
:1039D00015E121D90E0EEE6E350E5AD9070E0DD017
:1039E0001AD91A0EEE6E350E53D9060E06D013D91B
:1039F000260EEE6E350E4CD9040EEF6E89D08AD9A4
:103A0000120E4CD8EE2AEF22FB0EDBCFE9FFFC0EA4
:103A1000DBCFEAFF120E7BD90D0DF350E66EE66A9E
:103A200069D8D0D875D07AD8D7D8153402E2E0D882
:103A300019E32DD8140E32D883D8FB0EDBCF16F045
:103A4000FC0EDBCF17F0166C171E000E1722165057
:103A5000145C1750155806E21AD8140EEB6A150EAE
:103A6000EB6A08D0B9D813D8140E18D81450EE2623
:103A70001550ED224DD052D83DD877EC26F0E552C6
:103A8000E552E1D877EC26F0E552E55241D0FD0E43
:103A9000DBCFE9FFFE0EDBCFEAFF1200E926000EC6
:103AA000EA221200E66EBBD8E552E55206C016F0D7
:103AB00007C017F008C018F009C019F0EED0F3CF16
:103AC0001CF0F4CF1DF03CD963EC45F01E6E0D0EDA
:103AD000E15E1E50EBD8F90EDBCFE9FFFA0EDBCF2B
:103AE000EAFFA5EF1EF0020EDBCFE9FF030EDBCFEE
:103AF000EAFF1200FD0EDBCFE6FFFE0EDBCFE6FF96
:103B00001200E66EF90EE66E5CEC46F02CEF1EF04D
:103B1000E552E7CFD9FF1200B0D8BFD0D9CFE6FF2A
:103B2000E1CFD9FF1200EECF14F0EECF15F069EF20
:103B30001EF0FB0EDBCFE6FFFC0EDBCFE6FF120034
:103B4000EECF14F0EFCF15F01200E552E55256EF2C
:103B50001EF014C0F3FFF46E1200EECFE6FFEFCFBD
:103B6000E6FF1200DECFE6FFDDCFE6FF1200EE0635
:103B7000ED5AEECF14F0EDCF15F0D88015501200AD
:103B8000EE2AED22EECF14F0EDCF15F01534120031
:103B90001650EE24146E1750EE20156EE834120005
:103BA000B5EC1FF07FEF1EF0040EDBCFE9FF050E32
:103BB000DBCFEAFF1200020EF3CFDBFF030EF4CFE0
:103BC000DBFF120030DF7FEF1EF0020EDBCFE6FFDF
:103BD000030EDBCFE6FF1200FB0EDBCF14F0FC0E72
:103BE000DBCF15F01200186E060EE15E18501200C1
:103BF00014500008000E1554120049DF180E4EEF45
:103C00001DF045DFAAEF1EF089DFE66ACA0EE66EF8
:103C1000340E52EF1DF03BDF100E4EEF1DF0000E84
:103C2000E66EE66AE66EE66AD8EC4FF0E552E552DB
:103C300012002DDF200E6BD8E66E29DF9AEF1EF002
:103C40002DDFA5EF1EF023DF160E28DFADEF1DF0F0
:103C500061D8080E4EEF1DF0E552E552F3CF1AF091
:103C6000F4CF1BF06DD8E66A120011DF1E0E4EEF86
:103C70001DF00DDF210E4EEF1DF0E552E55206C09E
:103C800014F007C015F008C016F009C017F01200B4
:103C9000ED6EFDDE200E4EEF1DF006C0E6FF07C004
:103CA000E6FF08C0E6FF09C0E6FF1200F3CF14F0FC
:103CB000F4CF15F0120097DF55DF99EF1DF045DFC7
:103CC000DECFE9FFDDCFEAFF1200E66E010E81EFE5
:103CD0001DF0EECF16F0EFCF17F012008EDFAAEF37
:103CE0001EF00D6E0E6A14C008F015C009F0A9ECA4
:103CF0004DF008C014F009C015F001EF1EF0E552B8
:103D0000E552E552E552120078DFA0EF1DF0C6DE65
:103D1000EF50120003DF47EF1DF0F3CFDBFFDB5066
:103D2000166E176A01EF1EF0D8801456000E155655
:103D300001EF1EF01F0EB2DEE552E750EF6E1200EB
:103D4000F3CFE6FFF4CFE6FF1200F3CFEEFF15C08E
:103D5000EDFF1200020E4EEF1DF0EBDECBDEA1EC0C
:063D600049F07FEF1EF0A8
:0A3D660011DB020EE12651EC36F0ED
:103D700025DB7BDBEE52EF500CE077DBEF5009E008
:103D800074DB030E26DB05E00D01FF0705E1010EE4
:103D900004D00D01190EFF6F000E146E020EE15CCF
:103DA00002E2E16AE552E16E1450F4D2EEDA020E5C
:103DB000E12698DB94DB03E0D9EC22F0FBD796DB1D
:103DC0008EDB02E0F6DBFCD7A3DB89DB02E0F1DB74
:103DD000FCD7A2DB84DB02E0ECDBFCD7A1DB7FDBE2
:103DE00002E0E7DBFCD7A0DB7ADB02E0E2DBFCD71A
:103DF0009FDB75DB02E0DDDBFCD785DA030ED5DB6C
:103E0000050ED3DB070ED1DB090ECFDB0B0ECDDBAE
:103E10000D0ECBDB0F0EC9DB150EC7DB170EC5DB96
:103E2000190E78DAADDA1DDBABDA6DDA130E72DA61
:103E300043EC4EF0E552E552020EE15C02E2E16A2B
:103E4000E552E16EA7D2A1DA060EE1261D0EE66E5E
:103E5000BEEC4CF0E552D8DAF6DAAC0EEE6E3D0E62
:103E6000ED6EC9DB030E7DDA7CDA070E7ADA090E15
:103E700078DA0B0E76DA0D0E74DA0F0EADDA130E59
:103E800017DBFB0EDBCFEEFFFC0EDBCFEDFFDBDA4B
:103E9000110E0EDBFD0EDBCFEEFFFE0EDBCFEDFFD6
:103EA000A8EC27F006C0DEFF07C0DEFF08C0DEFF7B
:103EB00009C0DDFFDD52DD52AADB9ADA010E0F0BDD
:103EC00005E0D89015321432E806FBE197DA145079
:103ED000EE261550ED22D9CFE9FFDACFEAFFEECF7B
:103EE000E6FFEECFE6FF6DDB92DB84EC27F040DBF4
:103EF000E60EE66EE66A820E4CDBBDEC41F057DA68
:103F0000150E6CDBE60EE66EE66A010E42DB55EC42
:103F100043F04DDA170E62DB030EE66EE66A9B0E87
:103F200038DB58EC42F043DA190E56DA1B0E57DA3A
:103F30008ADA1C0E54DA87DA5BDB010EEF6E040EB0
:103F4000DBCF14F0050EDBCF15F014C0F3FF15C066
:103F5000F4FF060EE15C02E2E16AE552E16E1AD27C
:103F600014DAD1D9020E35DA15D274DA030E96D2EC
:103F700071DA050E93D26EDA070E90D26BDA090E63
:103F80008DD268DA0B0E8AD265DA0D0E87D262DA2C
:103F90000F0E84D24EDA030E86D24BDA050E83D290
:103FA00048DA070E80D245DA090E7DD242DA0B0ECE
:103FB0007AD23FDA0D0E77D23CDA0F0E74D2E5D901
:103FC000050EE126A0D9D9DAA5D9D9EC34F0E5520D
:103FD000E552AADAB8D902E0A9D9FCD7A9DAB3D94F
:103FE00002E0A4D9FCD794DAAED902E09FD9FCD77D
:103FF00093DAA9D902E09AD9FCD778DAA4D902E0F9
:1040000095D9FCD7EEDA05E12CDA3BEC1DF0E55250
:10401000E55268DA98D902E089D9FCD781DA93D9D8
:1040200002E084D9FCD76FD9170E6BDA150E69DA66
:10403000190E70D9A6EC42F0E552E552030E1ADAD9
:104040007BDA140E67D9E7D9110E14DA5CD995DA48
:1040500063D90B0E5FD9DFD91F0E0CDA2AEC4DF0B5
:10406000F3CF18F0F4CF19F0F3CFE6FFF4CFE6FF6B
:10407000AFEC2DF01A6E060EE15E1A50050EE15CF3
:1040800002E2E16AE552E16E85D17FD9040EE126B4
:104090006ADE000903E037D9020EA1D934D91B0E1C
:1040A00098D934E03CD948DA160E34D99DDA2BD9A8
:1040B0001C0EFED9EF2AEF5002082CE1D2D998D974
:1040C000D89014361536F00ED8801456000E1556BA
:1040D000020E14C0DBFF030E15C0DBFF2DDA88DAF9
:1040E00087DAEE06ED5AEECF14F0EDCF15F0020EA2
:1040F000DB50141807E1030EDB50151803E103D958
:104100001B0E6DD900D91C0E6AD904D06ADA02E1FF
:104110007BDA6ADA04D9F7D8170ECED9150ECCD9C6
:104120002CDACAD9130EF6D815EC4BF007D9DAD928
:104130001BD920D908E090D904E1AAD92BDFC1D935
:10414000F8D793D9F5D7D2D90FD914D908E084D9A3
:1041500004E19ED922DFB5D9F8D787D9F5D7D8D9C8
:1041600003D908D908E078D904E192D919DFA9D98F
:10417000F8D77BD9F5D7D0D9F7D8FCD808E06CD9D7
:1041800004E186D910DF9DD9F8D76FD9F5D7D0D9FA
:10419000EBD8F0D808E060D904E17AD90DDF91D9E5
:1041A000F8D763D9F5D7BCD9DFD8E4D808E054D91B
:1041B00004E16ED9FBDE85D9F8D757D9F5D7B4D944
:1041C000D3D8D8D808E048D904E162D9F2DE79D949
:1041D000F8D74BD9F5D705DA08E084D909DAEE50DB
:1041E000ED1003E190D8020EFAD8040EE15C02E271
:1041F000E16AE552E16ECED0C8D8070EE12676D945
:10420000F7D9020EEECFDBFF030EEDCFDBFFF6D8C2
:10421000EE50ED1033E0060EDB6A75D8070E7AD843
:10422000ADD870EC39F04DD9A5D81FE0AAD997D8F0
:10423000CAD80B0ECED8E66EA1D885EC49F0E5526F
:10424000E552E552000909E0010EF36E060EF3CFC8
:10425000DBFF97D959EC49F071D807D97DD90E0EFB
:10426000B8D803E115D99CDE69D8060EDB5004E00E
:10427000C7D92AD9D7D8CBD73DD9C2D7B2D93CE1F3
:1042800042D8090E9AD91DD975D809E0BDD967D889
:104290009AD80E0E9ED803E1FBD885DE4FD833D8CE
:1042A0000F0E8BD94BD8B0D8D950040FE96E6CD90A
:1042B0000FE0AAD9C8D885D9D7EC47F059D9040E50
:1042C000DBCFE6FF050EDBCFE6FF29D875DE36D85B
:1042D0001AD8050E72D932D8A5D890D8EE50ED1064
:1042E0000BE008D939D9130E74D806E189D926D83C
:1042F00048D959EC49F0E8D8070EE15C02E2E16ADE
:10430000E552E16E47D0FD0EDBCFE9FFFE0EDBCFBD
:10431000EAFF1200CDD814D1CBD8ACEF22F0FD0EBD
:10432000DBCFE6FFFE0EDBCFE6FF12001AD949D93C
:1043300077EC26F0E552E552B1EF22F0E552E55276
:10434000E552E552120054D9030EEECFDBFF040E06
:10435000EDCFDBFFD950030FE96EC4EF22F085D813
:10436000EFD03CD9FBEF22F043D9EECFDEFFEDCF0B
:10437000DDFF1200D9CFE9FFC4EF22F0BBD8E0D0B7
:104380001DEC4EF0E552E5521200D9CFE6FFE1CF29
:10439000D9FF1200E552E7CFD9FF120006C0E6FFB1
:1043A00007C0E6FF08C0E6FF09C0E6FF12001A6E6C
:1043B000060EE15E1A50C6D823EF22F0F3CFDEFFDF
:1043C000F4CFDDFF1200BCEC45F0D2D84ED8ACEFF4
:1043D00022F06ED8EF50120001D923EF22F068D8F6
:1043E000EF6A120099EC49F0E552E552000912001B
:1043F000E3EC26F0E552E552A2EF22F0D950020F8D
:10440000E96EDACFEAFF1200040EF3CFDBFF050EF0
:10441000F4CFDBFF1200AFEC2DF0186E060EE15E5C
:1044200018501200020EF3CFDBFF030EF4CFDBFFB8
:104430001200ABDFFB0EDBCFE9FFFC0EDBCFEAFFA8
:10444000C0D89EDFC3D0040EDBCFE9FF050EDBCF63
:10445000EAFF12009ADFBAD062DF81DFC5D8010817
:10446000120051DF110E8AEF21F0DECFE9FFDDCF20
:10447000EAFF1200E66EE66A020ECDD806C014F01E
:1044800007C015F008C016F009C017F0CEEF21F0F4
:10449000DECFE6FFDDCFE6FF8FEF21F03BDFBCECA8
:1044A00036F04CDF77D736DFDCEC36F047DF72D7FB
:1044B000E926000EEA2212002DDF96D830DF83EFC6
:1044C00021F03CDFDEEF21F039DF020EDBCFE6FF2B
:1044D000030EDBCFE6FF23DF60DD9EEF21F044DF3C
:1044E000BAEF21F010DF030E8CEF21F00CDF050E88
:1044F0008CEF21F0020EDBCFE9FF030EDBCFEAFFEA
:10450000120008DF77EC26F0E552E55283EF21F048
:10451000FADE070E8CEF21F0F6DE090E8CEF21F0AB
:10452000F2DE0B0E8CEF21F0EEDE0D0E8CEF21F0A3
:10453000EADE0F0E8CEF21F0E6DE110E8CEF21F09B
:10454000E1EF22F0F3CF14F0F4CF15F01200F3CF27
:10455000EEFF15C0EDFF1200EE50EFCFEAFFE96E5F
:104560001200030EDBCFE9FF040EDBCFEAFF1200DF
:10457000146E060EE15E14501200130ECDDE020E14
:104580001200CDDEBEEF21F0DACFEAFFEE50ED10E3
:10459000120041D806C016F007C017F008C018F086
:1045A00009C019F0FBDE07EF23F0B4DEE9DE83EF8C
:1045B00021F0D5DEE5DE35EF22F0ACDE52DF70EF24
:1045C00039F0EECFE6FFEFCFE6FF1200FB0EDBCFB8
:1045D000E6FFFC0EDBCFE6FF83EF21F069DFA7EFFC
:1045E00022F03FDFF2EF21F0F2EC43F09EEF21F0FA
:1045F000020E58EF22F0A6EC36F0A4DF23EF22F0F3
:10460000BDDE2FDFFFEF1CF08ADE31EF22F01BDF73
:10461000110E8AEF21F0E66EE66AD8EC4FF09EEFBD
:0246200021F087
:0E46220089DA020E23DB8BDAFEE12CDB88DA6C
:10463000FEE1826A6DDA17D37EDA050E18DB80DAC6
:10464000FEE1040E20DB7CDAFEE1030E826E60DA0E
:104650000AD371DA060E69D26EDA070E66D26BDA09
:10466000080E826EFE0EDB5003E0010E816E01D05B
:10467000816A2DDBF8D25FDA090E826EFE0EDB5006
:1046800003E0010E816E01D0816A21DBECD253DAA6
:104690000B0E4BD250DA0A0E826E91DAEF5005E023
:1046A0008EDAEF6A010E816E04D089DA010EEF6EA8
:1046B000816A806E806AD7D2020E806E806A83AE75
:1046C000FED7120038DA70DADBCF17F0E1504BDAA0
:1046D000030EEBCFF3FF1750F318E8AE02D0F3341C
:1046E00008D0EE50145CEE501558EE501658EE50AF
:1046F00017580BE2FB0EDBCF14F0FC0EDBCF15F0EE
:10470000FD0EDBCF16F0FE0E01D04EDADBCF17F038
:1047100063DAA9D210DAA2DA59DAD95024DA1ADA2D
:1047200089DAF00EE66E95DFE552A00EE66E94DFB4
:10473000E552E66A94DFE552BFDF95D2FCD9100E50
:10474000E126D95010DA040EEECFDBFF050EEECFD6
:10475000DBFF060EEECFDBFF070EEECFDBFFF90E21
:10476000DBCF08F0FA0EDBCF09F0080E08C0DBFF44
:10477000090E09C0DBFFF70EDBCF08F0F80EDBCF28
:1047800009F00A0E08C0DBFF0B0E09C0DBFFF90EB3
:10479000DBCF16F0FA0EDBCF17F0F50EDB50162448
:1047A000146EF60EDB501720156E0C0E14C0DBFFD6
:1047B0000D0E15C0DBFF44DA153410E21450A008CA
:1047C000000E15540BE23CDAA00E145E000E155AD2
:1047D00068DA01E3EFD011DA01E3ECD0F50EDBCFBC
:1047E00014F0F60EDBCF15F00001800E151411E069
:1047F0005DDA166A176A15AE02D016681768F5D921
:10480000145008DA53DA4DDA01E3D4D0F6D901E3D3
:10481000D1D0F70EDBCF16F0F80EDBCF17F0F30E8A
:10482000DB501624146EF40EDB501720156E0E0E9E
:1048300014C0DBFF0F0E15C0DBFF09DA153410E2E0
:104840001450F008000E15540BE201DAF00E145E5D
:10485000000E155A31DA01E3ADD0CFD901E3AAD069
:10486000F30EDBCF14F0F40EDBCF15F0800E151431
:1048700021E027DA166A176A15AE02D016681768A3
:10488000A00E0B6E0C6A0D6A0E6AA6D975EC4FF07D
:1048900002C014F003C015F004C016F005C017F0F4
:1048A000A4D90250B7D90DDA07DA01E383D0A5D92C
:1048B00001E380D0D3D9F30EDBCF1CF0F40EDBCFB5
:1048C0001DF01E6A1F6A1DAE02D01E681F681CC044
:1048D000E6FF1DC0E6FF1EC0E6FF1FC0E6FFF2DEDA
:1048E000206E080EE15E205006C018F007C019F0D7
:1048F00008C01AF009C01BF0A00E0B6E0C6A0D6AFE
:104900000E6A75EC4FF002C018F003C019F004C035
:104910001AF005C01BF002C0E6FF03C0E6FF04C0AA
:10492000E6FF05C0E6FF9AD9F50EDBCF21F0F60EC3
:10493000DBCF22F0236A246A22AE02D023682468E7
:1049400021C0E6FF22C0E6FF23C0E6FF24C0E6FF49
:10495000B9DE256E080EE15E2550E552E7CF1BF06B
:10496000E552E7CF1AF0E552E7CF19F0E552E7CF6D
:1049700018F018500624146E19500720156E1A509E
:104980000820166E1B500920176E02D983D92DD925
:10499000E1D850D90A0EDBCFE6FF5BDEE552080E08
:1049A000DBCFE6FF59DEE552F20EDBCFE6FF57DE46
:1049B000E55282DE100EE15C02E2E16AE5521BD1B3
:1049C000070EC16E926A936A946A9568806A816ADA
:1049D000826A836A1200AFD8040EE126030EDB6AF6
:1049E000DF6A020EDF5C43E2010EDB6A020EDB6A65
:1049F000010EDBCF14F0020EDBCF15F0D89015506E
:104A000004E6F00E145C000E155826E2E66A010E6C
:104A1000DBCFE6FF020EDBCFE6FF000EE66EE66AB6
:104A2000180EE66EE66AA00EE66EE66A800EE66E88
:104A30006F0EE66E0B0EE66EE66A80DE146E0D0EED
:104A4000E15E1450D950010FE96EDACFEAFF180E7B
:104A5000EE26000EED22CCD7D950030FE66E000EE5
:104A6000DA20E66E17DEE552E552DF2ABAD7040EE9
:104A7000E15C02E2E16AE552BED05DD80E0E55D08F
:104A80000C0E826E010E816E806E806A12000C0E1A
:104A9000826E816A67EF26F04ED8040EE126FB0E87
:104AA000DBCF18F0FC0EDBCF19F0A00E1902F3CF0C
:104AB00019F01802F3CF18F0F4501926FD0EDB5050
:104AC000F324146EFE0EDB501920156E166A176A59
:104AD00015AE02D0166817685BD8D2DFFA0EDBCFAE
:104AE000E6FFCBDFE552010EE66EB9DDE552D2D826
:104AF000020EE66EAEDDE552040EE66EADDDE55269
:104B0000DBDDC5DF040EE15C02E2E16AE55273D051
:104B1000FB0EDBCF14F0FC0EFD0EFE0E156A166ABE
:104B2000176A1450816E67EF26F0826EFE0EDB501E
:104B3000816ECDD898D0D9CFE6FFE1CFD9FF120052
:104B4000D890030EEB32020EEB32010EEB32EF3255
:104B5000E7061200EECFE6FFEECFE6FFEECFE6FF70
:104B6000EFCFE6FF1200FB0FE96EFF0EDA20EA6ED0
:104B70001200E96EDACFEAFF1450EE5E1550ED5ADE
:104B80001200DBCF15F0146C151E000E152212005A
:104B900014C0DFFF010E15C0DBFF020E16C0DBFFE5
:104BA000030E17C0DBFF1200F70EDBCF14F0F80E78
:104BB000DBCF15F0F90EDBCF16F0FA0E1200FD0E6A
:104BC000DBCFE9FFFE0EDBCFEAFF120035DDE55259
:104BD000E552E552E552120014C006F015C007F088
:104BE00016C008F017C009F01200D950040FE96E82
:104BF000DACFEAFF1200E16E36D014500008000E42
:104C000015541200080EDBCF14F0090EDBCF15F09F
:104C100015341200EE261550EE221650EE221750D3
:104C2000EE2212000A0EDBCF14F00B0EDBCF15F0D4
:104C300015341200F6DCE552E552E552E552120059
:104C40000C0EDBCF14F00D0EDBCF15F012000E0EA4
:104C5000DBCF14F00F0EDBCF15F01200E66AE66A28
:104C6000E66AE66A1200E552E7CFD9FF1200826ECB
:104C7000FB0EDBCF14F01450816E29D8E15073DFA6
:104C8000080EE76E1200826E43DFD9506CDF080E0B
:104C9000E76E1200D9CFE9FFDACFEAFF5BDFE6EF7C
:104CA00025F0D950080F65DF02EF26F0F50EDBCFB7
:104CB00014F0F60EC1EF25F0D9500A0F5ADF12EFAB
:104CC00026F0F30EDBCF14F0F40EC1EF25F0010E49
:064CD000806E806A1200F4
:0A4CD6006ED994D99CDAC2D98ED9A8
:104CE000EF50090DB8D914C0F3FFF46E68D162D942
:104CF000020EE12646D9EFDF8ED9DECFF6FFDDCFFB
:104D0000F7FF080EF626000EF7220800F550E66EB3
:104D100035D9EECFE6FFEECFE6FFEECFE6FFEFCFE1
:104D2000E6FFDECFE6FFDDCFE6FFF6EC3CF0146EEB
:104D3000070EE15E1450020EE15C02E2E16AE55208
:104D4000E16E3DD137D9020EE126090EE66EBEECCA
:104D50004CF0E552F3CFDEFFF4CFDDFF87D9340E00
:104D6000EE6E9C0EED6E82D9060EE926000EEA224A
:104D7000FD0EDBCFEEFFFE0EDBCFEDFF77D9080E89
:104D8000E926000EEA22FC0EDBCFEFFF6FD942DAF4
:104D9000F80EDBCFEEFFF90EDBCFEEFFFA0EDBCF26
:104DA000EEFFFB0EDBCFEEFFDECF14F0DDCF15F014
:104DB00062D9020EE15C02E2E16AE552E16EFFD0E7
:104DC000CDD9040EA9D1CAD9060EA6D10CDAEECFE0
:104DD00016F051D9F4D007DA44D916C0F3FF17C042
:104DE000F4FFEDD089D9B7D9EBDFAED185D912DA8E
:104DF000B2D9E9DFA9D1E5D902E014D9FEE167D93A
:104E000096D902E00FD9FEE1B0D902E2E16AE5529B
:104E1000E16ED5D0D6D902E005D9FEE158D9A8D99E
:104E200002E2E16AE552E16ECAD0CBD902E0FAD8DB
:104E3000FEE14DD9A0D902E2E16AE552E16EBFD0B0
:104E4000C4D975D902E0EED8FEE18FD902E2E16A59
:104E5000E552E16EB4D0BDD96AD902E0E3D8FEE1F3
:104E600084D902E2E16AE552E16EA9D0AED983D9D4
:104E700002E2E16AE552E16EA2D0ABD97CD902E24E
:104E8000E16AE552E16E9BD0A0D972D902E2E16AF3
:104E9000E552E16E94D09DD96BD902E2E16AE55208
:104EA000E16E8DD06BD9EF2AEFCF14F05BD9EF50C4
:104EB000145C06E366D812D8E552E552010E01D023
:104EC000000E7DD05BD9EF5006E15BD80AD8E552E1
:104ED000E552010E02D092D8EF0671D04FD9EF6A99
:104EE0006ED068D83FD9EF04E66E88D8E552E75017
:104EF000EF6E65D0FCD802E095D8FEE152D980D99A
:104F000002E090D8FEE145D1F2D802E08BD8FEE174
:104F100048D9E4D0ECD802E085D8FEE142D9B0D03F
:104F200072D96ED902E07ED8FEE133D1B5D868D906
:104F300002E078D8FEE12DD166D9A2D0ADD8A0D0BC
:104F400062D9CCD0A9D8CAD0780E1BD1000E19D105
:104F5000F00E17D1780EE66EE66A000E34D0780EA9
:104F600014D1F00EE66EE66A000E2DD0F00E0DD1D3
:104F7000000EE66EE66A27D0000E07D1DED8020EDC
:104F800045D1FD0EDBCFE6FFFE0EDBCFE6FF1200C4
:104F9000E552E552020EF3CFDBFF030EF4CFDBFF49
:104FA000AED0E552E552F3CF16F0F4CF17F0010E74
:104FB0000F0B1200D9CFE6FFE1CFD9FF1200E55267
:104FC000E7CFD9FF1200E66EE66AD8EC4FF0E55263
:104FD000E552E552E55212001DD90BD9020E14C05C
:104FE000DBFF030E15C0DBFF8AD0E552E552E55228
:104FF000E7CF17F0E552E7CF16F012009ED8080E63
:1050000005D19BD8060EE926000EEA22EE50EFCF1E
:10501000EAFFE96E1200E552E552F3CFDEFFF4CF6E
:10502000DDFF1200D89017321632E806120014C0C5
:10503000EEFF15C0EDFF1200F90EDBCFEEFFFA0E0A
:10504000DBCFEDFF120047DEE552E552F3CFF6FF6E
:10505000F4CFF7FF12001650F324146E1750F4200B
:105060001200EECF16F0EFCF17F01200DECFE9FFFF
:10507000DDCFEAFF120014C0F3FF15C0F4FF1200E9
:10508000FB0EDBCF16F0FC0EDBCF17F0A6D89BDEB5
:105090008FD8C0D8CCDF93D78DDFF90EDBCF16F0D9
:1050A000FA0EDBCF17F099D88BDE82D817EF28F0F5
:1050B000DBCF09F01650085C146E17500958156EB6
:1050C000BEEF27F077DF040EE126C1EF27F056DFB1
:1050D00090D814C0DEFFDD6EC1EF27F04FDF9AD805
:1050E000FB0EDBCFEEFFFC0EDBCFEDFF68D762DF00
:1050F00048DF66DED1EF27F05DDFBEEF27F0DECFC1
:1051000006F0DECF07F0DECF08F0DDCF09F0DD528C
:10511000DD52040EE15C1200F626000EF7220900B3
:10512000F5CF14F00800F5CF15F0A5DF48D74BDE1A
:10513000D1EF27F070DFC1EF27F0FD0EDBCFE9FFE5
:10514000FE0EDBCFEAFF120050DF85DF156E14C0C4
:10515000F3FFF46E34D785DFEDEF28F02BDF11DF9E
:1051600023EF28F04EDF040E51D008DFECEF27F0DC
:1051700032DEC8EF27F03ADEC8EF27F01BDFFEEF84
:1051800027F0E66EE66A500E1ED7E66EE66AA00EBF
:105190001AD7FB0EDBCF08F0FC0E8ADF3BD847DFC7
:1051A0000ED7F90EDBCF08F0FA0E82DF17EF28F0EA
:1051B0001CDFF350165C146EF4501758156EBEEFDA
:1051C00027F080DFFDDDD1EF27F07CDFFFDD9AEFF8
:1051D00028F078DF07DE9AEF28F016C0E6FF17C048
:1051E000E6FFC1EF27F088DFEECF14F0EECF15F029
:1051F00012001650EE24146E1750EE20156E120099
:10520000C0DE97EF28F078DF1CEF28F0E926000ECB
:0E521000EA221200020EE926000EEA22120027
:02521E0029D98C
:1052200004E2A1D902E2A8D904D0070EDB68080E77
:10523000DB68B2D9E8AE02D0143403D0E750D8808E
:10524000145433E2C3D952D9020EDBCFE6FF030E6A
:1052500076D9E8AE02D0153404D01450185C15503D
:10526000195804E202DAEE5E1550ED5A8DD90AE2C1
:105270007AD908E2D3D908E21450F008000E155488
:1052800003E211D0D0D90FE167D915340AE26BD906
:1052900008E2CED9CEE21450A008000E1554C9E29F
:1052A00002D0CBD9C6E0010E01D0000E146E090E5B
:1052B000E15C02E2E16AE55276D1DBD804E253D93F
:1052C00002E25AD904D0070EDB68080EDB6864D905
:1052D000E8AE02D0143403D0E750D880145433E23F
:1052E000C4D904D9040EDBCFE6FF050E28D9E8AEF9
:1052F00002D0153404D01450185C1550195804E22B
:1053000065D9EE5E1550ED5A3FD90AE22CD908E274
:1053100085D908E21450F008000E155403E211D0AC
:1053200082D90FE119D915340AE21DD908E280D9D2
:10533000CEE21450A008000E1554C9E202D07DD967
:10534000C6E0010E01D0000E146E090EE15C02E20F
:10535000E16AE55228D1D9CFE6FFE1CFD9FF020EAD
:10536000E1260F0EE66EBEEC4CF0E552F3CFDEFF09
:10537000F4CFDDFF22D9340EEE6E9C0EED6EF70EEB
:10538000DBCF18F0F80EDBCF19F0FB0EDB50185C0A
:10539000166EFC0EDB501958176E16C0E6FFE66E4F
:1053A00089EC4DF021D9F3CFE6FFF4CFE6FFF90EFB
:1053B000DBCF1EF0FA0EDBCF1FF0FD0EDB501E5CC4
:1053C0001C6EFE0EDB501F581D6E1CC0E6FFE66E05
:1053D00012D9F3CF1AF0F4CF1BF0F4501518E8AE41
:1053E00002D0153404D014501A5C15501B5805E235
:1053F000BFD81E0EEE6E520E04D0BAD8BA0EEE6EA4
:10540000520EED6EDAD8040EDDD8FB0EDBCFEEFFC8
:10541000FC0EDBCFEEFFFD0EDBCFEEFFFE0EC9D89C
:10542000080ED0D8F70EDBCFEEFFF80EDBCFEEFF85
:10543000F90EDBCFEEFFFA0EBCD80D0EEB6A0E0EA6
:10544000EB6ABBD80C0EBED8F60EDBCFEFFFDECF7B
:1054500014F0DDCF15F014C0F3FF15C0F4FF020EF9
:10546000E15C02E2E16AE552E16EE552E7CFD9FF85
:105470001200D9CFE6FFE1CFD9FF090EE126E9D826
:10548000090EA0D8EECFDEFFEDCFDDFF96D8080ED7
:10549000F3D8D8D8020E14C0DBFF030E15C0DBFF13
:1054A0008CD8080E8FD8020EE7D8020E8BD8CAD837
:1054B000040E14C0DBFF050E15C0DBFF7ED80C0EFA
:1054C00081D8060EEFCFDBFF020EDBCF14F0030E08
:1054D000DBCF15F015341200DBCFE6FF89EC4DF081
:1054E00083D86BD80D0E6ED8F3501200EE261550EF
:1054F000ED2263D80D0E66D8B3D8020E086E096A85
:1055000016C00DF017C00EF0CFEC4DF006C014F031
:1055100007C015F006C0E6FF07C0E6FF1200FD0E4B
:10552000DBCFE6FFFE0EDBCFE6FF120092D8020EC5
:10553000E2EF2AF059D80001800EF4141200DBCFFC
:10554000E6FF59D8F3CF18F0F4CF19F0F45015183E
:1055500012004AD8F4341200070EDBCF14F0080E04
:10556000DBCF15F0120014500008000E1554120085
:1055700024D8020EE2EF2AF0010EF36E070EF3CFED
:10558000DBFF080EDB6A1200040EDBCF14F0050E01
:10559000DBCF15F015341200060EDBCF14F0000E31
:1055A000E76E14181200E16E1450E552E7CFD9FFF0
:1055B0001200DBCFEEFFDDEF2AF0DECFE9FFDDCF1B
:1055C000EAFF1200E926000EEA221200060EDB06B0
:1055D000C3DFACDF1450EE261550ED22040EDBCFF6
:1055E000E6FF050E6CEF2AF0E552E552F3CF14F01A
:1055F000F4CF15F0120089EC4DF0E552E552E5527A
:10560000E7CF15F0E552E7CF14F01200EE2AEF22B3
:10561000020EDBCFE6FF030E6CEF2AF080DFEBEC2F
:1056200026F0A9EF2AF07BDFF6EC26F09AEF2AF0BD
:1056300076DFE6EC26F0A9EF2AF071DFF2EC26F037
:105640009AEF2AF0EE50165C146EEE501758156E55
:105650001200FD0EDBCFE9FFFE0EDBCFEAFF1200EA
:10566000EECF16F0EFCF17F01200060EDB065EDF6E
:10567000020EA8DF06EF2BF0A5DFF2DF9EDF040E9F
:04568000E2EF2AF03B
:0C5684000101FC510AE10F01020E046F4D
:10569000DC0E026F930E036F0101010EFC6F000E12
:1056A000146E0F0E6CD10101FD510AE10F01080EBD
:1056B000096FEE0E076F930E086F0101010EFD6F6B
:1056C000050E146E0F0E5BD10101FE510AE10F01B0
:1056D0000A0E0E6F360E0C6F940E0D6F0101010E47
:1056E000FE6F0A0E146E0F0E4AD10101FF510AE13E
:1056F0000F010C0E136F900E116F940E126F0101BB
:10570000010EFF6F0F0E146E0F0E39D1D9CFE6FFC9
:10571000E1CFD9FF010EE66EDC0EE66E8B0EE66E73
:10572000D950FB0FE96EFF0EDA20EA6EEECFE6FFEE
:10573000EECFE6FFEECFE6FFEFCFE6FF640EE66EBC
:10574000010EE66E050EE66E72EC4CF0E552E55287
:10575000F3CF14F0F4CF15F0F3CFE6FFF4CFE6FF6C
:10576000E66AFA0EF76ADB34FE0BF736F66EFC0ECD
:10577000F626940EF7220900F5CF18F00800F5CFB1
:1057800019F004D019C0FAFF1850F96EFBDFF3CFFF
:1057900016F0F4CF17F0F3CFE6FFF4CFE6FF63EC9B
:1057A00045F01A6E0D0EE15E1A50E552E7CFD9FFB3
:1057B0001200FBD8030EE66EF80EDBCFE6FF030EF9
:1057C000E66ED950F90FE96EFF0EDA20EA6E32D993
:1057D0009DDF186E050EE15E1850F3CF16F0F4CF82
:1057E00017F0F3CFE6FFF4CFE6FF21EC3EF0E552F1
:1057F000E552E552E552F3CF14F0F4CF15F0F3CFB4
:10580000E6FFF4CFE6FFC3D8B5EC1FF0E552E55252
:10581000E552E552CFD0C9D80A0EE126BFD8090E0D
:10582000B2D8080EEECFDBFF090EEDCFDBFFB6D806
:10583000020EA9D8020EA7D8EECF14F0EFCF15F0C4
:10584000080EDBCFE9FF090EDBCFEAFF040E9BD881
:10585000EECF16F0EFCF17F015501718E8AE02D0C4
:10586000173404D01650145C175015583EE28FD8E8
:10587000FBEC26F0E552E55206C0DEFF07C0DEFF76
:1058800008C0DEFF09C0DDFFDD52DD52D9CFE9FFE0
:10589000DACFEAFF140EEE5E000EED5AD950020F79
:1058A000E96EDACFEAFF280EEE5E000EED5AA1D8BF
:1058B000E66A55D8C8D8190E95D8C5D8190EAAD8F1
:1058C000B0D8410E8FD8ADD8410EA4D84CD8A2D8AC
:1058D00050D888D848D886D84CD8EE26000EED226D
:1058E000140EE66E70D8010E01D0000E146E0A0E72
:1058F000E15C02E2E16AE552E16E14505BD055D8FA
:10590000020EE126060EE66EBEEC4CF0E552F3CF39
:10591000DEFFF4CFDDFF52D8340EEE6E9C0EED6E3E
:105920004DD8020E30D8160EEE6E580EED6E46D8DB
:10593000040E29D8FD0EDBCFEEFFFE0EDBCFEDFF10
:10594000DECF14F0DDCF15F014C0F3FF15C0F4FF67
:10595000020EE15C02E2E16AE552E16E2BD033D83F
:1059600048D8D95012005DD82D0EEE26000EED223B
:105970005DD057D82D0EEE5E000EED5A57D014C0F4
:10598000F3FFF46E1200E926000EEA221200FD0E6B
:10599000DBCFE6FFFE0EDBCFE6FF1200FD0EDBCF16
:1059A000E9FFFE0EDBCFEAFF1200D9CFE6FFE1CF21
:1059B000D9FF1200E552E7CFD9FF1200DECFE9FF91
:1059C000DDCFEAFF1200D9503ED834D8FB0EDBCF32
:1059D000E6FFFC0EDBCFE6FFECDE146E070EE15EA9
:1059E00014501200EE5E000EED5A140EE66EAFEF8C
:1059F0002CF0D9CFE9FFDACFEAFF040EEECFDBFFC0
:105A0000050EEECFDBFF060EEECFDBFF070EEECF6F
:105A1000DBFF1200EE26000EED22140EE66EAFEF55
:105A20002CF0060FE96EDACFEAFF1200D9500BD83E
:105A3000110E1200EECFE6FFEECFE6FFEECFE6FF4F
:105A4000EFCFE6FF1200040FE96EDACFEAFF120093
:105A50000F0153510AE10201240EFF6F6E0EFD6F1C
:105A6000910EFE6F0F01010E536FFB0E146E020EAE
:105A700014C0F3FFF46E120002D964D906E0020EDE
:105A8000DB2A030EFAE3DB2AF8D7020EDB06030E4D
:105A900001E2DB06020EDBCF14F0030EDBCF15F0C4
:105AA00029D91650145C1750155825E3020EFFD85B
:105AB000EFCF14F0300E145C08E344D9390805E345
:105AC000B7D8F5D8EF50D00F0FD0020EF0D8EFCFE7
