:020000040000FA
:06000000F0EF70F01200A9
:06000800CAEF50F01200E7
:06002A00150052E3000086
:10003000000300008A00000051E3000005040000F6
:10004000010000004CE30000780F000005000000F4
:1000500049E30000FD0000000300000044E300004D
:10006000730F00000500000043E3000004040000DB
:100070000100000042E30000030400000100000052
:1000800040E30000FE010000020000003FE300002A
:10009000020400000100000060E200000002000015
:1000A000DF00000077E10000010400000100000013
:1000B00029E000000004000001000000E9AD00009C
:1000C0007F0F0000010000005BE200006E0F0000E7
:1000D0000500000051E20000460F00000A00000089
:1000E0004CE20000690F00000500000015BE000092
:1000F000FF0D0000010000004AE20000FC010000CA
:100100000200000042E20000F803000008000000C6
:10011000EFD30000FF0200000100000040E20000F9
:080120007D0F00000200000049
:08012800F3EC0CF0140EE126CB
:10013000180EBEEC0DF0A00E3EEC0FF00A0EDB6ABE
:1001400019EC0EF00D0EDB6A0F0EAFEC0EF00E0E7A
:10015000F3CFDBFFFE0EDB5004E162EC0DF06F0E1F
:1001600016D0FE0EDB0404E162EC0DF07E0E0FD023
:10017000FE0EDB50020804E162EC0DF08D0E07D09C
:10018000FE0EDB5003080AE162EC0DF09C0EE1EC80
:100190000CF00B0EC6EC0CF0040EDB6ADF6A0A0EE4
:1001A000DF5C0DE2D950010F9CEC0FF00C0F72ECEC
:1001B0000EF0180EEE26000EED22DF2AF0D7140EF8
:1001C000E15C02E2E16AE552E16E26EF0FF0F3EC4A
:1001D0000CF0E652DF6A040EDF5C05E2DFCFE6FFDB
:1001E00067EC0EF0F8D7DFEC0EF0DF6A040EDF5C90
:1001F00003E2D0EC0FF0FAD7E55226EF0FF0F3EC64
:100200000CF0610E5CEC0FF0580ECBEC0EF00B0E08
:1002100033EC0FF03F0ECBEC0CF045EC0FF01B0E67
:10022000F36EDB6E1C0EDB6A1F0EC5EC0DF00E0EBE
:10023000CCEC0DF0870E8CEC0DF0230EAFEC0EF035
:10024000220EF3CFDBFF280EDB6AC20EF36E290EFF
:10025000F8EC0CF02A0EF3CFDBFF2B0EDB6A1B0E43
:1002600093EC0DF01F0ED3EC0DF00E0EDAEC0DF04A
:10027000870EE1EC0DF0360EAFEC0EF0350EF3CF3D
:10028000DBFF400EF36E3B0EF3CFDBFF9A0EF36EF7
:100290003C0EF3CFDBFF020EE8EC0DF0060EEFECA8
:1002A0000DF02D0EF6EC0DF0330EFDEC0DF0860E7C
:1002B00004EC0EF0490EAFEC0EF0480EF3CFDBFF6E
:1002C0004E0EDB6A9E0E50EC0CF01A0E70EC0DF028
:1002D0004F0E02EC0DF0490E77EC0DF04C0E7EEC5B
:1002E0000DF05C0EAFEC0EF05B0EF3CFDBFF010107
:1002F000940E006FAE0E016F020E026F036B0F0EB5
:10030000066F076B2F0E046F056B0A0E096F0A6BE1
:10031000510E0B6F0C6B0E6B010E0D6F800E85EC8A
:100320000DF02E0E196F1A6B2B0E176F186B1B0E1C
:100330001C6F1D6B820E1E6F1F6B010E216F206FD5
:1003400014EC0FF001E097D1010EE66E8EEC6FF029
:10035000E552F40E36EC0CF001E08DD1A2EC0FF07A
:10036000FA0E36EC0CF001E086D1E00EE1EC0CF078
:100370005E0ED6EC0FF0FA0E36EC0CF001E07BD1FD
:10038000C00EE1EC0CF0650ED6EC0FF074EC0FF043
:1003900001E071D194EC0CF074EC0FF001E06BD142
:1003A000DF6A050EDF5C0BE276EC0EF059EC0DF027
:1003B000640E36EC0CF001E05ED1DF2AF2D7DE529B
:1003C0001E0EDD6EDF6A050EDF5C11E277EC0FF0CA
:1003D00001E051D177EC0FF001E04DD1A6EC0FF028
:1003E00001E049D10F0ED7EC0CF0DF2AECD7DE523A
:1003F000140EDD6EDF6A050EDF5C1CE2BEEC0FF052
:100400005C0E87EC0EF035EC0EF0FDEC0CF001E02C
:1004100032D135EC0EF0FDEC0CF001E02CD135ECD6
:100420000EF06EEC0EF001E026D10F0ED7EC0CF0C2
:10043000DF2AE1D7DE52960EDD6EDF6A030EDF5C47
:1004400018E277EC0FF001E016D177EC0FF001E045
:1004500012D1A6EC0FF001E00ED13C0E146E010E8D
:10046000DBCFE7FF1450E75E010EE7CFDBFFDF2AAB
:10047000E5D77CEC0EF0DE520A0EDD6EDF6A020E6E
:10048000DF5C11E277EC0FF001E0F5D077EC0FF0D4
:1004900001E0F1D0A6EC0FF001E0EDD0280ED7EC92
:1004A0000CF0DF2AECD7500E10EC0DF09E0E50EC45
:1004B0000CF04B0E02EC0DF0600E15EC0DF0350E4D
:1004C000046F056B7CEC0EF077EC0FF001E0D3D0FD
:1004D00077EC0FF001E0CFD0A6EC0FF001E0CBD02D
:1004E000280ED7EC0CF0400E10EC0DF0AE0E50ECD8
:1004F0000CF0530E02EC0DF0600E15EC0DF07CECE0
:100500000EF077EC0FF001E0B6D077EC0FF001E0E1
:10051000B2D0A6EC0FF001E0AED035EC0EF0800EBC
:1005200010EC0DF0BE0E50EC0CF0610E15EC0DF061
:10053000360E046F056B7CEC0EF0EAEC0FF001E078
:100540009AD0E4EC0EF0200E70EC0DF0540E02EC9C
:100550000DF0480E77EC0DF04B0E7EEC0DF0600EBA
:1005600015EC0DF09FEC0FF0320E36EC0CF001E0C4
:1005700082D023EC0DF0150E066F076B3E0E046F54
:10058000056B040E096F0A6B500E0B6F0C6B9FEC22
:100590000FF0DF6A0A0EDF5C10E293EC0FF055EC0F
:1005A0000CF0C2EC0FF067E1B2EC0FF055EC0CF080
:1005B000C2EC0FF060E1DF2AEDD7BEEC0CF0DF6A91
:1005C0001E0EDF5C0CE293EC0FF0F6EC0EF053E144
:1005D000B2EC0FF0F6EC0EF04EE1DF2AF1D7200E70
:1005E000B1EC0DF06D0EE6EC0CF0DF6A050EDF5C91
:1005F00011E276EC0EF0BEEC0CF0D950150F72EC57
:100600000EF0200ED5EC0EF0320E36EC0CF033E18D
:10061000DF2AECD745EC0FF0DF6A050EDF5C0CE259
:1006200076EC0EF0BEEC0CF059EC0DF0320E36EC20
:100630000CF021E1DF2AF1D7FA0E36EC0CF01BE1C9
:10064000D950280F27EC0CF0180E01011C6F1D6B00
:10065000AB0E85EC0DF02E0EDAEC0FF0EAEC0FF09D
:100660000AE10101D90E85EC0DF03C0EDAEC0FF039
:1006700074EC0FF002E0010E01D0000E146E610E5A
:10068000E15C02E2E16AE552C3EF0CF0F3EC0CF03E
:10069000610E30EC0DF0800E08EC0FF0AA0E09ECA4
:1006A0000DF04D0E29EC0DF0140E0BEC0EF0270E94
:1006B000F36E0D0EF3CFDBFF0E0EAFEC0EF0100E4F
:1006C000F8EC0CF00F0EF3CFDBFFAD0EB1EC0DF03C
:1006D000860E2AEC0FF00A0E4AEC0FF0450EF36E70
:1006E0001B0EF3CFDBFF1C0EDB6A280EC5EC0DF0F2
:1006F000480ECCEC0DF0470E8CEC0DF0010EF36EB5
:10070000230EF8EC0CF0220EF3CFDBFF0D0EF36E90
:10071000280EF3CFDBFF4F0EF36E290EF3CFDBFF76
:100720000A0EF36E2A0EF3CFDBFF2B0EDB6A590E97
:1007300093EC0DF03B0ED3EC0DF0480EDAEC0DF01F
:100740003B0EE1EC0DF0010EF36E360EF8EC0CF002
:10075000350EF3CFDBFFC00EF36E3B0EF3CFDBFFA6
:10076000E50EF36E3C0EF3CFDBFF090EE8EC0DF067
:100770009C0EEFEC0DF0390EF6EC0DF0310EFDECA9
:100780000DF0190E04EC0EF0010EF36E490EF8ECAC
:100790000CF0480EF3CFDBFFF90E10EC0DF0E50E78
:1007A00065EC0FF0090EF36ECFEC0EF09C0E70ECC2
:1007B0000DF0260E02EC0DF06A0E77EC0DF0190E1E
:1007C0007EEC0DF0010EF36E5C0EF8EC0CF05B0E9F
:1007D000F3CFDBFF0101600E266FA00E276F090E1D
:1007E000286F296B6F0E2C6F2D6B280E2A6F2B6BC9
:1007F0000D0E2F6F306B030E316F326B010E346FA5
:10080000336F950E396FA00E3A6F090E3B6F3C6B3C
:100810006F0E3F6F406B150E3D6F3E6B430E426F88
:10082000436B030E446F456B010E476F466FEB0E33
:100830004C6F9E0E4D6F090E4E6F4F6B110E526F27
:10084000536B506F516B780E556F566B020E576F8E
:10085000586B010E5A6F596F750E5F6FA50E606F62
:100860000A0E616F626B140E656F666B100E636F1C
:10087000646B8F0E686F696BBC0E6A6F6B6B010ED9
:100880006D6F6C6F8D0E726F470E736F0A0E746F03
:10089000756B0C0E786F796B3B0E766F776B060E6F
:1008A0007B6F7C6B0F0E7D6F7E6B010E806F7F6F99
:1008B000BF0E856F0E0E866F0A0E876F886B090E4E
:1008C0008B6F8C6B410E896F8A6B060E8E6F8F6BF0
:1008D0001D0E906F916B010E936F926F5F0E986F6C
:1008E000140E996F0A0E9A6F9B6B090E9E6F9F6B89
:1008F000410E9C6F9D6B060EA16FA26B2C0EA36F19
:10090000A46B010EA66FA56FAB69190EAC6F0A0E32
:10091000AD6FAE6B090EB16FB26B1A0EAF6FB06BED
:10092000060EB46FB56B3A0EB66FB76B010EB96FAA
:10093000B86FC00EBE6F9A0EBF6F090EC06FC16B4D
:10094000C46FC56B3C0EC26FC36B060EC76FC86B1E
:10095000490EC96FCA6B010ECC6FCB6FFC0ED16F05
:100960009A0ED26F090ED36FD46BD76FD86B3C0E33
:10097000D56FD66B420EDA6FDB6B490EDC6FDD6B29
:10098000010EDF6FDE6F14EC0FF001E0AAD0A2ECD5
:100990000FF0EAEC0FF001E0A4D0D950150F27ECCE
:1009A0000CF0DF6A0A0EDF5C0EE28DEC0EF060ECFC
:1009B0000EF001E096D0D950150F60EC0EF001E07A
:1009C00090D0DF2AEFD7D950280F27EC0CF0DF6A40
:1009D0000A0EDF5C11E28DEC0EF09CEC0FF0150FAF
:1009E00060EC0EF001E07DD0D950280F60EC0EF0E5
:1009F00001E077D0DF2AECD735EC0EF0F6EC0FF003
:100A0000DF6A0A0EDF5C12E2F0EC0FF060EC0EF031
:100A100068E135EC0EF0C2EC0FF063E1030EDF5C31
:100A200003E1CD0E08EC0FF0DF2AEBD7B9EC0CF0A8
:100A300058E1A2EC0CF0DF6A0A0EDF5C1DE2F0EC7C
:100A40000FF027EC0CF035EC0EF0C2EC0FF049E1A2
:100A5000A2EC0CF0190E36EC0CF043E1070EDF5C53
:100A600009E1400EE1EC0CF0470EC6EC0CF00A0E6A
:100A700099EC0CF0DF2AE0D7010EB3EC0CF031E179
:100A8000720EE66E010EDFEC0FF02BE1B9EC0CF00C
:100A900028E1850EE66E010EDFEC0FF022E1B9ECE5
:100AA0000CF01FE1B9EC0CF01CE1980EE66E010EA3
:100AB00039EC0EF074EC0FF014E1AB0EE66E010EA3
:100AC000DFEC0FF00EE1BE0EE66E010E39EC0EF01B
:100AD000D10EE66E010E39EC0EF0030EB3EC0CF005
:100AE00002E0010E01D0000E146E610EE15C02E224
:100AF000E16AE552C3EF0CF0F3EC0CF0200E5CEC75
:100B00000FF0030EDB6A130E6AEC0FF0040EF3CF46
:100B1000DBFF050E4BEC0CF0060EF3CFDBFF070EF0
:100B20004BEC0CF0080EF3CFDBFF090E4BEC0CF096
:100B30000A0EF3CFDBFF0B0E4BEC0CF00C0EF3CFD9
:100B4000DBFF0D0E4BEC0CF00E0EF3CFDBFF0F0EA8
:100B50004BEC0CF0100EF3CFDBFF110E4BEC0CF056
:100B6000120EF3CFDBFF130EF4CFDBFF6AEC0FF0B6
:100B7000140EF3CFDBFF150E4BEC0CF0160EF3CF7B
:100B8000DBFF170E4BEC0CF023EC0EF04BEC0CF0F3
:100B90001A0EF3CFDBFF1B0E4BEC0CF01C0EF3CF49
:100BA000DBFF1D0E4BEC0CF01E0EF3CFDBFF1F0E18
:100BB000F4CFDBFFC6EC0FF0DBCFEAFF8A0EEE6E60
:100BC000300E1EEC0EF0C6EC0FF066EC0CF0BA0E18
:100BD0007FEC0EF06BEC0CF02C0E7FEC0EF031EC99
:100BE0000CF00A0E7FEC0EF064EC0EF0280E7FEC99
:100BF0000EF01DEC0DF0C6EC0FF03FEC0CF0CBEC62
:100C00000FF0DBCFEAFFCA0EEE6EA40E1EEC0EF064
:100C1000CBEC0FF066EC0CF0BA0E83EC0EF06BEC44
:100C20000CF02C0E83EC0EF031EC0CF00A0E83EC81
:100C30000EF064EC0EF0280E83EC0EF01DEC0DF0BF
:100C4000CBEC0FF03FEC0CF0C0EC0EF0DBCFEAFF8A
:100C5000800E9AEC0DF0C0EC0EF066EC0CF0BA0EC3
:100C6000E2EC0FF06BEC0CF02C0E5FEC0DF00A0ECA
:100C70005FEC0DF0BBEC0CF0280EE2EC0FF01DEC7D
:100C80000DF0C0EC0EF03FEC0CF091EC0EF0DBCF71
:100C9000EAFFC00EEE6E1B0E4FEC0DF091EC0EF065
:100CA000C5EC0EF091EC0EF0C8EC0EF091EC0EF0ED
:100CB00031EC0CF0410EEE6EED6A91EC0EF064EC4E
:100CC0000EF0500EEE6EED6A91EC0EF05AEC0CF058
:100CD00091EC0EF03FEC0CF096EC0EF0DBCFEAFF5F
:100CE000FC0EEE6E1B0E4FEC0DF096EC0EF0C5EC0C
:100CF0000EF096EC0EF0C8EC0EF096EC0EF031EC27
:100D00000CF0410EEE6EED6A96EC0EF064EC0EF017
:100D10008C0EEE6EED6A96EC0EF05AEC0CF096EC42
:100D20000EF0E6EC0FF0010EEF6E9BEC0EF0DBCF59
:100D3000EAFFE00EEE6E370E4FEC0DF09BEC0EF07E
:100D4000C5EC0EF09BEC0EF0C8EC0EF09BEC0EF038
:100D500031EC0CF00A0EEE6EED6A9BEC0EF064ECDA
:100D60000EF0780EEE6EED6A9BEC0EF05AEC0CF085
:100D70009BEC0EF03FEC0CF0A0EC0EF0DBCFEAFFAA
:100D80001C0EEE6E380E4FEC0DF0A0EC0EF0C5EC24
:100D90000EF0A0EC0EF0C8EC0EF0A0EC0EF031EC72
:100DA0000CF00A0EEE6EED6AA0EC0EF064EC0EF0A4
:100DB000B40EEE6EED6AA0EC0EF05AEC0CF0A0EC66
:100DC0000EF03FEC0CF0A5EC0EF0DBCFEAFFEE6A84
:100DD000540E4FEC0DF0A5EC0EF0C5EC0EF0A5ECAA
:100DE0000EF0C8EC0EF0A5EC0EF018EC0FF0A5EC30
:100DF0000EF064EC0EF0780EEE6EED6AA5EC0EF0DF
:100E00005AEC0CF0A5EC0EF03FEC0CF0AAEC0EF056
:100E1000DBCFEAFF3C0EEE6E540E4FEC0DF0AAEC69
:100E20000EF0C5EC0EF0AAEC0EF0C8EC0EF0AAEC39
:100E30000EF018EC0FF0AAEC0EF064EC0EF0B40E0D
:100E4000EE6EED6AAAEC0EF05AEC0CF0AAEC0EF085
:100E50003FEC0CF084EC0FF0DBCFEAFF800EEE6E7F
:100E60002F0E1EEC0EF084EC0FF0EFEC0EF084EC85
:100E70000FF06BEC0CF0690EEE6E1DEC0FF031EC28
:100E80000CF0280EEE6E1DEC0FF0EDEC0FF01DECEB
:100E90000FF01DEC0DF084EC0FF03FEC0CF089EC42
:100EA0000FF0DBCFEAFF210E9AEC0DF089EC0FF08A
:100EB000EFEC0EF089EC0FF06BEC0CF0310EEE6EF7
:100EC00020EC0FF031EC0CF0320EEE6E20EC0FF057
:100ED000EDEC0FF020EC0FF05AEC0CF089EC0FF079
:100EE0003FEC0CF07AEC0FF0DBCFEAFF520E9AECFD
:100EF0000DF07AEC0FF0EFEC0EF07AEC0FF06BECFB
:100F00000CF02E0EEE6EED6A7AEC0FF018EC0FF08E
:100F10007AEC0FF0EDEC0FF0ED6A7AEC0FF05AEC92
:100F20000CF07AEC0FF03FEC0CF07FEC0FF0DBCF25
:100F3000EAFFE10EEE6E170EEE6E070EEE6EEE6A33
:100F40007FEC0FF0EFEC0EF07FEC0FF06BEC0CF0A1
:100F5000310EEE6EED6A7FEC0FF031EC0CF0B6EC7A
:100F60000DF07FEC0FF0EDEC0FF0ED6A7FEC0FF081
:100F70005AEC0CF07FEC0FF03FEC0CF08EEC0FF025
:100F8000DBCFEAFF120EEE6E180EEE6E070EEE6E5F
:100F9000EE6A8EEC0FF0EFEC0EF08EEC0FF06BECD7
:100FA0000CF02E0EEE6E23EC0FF031EC0CF05E0E1A
:100FB000EE6E23EC0FF0EDEC0FF023EC0FF05AEC9B
:100FC0000CF08EEC0FF03FEC0CF094EC0CF0FAEC23
:100FD0000EF001E0B4D00A0EDBCFE6FF0B0E38ECCA
:100FE0000CF00C0EDBCFE6FF0D0E38EC0CF0DF6AD8
:100FF000190EDF5C0EE2E9EC0EF038EC0FF001E0C8
:101000009ED051EC0FF038EC0FF001E098D0DF2AC1
:10101000EFD7DF6A190EDF5C14E2E9EC0EF031EC79
:101020000EF0190F36EC0CF001E089D051EC0FF006
:1010300031EC0EF0190F36EC0CF001E080D0DF2A15
:10104000E9D77D0E36EC0CF001E079D0E9EC0EF03A
:10105000EAEC0FF074E1FAEC0EF071E194EC0CF0B4
:10106000B9EC0CF06CE1A8EC0DF0460EDF5C10E280
:1010700050EC0EF00E0EDBCFE6FF0F0EF9DB100E7C
:10108000DBCFE6FF110E3FEC0EF059E1DF2AEDD782
:10109000B9EC0CF054E154EC0DF099EC38F084EC20
:1010A0000FF0DFDBEECF14F0EFCF15F0153421E2B7
:1010B00014500008000E15541CE284EC0FF0F2EC02
:1010C0000EF07FEC0FF0F2EC0EF08EEC0FF0F2EC85
:1010D0000EF089EC0FF0F2EC0EF07AEC0FF0F2EC7F
:1010E0000EF094EC0CF050EC0EF0140EBFDBD7E0D9
:1010F00026D0A8EC0DF0460EDF5C1AE250EC0EF0A4
:101100001C0EDBCFE6FF1D0EB3DB1E0EDBCFE6FFB2
:101110001F0EAEDB120EDBCFE6FF130EA9DB140EA3
:10112000DBCFE6FF150E3FEC0EF009E1DF2AE3D737
:1011300054EC0DF099EC38F014EC0FF003E0010ED4
:10114000E1EC0CF0040EDBCFE6FF050EC9DB060E6A
:10115000DBCFE6FF070EC4DB080EDBCFE6FF090E90
:10116000BFDB0A0EDBCFE6FF0B0EBADB0C0EDBCFCC
:10117000E6FF0D0EB5DB0E0EDBCFE6FF0F0EB0DB8C
:10118000100EDBCFE6FF110EABDB120EDBCFE6FF5E
:10119000130EA6DB140EDBCFE6FF150EA1DB160E39
:1011A000DBCFE6FF170E9CDB180EDBCFE6FF190E38
:1011B00097DB1A0EDBCFE6FF1B0E92DB1C0EDBCF9C
:1011C000E6FF1D0E8DDB1E0EDBCFE6FF1F0E88DB5C
:1011D000020EDB50146E200EE15C02E2E16AE55281
:1011E000D2D3F3EC0CF0620E5CEC0FF0100ECEDB01
:1011F000050E6FEC0FF0090E3AEC0DF0070EDB6AEE
:10120000080EDB6A500EF36E0C0EF3CFDBFF43ECDF
:101210000DF0140E2AEC0FF0AD0EF36E170E35EC38
:101220000DF023EC0EF0DB6A120E12EC0EF0F36EF2
:101230001A0EF3CFDBFF1B0EDB6A420EF36E1F0E9E
:10124000F3CFDBFF200EDB6A960EF36E210EF3CF99
:10125000DBFF220EAFEC0EF0240ECADB230EF3CF21
:10126000DBFFE00EF36E290EF3CFDBFFB70EF36E5C
:101270002A0E35EC0DF02B0EF3CFDBFF2C0E2FECEE
:101280000FF02F0EF3CFDBFF300E2FEC0FF02D0EF3
:10129000F3CFDBFF2E0EDB6A320EDB6A330EDB6A26
:1012A000C80EF36E340EF3CFDBFF350EAFEC0EF04D
:1012B000370E9EDB360ED9DB3C0EF3CFDBFFB80ECC
:1012C000F36E3D0ED2DB3E0EF3CFDBFF3F0E2FEC75
:1012D0000FF0420EF3CFDBFF430E2FEC0FF0400E6A
:1012E000F3CFDBFF410E2FEC0FF0450EF3CFDBFF0A
:1012F000460EDB6AC80EF36E470EF3CFDBFF480ED7
:10130000AFEC0EF04A0E74DB490EF3CFDBFF300E6C
:1013100065EC0FF0B80EF36E500EA7DB510EF3CF55
:10132000DBFF520E2FEC0FF0550EF3CFDBFF560E06
:101330002FEC0FF0530EF3CFDBFF540EDB6A500E91
:10134000F36E580EF3CFDBFF590EDB6AC80EF36E57
:101350005A0EF3CFDBFF5B0EAFEC0EF05D0E48DBF9
:101360005C0EF3CFDBFF0101580EE46FB80EE56FA2
:10137000080EE66FE76B280EEA6FEB6BE86FE96B20
:10138000780EED6FEE6BC80EEF6FF06B010EF26F23
:10139000F16FCADA010EE66EFEEC35F0E5528DEC27
:1013A0000EF018DBDF6A510EDF5C4BE2BDDAD9507C
:1013B000030F9CEC0FF0290F4ADA0EEC0FF0E40E4D
:1013C000E66E010E39EC0EF0D950020F03DBD95056
:1013D000070F72EC0EF0020EEE26000EED22D95031
:1013E000030F76DBEE5AEE5AEE5A0C0EDB060D0EAC
:1013F00001E2DB06D950340F6BDBED5AD950470FB1
:1014000067DBED5AD9505A0F63DBED5A0101EF0744
:10141000F05B2F0EDB2A300E01E3DB2A420EDB2AC3
:10142000430E01E3DB2A550EDB2A560E01E3DB2ACD
:10143000EA2B000EEB23140EDF2418DA31E1DF2A49
:10144000B2D732DB74EC0FF02BE1470EDB2A480EEB
:1014500001E3DB2A5A0EDB2A5B0E01E3DB2ADF6A9B
:10146000050EDF5C1BE20EEC0FF0D950160FEFD922
:10147000100EDF02F350146E156AFF0ED88014565A
:10148000000E15561450F2D90BE1D950160F72EC1C
:101490000EF01D0ED5EC0EF0DF2AE2D76ADA02E07C
:1014A000010E01D0000E146E620EE15C02E2E16AF0
:1014B000E55269D298DA3D0ED3DA200E82DAE70ED1
:1014C000CBEC0EF0C00EF36E060EF3CFDBFF320E48
:1014D000F36E070EF3CFDBFF030E9BDA600EF36EA5
:1014E0000A0EF3CFDBFF7E0EF36E0B0EF3CFDBFFA6
:1014F000030EF36E0C0EF3CFDBFF0D0EDB6A0E0E48
:10150000DB6ACA0EF36E0F0EF3CFDBFF030EF36E32
:10151000100EF3CFDBFF110EDB6AA00EF36E120E7E
:10152000F3CFDBFF0B0EF36E130EF3CFDBFF040ED6
:10153000F36E140EF3CFDBFF150EDB6A400E2AECC0
:101540000FF04D0EF36E170EF3CFDBFF040EF36EAC
:101550007ADBDB6A400EF36E1A0EF3CFDBFF980ED8
:10156000F36E1B0EF3CFDBFF040E5CDBE00EF36EBD
:101570001E0EF3CFDBFFE30EF36E1F0EF3CFDBFF88
:10158000040ECADA790EF36E220E62DB230E60DBE4
:10159000240EF3CFDBFF690EF36E250EF3CFDBFFD6
:1015A000690EF36E260EF3CFDBFF780EF36E270E77
:1015B000F3CFDBFF780EF36E280E4ADB290EF3CF54
:1015C000DBFF8ADAD0DB220EDB50A9EC0FF0A00E95
:1015D000AADA330EDB6A340EDB6A310EF36E350E97
:1015E000F3CFDBFF360EDB6A380EB9DB370EF3CFF5
:1015F000DBFF9AD9DF6A050EDF5C11E2010EDB6AC0
:10160000080E9FDA0AE257EC0FF03C0E146E29DB4D
:10161000145C93D9010EDB2AF3D7DF2AECD7DF6AFB
:10162000050EDF5C11E2010EDB6A080E8ADA0AE2BF
:1016300057EC0FF0280E1AD902E0010E07D0010E68
:10164000DB2AF3D7DF2AECD76FD9000E146E3D0EDC
:10165000E15C02E2E16AE55296D1C5D9150E00DAE5
:10166000D0DB5A0E33EC0FF0500E95D95DD9DF6AFE
:10167000050EDF5C1AE2010EDB6A0A0E62DA12E284
:10168000A2EC0FF029DA400EEE26380EEE22000E04
:10169000EE22EE22500EEAD802E0010E08D0010E32
:1016A000DB2AEBD7AEDBDF2AE3D73ED9000E146E80
:1016B000150EE15C02E2E16AE55265D194D9150E9E
:1016C000CFD9F2D9C00E7DD9670E60D9370E31D986
:1016D000A00E9FD94F0EBDD9280E9DDA280E5BD9DA
:1016E00023D9C80E2AD9DF6A150EDF5C22E2A2ECEC
:1016F0000FF0DF5001E163DBDF50120802E2640EFD
:1017000001D03C0E1AD9E8D9500E01DBA2EC0FF043
:10171000DF50120802E2640E01D03C0E0ED9DCD973
:10172000B00EEE26630EEE22000EEE22EE22DF2A2F
:10173000DBD7E7EC00F0150EE15C02E2E16AE5526E
:10174000E16E84D350D9160EE126AED9E00E1ED933
:10175000430EC5DB2C0E8ED9A00E10DA0C0EDB6A00
:1017600092D9E66A0BEC36F0E552DF6A040EDF5CD4
:1017700004E2DFCFE6FFABDAF9D721DBDF6A040E44
:10178000DF5C03E2D0EC0FF0FAD7DF6A130EDF5C08
:101790000FE2D950030FD0DB030FA4DAEE52960EFE
:1017A000EE26000EEE22EE22640EC7D8DF2AEED718
:1017B000DF6ADF50146E156AD890155004E6FF0EEC
:1017C000145C000E15581EE286EC51F0DE52F3CF89
:1017D000DEFFF4CFDDFFDD52010EDBCFE9FF020EAD
:1017E000F5DBEF500BE0DFCFE6FFE66A34EC70F09C
:1017F000E552E552C80EA1D8000E05D0640E9DD862
:10180000DF2AD7D7010E146E160EE15C02E2E16A00
:10181000E552B9D049D9020EE66E08EC66F0E55201
:10182000A1EC6FF0FFEC00F0000910E146EC03F0D2
:1018300000090CE17CEC05F0000908E1D2DC0009AC
:1018400005E138DE000902E108DF00091200E66E5A
:10185000000EDA2039EF0EF091DB2E0E58DA6EEF23
:101860000EF0DBCFEAFF090EDBEF0EF0E66E81D360
:10187000DBCFE6FFA5EC6EF0E552E5521200DBCFC0
:10188000EAFF0D0E98DA010EEF6E120077DB5C0EA8
:101890008CDA6EEF0EF0F4CFDBFF130E6AEF0FF071
:1018A00014DB020EF36ECFEF0EF0000EE66E010EAB
:1018B00039EF0EF0DBCFEAFF0E0E7DDA010EEF6E90
:1018C0001200DBCFEAFFA00E87EF0EF0DBCFEAFFBE
:1018D000060EDBEF0EF0DBCFEAFF040EDBEF0EF0BF
:1018E000DBCFE6FFDEEC6FF0E552E5521200D95097
:1018F000020F146EDACF15F0010EDB50040D1450F8
:10190000F324E96EDA50F420EA6E2DDAD950220F72
:10191000146E010EDB500F011424E96E000EDA2064
:10192000EA6EEF50A9EF0FF0E66A94EC00F0E55292
:101930001200D5DA050EDB6A1200E66EFCEC65F0EB
:10194000E5521200260EE66E010E93D9390EE66EB0
:10195000010E8FD94C0EE66E010E8BD95F0EE66E2E
:10196000010E39EF0EF0E66E3EEC66F0E55200092E
:101970001200E668FED2020EDBEF0EF0130EE66EEA
:10198000010E39EF0EF0E16E145060D2F36E030ECB
:10199000F3CFDBFF1200F36E0D0EF3CFDBFF0E0E65
:1019A000DB6A100EDCD90F0EF3CFDBFF1200146ED2
:1019B000010EDBCFE7FF1450E726010EE7CFDBFF78
:1019C0001200F36E020EF3CFDBFF120043DA020EB9
:1019D0004AEF0FF0E66E000EDA20E66E10EC36F0FD
:1019E000E552E5521200D9CFE6FFE1CFD9FF120050
:1019F000F3CFDBFF010EF36E1200C0DA2E0ED5D945
:101A00006EEF0EF0F36E520EF3CFDBFF530EDB6A78
:101A10001200F36E080EF3CFDBFF090EDB6A120033
:101A2000F36E4E0EF3CFDBFF120001010027090E0B
:101A30000123000E022303231200DBCFEAFF0E0E68
:101A4000BAD9EF6A12000101E00E006F130E60EFC9
:101A50000FF0F36E060EF3CFDBFF070EDB6A12000A
:101A6000E126DF6A010EDB6A1200F3CFDBFF080E0E
:101A7000F36E120003DAF00EF36E090EF3CFDBFF04
:101A80000A0EDB6A12000D0EDB6A0E0EDB6A0F0E09
:101A9000DB6A110E64D9100EF3CFDBFF1200EE6E7D
:101AA0000B0EEE6EEE6A1200E66AFEEC35F0E552C1
:101AB0001200D950150F16D9200E87EF0EF082DADA
:101AC000E6EF0FF0800EF36E010EF3CFDBFF120096
:101AD00009D9EE06000E1200D950020F72EF0EF077
:101AE000F36E540EF3CFDBFF550EDB6A1200F36E7C
:101AF000570EF3CFDBFF580EDB6A1200F36E590E60
:101B0000F3CFDBFF5A0EDB6A1200136F7D0E146FEA
:101B1000020E156F166B1200F36E200EF3CFDBFF73
:101B2000210EDB6A1200F36E2E0EF3CFDBFF2F0EB9
:101B3000DB6A1200EE6E420EEE6E060EEE6EEE6A7E
:101B40001200F36E010EDBCFF4FFF350F45C1200D1
:101B5000010EE66EFEEC35F0E55299EC38F0DF6AE6
:101B60001200F36E150EF3CFDBFF12002D0EEE6E9A
:101B7000ED6A12003C0EEE6EED6A1200F36E070E77
:101B8000F3CFDBFF080EDB6A1200F36E190EF3CF02
:101B9000DBFF1A0EDB6A1200F36E1E0EF3CFDBFFC3
:101BA0001F0EDB6A1200F36E2C0EF3CFDBFF2D0E3F
:101BB000DB6A1200F36E310EF3CFDBFF320EDB6A0D
:101BC0001200F36E330EF3CFDBFF340EDB6A12002C
:101BD000F36E3D0EF3CFDBFF3E0EDB6A1200F36EB9
:101BE000410EF3CFDBFF420EDB6A1200F36E3F0EB5
:101BF000F3CFDBFF400EDB6A1200F36E440EF3CF2F
:101C0000DBFF450EDB6A1200F36E460EF3CFDBFFFF
:101C1000470EDB6A1200F36E0B0EF3CFDBFF0C0EE8
:101C2000DB6A1200F36E1C0EF3CFDBFF1D0EDB6AC6
:101C300012000B0EDB6A0C0EDB6A1200EE6E050E54
:101C4000EE6EEE6A1200180EF3CFDBFF190E1200D3
:101C5000F3CFDBFF790EF36E1200960EEE6EED6A97
:101C60001200040EDF02F3501200D9503B0F27EF91
:101C70000CF0E66EA5EC6EF0E552E5521200F8DDD0
:101C800043D91FDE46D91DDE35D91BDE38D919DE12
:101C900045D917DED950030F9DDE820E36EF0CF0CA
:101CA000160EDBCFE6FF170EE3DD180EDBCFE6FFE7
:101CB000190EDEDD1A0EDBCFE6FF1B0E38EF0CF03F
:101CC000C6DD190E36EF0CF0CCDDBBEF0CF094EC5A
:101CD00000F0E552320E31DEDF2A1200010EDBCFBA
:101CE000E6FF47D1E96EDACFEAFF1200D950280F9C
:101CF00023D9150F27EF0CF079D955EF0CF0EE6EC4
:101D0000ED6AC6EF0FF0EE6EED6ACBEF0FF0EE2648
:101D1000000EEE22EE22EE22120006DED950020F55
:101D200012000A0EDBCFE9FF0B0E12000C0EDBCF08
:101D3000E9FF0D0E12000E0EDBCFE9FF0F0E1200B1
:101D4000100EDBCFE9FF110E1200120EDBCFE9FF00
:101D5000130E1200140EDBCFE9FF150E1200DB6A22
:101D6000010EF36E12002A0EEECFDBFF2B0EEECF2C
:101D7000DBFF2C0EEECFDBFF2D0EEECFDBFF1200D4
:101D8000080EDBCFE9FF090E1200A0DDB6EF0DF063
:101D9000A2DDBAEF0DF0FADD020E99EF0CF0500E55
:101DA000F3CFDBFF510EDB6A1200EE5E000EEE5A3F
:101DB000EE5AEE5A1200E926000EEA221200FA0E3E
:101DC000BCDDFA0E9DEF0CF0C00E2ADECE0E50EFF9
:101DD0000CF0060EDBCFE6FF070E38EF0CF076DDD9
:101DE0002DEF0EF03EDDEE06ED5A1200A8D8050EDE
:101DF00036EF0CF0040EDBCFE6FF050E39DDEAEF1F
:101E00000FF0400EDEDD110EC1DD0E0E99EF0CF06D
:101E1000D8DDB10EBBDD0A0E99EF0CF0D9503C0FA6
:101E20008BD84F0F27EF0CF07FDD010EB3EF0CF0D6
:101E300018DD630EEE6EED6A1200ED6A84EF0FF0AE
:101E4000ED6A89EF0FF0ED6A8EEF0FF0E552E7CF04
:101E5000D9FF1200F36E160EF3CFDBFF1200DB6A20
:101E6000280EF36E1200D5DDA00EF3DD19EF0EF093
:101E70007D0E146EF6DE145C36EF0CF0F36E050E7C
:101E8000F3CFDBFF060EDB6A1200A00E6ADE6C0EDB
:101E9000E6EF0CF0F36E170EF3CFDBFF180EDB6AE4
:101EA0001200080EDBCFE6FF090E38EF0CF0D95018
:101EB0002A0FCDDC77EF0CF0D3DD020EDB6A1200C7
:101EC000016F070E026F036B1200F36E4F0EF3CF1C
:101ED000DBFF1200E66ED0EC6FF0E5521200F36EFD
:101EE000040EF3CFDBFF1200020EB3EF0CF0BDDEE9
:101EF0002CEF0CF01A0EDBCFE9FF1B0E12001C0EAC
:101F0000DBCFE9FF1D0E1200160EDBCFE9FF170E27
:101F10001200180EDBCFE9FF190E12001E0EDBCFE8
:101F2000E9FF1F0E12008FDDE00E7ADD210EF36E49
:101F30004F0E9BDDCFEF0EF08ADCD9501200B5DCDE
:101F4000F6EF0FF0D950020F27EF0CF08EDE46EFC0
:101F50000CF0E66ED950300FC5DEE552E750EE6E5C
:101F6000ED6A12000101C00E006F060EA9DFE4EF5A
:101F70000EF01BEC66F0E55200091200D9503B0F41
:101F800072EF0EF0D9504E0F60EF0EF0040EDBCF63
:101F9000E9FF050E1200060EDBCFE9FF070E120067
:101FA000030ED880DF54E66E67EF0EF0F4DEB5DE88
:101FB00027EF0CF0176F186BE1DC35EF0EF059DEF0
:101FC000B9EF0CF0EE6EED6AC0EF0EF0DBCFEAFF7A
:101FD000DBEF0EF0C80E36EF0CF076DEEE6A120084
:101FE0009CDEAADF150FA8DF280F1200D9504E0F74
:041FF00027EF0CF0DB
:0C1FF400020100510AE10301020E8E6F91
:10200000FA0E8C6FAB0E8D6F0201010E006F8A0EFF
:10201000146E030EC5EF1AF0020101510AE103012B
:10202000030E936F0C0E916FAC0E926F0201010EB6
:10203000016F8F0E146E030EC5EF1AF002010251EC
:102040000AE10301010E986F270E966FAC0E976F91
:102050000201010E026F940E146E030EC5EF1AF00A
:10206000020103510AE10301030E9D6F300E9B6FC5
:10207000AC0E9C6F0201010E036F990E146E030EDD
:10208000C5EF1AF0020104510AE10301030EA26F29
:102090004B0EA06FAC0EA16F0201010E046F9E0EDD
:1020A000146E030EC5EF1AF0020105510AE1030197
:1020B000020EA76F660EA56FAC0EA66F0201010E91
:1020C000056FA30E146E030EC5EF1AF00201065140
:1020D0000AE10301010EAC6F780EAA6FAC0EAB6F74
:1020E0000201010E066FA80E146E030EC5EF1AF062
:1020F000020107510AE10301010EB16F810EAF6FBA
:10210000AC0EB06F0201010E076FAD0E146E030E20
:10211000C5EF1AF0020108510AE10301020EB66F81
:102120008A0EB46FAC0EB56F0201010E086FB20ECD
:10213000146E030EC5EF1AF0020109510AE1030102
:10214000100EBB6F9C0EB96FAC0EBA6F0201010E80
:10215000096FB70E146E030EC5EF1AF002010A5193
:102160000AE10301060EC06F2C0EBE6FAD0EBF6FED
:102170000201010E0A6FBC0E146E030EC5EF1AF0B9
:1021800002010B510AE10301060EC56F620EC36F17
:10219000AD0EC46F0201010E0B6FC10E146E030E63
:1021A000C5EF1AF002010C510AE10301060ECA6FD5
:1021B000980EC86FAD0EC96F0201010E0C6FC60EEE
:1021C000146E030EC5EF1AF002010D510AE103016E
:1021D000030ECF6FCE0ECD6FAD0ECE6F0201010E8E
:1021E0000D6FCB0E146E030EC5EF1AF07FEC1AF0D4
:1021F000030E69EC1BF03DEC1DF0F70EF3CFDBFF97
:10220000F80EF4CFDBFF70EC1BF03DEC1DF0F50E8B
:10221000F3CFDBFFF60EF4CFDBFFDF6AF40EDB500B
:10222000DF5C35E2040E70EC1DF009EC1DF0D950B6
:10223000F90FEBEC1DF077EC1BF069EC3DF042EC94
:102240001DF092EC1DF0F350EE261550ED2292ECAD
:102250001DF0020EDAEC1DF0F350EE261550ED22C3
:10226000E66A70EC1BF056EC1AF077EC1CF0F350B9
:10227000E66E77EC1BF047EC57F062EC1EF0B1EC29
:102280001DF03DEC1AF0DAEC1AF0DF2AC7D7030E86
:10229000E15C02E2E16AE55269EF1AF0F1EC1DF04F
:1022A000FDEC1BF0300EE66EDA0EA1EC1DF056DFF1
:1022B000D5EC1BF002E2E16AE55269EF1AF0F1ECAD
:1022C0001DF0060EFDEC1BF0520EE66EDA0EA1ECD0
:1022D0001DF056DFD5EC1BF002E2E16AE55269EF32
:1022E0001AF0F1EC1DF0060EFDEC1BF06A0EE66E26
:1022F000DA0EA1EC1DF056DFD5EC1BF002E2E16A2C
:10230000E55269EF1AF07FEC1AF0060EE126050E91
:1023100070EC1DF0040EF3CFDBFF050EF4CFDBFFF6
:102320009AEC1EF0F0EC1AF0BEEC1EF0040E70EC0D
:102330001AF003EC1DF024EC1CF0E66A1E0EE66EAB
:10234000E8EC6BF034EC1CF0E66EE66AC2EC1EF0D2
:10235000020E48EC1AF0A8DE5CEC1CF080EC63F096
:102360001C6E090EE15E1C50BEEC1DF0F0EC1AF084
:1023700066EC1EF0B5EC1EF04CEC1AF07EEC1BF097
:10238000060EE15C02E2E16AE55269EF1AF0B0EC98
:102390001CF0040EE66E030E5FEC1DF03EEC1CF02C
:1023A000BCEC1CF002E2E16AE55269EF1AF07FEC46
:1023B0001AF0090EE12612EC1EF0DAEC1DF0EECF59
:1023C000DEFFEDCFDDFF040E70EC1DF0BEEC1DF066
:1023D000B5EC1EF066EC1EF0BBEC1AF0070EEECF6B
:1023E000DBFF080EEDCFDBFFD5EC1DF074EC24F025
:1023F000E552E552E76E060EE7CFDBFFDB5018E152
:1024000011EC1BF01E0E41EC1BF012E3070EDBCFAC
:1024100014F0080EDBCF15F01E0EA1EC1AF002E04E
:1024200017EC1BF0C3EC1DF05FE115505DE13BD0F4
:10243000010E82EC1BF01AE211EC1BF01E0E41ECB7
:102440001BF014E211EC1BF03C0E41EC1BF00EE310
:102450000DEC1DF03C0EA1EC1AF002E017EC1BF0A5
:10246000C3EC1DF041E115503FE11DD0020E82EC9E
:102470001BF01DE211EC1BF03C0E41EC1BF017E2CF
:1024800011EC1BF05A0E41EC1BF011E30DEC1DF0AA
:102490005A0EA1EC1AF002E017EC1BF0C3EC1DF091
:1024A00023E1155021E16AEC1EF009DF1BD0ADECF1
:1024B0001BF034EC1EF004E60F0E145C000E1558F1
:1024C00013E2B0EC1AF034EC1EF004E6080E145CD3
:1024D000000E155804E26AEC1EF0E0DE03D06AEC50
:1024E0001EF0FFDEDEEC1AF0090EE15C02E2E16AAA
:1024F000E55269EF1AF0B0EC1CF0060EE66E020E23
:102500005FEC1DF03EEC1CF0030E46EC1BF00F0ED2
:10251000BFEC1BF09AEC1CF069DE5AEC1BF0BCEC33
:102520001CF002E2E16AE55269EF1AF07FEC1AF062
:10253000B0EC1AF016EF1CF07FEC1AF0050EE8EC88
:102540001AF016EF1CF07FEC1AF00A0EE1263DECB3
:102550001AF004EC3DF0E552E552020E06C0DBFF36
:10256000030E07C0DBFF040E08C0DBFF050E09C029
:10257000DBFF13EC1DF0060E06C0DBFF070E07C0E5
:10258000DBFF080E08C0DBFF090E09C0DBFF19ECFA
:102590001DF0080EDBCF16F0090EDBCF17F015503B
:1025A0001718E8AE02D0173404D01650145C175038
:1025B00015581FE2A0EC1EF0A3EC1BF0D950060F3B
:1025C000A2EC1CF0D950020FA2EC1CF089EC1BF01D
:1025D00037EC1CF07BDDF3CF1BF0F4CF1CF0B1EC3B
:1025E0001DF0A9EC64F01D6E0D0EE15E1D50C9ECEE
:1025F0001BF00A0EE15C02E2E16AE55269EF1AF0B3
:102600007FEC1AF00C0EE1263DEC1AF004EC3DF0E4
:10261000FBEC1AF013EC1DF0080E06C0DBFF090EF0
:1026200007C0DBFF0A0E08C0DBFF0B0E09C0DBFF93
:10263000040ED4EC1AF0040EE66ED950080FA2EC8A
:102640001CF0D950040FA2EC1CF098EC3FF0166E71
:10265000090EE15E1650CAEC1CF0C9EC1AF0040E2B
:102660001AEC1EF0060EDBCF18F0070EDBCF19F0C8
:102670000A0EDB50185C166E0B0EDB501958176EE5
:1026800016C0E6FFE66E87EC6CF044EC1AF0B1EC95
:102690001DF0040EDBCF1EF0050EDBCF1FF0080E81
:1026A000DB501E5C1C6E090EDB501F581D6E1CC0DB
:1026B000E6FFE66E3DEC1DF0E552E7CF15F0E55282
:1026C000E7CF14F0F3CF1AF0F4CF1BF0F450151845
:1026D000E8AE02D0153404D014501A5C15501B58C3
:1026E0000DE2A0EC1EF03CEC1BF0C3EC1BF020EC68
:1026F0001EF010DD94EC1AF0C9EC1BF00C0EE15C3E
:1027000002E2E16AE55269EF1AF0B0EC1CF0A0ECCD
:102710001EF0010EE66EE66E050EE66EA2EC65F0AA
:10272000E552E55237EC1CF007DD94EC1AF0C9ECE9
:102730001BF0020EE15C02E2E16AE55269EF1AF079
:102740009FEC1CF0A3EC1BF024EC1CF0D1EC1AF075
:10275000D3EC42F034EC1CF0E66A680EE66ECA0E6A
:102760005FEC1DF0E66A020E48EC1AF086EC1DF0F4
:1027700002E2E16AE55269EF1AF09FEC1CF0A3EC6B
:102780001BF0C1EC1CF056EC1AF0FDEC68F034ECD8
:102790001CF0E66A380EE66E250E5FEC1DF0030EA7
:1027A00047EC1DF086EC1DF002E2E16AE55269EFAC
:1027B0001AF020EC1CF0FA0EE66EE66A93EC1CF0C0
:1027C0002AEC64F062EC1EF076EC1AF0E66A010E78
:1027D000E66EE8EC6BF034EC1CF02C0EDEEC1DF039
:1027E000A9EC1EF0190EF5EC1DF03ADCC6EC1EF05B
:1027F00002E2E16AE55269EF1AF038EC1EF003ECF0
:102800001DF007EC67F034EC1CF0900EDEEC1DF0D0
:1028100044EC1AF079EC1AF08E0EE66E230EB8EC4A
:102820001EF00A0EF5EC1DF063DC8DEC1EF002E2EA
:10283000E16AE55269EF1AF03CEC1EF02C0ECAEC8E
:102840001EF0E66A030EE66EE8EC6BF0A9EC1EF0F3
:102850000A0EF5EC1DF0FAEC0FF0C6EC1EF002E2E9
:10286000E16AE55269EF1AF020EC1CF024EC1BF051
:10287000C1EC1CF07EEC1EF002E2E16AE55269EF69
:102880001AF03CEC1EF07EEC1EF002E2E16AE5522A
:1028900069EF1AF09FEC1CF03CEC1BF024EC1CF0F0
:1028A0002C0ECAEC1EF0F60EE66E240EE66E7A0EC4
:1028B000E66E270E5BEC1DF01E0E47EC1DF01EECC5
:1028C00010F0C6EC1EF002E2E16AE55269EF1AF080
:1028D00038EC1EF0900ECAEC1EF048EC5AF0CAEC30
:1028E0001CF079EC1AF0060EE66E230EB8EC1EF022
:1028F000140EF5EC1DF042EC10F08DEC1EF002E22F
:10290000E16AE55269EF1AF07FEC1AF0080E69EC03
:102910001BF0F60EDB5003E0A00E146E01D0146A1B
:10292000156A0DEC1EF0A5EC6FF0E552E552FBECDC
:102930001AF0060E70EC1AF0C9EC1DF0F40EDEEC85
:102940001DF07BEC1CF00A0EE66E270E5BEC1DF012
:102950007FEC1CF0E66ED950040FA2EC1CF0AFEC3B
:102960001EF0AEEC1CF04CEC1AF0A5EC6FF0B9ECDC
:102970001DF006C016F007C017F008C018F009C017
:1029800019F0DCEC1CF089EC1BF0CAEC1CF076ECC6
:102990001AF0B5EC1EF03DEC1AF005EC28F0B9EC9D
:1029A0001DF0080EE15C02E2E16AE55269EF1AF0FF
:1029B0009FEC1CF024EC1BF0C1EC1CF0C9EC1DF0EA
:1029C0001FEC1BF0DC0EE66ECF0E5BEC1DF0050E6F
:1029D00047EC1DF00CEC10F0E1EC1DF07DEC1DF06F
:1029E0000E0EDAEC1DF0D60EEE6ECF0EED6EB5ECDF
:1029F0001EF0E4EC1BF0B6EC1DF002E2E16AE552D9
:102A000069EF1AF0B0EC1CF0F80EDB5003E0DE6862
:102A1000DD6803D0010EDE6EDD6AC0EC1AF0B0ECAA
:102A20001AF04CEC1AF03DEC1AF02EEC1BF0C0EC56
:102A30001AF0ECEC1AF0DECF16F0DDCF17F0190E1D
:102A400049EC1CF0C0EC1AF030EC1EF0DECF16F0B2
:102A5000DDCF17F0320E49EC1CF0020EE15C02E211
:102A6000E16AE55269EF1AF0B0EC1CF0FA0EDB50A7
:102A700004E0010EDE6EDD6A02D0DE68DD68020E63
:102A8000E15C02E2E16AE55269EF1AF0B0EC1CF099
:102A9000FA0EDB5004E0010EDE6EDD6A02D0DE6865
:102AA000DD68020EE15C02E2E16AE55269EF1AF0CC
:102AB00085EC1CF07EEC1BF0F9EF1DF085EC1CF0B2
:102AC00014EC28F0B9EC1DF0F9EF1DF07FEC1AF0D2
:102AD000060EE126FB0EDBCF08F0FC0EDBCF09F083
:102AE000080E081802E10C0E091802E1F0EF19F0C7
:102AF000FE0E081802E10B0E091802E1E8EF19F0CA
:102B0000F40E081802E10B0E091802E1DEEF19F0CD
:102B1000E50E081802E10B0E091802E1D0EF19F0DA
:102B2000E00E081802E10B0E091802E1CAEF19F0D5
:102B3000C20E081802E10B0E091802E1B0EF19F0FD
:102B4000A40E081802E10B0E091801E1F4D3680E77
:102B5000081802E10B0E091801E1DED3540E081823
:102B600002E10B0E091801E1CBD3220E081802E195
:102B70000B0E091802E1BEEF19F00E0E081802E163
:102B80000B0E091801E1B6D3F00E081802E10A0E87
:102B9000091801E1ACD3BE0E081802E10A0E0918AB
:102BA00001E181D3AA0E081802E10A0E091801E119
:102BB00060D3A00E081802E10A0E091801E155D3EE
:102BC000960E081802E10A0E091801E140D3820EA0
:102BD000081802E10A0E091801E1DCD35A0E0818A0
:102BE00002E10A0E091801E1DBD3280E081802E100
:102BF0000A0E091801E113D3F60E081802E1090EB6
:102C0000091801E108D3C40E081802E1090E0918D9
:102C100001E1FAD2920E081802E1090E091801E149
:102C20006FD3600E081802E1090E091801E1DED227
:102C3000560E081802E1090E091801E116D3470ED5
:102C4000081802E1090E091801E10FD32E0E081829
:102C500002E1090E091801E1C3D2150E081802E1BC
:102C6000090E091801E1B9D2FC0E081802E1080E9C
:102C7000091801E1B2D2E10E081802E1080E0918A4
:102C800001E1A5D2CA0E081802E1080E091801E1F7
:102C900085D2660E081802E1080E091801E171D20A
:102CA000340E081802E1080E091801E1B4D2020E30
:102CB000081802E1080E091801E153D2D00E0818D5
:102CC00002E1070E091801E13CD29E0E081802E14C
:102CD000070E091801E131D2850E081802E1070E2E
:102CE000091801E123D26C0E081802E1070E091839
:102CF00001E114D23A0E081802E1070E091801E1A9
:102D000003D2080E081802E1070E091801E1ECD100
:102D1000D60E081802E1060E091801E1D1D1A40E61
:102D2000081802E1060E091801E1A7D16B0E081878
:102D300002E1060E091801E18ED1400E081802E1E9
:102D4000060E091801E175D1DC0E081802E1050E26
:102D5000091801E167D1CB0E081802E1050E091828
:102D600001E15DD1960E081802E1050E091801E196
:102D70003CD1140E081802E1050E091801E11FD11B
:102D8000E20E081802E1040E091801E10FD1B00E9D
:102D9000081802E1040E091801E1F6D07E0E0818A9
:102DA00002E1040E091801E1E9D06A0E081802E1F7
:102DB000040E091801E1DCD0FC0E081802E1030E34
:102DC000091801E1C4D0F90E081802E1030E091830
:102DD00001E1BAD0C00E081802E1030E091801E1A2
:102DE000AAD0B60E081802E1030E091801E19ED020
:102DF000840E081802E1030E091801E181D0200EAB
:102E0000081802E1030E091871E0BC0E081802E16F
:102E1000020E091865E08A0E081802E1020E091870
:102E20005BE0580E081802E1020E091801E1C6D253
:102E3000260E081802E1020E09184AE0F40E0818DE
:102E400002E1010E091830E0900E081802E1010EAF
:102E5000091817E02C0E081802E1010E09180BE002
:102E6000FA0E081801E0CED2095001E0CBD2EAEC0C
:102E70001CF0640E79D01ADBF60E4BEC1DF0BDDCB5
:102E8000ACD2AADBB1EC1BF040EC1EF0190E62ECE8
:102E90001CF0A7EC1CF0320E44EC1EF001E0B2D2A4
:102EA000020EF4DB35DBC3D001DBE20EE66EE66832
:102EB00040EC1EF06E0E62EC1CF0A7EC1CF0870ECE
:102EC00044EC1EF001E09ED2A7EC1CF0550E56D14A
:102ED00003EC1DF00A0E7ED197EC1EF0500E97D138
:102EE000E66A780EE66EE66A8C0E06D0010EE66E95
:102EF000B40EE66EE66A140EBFEC1BF083DD7ED2E4
:102F0000010EE66EF00EE66EE66A4FEC1DF052EC36
:102F10001DF0010EE66EE66E23DBFB0E4BEC1DF0A2
:102F2000A4DB03EC1DF0B7DB6E0E1ED027EC1EF009
:102F300035DB230E60D265EC1CF0820EAEEC1DF08A
:102F4000020E2CDB730E57D2B1DA160ED5D1E66A1B
:102F5000780EE66EE66A8C0EBFEC1BF052EC1DF0AC
:102F6000E66A010E93DB820EBFEC1BF0A7DDF5D104
:102F700097EC1EF0F60EE66EE66865D162EC1DF089
:102F80006C0E1426D90EFED1C6EC1CF076DA0DECD0
:102F90001CF065EC1CF0500E83EC1DF0A9EC1DF04C
:102FA00001E030D2B8EC1CF0820E4BD197EC1EF051
:102FB00072DBD80EE66EE668DEDB500E22D1EAEC5C
:102FC0001CF0780EDCDB51DB010EE66EF00EB4EC8B
:102FD0001CF053DA52EC1DF0020EE0DAA00E83EC86
:102FE0001DF0030E53DB8C0E2CD160DA56EC1DF075
:102FF0006FDC42EC1DF025EC1DF07EDA010EDBCF1C
:10300000E6FF30EC1EF0500EAEEC1DF065EC1CF04F
:10301000690EAEEC1DF0010EDBCFE6FFE9D146DA1A
:10302000760E6AD1A6EC1EF0D7DA9BDBA4DB4B0E42
:10303000A5D0030EE66E0F0E2CEC1DF0EEDBA6EC19
:103040001EF0190E83EC1DF0030EE66E0F0EE66EF9
:10305000E66A280EF6D01FDB29DA4EDAA7EC1CF060
:10306000320E48EC1EF065EC1CF0460E88DBCFEC0F
:103070001CF0A7EC1CF05A0EC4D04B0EE66EE66AAC
:103080001E0E2CEC1DF0C6DA4B0EE66EE66A68DA10
:10309000820E6EEC1EF02CEC1EF0F1EC1CF0CDEC70
:1030A0001EF0280E49DA98DA01DA77EC1CF071ECA0
:1030B0001EF05A0ED8801656000E17563FDB15D15B
:1030C000040E86DAF3D95BDBD0DA97EC1EF048DA2F
:1030D000F60EE66EE6684FDB500E31EC1DF073DA4B
:1030E000030EE66E000E1ED02CEC1EF0A6EC1EF0B9
:1030F000F5EC1CF0CFEC1CF0A9EC1DF001E082D146
:1031000097EC1EF0500E9DD097EC1EF05A0E37DB58
:10311000CFEC1CF0A6EC1EF0410E79D027EC1EF08F
:10312000E66E1E0EE66EE66A280E65D1F1EC1CF026
:10313000500ED1EC1EF0640E5ED1A6EC1EF03C0EDB
:1031400066D006EC1DF0320EAEEC1DF0BEDB4B0E71
:10315000D1EC1EF0F5EC1CF083DB020E97DA490E81
:1031600056D099DA0F0EE66EE66AC6D94DEC1EF01F
:103170004DDB41EC14F027DA4DEC1EF051EC1EF063
:1031800007D177EC1DF083EC1DF05A0EEDDB460EF7
:10319000F6DAD9EC13F0146E080E49D0A9EC1DF044
:1031A00009E197EC1EF083EC1DF0A6EC1EF01E0E5C
:1031B00083EC1DF0A9EC1DF001E024D1EEEC1CF035
:1031C000F5EC1CF02ADBEEEC1CF0460E3AD0040EB7
:1031D000FFD9000EE66EE66ABDD068D9500EE6D083
:1031E00065D9FAD976EC1EF08C0EE0D0EEDB74DAFD
:1031F00002EC1EF08DD93C0E48EC1EF0B9DB88D9EC
:103200003C0E31EC1DF0C4D097EC1EF00A0EB7DA7C
:103210001CEC14F0F3D077EC1DF04B0E0DD077ECD6
:103220001DF083EC1DF042D9460EA9DA91DAE15E79
:10323000145097EC1EF0A00E83EC1DF0A6EC1EF0CF
:10324000B40EE66EE66A19D934EC14F0D7D0ABDBD5
:103250003BD9EECF1AF0EFCF1BF0010EDB501A5C1A
:10326000186E020EDB501B5811D020D935EC1DF022
:103270009FD099DB010EDBCF1AF0020EDBCF1BF0E3
:1032800023D91A50EE24186E1B50EE20196E18C068
:10329000E6FFE66E56EC1EF0A0EC13F01C6E080E76
:1032A000E15E1C50AFD091DBE0DB02EC1EF00CD9EC
:1032B000EECF16F0EFCF17F0010EDB50165C146E58
:1032C000020EDB501758FBD9D2DBE15E185050DB01
:1032D000010EDBCF16F0020EDBCF17F0F5D816503B
:1032E000EE24146E1750EE20EAD9C1DB64D0DED88C
:1032F000500E02D0DBD8780E42DA68EC14F06DD0B4
:10330000010EE66E5F0E30DBF60EC5DBA7D9010EAF
:10331000E66E0DDA000E09D0E66A5F0E25DBAA0E16
:103320002EDA9CD9E66A03DAB40E29DA84EC14F0BA
:10333000146E090E65D0C3D84FD9500EE4DBC5DA40
:1033400054DB6BDAA9EC1DF003E112DB820EDBDB50
:1033500041DB3C0E14DA58EC15F0146E080E50D018
:1033600030EC1EF0E66EE66A320E6EEC1EF0B4D95A
:10337000320EE66EE66A500E6EEC1EF0A3DBF40E23
:103380001426D80E15220DEC1EF077D834EC14F06C
:103390001AD938D08BD8A0D976EC1EF0640E06D09E
:1033A00085D830EC1EF076EC1EF0820EE66EE66AF2
:1033B00056EC1EF089D9E15E185024D027DB8CD959
:1033C0005CD84EDA0EDB4B0ED1EC1EF05A0E13D049
:1033D0006DD85A0ED4D94AEC14F0146E060E10D0E3
:1033E00015DB6E0EBBDBFDDA730EB8DB030EE66E8B
:1033F00030EC1EF0820EC3D941EC14F0146E070EAF
:10340000E15E1450060EE15C02E2E16AE55261D031
:1034100076D8C4DB020EA2DA78EC6DF0E552E55204
:10342000BDDB060EEB6A070EEB6AE3D30201DE5149
:1034300006E1100E0E6F340E0F6F010EDE6F36D8E0
:10344000B4EC4FF0E552E552F3CF10F2F4CF11F2A5
:103450000E0E146E020E156E98D0E552E55206C09F
:1034600014F007C015F008C016F009C017F0DCEF23
:103470001CF0A7DB88D9E4EF1BF0FD0EDBCFE6FFE5
:10348000FE0EDBCFE6FF1200E552E552CAEF1CF05C
:10349000E66E8BDB20EF1EF0FB0EDBCFE6FFFC0EB3
:1034A000DBCFE6FF1200A4DA020E3AD2000EE66E7F
:1034B000E66A1200EECFE6FFEECFE6FFA9D3C5DA4B
:1034C00016DAF350E66E120069DB110E96DA020E80
:1034D000F0D2E16E8ED3146E070EE15E145012002E
:1034E000E66ED0EC6FF0E552FDEF1DF081DA79EF7A
:1034F0001EF07EDA040E14D2FAD909EF1DF0D9CFEE
:10350000E6FFE1CFD9FF120034DB040EE15C1200CC
:10351000010EDBCF14F0020EDBCF15F01200020E0D
:10352000E76EEBDAE750FCD1C7D9A9EC64F01C6E6A
:103530000D0EE15E1C5012001426000E15220DEF38
:103540001EF0D8801456000E1556040E14C0DBFF72
:10355000050E15C0DBFF6DDA0001800E1514120098
:103560000A0EE66EE66A1200166E060EE15E165050
:1035700011DAB1EF1DF03CDA120E3FDA0E0E99D2DD
:10358000F80EDBCFE6FF5BEF1EF014C0F3FFF46E26
:103590001200020EB2DAADDBE66A1200E66E30EF20
:1035A0001EF040DBAEEF1CF0E66ED0EC6FF0E552A3
:1035B00029EF1CF002EC28F0B9EF1DF0186E060E92
:1035C000E15E18501200166E070EE15E16501200F2
:1035D000E66E010EE66E1200140EE66EE66A12004A
:1035E000040EDBCFE6FF050EDBCFE6FF120079EC21
:1035F0003DF042EF1DF0E552E552040E06C0DBFF40
:10360000050E07C0DBFF060E08C0DBFF070E09C072
:10361000DBFF1200D9EC13F0146E080EE15E1450BB
:103620001200D950070FE96EDACFEAFF1200010E3F
:10363000F36E040EF3CFDBFF050EDB6A1200AE0E55
:10364000E66E230EE66E1200010EE66EF80EDBCF7C
:10365000E6FF1200010EE66EE66A120084EC14F03A
:10366000146E090EE15E1450120058EC15F0146E41
:10367000080EE15E14501200010EE66E020EE66EB8
:103680001200D880EE54000EED541200E66E320E99
:10369000E66EE66A1200280EE66EE66A1200010E79
:1036A000DBCFE9FF020EDBCFEAFF03D220D9F350D4
:1036B000F4101200186E0B0EE15E18501200156E19
:1036C00014C0E6FFE66E1200A0EC13F0186E080EB0
:1036D0001200E12693EF1CF03C0EE66EE66A120043
:1036E000F50EDBCFE6FFF60EDBCFE6FF1200010E94
:1036F000DBCFE6FF020EDBCFE6FF120017EC28F06F
:10370000B9EF1DF0F36E060EDBCFF4FFF350F45C5F
:10371000120098EC3FF01A6E090EE15E1A5012008A
:1037200084EC14F0186E090EE15E18501200410E80
:10373000E66EE66AE20EE66EE668120016C0E6FF86
:1037400017C0E6FF1200010EE66E040EE66E1200D0
:103750004AEC14F0146E060E1200640EE66EE66A71
:103760001200EC0EE66EE6681200A5EC6FF0E55272
:10377000E5522DEF1AF034EC6CF062EF1EF0E66EBD
:10378000E66A3DEF1AF0DBCFE6FF030EDBCFE6FF84
:10379000120033DAD950F70F1EDA07DA28DF05DA1C
:1037A0007BDE0FEC28F0B9EF1DF09BDADAD924ECC0
:1037B00068F080DF22DAF9D960DE1AEC28F084EFB5
:1037C0001AF0E66E56EF1AF0D2EC3CF0E552E552F4
:1037D00088DA166C171E000E1722F90EDB50165CE5
:1037E000146EFA0EDB501758156EB9DAE3D914C00F
:1037F000EEFF15C0EDFF020E1200D6DE3DDFA2EC9B
:1038000065F042DEC6DE070E1AEF1EF0D8801456B1
:10381000000E155602DA3DEF1AF034EC14F06BEF9F
:103820001AF02BDE05EC28F084EF1AF0B7D9020E5F
:10383000C1D940DE1FEC5BF097DE3DDABBDED9D1AB
:10384000D0D9060E70EF1AF0A2EC65F01DDE76EF0F
:103850001AF0020EF3CFDBFF030EF4CFDBFF1200F2
:1038600041EC14F06BEF1AF00FDE53EF1AF0F3CFC8
:1038700018F0F4CF19F075D9E66A12001FEC5BF06E
:103880009DDEBBD957DA91D9BEEF1EF0A4D9020E46
:1038900012001702F3CF17F01602F3CF16F0F45010
:1038A0001726FB0EDB50F324146EFC0EDB501720A2
:1038B00006DFE3DD90EF1BF0F3CF1AF0F4CF1BF03F
:1038C000B1EF1DF0EED9E3EF1AF0020EE66EB0EFA5
:1038D0001AF084EC52F0E552D7DD43D9E66A1200C3
:1038E000CCDDE4DDF1DEE15E185056EF1AF034EC89
:1038F0006CF0B9EF1DF0C8DDFCDD1FEF1BF0050E0D
:1039000074D90CEC10F039EF1AF0F9DDF70EDBCFBB
:10391000E6FF36DEC1DD62EC54F026DE3DEF1AF044
:1039200049D979EF1EF0F70EDBCFE6FFF80EDBCFBB
:10393000E6FF1200EAEC3CF090DD4CEF1AF051D9B2
:1039400070EF1AF0E96EDACFEAFF5AEF1AF0020EC2
:1039500025DE88EF1AF07EDE56EF1AF02BD958D10B
:10396000CEDD020EE1261200E66EE66A56EF1AF090
:10397000020EE66EECEF1AF018D9A8D9020EE15C3F
:103980001200E8EC4EF080DD76EF1AF098DD24DED0
:10399000B0EF1AF0F3CF14F0F4CF15F012001CECD6
:1039A00014F06BEF1AF0140EF36E010EF3CFDBFF81
:1039B000020EDB6A56EF1AF006C0E6FF07C0E6FF0C
:1039C00008C0E6FF09C0E6FF120086DE64DE94DD73
:1039D00056EF1AF0030EFCDDB0EF1AF070DDB0EF19
:1039E0001AF0030EE66EB0EF1AF0B7DE3DEF1AF0F4
:1039F000DECFE9FFDDCFEAFF1200DCD8EE50EFCFDB
:103A0000EAFFE96E1200020EE8EF1AF0030ECEEFA5
:103A10001AF0DE52F2D8DD521200ADDDEECF14F016
:103A2000EFCF15F01200BDDDEAEC3CF0E552E552B7
:103A30001200040EDBCF14F0050EDBCF15F01200E0
:103A40002BDD0FEC28F084EF1AF0030EE66EE66A29
:103A5000020EE66EE66A1200E66EE66A81DD3DEF72
:103A60001AF06ADD0ADD1CEF14F02EDDD1D005DD81
:103A70001CEC14F0186E070E120087EC6CF0E55287
:103A8000E5521200146E060EE15E14501200E66E4E
:103A9000020E48EF1AF0E66EE6683DEF1AF09CDD84
:103AA0003DEF1AF002EC15F06BEF1AF0F4DD3DEF8C
:103AB0001AF0DAEF1DF085DEEFDCB5EF1BF081DEEA
:103AC000C2EF1EF08BDF50DF56DE0A0E9FDE34ECB5
:103AD00014F079DD5BDF61D9D89014361536120009
:103AE00077DDE4DC4FD91FEC5BF0DEEF1AF02ED966
:103AF00038DEC3DC92DE97EF1EF0DBCFE9FF030E6A
:103B0000DBCFEAFF12003BDE0DEF1CF0E4EC10F01F
:103B10000BDD9FDED950F70FB9DE35DE68DD25D924
:103B200020EF1DF000DFF70EDBCF16F0F80EDBCF35
:103B300017F0166C171E000E172200DE1CDE4FEF6A
:103B40001BF0E66ED950F90FA1DEE66E1CDE69EFC0
:103B50001CF001DF10DEF350F410120010DE30EF25
:103B60001CF0F3CFE6FFF4CFE6FF12000CDE11EFFE
:103B70001CF0E552E552E552E55212006ADEDAD851
:103B8000F4D8BEEF1EF02CDD65DDF5DD010EF31877
:103B9000120082DCFDEC68F034EF1CF0FD0EDBCF90
:103BA000E9FFFE0EDBCFEAFF1200DECFE6FFDDCF3E
:103BB000E6FF1200E926000EEA22120009DD41EFBD
:103BC0006AF07ADE01EC5CF01C6E0E0EE15E1C50B9
:103BD00040DE020E1200E96EFF0EDA20EA6E5AEFA6
:103BE0001AF08DDC040EE1261200E66E030E48EF9B
:103BF0001AF0E552E7CFD9FF1200F3CFDEFFF4CF82
:103C0000DDFF12003ADCA4DDE15E1450B8EF1CF0D9
:103C1000EECFE6FFEFCFE6FF120014C0E6FF15C0BF
:103C2000E6FF1200FB0EDBCFE9FFFC0EDBCFEAFF65
:103C3000110E1200E66EE8EC6BF026DC8FEF1AF046
:103C400084EC52F0E552E552E55237EF1CF03DDED0
:103C500026DF06DE020E12006AD828DFCFEF1CF046
:103C60001E0EE66EE66A120098D8D890F450120044
:103C7000E7DDC9DE24EF1CF0E3DDE6DC24EF1CF019
:103C80003BDC23DE88EF1AF01DDE65DE56EF1BF00D
:103C9000BDDD1CEC14F0E3EF1AF058D839DC500EFF
:103CA00012004ADC3DEC1AF041EF14F05EDD3DEC11
:103CB0001AF056EF1AF0F90EDBCFE6FFFA0EDBCF63
:103CC000E6FF1200E552E55244EF1AF04CEC1AF010
:103CD000DAEF1AF03DEC1AF09AEF1CF050DD0AEF23
:103CE0001BF0F3CF16F0F4CF17F012003EDD70EFAB
:103CF0001CF0F3CFEEFF15C0EDFF12004ADF200EDF
:103D0000E66E030EE66E96EC58F0F5DD0A0EE66EF2
:103D1000270ED1DEF4DDB6EF1DF039EC1AF0EDDE42
:103D2000130E48DF010EEF6E020EB6EF1DF0020E0D
:103D3000E1EF1BF03DEC1AF0EAEC3CF02DEF1AF04D
:103D4000E66A2C0EE66E250E5FEF1DF0030EE1EF26
:103D50001BF0D1DD000EE66E260E5BEF1DF0020EAD
:103D6000CCDE020E27DF020E1200020EC3EF1BF0A4
:103D7000E66E460EE66E250E5BEF1DF069EC3DF03B
:103D8000DEEF1AF0E66EE66AB5EF1BF039EC1AF0DA
:103D9000B6EF1DF013DF34EF1CF056EC1AF0BBEF5A
:083DA0001BF0DCDE06EF1DF054
:083DA8000F0146510AE1000180
:103DB000030E846FB80E826FB10E836F0F01010E78
:103DC000466F800E146E000EFDEF24F00F01475178
:103DD0000AE10001010E896FD30E876FB10E886F63
:103DE0000F01010E476F850E146E000EFDEF24F0DB
:103DF0000F0148510AE10001010E8E6FDC0E8C6F3D
:103E0000B10E8D6F0F01010E486F8A0E146E000EF9
:103E1000FDEF24F00F0149510AE10001010E936FFB
:103E2000E50E916FB10E926F0F01010E496F8F0E6B
:103E3000146E000EFDEF24F00F014A510AE100015B
:103E4000010E986FEE0E966FB10E976F0F01010E77
:103E50004A6F940E146E000EFDEF24F00F014B51CB
:103E60000AE100010B0E9D6FF70E9B6FB10E9C6F68
:103E70000F01010E4B6F990E146E000EFDEF24F032
:103E80000F014C510AE100010B0EA26F5A0EA06FF8
:103E9000B20EA16F0F01010E4C6F9E0E146E000E3C
:103EA000FDEF24F00F014D510AE10001060EA76F4E
:103EB000BD0EA56FB20EA66F0F01010E4D6FA30EC2
:103EC000146E000EFDEF24F00F014E510AE10001C7
:103ED000010EAC6FF30EAA6FB20EAB6F0F01010EA5
:103EE0004E6FA80E146E000EFDEF24F00F014F511F
:103EF0000AE10001100EB16FFC0EAF6FB20EB06F91
:103F00000F01010E4F6FAD0E146E000EFDEF24F089
:103F1000B1EC26F0090E33EC26F0140E33EC26F04B
:103F2000D2EC26F013EC25F0D3EF24F0B4EC26F01D
:103F3000070EE66E040E91EC24F01FEC5BF060ECD3
:103F400025F04BEC26F0BBEC24F0EAEC3CF0E5521B
:103F5000E55270EC26F0F6EC25F08AEC26F069ECE0
:103F60003DF060EC25F08AEC26F0FB0EDBCFE6FF9F
:103F7000FC0E2CEC25F083EC24F01E0E8FEC26F0CA
:103F8000000806E283EC24F01E0E96EC24F0EF0607
:103F9000BAEC25F0140E96EC24F0EE2AEF22020E75
:103FA000E15C02E2E16AE552E16ED3EF24F0D9CFA1
:103FB000E6FFE1CFD9FFFD0EDBCFE9FFFE0EDBCF41
:103FC000EAFF100EE926000EEA22EECF14F0EFCF42
:103FD00015F014C0E6FF15C0E6FFFD0EDBCFE6FFCF
:103FE000FE0EDBCFE6FFF9EC3CF0E552E552E55280
:103FF000E7CF15F0E552E7CF14F006C016F007C082
:1040000017F008C018F009C019F006C0E6FF07C095
:10401000E6FF08C0E6FF09C0E6FFFB0EDBCFE6FFC8
:10402000FC0EDBCFE6FFFD0EDBCFE6FFFE0EDBCFA7
:10403000E6FF04D015C0FAFF1450F96EFBDF1A6ECC
:10404000080EE15E1A50E552E7CFD9FF1200CEEC20
:1040500024F00A0EE66EE66AA7EC25F079EC26F06D
:104060001FEC5BF0166E060EE15E1650B8EC26F003
:1040700095EC26F0F90EDBCFE6FFFA0E2CEC25F0DE
:10408000D3EF24F0B7EC25F0050ECAEC25F09EDE48
:10409000FFEC25F002E2E16AE552E16ED3EF24F095
:1040A000B7EC25F0080ECAEC25F0A2DEFFEC25F0F7
:1040B00002E2E16AE552E16ED3EF24F0B7EC25F0BD
:1040C0000C0ECAEC25F0A6DEFFEC25F002E2E16A58
:1040D000E552E16ED3EF24F0B7EC25F0140ECAECF4
:1040E00025F0AADEFFEC25F002E2E16AE552E16E7E
:1040F000D3EF24F08BEC25F0010EE66E020ED2EC2D
:1041000025F0ACDEA8EC24F0C5EC24F002E2E16A74
:10411000E552E16ED3EF24F08BEC25F0020EE66E53
:10412000D2EC25F0ADDEA8EC24F0C5EC24F002E2E0
:10413000E16AE552E16ED3EF24F0CEEC24F0E6EC38
:1041400024F0040FE96EDACFEAFF0A0EEE5E000EED
:10415000ED5AD95044EC25F07FEC26F0040EEADB52
:10416000070E7DEC25F0E3EC25F0040EE3DB090EF1
:104170007DEC25F0060EE15C02E2E16AE552E16EBB
:10418000D3EF24F0B7EC25F0040E6FEC25F0F90E18
:10419000E66EA2EC65F0F6DB080E73EC25F0D8DBDA
:1041A000B9DB7AEC25F09AEC26F0C7DF146E080E26
:1041B000E15E1450020EE15C02E2E16AE552E16E5A
:1041C000F2D3ECDBE6EC24F044EC25F0D950040FFC
:1041D000E96EDACFEAFF050EEE5E000EED5A7FECD7
:1041E00026F0030EA7DB060E7DEC25F0E3EC25F0B0
:1041F000030EA0DB0A0E7DEC25F07AEC25F09AEC9C
:1042000026F0C0DF146E080EE15E1450060EE15C6D
:1042100002E2E16AE552E16EC6D3C0DB040EE1269C
:10422000F5DBFA0EE66EA2EC65F0C1DBEADBA7EC8B
:1042300025F0C5EC26F050EC26F0030E0D6E0E6A4C
:1042400016C008F017C009F0A7EC6CF008C016F013
:1042500009C017F008C0E6FF09C0E6FFAEEC44F065
:1042600058EC26F0E66A020ED2EC25F02DDE70DB6B
:10427000E5DB7AEC25F0A3DB17EC26F0A0DBBDEC48
:1042800026F0BAEC25F0C5EC26F0EE2AEF22040E5B
:10429000E15C02E2E16AE552E16E85D37FDB0FEC7F
:1042A00026F0EF50020A66E0030A35E0010A01E059
:1042B00079D0DAEC25F0EF50030A21E0010A16E08C
:1042C000030A0BE0010A1BE1AAEC25F0840EEE6E56
:1042D000400EC5EC25F0090E1AD0AAEC25F0A00E70
:1042E000EE6E400EC5EC25F0070E28D0AAEC25F0A6
:1042F000BC0EEE6E400EC5EC25F0060E08D0AAEC02
:1043000025F0D80EEE6E400EC5EC25F0040EDEEC66
:1043100025F0010E46D0DAEC25F0010E8FEC26F0E8
:10432000020A1CE0030A0EE0010A18E1AAEC25F0DB
:104330003A0EEE6E410EC5EC25F00A0EDEEC25F0CD
:10434000020E2FD0AAEC25F0840EEE6E410EC5ECC5
:1043500025F0050EDEEC25F0030E23D0AAEC25F0A7
:10436000C20EEE6E410EC5EC25F0020EDEEC25F01D
:10437000040E17D0DAEC25F0020E8FEC26F0010ABD
:1043800007E0010A05E1E6DBF40EEE6E400E04D014
:10439000E1DB180EEE6E410EF8DB050EDEEC25F0CB
:1043A0001C0EEF6E00D3FADA0A0EE12695EC51F0FE
:1043B00045DB86EC51F037EC26F047DB030E8FEC43
:1043C00026F00BE00FEC26F0EF2AEF50030803E194
:1043D0000FEC26F0EF6ACFDA78DB37DBEE52EF50E6
:1043E00013E007EC26F0EFCF14F0060E145C19E290
:1043F000C8EC26F088DA220E99DAEFCF14F007EC39
:1044000026F01450EF260CD007EC26F0EF500008F1
:1044100008E279DA230E8ADAEF0603E1F8DBEF0629
:10442000DADB13DBEF5026E06EDA1F0E8FEC26F09E
:10443000000826E2F8DBEF5023E18CDB080EEECF1C
:10444000DBFF090EEDCFDBFF85DB1A0EEE6E420EB1
:10445000ED6EC8EC26F07EDB080EDBCFEEFF090E1A
:10446000DBCFEDFF50DA1F0E61DAEF06DCDB320E38
:10447000EF6E06D0D8DBEF50000802E2D4DBEF0687
:1044800073DA060E8FEC26F01CE061DBEE06ED5AC7
:104490002DDBE8DA04E7FB0E145CFF0E15585BE237
:1044A00092EC26F0D880155004E7F60E145CFF0E4F
:1044B000155804E21BDBF60EEE6EED685CDA8AD965
:1044C00048D052DA070E8FEC26F01BE040DBEE2AD4
:1044D000ED220CDBDEDA3FE214500508000E155425
:1044E0003AE292EC26F0153409E214500A08000E64
:1044F000155404E2FBDA0A0EEE6EED6A3CDA6ED970
:1045000028D0F4DA74DA0001800E151404E0EEDA33
:10451000EE2AEF2209D092EC26F0153405E2DADA21
:1045200003E2E4DAEE06EF5A92EC26F0153404E3E7
:104530001450FB08FF0E15540EE2D8DAB1DBD89008
:10454000175004E6050E165C000E175804E213DA45
:1045500049D9E552E55208DA040EE1DB0DE0A5DBAE
:1045600081DA04E7F30E145CFF0E155829E29DDB97
:10457000F30EEE6EED6824D0F7D9050ED0DB0DE01A
:1045800094DB87DA1DE214500D08000E155418E272
:104590008CDB0D0EEE6EED6A13D0A8DA28DA00017E
:1045A000800E171404E081DBEE2AEF2209D07DDBB8
:1045B00035DA153405E28EDA03E277DBEE06EF5AE0
:1045C000B1DB040E7FDB0850EE261550ED226DDBCB
:1045D00025DA030E77DBD9DB0850EE261550ED22E5
:1045E000B6DA05DA0001800E151404E0B0DAEE6ADE
:1045F000ED6A18D0C0D9CFEC3CF0E552E552060E7A
:104600009CDB4FDA0FE21450A008000E15540AE2AA
:10461000060EDB50146E156AA00E96DB14C0EEFF7A
:1046200015C0EDFF94DAE3D90001800E171405E000
:104630008EDAABDBEE6AED6A1AD09DD9D2EC3CF093
:10464000E552E552070E79DBA0DB2BDA10E21450BD
:10465000F508000E15540BE2070EDB50146E156AB8
:10466000F50E72DB92DB14C0EEFF15C0EDFF86DAAB
:10467000E9DA38EC63F049DB000E146E0A0EE15CF7
:1046800002E2E16AE552E16E14508DD16ADB0B0E55
:104690004DD9060EEF6E000E61DA28DAECD9B7DAE2
:1046A000EF6A99DA68D95DEC3DF0E552E55297EC96
:1046B0003DF016DB9BDA5FD973EC3DF001DA73D184
:1046C0006DD9040EE126250EE66ED0EC6FF0E552B2
:1046D000B5D94AD9100EEE6E3F0EED6E45D955DBB9
:1046E000FB0EDBCFEEFFFC0EDBCFEEFFFD0EDBCFD4
:1046F000EEFFFE0EDBCFEEFF37D90C0E17D92C0ED6
:10470000EE6E3F0EED6E30D90E0E10D9AE0EEE6E7F
:104710003F0EED6EA60EE66E430EE66E70EC63F095
:10472000E552E55271DA090E01D96BD9D4EC1EF0CD
:104730006BDA060EFBD865D942D95DEC3DF0E55247
:10474000E5523DD911EC46F0E552E5525DDA140E22
:10475000EDD857D903DA08D9160EE8D88CD904D980
:10476000210EE4D8EF6A00D91E0EE0D8030EEF6EDA
:10477000FBD8200EDBD8320EEF6EF6D81F0ED6D83F
:10478000030EEF6E1AEC6EF03FDA0CDB3AD9ECD880
:104790001B0ECCD8020E61DA010E5FDAEF6EE4D8A0
:1047A0001A0EC4D8EF6A0BD990D909D96FDFE55238
:1047B000E552020EDBCF14F0030EDBCF15F014C070
:1047C000F3FF15C0F4FF040EE15C02E2E16AE5527A
:1047D000E16EE9D020DA020EEF6EE5D01CDA010EB0
:1047E000EF6EE1D018DAEF6ADED0D8D8E3D9E9CF9E
:1047F00014F0EACF15F013DAEF500F011424E96E2C
:10480000000E1520EA6EEF2AB6D85FD9CCD0ACDA0C
:10481000FB0EDBCFE9FFFC0EDBCFEAFF120E7FDAE7
:10482000070DF350DE6EDD6AFA0EDB500DE0D9CFD6
:10483000E9FFDACFEAFF010E0F0B06E0EC52D89049
:10484000ED32EF32E806FAE195D9100E6FD8EE2A74
:10485000EF2260DA90D81AD858DA020EE15C02E250
:10486000E16AE552E16E9FD099D8FC0EDB50146EE0
:10487000156A80D9160E02DAFC0EDBCFE6FF7BD874
:10488000A3EC67F0E552E552E5528DD087D811D9F7
:10489000153402E21FD917E36DD984DABFD8FB0EB5
:1048A000DBCF16F0FC0EDBCF17F0166C171E000ED8
:1048B00017221650145C1750155805E25BD972DAAE
:1048C000EE6AED6A04D0F5D855D9120ED7D96BD05F
:1048D00065D851D866EC3CF0E552E552B3D966ECA8
:1048E0003CF0E552E5525FD059D864D94EDAEFCFAB
:1048F00015F060D9010E1AD8EFCF14F05BD9EF5044
:104900001424152450D0FD0EDBCFE9FFFE0EDBCFC3
:10491000EAFF1200C0D9EED8FDD989D9FBD9BDEF85
:1049200026F0E66E000E1AD9F6EF25F0E926000E05
:10493000EA221200E66E070EE66ED95021DAD9D9C6
:10494000D9D898EC3FF01A6E090EE15E1A507FD16B
:10495000F3CF1AF0F4CF1BF0E8D9A9EC64F01C6E89
:104960000D0EE15E1C501200020EDBCFE9FF030EBC
:10497000DBCFEAFF1200FD0EDBCFE6FFFE0EDBCF42
:10498000E6FF1200E552E55262D171D9B3D87CD965
:104990004ED97AD9F2D9060EE15C1200D9CFE6FFE2
:1049A000E1CFD9FF1200E552E7CFD9FF1200E5525F
:1049B000E552DED9DECFE9FFDDCFEAFF1200020EBD
:1049C000DBCFE6FF030EDBCFE6FF1200060EE1268B
:1049D000C1D9020EEECFDBFF030EEECFDBFF040EDC
:1049E000EECFDBFF050EEECFDBFFD9501200EECF8E
:1049F00014F0EECF15F050EF26F014C0F3FFF46E74
:104A00001200F3CFEEFF15C0EDFF1200E66ED0EC02
:104A10006FF0E55240D9010EE66E1200EECF14F0B1
:104A2000EFCF15F01200B9D978EC6DF0E552E552F0
:104A30001200EE50EFCFEAFFE96E1200020EF3CF44
:104A4000DBFF030EF4CFDBFF1200040EDBCFE9FF28
:104A5000050EDBCFEAFF1200DBCFE6FF02EC28F009
:104A600085EF26F0EE06ED5AEECF14F0EDCF15F0FF
:104A7000D8801550120006C0EEFF15C0EEFF16C01C
:104A8000EEFF17C0EEFF12007BD9EE06000EED5AC6
:104A90001200EE2AED22EECF14F0EDCF15F0153412
:104AA00012001650EE24146E1750EE20156EE834E6
:104AB0001200FB0EDBCF14F0FC0EDBCF15F0120062
:104AC000186E060EE15E185012004EEC21F0E55211
:104AD000E552120014500008000E15541200E66E44
:104AE000010EE66E1200E66E76EF1FF00CDF160E7A
:104AF00096EF24F02FD979EF26F0F5DFF3CF1BF0F6
:104B0000F4CF1CF012D9A9EC64F01D6E0D0EE15E1D
:104B10001D508AEF24F042DF060EE126FD0EDBCFAA
:104B200008F0FE0EDBCF09F0020E08C0DBFF030E1B
:104B300009C0DBFF040E6ADF060EE66EE8EC6BF0E0
:104B400036DF5FDF3CDF6BEC6BF058EF26F0DBDE2F
:104B5000C5EF26F0D8DE100E96EF24F0E66EE66A7A
:104B6000E66EE66AA5EC6FF0D0D870EF26F0FCD8C0
:104B70007FEF26F0C8DE16D919EF25F0FB0EDBCF4C
:104B8000E6FFFC0EDBCFE6FF1200ED6EBCDE240E6E
:104B900096EF24F0A4DFF70EE66EA2EC65F0F2DEED
:104BA000E66A1200E66EB6D884EC52F0E552EADE10
:104BB000E66A1200A8DE1B0E96EF24F0EF6EA3DE6D
:104BC000220E96EF24F0D950DBD8020EEE26000E0E
:104BD000ED227FEF26F097DE240EA1D8E66E93DE5D
:104BE000230EA4DEE552E750EF6E120006C0E6FF8A
:104BF00007C0E6FF08C0E6FF09C0E6FF1200A8DE16
:104C000089DE020EE15C1200B3D8B4EF24F07BDE43
:104C1000210E96EF24F0A5D8080E96EF24F073DE4F
:104C20001A0E96EF24F06FDE200E96EF24F073EC50
:104C30003DF0146E060EE15E145012000AEC28F0EE
:104C400085EF26F060DE140E71DECDEF26F0F3CF97
:104C500018F0F4CF19F095EF26F068DEEF6A84DEE5
:104C60001B0E96EF24F062DEDEDE83EF24F0040EEE
:104C7000F3CFDBFF050EF4CFDBFF120057DE14503D
:104C8000EE261550ED221200040EDBCFE6FF050ED6
:104C9000DBCFE6FF1200F3CFDEFFF4CFDDFF120023
:104CA000EECF16F0EFCF17F0120020DFC5EF26F0A1
:104CB0007EDE6BD8A6DE010EE66E680EE66ECA0ECC
:104CC00091EF24F00D6E0E6A14C008F015C009F0C3
:104CD000A7EC6CF008C014F009C015F0A7EF25F0A0
:104CE00006C014F007C015F008C016F009C017F090
:104CF0001200EECFE6FFEECFE6FFCDEF26F0E66A3C
:104D00004E0EE66E400E91EF24F0E552E552E5526C
:104D1000E5521200DECFE6FFDDCFE6FF120006DE31
:104D2000EF501200E3DE0EEF25F0F3CFE6FFF4CFF5
:104D3000E6FF120023DFBBEF24F0F3CFDBFFDB50F5
:104D4000166E176AA7EF25F0D8801456000E155678
:104D5000A7EF25F0D950F70FE96EFF0EDA20EA6EC3
:104D600012001CDE83EF24F019DE020EE126120091
:104D7000F3CF14F0F4CF15F0120000DF1EEF26F091
:104D8000020FE96EDACFEAFF1200020E96EF24F06E
:104D9000D1DFBFEC67F085EF26F0EECFE6FFEFCF77
:0A4DA000E6FF1200120E96EF24F059
:064DAA00C3DB020EE1264E
:104DB00095EC51F0E2DBBFEC2BF0EE52EF500EE041
:104DC000BFEC2BF0EF500AE0BFEC2BF0030EC3DB7F
:104DD00005E00201FF0705E1010E04D00201190EF2
:104DE000FF6F000E146E020EE15C02E2E16AE55212
:104DF000E16E1450A3D39DDB020EE12676EC2BF07E
:104E00003EEC2BF003E015EC2BF0FAD74FEC2BF037
:104E10003EEC2BF003E015EC2BF0FAD77AEC2BF0FC
:104E20003EEC2BF003E015EC2BF0FAD77EEC2BF0E8
:104E30003EEC2BF002E0F9DBFBD782EC2BF03EECF2
:104E40002BF002E0F2DBFBD726DB0D0E2DDB3EEC78
:104E50002BF002E0EADBFBD786EC2BF03EEC2BF0EC
:104E600002E0E3DBFBD717DB030EBBEC2BF0050EF8
:104E7000BBEC2BF0070EBBEC2BF0090EBBEC2BF0C0
:104E80000B0EBBEC2BF00D0EBBEC2BF00F0EBBECA6
:104E90002BF01B0EBBEC2BF0150EBBEC2BF0170E02
:104EA000BBEC2BF0190EBBEC2BF01D0EFBDA3ADB42
:104EB0008AEC2BF037DBACDB35DBEDDA130EF2DA04
:104EC0009EEC6DF0E552E552020EE15C02E2E16A11
:104ED000E552E16E33D32DDB060EE126280EE66E99
:104EE000D0EC6FF0E5525ADBF6DAF60EEE6E4D0EB0
:104EF000ED6EE6EC2BF0030EA2DBA1DB070E9FDBD1
:104F0000090E9DDB0B0E9BDB0D0E99DB0F0EFDDA00
:104F1000E2DA130EAFDBFB0EDBCFEEFFFC0EDBCFD6
:104F2000EDFFD9DA110EA6DBFD0EDBCFEEFFFE0E94
:104F3000DBCFEDFF97EC3DF0BADBB9DA73EC3DF077
:104F4000186E060EE15E1850E60EE66EE66A820EF8
:104F500053DBABEC5DF082DB150ED7DAE60EE66EC6
:104F6000E66A010E49DBCFEC61F078DB170ECDDA93
:104F7000030EE66EE66A9B0E3FDB6AEC62F06EDBC8
:104F8000190EC3DADC0EE66EE66A9A0E35DB1FEC0C
:104F90005FF064DB1B0EB9DADC0EE66EE66A010E2A
:104FA0002BDBBFEC4DF05ADB1D0EAFDA94DA270E87
:104FB000C1DB1F0EEB6A200EEB6A8DDA210ED9DA07
:104FC0008ADA220EB7DB230EB5DB250ED2DA83DABE
:104FD000260EB0DB020ECDDA040EDBCF14F0050E88
:104FE000DBCF15F014C0F3FF15C0F4FF060EE15C33
:104FF00002E2E16AE552E16EA1D29BDA4CDA020EDE
:10500000AADA9CD232DB030E1DD3D5DB0E0E24DBD5
:10501000050E18D3D0DB040E1FDB070E13D3CBDB3A
:105020000C0E1ADB090E0ED320DB0B0E0BD31DDB8F
:105030000D0E08D3C0DB080E0FDB0F0E03D3D2DA40
:10504000030E05D3CFDA050E02D3CCDA070EFFD25A
:10505000C9DA090EFCD2C6DA0B0EF9D2C3DA0D0E8C
:10506000F6D2C0DA0F0EF3D264DA050EE12613DAB7
:1050700064DB1CEC50F00FDB0D0E16DA33DA02E0C5
:105080001DDAFCD743DB2EDA02E018DAFCD736DB78
:1050900029DA02E013DAFCD702DB24DA02E00EDAC6
:1050A000FCD728DB1FDA02E009DAFCD787DB09E14D
:1050B000F2D9210E50DA05E0ABDA68EC24F0E552C3
:1050C000E55214DB0FDA02E0F9D9FCD71BDB0ADA70
:1050D00002E0F4D9FCD7E7DA25E1DDD9170E7BDB56
:1050E000150E79DB190EDED9B8EC62F0D4DA1B0E9E
:1050F000D9D96DEC5FF0CFDA1D0ED4D952EC4DF05A
:10510000E552E552E66A020EE66EE66A69DBCFDA40
:1051100088DA120EC7D98BEC3AF0186E070EE15EF2
:10512000185005D0F7DA8DEC33F0E552E552050E54
:10513000E15C02E2E16AE552E16E00D2FAD9040EC6
:10514000E126A9D9250E07DA38E0B1D928DB140EFB
:10515000A9D92DDBA0D9260E42DAEF50020831E1A1
:1051600057DAD2EC3CF0E552E552F8D9F00ED8808F
:105170001456000E15560A0E145E000E155A020E35
:1051800014C0DBFF030E15C0DBFF09DB33DB32DBB2
:10519000EE06ED5AEECF14F0EDCF15F0020EDB5017
:1051A000141807E1030EDB50151803E174D9250E1E
:1051B000DAD971D9260ED7D904D000DB02E1ECDAB6
:1051C000F6DAACDA1BE067D9230E09DAEF0416E150
:1051D00062D9210EC0D902E0000E01D0010EE66EA8
:1051E0005AD9210E47DAE552E750EF6E79DAF7D94E
:1051F000EF50640803E14FD9220EB5D954DA19E013
:1052000089DAD9EC32F0B3DA14E045D91F0E4CD963
:105210000D0E48D96EEC31F0E552E5529FD901DA16
:10522000120E28DAF350EE261550ED2234D9020E74
:105230009AD9E3DA170E45DA150E43DA7EDAB7DAD1
:1052400032DA06E1DADA130E2DD98BEC6AF03ED9A8
:105250004DDA55D960D908E0DFD904E1EAD9EFDEAB
:1052600006DAF8D78CDAF5D71ADA49D954D908E032
:10527000D3D904E1DED9E6DEFAD9F8D780DAF5D75A
:1052800039DA3DD948D908E0C7D904E1D2D9DDDE01
:10529000EED9F8D774DAF5D731DA31D93CD908E04C
:1052A000BBD904E1C6D9D4DEE2D9F8D768DAF5D79C
:1052B0002DDA25D930D908E0AFD904E1BAD9D1DE49
:1052C000D6D9F8D75CDAF5D71DDA19D924D908E090
:1052D000A3D904E1AED9BFDECAD9F8D750DAF5D7E1
:1052E000DAD80D0EE1D80BD916D908E095D904E12A
:1052F000A0D9B4DEBCD9F8D742DAF5D7D4D930E199
:1053000054DD000901E07CDA59DA2AE0C4D8030E42
:10531000C9D8B3EC4AF02BDA23E041DA1E0E1BD9D0
:105320000EE1B9D8270E25D973D9CCEC31F0E5526E
:10533000E552F4CF15F0AFD81F0EE7D811D068D9D9
:1053400046EC23F0A8D9220E14D9CAD90CD9A3D877
:10535000210E0FD9A0D8250E0CD99DD8260E03D921
:10536000040EE15C02E2E16AE552E16EE7D0E1D8C9
:10537000070EE12694D93EDA020EEECFDBFF030ED4
:10538000EDCFDBFF07D930E0060EDB6A84D8070ECD
:1053900089D8CDD89CEC53F06AD9BDD81BE041D94F
:1053A000060ED5D9AAD801D9CDD9C1D8A3EC67F0BA
:1053B000E552DDD908E0010EF36E060EF3CFDBFFF8
:1053C00076D8B5D889D9D2D80E0EC5D803E131D94F
:1053D0003CDE7CD8060EDB5005E0E66A07DA51D9E0
:1053E000EBD8D0D772D9C7D7E9D94EE154D8090E36
:1053F000DAD93DD990D811E0CFD97FD8D6D88ED977
:1054000005E1A0D905D9E6D801E0FAD9AFD80E0E4A
:10541000A2D803E10ED91CDE59D83DD80F0EC3D94E
:1054200055D8BCD8D950040F7DD912E0B5D953D87E
:10543000C8D97AEC68F0146E060EE15E1450040EC2
:10544000DBCFE6FF050EDBCFE6FF31D80ADE3ED824
:1054500022D8050EA8D93AD8AFD89CD815E035D9AE
:1054600081D9130E78D810E159D906E1020EE66E03
:10547000CFD8B0D801E0C4D9010EE66EB7D9D1D8E3
:10548000180E65D929D9FDD8070EE15C02E2E16A60
:10549000E552E16E53D0FD0EDBCFE9FFFE0EDBCF10
:1054A000EAFF1200E7D844D1E5D8B2EF2BF0FD0EA9
:1054B000DBCFE6FFFE0EDBCFE6FF12004CD981D931
:1054C00066EC3CF0E552E552ABEF2BF0E552E552CD
:1054D000E552E5521200040EDBCFE9FF050EDBCFEB
:1054E000EAFF120087D9030EEECFDBFF040EEDCFEB
:1054F000DBFFD950030F92EF2BF041D919D17AD9A4
:10550000EECFDEFFEDCFDDFF1200B4D8F3CFEEFF1C
:1055100015C0EDFF1200D9CFE9FFDACFEAFFEE5058
:10552000ED10120078EC6DF0E552E5521200CDD886
:10553000FFD0D9CFE6FFE1CFD9FF1200E552E7CF88
:10554000D9FF120006C0E6FF07C0E6FF08C0E6FF6D
:1055500009C0E6FF12008ED8EF501200F3CF14F00E
:10556000F4CF15F0120086D8EF6A120008D9B2EF16
:105570002BF080D8010EEF6E1200F3CFDEFFF4CFD8
:10558000DDFF120077D8EE2AEF221200B7EC67F0A9
:10559000B7EF2BF0D950020F92EF2BF0040EF3CFA0
:1055A000DBFF050EF4CFDBFF120002EC65F0146E9A
:1055B000060EE15E14501200020EF3CFDBFF030E65
:1055C000F4CFDBFF120007EC24F0146E050EE15E51
:1055D0001450120034EC24F0E552B7EF2BF04AD807
:1055E000EF2A1200A6DFFB0EDBCFE9FFFC0EDBCFBC
:1055F000EAFFE7D897DFC8D0F3D806C016F007C097
:1056000017F008C018F009C019F09CDF57EF2AF016
:1056100042DF110E52EF2AF04ADF6FDFC8D80108CF
:105620001200BDD8120E54EF2AF067DF7BDFBFEF08
:105630002BF0DECFE6FFDDCFE6FF57EF2AF065DF88
:10564000E6EF2BF02FDF2EEC4AF040DF77D72ADF92
:1056500047EC4AF03BDF72D795DF96D01A6E060E04
:10566000E15E1A507BDF6BEF2AF063DF8DD02EDF17
:10567000BDEF2AF0E926000EEA22120040DF8BEF90
:105680002AF0020EDBCFE6FF030EDBCFE6FF0FDFD3
:10569000D9DC66EF2AF0E552E5524BEF2AF0FBDE4B
:1056A000050E54EF2AF0F7DE270EABEF2AF006C006
:1056B00014F007C015F008C016F009C017F0A2EFEB
:1056C0002AF0F0DE74D8FDEF2BF0020EDBCFE9FFFD
:1056D000030EDBCFEAFF120061EC67F066EF2AF001
:1056E000DADE230E40DFD7DE240E1200D4DE030EF6
:1056F00054EF2AF0D0DE070E54EF2AF0CCDE090E6C
:1057000054EF2AF0C8DE0B0E54EF2AF0C4DE0F0E61
:1057100054EF2AF0C0DE1F0E52EF2AF0BCDE220E3C
:10572000ABEF2AF0E96EDACFEAFFEE50ED1012008F
:10573000E1EF2BF018DF6BEF2AF0130EB5DE020E4F
:1057400052EF2AF013DF0B0E06DFE66E12001ADFAF
:10575000AEDE97EF2AF0030EDBCFE9FF040EDBCFBE
:10576000EAFF1200EE50EFCFEAFFE96E1200E552B9
:10577000E5520009120096DED5DE4BEF2AF0DECFAF
:10578000E9FFDDCFEAFF1200FB0EDBCFE6FFFC0EE8
:10579000DBCFE6FF4BEF2AF08ADE08EF2BF07BDE53
:1057A000110E54EF2AF07EDE33DF9CEF53F038EC1D
:1057B00063F066EF2AF0BDDE11EF2BF029DFC6EFB4
:1057C0002AF0EECFE6FFEFCFE6FF120012EC4AF030
:1057D000C5DE6BEF2AF066DE66EC3CF04BEF2BF09B
:1057E000E66EE66AA5EC6FF066EF2AF0A0DE10DF49
:1057F000E3EF2AF0020E3AEF2BF059DE4BEF2AF0DE
:06580000CBDF6CEF2BF082
:0A5806000101FE510AE10F01010E3D
:10581000366F0A0E346FE20E356F0101010EFE6F16
:10582000320E146E0F0E14C0F3FFF46E120001015D
:10583000FF510AE10F01010E3B6F130E396FE20EAB
:105840003A6F0101010EFF6F370E146E0F0E14C078
:10585000F3FFF46E120034EC30F0020EE126A3ECFC
:1058600030F020EC31F04DEC30F00BE09EEC30F0FD
:1058700012EC31F0DEEC6FF0E552E5529EEC30F0C8
:10588000F0D7AAEC30F078EC6DF0E552E552020E5C
:10589000E15C02E2E16AE552E2D3E6DB050EE126D5
:1058A000DF6AA3EC30F0020ECFDB010EEECFDBFFA0
:1058B000020EEDCFDBFFD950010F8CEC30F022E06F
:1058C000B1EC30F0030EEECFDBFF040EEDCFDBFFCB
:1058D000DFCFE6FF17EC31F092EC30F001EC31F065
:1058E000030EDF24E66EE66A020EE66EE66A030E3B
:1058F00092EC30F0A9DB01EC31F0050EDF26B1ECC3
:1059000030F0D2D7050EE15C02E2E16AE552A7D39E
:10591000ABDB060EE12612EC4AF0B8EC30F0DF6AA1
:10592000010EDB6A0A0EDF5C36E298EC30F0BFEC69
:1059300030F0010EDBCFE6FF17EC31F09ADB06EC1E
:1059400031F097DB23EC31F0010EDB50030FE66EF4
:10595000E66A020EE66EE66A8CDB27EC31F006ECB6
:1059600031F0040EDBCFE6FF050EDBCFE6FF020EC3
:10597000DBCFE6FF030EDBCFE6FFC6EC30F0DF2A1D
:10598000050E146E010EDBCFE7FF1450E726010E63
:10599000E7CFDBFFC7D7020EDBCF14F0030EDBCF60
:1059A00015F014C0F3FF15C0F4FF060EE15C02E22F
:1059B000E16AE55254D358DB160EE12624DFD8DB2A
:1059C00036DFDDDBD950060FE96EDACFEAFF5F0E76
:1059D000EE6EEE6A080EDB6A8DDBA80EE66E1A0E1E
:1059E000E66EB4EC4FF0E552E552120EF3CFDBFF5A
:1059F000130EF4CFDBFF140EDB6A150EDB6A010E0B
:105A0000E66EFEEC35F0E55299EC38F021DB20EC47
:105A100031F0EF5001E02ED10A0EE66EFCEC65F09D
:105A2000E55268DB70DB5BE0B5DBEE50EFCFEAFF01
:105A3000E96E166EEACF17F0080EDB50000116244F
:105A4000146E000EEA20156E090E14C0DBFF0A0E5C
:105A500015C0DBFFFDDAEE52EF500CE0080EDB5014
:105A600006E1020EF36E080EF3CFDBFF4ED0080EF8
:105A7000DB064BD0EDDAEF5008E0080EDB2ADB50F6
:105A8000020843E2080EDB6A40D0E2DA060EDCDAF6
:105A9000EF500EE0B9DAEF50410813E0B5DAEF50FD
:105AA000200803E1B1DA5A0E15D0AEDAEF062DD098
:105AB000CFDA070EC9DAEF5028E0A6DAEF505A081D
:105AC00003E1A2DA200E06D09FDAEF50200804E1AD
:105AD0009BDA410EEF6E19D097DAEF2A16D0D95023
