:020000040000FA
:0600000038EF6AF0120067
:0600080075EF4BF0120041
:06002A001400D1D5000016
:10003000800000007E000000D0D50000C903000051
:1000400001000000CBD50000BB030000050000004C
:10005000C8D500007D0F000003000000C3D50000DC
:10006000B603000005000000C2D50000C803000070
:1000700001000000C1D50000C7030000010000001E
:10008000C0D50000C603000001000000BFD500007D
:10009000C503000001000000E0D4000000020000E1
:1000A000DF00000007D40000C403000001000000CE
:1000B000F7BA0000C3030000010000003FA30000E6
:1000C000C203000001000000DBD40000B103000007
:1000D00005000000D2D40000F70100000900000074
:1000E000E3AF0000FF0D000001000000D0D40000CD
:1000F000C003000002000000C9D400008703000014
:100100000700000033B30000FF0200000100000000
:0C011000C7D40000FE0000000200000048
:04011C00EDEC0CF00A
:10012000140EE126180EB8EC0DF0A00E38EC0FF00E
:100130000A0EDB6A13EC0EF00D0EDB6A0F0EA9EC53
:100140000EF00E0EF3CFDBFFFE0EDB5004E15CEC95
:100150000DF06F0E16D0FE0EDB0404E15CEC0DF02A
:100160007E0E0FD0FE0EDB50020804E15CEC0DF0B9
:100170008D0E07D0FE0EDB5003080AE15CEC0DF09B
:100180009C0EDBEC0CF00B0EC0EC0CF0040EDB6AEA
:10019000DF6A0A0EDF5C0DE2D950010F96EC0FF01A
:1001A0000C0F6CEC0EF0180EEE26000EED22DF2A7E
:1001B000F0D7140EE15C02E2E16AE552E16E20EF55
:1001C0000FF0EDEC0CF0E652DF6A040EDF5C05E2A6
:1001D000DFCFE6FF61EC0EF0F8D7D9EC0EF0DF6A66
:1001E000040EDF5C03E2CAEC0FF0FAD7E55220EF11
:1001F0000FF0EDEC0CF0610E56EC0FF0580EC5EC64
:100200000EF00B0E2DEC0FF03F0EC5EC0CF03FEC9A
:100210000FF01B0EF36EDB6E1C0EDB6A1F0EBFECC5
:100220000DF00E0EC6EC0DF0870E86EC0DF0230ED1
:10023000A9EC0EF0220EF3CFDBFF280EDB6AC20E14
:10024000F36E290EF2EC0CF02A0EF3CFDBFF2B0E2F
:10025000DB6A1B0E8DEC0DF01F0ECDEC0DF00E0EBB
:10026000D4EC0DF0870EDBEC0DF0360EA9EC0EF0A1
:10027000350EF3CFDBFF400EF36E3B0EF3CFDBFF0B
:100280009A0EF36E3C0EF3CFDBFF020EE2EC0DF0A4
:10029000060EE9EC0DF02D0EF0EC0DF0330EF7EC40
:1002A0000DF0860EFEEC0DF0490EA9EC0EF0480E96
:1002B000F3CFDBFF4E0EDB6A9E0E4AEC0CF01A0EFB
:1002C0006AEC0DF04F0EFCEC0CF0490E71EC0DF0E9
:1002D0004C0E78EC0DF05C0EA9EC0EF05B0EF3CF3B
:1002E000DBFF0101940E006FAE0E016F020E026F74
:1002F000036B0F0E066F076B2F0E046F056B0A0E54
:10030000096F0A6B510E0B6F0C6B0E6B010E0D6FAC
:10031000800E7FEC0DF02E0E196F1A6B2B0E176FDF
:10032000186B1B0E1C6F1D6B820E1E6F1F6B010E58
:10033000216F206F0EEC0FF001E097D1010EE66EF9
:10034000B7EC68F0E552F40E30EC0CF001E08DD122
:100350009CEC0FF0FA0E30EC0CF001E086D1E00ED0
:10036000DBEC0CF05E0ED0EC0FF0FA0E30EC0CF083
:1003700001E07BD1C00EDBEC0CF0650ED0EC0FF091
:100380006EEC0FF001E071D18EEC0CF06EEC0FF022
:1003900001E06BD1DF6A050EDF5C0BE270EC0EF062
:1003A00053EC0DF0640E30EC0CF001E05ED1DF2A6E
:1003B000F2D7DE521E0EDD6EDF6A050EDF5C11E243
:1003C00071EC0FF001E051D171EC0FF001E04DD173
:1003D000A0EC0FF001E049D10F0ED1EC0CF0DF2AB8
:1003E000ECD7DE52140EDD6EDF6A050EDF5C1CE218
:1003F000B8EC0FF05C0E81EC0EF02FEC0EF0F7EC89
:100400000CF001E032D12FEC0EF0F7EC0CF001E033
:100410002CD12FEC0EF068EC0EF001E026D10F0E7F
:10042000D1EC0CF0DF2AE1D7DE52960EDD6EDF6AEA
:10043000030EDF5C18E271EC0FF001E016D171ECF5
:100440000FF001E012D1A0EC0FF001E00ED13C0E54
:10045000146E010EDBCFE7FF1450E75E010EE7CF0D
:10046000DBFFDF2AE5D776EC0EF0DE520A0EDD6EFA
:10047000DF6A020EDF5C11E271EC0FF001E0F5D0F3
:1004800071EC0FF001E0F1D0A0EC0FF001E0EDD045
:10049000280ED1EC0CF0DF2AECD7500E0AEC0DF050
:1004A0009E0E4AEC0CF04B0EFCEC0CF0600E0FECC8
:1004B0000DF0350E046F056B76EC0EF071EC0FF05D
:1004C00001E0D3D071EC0FF001E0CFD0A0EC0FF041
:1004D00001E0CBD0280ED1EC0CF0400E0AEC0DF070
:1004E000AE0E4AEC0CF0530EFCEC0CF0600E0FEC70
:1004F0000DF076EC0EF071EC0FF001E0B6D071EC7F
:100500000FF001E0B2D0A0EC0FF001E0AED02FEC84
:100510000EF0800E0AEC0DF0BE0E4AEC0CF0610EEF
:100520000FEC0DF0360E046F056B76EC0EF0E4EC7C
:100530000FF001E09AD0DEEC0EF0200E6AEC0DF028
:10054000540EFCEC0CF0480E71EC0DF04B0E78ECF8
:100550000DF0600E0FEC0DF099EC0FF0320E30EC58
:100560000CF001E082D01DEC0DF0150E066F076B4C
:100570003E0E046F056B040E096F0A6B500E0B6F75
:100580000C6B99EC0FF0DF6A0A0EDF5C10E28DEC69
:100590000FF04FEC0CF0BCEC0FF067E1ACEC0FF09F
:1005A0004FEC0CF0BCEC0FF060E1DF2AEDD7B8ECBB
:1005B0000CF0DF6A1E0EDF5C0CE28DEC0FF0F0EC4D
:1005C0000EF053E1ACEC0FF0F0EC0EF04EE1DF2A50
:1005D000F1D7200EABEC0DF06D0EE0EC0CF0DF6A05
:1005E000050EDF5C11E270EC0EF0B8EC0CF0D950A7
:1005F000150F6CEC0EF0200ECFEC0EF0320E30EC3E
:100600000CF033E1DF2AECD73FEC0FF0DF6A050E88
:10061000DF5C0CE270EC0EF0B8EC0CF053EC0DF07B
:10062000320E30EC0CF021E1DF2AF1D7FA0E30EC7B
:100630000CF01BE1D950280F21EC0CF0180E010131
:100640001C6F1D6BAB0E7FEC0DF02E0ED4EC0FF07B
:10065000E4EC0FF00AE10101D90E7FEC0DF03C0E45
:10066000D4EC0FF06EEC0FF002E0010E01D0000EA2
:10067000146E610EE15C02E2E16AE552BDEF0CF03E
:10068000EDEC0CF0610E2AEC0DF0800E02EC0FF098
:10069000AA0E03EC0DF04D0E23EC0DF0140E05EC3C
:1006A0000EF0270EF36E0D0EF3CFDBFF0E0EA9EC4E
:1006B0000EF0100EF2EC0CF00F0EF3CFDBFFAD0ED0
:1006C000ABEC0DF0860E24EC0FF00A0E44EC0FF0AC
:1006D000450EF36E1B0EF3CFDBFF1C0EDB6A280EFC
:1006E000BFEC0DF0480EC6EC0DF0470E86EC0DF099
:1006F000010EF36E230EF2EC0CF0220EF3CFDBFFB3
:100700000D0EF36E280EF3CFDBFF4F0EF36E290EA6
:10071000F3CFDBFF0A0EF36E2A0EF3CFDBFF2B0EB7
:10072000DB6A590E8DEC0DF03B0ECDEC0DF0480E52
:10073000D4EC0DF03B0EDBEC0DF0010EF36E360E3B
:10074000F2EC0CF0350EF3CFDBFFC00EF36E3B0E78
:10075000F3CFDBFFE50EF36E3C0EF3CFDBFF090EAC
:10076000E2EC0DF09C0EE9EC0DF0390EF0EC0DF022
:10077000310EF7EC0DF0190EFEEC0DF0010EF36EDC
:10078000490EF2EC0CF0480EF3CFDBFFF90E0AEC49
:100790000DF0E50E5FEC0FF0090EF36EC9EC0EF0F4
:1007A0009C0E6AEC0DF0260EFCEC0CF06A0E71EC5F
:1007B0000DF0190E78EC0DF0010EF36E5C0EF2ECFC
:1007C0000CF05B0EF3CFDBFF0101600E266FA00E75
:1007D000276F090E286F296B6F0E2C6F2D6B280E5B
:1007E0002A6F2B6B0D0E2F6F306B030E316F326B38
:1007F000010E346F336F950E396FA00E3A6F090EEC
:100800003B6F3C6B6F0E3F6F406B150E3D6F3E6B49
:10081000430E426F436B030E446F456B010E476FEF
:10082000466FEB0E4C6F9E0E4D6F090E4E6F4F6B69
:10083000110E526F536B506F516B780E556F566B94
:10084000020E576F586B010E5A6F596F750E5F6F1E
:10085000A50E606F0A0E616F626B140E656F666B9A
:10086000100E636F646B8F0E686F696BBC0E6A6FDE
:100870006B6B010E6D6F6C6F8D0E726F470E736F29
:100880000A0E746F756B0C0E786F796B3B0E766F7A
:10089000776B060E7B6F7C6B0F0E7D6F7E6B010E90
:1008A000806F7F6FBF0E856F0E0E866F0A0E876F8B
:1008B000886B090E8B6F8C6B410E896F8A6B060EED
:1008C0008E6F8F6B1D0E906F916B010E936F926FF9
:1008D0005F0E986F140E996F0A0E9A6F9B6B090E3C
:1008E0009E6F9F6B410E9C6F9D6B060EA16FA26B5E
:1008F0002C0EA36FA46B010EA66FA56FAB69190E2A
:10090000AC6F0A0EAD6FAE6B090EB16FB26B1A0E03
:10091000AF6FB06B060EB46FB56B3A0EB66FB76BB8
:10092000010EB96FB86FC00EBE6F9A0EBF6F090E81
:10093000C06FC16BC46FC56B3C0EC26FC36B060E3C
:10094000C76FC86B490EC96FCA6B010ECC6FCB6FF6
:10095000FC0ED16F9A0ED26F090ED36FD46BD76F86
:10096000D86B3C0ED56FD66B420EDA6FDB6B490E3F
:10097000DC6FDD6B010EDF6FDE6F0EEC0FF001E060
:10098000AAD09CEC0FF0E4EC0FF001E0A4D0D95019
:10099000150F21EC0CF0DF6A0A0EDF5C0EE287EC2B
:1009A0000EF05AEC0EF001E096D0D950150F5AEC2B
:1009B0000EF001E090D0DF2AEFD7D950280F21ECBC
:1009C0000CF0DF6A0A0EDF5C11E287EC0EF096ECA9
:1009D0000FF0150F5AEC0EF001E07DD0D950280F22
:1009E0005AEC0EF001E077D0DF2AECD72FEC0EF0B6
:1009F000F0EC0FF0DF6A0A0EDF5C12E2EAEC0FF0B7
:100A00005AEC0EF068E12FEC0EF0BCEC0FF063E155
:100A1000030EDF5C03E1CD0E02EC0FF0DF2AEBD713
:100A2000B3EC0CF058E19CEC0CF0DF6A0A0EDF5CD2
:100A30001DE2EAEC0FF021EC0CF02FEC0EF0BCEC18
:100A40000FF049E19CEC0CF0190E30EC0CF043E196
:100A5000070EDF5C09E1400EDBEC0CF0470EC0EC4A
:100A60000CF00A0E93EC0CF0DF2AE0D7010EADEC8F
:100A70000CF031E1720EE66E010ED9EC0FF02BE1B5
:100A8000B3EC0CF028E1850EE66E010ED9EC0FF008
:100A900022E1B3EC0CF01FE1B3EC0CF01CE1980E7A
:100AA000E66E010E33EC0EF06EEC0FF014E1AB0EBF
:100AB000E66E010ED9EC0FF00EE1BE0EE66E010EF1
:100AC00033EC0EF0D10EE66E010E33EC0EF0030E99
:100AD000ADEC0CF002E0010E01D0000E146E610EC0
:100AE000E15C02E2E16AE552BDEF0CF0EDEC0CF0E6
:100AF000200E56EC0FF0030EDB6A130E64EC0FF0C1
:100B0000040EF3CFDBFF050E45EC0CF0060EF3CF21
:100B1000DBFF070E45EC0CF0080EF3CFDBFF090EF0
:100B200045EC0CF00A0EF3CFDBFF0B0E45EC0CF09E
:100B30000C0EF3CFDBFF0D0E45EC0CF00E0EF3CFD9
:100B4000DBFF0F0E45EC0CF0100EF3CFDBFF110EA8
:100B500045EC0CF0120EF3CFDBFF130EF4CFDBFFEE
:100B600064EC0FF0140EF3CFDBFF150E45EC0CF028
:100B7000160EF3CFDBFF170E45EC0CF01DEC0EF05C
:100B800045EC0CF01A0EF3CFDBFF1B0E45EC0CF01E
:100B90001C0EF3CFDBFF1D0E45EC0CF01E0EF3CF49
:100BA000DBFF1F0EF4CFDBFFC0EC0FF0DBCFEAFF63
:100BB0008A0EEE6E300E18EC0EF0C0EC0FF060EC0A
:100BC0000CF0BA0E79EC0EF065EC0CF02C0E79EC12
:100BD0000EF02BEC0CF00A0E79EC0EF05EEC0EF041
:100BE000280E79EC0EF017EC0DF0C0EC0FF039EC9C
:100BF0000CF0C5EC0FF0DBCFEAFFCA0EEE6EA40ED0
:100C000018EC0EF0C5EC0FF060EC0CF0BA0E7DECB9
:100C10000EF065EC0CF02C0E7DEC0EF02BEC0CF0D5
:100C20000A0E7DEC0EF05EEC0EF0280E7DEC0EF060
:100C300017EC0DF0C5EC0FF039EC0CF0BAEC0EF03F
:100C4000DBCFEAFF800E94EC0DF0BAEC0EF060EC16
:100C50000CF0BA0EDCEC0FF065EC0CF02C0E59EC3D
:100C60000DF00A0E59EC0DF0B5EC0CF0280EDCEC92
:100C70000FF017EC0DF0BAEC0EF039EC0CF08BEC39
:100C80000EF0DBCFEAFFC00EEE6E1B0E49EC0DF04E
:100C90008BEC0EF0BFEC0EF08BEC0EF0C2EC0EF015
:100CA0008BEC0EF02BEC0CF0410EEE6EED6A8BEC43
:100CB0000EF05EEC0EF0500EEE6EED6A8BEC0EF068
:100CC00054EC0CF08BEC0EF039EC0CF090EC0EF0D8
:100CD000DBCFEAFFFC0EEE6E1B0E49EC0DF090EC44
:100CE0000EF0BFEC0EF090EC0EF0C2EC0EF090ECBB
:100CF0000EF02BEC0CF0410EEE6EED6A90EC0EF067
:100D00005EEC0EF08C0EEE6EED6A90EC0EF054EC94
:100D10000CF090EC0EF0E0EC0FF0010EEF6E95ECA5
:100D20000EF0DBCFEAFFE00EEE6E370E49EC0DF071
:100D300095EC0EF0BFEC0EF095EC0EF0C2EC0EF060
:100D400095EC0EF02BEC0CF00A0EEE6EED6A95ECC5
:100D50000EF05EEC0EF0780EEE6EED6A95EC0EF095
:100D600054EC0CF095EC0EF039EC0CF09AEC0EF023
:100D7000DBCFEAFF1C0EEE6E380E49EC0DF09AEC5C
:100D80000EF0BFEC0EF09AEC0EF0C2EC0EF09AEC06
:100D90000EF02BEC0CF00A0EEE6EED6A9AEC0EF0F3
:100DA0005EEC0EF0B40EEE6EED6A9AEC0EF054ECC2
:100DB0000CF09AEC0EF039EC0CF09FEC0EF0DBCF5F
:100DC000EAFFEE6A540E49EC0DF09FEC0EF0BFEC1A
:100DD0000EF09FEC0EF0C2EC0EF09FEC0EF012EC59
:100DE0000FF09FEC0EF05EEC0EF0780EEE6EED6AFA
:100DF0009FEC0EF054EC0CF09FEC0EF039EC0CF084
:100E0000A4EC0EF0DBCFEAFF3C0EEE6E540E49EC84
:100E10000DF0A4EC0EF0BFEC0EF0A4EC0EF0C2EC62
:100E20000EF0A4EC0EF012EC0FF0A4EC0EF05EEC61
:100E30000EF0B40EEE6EED6AA4EC0EF054EC0CF075
:100E4000A4EC0EF039EC0CF07EEC0FF0DBCFEAFFF7
:100E5000800EEE6E2F0E18EC0EF07EEC0FF0E9EC2B
:100E60000EF07EEC0FF065EC0CF0690EEE6E17ECF8
:100E70000FF02BEC0CF0280EEE6E17EC0FF0E7ECF9
:100E80000FF017EC0FF017EC0DF07EEC0FF039ECD3
:100E90000CF083EC0FF0DBCFEAFF210E94EC0DF0A9
:100EA00083EC0FF0E9EC0EF083EC0FF065EC0CF046
:100EB000310EEE6E1AEC0FF02BEC0CF0320EEE6EE3
:100EC0001AEC0FF0E7EC0FF01AEC0FF054EC0CF00A
:100ED00083EC0FF039EC0CF074EC0FF0DBCFEAFF91
:100EE000520E94EC0DF074EC0FF0E9EC0EF074EC93
:100EF0000FF065EC0CF02E0EEE6EED6A74EC0FF058
:100F000012EC0FF074EC0FF0E7EC0FF0ED6A74ECFC
:100F10000FF054EC0CF074EC0FF039EC0CF079ECB1
:100F20000FF0DBCFEAFFE10EEE6E170EEE6E070E4E
:100F3000EE6EEE6A79EC0FF0E9EC0EF079EC0FF062
:100F400065EC0CF0310EEE6EED6A79EC0FF02BECE7
:100F50000CF0B0EC0DF079EC0FF0E7EC0FF0ED6A6F
:100F600079EC0FF054EC0CF079EC0FF039EC0CF05C
:100F700088EC0FF0DBCFEAFF120EEE6E180EEE6E6D
:100F8000070EEE6EEE6A88EC0FF0E9EC0EF088ECDE
:100F90000FF065EC0CF02E0EEE6E1DEC0FF02BEC4E
:100FA0000CF05E0EEE6E1DEC0FF0E7EC0FF01DEC9A
:100FB0000FF054EC0CF088EC0FF039EC0CF08EECE8
:100FC0000CF0F4EC0EF001E0B4D00A0EDBCFE6FF3B
:100FD0000B0E32EC0CF00C0EDBCFE6FF0D0E32ECFC
:100FE0000CF0DF6A190EDF5C0EE2E3EC0EF032EC7F
:100FF0000FF001E09ED04BEC0FF032EC0FF001E06F
:1010000098D0DF2AEFD7DF6A190EDF5C14E2E3EC39
:101010000EF02BEC0EF0190F30EC0CF001E089D043
:101020004BEC0FF02BEC0EF0190F30EC0CF001E054
:1010300080D0DF2AE9D77D0E30EC0CF001E079D0CA
:10104000E3EC0EF0E4EC0FF074E1F4EC0EF071E17F
:101050008EEC0CF0B3EC0CF06CE1A2EC0DF0460E53
:10106000DF5C10E24AEC0EF00E0EDBCFE6FF0F0E57
:10107000F9DB100EDBCFE6FF110E39EC0EF059E173
:10108000DF2AEDD7B3EC0CF054E14EEC0DF0F1ECAF
:1010900034F07EEC0FF0DFDBEECF14F0EFCF15F085
:1010A000153421E214500008000E15541CE27EECA9
:1010B0000FF0ECEC0EF079EC0FF0ECEC0EF088ECAD
:1010C0000FF0ECEC0EF083EC0FF0ECEC0EF074ECA7
:1010D0000FF0ECEC0EF08EEC0CF04AEC0EF0140E6F
:1010E000BFDBD7E026D0A2EC0DF0460EDF5C1AE2A3
:1010F0004AEC0EF01C0EDBCFE6FF1D0EB3DB1E0E1E
:10110000DBCFE6FF1F0EAEDB120EDBCFE6FF130ECA
:10111000A9DB140EDBCFE6FF150E39EC0EF009E16A
:10112000DF2AE3D74EEC0DF0F1EC34F00EEC0FF0CB
:1011300003E0010EDBEC0CF0040EDBCFE6FF050E46
:10114000C9DB060EDBCFE6FF070EC4DB080EDBCFE4
:10115000E6FF090EBFDB0A0EDBCFE6FF0B0EBADBA4
:101160000C0EDBCFE6FF0D0EB5DB0E0EDBCFE6FF80
:101170000F0EB0DB100EDBCFE6FF110EABDB120E55
:10118000DBCFE6FF130EA6DB140EDBCFE6FF150E5A
:10119000A1DB160EDBCFE6FF170E9CDB180EDBCFB4
:1011A000E6FF190E97DB1A0EDBCFE6FF1B0E92DB74
:1011B0001C0EDBCFE6FF1D0E8DDB1E0EDBCFE6FF28
:1011C0001F0E88DB020EDB50146E200EE15C02E283
:1011D000E16AE552D2D3EDEC0CF0620E56EC0FF062
:1011E000100ECEDB050E69EC0FF0090E34EC0DF09D
:1011F000070EDB6A080EDB6A500EF36E0C0EF3CF9F
:10120000DBFF3DEC0DF0140E24EC0FF0AD0EF36E91
:10121000170E2FEC0DF01DEC0EF0DB6A120E0CEC2D
:101220000EF0F36E1A0EF3CFDBFF1B0EDB6A420EDD
:10123000F36E1F0EF3CFDBFF200EDB6A960EF36E0C
:10124000210EF3CFDBFF220EA9EC0EF0240ECADB39
:10125000230EF3CFDBFFE00EF36E290EF3CFDBFF9F
:10126000B70EF36E2A0E2FEC0DF02B0EF3CFDBFF33
:101270002C0E29EC0FF02F0EF3CFDBFF300E29ECF4
:101280000FF02D0EF3CFDBFF2E0EDB6A320EDB6A82
:10129000330EDB6AC80EF36E340EF3CFDBFF350E70
:1012A000A9EC0EF0370E9EDB360ED9DB3C0EF3CFE9
:1012B000DBFFB80EF36E3D0ED2DB3E0EF3CFDBFF4D
:1012C0003F0E29EC0FF0420EF3CFDBFF430E29EC6B
:1012D0000FF0400EF3CFDBFF410E29EC0FF0450E6F
:1012E000F3CFDBFF460EDB6AC80EF36E470EF3CF7B
:1012F000DBFF480EA9EC0EF04A0E74DB490EF3CF6B
:10130000DBFF300E5FEC0FF0B80EF36E500EA7DB74
:10131000510EF3CFDBFF520E29EC0FF0550EF3CF39
:10132000DBFF560E29EC0FF0530EF3CFDBFF540E0C
:10133000DB6A500EF36E580EF3CFDBFF590EDB6AFB
:10134000C80EF36E5A0EF3CFDBFF5B0EA9EC0EF066
:101350005D0E48DB5C0EF3CFDBFF0101580EE46F3E
:10136000B80EE56F080EE66FE76B280EEA6FEB6BC1
:10137000E86FE96B780EED6FEE6BC80EEF6FF06BF8
:10138000010EF26FF16FCADA010EE66E41EC33F036
:10139000E55287EC0EF018DBDF6A510EDF5C4BE2A2
:1013A000BDDAD950030F96EC0FF0290F4ADA08EC9A
:1013B0000FF0E40EE66E010E33EC0EF0D950020F82
:1013C00003DBD950070F6CEC0EF0020EEE26000E78
:1013D000ED22D950030F76DBEE5AEE5AEE5A0C0E80
:1013E000DB060D0E01E2DB06D950340F6BDBED5A44
:1013F000D950470F67DBED5AD9505A0F63DBED5ACE
:101400000101EF07F05B2F0EDB2A300E01E3DB2A30
:10141000420EDB2A430E01E3DB2A550EDB2A560E71
:1014200001E3DB2AEA2B000EEB23140EDF2418DA8B
:1014300031E1DF2AB2D732DB6EEC0FF02BE1470E41
:10144000DB2A480E01E3DB2A5A0EDB2A5B0E01E39E
:10145000DB2ADF6A050EDF5C1BE208EC0FF0D950D7
:10146000160FEFD9100EDF02F350146E156AFF0E3F
:10147000D8801456000E15561450F2D90BE1D950ED
:10148000160F6CEC0EF01D0ECFEC0EF0DF2AE2D73B
:101490006ADA02E0010E01D0000E146E620EE15C09
:1014A00002E2E16AE55269D298DA3D0ED3DA200E03
:1014B00082DAE70EC5EC0EF0C00EF36E060EF3CF27
:1014C000DBFF320EF36E070EF3CFDBFF030E9BDA6A
:1014D000600EF36E0A0EF3CFDBFF7E0EF36E0B0E83
:1014E000F3CFDBFF030EF36E0C0EF3CFDBFF0D0E1D
:1014F000DB6A0E0EDB6ACA0EF36E0F0EF3CFDBFF54
:10150000030EF36E100EF3CFDBFF110EDB6AA00E9D
:10151000F36E120EF3CFDBFF0B0EF36E130EF3CF51
:10152000DBFF040EF36E140EF3CFDBFF150EDB6A48
:10153000400E24EC0FF04D0EF36E170EF3CFDBFFD1
:10154000040EF36E7ADBDB6A400EF36E1A0EF3CFF5
:10155000DBFF980EF36E1B0EF3CFDBFF040E5CDB9C
:10156000E00EF36E1E0EF3CFDBFFE30EF36E1F0EE5
:10157000F3CFDBFF040ECADA790EF36E220E62DBC4
:10158000230E60DB240EF3CFDBFF690EF36E250E16
:10159000F3CFDBFF690EF36E260EF3CFDBFF780E81
:1015A000F36E270EF3CFDBFF780EF36E280E4ADBC7
:1015B000290EF3CFDBFF8ADAD0DB220EDB50A3EC5F
:1015C0000FF0A00EAADA330EDB6A340EDB6A310E9E
:1015D000F36E350EF3CFDBFF360EDB6A380EB9DB68
:1015E000370EF3CFDBFF9AD9DF6A050EDF5C11E21D
:1015F000010EDB6A080E9FDA0AE251EC0FF03C0E96
:10160000146E29DB145C93D9010EDB2AF3D7DF2A91
:10161000ECD7DF6A050EDF5C11E2010EDB6A080E13
:101620008ADA0AE251EC0FF0280E1AD902E0010E14
:1016300007D0010EDB2AF3D7DF2AECD76FD9000ED3
:10164000146E3D0EE15C02E2E16AE55296D1C5D925
:10165000150E00DAD0DB5A0E2DEC0FF0500E95D996
:101660005DD9DF6A050EDF5C1AE2010EDB6A0A0E45
:1016700062DA12E29CEC0FF029DA400EEE26380E08
:10168000EE22000EEE22EE22500EEAD802E0010E0B
:1016900008D0010EDB2AEBD7AEDBDF2AE3D73ED939
:1016A000000E146E150EE15C02E2E16AE55265D1AE
:1016B00094D9150ECFD9F2D9C00E7DD9670E60D955
:1016C000370E31D9A00E9FD94F0EBDD9280E9DDA05
:1016D000280E5BD923D9C80E2AD9DF6A150EDF5C24
:1016E00022E29CEC0FF0DF5001E163DBDF501208D7
:1016F00002E2640E01D03C0E1AD9E8D9500E01DB8B
:101700009CEC0FF0DF50120802E2640E01D03C0E98
:101710000ED9DCD9B00EEE26630EEE22000EEE22BC
:10172000EE22DF2ADBD7E1EC00F0150EE15C02E2ED
:10173000E16AE552E16E84D350D9160EE126AED9A6
:10174000E00E1ED9430EC5DB2C0E8ED9A00E10DA8A
:101750000C0EDB6A92D9E66A4EEC33F0E552DF6A92
:10176000040EDF5C04E2DFCFE6FFABDAF9D721DB62
:10177000DF6A040EDF5C03E2CAEC0FF0FAD7DF6A1F
:10178000130EDF5C0FE2D950030FD0DB030FA4DA96
:10179000EE52960EEE26000EEE22EE22640EC7D812
:1017A000DF2AEED7DF6ADF50146E156AD890155025
:1017B00004E6FF0E145C000E15581EE231EC4CF0EE
:1017C000DE52F3CFDEFFF4CFDDFFDD52010EDBCFC3
:1017D000E9FF020EF5DBEF500BE0DFCFE6FFE66A34
:1017E0007CEC69F0E552E552C80EA1D8000E05D098
:1017F000640E9DD8DF2AD7D7010E146E160EE15C59
:1018000002E2E16AE552B9D049D9020EE66EA5ECD2
:101810005FF0E552CAEC68F0F9EC00F0000910E165
:1018200040EC03F000090CE176EC05F0000908E15A
:10183000D2DC000905E138DE000902E108DF000919
:101840001200E66E000EDA2033EF0EF091DB2E0E62
:1018500058DA68EF0EF0DBCFEAFF090ED5EF0EF095
:10186000E66E81D3DBCFE6FF04EC68F0E552E5528B
:101870001200DBCFEAFF0D0E98DA010EEF6E1200B8
:1018800077DB5C0E8CDA68EF0EF0F4CFDBFF130E23
:1018900064EF0FF014DB020EF36EC9EF0EF0000ED2
:1018A000E66E010E33EF0EF0DBCFEAFF0E0E7DDAAF
:1018B000010EEF6E1200DBCFEAFFA00E81EF0EF0FB
:1018C000DBCFEAFF060ED5EF0EF0DBCFEAFF040E0A
:1018D000D5EF0EF0DBCFE6FF07EC69F0E552E552FD
:1018E0001200D950020F146EDACF15F0010EDB5042
:1018F000040D1450F324E96EDA50F420EA6E2DDA68
:10190000D950220F146E010EDB500F011424E96E22
:10191000000EDA20EA6EEF50A3EF0FF0E66A8EECCD
:1019200000F0E5521200D5DA050EDB6A1200E66E11
:1019300099EC5FF0E5521200260EE66E010E93D987
:10194000390EE66E010E8FD94C0EE66E010E8BD964
:101950005F0EE66E010E33EF0EF0E66EDBEC5FF02D
:10196000E55200091200E668FED2020ED5EF0EF035
:10197000130EE66E010E33EF0EF0E16E145060D2DE
:10198000F36E030EF3CFDBFF1200F36E0D0EF3CFF9
:10199000DBFF0E0EDB6A100EDCD90F0EF3CFDBFF80
:1019A0001200146E010EDBCFE7FF1450E726010E84
:1019B000E7CFDBFF1200F36E020EF3CFDBFF120066
:1019C00043DA020E44EF0FF0E66E000EDA20E66E08
:1019D00053EC33F0E552E5521200D9CFE6FFE1CFE8
:1019E000D9FF1200F3CFDBFF010EF36E1200C0DA55
:1019F0002E0ED5D968EF0EF0F36E520EF3CFDBFF4B
:101A0000530EDB6A1200F36E080EF3CFDBFF090EF4
:101A1000DB6A1200F36E4E0EF3CFDBFF1200010102
:101A20000027090E0123000E022303231200DBCF3F
:101A3000EAFF0E0EBAD9EF6A12000101E00E006F44
:101A4000130E5AEF0FF0F36E060EF3CFDBFF070E07
:101A5000DB6A1200E126DF6A010EDB6A1200F3CFB7
:101A6000DBFF080EF36E120003DAF00EF36E090EC0
:101A7000F3CFDBFF0A0EDB6A12000D0EDB6A0E0EDF
:101A8000DB6A0F0EDB6A110E64D9100EF3CFDBFF99
:101A90001200EE6E0B0EEE6EEE6A1200E66A41EC7C
:101AA00033F0E5521200D950150F16D9200E81EFF0
:101AB0000EF082DAE0EF0FF0800EF36E010EF3CF3E
:101AC000DBFF120009D9EE06000E1200D950020FFA
:101AD0006CEF0EF0F36E540EF3CFDBFF550EDB6AA6
:101AE0001200F36E570EF3CFDBFF580EDB6A1200C5
:101AF000F36E590EF3CFDBFF5A0EDB6A1200136F41
:101B00007D0E146F020E156F166B1200F36E200E11
:101B1000F3CFDBFF210EDB6A1200F36E2E0EF3CF44
:101B2000DBFF2F0EDB6A1200EE6E420EEE6E060E2B
:101B3000EE6EEE6A1200F36E010EDBCFF4FFF3508F
:101B4000F45C1200010EE66E41EC33F0E552F1EC6C
:101B500034F0DF6A1200F36E150EF3CFDBFF1200D4
:101B60002D0EEE6EED6A12003C0EEE6EED6A120066
:101B7000F36E070EF3CFDBFF080EDB6A1200F36E85
:101B8000190EF3CFDBFF1A0EDB6A1200F36E1E0E86
:101B9000F3CFDBFF1F0EDB6A1200F36E2C0EF3CFC8
:101BA000DBFF2D0EDB6A1200F36E310EF3CFDBFF8D
:101BB000320EDB6A1200F36E330EF3CFDBFF340E0E
:101BC000DB6A1200F36E3D0EF3CFDBFF3E0EDB6AE5
:101BD0001200F36E410EF3CFDBFF420EDB6A120000
:101BE000F36E3F0EF3CFDBFF400EDB6A1200F36EA5
:101BF000440EF3CFDBFF450EDB6A1200F36E460E98
:101C0000F3CFDBFF470EDB6A1200F36E0B0EF3CF50
:101C1000DBFF0C0EDB6A1200F36E1C0EF3CFDBFF52
:101C20001D0EDB6A12000B0EDB6A0C0EDB6A120063
:101C3000EE6E050EEE6EEE6A1200180EF3CFDBFFAD
:101C4000190E1200F3CFDBFF790EF36E1200960E21
:101C5000EE6EED6A1200040EDF02F3501200D9504E
:101C60003B0F21EF0CF0E66E04EC68F0E552E55214
:101C70001200F8DD43D91FDE46D91DDE35D91BDE43
:101C800038D919DE45D917DED950030F9DDE820EF3
:101C900030EF0CF0160EDBCFE6FF170EE3DD180E6B
:101CA000DBCFE6FF190EDEDD1A0EDBCFE6FF1B0EE3
:101CB00032EF0CF0C6DD190E30EF0CF0CCDDB5EFD5
:101CC0000CF08EEC00F0E552320E31DEDF2A12000D
:101CD000010EDBCFE6FF47D1E96EDACFEAFF120053
:101CE000D950280F23D9150F21EF0CF079D94FEFD8
:101CF0000CF0EE6EED6AC0EF0FF0EE6EED6AC5EF20
:101D00000FF0EE26000EEE22EE22EE22120006DE8C
:101D1000D950020F12000A0EDBCFE9FF0B0E1200A2
:101D20000C0EDBCFE9FF0D0E12000E0EDBCFE9FF2C
:101D30000F0E1200100EDBCFE9FF110E1200120E73
:101D4000DBCFE9FF130E1200140EDBCFE9FF150EF7
:101D50001200DB6A010EF36E12002A0EEECFDBFFDB
:101D60002B0EEECFDBFF2C0EEECFDBFF2D0EEECFDA
:101D7000DBFF1200080EDBCFE9FF090E1200A0DD29
:101D8000B0EF0DF0A2DDB4EF0DF0FADD020E93EF2F
:101D90000CF0500EF3CFDBFF510EDB6A1200EE5E4B
:101DA000000EEE5AEE5AEE5A1200E926000EEA2212
:101DB0001200FA0EBCDDFA0E97EF0CF0C00E2ADE10
:101DC000CE0E4AEF0CF0060EDBCFE6FF070E32EF29
:101DD0000CF076DD27EF0EF03EDDEE06ED5A120038
:101DE000A8D8050E30EF0CF0040EDBCFE6FF050E91
:101DF00039DDE4EF0FF0400EDEDD110EC1DD0E0E19
:101E000093EF0CF0D8DDB10EBBDD0A0E93EF0CF0B2
:101E1000D9503C0F8BD84F0F21EF0CF07FDD010E16
:101E2000ADEF0CF018DD630EEE6EED6A1200ED6A98
:101E30007EEF0FF0ED6A83EF0FF0ED6A88EF0FF0A1
:101E4000E552E7CFD9FF1200F36E160EF3CFDBFF9A
:101E50001200DB6A280EF36E1200D5DDA00EF3DD52
:101E600013EF0EF07D0E146EF6DE145C30EF0CF006
:101E7000F36E050EF3CFDBFF060EDB6A1200A00E39
:101E80006ADE6C0EE0EF0CF0F36E170EF3CFDBFFA3
:101E9000180EDB6A1200080EDBCFE6FF090E32EFE8
:101EA0000CF0D9502A0FCDDC71EF0CF0D3DD020E0F
:101EB000DB6A1200016F070E026F036B1200F36EF4
:101EC0004F0EF3CFDBFF1200E66EF9EC68F0E5523F
:101ED0001200F36E040EF3CFDBFF1200020EADEF23
:101EE0000CF0BDDE26EF0CF01A0EDBCFE9FF1B0E67
:101EF00012001C0EDBCFE9FF1D0E1200160EDBCF09
:101F0000E9FF170E1200180EDBCFE9FF190E1200C1
:101F10001E0EDBCFE9FF1F0E12008FDDE00E7ADD13
:101F2000210EF36E4F0E9BDDC9EF0EF08ADCD95007
:101F30001200B5DCF0EF0FF0D950020F21EF0CF0DA
:101F40008EDE40EF0CF0E66ED950300FC5DEE55264
:101F5000E750EE6EED6A12000101C00E006F060E32
:101F6000A9DFDEEF0EF0B8EC5FF0E55200091200D9
:101F7000D9503B0F6CEF0EF0D9504E0F5AEF0EF0C8
:101F8000040EDBCFE9FF050E1200060EDBCFE9FFE2
:101F9000070E1200030ED880DF54E66E61EF0EF0DC
:101FA000F4DEB5DE21EF0CF0176F186BE1DC2FEFDC
:101FB0000EF059DEB3EF0CF0EE6EED6ABAEF0EF0F4
:101FC000DBCFEAFFD5EF0EF0C80E30EF0CF076DE77
:101FD000EE6A12009CDEAADF150FA8DF280F1200A0
:081FE000D9504E0F21EF0CF067
:081FE800020100510AE10F01A2
:101FF000020E046F500E026FA10E036F0201010E5C
:10200000006F000E146E0F0E21EF19F00201015146
:102010000AE10F01030E096F620E076FA10E086F30
:102020000201010E016F050E146E0F0E21EF19F063
:10203000020102510AE10F01010E0E6F7D0E0C6FBD
:10204000A10E0D6F0201010E026F0A0E146E0F0E2B
:1020500021EF19F0020103510AE10F01030E136F82
:10206000860E116FA10E126F0201010E036F0F0E8B
:10207000146E0F0E21EF19F0020104510AE10F0155
:10208000030E186FA10E166FA10E176F0201010E3D
:10209000046F140E146E0F0E21EF19F0020105519A
:1020A0000AE10F01020E1D6FBC0E1B6FA10E1C6F0B
:1020B0000201010E056F190E146E0F0E21EF19F0BB
:1020C000020106510AE10F01010E226FCE0E206FB0
:1020D000A10E216F0201010E066F1E0E146E0F0E6F
:1020E00021EF19F0020107510AE10F01010E276FDC
:1020F000D70E256FA10E266F0201010E076F230E6A
:10210000146E0F0E21EF19F0020108510AE10F01C0
:10211000020E2C6FE00E2A6FA10E2B6F0201010E32
:10212000086F280E146E0F0E21EF19F002010951ED
:102130000AE10F01100E316FF20E2F6FA10E306FFA
:102140000201010E096F2D0E146E0F0E21EF19F012
:1021500002010A510AE10F01060E366F820E346F3A
:10216000A20E356F0201010E0A6F320E146E0F0EB1
:1021700021EF19F002010B510AE10F01060E3B6F2E
:10218000B80E396FA20E3A6F0201010E0B6F370EB7
:10219000146E0F0E21EF19F002010C510AE10F012C
:1021A000060E406FEE0E3E6FA20E3F6F0201010E53
:1021B0000C6F3C0E146E0F0E21EF19F002010D5141
:1021C0000AE10F01030E456F240E436FA30E446F07
:1021D0000201010E0D6F410E146E0F0E21EF19F06A
:1021E00061EC1AF0030EB9EC19F057EC1BF0F70E86
:1021F000F3CFDBFFF80EF4CFDBFFBCEC19F057ECAC
:102200001BF0F50EF3CFDBFFF60EF4CFDBFFDF6A3A
:10221000F40EDB50DF5C32E2040E8AEC1CF048EC7A
:102220001BF0D950F90FCFEC1BF0C3EC19F030ECD8
:102230003AF03AEC1BF09BEC1BF0F350EE261550F5
:10224000ED229BEC1BF0A5EC1CF0F350EE26155094
:10225000ED22E66ABCEC19F0000EE9EC18F0E66E2F
:10226000C3EC19F0F2EC51F0E552E552B7EC1CF07A
:10227000B4EC18F038EC19F0DF2ACAD7030EE15C91
:1022800002E2E16AE552D6EF18F0E7EC1BF022EC2F
:102290001AF0EE0EE66ECC0E2BEC1AF059DF38EC8D
:1022A0001AF002E2E16AE552D6EF18F0E7EC1BF013
:1022B000060E22EC1AF0100EE66ECD0E2BEC1AF084
:1022C00059DF38EC1AF002E2E16AE552D6EF18F075
:1022D000E7EC1BF0060E22EC1AF0280EE66ECD0E8F
:1022E0002BEC1AF059DF38EC1AF002E2E16AE55201
:1022F000D6EF18F0CEEC19F0050E8AEC1CF0040EA7
:10230000F3CFDBFF050EF4CFDBFFE2EC1BF061EC5B
:1023100019F042EC1CF0040EABEC1AF0DDEC1BF0F3
:10232000E66A1E0E5EEC1CF01DEC1AF0E66EE66A24
:10233000BBEC1CF0020EBFEC18F0B0DEB1EC1AF0F2
:1023400064EC5CF01C6E090EE15E1C509BEC1AF014
:1023500061EC19F0C3EC18F038EC19F0C9EC1AF084
:10236000CAEC19F0060EE15C02E2E16AE552D6EF32
:1023700018F04AEC19F0040EE66EECEC1AF02BECB7
:102380001CF003EC1BF002E2E16AE552D6EF18F014
:1023900061EC1AF0090EE12609EC1BF0EECFDEFF2E
:1023A000EDCFDDFF040E8AEC1CF09BEC1AF0C9ECBB
:1023B0001AF038EC19F0DCEC18F041EC19F0070ECB
:1023C000EECFDBFF080EEDCFDBFFD5EC1BF029ECE9
:1023D00022F0E552E552E76E060EE7CFDBFFDB5059
:1023E00018E173EC19F01E0E92EC19F012E3070ECF
:1023F000DBCF14F0080EDBCF15F01E0EFEEC18F04C
:1024000002E07DEC19F0C6EC1BF064E1155062E1CE
:102410003BD0010ED2EC19F01AE273EC19F01E0E4B
:1024200092EC19F014E273EC19F03C0E92EC19F0F6
:102430000EE32AEC1BF03C0EFEEC18F002E07DEC03
:1024400019F0C6EC1BF046E1155044E11DD0020E18
:10245000D2EC19F01DE273EC19F03C0E92EC19F07D
:1024600017E273EC19F05A0E92EC19F011E32AEC12
:102470001BF05A0EFEEC18F002E07DEC19F0C6ECF1
:102480001BF028E1155026E146EC1CF00FDF20D0B0
:10249000640EE66EE66A95EC1CF0D890F45004E603
:1024A0000F0E145C000E155815E216EC1CF095EC9E
:1024B0001CF0D890F45004E6080E145C000E155879
:1024C00004E246EC1CF0E1DE03D046EC1CF000DF39
:1024D0004EEC19F0090EE15C02E2E16AE552D6EF3A
:1024E00018F04AEC19F0060EE66EC6EC1AF02BEC6A
:1024F0001CF0030E97EC19F00F0EFAEC19F0D4EC67
:102500001AF06EDEAFEC19F003EC1BF002E2E16AA8
:10251000E552D6EF18F061EC1AF016EC1CF071EFF2
:102520001AF061EC1AF0050E23EC1BF071EF1AF0B3
:1025300061EC1AF00A0EE126B4EC18F0CBEC39F09D
:10254000E552E552020E06C0DBFF030E07C0DBFFBB
:10255000040E08C0DBFF050E53EC19F0060E06C092
:10256000DBFF070E07C0DBFF080E08C0DBFF090E0C
:1025700009C0DBFF4CEC1BF0080EDBCF16F0090E98
:10258000DBCF17F015501718E8AE02D0173404D07F
:102590001650145C1750155821E28FEC1CF0010EF8
:1025A000E66E040EE66ED950060FD9EC1AF0D9503B
:1025B000020FD9EC1AF0D9EC19F094EC1AF080DD86
:1025C000F3CF1BF0F4CF1CF0B8EC1BF046EC5EF040
:1025D0001D6E0D0EE15E1D500DEC1AF00A0EE15C51
:1025E00002E2E16AE552D6EF18F061EC1AF00C0E47
:1025F000E126B4EC18F0CBEC39F0EFEC1AF053EC28
:1026000019F0080E06C0DBFF090E07C0DBFF0A0E3B
:1026100008C0DBFF0B0E09C0DBFF040E32EC19F023
:10262000040EE66ED950080FD9EC1AF0D950040FF9
:10263000D9EC1AF05FEC3CF0166E090EE15E165014
:1026400016EC1BF025EC19F0040E79EC1CF0060ECC
:10265000DBCF18F0070EDBCF19F00A0EDB50185C49
:10266000166E0B0EDB501958176E16C0E6FFE66E9D
:102670007AEC65F0B7EC1CF0040EDBCF1EF0050E13
:10268000DBCF1FF0080EDB501E5C1C6E090EDB500A
:102690001F581D6E1CC0E6FFE66E57EC1BF0E5529E
:1026A000E7CF15F0E552E7CF14F0F3CF1AF0F4CFEF
:1026B0001BF0F4501518E8AE02D0153404D01450B5
:1026C0001A5C15501B580DE28FEC1CF0B4EC19F09D
:1026D0008BEC1BF01AEC1CF017DD2AEC19F00DEC5A
:1026E0001AF00C0EE15C02E2E16AE552D6EF18F056
:1026F0004AEC19F08FEC1CF0010EE66EE66E050E4A
:10270000E66E3FEC5FF0E552E55294EC1AF00EDD18
:102710002AEC19F00DEC1AF0020EE15C02E2E16A1B
:10272000E552D6EF18F017EC19F0040EE66E93ECB4
:1027300049F019EC1AF0B4EC1BF09AEC62F01DECC5
:102740001AF0E66A220EE66E250E82EC1BF0030EEE
:102750005CEC1BF033DD2AEC19F0AAEC1BF0D9502D
:10276000F70FCFEC1BF0020E8BEC1BF06FEC19F0A7
:10277000C9EC1AF092EC25F0EEEC18F002E2E16AF6
:10278000E552D6EF18F0D8EC18F0FA0EE66EE66ACD
:10279000CDEC1AF0C7EC5DF0E552E55219EC1AF0F9
:1027A000E66A010E5EEC1CF01DEC1AF02C0EDAEC61
:1027B0001BF09FEC1CF0140EEBEC1BF04BDC49EC17
:1027C0001CF002E2E16AE552D6EF18F0D8EC18F0FE
:1027D000DDEC1BF085EC19F0A4EC60F01DEC1AF0B8
:1027E000900EDAEC1BF0BBEC18F004EC1CF0720E4F
:1027F000E66E230EA8EC1CF00A0EEBEC1BF072DC6C
:1028000070EC1CF002E2E16AE552D6EF18F0FCEC45
:102810001AF098EC1CF0E66A030E5EEC1CF09FECDC
:102820001CF00A0EEBEC1BF0F4EC0FF049EC1CF082
:1028300002E2E16AE552D6EF18F0FCEC1AF093ECF4
:1028400049F061EC1CF002E2E16AE552D6EF18F0C3
:10285000FCEC1AF03FEC5FF061EC1CF002E2E16A84
:10286000E552D6EF18F017EC19F0030EE66E98EC6F
:102870001CF0E20EE66E240EE66E260EE66E270EC5
:102880007EEC1BF0190E5CEC1BF018EC10F049EC20
:102890001CF002E2E16AE552D6EF18F0D8EC18F02D
:1028A000DDEC1BF0900EDAEC1BF01DEC1AF009ECDD
:1028B00054F016EC1BF004EC1CF0F40EE66E220E45
:1028C000A8EC1CF0140EEBEC1BF03CEC10F070ECE0
:1028D0001CF002E2E16AE552D6EF18F061EC1AF062
:1028E000080EB9EC19F0F60EDB5003E0A00E146EE2
:1028F00001D0146A156A0CEC1CF0CEEC68F0E552BD
:10290000E552EFEC1AF009C0DBFF060EABEC1AF053
:10291000B2EC1CF0F40EDAEC1BF066EC1AF0F00EE0
:10292000E66E260E7EEC1BF0C0EC1AF0E66ED95077
:10293000040FD9EC1AF0020E85EC1BF0A5EC1CF08C
:10294000ACEC19F0C3EC18F0CEEC68F0BDEC1BF069
:1029500006C016F007C017F008C018F009C019F03B
:1029600031EC1BF0D9EC19F016EC1BF0DCEC18F094
:1029700011EC1CF0020EAEEC1CF0BDEC1BF0080ECE
:10298000E15C02E2E16AE552D6EF18F017EC19F0CB
:10299000F80EDBCFE6FF93EC49F0CCEC1BF088ECB3
:1029A00019F0160EE66EC30E7EEC1BF0050E5CEC05
:1029B0001BF006EC10F081EC1CF0020E85EC1BF015
:1029C0000E0EC2EC1BF0100EEE6EC30EED6E44EC5C
:1029D0001AF00AEC1AF002E2E16AE552D6EF18F0BA
:1029E0004AEC19F0F80EDB5003E0DE68DD6803D036
:1029F000010EDE6EDD6A1CEC19F016EC1CF0C3DB78
:102A0000B3DBE7EC19F01CEC19F079EC19F0DECF30
:102A100016F0DDCF17F0190E7EEC1AF01CEC19F051
:102A20001E0EE66EE66ADECF16F0DDCF17F0320E30
:102A30007EEC1AF0020EE15C02E2E16AE552B6D3E6
:102A40004AEC19F0FA0EDB5004E0010EDE6EDD6A8E
:102A500002D0DE68DD68020EE15C02E2E16AE55266
:102A6000A5D34AEC19F0FA0EDB5004E0010EDE6E3D
:102A7000DD6A02D0DE68DD68020EE15C02E2E16A36
:102A8000E55294D361EC1AF0E2EC1AF0CAEC19F0BA
:102A9000EFEF1BF061EC1AF0E2EC1AF097EC25F086
:102AA000BDEC1BF0EFEF1BF0CEEC19F0FB0EDBCF13
:102AB00008F0FC0EDBCF09F0E10E081802E1080E69
:102AC000091801E10DD3920E081802E1090E091848
:102AD00001E1FED2600E081802E1090E091801E1B9
:102AE000DFD22E0E081802E1090E091801E1C7D243
:102AF000CA0E081802E1080E091801E1AAD2660EF2
:102B0000081802E1080E091801E194D2340E0818E1
:102B100002E1080E091801E18AD2020E081802E14A
:102B2000080E091801E173D2D00E081802E1070E51
:102B3000091801E15FD29E0E081802E1070E09187C
:102B400001E155D2850E081802E1070E091801E1CE
:102B500045D26C0E081802E1070E091801E136D2C1
:102B60003A0E081802E1070E091801E128D2080EF2
:102B7000081802E1070E091801E115D2D60E08184F
:102B800002E1060E091801E1FBD1A40E081802E1CA
:102B9000060E091801E1C8D16B0E081802E1060EF5
:102BA000091801E1B3D1400E081802E1060E091818
:102BB00001E19AD1DC0E081802E1050E091801E1C5
:102BC0008CD1CB0E081802E1050E091801E17DD168
:102BD000960E081802E1050E091801E15FD1140EE6
:102BE000081802E1050E091801E13ED1E20E0818AD
:102BF00002E1040E091801E130D1B00E081802E11B
:102C0000040E091801E115D17E0E081802E1040E28
:102C1000091801E1F1D06A0E081802E1040E091842
:102C200001E1E5D0FC0E081802E1030E091801E1EC
:102C3000CFD0F90E081802E1030E091801E1C4D043
:102C4000C00E081802E1030E091801E1B4D0B60E57
:102C5000081802E1030E091801E1A8D0840E081833
:102C600002E1030E091801E18CD0200E081802E1E0
:102C7000030E091801E17CD0BC0E081802E1020E17
:102C8000091870E08A0E081802E1020E091866E0C1
:102C9000580E081802E1020E091854E0260E081812
:102CA00002E1020E09184BE0F40E081802E1010ED1
:102CB000091832E0900E081802E1010E09181AE016
:102CC0002C0E081802E1010E09180DE0FA0E081882
:102CD00001E011D2095001E00ED2030EE66E010EA2
:102CE0009CDA640E81D0B4EC1BF0F60E1BEC1BF0EA
:102CF0006DDDF0D0FEDAEC0EFEEC1BF0190EB7EC39
:102D00001AF0DEEC1AF0320E21EC1CF001E0F3D1E7
:102D1000020E0DDB67DAE6D0B4EC1BF0E20EFEEC3F
:102D20001BF06E0EB7EC1AF0DEEC1AF0870E21ECF9
:102D30001CF001E0E0D1DEEC1AF0550E75D1E5DAB9
:102D40000A0ED1D17BEC1BF03C0EB1EC1BF0030E54
:102D500064DA4B0EBFEC1CF05A0E46D1C6EC1AF0EA
:102D6000500EB8D1E66A780EE66EE66A8C0E06D092
:102D7000010EE66EB40EE66EE66A140E3BDB30DE44
:102D8000ACD1010EE66EF00EE66EE66A60EC1BF06A
:102D900063EC1BF0010EE66E40DAFB0E1BEC1BF041
:102DA00067EC1BF0B2DAD4DA6E0E1ED026EC1CF003
:102DB00063DA230E19D127EC1BF0820EB1EC1BF065
:102DC000020E5ADA730E10D1B4EC1BF0160E80D03E
:102DD000E66A780EE66EE66A8C0E0CDB63EC1BF09E
:102DE000E66A010EA4DA820E05DB54DE80D1CEDB6A
:102DF000F60EE66EE6683FD14CEC1CF0E66EE66A35
:102E000095EC1CF00A0E66DB18DD56DAB3DBE66ED5
:102E100070DA16EC1CF095EC1CF0D89014361536D0
:102E2000520E1426CB0E15220CEC1CF09DD905DD9C
:102E300035D1A0DBE66E5DDA0A0E98EC1BF027ECCC
:102E40001BF0500E98EC1BF091EC1BF001E053D1FD
:102E5000020EE66E4EDA820E0CD198DB79DAD80ECD
:102E60004FEC1CF0500E19D1030EE66E010ED5D9B1
:102E7000780EC0DA67EC1BF0010EE66EF00EE66E1F
:102E8000E66A000EB7DA63EC1BF0020EF5D9A00E6D
:102E900098EC1BF0030E4BDA8C0EEBD0B4EC1BF06D
:102EA0006FEC1BF0FBDCE6DB030EE66EE66A020E5F
:102EB0006BEC1BF093DA500EB1EC1BF0C8DB690E23
:102EC000B1EC1BF08BDA820E8FD0B4EC1BF0760ED7
:102ED00091DAE4DC146E060E0CD17EDB0ADAEC0E1D
:102EE0004FEC1CF04B0EA0D0030EE66E0F0EE66EFC
:102EF000E66A0A0EC2EC1CF0190E98EC1BF0030EE9
:102F0000E66E0F0EE66EE66A280EB3D021DA000EEA
:102F1000E2DB54DB320E2EEC1CF099DB460E53EC58
:102F20001CF04CDB5A0EB9D04B0EE66EE66A1E0E54
:102F3000E66EE66A0A0E56EC1CF04B0EE66EE66A8A
:102F400016EC1CF0820E56EC1CF033EC1CF0030E59
:102F500064D995EC1CF0280E4CD9CBD9B4EC1BF0FD
:102F600061DB59EC1CF05A0ED8801656000E17562D
:102F70003CDAFAD84CDC186E070EE15E1850BBD074
:102F8000040EE66E010E0FD935DAA1DBFFDA16EC7E
:102F90001CF0F60E4FEC1CF0500E85DB8DD9030EA5
:102FA000E66E000E17D033EC1CF016DB640E53EC0B
:102FB0001CF0B7DB01E09FD0E9DA500E5AD0E6DA18
:102FC0005A0E53EC1CF008DB410E84D026EC1CF0AA
:102FD000E66E1E0EE66EE66A280E06D0030E1DD9BA
:102FE000500EBFEC1CF0640E05DA32DC76D0F4DA59
:102FF0003C0E70D080DB320EB4DB29DB4B0EBFEC15
:103000001CF0640EAEDB020E92D9490E63D0A0D93B
:103010000F0E61DBE1DAE6D8500E5CDA28EC14F032
:103020004BD9DADADFD8500E37EC1CF037D0E0DBC2
:103030004B0E0BD0DDDB7CDB5A0EE66EE66A94DBD2
:10304000460E56EC1CF0A2DAA00EC2EC1CF0B40E38
:1030500010D067DB05E19ADAC2EC1CF01E0E68DBCB
:1030600060DB49E14CEC1CF0640E62DB4CEC1CF0C4
:10307000460EE66EE66A78D81DEC14F02ED03C0EB3
:10308000E66EE66A65D9A2D86FDB3C0EB3D933ECA5
:1030900014F0F0DAF4DAE2DBF2DA05DB0DD92BD04A
:1030A000010EE66E5F0EE66EE66A5EDBF60EC3DAD2
:1030B0008ED9010EE66E410EE66EE66AE20EE66E0F
:1030C000E668000E97D96EEC14F0146E090E11D05C
:1030D0005DDA0A0E8FD907EC14F0146E070E09D0D2
:1030E000040EB1DA000EE66EE66A84D9CBDC146E0B
:1030F000080EE15E1450060EE15C02E2E16AE55260
:1031000055D0DFD9E5D828D9D7EC66F0E552E5529D
:10311000DFD8060EEB6A070EEB6A61D30201DE51BF
:1031200006E1020E0E6F310E0F6F010EDE6F1CDB1B
:103130005FEC4AF0E552E552F3CF10F2F4CF11F212
:103140000E0E146E020E156E7CD0DBDB44EF1AF00F
:10315000E552E55206C014F007C015F008C016F09D
:1031600009C017F031EF1BF0FD0EDBCFE6FFFE0EBE
:10317000DBCFE6FF1200E552E55216EF1BF0E66EDC
:1031800014DB1AEF1CF0FB0EDBCFE6FFFC0EDBCFEF
:10319000E6FF1200F7DA11EF1CF0EECFE6FFEECFFC
:1031A000E6FF76EF1BF0E66EB4EF1BF0E16E17D38F
:1031B0000EDB060EABEF1AF0DECFE9FFDDCFEAFF44
:1031C0001200146E070EE15E145012002BDA48EF65
:1031D0001BF0E66EE66A26DAF3501200CEDA040E31
:1031E000E15C1200010EDBCF14F0020EDBCF15F014
:1031F00012001426000E15220CEF1CF0D880145675
:10320000000E1556040E14C0DBFF050E15C0DBFFC3
:1032100043DA0001800E15141200E66E16EF1CF062
:10322000166E060EE15E165001DAB8EF1BF0CFDA2B
:1032300092D9010EE66E1200F80EDBCFE6FF3BEFEF
:103240001CF014C0F3FFF46E1200020E5EDAE9DA2D
:10325000E66A120086D946EC5EF01C6E0D0EE15E49
:103260001C501200E66EF9EC68F0E552AAEF1BF074
:1032700085EC25F0BDEF1BF0E66E1E0EE66EE66AED
:103280001200120E7FDAEE50EFCFEAFFE96E0E0E5B
:10329000C2EF1BF016D9020EE1261200186E060EC0
:1032A000E15E1850120009C0DBFFB3D91FDAB1ECA0
:1032B00039F0E552E5521200166E070EE15E165027
:1032C0001200040EDBCFE6FF050EDBCFE6FF120097
:1032D000FD0EDBCFE9FFFE0EDBCFEAFF120040EC74
:1032E0003AF03AEF1BF0D950070FE96EDACFEAFF58
:1032F0001200140EE66EE66A1200010EF36E040E62
:10330000F3CFDBFF050EDB6A1200020E23EF1BF08A
:10331000900EE66E230EE66E1200146E080EE15E4D
:1033200014501200D880EE54000EED541200E66ED8
:10333000320EE66EE66A1200010EE66EE66A1200D2
:10334000010EDBCFE9FF020EDBCFEAFFC2EF1BF07D
:10335000280EE66EE66A1200F8DA76EF1BF0186EB9
:103360000B0EE15E18501200010EE66E020EE66EC4
:103370001200E126CDEF1AF0F50EDBCFE6FFF60ED8
:10338000DBCFE6FF1200010EDBCFE6FF020EDBCF44
:10339000E6FF12009AEC25F0BDEF1BF092D8060E66
:1033A000E1261200F36E060EDBCFF4FFF350F45C5F
:1033B00012005FEC3CF01A6E090EE15E1A5012002A
:1033C0006EEC14F0186E090EE15E185012006EECEF
:1033D00014F0146E090EE15E14501200010EDBCFE2
:1033E000E6FF1E0EE66EE66A120016C0E6FF17C084
:1033F000E6FF1200E66EE66AB4EF18F0CEEC68F075
:10340000E552E552A8EF18F027EC65F0E552E552D9
:10341000BBEF18F0A3DAEEEF18F0E5D9D950F70FAB
:10342000BED9C3D95CDFC1D9AEDE92EC25F0BDEFC9
:103430001BF0A1DEC1DE11EF1CF09DDEBDDE020E31
:10344000CAEF18F00FDF90DF3FEC5FF094DEFDDE97
:10345000070E79EF1CF0E66ED950F90FA0D9020ED5
:10346000E66E59D92FEC4DF0E55281DAE66A12008A
:1034700020DA7ED9C1EC61F072DFB5D996D974DE5D
:103480009DEC25F0EEEF18F0020E45D999EC39F0DD
:10349000E552E5520EDA166C171E000E1722F90ED1
:1034A000DB50165C146EFA0EDB501758156E020EC8
:1034B0002CD94BDA4ADA14C0EEFF15C0EDFF020E2C
:1034C0001200D9CFE6FFE1CFD9FF120054DE9CD91C
:1034D00088EF19F0D8801456000E15569DD9B4EF18
:1034E00018F0F6DE32DA59DEE0EC54F099DEC3D99A
:1034F000BFDE75D11DEC14F0E1EF18F01702F3CF29
:1035000017F01602F3CF16F0F4501726FB0EDB501F
:10351000F324146EFC0EDB501720156E14C0E6FF6A
:10352000E66E22DEE0EF19F0F3CF18F0F4CF19F0D9
:103530001FD9E66A12000ED945D9020EECD842EF27
:103540001CF066D950D93ED930D942EF1CF028EC96
:1035500014F0E1EF18F0E66EF9EC68F0E552F3EFE5
:103560001BF0F3CF1AF0F4CF1BF0B8EF1BF07FD9AC
:103570005CEF19F0030EE66EE66A020EE9EF18F052
:10358000050E29D906EC10F0A5EF18F0020ED3EFC6
:1035900018F0020EC0D8C3EF18F0F70EDBCFE6FF2D
:1035A000F80EDBCFE6FF1200B1EC39F0D1DDC3EF4E
:1035B00018F0E96EDACFEAFFCDEF18F0020E5CDE0C
:1035C000F2EF18F0F70EDBCFE6FF36DEDCDD0DECB8
:1035D0004FF026DEB4EF18F0030ED3EF18F0E552EB
:1035E000E552040E06C0DBFF050E07C0DBFF060E2A
:1035F00008C0DBFF070E1200DBDD010EE66EF80EE1
:10360000DBCFE6FF1200D1D8BEDD32DE020EE15C78
:103610001200FB0EDBCFE9FFFC0EDBCFEAFF110E41
:10362000C2EF1BF027EC65F0BDEF1BF0F3CF14F0F9
:10363000F4CF15F01200E66EE668B4EF18F007EC70
:1036400014F0E1EF18F0E66E010EE66E1200020EC5
:103650000DEF19F0B1DD15DEEECF14F0EFCF15F060
:10366000120006C0E6FF07C0E6FF08C0E6FF09C07B
:10367000E6FF1200146E060EE15E14501200020EF8
:10368000E66E37DEAFDD3C0E120056DE000E120095
:10369000DE52A9D8DD521200040EDBCF14F0050E65
:1036A000DBCF15F01200A5DD5FDD07EF14F07AEC3B
:1036B00065F0E552E5521200E66E020EBFEF18F01B
:1036C00018DEB4EF18F0F0EC14F0E1EF18F042EC73
:1036D00015F08DEF19F0E66EE66AE6EF18F038DEC9
:1036E000B4EF18F0C3EC13F08DEF19F0EECFE6FF56
:1036F000EFCFE6FF1200030E3CEF19F054DD43DD7F
:10370000FEEF19F050DDBBEF1CF0DBCFE9FF030E3D
:10371000DBCFEAFF1200DBCFE6FF030EDBCFE6FFD5
:103720001200B3DFE66EE66A6FDEF350F4101200AB
:1037300061DE7AEF1AF031DFF70EDBCF16F0F80E0C
:10374000DBCF17F0166C171E000E17224EDE5CDE64
:10375000A0EF19F0020EF3CFDBFF030EF4CFDBFF77
:10376000120048DEA7EF1AF0000EE66EE66A1200BD
:10377000F3CFE6FFF4CFE6FF1200E552E552E55243
:10378000E5521200E926000EEA2212009ADDD4DD8D
:103790003BDE010EF31812004CDEB2EF1CF0E96EB6
:1037A000FF0EDA20EA6ECDEF18F0DECFE6FFDDCFB8
:1037B000E6FF120048DF40EF63F0A7DD3FEC5FF06B
:1037C00019EF1AF0D1DCB1EC39F0A8EF18F079DE7E
:1037D000040EE1261200E66E030EBFEF18F0E5526C
:1037E000E7CFD9FF1200F3CFDEFFF4CFDDFF1200E9
:1037F000F3DEEC0E20DF7EDEC6EF1AF0E66EE66842
:10380000E5DC25DFF2EF18F0D7DC040ECAEF18F084
:10381000E0EC54F04EEF19F014C0E6FF15C0E6FFDF
:103820001200F3CFEEFF15C0EDFF12000A0EE66E98
:10383000E66A12002FEC4DF0E552E552E55294EFA6
:103840001AF095DE22DFC5DCF410120000DF38DF4D
:103850007EDE020E12008FD8A1EF1AF03BDE07ECDD
:1038600014F05CEF19F092DE3ADF1FEF1BF0C1DCC1
:103870007BDC28EF14F0F90EDBCFE6FFFA0EDBCF8E
:10388000E6FF120030EC3AF04EEF19F06DDCD4EFA9
:103890001AF05BDC0AEF1AF06DDE0DEF19F0E66E40
:1038A000E66804EF1AF0A6DD1FEF1BF0A3DD72EF50
:1038B0001BF0F3CF16F0F4CF17F01200E66E57EFBF
:1038C00064F06ADF200EE66E030EE66E41EC53F004
:1038D000FDDDF00EE66E260E11DF52DE0AEF1AF065
:1038E00034DC13DF130E4EDF010EEF6E020E0AEF13
:1038F0001AF0E4DF40DC020EE76E07DFE750CAEFA4
:1039000018F02FDEC2EC55F01C6E0E0EE15E1C505E
:10391000AAEF1BF0E66E010EF5DE08EF1CF0E66A7A
:10392000160EE66E250E82EF1BF01EDF04EF1AF076
:103930003FEC5FF07EDD2C0E3DDF1DEF1AF0C6DDA3
:10394000EA0EE66E250E7EEF1BF0020EC2EF1BF0B4
:10395000E66E300EE66E250E7EEF1BF0DCDE04DC3C
:1039600088EF25F010DC9AEC62F01DEF1AF0BBEC4A
:1039700018F0B8EF1BF0E66EE66AFEEF19F0F1DE24
:0A3980007BEF1BF0D5DEECEF1AF030
:06398A000101F7510AE102
:103990000F01030E4A6F860E486FB90E496F010181
:1039A000010EF76F460E146E0F0EA8EF22F0010104
:1039B000F8510AE10F01010E4F6FA10E4D6FB90EC4
:1039C0004E6F0101010EF86F4B0E146E0F0EA8EF33
:1039D00022F00101F9510AE10F01010E546FAA0E04
:1039E000526FB90E536F0101010EF96F500E146E34
:1039F0000F0EA8EF22F00101FA510AE10F01010EAA
:103A0000596FB30E576FB90E586F0101010EFA6F5F
:103A1000550E146E0F0EA8EF22F00101FB510AE1C2
:103A20000F01010E5E6FBC0E5C6FB90E5D6F010180
:103A3000010EFB6F5A0E146E0F0EA8EF22F001015B
:103A4000FC510AE10F010B0E636FC50E616FB90ED9
:103A5000626F0101010EFC6F5F0E146E0F0EA8EF76
:103A600022F00101FD510AE10F01060E686F280ED8
:103A7000666FBA0E676F0101010EFD6F640E146E62
:103A80000F0EA8EF22F00101FE510AE10F01010E15
:103A90006D6F5E0E6B6FBA0E6C6F0101010EFE6FE3
:103AA000690E146E0F0EA8EF22F00101FF510AE11A
:103AB0000F01100E726F670E706FBA0E716F0101F9
:103AC000010EFF6F6E0E146E0F0EA8EF22F039EC90
:103AD00024F0090EBCEC23F0140EBCEC23F0120E03
:103AE0004BEC22F0BAEC22F075EF22F03CEC24F023
:103AF000070EE66E040E46EC22F0E0EC54F00AEC01
:103B000023F0CDEC23F062EC22F0B1EC39F0E55279
:103B1000E552E8EC23F077EC23F090EC23F030EC66
:103B20003AF00AEC23F090EC23F0FB0EDBCFE6FF3B
:103B3000FC0ED4EC22F038EC22F01E0EFCEC23F04C
:103B4000000806E238EC22F01E0E4BEC22F0EF06E5
:103B500037EC23F0140E4BEC22F0EE2AEF22020E8B
:103B6000E15C02E2E16AE552E16E75EF22F0D9CF45
:103B7000E6FFE1CFD9FFFD0EDBCFE9FFFE0EDBCF85
:103B8000EAFF100EE926000EEA22EECF14F0EFCF86
:103B900015F014C0E6FF15C0E6FFFD0EDBCFE6FF13
:103BA000FE0EDBCFE6FFC0EC39F0E552E552E55200
:103BB000E7CF15F0E552E7CF14F006C016F007C0C6
:103BC00017F008C018F009C019F006C0E6FF07C0DA
:103BD000E6FF08C0E6FF09C0E6FFFB0EDBCFE6FF0D
:103BE000FC0EDBCFE6FFFD0EDBCFE6FFFE0EDBCFEC
:103BF000E6FF04D015C0FAFF1450F96EFBDF1A6E11
:103C0000080EE15E1A50E552E7CFD9FF120070ECC2
:103C100022F00A0EE66EE66A1CEC23F0F1EC23F0CB
:103C2000E0EC54F0166E060EE15E165040EC24F007
:103C30000DEC24F0F90EDBCFE6FFFA0ED4EC22F007
:103C400075EF22F02FEC23F0050E69EC22F0AFDEC9
:103C500080EC23F002E2E16AE552E16E75EF22F0BA
:103C60002FEC23F0080E69EC22F0B3DE80EC23F099
:103C700002E2E16AE552E16E75EF22F02FEC23F0EB
:103C80000C0E69EC22F0B7DE80EC23F002E2E16A70
:103C9000E552E16E75EF22F02FEC23F0140E69EC83
:103CA00022F0BBDE80EC23F002E2E16AE552E16E35
:103CB00075EF22F070EC22F0060EE126FD0EDBCF50
:103CC00008F0FE0EDBCF09F0020E08C0DBFF030E8A
:103CD00009C0DBFF040EC5EC22F0060EE66E57ECC1
:103CE00064F088EC22F0B0EC22F090EC22F0E4ECEE
:103CF00064F06DEC23F0010EE66E97EC22F09FDE8F
:103D0000D5DB040EF3CFDBFF050EACEC22F0FCECB0
:103D100022F09DEC23F0FCEC22F045EC24F0060EA2
:103D2000E15C02E2E16AE552E16EDFD3D9DB060E27
:103D3000E12626EC24F0020EEECFDBFF030EEECFE1
:103D4000DBFF040EEECFDBFF050EEECFDBFFD9501D
:103D5000040FE96EDACFEAFF0A0EEE5E000EED5AAE
:103D6000B6EC23F0EE06000EED5AADEC23F0070E94
:103D70004DEC23F0B6EC23F0020EEE26000EED2201
:103D8000ADEC23F0090E4DEC23F0060EE15C02E2EF
:103D9000E16AE552E16EA9D32FEC23F0060EE66E40
:103DA000010EE66EF90E12EC24F0080EE66E7DDED2
:103DB0007DDB65DB1FEC23F048EC24F0B7DF146EED
:103DC000080EE15E1450020EE15C02E2E16AE55287
:103DD000E16E8BD385DB040EE126D7DBFA0EE66EAF
:103DE0003FEC5FF095DBBCDB1CEC23F04BEC24F0EC
:103DF000D2EC23F0030E0D6E0E6A16C008F017C049
:103E000009F09AEC65F008C016F009C017F008C078
:103E1000E6FF09C0E6FF6AEC3FF06DEC23F0E66ACE
:103E200086DB31DE43DB020EF3CFDBFF030E94DBD8
:103E300077DB9DEC23F074DB45EC24F037EC23F0CA
:103E40004BEC24F0EE2AEF22040EE15C02E2E16A80
:103E5000E552E16E4AD344DB95EC23F0EF50020AC1
:103E60004BE0030A2CE0010A57E149EC23F0EF5044
:103E7000030A1BE0010A12E0030A09E0010A15E146
:103E8000E1DB440EEE6E3C0EEDDB090E14D0DADB06
:103E9000600EEE6E3C0EE6DB070E2BD0D3DB7C0E05
:103EA000EE6E3C0EDFDB060E06D0CCDB980EEE6E1F
:103EB0003C0ED8DB040E5DEC23F0010E2CD0E9DBC8
:103EC000010EFCEC23F0020A11E0030A09E0010AEA
:103ED0000DE1B8DB2C0EEE6E3D0EC4DB0A0E09D0F0
:103EE00019EC24F0050EE9DB030E15D019EC24F0D3
:103EF000030EE3DB020E0FD0CCDB020EFCEC23F052
:103F0000010A06E0010A04E1FFEC23F01C0E03D0D5
:103F1000FFEC23F0140EEF6EE8D2E2DA0A0EE1268F
:103F200040EC4CF0C0EC23F031EC4CF0040EF3CF3D
:103F3000DBFF050EF4CFDBFF30DB030EFCEC23F0E0
:103F400009E0F3DBEF2AEF50030802E1EEDBEF6A52
:103F5000B9DA65DB22DBEE52EF5011E0D9DBEFCFAF
:103F600014F0060E145C17E24EEC24F081DA220EF7
:103F700092DAEFCF14F0CCDB1450EF260BD0C8DB75
:103F8000EF50000808E274DA230E85DAEF0603E149
:103F9000BFDBEF0697DB01DBEF5026E069DA1F0E8F
:103FA000FCEC23F0000826E2C4DBEF5023E14ADBFF
:103FB000080EEECFDBFF090EEDCFDBFF43DBD40EA7
:103FC000EE6E3D0EED6E4EEC24F03CDB080EDBCFCA
:103FD000EEFF090EDBCFEDFF4BDA1F0E5CDAEF06CA
:103FE000A8DB320EEF6E06D0A4DBEF50000802E231
:103FF000A0DBEF0654DA060EFCEC23F01CE01CDB21
:10400000EE06ED5A15DBD6DA04E7FB0E145CFF0E64
:10401000155857E207EC24F0D880155004E7F60E47
:10402000145CFF0E155804E203DBF60EEE6EED682D
:1040300049DA83D944D033DA070EDEDB1AE0FCDA42
:10404000EE2AED22F5DAC8DA3CE214500508000E3B
:10405000155437E2DCDB153409E214500A08000E6F
:10406000155404E2E5DA0A0EEE6EED6A2BDA69D930
:1040700026D0DEDA67DA0001800E151404E0D8DA03
:10408000EE2AEF2208D0C3DB153405E2CCDA03E2D6
:10409000CFDAEE06EF5ABBDB153404E31450FB080D
:1040A000FF0E15540EE2C4DA7DDBD890175004E6FB
:1040B000050E165C000E175804E204DA46D9E552E4
:1040C000E552EDD9040E98DB0DE071DB73DA04E7FD
:1040D000F30E145CFF0E155829E269DBF30EEE6E49
:1040E000ED6824D0DCD9050E87DB0DE060DB74DAE7
:1040F0001DE214500D08000E155418E258DB0D0E89
:10410000EE6EED6A13D094DA1DDA0001800E1714FA
:1041100004E04DDBEE2AEF2209D049DB26DA153424
:1041200005E281DA03E243DBEE06EF5A70DB040EB0
:1041300041DB0850EE261550ED2239DB16DA030E6E
:1041400039DBA9DB0850EE261550ED2275DAFAD9D5
:104150000001800E151404E06FDAEE6AED6A18D0E3
:10416000B1D996EC39F0E552E552060E68DB3CDA3F
:104170000FE21450A008000E15540AE2060EDB50A0
:10418000146E156AA00E69DB14C0EEFF15C0EDFFBA
:1041900053DAD8D90001800E171405E04DDA7BDB25
:1041A000EE6AED6A1AD08ED999EC39F0E552E552F3
:1041B000070E45DB70DB18DA10E21450F508000E2C
:1041C00015540BE2070EDB50146E156AF50E45DB35
:1041D00062DB14C0EEFF15C0EDFF4EDAB9DA1CEC5D
:1041E0005CF005DB000E146E0A0EE15C02E2E16A8F
:1041F000E552E16E145079D13CDB0B0E4CD9060E22
:10420000EF6E000E23DA14DADED982DAEF6A5ADAB8
:1042100059D924EC3AF0E552E5525EEC3AF0D8DA9E
:1042200066DA50D93AEC3AF0F5D95FD159D9040E93
:10423000E126250EE66EF9EC68F0E552A1DA2FD9F9
:10424000CE0EEE6E3A0EED6E2AD925DBFB0EDBCFDD
:10425000EEFFFC0EDBCFEEFFFD0EDBCFEEFFFE0E22
:10426000DBCFEEFF1CD90C0E16D9EC0EEE6E3A0E1B
:10427000ED6E15D90E0E0FD96E0EEE6E3B0EED6E75
:104280001A0EE66E3F0EE66E54EC5CF0E552E55217
:104290003CDA090EBFDAC5EC1CF037DA060EBADAE2
:1042A0003FD924EC3AF0E552E5523AD9CDEC40F052
:1042B000E552E5522ADA140EADDAC8D9F0D8160E56
:1042C000EAD881D9ECD8210EE6D8EF6AE8D81E0EDC
:1042D000E2D8030EEF6EE3D8200EDDD8320EEF6E7B
:1042E000DED81F0ED8D8030EEF6E79EC67F00DDA2A
:1042F000120E90DAD4D81B0ECED8020E31DA010E8F
:104300002FDAEF6ECCD81A0EC6D8EF6A09D987D942
:1043100007D972DFE552E552020EDBCF14F0030E2F
:10432000DBCF15F014C0F3FF15C0F4FF040EE15C01
:1043300002E2E16AE552E16ED8D0EED9020EEF6EEC
:10434000D4D0EAD9010EEF6ED0D0E6D9EF6ACDD045
:10435000C7D89FD9E9CF14F0EACF15F0E6D9EF50CE
:104360000F011424E96E000E1520EA6EEF2AAAD878
:1043700056D9BBD081DAFB0EDBCFE9FFFC0EDBCFD9
:10438000EAFF120E39DA070DF350DE6EDD6AFA0E1F
:10439000DB500DE0D9CFE9FFDACFEAFF010E0F0BBA
:1043A00006E0EC52D890ED32EF32E806FAE15FD940
:1043B000100E71D8EE2AEF22B3D984D81AD817DAA2
:1043C000020EE15C02E2E16AE552E16E8ED088D82D
:1043D000FC0EDB50146E156A4AD9160ED8D9FC0EA5
:1043E000DBCFE6FF6FD840EC61F0E552E552E552D5
:1043F0007CD076D808D9153402E215D919E337D91B
:10440000120E49D8B2D8FB0EDBCF16F0FC0EDBCF74
:1044100017F0166C171E000E17221650145C17505A
:10442000155806E224D9120E36D8EE6AED6A04D089
:10443000EAD81DD9120EABD958D052D843D82DEC9A
:1044400039F0E552E55284D92DEC39F0E552E552C8
:104450004CD046D81ED91FDAEFCF15F01AD9010E6D
:104460001AD8EFCF14F015D9EF50142415243DD0ED
:10447000FD0EDBCFE9FFFE0EDBCFEAFF12008DD988
:10448000DED84ED95AD94CD945EF24F0E66E000E4D
:10449000DDD877EF23F0E926000EEA221200020EA3
:1044A000DBCFE9FF030EDBCFEAFF1200F3CF1AF0F8
:1044B000F4CF1BF0B2D946EC5EF01C6E0D0EE15E3F
:1044C0001C501200FD0EDBCFE6FFFE0EDBCFE6FF39
:1044D0001200E66E010EE66EF70EA4D9E66A12002F
:1044E000D9CFE6FFE1CFD9FF1200E552E7CFD9FFE0
:1044F0001200030EE66E070EE66E38D972D99FD809
:104500005FEC3CF01A6E090EE15E1A5043EF23F0A7
:10451000E552E552B5D9DECFE9FFDDCFEAFF120063
:10452000020EDBCFE6FF030EDBCFE6FF1200020E2A
:10453000E66EF6D82FEC4DF0E552E552E552A3D8E1
:10454000E66A1200EECF14F0EECF15F0D2EF23F0B2
:1045500014C0F3FFF46E1200F4CFDBFF1FEF23F063
:10456000F3CFEEFF15C0EDFF1200EECF14F0EFCF4A
:1045700015F0120098D9D7EC66F0E552E55212001A
:10458000EE50EFCFEAFFE96E1200E66EF9EC68F04C
:10459000E55203D9010EE66E1200040EDBCFE9FFEF
:1045A000050EDBCFEAFF1200DBCFE6FF85EC25F03E
:1045B000F7EF23F0EE06ED5AEECF14F0EDCF15F045
:1045C000D8801550120006C0EEFF15C0EEFF16C0D1
:1045D000EEFF17C0EEFF1200EE2AED22EECF14F030
:1045E000EDCF15F0153412001650EE24146E17504E
:1045F000EE20156EE8341200040EDBCFE6FF050E48
:10460000DBCFE6FF1200FB0EDBCF14F0FC0EDBCF9E
:1046100015F01200186E060EE15E185012001BDC39
:10462000E552E552120014500008000E1554120015
:104630001FDF160E4BEF22F01BDF4BEF24F006D9E5
:10464000F1EF23F015DF100E4BEF22F0E66EE66A75
:10465000E66EE66ACEEC68F0CAD8E8EF23F00CD933
:1046600033EF24F0ED6E04DF240E4BEF22F000DF79
:10467000120E11DFC0EF22F0FB0EDBCFE6FFFC0EC7
:10468000DBCFE6FF1200F3CF18F0F4CF19F00DEFF7
:1046900024F0EEDE1B0E4BEF22F0E66E55EC1DF023
:1046A000F3CF1BF0F4CF1CF0B8D846EC5EF01D6ED3
:1046B0000D0EE15E1D503FEF22F0EF6ED9DE220EAF
:1046C0004BEF22F0D5DE240E97D8E66ED1DE230E16
:1046D000E2DEE552E750EF6E12001ADF020E9AD8C2
:1046E000010EE66EA20EE66EBD0E46EF22F006C08B
:1046F000E6FF07C0E6FF08C0E6FF09C0E6FF1200BC
:10470000D5DEBDDE020EE15C1200BAD84FEF22F01A
:10471000AFDE210E4BEF22F0ACD8080E4BEF22F0AB
:10472000DECFE6FFDDCFE6FF1200A2DE1A0E4BEF72
:1047300022F09EDE200E4BEF22F03AEC3AF0146E9F
:10474000060EE15E145012008DEC25F0F7EF23F019
:104750008FDE140EA0DE53EF24F085D879EF22F01F
:104760009ADEEF6A9CDE1B0E4BEF22F0D950020F4F
:10477000E96EDACFEAFF12008EDEFCDE38EF22F0BF
:10478000020EF3CFDBFF030EF4CFDBFF120083DE5C
:104790001450EE261550ED221200F3CFDEFFF4CFB9
:1047A000DDFF1200EECF16F0EFCF17F0120040DF62
:1047B0004BEF24F00D6E0E6A14C008F015C009F01E
:1047C0009AEC65F008C014F009C015F01CEF23F056
:1047D00006C014F007C015F008C016F009C017F0A5
:1047E0001200EECFE6FFEECFE6FF53EF24F0E552E6
:1047F000E552E552E55212004EDEEF50120022DF84
:10480000B40EEE6E3C0E2EDF050E5DEF23F010DFD2
:10481000B5EF22F040DEB0EF22F0F3CFE6FFF4CFA9
:10482000E6FF1200E66E3FEC5FF0E552E55243EF23
:1048300023F008DF980EEE6E3D0E32EF23F0F3CF3B
:10484000DBFFDB50166E176A1CEF23F0D950F70F11
:10485000E96EFF0EDA20EA6E1200D8801456000EC0
:1048600015561CEF23F0E66A0E0EE66E3C0E46EF80
:1048700022F036DE38EF22F033DE020EE12612009F
:10488000F3CF14F0F4CF15F01200F6DEA4EF23F00E
:10489000F3DE62EF22F0020E4BEF22F0F9DF5CEC68
:1048A00061F0F7EF23F0EECFE6FFEFCFE6FF120067
:1048B000C3DB020EE12640EC4CF0E2DB42EC29F0D7
:1048C000EE52EF500EE042EC29F0EF500AE042ECDD
:1048D00029F0030EC3DB05E00201FF0705E1010E2D
:1048E00004D00201190EFF6F000E146E020EE15C7F
:1048F00002E2E16AE552E16E1450A3D39DDB020EA1
:10490000E126F9EC28F0C1EC28F003E098EC28F05F
:10491000FAD7D2EC28F0C1EC28F003E098EC28F0AC
:10492000FAD7FDEC28F0C1EC28F003E098EC28F071
:10493000FAD701EC29F0C1EC28F002E0F9DBFBD753
:1049400005EC29F0C1EC28F002E0F2DBFBD726DB16
:104950000D0E2DDBC1EC28F002E0EADBFBD709EC01
:1049600029F0C1EC28F002E0E3DBFBD717DB030EF4
:104970003EEC29F0050E3EEC29F0070E3EEC29F046
:10498000090E3EEC29F00B0E3EEC29F00D0E3EEC2C
:1049900029F00F0E3EEC29F01B0E3EEC29F0150E0F
:1049A0003EEC29F0170E3EEC29F0190E3EEC29F0F2
:1049B0001D0EFBDA3ADB0DEC29F037DBACDB35DB27
:1049C000EDDA130EF2DAFDEC66F0E552E552020E76
:1049D000E15C02E2E16AE552E16E33D32DDB060EC3
:1049E000E126280EE66EF9EC68F0E5525ADBF6DABD
:1049F000FC0EEE6E480EED6E69EC29F0030EA2DBA4
:104A0000A1DB070E9FDB090E9DDB0B0E9BDB0D0E62
:104A100099DB0F0EFDDAE2DA130EAFDBFB0EDBCF14
:104A2000EEFFFC0EDBCFEDFFD9DA110EA6DBFD0E9B
:104A3000DBCFEEFFFE0EDBCFEDFF5EEC3AF0BADB34
:104A4000B9DA3AEC3AF0186E060EE15E1850E60E4E
:104A5000E66EE66A820E53DBB3EC5AF082DB150E8B
:104A6000D7DAE60EE66EE66A010E49DBE3EC59F0B2
:104A700078DB170ECDDA030EE66EE66A9B0E3FDB9F
:104A80004EEC5BF06EDB190EC3DADC0EE66EE66A06
:104A90009A0E35DB06EC58F064DB1B0EB9DADC0E3F
:104AA000E66EE66A010E2BDB6AEC48F05ADB1D0E5F
:104AB000AFDA94DA270EC1DB1F0EEB6A200EEB6A29
:104AC0008DDA210ED9DA8ADA220EB7DB230EB5DBB6
:104AD000250ED2DA83DA260EB0DB020ECDDA040E12
:104AE000DBCF14F0050EDBCF15F014C0F3FF15C0BB
:104AF000F4FF060EE15C02E2E16AE552E16EA1D24A
:104B00009BDA4CDA020EAADA9CD232DB030E1DD3FA
:104B1000D5DB0E0E24DB050E18D3D0DB040E1FDB15
:104B2000070E13D3CBDB0C0E1ADB090E0ED320DBE2
:104B30000B0E0BD31DDB0D0E08D3C0DB080E0FDBF5
:104B40000F0E03D3D2DA030E05D3CFDA050E02D34C
:104B5000CCDA070EFFD2C9DA090EFCD2C6DA0B0E88
:104B6000F9D2C3DA0D0EF6D2C0DA0F0EF3D264DA40
:104B7000050EE12613DA64DBC7EC4AF00FDB0D0EFD
:104B800016DA33DA02E01DDAFCD743DB2EDA02E074
:104B900018DAFCD736DB29DA02E013DAFCD702DBBD
:104BA00024DA02E00EDAFCD728DB1FDA02E009DAA9
:104BB000FCD787DB09E1F2D9210E50DA05E0ABDA48
:104BC0001DEC22F0E552E55214DB0FDA02E0F9D9D0
:104BD000FCD71BDB0ADA02E0F4D9FCD7E7DA25E1DF
:104BE000DDD9170E7BDB150E79DB190EDED99CECB7
:104BF0005BF0D4DA1B0ED9D954EC58F0CFDA1D0E85
:104C0000D4D9FDEC47F0E552E552E66A020EE66EB5
:104C1000E66A69DBCFDA88DA120EC7D952EC37F0D0
:104C2000186E070EE15E185005D0F7DAF0EC30F0A0
:104C3000E552E552050EE15C02E2E16AE552E16E01
:104C400000D2FAD9040EE126A9D9250E07DA38E0F8
:104C5000B1D928DB140EA9D92DDBA0D9260E42DA52
:104C6000EF50020831E157DA99EC39F0E552E5529C
:104C7000F8D9F00ED8801456000E15560A0E145EA0
:104C8000000E155A020E14C0DBFF030E15C0DBFF29
:104C900009DB33DB32DBEE06ED5AEECF14F0EDCF5D
:104CA00015F0020EDB50141807E1030EDB50151847
:104CB00003E174D9250EDAD971D9260ED7D904D0DB
:104CC00000DB02E1ECDAF6DAACDA1BE067D9230E9E
:104CD00009DAEF0416E162D9210EC0D902E0000E14
:104CE00001D0010EE66E5AD9210E47DAE552E7509F
:104CF000EF6E79DAF7D9EF50640803E14FD9220E4D
:104D0000B5D954DA19E089DA49EC30F0B3DA14E0B5
:104D100045D91F0E4CD90D0E48D9D0EC2EF0E552D6
:104D2000E5529FD901DA120E28DAF350EE2615501B
:104D3000ED2234D9020E9AD9E3DA170E45DA150EB0
:104D400043DA7EDAB7DA32DA06E1DADA130E2DD98F
:104D50008AEC63F03ED94DDA55D960D908E0DFD945
:104D600004E1EAD9EFDE06DAF8D78CDAF5D71ADAF9
:104D700049D954D908E0D3D904E1DED9E6DEFAD91D
:104D8000F8D780DAF5D739DA3DD948D908E0C7D95C
:104D900004E1D2D9DDDEEED9F8D774DAF5D731DA0D
:104DA00031D93CD908E0BBD904E1C6D9D4DEE2D977
:104DB000F8D768DAF5D72DDA25D930D908E0AFD998
:104DC00004E1BAD9D1DED6D9F8D75CDAF5D71DDA45
:104DD00019D924D908E0A3D904E1AED9BFDECAD9D4
:104DE000F8D750DAF5D7DAD80D0EE1D80BD916D9A5
:104DF00008E095D904E1A0D9B4DEBCD9F8D742DAED
:104E0000F5D7D4D930E154DD000901E07CDA59DA74
:104E10002AE0C4D8030EC9D86FEC45F02BDA23E0A2
:104E200041DA1E0E1BD90EE1B9D8270E25D973D948
:104E30002DEC2FF0E552E552F4CF15F0AFD81F0E50
:104E4000E7D811D068D9FCEC20F0A8D9220E14D9EB
:104E5000CAD90CD9A3D8210E0FD9A0D8250E0CD9A8
:104E60009DD8260E03D9040EE15C02E2E16AE55208
:104E7000E16EE7D0E1D8070EE12694D93EDA020EC2
:104E8000EECFDBFF030EEDCFDBFF07D930E0060EE0
:104E9000DB6A84D8070E89D8CDD847EC4EF06AD9A2
:104EA000BDD81BE041D9060ED5D9AAD801D9CDD994
:104EB000C1D840EC61F0E552DDD908E0010EF36E97
:104EC000060EF3CFDBFF76D8B5D889D9D2D80E0E2F
:104ED000C5D803E131D93CDE7CD8060EDB5005E0B5
:104EE000E66A07DA51D9EBD8D0D772D9C7D7E9D952
:104EF0004EE154D8090EDAD93DD990D811E0CFD976
:104F00007FD8D6D88ED905E1A0D905D9E6D801E059
:104F1000FAD9AFD80E0EA2D803E10ED91CDE59D8AB
:104F20003DD80F0EC3D955D8BCD8D950040F7DD960
:104F300012E0B5D953D8C8D917EC62F0146E060E3A
:104F4000E15E1450040EDBCFE6FF050EDBCFE6FF7B
:104F500031D80ADE3ED822D8050EA8D93AD8AFD823
:104F60009CD815E035D981D9130E78D810E159D9DC
:104F700006E1020EE66ECFD8B0D801E0C4D9010E2A
:104F8000E66EB7D9D1D8180E65D929D9FDD8070E44
:104F9000E15C02E2E16AE552E16E53D0FD0EDBCF47
:104FA000E9FFFE0EDBCFEAFF1200E7D844D1E5D8D7
:104FB00035EF29F0FD0EDBCFE6FFFE0EDBCFE6FF7F
:104FC00012004CD981D92DEC39F0E552E5522EEF83
:104FD00029F0E552E552E552E5521200040EDBCF0E
:104FE000E9FF050EDBCFEAFF120087D9030EEECFF3
:104FF000DBFF040EEDCFDBFFD950030F15EF29F0D7
:1050000041D919D17AD9EECFDEFFEDCFDDFF120005
:10501000B4D8F3CFEEFF15C0EDFF1200D9CFE9FFF2
:10502000DACFEAFFEE50ED101200D7EC66F0E55251
:10503000E5521200CDD8FFD0D9CFE6FFE1CFD9FF9E
:105040001200E552E7CFD9FF120006C0E6FF07C005
:10505000E6FF08C0E6FF09C0E6FF12008ED8EF5059
:105060001200F3CF14F0F4CF15F0120086D8EF6AD7
:10507000120008D935EF29F080D8010EEF6E12002A
:10508000F3CFDEFFF4CFDDFF120077D8EE2AEF2258
:10509000120054EC61F03AEF29F0D950020F15EFED
:1050A00029F0040EF3CFDBFF050EF4CFDBFF120077
:1050B0009FEC5EF0146E060EE15E14501200020EBC
:1050C000F3CFDBFF030EF4CFDBFF1200BAEC21F0CD
:1050D000146E050EE15E14501200E7EC21F0E5526B
:1050E0003AEF29F04AD8EF2A1200A6DFFB0EDBCFF9
:1050F000E9FFFC0EDBCFEAFFE7D897DFC8D0F3D893
:1051000006C016F007C017F008C018F009C019F063
:105110009CDFDAEF27F042DF110ED5EF27F04ADFF0
:105120006FDFC8D801081200BDD8120ED7EF27F0E4
:1051300067DF7BDF42EF29F0DECFE6FFDDCFE6FF62
:10514000DAEF27F065DF69EF29F02FDFEAEC44F0B2
:1051500040DF77D72ADF03EC45F03BDF72D795DFDE
:1051600096D01A6E060EE15E1A507BDFEEEF27F046
:1051700063DF8DD02EDF40EF28F0E926000EEA2213
:10518000120040DF0EEF28F0020EDBCFE6FF030E29
:10519000DBCFE6FF0FDFD9DCE9EF27F0E552E55280
:1051A000CEEF27F0FBDE050ED7EF27F0F7DE270E58
:1051B0002EEF28F006C014F007C015F008C016F056
:1051C00009C017F025EF28F0F0DE74D880EF29F041
:1051D000020EDBCFE9FF030EDBCFEAFF1200FEEC8D
:1051E00060F0E9EF27F0DADE230E40DFD7DE240E91
:1051F0001200D4DE030ED7EF27F0D0DE070ED7EF74
:1052000027F0CCDE090ED7EF27F0C8DE0B0ED7EF64
:1052100027F0C4DE0F0ED7EF27F0C0DE1F0ED5EF4C
:1052200027F0BCDE220E2EEF28F0E96EDACFEAFF7F
:10523000EE50ED10120064EF29F018DFEEEF27F0CA
:10524000130EB5DE020ED5EF27F013DF0B0E06DFCF
:10525000E66E12001ADFAEDE1AEF28F0030EDBCF87
:10526000E9FF040EDBCFEAFF1200EE50EFCFEAFFBA
:10527000E96E1200E552E5520009120096DED5DE15
:10528000CEEF27F0DECFE9FFDDCFEAFF1200FB0E05
:10529000DBCFE6FFFC0EDBCFE6FFCEEF27F08ADEAA
:1052A0008BEF28F07BDE110ED7EF27F07EDE33DFA9
:1052B00047EF4EF01CEC5CF0E9EF27F0BDDE94EF19
:1052C00028F029DF49EF28F0EECFE6FFEFCFE6FF29
:1052D0001200CEEC44F0C5DEEEEF27F066DE2DECDA
:1052E00039F0CEEF28F0E66EE66ACEEC68F0E9EF32
:1052F00027F0A0DE10DF66EF28F0020EBDEF28F0E9
:0C53000059DECEEF27F0CBDFEFEF28F0F6
:04530C000301C65182
:105310000AE10301010EA16FB50E9F6FD40EA06FBD
:105320000301010EC66F9D0E146E030E14C0F3FF31
:10533000F46E1200A6EC2DF0020EE12610EC2EF019
:105340007DEC2EF0BFEC2DF00BE006EC2EF00BEC1C
:105350002EF007EC69F0E552E55206EC2EF0F0D79E
:1053600017EC2EF0D7EC66F0E552E552020EE15C48
:1053700002E2E16AE552E5D3E9DB050EE126DF6AE8
:1053800010EC2EF0020ED2DB010EEECFDBFF020E90
:10539000EDCFDBFFD950010FF4EC2DF022E01EEC35
:1053A0002EF0030EEECFDBFF040EEDCFDBFFDFCFE1
:1053B000E6FF78EC2EF0FAEC2DF067EC2EF0030E01
:1053C000DF24E66EE66A020EE66EE66A030EFAEC8B
:1053D0002DF0ACDB67EC2EF0050EDF261EEC2EF078
:1053E000D2D7050EE15C02E2E16AE552AAD3AEDB58
:1053F000060EE126CEEC44F025EC2EF0DF6A010E1D
:10540000DB6A0A0EDF5C3AE200EC2EF0040EF3CF0A
:10541000DBFF050EF4CFDBFF010EDBCFE6FF78EC00
:105420002EF0C0DB6CEC2EF0BDDB85EC2EF0010E17
:10543000DB50030FE66EE66A020EE66EE66AB2DB4A
:1054400089EC2EF06CEC2EF0040EDBCFE6FF050E9F
:10545000DBCFE6FF020EDBCFE6FF030EDBCFE6FF7E
:105460002CEC2EF0DF2A050E146E010EDBCFE7FFC9
:105470001450E726010EE7CFDBFFC3D7020EDBCFC8
:1054800014F0030EDBCF15F014C0F3FF15C0F4FFCA
:10549000060EE15C02E2E16AE55253D357DB140EDB
:1054A000E12634DFD2DBD950040FE96EDACFEAFF10
:1054B0005F0EEE6EEE6A060EDB6A8DDBA80EE66E00
:1054C0001A0EE66E5FEC4AF0E552E552100EF3CF8D
:1054D000DBFF110EF4CFDBFF120EDB6A130EDB6A6B
:1054E000010EE66E41EC33F0E552F1EC34F022DBD4
:1054F0007DEC2EF0EF5001E02FD10A0EE66E99EC14
:105500005FF0E55268DBD950FB0FE96EFF0EDA2041
:10551000EA6EEE50ED105BE0A3DBEE50EFCFEAFF5A
:10552000E96E166EEACF17F0060EDB500001162466
:10553000146E000EEA20156E070E14C0DBFF080E75
:1055400015C0DBFFF7DAEE52EF500CE0060EDB5031
:1055500006E1020EF36E060EF3CFDBFF4ED0060E11
:10556000DB064BD0E7DAEF5008E0060EDB2ADB5013
:10557000020843E2060EDB6A40D0DCDA060ED6DA19
:10558000EF500EE0B3DAEF50410813E0AFDAEF501E
:10559000200803E1ABDA5A0E15D0A8DAEF062DD0B9
:1055A000C9DA070EC3DAEF5028E0A0DAEF505A0844
:1055B00003E19CDA200E06D099DAEF50200804E1CE
:1055C00095DA410EEF6E19D091DAEF2A16D0D95044
:1055D000120FE96EDACFEAFF0A0EEE26000EED2278
:1055E000120EDBCF14F0130EDBCF15F0980E145C07
:1055F0003A0E155802E3010EB5D0DBDAC7EC4AF0DB
:10560000E552E552010EE66E000EE66EE66AE66EC3
:10561000E66A58DA2CDB71DBFEDACFEC4FF0186E5D
:10562000070EE15E1850000EE66EE66AC2DA1CEC68
:105630005CF048DB460EDF6EFD0EDBCFE9FFFE0EB1
:10564000DBCFEAFF5ADB0A0EEECFDBFF0B0EEDCF0E
:10565000DBFFD9500A0FC8DA74E0FB0EDBCF14F081
:10566000FC0EDBCF15F00A0EDB50141803E10B0E15
:10567000DB50151803E0090EDB6A34D0010EF36E1F
:10568000090EF3CFDBFF010EE66EDF04E66EE66A7D
:10569000F5DA97EC37F0E552E552F3CF1CF0F4CF92
:1056A0001DF0060EDB501A6E1B6A086E1BC009F057
:1056B000F3CF0DF0F4CF0EF0EDEC65F006C018F06E
:1056C00007C019F0550E1826000E192218C0E6FF63
:1056D00019C0E6FFF7D9D2DA23EC37F01E6E070EB9
:1056E000E15E1E500A0EDBCFE9FF0B0EDBCFEAFFB7
:1056F0000C0EEECFDBFF0D0EEDCFDBFFC6DA550E45
:10570000FFDAE9CF18F0EACF19F0E9CFE6FFEACFE8
:10571000E6FF23EC37F01A6E070EE15E1A50B5DA99
:10572000730EEEDAF6DA77DA52EC37F0186E070E0F
:10573000E15E1850100EDF260A0EDBCFE9FF0B0EDC
:105740007FD7D950010FE66E000EDA20E66E53ECDB
:1057500033F0E552E552CBD62CDAD7EC66F0E552C1
:10576000E552000E146E140EE15C02E2E16AE552AD
:105770009AD2ECD9430EE126D9CFE9FFDACFEAFF7E
:10578000EE6E500EEE6E530E22DA4C0EEE6E480E9A
:10579000EE6E200E1CDA5A0EEE6E430EEE6E200EEA
:1057A00016DA4A0EEE6E500EEE6E430E10DA450E0D
:1057B000EE6E4D0EEE6E530E0ADA530EEE6E590E6D
:1057C000EE6E420E04DA450EEE6E430EEE6E450EA0
:1057D000FED9410EEE6E420EEE6E430EF8D9580E13
:1057E000EE6E590EEE6E5A0EF2D9440EEE6E450E66
:1057F000EE6E460EEE6EEE6A640EF36E280EF3CF7A
:10580000DBFF290EDB6A630EF36E2A0EF3CFDBFF9C
:105810002B0EDB6A620EF36E2C0EF3CFDBFF2D0E28
:10582000DB6A610EF36E2E0EF3CFDBFF2F0EDB6A09
:10583000600EF36E300EF3CFDBFF310EDB6A5F0ECE
:10584000F36E320EF3CFDBFF330EDB6A5E0EF36EC8
:10585000340EF3CFDBFF350EDB6A5D0EF36E360ED2
:10586000F3CFDBFF370EDB6A5C0EF36E380EF3CF3F
:10587000DBFF390EDB6A5B0EF36E3A0EF3CFDBFF14
:105880003B0EDB6ACEEC44F03F0EF3CFDBFF400E65
:10589000F4CFDBFF3C0EDB6A0A0EF36E3C0EDBCF6F
:1058A000F4FFF350F45C43E2ABD9410EF3CFDBFFDE
:1058B000420EF4CFDBFF56D9F3500F0127D9E55242
:1058C000E750EF6E4FD9F32821D9010E2FD9E552B9
:1058D000E750EF6E47D9F350020F18D90EDAE552B0
:1058E000E750EF6EFED911DAD950280F166EDACFD5
:1058F00017F03C0EDB50020D1650F324E96EDA501F
:10590000F420EA6EEECF14F0EFCF15F0EAD901DA09
:1059100014C0EEFF15C0EDFF410EDBCFE6FF420ED7
:10592000DBCFE6FF4DD998D93C0EDB2AB5D748D955
:1059300031D9D9CFE6FFDACFE6FF5AEC56F0146E34
:10594000060EE15E14503CD9B8D9430EE15C02E288
:10595000E16AE552F6D0FAD8040EE12681D9CDD914
:105960000ED923E053D9020EEECFDBFF030EEDCFAD
:10597000DBFFFD0EDBCF14F0FE0EDBCF15F077D989
:10598000C8D9EECF16F0EFCF17F01450165C1550B3
:10599000175809E2DECF14F0DDCF15F014C0F3FF85
:1059A00015C0F4FF04D032D9DAD7F36AF46A040ED2
:1059B000E15C02E2E16AE552C4D0C8D8030EE126F8
:1059C00016DDF3CFDEFFF4CFDDFF000EE66EE66AF4
:1059D000DECFE6FFDDCFE6FF6CD9E76E020EE7CF44
:1059E000DBFFDECFE6FFDDCFE6FF67D9020EDB503F
:1059F000146E030EE15C02E2E16AE55254D1A6D8CE
:105A00000B0EE126F4DC030EF3CFDBFF040EF4CF24
:105A1000DBFF85D80CD99FDF55D9050EF3CFDBFF0F
:105A2000060EF4CFDBFFD950050FDED843E0E8D8EF
:105A3000090EF3CFDBFF0A0EF4CFDBFF8CD869D958
:105A4000FD0EDBCFEEFFFE0EDBCFEDFF320EE66E7E
:105A50004FD981D841D97FD858D9090EDBCFE6FF7D
:105A60000A0EDBCFE6FF050EDBCFE6FF060EDBCF2F
:105A7000E6FF55D840EC45F0146E060EE15E14507A
:105A8000070EF3CFDBFF080EF4CFDBFF030EB2D817
:105A90004DD8C1D844D803EC45F014D9070EDBCF5C
:105AA000E6FF080EDBCFE6FF3AD803D938D872D824
:105AB00052D80DD934D801D90B0EE15C02E2E16A6B
:105AC000E5523FD0CEEC68F0FDD806C014F007C018
:105AD00015F008C016F009C017F006C0E6FF07C0B1
