:02000000442892
:0A000600A208031D07280800F930C6
:10001000FF3E031D0828A20B0728080083120313C4
:10002000860186308316860019309900181518123B
:100030008312981783169816831206170130A200B0
:10004000032006130130A2000320A0010830200283
:1000500003183E280310A10D861F302821103128D7
:1000600021140130A200032086160130A2000320D3
:1000700086120130A2000320A00A26282108990038
:0E0080000A30A20003201C288A110A120E2842
:00000001FF